{
	"contracts/real-estate-marketplace/Shares.sol": {
		"Shares": {
			"abi": [
				{
					"inputs": [],
					"stateMutability": "nonpayable",
					"type": "constructor"
				},
				{
					"inputs": [
						{
							"internalType": "address",
							"name": "spender",
							"type": "address"
						},
						{
							"internalType": "uint256",
							"name": "allowance",
							"type": "uint256"
						},
						{
							"internalType": "uint256",
							"name": "needed",
							"type": "uint256"
						}
					],
					"name": "ERC20InsufficientAllowance",
					"type": "error"
				},
				{
					"inputs": [
						{
							"internalType": "address",
							"name": "sender",
							"type": "address"
						},
						{
							"internalType": "uint256",
							"name": "balance",
							"type": "uint256"
						},
						{
							"internalType": "uint256",
							"name": "needed",
							"type": "uint256"
						}
					],
					"name": "ERC20InsufficientBalance",
					"type": "error"
				},
				{
					"inputs": [
						{
							"internalType": "address",
							"name": "approver",
							"type": "address"
						}
					],
					"name": "ERC20InvalidApprover",
					"type": "error"
				},
				{
					"inputs": [
						{
							"internalType": "address",
							"name": "receiver",
							"type": "address"
						}
					],
					"name": "ERC20InvalidReceiver",
					"type": "error"
				},
				{
					"inputs": [
						{
							"internalType": "address",
							"name": "sender",
							"type": "address"
						}
					],
					"name": "ERC20InvalidSender",
					"type": "error"
				},
				{
					"inputs": [
						{
							"internalType": "address",
							"name": "spender",
							"type": "address"
						}
					],
					"name": "ERC20InvalidSpender",
					"type": "error"
				},
				{
					"inputs": [
						{
							"internalType": "address",
							"name": "owner",
							"type": "address"
						}
					],
					"name": "OwnableInvalidOwner",
					"type": "error"
				},
				{
					"inputs": [
						{
							"internalType": "address",
							"name": "account",
							"type": "address"
						}
					],
					"name": "OwnableUnauthorizedAccount",
					"type": "error"
				},
				{
					"anonymous": false,
					"inputs": [
						{
							"indexed": true,
							"internalType": "address",
							"name": "owner",
							"type": "address"
						},
						{
							"indexed": true,
							"internalType": "address",
							"name": "spender",
							"type": "address"
						},
						{
							"indexed": false,
							"internalType": "uint256",
							"name": "value",
							"type": "uint256"
						}
					],
					"name": "Approval",
					"type": "event"
				},
				{
					"anonymous": false,
					"inputs": [
						{
							"indexed": true,
							"internalType": "address",
							"name": "previousOwner",
							"type": "address"
						},
						{
							"indexed": true,
							"internalType": "address",
							"name": "newOwner",
							"type": "address"
						}
					],
					"name": "OwnershipTransferred",
					"type": "event"
				},
				{
					"anonymous": false,
					"inputs": [
						{
							"indexed": false,
							"internalType": "address",
							"name": "account",
							"type": "address"
						}
					],
					"name": "Paused",
					"type": "event"
				},
				{
					"anonymous": false,
					"inputs": [
						{
							"indexed": true,
							"internalType": "address",
							"name": "investor",
							"type": "address"
						},
						{
							"indexed": false,
							"internalType": "uint256",
							"name": "propertyId",
							"type": "uint256"
						},
						{
							"indexed": false,
							"internalType": "uint256",
							"name": "sharesIssued",
							"type": "uint256"
						}
					],
					"name": "SharesIssued",
					"type": "event"
				},
				{
					"anonymous": false,
					"inputs": [
						{
							"indexed": true,
							"internalType": "address",
							"name": "from",
							"type": "address"
						},
						{
							"indexed": true,
							"internalType": "address",
							"name": "to",
							"type": "address"
						},
						{
							"indexed": false,
							"internalType": "uint256",
							"name": "propertyId",
							"type": "uint256"
						},
						{
							"indexed": false,
							"internalType": "uint256",
							"name": "sharesTransferred",
							"type": "uint256"
						}
					],
					"name": "SharesTransferred",
					"type": "event"
				},
				{
					"anonymous": false,
					"inputs": [
						{
							"indexed": true,
							"internalType": "address",
							"name": "from",
							"type": "address"
						},
						{
							"indexed": true,
							"internalType": "address",
							"name": "to",
							"type": "address"
						},
						{
							"indexed": false,
							"internalType": "uint256",
							"name": "value",
							"type": "uint256"
						}
					],
					"name": "Transfer",
					"type": "event"
				},
				{
					"anonymous": false,
					"inputs": [
						{
							"indexed": false,
							"internalType": "address",
							"name": "account",
							"type": "address"
						}
					],
					"name": "Unpaused",
					"type": "event"
				},
				{
					"inputs": [
						{
							"internalType": "address",
							"name": "owner",
							"type": "address"
						},
						{
							"internalType": "address",
							"name": "spender",
							"type": "address"
						}
					],
					"name": "allowance",
					"outputs": [
						{
							"internalType": "uint256",
							"name": "",
							"type": "uint256"
						}
					],
					"stateMutability": "view",
					"type": "function"
				},
				{
					"inputs": [
						{
							"internalType": "address",
							"name": "spender",
							"type": "address"
						},
						{
							"internalType": "uint256",
							"name": "value",
							"type": "uint256"
						}
					],
					"name": "approve",
					"outputs": [
						{
							"internalType": "bool",
							"name": "",
							"type": "bool"
						}
					],
					"stateMutability": "nonpayable",
					"type": "function"
				},
				{
					"inputs": [
						{
							"internalType": "address",
							"name": "account",
							"type": "address"
						}
					],
					"name": "balanceOf",
					"outputs": [
						{
							"internalType": "uint256",
							"name": "",
							"type": "uint256"
						}
					],
					"stateMutability": "view",
					"type": "function"
				},
				{
					"inputs": [
						{
							"internalType": "uint256",
							"name": "",
							"type": "uint256"
						}
					],
					"name": "basketShares",
					"outputs": [
						{
							"internalType": "uint256",
							"name": "",
							"type": "uint256"
						}
					],
					"stateMutability": "view",
					"type": "function"
				},
				{
					"inputs": [
						{
							"internalType": "uint256",
							"name": "",
							"type": "uint256"
						}
					],
					"name": "baskets",
					"outputs": [
						{
							"internalType": "uint256",
							"name": "basketId",
							"type": "uint256"
						},
						{
							"internalType": "uint256",
							"name": "totalShares",
							"type": "uint256"
						}
					],
					"stateMutability": "view",
					"type": "function"
				},
				{
					"inputs": [
						{
							"internalType": "uint256",
							"name": "basketId",
							"type": "uint256"
						},
						{
							"internalType": "uint256[]",
							"name": "propertyIds",
							"type": "uint256[]"
						},
						{
							"internalType": "uint256",
							"name": "totalShares",
							"type": "uint256"
						}
					],
					"name": "createBasket",
					"outputs": [],
					"stateMutability": "nonpayable",
					"type": "function"
				},
				{
					"inputs": [],
					"name": "decimals",
					"outputs": [
						{
							"internalType": "uint8",
							"name": "",
							"type": "uint8"
						}
					],
					"stateMutability": "view",
					"type": "function"
				},
				{
					"inputs": [
						{
							"internalType": "uint256",
							"name": "propertyId",
							"type": "uint256"
						}
					],
					"name": "getAvailableShares",
					"outputs": [
						{
							"internalType": "uint256",
							"name": "",
							"type": "uint256"
						}
					],
					"stateMutability": "view",
					"type": "function"
				},
				{
					"inputs": [
						{
							"internalType": "uint256",
							"name": "basketId",
							"type": "uint256"
						}
					],
					"name": "getBasketDetails",
					"outputs": [
						{
							"components": [
								{
									"internalType": "uint256",
									"name": "basketId",
									"type": "uint256"
								},
								{
									"internalType": "uint256[]",
									"name": "propertyIds",
									"type": "uint256[]"
								},
								{
									"internalType": "uint256",
									"name": "totalShares",
									"type": "uint256"
								}
							],
							"internalType": "struct Shares.ShareBasket",
							"name": "",
							"type": "tuple"
						}
					],
					"stateMutability": "view",
					"type": "function"
				},
				{
					"inputs": [
						{
							"internalType": "uint256",
							"name": "propertyId",
							"type": "uint256"
						}
					],
					"name": "getPropertyOwner",
					"outputs": [
						{
							"internalType": "address",
							"name": "",
							"type": "address"
						}
					],
					"stateMutability": "view",
					"type": "function"
				},
				{
					"inputs": [
						{
							"internalType": "uint256",
							"name": "propertyId",
							"type": "uint256"
						},
						{
							"internalType": "address",
							"name": "shareholder",
							"type": "address"
						}
					],
					"name": "getShares",
					"outputs": [
						{
							"internalType": "uint256",
							"name": "",
							"type": "uint256"
						}
					],
					"stateMutability": "view",
					"type": "function"
				},
				{
					"inputs": [
						{
							"internalType": "uint256",
							"name": "propertyId",
							"type": "uint256"
						}
					],
					"name": "getTotalShares",
					"outputs": [
						{
							"internalType": "uint256",
							"name": "",
							"type": "uint256"
						}
					],
					"stateMutability": "view",
					"type": "function"
				},
				{
					"inputs": [
						{
							"internalType": "uint256",
							"name": "",
							"type": "uint256"
						}
					],
					"name": "integrateWithExternalSystem",
					"outputs": [
						{
							"internalType": "bool",
							"name": "",
							"type": "bool"
						}
					],
					"stateMutability": "pure",
					"type": "function"
				},
				{
					"inputs": [
						{
							"internalType": "uint256",
							"name": "propertyId",
							"type": "uint256"
						},
						{
							"internalType": "address",
							"name": "investor",
							"type": "address"
						},
						{
							"internalType": "uint256",
							"name": "shares",
							"type": "uint256"
						}
					],
					"name": "issuePropertyShares",
					"outputs": [],
					"stateMutability": "nonpayable",
					"type": "function"
				},
				{
					"inputs": [
						{
							"internalType": "uint256",
							"name": "basketId",
							"type": "uint256"
						},
						{
							"internalType": "address",
							"name": "to",
							"type": "address"
						},
						{
							"internalType": "uint256",
							"name": "amount",
							"type": "uint256"
						}
					],
					"name": "issueShares",
					"outputs": [],
					"stateMutability": "nonpayable",
					"type": "function"
				},
				{
					"inputs": [],
					"name": "name",
					"outputs": [
						{
							"internalType": "string",
							"name": "",
							"type": "string"
						}
					],
					"stateMutability": "view",
					"type": "function"
				},
				{
					"inputs": [],
					"name": "owner",
					"outputs": [
						{
							"internalType": "address",
							"name": "",
							"type": "address"
						}
					],
					"stateMutability": "view",
					"type": "function"
				},
				{
					"inputs": [],
					"name": "pause",
					"outputs": [],
					"stateMutability": "nonpayable",
					"type": "function"
				},
				{
					"inputs": [],
					"name": "paused",
					"outputs": [
						{
							"internalType": "bool",
							"name": "",
							"type": "bool"
						}
					],
					"stateMutability": "view",
					"type": "function"
				},
				{
					"inputs": [
						{
							"internalType": "uint256",
							"name": "",
							"type": "uint256"
						}
					],
					"name": "propertyOwners",
					"outputs": [
						{
							"internalType": "address",
							"name": "",
							"type": "address"
						}
					],
					"stateMutability": "view",
					"type": "function"
				},
				{
					"inputs": [
						{
							"internalType": "uint256",
							"name": "",
							"type": "uint256"
						}
					],
					"name": "propertyShares",
					"outputs": [
						{
							"internalType": "uint256",
							"name": "totalShares",
							"type": "uint256"
						},
						{
							"internalType": "uint256",
							"name": "availableShares",
							"type": "uint256"
						}
					],
					"stateMutability": "view",
					"type": "function"
				},
				{
					"inputs": [],
					"name": "renounceOwnership",
					"outputs": [],
					"stateMutability": "nonpayable",
					"type": "function"
				},
				{
					"inputs": [
						{
							"internalType": "uint256",
							"name": "propertyId",
							"type": "uint256"
						},
						{
							"internalType": "address",
							"name": "owner",
							"type": "address"
						}
					],
					"name": "setPropertyOwner",
					"outputs": [],
					"stateMutability": "nonpayable",
					"type": "function"
				},
				{
					"inputs": [],
					"name": "symbol",
					"outputs": [
						{
							"internalType": "string",
							"name": "",
							"type": "string"
						}
					],
					"stateMutability": "view",
					"type": "function"
				},
				{
					"inputs": [],
					"name": "totalSupply",
					"outputs": [
						{
							"internalType": "uint256",
							"name": "",
							"type": "uint256"
						}
					],
					"stateMutability": "view",
					"type": "function"
				},
				{
					"inputs": [
						{
							"internalType": "address",
							"name": "to",
							"type": "address"
						},
						{
							"internalType": "uint256",
							"name": "value",
							"type": "uint256"
						}
					],
					"name": "transfer",
					"outputs": [
						{
							"internalType": "bool",
							"name": "",
							"type": "bool"
						}
					],
					"stateMutability": "nonpayable",
					"type": "function"
				},
				{
					"inputs": [
						{
							"internalType": "address",
							"name": "from",
							"type": "address"
						},
						{
							"internalType": "address",
							"name": "to",
							"type": "address"
						},
						{
							"internalType": "uint256",
							"name": "value",
							"type": "uint256"
						}
					],
					"name": "transferFrom",
					"outputs": [
						{
							"internalType": "bool",
							"name": "",
							"type": "bool"
						}
					],
					"stateMutability": "nonpayable",
					"type": "function"
				},
				{
					"inputs": [
						{
							"internalType": "address",
							"name": "newOwner",
							"type": "address"
						}
					],
					"name": "transferOwnership",
					"outputs": [],
					"stateMutability": "nonpayable",
					"type": "function"
				},
				{
					"inputs": [
						{
							"internalType": "uint256",
							"name": "propertyId",
							"type": "uint256"
						},
						{
							"internalType": "address",
							"name": "to",
							"type": "address"
						},
						{
							"internalType": "uint256",
							"name": "shares",
							"type": "uint256"
						}
					],
					"name": "transferShares",
					"outputs": [],
					"stateMutability": "nonpayable",
					"type": "function"
				},
				{
					"inputs": [],
					"name": "unpause",
					"outputs": [],
					"stateMutability": "nonpayable",
					"type": "function"
				}
			],
			"devdoc": {
				"errors": {
					"ERC20InsufficientAllowance(address,uint256,uint256)": [
						{
							"details": "Indicates a failure with the `spender`’s `allowance`. Used in transfers.",
							"params": {
								"allowance": "Amount of tokens a `spender` is allowed to operate with.",
								"needed": "Minimum amount required to perform a transfer.",
								"spender": "Address that may be allowed to operate on tokens without being their owner."
							}
						}
					],
					"ERC20InsufficientBalance(address,uint256,uint256)": [
						{
							"details": "Indicates an error related to the current `balance` of a `sender`. Used in transfers.",
							"params": {
								"balance": "Current balance for the interacting account.",
								"needed": "Minimum amount required to perform a transfer.",
								"sender": "Address whose tokens are being transferred."
							}
						}
					],
					"ERC20InvalidApprover(address)": [
						{
							"details": "Indicates a failure with the `approver` of a token to be approved. Used in approvals.",
							"params": {
								"approver": "Address initiating an approval operation."
							}
						}
					],
					"ERC20InvalidReceiver(address)": [
						{
							"details": "Indicates a failure with the token `receiver`. Used in transfers.",
							"params": {
								"receiver": "Address to which tokens are being transferred."
							}
						}
					],
					"ERC20InvalidSender(address)": [
						{
							"details": "Indicates a failure with the token `sender`. Used in transfers.",
							"params": {
								"sender": "Address whose tokens are being transferred."
							}
						}
					],
					"ERC20InvalidSpender(address)": [
						{
							"details": "Indicates a failure with the `spender` to be approved. Used in approvals.",
							"params": {
								"spender": "Address that may be allowed to operate on tokens without being their owner."
							}
						}
					],
					"OwnableInvalidOwner(address)": [
						{
							"details": "The owner is not a valid owner account. (eg. `address(0)`)"
						}
					],
					"OwnableUnauthorizedAccount(address)": [
						{
							"details": "The caller account is not authorized to perform an operation."
						}
					]
				},
				"events": {
					"Approval(address,address,uint256)": {
						"details": "Emitted when the allowance of a `spender` for an `owner` is set by a call to {approve}. `value` is the new allowance."
					},
					"Paused(address)": {
						"details": "Emitted when the pause is triggered by `account`."
					},
					"Transfer(address,address,uint256)": {
						"details": "Emitted when `value` tokens are moved from one account (`from`) to another (`to`). Note that `value` may be zero."
					},
					"Unpaused(address)": {
						"details": "Emitted when the pause is lifted by `account`."
					}
				},
				"kind": "dev",
				"methods": {
					"allowance(address,address)": {
						"details": "See {IERC20-allowance}."
					},
					"approve(address,uint256)": {
						"details": "See {IERC20-approve}. NOTE: If `value` is the maximum `uint256`, the allowance is not updated on `transferFrom`. This is semantically equivalent to an infinite approval. Requirements: - `spender` cannot be the zero address."
					},
					"balanceOf(address)": {
						"details": "See {IERC20-balanceOf}."
					},
					"decimals()": {
						"details": "Returns the number of decimals used to get its user representation. For example, if `decimals` equals `2`, a balance of `505` tokens should be displayed to a user as `5.05` (`505 / 10 ** 2`). Tokens usually opt for a value of 18, imitating the relationship between Ether and Wei. This is the default value returned by this function, unless it's overridden. NOTE: This information is only used for _display_ purposes: it in no way affects any of the arithmetic of the contract, including {IERC20-balanceOf} and {IERC20-transfer}."
					},
					"name()": {
						"details": "Returns the name of the token."
					},
					"owner()": {
						"details": "Returns the address of the current owner."
					},
					"paused()": {
						"details": "Returns true if the contract is paused, and false otherwise."
					},
					"renounceOwnership()": {
						"details": "Leaves the contract without owner. It will not be possible to call `onlyOwner` functions. Can only be called by the current owner. NOTE: Renouncing ownership will leave the contract without an owner, thereby disabling any functionality that is only available to the owner."
					},
					"symbol()": {
						"details": "Returns the symbol of the token, usually a shorter version of the name."
					},
					"totalSupply()": {
						"details": "See {IERC20-totalSupply}."
					},
					"transfer(address,uint256)": {
						"details": "See {IERC20-transfer}. Requirements: - `to` cannot be the zero address. - the caller must have a balance of at least `value`."
					},
					"transferFrom(address,address,uint256)": {
						"details": "See {IERC20-transferFrom}. Emits an {Approval} event indicating the updated allowance. This is not required by the EIP. See the note at the beginning of {ERC20}. NOTE: Does not update the allowance if the current allowance is the maximum `uint256`. Requirements: - `from` and `to` cannot be the zero address. - `from` must have a balance of at least `value`. - the caller must have allowance for ``from``'s tokens of at least `value`."
					},
					"transferOwnership(address)": {
						"details": "Transfers ownership of the contract to a new account (`newOwner`). Can only be called by the current owner."
					}
				},
				"version": 1
			},
			"evm": {
				"assembly": "    /* \"contracts/real-estate-marketplace/Shares.sol\":343:4159  contract Shares is ERC20, Ownable, Pausable {... */\n  mstore(0x40, 0x80)\n    /* \"contracts/real-estate-marketplace/Shares.sol\":1153:1226  constructor() ERC20(\"PropertyShare\", \"SHARE\") Ownable(msg.sender) {... */\n  callvalue\n  dup1\n  iszero\n  tag_1\n  jumpi\n  0x00\n  dup1\n  revert\ntag_1:\n  pop\n    /* \"contracts/real-estate-marketplace/Shares.sol\":1207:1217  msg.sender */\n  caller\n    /* \"@openzeppelin/contracts/token/ERC20/ERC20.sol\":1896:2009  constructor(string memory name_, string memory symbol_) {... */\n  mload(0x40)\n  dup1\n  0x40\n  add\n  0x40\n  mstore\n  dup1\n  0x0d\n  dup2\n  mstore\n  0x20\n  add\n  0x50726f7065727479536861726500000000000000000000000000000000000000\n  dup2\n  mstore\n  pop\n  mload(0x40)\n  dup1\n  0x40\n  add\n  0x40\n  mstore\n  dup1\n  0x05\n  dup2\n  mstore\n  0x20\n  add\n  0x5348415245000000000000000000000000000000000000000000000000000000\n  dup2\n  mstore\n  pop\n    /* \"@openzeppelin/contracts/token/ERC20/ERC20.sol\":1970:1975  name_ */\n  dup2\n    /* \"@openzeppelin/contracts/token/ERC20/ERC20.sol\":1962:1967  _name */\n  0x03\n    /* \"@openzeppelin/contracts/token/ERC20/ERC20.sol\":1962:1975  _name = name_ */\n  swap1\n  dup2\n  tag_7\n  swap2\n  swap1\n  tag_8\n  jump\t// in\ntag_7:\n  pop\n    /* \"@openzeppelin/contracts/token/ERC20/ERC20.sol\":1995:2002  symbol_ */\n  dup1\n    /* \"@openzeppelin/contracts/token/ERC20/ERC20.sol\":1985:1992  _symbol */\n  0x04\n    /* \"@openzeppelin/contracts/token/ERC20/ERC20.sol\":1985:2002  _symbol = symbol_ */\n  swap1\n  dup2\n  tag_9\n  swap2\n  swap1\n  tag_8\n  jump\t// in\ntag_9:\n  pop\n    /* \"@openzeppelin/contracts/token/ERC20/ERC20.sol\":1896:2009  constructor(string memory name_, string memory symbol_) {... */\n  pop\n  pop\n    /* \"@openzeppelin/contracts/access/Ownable.sol\":1297:1298  0 */\n  0x00\n    /* \"@openzeppelin/contracts/access/Ownable.sol\":1273:1299  initialOwner == address(0) */\n  0xffffffffffffffffffffffffffffffffffffffff\n  and\n    /* \"@openzeppelin/contracts/access/Ownable.sol\":1273:1285  initialOwner */\n  dup2\n    /* \"@openzeppelin/contracts/access/Ownable.sol\":1273:1299  initialOwner == address(0) */\n  0xffffffffffffffffffffffffffffffffffffffff\n  and\n  sub\n    /* \"@openzeppelin/contracts/access/Ownable.sol\":1269:1364  if (initialOwner == address(0)) {... */\n  tag_11\n  jumpi\n    /* \"@openzeppelin/contracts/access/Ownable.sol\":1350:1351  0 */\n  0x00\n    /* \"@openzeppelin/contracts/access/Ownable.sol\":1322:1353  OwnableInvalidOwner(address(0)) */\n  mload(0x40)\n  0x1e4fbdf700000000000000000000000000000000000000000000000000000000\n  dup2\n  mstore\n  0x04\n  add\n  tag_12\n  swap2\n  swap1\n  tag_13\n  jump\t// in\ntag_12:\n  mload(0x40)\n  dup1\n  swap2\n  sub\n  swap1\n  revert\n    /* \"@openzeppelin/contracts/access/Ownable.sol\":1269:1364  if (initialOwner == address(0)) {... */\ntag_11:\n    /* \"@openzeppelin/contracts/access/Ownable.sol\":1373:1405  _transferOwnership(initialOwner) */\n  tag_14\n    /* \"@openzeppelin/contracts/access/Ownable.sol\":1392:1404  initialOwner */\n  dup2\n    /* \"@openzeppelin/contracts/access/Ownable.sol\":1373:1391  _transferOwnership */\n  shl(0x20, tag_15)\n    /* \"@openzeppelin/contracts/access/Ownable.sol\":1373:1405  _transferOwnership(initialOwner) */\n  0x20\n  shr\n  jump\t// in\ntag_14:\n    /* \"@openzeppelin/contracts/access/Ownable.sol\":1225:1412  constructor(address initialOwner) {... */\n  pop\n    /* \"@openzeppelin/contracts/security/Pausable.sol\":1006:1011  false */\n  0x00\n    /* \"@openzeppelin/contracts/security/Pausable.sol\":996:1003  _paused */\n  0x05\n  0x14\n    /* \"@openzeppelin/contracts/security/Pausable.sol\":996:1011  _paused = false */\n  0x0100\n  exp\n  dup2\n  sload\n  dup2\n  0xff\n  mul\n  not\n  and\n  swap1\n  dup4\n  iszero\n  iszero\n  mul\n  or\n  swap1\n  sstore\n  pop\n    /* \"contracts/real-estate-marketplace/Shares.sol\":343:4159  contract Shares is ERC20, Ownable, Pausable {... */\n  jump(tag_18)\n    /* \"@openzeppelin/contracts/access/Ownable.sol\":2912:3099  function _transferOwnership(address newOwner) internal virtual {... */\ntag_15:\n    /* \"@openzeppelin/contracts/access/Ownable.sol\":2985:3001  address oldOwner */\n  0x00\n    /* \"@openzeppelin/contracts/access/Ownable.sol\":3004:3010  _owner */\n  0x05\n  0x00\n  swap1\n  sload\n  swap1\n  0x0100\n  exp\n  swap1\n  div\n  0xffffffffffffffffffffffffffffffffffffffff\n  and\n    /* \"@openzeppelin/contracts/access/Ownable.sol\":2985:3010  address oldOwner = _owner */\n  swap1\n  pop\n    /* \"@openzeppelin/contracts/access/Ownable.sol\":3029:3037  newOwner */\n  dup2\n    /* \"@openzeppelin/contracts/access/Ownable.sol\":3020:3026  _owner */\n  0x05\n  0x00\n    /* \"@openzeppelin/contracts/access/Ownable.sol\":3020:3037  _owner = newOwner */\n  0x0100\n  exp\n  dup2\n  sload\n  dup2\n  0xffffffffffffffffffffffffffffffffffffffff\n  mul\n  not\n  and\n  swap1\n  dup4\n  0xffffffffffffffffffffffffffffffffffffffff\n  and\n  mul\n  or\n  swap1\n  sstore\n  pop\n    /* \"@openzeppelin/contracts/access/Ownable.sol\":3083:3091  newOwner */\n  dup2\n    /* \"@openzeppelin/contracts/access/Ownable.sol\":3052:3092  OwnershipTransferred(oldOwner, newOwner) */\n  0xffffffffffffffffffffffffffffffffffffffff\n  and\n    /* \"@openzeppelin/contracts/access/Ownable.sol\":3073:3081  oldOwner */\n  dup2\n    /* \"@openzeppelin/contracts/access/Ownable.sol\":3052:3092  OwnershipTransferred(oldOwner, newOwner) */\n  0xffffffffffffffffffffffffffffffffffffffff\n  and\n  0x8be0079c531659141344cd1fd0a4f28419497f9722a3daafe3b4186f6b6457e0\n  mload(0x40)\n  mload(0x40)\n  dup1\n  swap2\n  sub\n  swap1\n  log3\n    /* \"@openzeppelin/contracts/access/Ownable.sol\":2975:3099  {... */\n  pop\n    /* \"@openzeppelin/contracts/access/Ownable.sol\":2912:3099  function _transferOwnership(address newOwner) internal virtual {... */\n  pop\n  jump\t// out\n    /* \"#utility.yul\":7:106   */\ntag_20:\n    /* \"#utility.yul\":59:65   */\n  0x00\n    /* \"#utility.yul\":93:98   */\n  dup2\n    /* \"#utility.yul\":87:99   */\n  mload\n    /* \"#utility.yul\":77:99   */\n  swap1\n  pop\n    /* \"#utility.yul\":7:106   */\n  swap2\n  swap1\n  pop\n  jump\t// out\n    /* \"#utility.yul\":112:292   */\ntag_21:\n    /* \"#utility.yul\":160:237   */\n  0x4e487b7100000000000000000000000000000000000000000000000000000000\n    /* \"#utility.yul\":157:158   */\n  0x00\n    /* \"#utility.yul\":150:238   */\n  mstore\n    /* \"#utility.yul\":257:261   */\n  0x41\n    /* \"#utility.yul\":254:255   */\n  0x04\n    /* \"#utility.yul\":247:262   */\n  mstore\n    /* \"#utility.yul\":281:285   */\n  0x24\n    /* \"#utility.yul\":278:279   */\n  0x00\n    /* \"#utility.yul\":271:286   */\n  revert\n    /* \"#utility.yul\":298:478   */\ntag_22:\n    /* \"#utility.yul\":346:423   */\n  0x4e487b7100000000000000000000000000000000000000000000000000000000\n    /* \"#utility.yul\":343:344   */\n  0x00\n    /* \"#utility.yul\":336:424   */\n  mstore\n    /* \"#utility.yul\":443:447   */\n  0x22\n    /* \"#utility.yul\":440:441   */\n  0x04\n    /* \"#utility.yul\":433:448   */\n  mstore\n    /* \"#utility.yul\":467:471   */\n  0x24\n    /* \"#utility.yul\":464:465   */\n  0x00\n    /* \"#utility.yul\":457:472   */\n  revert\n    /* \"#utility.yul\":484:804   */\ntag_23:\n    /* \"#utility.yul\":528:534   */\n  0x00\n    /* \"#utility.yul\":565:566   */\n  0x02\n    /* \"#utility.yul\":559:563   */\n  dup3\n    /* \"#utility.yul\":555:567   */\n  div\n    /* \"#utility.yul\":545:567   */\n  swap1\n  pop\n    /* \"#utility.yul\":612:613   */\n  0x01\n    /* \"#utility.yul\":606:610   */\n  dup3\n    /* \"#utility.yul\":602:614   */\n  and\n    /* \"#utility.yul\":633:651   */\n  dup1\n    /* \"#utility.yul\":623:704   */\n  tag_48\n  jumpi\n    /* \"#utility.yul\":689:693   */\n  0x7f\n    /* \"#utility.yul\":681:687   */\n  dup3\n    /* \"#utility.yul\":677:694   */\n  and\n    /* \"#utility.yul\":667:694   */\n  swap2\n  pop\n    /* \"#utility.yul\":623:704   */\ntag_48:\n    /* \"#utility.yul\":751:753   */\n  0x20\n    /* \"#utility.yul\":743:749   */\n  dup3\n    /* \"#utility.yul\":740:754   */\n  lt\n    /* \"#utility.yul\":720:738   */\n  dup2\n    /* \"#utility.yul\":717:755   */\n  sub\n    /* \"#utility.yul\":714:798   */\n  tag_49\n  jumpi\n    /* \"#utility.yul\":770:788   */\n  tag_50\n  tag_22\n  jump\t// in\ntag_50:\n    /* \"#utility.yul\":714:798   */\ntag_49:\n    /* \"#utility.yul\":535:804   */\n  pop\n    /* \"#utility.yul\":484:804   */\n  swap2\n  swap1\n  pop\n  jump\t// out\n    /* \"#utility.yul\":810:951   */\ntag_24:\n    /* \"#utility.yul\":859:863   */\n  0x00\n    /* \"#utility.yul\":882:885   */\n  dup2\n    /* \"#utility.yul\":874:885   */\n  swap1\n  pop\n    /* \"#utility.yul\":905:908   */\n  dup2\n    /* \"#utility.yul\":902:903   */\n  0x00\n    /* \"#utility.yul\":895:909   */\n  mstore\n    /* \"#utility.yul\":939:943   */\n  0x20\n    /* \"#utility.yul\":936:937   */\n  0x00\n    /* \"#utility.yul\":926:944   */\n  keccak256\n    /* \"#utility.yul\":918:944   */\n  swap1\n  pop\n    /* \"#utility.yul\":810:951   */\n  swap2\n  swap1\n  pop\n  jump\t// out\n    /* \"#utility.yul\":957:1050   */\ntag_25:\n    /* \"#utility.yul\":994:1000   */\n  0x00\n    /* \"#utility.yul\":1041:1043   */\n  0x20\n    /* \"#utility.yul\":1036:1038   */\n  0x1f\n    /* \"#utility.yul\":1029:1034   */\n  dup4\n    /* \"#utility.yul\":1025:1039   */\n  add\n    /* \"#utility.yul\":1021:1044   */\n  div\n    /* \"#utility.yul\":1011:1044   */\n  swap1\n  pop\n    /* \"#utility.yul\":957:1050   */\n  swap2\n  swap1\n  pop\n  jump\t// out\n    /* \"#utility.yul\":1056:1163   */\ntag_26:\n    /* \"#utility.yul\":1100:1108   */\n  0x00\n    /* \"#utility.yul\":1150:1155   */\n  dup3\n    /* \"#utility.yul\":1144:1148   */\n  dup3\n    /* \"#utility.yul\":1140:1156   */\n  shl\n    /* \"#utility.yul\":1119:1156   */\n  swap1\n  pop\n    /* \"#utility.yul\":1056:1163   */\n  swap3\n  swap2\n  pop\n  pop\n  jump\t// out\n    /* \"#utility.yul\":1169:1562   */\ntag_27:\n    /* \"#utility.yul\":1238:1244   */\n  0x00\n    /* \"#utility.yul\":1288:1289   */\n  0x08\n    /* \"#utility.yul\":1276:1286   */\n  dup4\n    /* \"#utility.yul\":1272:1290   */\n  mul\n    /* \"#utility.yul\":1311:1408   */\n  tag_55\n    /* \"#utility.yul\":1341:1407   */\n  0xffffffffffffffffffffffffffffffffffffffffffffffffffffffffffffffff\n    /* \"#utility.yul\":1330:1339   */\n  dup3\n    /* \"#utility.yul\":1311:1408   */\n  tag_26\n  jump\t// in\ntag_55:\n    /* \"#utility.yul\":1429:1468   */\n  tag_56\n    /* \"#utility.yul\":1459:1467   */\n  dup7\n    /* \"#utility.yul\":1448:1457   */\n  dup4\n    /* \"#utility.yul\":1429:1468   */\n  tag_26\n  jump\t// in\ntag_56:\n    /* \"#utility.yul\":1417:1468   */\n  swap6\n  pop\n    /* \"#utility.yul\":1501:1505   */\n  dup1\n    /* \"#utility.yul\":1497:1506   */\n  not\n    /* \"#utility.yul\":1490:1495   */\n  dup5\n    /* \"#utility.yul\":1486:1507   */\n  and\n    /* \"#utility.yul\":1477:1507   */\n  swap4\n  pop\n    /* \"#utility.yul\":1550:1554   */\n  dup1\n    /* \"#utility.yul\":1540:1548   */\n  dup7\n    /* \"#utility.yul\":1536:1555   */\n  and\n    /* \"#utility.yul\":1529:1534   */\n  dup5\n    /* \"#utility.yul\":1526:1556   */\n  or\n    /* \"#utility.yul\":1516:1556   */\n  swap3\n  pop\n    /* \"#utility.yul\":1245:1562   */\n  pop\n  pop\n    /* \"#utility.yul\":1169:1562   */\n  swap4\n  swap3\n  pop\n  pop\n  pop\n  jump\t// out\n    /* \"#utility.yul\":1568:1645   */\ntag_28:\n    /* \"#utility.yul\":1605:1612   */\n  0x00\n    /* \"#utility.yul\":1634:1639   */\n  dup2\n    /* \"#utility.yul\":1623:1639   */\n  swap1\n  pop\n    /* \"#utility.yul\":1568:1645   */\n  swap2\n  swap1\n  pop\n  jump\t// out\n    /* \"#utility.yul\":1651:1711   */\ntag_29:\n    /* \"#utility.yul\":1679:1682   */\n  0x00\n    /* \"#utility.yul\":1700:1705   */\n  dup2\n    /* \"#utility.yul\":1693:1705   */\n  swap1\n  pop\n    /* \"#utility.yul\":1651:1711   */\n  swap2\n  swap1\n  pop\n  jump\t// out\n    /* \"#utility.yul\":1717:1859   */\ntag_30:\n    /* \"#utility.yul\":1767:1776   */\n  0x00\n    /* \"#utility.yul\":1800:1853   */\n  tag_60\n    /* \"#utility.yul\":1818:1852   */\n  tag_61\n    /* \"#utility.yul\":1827:1851   */\n  tag_62\n    /* \"#utility.yul\":1845:1850   */\n  dup5\n    /* \"#utility.yul\":1827:1851   */\n  tag_28\n  jump\t// in\ntag_62:\n    /* \"#utility.yul\":1818:1852   */\n  tag_29\n  jump\t// in\ntag_61:\n    /* \"#utility.yul\":1800:1853   */\n  tag_28\n  jump\t// in\ntag_60:\n    /* \"#utility.yul\":1787:1853   */\n  swap1\n  pop\n    /* \"#utility.yul\":1717:1859   */\n  swap2\n  swap1\n  pop\n  jump\t// out\n    /* \"#utility.yul\":1865:1940   */\ntag_31:\n    /* \"#utility.yul\":1908:1911   */\n  0x00\n    /* \"#utility.yul\":1929:1934   */\n  dup2\n    /* \"#utility.yul\":1922:1934   */\n  swap1\n  pop\n    /* \"#utility.yul\":1865:1940   */\n  swap2\n  swap1\n  pop\n  jump\t// out\n    /* \"#utility.yul\":1946:2215   */\ntag_32:\n    /* \"#utility.yul\":2056:2095   */\n  tag_65\n    /* \"#utility.yul\":2087:2094   */\n  dup4\n    /* \"#utility.yul\":2056:2095   */\n  tag_30\n  jump\t// in\ntag_65:\n    /* \"#utility.yul\":2117:2208   */\n  tag_66\n    /* \"#utility.yul\":2166:2207   */\n  tag_67\n    /* \"#utility.yul\":2190:2206   */\n  dup3\n    /* \"#utility.yul\":2166:2207   */\n  tag_31\n  jump\t// in\ntag_67:\n    /* \"#utility.yul\":2158:2164   */\n  dup5\n    /* \"#utility.yul\":2151:2155   */\n  dup5\n    /* \"#utility.yul\":2145:2156   */\n  sload\n    /* \"#utility.yul\":2117:2208   */\n  tag_27\n  jump\t// in\ntag_66:\n    /* \"#utility.yul\":2111:2115   */\n  dup3\n    /* \"#utility.yul\":2104:2209   */\n  sstore\n    /* \"#utility.yul\":2022:2215   */\n  pop\n    /* \"#utility.yul\":1946:2215   */\n  pop\n  pop\n  pop\n  jump\t// out\n    /* \"#utility.yul\":2221:2294   */\ntag_33:\n    /* \"#utility.yul\":2266:2269   */\n  0x00\n    /* \"#utility.yul\":2221:2294   */\n  swap1\n  jump\t// out\n    /* \"#utility.yul\":2300:2489   */\ntag_34:\n    /* \"#utility.yul\":2377:2409   */\n  tag_70\n  tag_33\n  jump\t// in\ntag_70:\n    /* \"#utility.yul\":2418:2483   */\n  tag_71\n    /* \"#utility.yul\":2476:2482   */\n  dup2\n    /* \"#utility.yul\":2468:2474   */\n  dup5\n    /* \"#utility.yul\":2462:2466   */\n  dup5\n    /* \"#utility.yul\":2418:2483   */\n  tag_32\n  jump\t// in\ntag_71:\n    /* \"#utility.yul\":2353:2489   */\n  pop\n    /* \"#utility.yul\":2300:2489   */\n  pop\n  pop\n  jump\t// out\n    /* \"#utility.yul\":2495:2681   */\ntag_35:\n    /* \"#utility.yul\":2555:2675   */\ntag_73:\n    /* \"#utility.yul\":2572:2575   */\n  dup2\n    /* \"#utility.yul\":2565:2570   */\n  dup2\n    /* \"#utility.yul\":2562:2576   */\n  lt\n    /* \"#utility.yul\":2555:2675   */\n  iszero\n  tag_75\n  jumpi\n    /* \"#utility.yul\":2626:2665   */\n  tag_76\n    /* \"#utility.yul\":2663:2664   */\n  0x00\n    /* \"#utility.yul\":2656:2661   */\n  dup3\n    /* \"#utility.yul\":2626:2665   */\n  tag_34\n  jump\t// in\ntag_76:\n    /* \"#utility.yul\":2599:2600   */\n  0x01\n    /* \"#utility.yul\":2592:2597   */\n  dup2\n    /* \"#utility.yul\":2588:2601   */\n  add\n    /* \"#utility.yul\":2579:2601   */\n  swap1\n  pop\n    /* \"#utility.yul\":2555:2675   */\n  jump(tag_73)\ntag_75:\n    /* \"#utility.yul\":2495:2681   */\n  pop\n  pop\n  jump\t// out\n    /* \"#utility.yul\":2687:3230   */\ntag_36:\n    /* \"#utility.yul\":2788:2790   */\n  0x1f\n    /* \"#utility.yul\":2783:2786   */\n  dup3\n    /* \"#utility.yul\":2780:2791   */\n  gt\n    /* \"#utility.yul\":2777:3223   */\n  iszero\n  tag_78\n  jumpi\n    /* \"#utility.yul\":2822:2860   */\n  tag_79\n    /* \"#utility.yul\":2854:2859   */\n  dup2\n    /* \"#utility.yul\":2822:2860   */\n  tag_24\n  jump\t// in\ntag_79:\n    /* \"#utility.yul\":2906:2935   */\n  tag_80\n    /* \"#utility.yul\":2924:2934   */\n  dup5\n    /* \"#utility.yul\":2906:2935   */\n  tag_25\n  jump\t// in\ntag_80:\n    /* \"#utility.yul\":2896:2904   */\n  dup2\n    /* \"#utility.yul\":2892:2936   */\n  add\n    /* \"#utility.yul\":3089:3091   */\n  0x20\n    /* \"#utility.yul\":3077:3087   */\n  dup6\n    /* \"#utility.yul\":3074:3092   */\n  lt\n    /* \"#utility.yul\":3071:3120   */\n  iszero\n  tag_81\n  jumpi\n    /* \"#utility.yul\":3110:3118   */\n  dup2\n    /* \"#utility.yul\":3095:3118   */\n  swap1\n  pop\n    /* \"#utility.yul\":3071:3120   */\ntag_81:\n    /* \"#utility.yul\":3133:3213   */\n  tag_82\n    /* \"#utility.yul\":3189:3211   */\n  tag_83\n    /* \"#utility.yul\":3207:3210   */\n  dup6\n    /* \"#utility.yul\":3189:3211   */\n  tag_25\n  jump\t// in\ntag_83:\n    /* \"#utility.yul\":3179:3187   */\n  dup4\n    /* \"#utility.yul\":3175:3212   */\n  add\n    /* \"#utility.yul\":3162:3173   */\n  dup3\n    /* \"#utility.yul\":3133:3213   */\n  tag_35\n  jump\t// in\ntag_82:\n    /* \"#utility.yul\":2792:3223   */\n  pop\n  pop\n    /* \"#utility.yul\":2777:3223   */\ntag_78:\n    /* \"#utility.yul\":2687:3230   */\n  pop\n  pop\n  pop\n  jump\t// out\n    /* \"#utility.yul\":3236:3353   */\ntag_37:\n    /* \"#utility.yul\":3290:3298   */\n  0x00\n    /* \"#utility.yul\":3340:3345   */\n  dup3\n    /* \"#utility.yul\":3334:3338   */\n  dup3\n    /* \"#utility.yul\":3330:3346   */\n  shr\n    /* \"#utility.yul\":3309:3346   */\n  swap1\n  pop\n    /* \"#utility.yul\":3236:3353   */\n  swap3\n  swap2\n  pop\n  pop\n  jump\t// out\n    /* \"#utility.yul\":3359:3528   */\ntag_38:\n    /* \"#utility.yul\":3403:3409   */\n  0x00\n    /* \"#utility.yul\":3436:3487   */\n  tag_86\n    /* \"#utility.yul\":3484:3485   */\n  0x00\n    /* \"#utility.yul\":3480:3486   */\n  not\n    /* \"#utility.yul\":3472:3477   */\n  dup5\n    /* \"#utility.yul\":3469:3470   */\n  0x08\n    /* \"#utility.yul\":3465:3478   */\n  mul\n    /* \"#utility.yul\":3436:3487   */\n  tag_37\n  jump\t// in\ntag_86:\n    /* \"#utility.yul\":3432:3488   */\n  not\n    /* \"#utility.yul\":3517:3521   */\n  dup1\n    /* \"#utility.yul\":3511:3515   */\n  dup4\n    /* \"#utility.yul\":3507:3522   */\n  and\n    /* \"#utility.yul\":3497:3522   */\n  swap2\n  pop\n    /* \"#utility.yul\":3410:3528   */\n  pop\n    /* \"#utility.yul\":3359:3528   */\n  swap3\n  swap2\n  pop\n  pop\n  jump\t// out\n    /* \"#utility.yul\":3533:3828   */\ntag_39:\n    /* \"#utility.yul\":3609:3613   */\n  0x00\n    /* \"#utility.yul\":3755:3784   */\n  tag_88\n    /* \"#utility.yul\":3780:3783   */\n  dup4\n    /* \"#utility.yul\":3774:3778   */\n  dup4\n    /* \"#utility.yul\":3755:3784   */\n  tag_38\n  jump\t// in\ntag_88:\n    /* \"#utility.yul\":3747:3784   */\n  swap2\n  pop\n    /* \"#utility.yul\":3817:3820   */\n  dup3\n    /* \"#utility.yul\":3814:3815   */\n  0x02\n    /* \"#utility.yul\":3810:3821   */\n  mul\n    /* \"#utility.yul\":3804:3808   */\n  dup3\n    /* \"#utility.yul\":3801:3822   */\n  or\n    /* \"#utility.yul\":3793:3822   */\n  swap1\n  pop\n    /* \"#utility.yul\":3533:3828   */\n  swap3\n  swap2\n  pop\n  pop\n  jump\t// out\n    /* \"#utility.yul\":3833:5228   */\ntag_8:\n    /* \"#utility.yul\":3950:3987   */\n  tag_90\n    /* \"#utility.yul\":3983:3986   */\n  dup3\n    /* \"#utility.yul\":3950:3987   */\n  tag_20\n  jump\t// in\ntag_90:\n    /* \"#utility.yul\":4052:4070   */\n  0xffffffffffffffff\n    /* \"#utility.yul\":4044:4050   */\n  dup2\n    /* \"#utility.yul\":4041:4071   */\n  gt\n    /* \"#utility.yul\":4038:4094   */\n  iszero\n  tag_91\n  jumpi\n    /* \"#utility.yul\":4074:4092   */\n  tag_92\n  tag_21\n  jump\t// in\ntag_92:\n    /* \"#utility.yul\":4038:4094   */\ntag_91:\n    /* \"#utility.yul\":4118:4156   */\n  tag_93\n    /* \"#utility.yul\":4150:4154   */\n  dup3\n    /* \"#utility.yul\":4144:4155   */\n  sload\n    /* \"#utility.yul\":4118:4156   */\n  tag_23\n  jump\t// in\ntag_93:\n    /* \"#utility.yul\":4203:4270   */\n  tag_94\n    /* \"#utility.yul\":4263:4269   */\n  dup3\n    /* \"#utility.yul\":4255:4261   */\n  dup3\n    /* \"#utility.yul\":4249:4253   */\n  dup6\n    /* \"#utility.yul\":4203:4270   */\n  tag_36\n  jump\t// in\ntag_94:\n    /* \"#utility.yul\":4297:4298   */\n  0x00\n    /* \"#utility.yul\":4321:4325   */\n  0x20\n    /* \"#utility.yul\":4308:4325   */\n  swap1\n  pop\n    /* \"#utility.yul\":4353:4355   */\n  0x1f\n    /* \"#utility.yul\":4345:4351   */\n  dup4\n    /* \"#utility.yul\":4342:4356   */\n  gt\n    /* \"#utility.yul\":4370:4371   */\n  0x01\n    /* \"#utility.yul\":4365:4983   */\n  dup2\n  eq\n  tag_96\n  jumpi\n    /* \"#utility.yul\":5027:5028   */\n  0x00\n    /* \"#utility.yul\":5044:5050   */\n  dup5\n    /* \"#utility.yul\":5041:5118   */\n  iszero\n  tag_97\n  jumpi\n    /* \"#utility.yul\":5093:5102   */\n  dup3\n    /* \"#utility.yul\":5088:5091   */\n  dup8\n    /* \"#utility.yul\":5084:5103   */\n  add\n    /* \"#utility.yul\":5078:5104   */\n  mload\n    /* \"#utility.yul\":5069:5104   */\n  swap1\n  pop\n    /* \"#utility.yul\":5041:5118   */\ntag_97:\n    /* \"#utility.yul\":5144:5211   */\n  tag_98\n    /* \"#utility.yul\":5204:5210   */\n  dup6\n    /* \"#utility.yul\":5197:5202   */\n  dup3\n    /* \"#utility.yul\":5144:5211   */\n  tag_39\n  jump\t// in\ntag_98:\n    /* \"#utility.yul\":5138:5142   */\n  dup7\n    /* \"#utility.yul\":5131:5212   */\n  sstore\n    /* \"#utility.yul\":5000:5222   */\n  pop\n    /* \"#utility.yul\":4335:5222   */\n  jump(tag_95)\n    /* \"#utility.yul\":4365:4983   */\ntag_96:\n    /* \"#utility.yul\":4417:4421   */\n  0x1f\n    /* \"#utility.yul\":4413:4422   */\n  not\n    /* \"#utility.yul\":4405:4411   */\n  dup5\n    /* \"#utility.yul\":4401:4423   */\n  and\n    /* \"#utility.yul\":4451:4488   */\n  tag_99\n    /* \"#utility.yul\":4483:4487   */\n  dup7\n    /* \"#utility.yul\":4451:4488   */\n  tag_24\n  jump\t// in\ntag_99:\n    /* \"#utility.yul\":4510:4511   */\n  0x00\n    /* \"#utility.yul\":4524:4732   */\ntag_100:\n    /* \"#utility.yul\":4538:4545   */\n  dup3\n    /* \"#utility.yul\":4535:4536   */\n  dup2\n    /* \"#utility.yul\":4532:4546   */\n  lt\n    /* \"#utility.yul\":4524:4732   */\n  iszero\n  tag_102\n  jumpi\n    /* \"#utility.yul\":4617:4626   */\n  dup5\n    /* \"#utility.yul\":4612:4615   */\n  dup10\n    /* \"#utility.yul\":4608:4627   */\n  add\n    /* \"#utility.yul\":4602:4628   */\n  mload\n    /* \"#utility.yul\":4594:4600   */\n  dup3\n    /* \"#utility.yul\":4587:4629   */\n  sstore\n    /* \"#utility.yul\":4668:4669   */\n  0x01\n    /* \"#utility.yul\":4660:4666   */\n  dup3\n    /* \"#utility.yul\":4656:4670   */\n  add\n    /* \"#utility.yul\":4646:4670   */\n  swap2\n  pop\n    /* \"#utility.yul\":4715:4717   */\n  0x20\n    /* \"#utility.yul\":4704:4713   */\n  dup6\n    /* \"#utility.yul\":4700:4718   */\n  add\n    /* \"#utility.yul\":4687:4718   */\n  swap5\n  pop\n    /* \"#utility.yul\":4561:4565   */\n  0x20\n    /* \"#utility.yul\":4558:4559   */\n  dup2\n    /* \"#utility.yul\":4554:4566   */\n  add\n    /* \"#utility.yul\":4549:4566   */\n  swap1\n  pop\n    /* \"#utility.yul\":4524:4732   */\n  jump(tag_100)\ntag_102:\n    /* \"#utility.yul\":4760:4766   */\n  dup7\n    /* \"#utility.yul\":4751:4758   */\n  dup4\n    /* \"#utility.yul\":4748:4767   */\n  lt\n    /* \"#utility.yul\":4745:4924   */\n  iszero\n  tag_103\n  jumpi\n    /* \"#utility.yul\":4818:4827   */\n  dup5\n    /* \"#utility.yul\":4813:4816   */\n  dup10\n    /* \"#utility.yul\":4809:4828   */\n  add\n    /* \"#utility.yul\":4803:4829   */\n  mload\n    /* \"#utility.yul\":4861:4909   */\n  tag_104\n    /* \"#utility.yul\":4903:4907   */\n  0x1f\n    /* \"#utility.yul\":4895:4901   */\n  dup10\n    /* \"#utility.yul\":4891:4908   */\n  and\n    /* \"#utility.yul\":4880:4889   */\n  dup3\n    /* \"#utility.yul\":4861:4909   */\n  tag_38\n  jump\t// in\ntag_104:\n    /* \"#utility.yul\":4853:4859   */\n  dup4\n    /* \"#utility.yul\":4846:4910   */\n  sstore\n    /* \"#utility.yul\":4768:4924   */\n  pop\n    /* \"#utility.yul\":4745:4924   */\ntag_103:\n    /* \"#utility.yul\":4970:4971   */\n  0x01\n    /* \"#utility.yul\":4966:4967   */\n  0x02\n    /* \"#utility.yul\":4958:4964   */\n  dup9\n    /* \"#utility.yul\":4954:4968   */\n  mul\n    /* \"#utility.yul\":4950:4972   */\n  add\n    /* \"#utility.yul\":4944:4948   */\n  dup9\n    /* \"#utility.yul\":4937:4973   */\n  sstore\n    /* \"#utility.yul\":4372:4983   */\n  pop\n  pop\n  pop\n    /* \"#utility.yul\":4335:5222   */\ntag_95:\n  pop\n    /* \"#utility.yul\":3925:5228   */\n  pop\n  pop\n  pop\n    /* \"#utility.yul\":3833:5228   */\n  pop\n  pop\n  jump\t// out\n    /* \"#utility.yul\":5234:5360   */\ntag_40:\n    /* \"#utility.yul\":5271:5278   */\n  0x00\n    /* \"#utility.yul\":5311:5353   */\n  0xffffffffffffffffffffffffffffffffffffffff\n    /* \"#utility.yul\":5304:5309   */\n  dup3\n    /* \"#utility.yul\":5300:5354   */\n  and\n    /* \"#utility.yul\":5289:5354   */\n  swap1\n  pop\n    /* \"#utility.yul\":5234:5360   */\n  swap2\n  swap1\n  pop\n  jump\t// out\n    /* \"#utility.yul\":5366:5462   */\ntag_41:\n    /* \"#utility.yul\":5403:5410   */\n  0x00\n    /* \"#utility.yul\":5432:5456   */\n  tag_107\n    /* \"#utility.yul\":5450:5455   */\n  dup3\n    /* \"#utility.yul\":5432:5456   */\n  tag_40\n  jump\t// in\ntag_107:\n    /* \"#utility.yul\":5421:5456   */\n  swap1\n  pop\n    /* \"#utility.yul\":5366:5462   */\n  swap2\n  swap1\n  pop\n  jump\t// out\n    /* \"#utility.yul\":5468:5586   */\ntag_42:\n    /* \"#utility.yul\":5555:5579   */\n  tag_109\n    /* \"#utility.yul\":5573:5578   */\n  dup2\n    /* \"#utility.yul\":5555:5579   */\n  tag_41\n  jump\t// in\ntag_109:\n    /* \"#utility.yul\":5550:5553   */\n  dup3\n    /* \"#utility.yul\":5543:5580   */\n  mstore\n    /* \"#utility.yul\":5468:5586   */\n  pop\n  pop\n  jump\t// out\n    /* \"#utility.yul\":5592:5814   */\ntag_13:\n    /* \"#utility.yul\":5685:5689   */\n  0x00\n    /* \"#utility.yul\":5723:5725   */\n  0x20\n    /* \"#utility.yul\":5712:5721   */\n  dup3\n    /* \"#utility.yul\":5708:5726   */\n  add\n    /* \"#utility.yul\":5700:5726   */\n  swap1\n  pop\n    /* \"#utility.yul\":5736:5807   */\n  tag_111\n    /* \"#utility.yul\":5804:5805   */\n  0x00\n    /* \"#utility.yul\":5793:5802   */\n  dup4\n    /* \"#utility.yul\":5789:5806   */\n  add\n    /* \"#utility.yul\":5780:5786   */\n  dup5\n    /* \"#utility.yul\":5736:5807   */\n  tag_42\n  jump\t// in\ntag_111:\n    /* \"#utility.yul\":5592:5814   */\n  swap3\n  swap2\n  pop\n  pop\n  jump\t// out\n    /* \"contracts/real-estate-marketplace/Shares.sol\":343:4159  contract Shares is ERC20, Ownable, Pausable {... */\ntag_18:\n  dataSize(sub_0)\n  dup1\n  dataOffset(sub_0)\n  0x00\n  codecopy\n  0x00\n  return\nstop\n\nsub_0: assembly {\n        /* \"contracts/real-estate-marketplace/Shares.sol\":343:4159  contract Shares is ERC20, Ownable, Pausable {... */\n      mstore(0x40, 0x80)\n      callvalue\n      dup1\n      iszero\n      tag_1\n      jumpi\n      0x00\n      dup1\n      revert\n    tag_1:\n      pop\n      jumpi(tag_2, lt(calldatasize, 0x04))\n      shr(0xe0, calldataload(0x00))\n      dup1\n      0x8456cb59\n      gt\n      tag_33\n      jumpi\n      dup1\n      0xb543cf38\n      gt\n      tag_34\n      jumpi\n      dup1\n      0xdd8aa6f6\n      gt\n      tag_35\n      jumpi\n      dup1\n      0xdd8aa6f6\n      eq\n      tag_29\n      jumpi\n      dup1\n      0xe34fc531\n      eq\n      tag_30\n      jumpi\n      dup1\n      0xf2fde38b\n      eq\n      tag_31\n      jumpi\n      dup1\n      0xff03e8c2\n      eq\n      tag_32\n      jumpi\n      jump(tag_2)\n    tag_35:\n      dup1\n      0xb543cf38\n      eq\n      tag_25\n      jumpi\n      dup1\n      0xb7b551ed\n      eq\n      tag_26\n      jumpi\n      dup1\n      0xdcd9d12d\n      eq\n      tag_27\n      jumpi\n      dup1\n      0xdd62ed3e\n      eq\n      tag_28\n      jumpi\n      jump(tag_2)\n    tag_34:\n      dup1\n      0x8da5cb5b\n      gt\n      tag_36\n      jumpi\n      dup1\n      0x8da5cb5b\n      eq\n      tag_21\n      jumpi\n      dup1\n      0x95d89b41\n      eq\n      tag_22\n      jumpi\n      dup1\n      0xa60ed374\n      eq\n      tag_23\n      jumpi\n      dup1\n      0xa9059cbb\n      eq\n      tag_24\n      jumpi\n      jump(tag_2)\n    tag_36:\n      dup1\n      0x8456cb59\n      eq\n      tag_18\n      jumpi\n      dup1\n      0x84b9a6e6\n      eq\n      tag_19\n      jumpi\n      dup1\n      0x85fff858\n      eq\n      tag_20\n      jumpi\n      jump(tag_2)\n    tag_33:\n      dup1\n      0x51111b72\n      gt\n      tag_37\n      jumpi\n      dup1\n      0x70a08231\n      gt\n      tag_38\n      jumpi\n      dup1\n      0x70a08231\n      eq\n      tag_14\n      jumpi\n      dup1\n      0x715018a6\n      eq\n      tag_15\n      jumpi\n      dup1\n      0x75c0b9fe\n      eq\n      tag_16\n      jumpi\n      dup1\n      0x7f2af083\n      eq\n      tag_17\n      jumpi\n      jump(tag_2)\n    tag_38:\n      dup1\n      0x51111b72\n      eq\n      tag_10\n      jumpi\n      dup1\n      0x5813a683\n      eq\n      tag_11\n      jumpi\n      dup1\n      0x5c975abb\n      eq\n      tag_12\n      jumpi\n      dup1\n      0x5dfe7721\n      eq\n      tag_13\n      jumpi\n      jump(tag_2)\n    tag_37:\n      dup1\n      0x23b872dd\n      gt\n      tag_39\n      jumpi\n      dup1\n      0x23b872dd\n      eq\n      tag_6\n      jumpi\n      dup1\n      0x313ce567\n      eq\n      tag_7\n      jumpi\n      dup1\n      0x3f4ba83a\n      eq\n      tag_8\n      jumpi\n      dup1\n      0x4885cf0a\n      eq\n      tag_9\n      jumpi\n      jump(tag_2)\n    tag_39:\n      dup1\n      0x06fdde03\n      eq\n      tag_3\n      jumpi\n      dup1\n      0x095ea7b3\n      eq\n      tag_4\n      jumpi\n      dup1\n      0x18160ddd\n      eq\n      tag_5\n      jumpi\n    tag_2:\n      0x00\n      dup1\n      revert\n        /* \"@openzeppelin/contracts/token/ERC20/ERC20.sol\":2074:2163  function name() public view virtual returns (string memory) {... */\n    tag_3:\n      tag_40\n      tag_41\n      jump\t// in\n    tag_40:\n      mload(0x40)\n      tag_42\n      swap2\n      swap1\n      tag_43\n      jump\t// in\n    tag_42:\n      mload(0x40)\n      dup1\n      swap2\n      sub\n      swap1\n      return\n        /* \"@openzeppelin/contracts/token/ERC20/ERC20.sol\":4293:4479  function approve(address spender, uint256 value) public virtual returns (bool) {... */\n    tag_4:\n      tag_44\n      0x04\n      dup1\n      calldatasize\n      sub\n      dup2\n      add\n      swap1\n      tag_45\n      swap2\n      swap1\n      tag_46\n      jump\t// in\n    tag_45:\n      tag_47\n      jump\t// in\n    tag_44:\n      mload(0x40)\n      tag_48\n      swap2\n      swap1\n      tag_49\n      jump\t// in\n    tag_48:\n      mload(0x40)\n      dup1\n      swap2\n      sub\n      swap1\n      return\n        /* \"@openzeppelin/contracts/token/ERC20/ERC20.sol\":3144:3241  function totalSupply() public view virtual returns (uint256) {... */\n    tag_5:\n      tag_50\n      tag_51\n      jump\t// in\n    tag_50:\n      mload(0x40)\n      tag_52\n      swap2\n      swap1\n      tag_53\n      jump\t// in\n    tag_52:\n      mload(0x40)\n      dup1\n      swap2\n      sub\n      swap1\n      return\n        /* \"@openzeppelin/contracts/token/ERC20/ERC20.sol\":5039:5283  function transferFrom(address from, address to, uint256 value) public virtual returns (bool) {... */\n    tag_6:\n      tag_54\n      0x04\n      dup1\n      calldatasize\n      sub\n      dup2\n      add\n      swap1\n      tag_55\n      swap2\n      swap1\n      tag_56\n      jump\t// in\n    tag_55:\n      tag_57\n      jump\t// in\n    tag_54:\n      mload(0x40)\n      tag_58\n      swap2\n      swap1\n      tag_49\n      jump\t// in\n    tag_58:\n      mload(0x40)\n      dup1\n      swap2\n      sub\n      swap1\n      return\n        /* \"@openzeppelin/contracts/token/ERC20/ERC20.sol\":3002:3084  function decimals() public view virtual returns (uint8) {... */\n    tag_7:\n      tag_59\n      tag_60\n      jump\t// in\n    tag_59:\n      mload(0x40)\n      tag_61\n      swap2\n      swap1\n      tag_62\n      jump\t// in\n    tag_61:\n      mload(0x40)\n      dup1\n      swap2\n      sub\n      swap1\n      return\n        /* \"contracts/real-estate-marketplace/Shares.sol\":3929:3994  function unpause() external onlyOwner {... */\n    tag_8:\n      tag_63\n      tag_64\n      jump\t// in\n    tag_63:\n      stop\n        /* \"contracts/real-estate-marketplace/Shares.sol\":771:818  mapping(uint256 => uint256) public basketShares */\n    tag_9:\n      tag_65\n      0x04\n      dup1\n      calldatasize\n      sub\n      dup2\n      add\n      swap1\n      tag_66\n      swap2\n      swap1\n      tag_67\n      jump\t// in\n    tag_66:\n      tag_68\n      jump\t// in\n    tag_65:\n      mload(0x40)\n      tag_69\n      swap2\n      swap1\n      tag_53\n      jump\t// in\n    tag_69:\n      mload(0x40)\n      dup1\n      swap2\n      sub\n      swap1\n      return\n        /* \"contracts/real-estate-marketplace/Shares.sol\":1232:1556  function createBasket(uint256 basketId, uint256[] memory propertyIds, uint256 totalShares) external onlyOwner {... */\n    tag_10:\n      tag_70\n      0x04\n      dup1\n      calldatasize\n      sub\n      dup2\n      add\n      swap1\n      tag_71\n      swap2\n      swap1\n      tag_72\n      jump\t// in\n    tag_71:\n      tag_73\n      jump\t// in\n    tag_70:\n      stop\n        /* \"contracts/real-estate-marketplace/Shares.sol\":3528:3722  function setPropertyOwner(uint256 propertyId, address owner) external onlyOwner {... */\n    tag_11:\n      tag_74\n      0x04\n      dup1\n      calldatasize\n      sub\n      dup2\n      add\n      swap1\n      tag_75\n      swap2\n      swap1\n      tag_76\n      jump\t// in\n    tag_75:\n      tag_77\n      jump\t// in\n    tag_74:\n      stop\n        /* \"@openzeppelin/contracts/security/Pausable.sol\":1615:1699  function paused() public view virtual returns (bool) {... */\n    tag_12:\n      tag_78\n      tag_79\n      jump\t// in\n    tag_78:\n      mload(0x40)\n      tag_80\n      swap2\n      swap1\n      tag_49\n      jump\t// in\n    tag_80:\n      mload(0x40)\n      dup1\n      swap2\n      sub\n      swap1\n      return\n        /* \"contracts/real-estate-marketplace/Shares.sol\":4000:4157  function integrateWithExternalSystem(uint256 /* propertyId */) external pure returns (bool) {... */\n    tag_13:\n      tag_81\n      0x04\n      dup1\n      calldatasize\n      sub\n      dup2\n      add\n      swap1\n      tag_82\n      swap2\n      swap1\n      tag_67\n      jump\t// in\n    tag_82:\n      tag_83\n      jump\t// in\n    tag_81:\n      mload(0x40)\n      tag_84\n      swap2\n      swap1\n      tag_49\n      jump\t// in\n    tag_84:\n      mload(0x40)\n      dup1\n      swap2\n      sub\n      swap1\n      return\n        /* \"@openzeppelin/contracts/token/ERC20/ERC20.sol\":3299:3415  function balanceOf(address account) public view virtual returns (uint256) {... */\n    tag_14:\n      tag_85\n      0x04\n      dup1\n      calldatasize\n      sub\n      dup2\n      add\n      swap1\n      tag_86\n      swap2\n      swap1\n      tag_87\n      jump\t// in\n    tag_86:\n      tag_88\n      jump\t// in\n    tag_85:\n      mload(0x40)\n      tag_89\n      swap2\n      swap1\n      tag_53\n      jump\t// in\n    tag_89:\n      mload(0x40)\n      dup1\n      swap2\n      sub\n      swap1\n      return\n        /* \"@openzeppelin/contracts/access/Ownable.sol\":2293:2394  function renounceOwnership() public virtual onlyOwner {... */\n    tag_15:\n      tag_90\n      tag_91\n      jump\t// in\n    tag_90:\n      stop\n        /* \"contracts/real-estate-marketplace/Shares.sol\":3058:3226  function getShares(uint256 propertyId, address shareholder) external view returns (uint256) {... */\n    tag_16:\n      tag_92\n      0x04\n      dup1\n      calldatasize\n      sub\n      dup2\n      add\n      swap1\n      tag_93\n      swap2\n      swap1\n      tag_76\n      jump\t// in\n    tag_93:\n      tag_94\n      jump\t// in\n    tag_92:\n      mload(0x40)\n      tag_95\n      swap2\n      swap1\n      tag_53\n      jump\t// in\n    tag_95:\n      mload(0x40)\n      dup1\n      swap2\n      sub\n      swap1\n      return\n        /* \"contracts/real-estate-marketplace/Shares.sol\":886:935  mapping(uint256 => address) public propertyOwners */\n    tag_17:\n      tag_96\n      0x04\n      dup1\n      calldatasize\n      sub\n      dup2\n      add\n      swap1\n      tag_97\n      swap2\n      swap1\n      tag_67\n      jump\t// in\n    tag_97:\n      tag_98\n      jump\t// in\n    tag_96:\n      mload(0x40)\n      tag_99\n      swap2\n      swap1\n      tag_100\n      jump\t// in\n    tag_99:\n      mload(0x40)\n      dup1\n      swap2\n      sub\n      swap1\n      return\n        /* \"contracts/real-estate-marketplace/Shares.sol\":3862:3923  function pause() external onlyOwner {... */\n    tag_18:\n      tag_101\n      tag_102\n      jump\t// in\n    tag_101:\n      stop\n        /* \"contracts/real-estate-marketplace/Shares.sol\":2521:3052  function transferShares(uint256 propertyId, address to, uint256 shares) external whenNotPaused {... */\n    tag_19:\n      tag_103\n      0x04\n      dup1\n      calldatasize\n      sub\n      dup2\n      add\n      swap1\n      tag_104\n      swap2\n      swap1\n      tag_105\n      jump\t// in\n    tag_104:\n      tag_106\n      jump\t// in\n    tag_103:\n      stop\n        /* \"contracts/real-estate-marketplace/Shares.sol\":3232:3370  function getTotalShares(uint256 propertyId) external view returns (uint256) {... */\n    tag_20:\n      tag_107\n      0x04\n      dup1\n      calldatasize\n      sub\n      dup2\n      add\n      swap1\n      tag_108\n      swap2\n      swap1\n      tag_67\n      jump\t// in\n    tag_108:\n      tag_109\n      jump\t// in\n    tag_107:\n      mload(0x40)\n      tag_110\n      swap2\n      swap1\n      tag_53\n      jump\t// in\n    tag_110:\n      mload(0x40)\n      dup1\n      swap2\n      sub\n      swap1\n      return\n        /* \"@openzeppelin/contracts/access/Ownable.sol\":1638:1723  function owner() public view virtual returns (address) {... */\n    tag_21:\n      tag_111\n      tag_112\n      jump\t// in\n    tag_111:\n      mload(0x40)\n      tag_113\n      swap2\n      swap1\n      tag_100\n      jump\t// in\n    tag_113:\n      mload(0x40)\n      dup1\n      swap2\n      sub\n      swap1\n      return\n        /* \"@openzeppelin/contracts/token/ERC20/ERC20.sol\":2276:2369  function symbol() public view virtual returns (string memory) {... */\n    tag_22:\n      tag_114\n      tag_115\n      jump\t// in\n    tag_114:\n      mload(0x40)\n      tag_116\n      swap2\n      swap1\n      tag_43\n      jump\t// in\n    tag_116:\n      mload(0x40)\n      dup1\n      swap2\n      sub\n      swap1\n      return\n        /* \"contracts/real-estate-marketplace/Shares.sol\":719:765  mapping(uint256 => ShareBasket) public baskets */\n    tag_23:\n      tag_117\n      0x04\n      dup1\n      calldatasize\n      sub\n      dup2\n      add\n      swap1\n      tag_118\n      swap2\n      swap1\n      tag_67\n      jump\t// in\n    tag_118:\n      tag_119\n      jump\t// in\n    tag_117:\n      mload(0x40)\n      tag_120\n      swap3\n      swap2\n      swap1\n      tag_121\n      jump\t// in\n    tag_120:\n      mload(0x40)\n      dup1\n      swap2\n      sub\n      swap1\n      return\n        /* \"@openzeppelin/contracts/token/ERC20/ERC20.sol\":3610:3788  function transfer(address to, uint256 value) public virtual returns (bool) {... */\n    tag_24:\n      tag_122\n      0x04\n      dup1\n      calldatasize\n      sub\n      dup2\n      add\n      swap1\n      tag_123\n      swap2\n      swap1\n      tag_46\n      jump\t// in\n    tag_123:\n      tag_124\n      jump\t// in\n    tag_122:\n      mload(0x40)\n      tag_125\n      swap2\n      swap1\n      tag_49\n      jump\t// in\n    tag_125:\n      mload(0x40)\n      dup1\n      swap2\n      sub\n      swap1\n      return\n        /* \"contracts/real-estate-marketplace/Shares.sol\":1948:2515  function issuePropertyShares(uint256 propertyId, address investor, uint256 shares) external onlyOwner whenNotPaused {... */\n    tag_25:\n      tag_126\n      0x04\n      dup1\n      calldatasize\n      sub\n      dup2\n      add\n      swap1\n      tag_127\n      swap2\n      swap1\n      tag_105\n      jump\t// in\n    tag_127:\n      tag_128\n      jump\t// in\n    tag_126:\n      stop\n        /* \"contracts/real-estate-marketplace/Shares.sol\":824:880  mapping(uint256 => PropertyShares) public propertyShares */\n    tag_26:\n      tag_129\n      0x04\n      dup1\n      calldatasize\n      sub\n      dup2\n      add\n      swap1\n      tag_130\n      swap2\n      swap1\n      tag_67\n      jump\t// in\n    tag_130:\n      tag_131\n      jump\t// in\n    tag_129:\n      mload(0x40)\n      tag_132\n      swap3\n      swap2\n      swap1\n      tag_121\n      jump\t// in\n    tag_132:\n      mload(0x40)\n      dup1\n      swap2\n      sub\n      swap1\n      return\n        /* \"contracts/real-estate-marketplace/Shares.sol\":3376:3522  function getAvailableShares(uint256 propertyId) external view returns (uint256) {... */\n    tag_27:\n      tag_133\n      0x04\n      dup1\n      calldatasize\n      sub\n      dup2\n      add\n      swap1\n      tag_134\n      swap2\n      swap1\n      tag_67\n      jump\t// in\n    tag_134:\n      tag_135\n      jump\t// in\n    tag_133:\n      mload(0x40)\n      tag_136\n      swap2\n      swap1\n      tag_53\n      jump\t// in\n    tag_136:\n      mload(0x40)\n      dup1\n      swap2\n      sub\n      swap1\n      return\n        /* \"@openzeppelin/contracts/token/ERC20/ERC20.sol\":3846:3986  function allowance(address owner, address spender) public view virtual returns (uint256) {... */\n    tag_28:\n      tag_137\n      0x04\n      dup1\n      calldatasize\n      sub\n      dup2\n      add\n      swap1\n      tag_138\n      swap2\n      swap1\n      tag_139\n      jump\t// in\n    tag_138:\n      tag_140\n      jump\t// in\n    tag_137:\n      mload(0x40)\n      tag_141\n      swap2\n      swap1\n      tag_53\n      jump\t// in\n    tag_141:\n      mload(0x40)\n      dup1\n      swap2\n      sub\n      swap1\n      return\n        /* \"contracts/real-estate-marketplace/Shares.sol\":1562:1808  function issueShares(uint256 basketId, address to, uint256 amount) external onlyOwner {... */\n    tag_29:\n      tag_142\n      0x04\n      dup1\n      calldatasize\n      sub\n      dup2\n      add\n      swap1\n      tag_143\n      swap2\n      swap1\n      tag_105\n      jump\t// in\n    tag_143:\n      tag_144\n      jump\t// in\n    tag_142:\n      stop\n        /* \"contracts/real-estate-marketplace/Shares.sol\":3728:3856  function getPropertyOwner(uint256 propertyId) external view returns (address) {... */\n    tag_30:\n      tag_145\n      0x04\n      dup1\n      calldatasize\n      sub\n      dup2\n      add\n      swap1\n      tag_146\n      swap2\n      swap1\n      tag_67\n      jump\t// in\n    tag_146:\n      tag_147\n      jump\t// in\n    tag_145:\n      mload(0x40)\n      tag_148\n      swap2\n      swap1\n      tag_100\n      jump\t// in\n    tag_148:\n      mload(0x40)\n      dup1\n      swap2\n      sub\n      swap1\n      return\n        /* \"@openzeppelin/contracts/access/Ownable.sol\":2543:2758  function transferOwnership(address newOwner) public virtual onlyOwner {... */\n    tag_31:\n      tag_149\n      0x04\n      dup1\n      calldatasize\n      sub\n      dup2\n      add\n      swap1\n      tag_150\n      swap2\n      swap1\n      tag_87\n      jump\t// in\n    tag_150:\n      tag_151\n      jump\t// in\n    tag_149:\n      stop\n        /* \"contracts/real-estate-marketplace/Shares.sol\":1814:1942  function getBasketDetails(uint256 basketId) external view returns (ShareBasket memory) {... */\n    tag_32:\n      tag_152\n      0x04\n      dup1\n      calldatasize\n      sub\n      dup2\n      add\n      swap1\n      tag_153\n      swap2\n      swap1\n      tag_67\n      jump\t// in\n    tag_153:\n      tag_154\n      jump\t// in\n    tag_152:\n      mload(0x40)\n      tag_155\n      swap2\n      swap1\n      tag_156\n      jump\t// in\n    tag_155:\n      mload(0x40)\n      dup1\n      swap2\n      sub\n      swap1\n      return\n        /* \"@openzeppelin/contracts/token/ERC20/ERC20.sol\":2074:2163  function name() public view virtual returns (string memory) {... */\n    tag_41:\n        /* \"@openzeppelin/contracts/token/ERC20/ERC20.sol\":2119:2132  string memory */\n      0x60\n        /* \"@openzeppelin/contracts/token/ERC20/ERC20.sol\":2151:2156  _name */\n      0x03\n        /* \"@openzeppelin/contracts/token/ERC20/ERC20.sol\":2144:2156  return _name */\n      dup1\n      sload\n      tag_158\n      swap1\n      tag_159\n      jump\t// in\n    tag_158:\n      dup1\n      0x1f\n      add\n      0x20\n      dup1\n      swap2\n      div\n      mul\n      0x20\n      add\n      mload(0x40)\n      swap1\n      dup2\n      add\n      0x40\n      mstore\n      dup1\n      swap3\n      swap2\n      swap1\n      dup2\n      dup2\n      mstore\n      0x20\n      add\n      dup3\n      dup1\n      sload\n      tag_160\n      swap1\n      tag_159\n      jump\t// in\n    tag_160:\n      dup1\n      iszero\n      tag_161\n      jumpi\n      dup1\n      0x1f\n      lt\n      tag_162\n      jumpi\n      0x0100\n      dup1\n      dup4\n      sload\n      div\n      mul\n      dup4\n      mstore\n      swap2\n      0x20\n      add\n      swap2\n      jump(tag_161)\n    tag_162:\n      dup3\n      add\n      swap2\n      swap1\n      0x00\n      mstore\n      keccak256(0x00, 0x20)\n      swap1\n    tag_163:\n      dup2\n      sload\n      dup2\n      mstore\n      swap1\n      0x01\n      add\n      swap1\n      0x20\n      add\n      dup1\n      dup4\n      gt\n      tag_163\n      jumpi\n      dup3\n      swap1\n      sub\n      0x1f\n      and\n      dup3\n      add\n      swap2\n    tag_161:\n      pop\n      pop\n      pop\n      pop\n      pop\n      swap1\n      pop\n        /* \"@openzeppelin/contracts/token/ERC20/ERC20.sol\":2074:2163  function name() public view virtual returns (string memory) {... */\n      swap1\n      jump\t// out\n        /* \"@openzeppelin/contracts/token/ERC20/ERC20.sol\":4293:4479  function approve(address spender, uint256 value) public virtual returns (bool) {... */\n    tag_47:\n        /* \"@openzeppelin/contracts/token/ERC20/ERC20.sol\":4366:4370  bool */\n      0x00\n        /* \"@openzeppelin/contracts/token/ERC20/ERC20.sol\":4382:4395  address owner */\n      dup1\n        /* \"@openzeppelin/contracts/token/ERC20/ERC20.sol\":4398:4410  _msgSender() */\n      tag_165\n        /* \"@openzeppelin/contracts/token/ERC20/ERC20.sol\":4398:4408  _msgSender */\n      tag_166\n        /* \"@openzeppelin/contracts/token/ERC20/ERC20.sol\":4398:4410  _msgSender() */\n      jump\t// in\n    tag_165:\n        /* \"@openzeppelin/contracts/token/ERC20/ERC20.sol\":4382:4410  address owner = _msgSender() */\n      swap1\n      pop\n        /* \"@openzeppelin/contracts/token/ERC20/ERC20.sol\":4420:4451  _approve(owner, spender, value) */\n      tag_167\n        /* \"@openzeppelin/contracts/token/ERC20/ERC20.sol\":4429:4434  owner */\n      dup2\n        /* \"@openzeppelin/contracts/token/ERC20/ERC20.sol\":4436:4443  spender */\n      dup6\n        /* \"@openzeppelin/contracts/token/ERC20/ERC20.sol\":4445:4450  value */\n      dup6\n        /* \"@openzeppelin/contracts/token/ERC20/ERC20.sol\":4420:4428  _approve */\n      tag_168\n        /* \"@openzeppelin/contracts/token/ERC20/ERC20.sol\":4420:4451  _approve(owner, spender, value) */\n      jump\t// in\n    tag_167:\n        /* \"@openzeppelin/contracts/token/ERC20/ERC20.sol\":4468:4472  true */\n      0x01\n        /* \"@openzeppelin/contracts/token/ERC20/ERC20.sol\":4461:4472  return true */\n      swap2\n      pop\n      pop\n        /* \"@openzeppelin/contracts/token/ERC20/ERC20.sol\":4293:4479  function approve(address spender, uint256 value) public virtual returns (bool) {... */\n      swap3\n      swap2\n      pop\n      pop\n      jump\t// out\n        /* \"@openzeppelin/contracts/token/ERC20/ERC20.sol\":3144:3241  function totalSupply() public view virtual returns (uint256) {... */\n    tag_51:\n        /* \"@openzeppelin/contracts/token/ERC20/ERC20.sol\":3196:3203  uint256 */\n      0x00\n        /* \"@openzeppelin/contracts/token/ERC20/ERC20.sol\":3222:3234  _totalSupply */\n      sload(0x02)\n        /* \"@openzeppelin/contracts/token/ERC20/ERC20.sol\":3215:3234  return _totalSupply */\n      swap1\n      pop\n        /* \"@openzeppelin/contracts/token/ERC20/ERC20.sol\":3144:3241  function totalSupply() public view virtual returns (uint256) {... */\n      swap1\n      jump\t// out\n        /* \"@openzeppelin/contracts/token/ERC20/ERC20.sol\":5039:5283  function transferFrom(address from, address to, uint256 value) public virtual returns (bool) {... */\n    tag_57:\n        /* \"@openzeppelin/contracts/token/ERC20/ERC20.sol\":5126:5130  bool */\n      0x00\n        /* \"@openzeppelin/contracts/token/ERC20/ERC20.sol\":5142:5157  address spender */\n      dup1\n        /* \"@openzeppelin/contracts/token/ERC20/ERC20.sol\":5160:5172  _msgSender() */\n      tag_171\n        /* \"@openzeppelin/contracts/token/ERC20/ERC20.sol\":5160:5170  _msgSender */\n      tag_166\n        /* \"@openzeppelin/contracts/token/ERC20/ERC20.sol\":5160:5172  _msgSender() */\n      jump\t// in\n    tag_171:\n        /* \"@openzeppelin/contracts/token/ERC20/ERC20.sol\":5142:5172  address spender = _msgSender() */\n      swap1\n      pop\n        /* \"@openzeppelin/contracts/token/ERC20/ERC20.sol\":5182:5219  _spendAllowance(from, spender, value) */\n      tag_172\n        /* \"@openzeppelin/contracts/token/ERC20/ERC20.sol\":5198:5202  from */\n      dup6\n        /* \"@openzeppelin/contracts/token/ERC20/ERC20.sol\":5204:5211  spender */\n      dup3\n        /* \"@openzeppelin/contracts/token/ERC20/ERC20.sol\":5213:5218  value */\n      dup6\n        /* \"@openzeppelin/contracts/token/ERC20/ERC20.sol\":5182:5197  _spendAllowance */\n      tag_173\n        /* \"@openzeppelin/contracts/token/ERC20/ERC20.sol\":5182:5219  _spendAllowance(from, spender, value) */\n      jump\t// in\n    tag_172:\n        /* \"@openzeppelin/contracts/token/ERC20/ERC20.sol\":5229:5255  _transfer(from, to, value) */\n      tag_174\n        /* \"@openzeppelin/contracts/token/ERC20/ERC20.sol\":5239:5243  from */\n      dup6\n        /* \"@openzeppelin/contracts/token/ERC20/ERC20.sol\":5245:5247  to */\n      dup6\n        /* \"@openzeppelin/contracts/token/ERC20/ERC20.sol\":5249:5254  value */\n      dup6\n        /* \"@openzeppelin/contracts/token/ERC20/ERC20.sol\":5229:5238  _transfer */\n      tag_175\n        /* \"@openzeppelin/contracts/token/ERC20/ERC20.sol\":5229:5255  _transfer(from, to, value) */\n      jump\t// in\n    tag_174:\n        /* \"@openzeppelin/contracts/token/ERC20/ERC20.sol\":5272:5276  true */\n      0x01\n        /* \"@openzeppelin/contracts/token/ERC20/ERC20.sol\":5265:5276  return true */\n      swap2\n      pop\n      pop\n        /* \"@openzeppelin/contracts/token/ERC20/ERC20.sol\":5039:5283  function transferFrom(address from, address to, uint256 value) public virtual returns (bool) {... */\n      swap4\n      swap3\n      pop\n      pop\n      pop\n      jump\t// out\n        /* \"@openzeppelin/contracts/token/ERC20/ERC20.sol\":3002:3084  function decimals() public view virtual returns (uint8) {... */\n    tag_60:\n        /* \"@openzeppelin/contracts/token/ERC20/ERC20.sol\":3051:3056  uint8 */\n      0x00\n        /* \"@openzeppelin/contracts/token/ERC20/ERC20.sol\":3075:3077  18 */\n      0x12\n        /* \"@openzeppelin/contracts/token/ERC20/ERC20.sol\":3068:3077  return 18 */\n      swap1\n      pop\n        /* \"@openzeppelin/contracts/token/ERC20/ERC20.sol\":3002:3084  function decimals() public view virtual returns (uint8) {... */\n      swap1\n      jump\t// out\n        /* \"contracts/real-estate-marketplace/Shares.sol\":3929:3994  function unpause() external onlyOwner {... */\n    tag_64:\n        /* \"@openzeppelin/contracts/access/Ownable.sol\":1531:1544  _checkOwner() */\n      tag_178\n        /* \"@openzeppelin/contracts/access/Ownable.sol\":1531:1542  _checkOwner */\n      tag_179\n        /* \"@openzeppelin/contracts/access/Ownable.sol\":1531:1544  _checkOwner() */\n      jump\t// in\n    tag_178:\n        /* \"contracts/real-estate-marketplace/Shares.sol\":3977:3987  _unpause() */\n      tag_181\n        /* \"contracts/real-estate-marketplace/Shares.sol\":3977:3985  _unpause */\n      tag_182\n        /* \"contracts/real-estate-marketplace/Shares.sol\":3977:3987  _unpause() */\n      jump\t// in\n    tag_181:\n        /* \"contracts/real-estate-marketplace/Shares.sol\":3929:3994  function unpause() external onlyOwner {... */\n      jump\t// out\n        /* \"contracts/real-estate-marketplace/Shares.sol\":771:818  mapping(uint256 => uint256) public basketShares */\n    tag_68:\n      mstore(0x20, 0x07)\n      dup1\n      0x00\n      mstore\n      keccak256(0x00, 0x40)\n      0x00\n      swap2\n      pop\n      swap1\n      pop\n      sload\n      dup2\n      jump\t// out\n        /* \"contracts/real-estate-marketplace/Shares.sol\":1232:1556  function createBasket(uint256 basketId, uint256[] memory propertyIds, uint256 totalShares) external onlyOwner {... */\n    tag_73:\n        /* \"@openzeppelin/contracts/access/Ownable.sol\":1531:1544  _checkOwner() */\n      tag_184\n        /* \"@openzeppelin/contracts/access/Ownable.sol\":1531:1542  _checkOwner */\n      tag_179\n        /* \"@openzeppelin/contracts/access/Ownable.sol\":1531:1544  _checkOwner() */\n      jump\t// in\n    tag_184:\n        /* \"contracts/real-estate-marketplace/Shares.sol\":1372:1503  ShareBasket({... */\n      mload(0x40)\n      dup1\n      0x60\n      add\n      0x40\n      mstore\n      dup1\n        /* \"contracts/real-estate-marketplace/Shares.sol\":1408:1416  basketId */\n      dup5\n        /* \"contracts/real-estate-marketplace/Shares.sol\":1372:1503  ShareBasket({... */\n      dup2\n      mstore\n      0x20\n      add\n        /* \"contracts/real-estate-marketplace/Shares.sol\":1443:1454  propertyIds */\n      dup4\n        /* \"contracts/real-estate-marketplace/Shares.sol\":1372:1503  ShareBasket({... */\n      dup2\n      mstore\n      0x20\n      add\n        /* \"contracts/real-estate-marketplace/Shares.sol\":1481:1492  totalShares */\n      dup3\n        /* \"contracts/real-estate-marketplace/Shares.sol\":1372:1503  ShareBasket({... */\n      dup2\n      mstore\n      pop\n        /* \"contracts/real-estate-marketplace/Shares.sol\":1352:1359  baskets */\n      0x06\n        /* \"contracts/real-estate-marketplace/Shares.sol\":1352:1369  baskets[basketId] */\n      0x00\n        /* \"contracts/real-estate-marketplace/Shares.sol\":1360:1368  basketId */\n      dup6\n        /* \"contracts/real-estate-marketplace/Shares.sol\":1352:1369  baskets[basketId] */\n      dup2\n      mstore\n      0x20\n      add\n      swap1\n      dup2\n      mstore\n      0x20\n      add\n      0x00\n      keccak256\n        /* \"contracts/real-estate-marketplace/Shares.sol\":1352:1503  baskets[basketId] = ShareBasket({... */\n      0x00\n      dup3\n      add\n      mload\n      dup2\n      0x00\n      add\n      sstore\n      0x20\n      dup3\n      add\n      mload\n      dup2\n      0x01\n      add\n      swap1\n      dup1\n      mload\n      swap1\n      0x20\n      add\n      swap1\n      tag_186\n      swap3\n      swap2\n      swap1\n      tag_187\n      jump\t// in\n    tag_186:\n      pop\n      0x40\n      dup3\n      add\n      mload\n      dup2\n      0x02\n      add\n      sstore\n      swap1\n      pop\n      pop\n        /* \"contracts/real-estate-marketplace/Shares.sol\":1538:1549  totalShares */\n      dup1\n        /* \"contracts/real-estate-marketplace/Shares.sol\":1513:1525  basketShares */\n      0x07\n        /* \"contracts/real-estate-marketplace/Shares.sol\":1513:1535  basketShares[basketId] */\n      0x00\n        /* \"contracts/real-estate-marketplace/Shares.sol\":1526:1534  basketId */\n      dup6\n        /* \"contracts/real-estate-marketplace/Shares.sol\":1513:1535  basketShares[basketId] */\n      dup2\n      mstore\n      0x20\n      add\n      swap1\n      dup2\n      mstore\n      0x20\n      add\n      0x00\n      keccak256\n        /* \"contracts/real-estate-marketplace/Shares.sol\":1513:1549  basketShares[basketId] = totalShares */\n      dup2\n      swap1\n      sstore\n      pop\n        /* \"contracts/real-estate-marketplace/Shares.sol\":1232:1556  function createBasket(uint256 basketId, uint256[] memory propertyIds, uint256 totalShares) external onlyOwner {... */\n      pop\n      pop\n      pop\n      jump\t// out\n        /* \"contracts/real-estate-marketplace/Shares.sol\":3528:3722  function setPropertyOwner(uint256 propertyId, address owner) external onlyOwner {... */\n    tag_77:\n        /* \"@openzeppelin/contracts/access/Ownable.sol\":1531:1544  _checkOwner() */\n      tag_189\n        /* \"@openzeppelin/contracts/access/Ownable.sol\":1531:1542  _checkOwner */\n      tag_179\n        /* \"@openzeppelin/contracts/access/Ownable.sol\":1531:1544  _checkOwner() */\n      jump\t// in\n    tag_189:\n        /* \"contracts/real-estate-marketplace/Shares.sol\":3643:3644  0 */\n      0x00\n        /* \"contracts/real-estate-marketplace/Shares.sol\":3626:3645  owner != address(0) */\n      0xffffffffffffffffffffffffffffffffffffffff\n      and\n        /* \"contracts/real-estate-marketplace/Shares.sol\":3626:3631  owner */\n      dup2\n        /* \"contracts/real-estate-marketplace/Shares.sol\":3626:3645  owner != address(0) */\n      0xffffffffffffffffffffffffffffffffffffffff\n      and\n      sub\n        /* \"contracts/real-estate-marketplace/Shares.sol\":3618:3671  require(owner != address(0), \"Invalid owner address\") */\n      tag_191\n      jumpi\n      mload(0x40)\n      0x08c379a000000000000000000000000000000000000000000000000000000000\n      dup2\n      mstore\n      0x04\n      add\n      tag_192\n      swap1\n      tag_193\n      jump\t// in\n    tag_192:\n      mload(0x40)\n      dup1\n      swap2\n      sub\n      swap1\n      revert\n    tag_191:\n        /* \"contracts/real-estate-marketplace/Shares.sol\":3710:3715  owner */\n      dup1\n        /* \"contracts/real-estate-marketplace/Shares.sol\":3681:3695  propertyOwners */\n      0x09\n        /* \"contracts/real-estate-marketplace/Shares.sol\":3681:3707  propertyOwners[propertyId] */\n      0x00\n        /* \"contracts/real-estate-marketplace/Shares.sol\":3696:3706  propertyId */\n      dup5\n        /* \"contracts/real-estate-marketplace/Shares.sol\":3681:3707  propertyOwners[propertyId] */\n      dup2\n      mstore\n      0x20\n      add\n      swap1\n      dup2\n      mstore\n      0x20\n      add\n      0x00\n      keccak256\n      0x00\n        /* \"contracts/real-estate-marketplace/Shares.sol\":3681:3715  propertyOwners[propertyId] = owner */\n      0x0100\n      exp\n      dup2\n      sload\n      dup2\n      0xffffffffffffffffffffffffffffffffffffffff\n      mul\n      not\n      and\n      swap1\n      dup4\n      0xffffffffffffffffffffffffffffffffffffffff\n      and\n      mul\n      or\n      swap1\n      sstore\n      pop\n        /* \"contracts/real-estate-marketplace/Shares.sol\":3528:3722  function setPropertyOwner(uint256 propertyId, address owner) external onlyOwner {... */\n      pop\n      pop\n      jump\t// out\n        /* \"@openzeppelin/contracts/security/Pausable.sol\":1615:1699  function paused() public view virtual returns (bool) {... */\n    tag_79:\n        /* \"@openzeppelin/contracts/security/Pausable.sol\":1662:1666  bool */\n      0x00\n        /* \"@openzeppelin/contracts/security/Pausable.sol\":1685:1692  _paused */\n      0x05\n      0x14\n      swap1\n      sload\n      swap1\n      0x0100\n      exp\n      swap1\n      div\n      0xff\n      and\n        /* \"@openzeppelin/contracts/security/Pausable.sol\":1678:1692  return _paused */\n      swap1\n      pop\n        /* \"@openzeppelin/contracts/security/Pausable.sol\":1615:1699  function paused() public view virtual returns (bool) {... */\n      swap1\n      jump\t// out\n        /* \"contracts/real-estate-marketplace/Shares.sol\":4000:4157  function integrateWithExternalSystem(uint256 /* propertyId */) external pure returns (bool) {... */\n    tag_83:\n        /* \"contracts/real-estate-marketplace/Shares.sol\":4086:4090  bool */\n      0x00\n        /* \"contracts/real-estate-marketplace/Shares.sol\":4146:4150  true */\n      0x01\n        /* \"contracts/real-estate-marketplace/Shares.sol\":4139:4150  return true */\n      swap1\n      pop\n        /* \"contracts/real-estate-marketplace/Shares.sol\":4000:4157  function integrateWithExternalSystem(uint256 /* propertyId */) external pure returns (bool) {... */\n      swap2\n      swap1\n      pop\n      jump\t// out\n        /* \"@openzeppelin/contracts/token/ERC20/ERC20.sol\":3299:3415  function balanceOf(address account) public view virtual returns (uint256) {... */\n    tag_88:\n        /* \"@openzeppelin/contracts/token/ERC20/ERC20.sol\":3364:3371  uint256 */\n      0x00\n        /* \"@openzeppelin/contracts/token/ERC20/ERC20.sol\":3390:3399  _balances */\n      dup1\n        /* \"@openzeppelin/contracts/token/ERC20/ERC20.sol\":3390:3408  _balances[account] */\n      0x00\n        /* \"@openzeppelin/contracts/token/ERC20/ERC20.sol\":3400:3407  account */\n      dup4\n        /* \"@openzeppelin/contracts/token/ERC20/ERC20.sol\":3390:3408  _balances[account] */\n      0xffffffffffffffffffffffffffffffffffffffff\n      and\n      0xffffffffffffffffffffffffffffffffffffffff\n      and\n      dup2\n      mstore\n      0x20\n      add\n      swap1\n      dup2\n      mstore\n      0x20\n      add\n      0x00\n      keccak256\n      sload\n        /* \"@openzeppelin/contracts/token/ERC20/ERC20.sol\":3383:3408  return _balances[account] */\n      swap1\n      pop\n        /* \"@openzeppelin/contracts/token/ERC20/ERC20.sol\":3299:3415  function balanceOf(address account) public view virtual returns (uint256) {... */\n      swap2\n      swap1\n      pop\n      jump\t// out\n        /* \"@openzeppelin/contracts/access/Ownable.sol\":2293:2394  function renounceOwnership() public virtual onlyOwner {... */\n    tag_91:\n        /* \"@openzeppelin/contracts/access/Ownable.sol\":1531:1544  _checkOwner() */\n      tag_198\n        /* \"@openzeppelin/contracts/access/Ownable.sol\":1531:1542  _checkOwner */\n      tag_179\n        /* \"@openzeppelin/contracts/access/Ownable.sol\":1531:1544  _checkOwner() */\n      jump\t// in\n    tag_198:\n        /* \"@openzeppelin/contracts/access/Ownable.sol\":2357:2387  _transferOwnership(address(0)) */\n      tag_200\n        /* \"@openzeppelin/contracts/access/Ownable.sol\":2384:2385  0 */\n      0x00\n        /* \"@openzeppelin/contracts/access/Ownable.sol\":2357:2375  _transferOwnership */\n      tag_201\n        /* \"@openzeppelin/contracts/access/Ownable.sol\":2357:2387  _transferOwnership(address(0)) */\n      jump\t// in\n    tag_200:\n        /* \"@openzeppelin/contracts/access/Ownable.sol\":2293:2394  function renounceOwnership() public virtual onlyOwner {... */\n      jump\t// out\n        /* \"contracts/real-estate-marketplace/Shares.sol\":3058:3226  function getShares(uint256 propertyId, address shareholder) external view returns (uint256) {... */\n    tag_94:\n        /* \"contracts/real-estate-marketplace/Shares.sol\":3141:3148  uint256 */\n      0x00\n        /* \"contracts/real-estate-marketplace/Shares.sol\":3167:3181  propertyShares */\n      0x08\n        /* \"contracts/real-estate-marketplace/Shares.sol\":3167:3193  propertyShares[propertyId] */\n      0x00\n        /* \"contracts/real-estate-marketplace/Shares.sol\":3182:3192  propertyId */\n      dup5\n        /* \"contracts/real-estate-marketplace/Shares.sol\":3167:3193  propertyShares[propertyId] */\n      dup2\n      mstore\n      0x20\n      add\n      swap1\n      dup2\n      mstore\n      0x20\n      add\n      0x00\n      keccak256\n        /* \"contracts/real-estate-marketplace/Shares.sol\":3167:3206  propertyShares[propertyId].shareholders */\n      0x02\n      add\n        /* \"contracts/real-estate-marketplace/Shares.sol\":3167:3219  propertyShares[propertyId].shareholders[shareholder] */\n      0x00\n        /* \"contracts/real-estate-marketplace/Shares.sol\":3207:3218  shareholder */\n      dup4\n        /* \"contracts/real-estate-marketplace/Shares.sol\":3167:3219  propertyShares[propertyId].shareholders[shareholder] */\n      0xffffffffffffffffffffffffffffffffffffffff\n      and\n      0xffffffffffffffffffffffffffffffffffffffff\n      and\n      dup2\n      mstore\n      0x20\n      add\n      swap1\n      dup2\n      mstore\n      0x20\n      add\n      0x00\n      keccak256\n      sload\n        /* \"contracts/real-estate-marketplace/Shares.sol\":3160:3219  return propertyShares[propertyId].shareholders[shareholder] */\n      swap1\n      pop\n        /* \"contracts/real-estate-marketplace/Shares.sol\":3058:3226  function getShares(uint256 propertyId, address shareholder) external view returns (uint256) {... */\n      swap3\n      swap2\n      pop\n      pop\n      jump\t// out\n        /* \"contracts/real-estate-marketplace/Shares.sol\":886:935  mapping(uint256 => address) public propertyOwners */\n    tag_98:\n      mstore(0x20, 0x09)\n      dup1\n      0x00\n      mstore\n      keccak256(0x00, 0x40)\n      0x00\n      swap2\n      pop\n      sload\n      swap1\n      0x0100\n      exp\n      swap1\n      div\n      0xffffffffffffffffffffffffffffffffffffffff\n      and\n      dup2\n      jump\t// out\n        /* \"contracts/real-estate-marketplace/Shares.sol\":3862:3923  function pause() external onlyOwner {... */\n    tag_102:\n        /* \"@openzeppelin/contracts/access/Ownable.sol\":1531:1544  _checkOwner() */\n      tag_204\n        /* \"@openzeppelin/contracts/access/Ownable.sol\":1531:1542  _checkOwner */\n      tag_179\n        /* \"@openzeppelin/contracts/access/Ownable.sol\":1531:1544  _checkOwner() */\n      jump\t// in\n    tag_204:\n        /* \"contracts/real-estate-marketplace/Shares.sol\":3908:3916  _pause() */\n      tag_206\n        /* \"contracts/real-estate-marketplace/Shares.sol\":3908:3914  _pause */\n      tag_207\n        /* \"contracts/real-estate-marketplace/Shares.sol\":3908:3916  _pause() */\n      jump\t// in\n    tag_206:\n        /* \"contracts/real-estate-marketplace/Shares.sol\":3862:3923  function pause() external onlyOwner {... */\n      jump\t// out\n        /* \"contracts/real-estate-marketplace/Shares.sol\":2521:3052  function transferShares(uint256 propertyId, address to, uint256 shares) external whenNotPaused {... */\n    tag_106:\n        /* \"@openzeppelin/contracts/security/Pausable.sol\":1239:1258  _requireNotPaused() */\n      tag_209\n        /* \"@openzeppelin/contracts/security/Pausable.sol\":1239:1256  _requireNotPaused */\n      tag_210\n        /* \"@openzeppelin/contracts/security/Pausable.sol\":1239:1258  _requireNotPaused() */\n      jump\t// in\n    tag_209:\n        /* \"contracts/real-estate-marketplace/Shares.sol\":2648:2649  0 */\n      0x00\n        /* \"contracts/real-estate-marketplace/Shares.sol\":2634:2650  to != address(0) */\n      0xffffffffffffffffffffffffffffffffffffffff\n      and\n        /* \"contracts/real-estate-marketplace/Shares.sol\":2634:2636  to */\n      dup3\n        /* \"contracts/real-estate-marketplace/Shares.sol\":2634:2650  to != address(0) */\n      0xffffffffffffffffffffffffffffffffffffffff\n      and\n      sub\n        /* \"contracts/real-estate-marketplace/Shares.sol\":2626:2680  require(to != address(0), \"Invalid recipient address\") */\n      tag_212\n      jumpi\n      mload(0x40)\n      0x08c379a000000000000000000000000000000000000000000000000000000000\n      dup2\n      mstore\n      0x04\n      add\n      tag_213\n      swap1\n      tag_214\n      jump\t// in\n    tag_213:\n      mload(0x40)\n      dup1\n      swap2\n      sub\n      swap1\n      revert\n    tag_212:\n        /* \"contracts/real-estate-marketplace/Shares.sol\":2753:2759  shares */\n      dup1\n        /* \"contracts/real-estate-marketplace/Shares.sol\":2698:2712  propertyShares */\n      0x08\n        /* \"contracts/real-estate-marketplace/Shares.sol\":2698:2724  propertyShares[propertyId] */\n      0x00\n        /* \"contracts/real-estate-marketplace/Shares.sol\":2713:2723  propertyId */\n      dup6\n        /* \"contracts/real-estate-marketplace/Shares.sol\":2698:2724  propertyShares[propertyId] */\n      dup2\n      mstore\n      0x20\n      add\n      swap1\n      dup2\n      mstore\n      0x20\n      add\n      0x00\n      keccak256\n        /* \"contracts/real-estate-marketplace/Shares.sol\":2698:2737  propertyShares[propertyId].shareholders */\n      0x02\n      add\n        /* \"contracts/real-estate-marketplace/Shares.sol\":2698:2749  propertyShares[propertyId].shareholders[msg.sender] */\n      0x00\n        /* \"contracts/real-estate-marketplace/Shares.sol\":2738:2748  msg.sender */\n      caller\n        /* \"contracts/real-estate-marketplace/Shares.sol\":2698:2749  propertyShares[propertyId].shareholders[msg.sender] */\n      0xffffffffffffffffffffffffffffffffffffffff\n      and\n      0xffffffffffffffffffffffffffffffffffffffff\n      and\n      dup2\n      mstore\n      0x20\n      add\n      swap1\n      dup2\n      mstore\n      0x20\n      add\n      0x00\n      keccak256\n      sload\n        /* \"contracts/real-estate-marketplace/Shares.sol\":2698:2759  propertyShares[propertyId].shareholders[msg.sender] >= shares */\n      lt\n      iszero\n        /* \"contracts/real-estate-marketplace/Shares.sol\":2690:2793  require(propertyShares[propertyId].shareholders[msg.sender] >= shares, \"Not enough shares to transfer\") */\n      tag_215\n      jumpi\n      mload(0x40)\n      0x08c379a000000000000000000000000000000000000000000000000000000000\n      dup2\n      mstore\n      0x04\n      add\n      tag_216\n      swap1\n      tag_217\n      jump\t// in\n    tag_216:\n      mload(0x40)\n      dup1\n      swap2\n      sub\n      swap1\n      revert\n    tag_215:\n        /* \"contracts/real-estate-marketplace/Shares.sol\":2812:2845  PropertyShares storage sharesData */\n      0x00\n        /* \"contracts/real-estate-marketplace/Shares.sol\":2848:2862  propertyShares */\n      0x08\n        /* \"contracts/real-estate-marketplace/Shares.sol\":2848:2874  propertyShares[propertyId] */\n      0x00\n        /* \"contracts/real-estate-marketplace/Shares.sol\":2863:2873  propertyId */\n      dup6\n        /* \"contracts/real-estate-marketplace/Shares.sol\":2848:2874  propertyShares[propertyId] */\n      dup2\n      mstore\n      0x20\n      add\n      swap1\n      dup2\n      mstore\n      0x20\n      add\n      0x00\n      keccak256\n        /* \"contracts/real-estate-marketplace/Shares.sol\":2812:2874  PropertyShares storage sharesData = propertyShares[propertyId] */\n      swap1\n      pop\n        /* \"contracts/real-estate-marketplace/Shares.sol\":2923:2929  shares */\n      dup2\n        /* \"contracts/real-estate-marketplace/Shares.sol\":2884:2894  sharesData */\n      dup2\n        /* \"contracts/real-estate-marketplace/Shares.sol\":2884:2907  sharesData.shareholders */\n      0x02\n      add\n        /* \"contracts/real-estate-marketplace/Shares.sol\":2884:2919  sharesData.shareholders[msg.sender] */\n      0x00\n        /* \"contracts/real-estate-marketplace/Shares.sol\":2908:2918  msg.sender */\n      caller\n        /* \"contracts/real-estate-marketplace/Shares.sol\":2884:2919  sharesData.shareholders[msg.sender] */\n      0xffffffffffffffffffffffffffffffffffffffff\n      and\n      0xffffffffffffffffffffffffffffffffffffffff\n      and\n      dup2\n      mstore\n      0x20\n      add\n      swap1\n      dup2\n      mstore\n      0x20\n      add\n      0x00\n      keccak256\n      0x00\n        /* \"contracts/real-estate-marketplace/Shares.sol\":2884:2929  sharesData.shareholders[msg.sender] -= shares */\n      dup3\n      dup3\n      sload\n      tag_218\n      swap2\n      swap1\n      tag_219\n      jump\t// in\n    tag_218:\n      swap3\n      pop\n      pop\n      dup2\n      swap1\n      sstore\n      pop\n        /* \"contracts/real-estate-marketplace/Shares.sol\":2970:2976  shares */\n      dup2\n        /* \"contracts/real-estate-marketplace/Shares.sol\":2939:2949  sharesData */\n      dup2\n        /* \"contracts/real-estate-marketplace/Shares.sol\":2939:2962  sharesData.shareholders */\n      0x02\n      add\n        /* \"contracts/real-estate-marketplace/Shares.sol\":2939:2966  sharesData.shareholders[to] */\n      0x00\n        /* \"contracts/real-estate-marketplace/Shares.sol\":2963:2965  to */\n      dup6\n        /* \"contracts/real-estate-marketplace/Shares.sol\":2939:2966  sharesData.shareholders[to] */\n      0xffffffffffffffffffffffffffffffffffffffff\n      and\n      0xffffffffffffffffffffffffffffffffffffffff\n      and\n      dup2\n      mstore\n      0x20\n      add\n      swap1\n      dup2\n      mstore\n      0x20\n      add\n      0x00\n      keccak256\n      0x00\n        /* \"contracts/real-estate-marketplace/Shares.sol\":2939:2976  sharesData.shareholders[to] += shares */\n      dup3\n      dup3\n      sload\n      tag_220\n      swap2\n      swap1\n      tag_221\n      jump\t// in\n    tag_220:\n      swap3\n      pop\n      pop\n      dup2\n      swap1\n      sstore\n      pop\n        /* \"contracts/real-estate-marketplace/Shares.sol\":3022:3024  to */\n      dup3\n        /* \"contracts/real-estate-marketplace/Shares.sol\":2992:3045  SharesTransferred(msg.sender, to, propertyId, shares) */\n      0xffffffffffffffffffffffffffffffffffffffff\n      and\n        /* \"contracts/real-estate-marketplace/Shares.sol\":3010:3020  msg.sender */\n      caller\n        /* \"contracts/real-estate-marketplace/Shares.sol\":2992:3045  SharesTransferred(msg.sender, to, propertyId, shares) */\n      0xffffffffffffffffffffffffffffffffffffffff\n      and\n      0x1ba44e8b79687fed555749cae6dcccf9bc5df37a2739fbc73062f07b534cf03e\n        /* \"contracts/real-estate-marketplace/Shares.sol\":3026:3036  propertyId */\n      dup7\n        /* \"contracts/real-estate-marketplace/Shares.sol\":3038:3044  shares */\n      dup6\n        /* \"contracts/real-estate-marketplace/Shares.sol\":2992:3045  SharesTransferred(msg.sender, to, propertyId, shares) */\n      mload(0x40)\n      tag_222\n      swap3\n      swap2\n      swap1\n      tag_121\n      jump\t// in\n    tag_222:\n      mload(0x40)\n      dup1\n      swap2\n      sub\n      swap1\n      log3\n        /* \"contracts/real-estate-marketplace/Shares.sol\":2616:3052  {... */\n      pop\n        /* \"contracts/real-estate-marketplace/Shares.sol\":2521:3052  function transferShares(uint256 propertyId, address to, uint256 shares) external whenNotPaused {... */\n      pop\n      pop\n      pop\n      jump\t// out\n        /* \"contracts/real-estate-marketplace/Shares.sol\":3232:3370  function getTotalShares(uint256 propertyId) external view returns (uint256) {... */\n    tag_109:\n        /* \"contracts/real-estate-marketplace/Shares.sol\":3299:3306  uint256 */\n      0x00\n        /* \"contracts/real-estate-marketplace/Shares.sol\":3325:3339  propertyShares */\n      0x08\n        /* \"contracts/real-estate-marketplace/Shares.sol\":3325:3351  propertyShares[propertyId] */\n      0x00\n        /* \"contracts/real-estate-marketplace/Shares.sol\":3340:3350  propertyId */\n      dup4\n        /* \"contracts/real-estate-marketplace/Shares.sol\":3325:3351  propertyShares[propertyId] */\n      dup2\n      mstore\n      0x20\n      add\n      swap1\n      dup2\n      mstore\n      0x20\n      add\n      0x00\n      keccak256\n        /* \"contracts/real-estate-marketplace/Shares.sol\":3325:3363  propertyShares[propertyId].totalShares */\n      0x00\n      add\n      sload\n        /* \"contracts/real-estate-marketplace/Shares.sol\":3318:3363  return propertyShares[propertyId].totalShares */\n      swap1\n      pop\n        /* \"contracts/real-estate-marketplace/Shares.sol\":3232:3370  function getTotalShares(uint256 propertyId) external view returns (uint256) {... */\n      swap2\n      swap1\n      pop\n      jump\t// out\n        /* \"@openzeppelin/contracts/access/Ownable.sol\":1638:1723  function owner() public view virtual returns (address) {... */\n    tag_112:\n        /* \"@openzeppelin/contracts/access/Ownable.sol\":1684:1691  address */\n      0x00\n        /* \"@openzeppelin/contracts/access/Ownable.sol\":1710:1716  _owner */\n      0x05\n      0x00\n      swap1\n      sload\n      swap1\n      0x0100\n      exp\n      swap1\n      div\n      0xffffffffffffffffffffffffffffffffffffffff\n      and\n        /* \"@openzeppelin/contracts/access/Ownable.sol\":1703:1716  return _owner */\n      swap1\n      pop\n        /* \"@openzeppelin/contracts/access/Ownable.sol\":1638:1723  function owner() public view virtual returns (address) {... */\n      swap1\n      jump\t// out\n        /* \"@openzeppelin/contracts/token/ERC20/ERC20.sol\":2276:2369  function symbol() public view virtual returns (string memory) {... */\n    tag_115:\n        /* \"@openzeppelin/contracts/token/ERC20/ERC20.sol\":2323:2336  string memory */\n      0x60\n        /* \"@openzeppelin/contracts/token/ERC20/ERC20.sol\":2355:2362  _symbol */\n      0x04\n        /* \"@openzeppelin/contracts/token/ERC20/ERC20.sol\":2348:2362  return _symbol */\n      dup1\n      sload\n      tag_226\n      swap1\n      tag_159\n      jump\t// in\n    tag_226:\n      dup1\n      0x1f\n      add\n      0x20\n      dup1\n      swap2\n      div\n      mul\n      0x20\n      add\n      mload(0x40)\n      swap1\n      dup2\n      add\n      0x40\n      mstore\n      dup1\n      swap3\n      swap2\n      swap1\n      dup2\n      dup2\n      mstore\n      0x20\n      add\n      dup3\n      dup1\n      sload\n      tag_227\n      swap1\n      tag_159\n      jump\t// in\n    tag_227:\n      dup1\n      iszero\n      tag_228\n      jumpi\n      dup1\n      0x1f\n      lt\n      tag_229\n      jumpi\n      0x0100\n      dup1\n      dup4\n      sload\n      div\n      mul\n      dup4\n      mstore\n      swap2\n      0x20\n      add\n      swap2\n      jump(tag_228)\n    tag_229:\n      dup3\n      add\n      swap2\n      swap1\n      0x00\n      mstore\n      keccak256(0x00, 0x20)\n      swap1\n    tag_230:\n      dup2\n      sload\n      dup2\n      mstore\n      swap1\n      0x01\n      add\n      swap1\n      0x20\n      add\n      dup1\n      dup4\n      gt\n      tag_230\n      jumpi\n      dup3\n      swap1\n      sub\n      0x1f\n      and\n      dup3\n      add\n      swap2\n    tag_228:\n      pop\n      pop\n      pop\n      pop\n      pop\n      swap1\n      pop\n        /* \"@openzeppelin/contracts/token/ERC20/ERC20.sol\":2276:2369  function symbol() public view virtual returns (string memory) {... */\n      swap1\n      jump\t// out\n        /* \"contracts/real-estate-marketplace/Shares.sol\":719:765  mapping(uint256 => ShareBasket) public baskets */\n    tag_119:\n      mstore(0x20, 0x06)\n      dup1\n      0x00\n      mstore\n      keccak256(0x00, 0x40)\n      0x00\n      swap2\n      pop\n      swap1\n      pop\n      dup1\n      0x00\n      add\n      sload\n      swap1\n      dup1\n      0x02\n      add\n      sload\n      swap1\n      pop\n      dup3\n      jump\t// out\n        /* \"@openzeppelin/contracts/token/ERC20/ERC20.sol\":3610:3788  function transfer(address to, uint256 value) public virtual returns (bool) {... */\n    tag_124:\n        /* \"@openzeppelin/contracts/token/ERC20/ERC20.sol\":3679:3683  bool */\n      0x00\n        /* \"@openzeppelin/contracts/token/ERC20/ERC20.sol\":3695:3708  address owner */\n      dup1\n        /* \"@openzeppelin/contracts/token/ERC20/ERC20.sol\":3711:3723  _msgSender() */\n      tag_232\n        /* \"@openzeppelin/contracts/token/ERC20/ERC20.sol\":3711:3721  _msgSender */\n      tag_166\n        /* \"@openzeppelin/contracts/token/ERC20/ERC20.sol\":3711:3723  _msgSender() */\n      jump\t// in\n    tag_232:\n        /* \"@openzeppelin/contracts/token/ERC20/ERC20.sol\":3695:3723  address owner = _msgSender() */\n      swap1\n      pop\n        /* \"@openzeppelin/contracts/token/ERC20/ERC20.sol\":3733:3760  _transfer(owner, to, value) */\n      tag_233\n        /* \"@openzeppelin/contracts/token/ERC20/ERC20.sol\":3743:3748  owner */\n      dup2\n        /* \"@openzeppelin/contracts/token/ERC20/ERC20.sol\":3750:3752  to */\n      dup6\n        /* \"@openzeppelin/contracts/token/ERC20/ERC20.sol\":3754:3759  value */\n      dup6\n        /* \"@openzeppelin/contracts/token/ERC20/ERC20.sol\":3733:3742  _transfer */\n      tag_175\n        /* \"@openzeppelin/contracts/token/ERC20/ERC20.sol\":3733:3760  _transfer(owner, to, value) */\n      jump\t// in\n    tag_233:\n        /* \"@openzeppelin/contracts/token/ERC20/ERC20.sol\":3777:3781  true */\n      0x01\n        /* \"@openzeppelin/contracts/token/ERC20/ERC20.sol\":3770:3781  return true */\n      swap2\n      pop\n      pop\n        /* \"@openzeppelin/contracts/token/ERC20/ERC20.sol\":3610:3788  function transfer(address to, uint256 value) public virtual returns (bool) {... */\n      swap3\n      swap2\n      pop\n      pop\n      jump\t// out\n        /* \"contracts/real-estate-marketplace/Shares.sol\":1948:2515  function issuePropertyShares(uint256 propertyId, address investor, uint256 shares) external onlyOwner whenNotPaused {... */\n    tag_128:\n        /* \"@openzeppelin/contracts/access/Ownable.sol\":1531:1544  _checkOwner() */\n      tag_235\n        /* \"@openzeppelin/contracts/access/Ownable.sol\":1531:1542  _checkOwner */\n      tag_179\n        /* \"@openzeppelin/contracts/access/Ownable.sol\":1531:1544  _checkOwner() */\n      jump\t// in\n    tag_235:\n        /* \"@openzeppelin/contracts/security/Pausable.sol\":1239:1258  _requireNotPaused() */\n      tag_237\n        /* \"@openzeppelin/contracts/security/Pausable.sol\":1239:1256  _requireNotPaused */\n      tag_210\n        /* \"@openzeppelin/contracts/security/Pausable.sol\":1239:1258  _requireNotPaused() */\n      jump\t// in\n    tag_237:\n        /* \"contracts/real-estate-marketplace/Shares.sol\":2091:2092  0 */\n      0x00\n        /* \"contracts/real-estate-marketplace/Shares.sol\":2082:2088  shares */\n      dup2\n        /* \"contracts/real-estate-marketplace/Shares.sol\":2082:2092  shares > 0 */\n      gt\n        /* \"contracts/real-estate-marketplace/Shares.sol\":2074:2126  require(shares > 0, \"Shares must be greater than 0\") */\n      tag_239\n      jumpi\n      mload(0x40)\n      0x08c379a000000000000000000000000000000000000000000000000000000000\n      dup2\n      mstore\n      0x04\n      add\n      tag_240\n      swap1\n      tag_241\n      jump\t// in\n    tag_240:\n      mload(0x40)\n      dup1\n      swap2\n      sub\n      swap1\n      revert\n    tag_239:\n        /* \"contracts/real-estate-marketplace/Shares.sol\":2190:2196  shares */\n      dup1\n        /* \"contracts/real-estate-marketplace/Shares.sol\":2144:2158  propertyShares */\n      0x08\n        /* \"contracts/real-estate-marketplace/Shares.sol\":2144:2170  propertyShares[propertyId] */\n      0x00\n        /* \"contracts/real-estate-marketplace/Shares.sol\":2159:2169  propertyId */\n      dup6\n        /* \"contracts/real-estate-marketplace/Shares.sol\":2144:2170  propertyShares[propertyId] */\n      dup2\n      mstore\n      0x20\n      add\n      swap1\n      dup2\n      mstore\n      0x20\n      add\n      0x00\n      keccak256\n        /* \"contracts/real-estate-marketplace/Shares.sol\":2144:2186  propertyShares[propertyId].availableShares */\n      0x01\n      add\n      sload\n        /* \"contracts/real-estate-marketplace/Shares.sol\":2144:2196  propertyShares[propertyId].availableShares >= shares */\n      lt\n      iszero\n        /* \"contracts/real-estate-marketplace/Shares.sol\":2136:2228  require(propertyShares[propertyId].availableShares >= shares, \"Not enough shares available\") */\n      tag_242\n      jumpi\n      mload(0x40)\n      0x08c379a000000000000000000000000000000000000000000000000000000000\n      dup2\n      mstore\n      0x04\n      add\n      tag_243\n      swap1\n      tag_244\n      jump\t// in\n    tag_243:\n      mload(0x40)\n      dup1\n      swap2\n      sub\n      swap1\n      revert\n    tag_242:\n        /* \"contracts/real-estate-marketplace/Shares.sol\":2247:2280  PropertyShares storage sharesData */\n      0x00\n        /* \"contracts/real-estate-marketplace/Shares.sol\":2283:2297  propertyShares */\n      0x08\n        /* \"contracts/real-estate-marketplace/Shares.sol\":2283:2309  propertyShares[propertyId] */\n      0x00\n        /* \"contracts/real-estate-marketplace/Shares.sol\":2298:2308  propertyId */\n      dup6\n        /* \"contracts/real-estate-marketplace/Shares.sol\":2283:2309  propertyShares[propertyId] */\n      dup2\n      mstore\n      0x20\n      add\n      swap1\n      dup2\n      mstore\n      0x20\n      add\n      0x00\n      keccak256\n        /* \"contracts/real-estate-marketplace/Shares.sol\":2247:2309  PropertyShares storage sharesData = propertyShares[propertyId] */\n      swap1\n      pop\n        /* \"contracts/real-estate-marketplace/Shares.sol\":2345:2351  shares */\n      dup2\n        /* \"contracts/real-estate-marketplace/Shares.sol\":2319:2329  sharesData */\n      dup2\n        /* \"contracts/real-estate-marketplace/Shares.sol\":2319:2341  sharesData.totalShares */\n      0x00\n      add\n      0x00\n        /* \"contracts/real-estate-marketplace/Shares.sol\":2319:2351  sharesData.totalShares += shares */\n      dup3\n      dup3\n      sload\n      tag_245\n      swap2\n      swap1\n      tag_221\n      jump\t// in\n    tag_245:\n      swap3\n      pop\n      pop\n      dup2\n      swap1\n      sstore\n      pop\n        /* \"contracts/real-estate-marketplace/Shares.sol\":2391:2397  shares */\n      dup2\n        /* \"contracts/real-estate-marketplace/Shares.sol\":2361:2371  sharesData */\n      dup2\n        /* \"contracts/real-estate-marketplace/Shares.sol\":2361:2387  sharesData.availableShares */\n      0x01\n      add\n      0x00\n        /* \"contracts/real-estate-marketplace/Shares.sol\":2361:2397  sharesData.availableShares -= shares */\n      dup3\n      dup3\n      sload\n      tag_246\n      swap2\n      swap1\n      tag_219\n      jump\t// in\n    tag_246:\n      swap3\n      pop\n      pop\n      dup2\n      swap1\n      sstore\n      pop\n        /* \"contracts/real-estate-marketplace/Shares.sol\":2444:2450  shares */\n      dup2\n        /* \"contracts/real-estate-marketplace/Shares.sol\":2407:2417  sharesData */\n      dup2\n        /* \"contracts/real-estate-marketplace/Shares.sol\":2407:2430  sharesData.shareholders */\n      0x02\n      add\n        /* \"contracts/real-estate-marketplace/Shares.sol\":2407:2440  sharesData.shareholders[investor] */\n      0x00\n        /* \"contracts/real-estate-marketplace/Shares.sol\":2431:2439  investor */\n      dup6\n        /* \"contracts/real-estate-marketplace/Shares.sol\":2407:2440  sharesData.shareholders[investor] */\n      0xffffffffffffffffffffffffffffffffffffffff\n      and\n      0xffffffffffffffffffffffffffffffffffffffff\n      and\n      dup2\n      mstore\n      0x20\n      add\n      swap1\n      dup2\n      mstore\n      0x20\n      add\n      0x00\n      keccak256\n      0x00\n        /* \"contracts/real-estate-marketplace/Shares.sol\":2407:2450  sharesData.shareholders[investor] += shares */\n      dup3\n      dup3\n      sload\n      tag_247\n      swap2\n      swap1\n      tag_221\n      jump\t// in\n    tag_247:\n      swap3\n      pop\n      pop\n      dup2\n      swap1\n      sstore\n      pop\n        /* \"contracts/real-estate-marketplace/Shares.sol\":2479:2487  investor */\n      dup3\n        /* \"contracts/real-estate-marketplace/Shares.sol\":2466:2508  SharesIssued(investor, propertyId, shares) */\n      0xffffffffffffffffffffffffffffffffffffffff\n      and\n      0x6b3332210c2263e1008f810d148fc1c61a002c8f5dfcf18fe06858064bc49e69\n        /* \"contracts/real-estate-marketplace/Shares.sol\":2489:2499  propertyId */\n      dup6\n        /* \"contracts/real-estate-marketplace/Shares.sol\":2501:2507  shares */\n      dup5\n        /* \"contracts/real-estate-marketplace/Shares.sol\":2466:2508  SharesIssued(investor, propertyId, shares) */\n      mload(0x40)\n      tag_248\n      swap3\n      swap2\n      swap1\n      tag_121\n      jump\t// in\n    tag_248:\n      mload(0x40)\n      dup1\n      swap2\n      sub\n      swap1\n      log2\n        /* \"contracts/real-estate-marketplace/Shares.sol\":2064:2515  {... */\n      pop\n        /* \"contracts/real-estate-marketplace/Shares.sol\":1948:2515  function issuePropertyShares(uint256 propertyId, address investor, uint256 shares) external onlyOwner whenNotPaused {... */\n      pop\n      pop\n      pop\n      jump\t// out\n        /* \"contracts/real-estate-marketplace/Shares.sol\":824:880  mapping(uint256 => PropertyShares) public propertyShares */\n    tag_131:\n      mstore(0x20, 0x08)\n      dup1\n      0x00\n      mstore\n      keccak256(0x00, 0x40)\n      0x00\n      swap2\n      pop\n      swap1\n      pop\n      dup1\n      0x00\n      add\n      sload\n      swap1\n      dup1\n      0x01\n      add\n      sload\n      swap1\n      pop\n      dup3\n      jump\t// out\n        /* \"contracts/real-estate-marketplace/Shares.sol\":3376:3522  function getAvailableShares(uint256 propertyId) external view returns (uint256) {... */\n    tag_135:\n        /* \"contracts/real-estate-marketplace/Shares.sol\":3447:3454  uint256 */\n      0x00\n        /* \"contracts/real-estate-marketplace/Shares.sol\":3473:3487  propertyShares */\n      0x08\n        /* \"contracts/real-estate-marketplace/Shares.sol\":3473:3499  propertyShares[propertyId] */\n      0x00\n        /* \"contracts/real-estate-marketplace/Shares.sol\":3488:3498  propertyId */\n      dup4\n        /* \"contracts/real-estate-marketplace/Shares.sol\":3473:3499  propertyShares[propertyId] */\n      dup2\n      mstore\n      0x20\n      add\n      swap1\n      dup2\n      mstore\n      0x20\n      add\n      0x00\n      keccak256\n        /* \"contracts/real-estate-marketplace/Shares.sol\":3473:3515  propertyShares[propertyId].availableShares */\n      0x01\n      add\n      sload\n        /* \"contracts/real-estate-marketplace/Shares.sol\":3466:3515  return propertyShares[propertyId].availableShares */\n      swap1\n      pop\n        /* \"contracts/real-estate-marketplace/Shares.sol\":3376:3522  function getAvailableShares(uint256 propertyId) external view returns (uint256) {... */\n      swap2\n      swap1\n      pop\n      jump\t// out\n        /* \"@openzeppelin/contracts/token/ERC20/ERC20.sol\":3846:3986  function allowance(address owner, address spender) public view virtual returns (uint256) {... */\n    tag_140:\n        /* \"@openzeppelin/contracts/token/ERC20/ERC20.sol\":3926:3933  uint256 */\n      0x00\n        /* \"@openzeppelin/contracts/token/ERC20/ERC20.sol\":3952:3963  _allowances */\n      0x01\n        /* \"@openzeppelin/contracts/token/ERC20/ERC20.sol\":3952:3970  _allowances[owner] */\n      0x00\n        /* \"@openzeppelin/contracts/token/ERC20/ERC20.sol\":3964:3969  owner */\n      dup5\n        /* \"@openzeppelin/contracts/token/ERC20/ERC20.sol\":3952:3970  _allowances[owner] */\n      0xffffffffffffffffffffffffffffffffffffffff\n      and\n      0xffffffffffffffffffffffffffffffffffffffff\n      and\n      dup2\n      mstore\n      0x20\n      add\n      swap1\n      dup2\n      mstore\n      0x20\n      add\n      0x00\n      keccak256\n        /* \"@openzeppelin/contracts/token/ERC20/ERC20.sol\":3952:3979  _allowances[owner][spender] */\n      0x00\n        /* \"@openzeppelin/contracts/token/ERC20/ERC20.sol\":3971:3978  spender */\n      dup4\n        /* \"@openzeppelin/contracts/token/ERC20/ERC20.sol\":3952:3979  _allowances[owner][spender] */\n      0xffffffffffffffffffffffffffffffffffffffff\n      and\n      0xffffffffffffffffffffffffffffffffffffffff\n      and\n      dup2\n      mstore\n      0x20\n      add\n      swap1\n      dup2\n      mstore\n      0x20\n      add\n      0x00\n      keccak256\n      sload\n        /* \"@openzeppelin/contracts/token/ERC20/ERC20.sol\":3945:3979  return _allowances[owner][spender] */\n      swap1\n      pop\n        /* \"@openzeppelin/contracts/token/ERC20/ERC20.sol\":3846:3986  function allowance(address owner, address spender) public view virtual returns (uint256) {... */\n      swap3\n      swap2\n      pop\n      pop\n      jump\t// out\n        /* \"contracts/real-estate-marketplace/Shares.sol\":1562:1808  function issueShares(uint256 basketId, address to, uint256 amount) external onlyOwner {... */\n    tag_144:\n        /* \"@openzeppelin/contracts/access/Ownable.sol\":1531:1544  _checkOwner() */\n      tag_252\n        /* \"@openzeppelin/contracts/access/Ownable.sol\":1531:1542  _checkOwner */\n      tag_179\n        /* \"@openzeppelin/contracts/access/Ownable.sol\":1531:1544  _checkOwner() */\n      jump\t// in\n    tag_252:\n        /* \"contracts/real-estate-marketplace/Shares.sol\":1692:1698  amount */\n      dup1\n        /* \"contracts/real-estate-marketplace/Shares.sol\":1666:1678  basketShares */\n      0x07\n        /* \"contracts/real-estate-marketplace/Shares.sol\":1666:1688  basketShares[basketId] */\n      0x00\n        /* \"contracts/real-estate-marketplace/Shares.sol\":1679:1687  basketId */\n      dup6\n        /* \"contracts/real-estate-marketplace/Shares.sol\":1666:1688  basketShares[basketId] */\n      dup2\n      mstore\n      0x20\n      add\n      swap1\n      dup2\n      mstore\n      0x20\n      add\n      0x00\n      keccak256\n      sload\n        /* \"contracts/real-estate-marketplace/Shares.sol\":1666:1698  basketShares[basketId] >= amount */\n      lt\n      iszero\n        /* \"contracts/real-estate-marketplace/Shares.sol\":1658:1732  require(basketShares[basketId] >= amount, \"Insufficient shares available\") */\n      tag_254\n      jumpi\n      mload(0x40)\n      0x08c379a000000000000000000000000000000000000000000000000000000000\n      dup2\n      mstore\n      0x04\n      add\n      tag_255\n      swap1\n      tag_256\n      jump\t// in\n    tag_255:\n      mload(0x40)\n      dup1\n      swap2\n      sub\n      swap1\n      revert\n    tag_254:\n        /* \"contracts/real-estate-marketplace/Shares.sol\":1742:1759  _mint(to, amount) */\n      tag_257\n        /* \"contracts/real-estate-marketplace/Shares.sol\":1748:1750  to */\n      dup3\n        /* \"contracts/real-estate-marketplace/Shares.sol\":1752:1758  amount */\n      dup3\n        /* \"contracts/real-estate-marketplace/Shares.sol\":1742:1747  _mint */\n      tag_258\n        /* \"contracts/real-estate-marketplace/Shares.sol\":1742:1759  _mint(to, amount) */\n      jump\t// in\n    tag_257:\n        /* \"contracts/real-estate-marketplace/Shares.sol\":1795:1801  amount */\n      dup1\n        /* \"contracts/real-estate-marketplace/Shares.sol\":1769:1781  basketShares */\n      0x07\n        /* \"contracts/real-estate-marketplace/Shares.sol\":1769:1791  basketShares[basketId] */\n      0x00\n        /* \"contracts/real-estate-marketplace/Shares.sol\":1782:1790  basketId */\n      dup6\n        /* \"contracts/real-estate-marketplace/Shares.sol\":1769:1791  basketShares[basketId] */\n      dup2\n      mstore\n      0x20\n      add\n      swap1\n      dup2\n      mstore\n      0x20\n      add\n      0x00\n      keccak256\n      0x00\n        /* \"contracts/real-estate-marketplace/Shares.sol\":1769:1801  basketShares[basketId] -= amount */\n      dup3\n      dup3\n      sload\n      tag_259\n      swap2\n      swap1\n      tag_219\n      jump\t// in\n    tag_259:\n      swap3\n      pop\n      pop\n      dup2\n      swap1\n      sstore\n      pop\n        /* \"contracts/real-estate-marketplace/Shares.sol\":1562:1808  function issueShares(uint256 basketId, address to, uint256 amount) external onlyOwner {... */\n      pop\n      pop\n      pop\n      jump\t// out\n        /* \"contracts/real-estate-marketplace/Shares.sol\":3728:3856  function getPropertyOwner(uint256 propertyId) external view returns (address) {... */\n    tag_147:\n        /* \"contracts/real-estate-marketplace/Shares.sol\":3797:3804  address */\n      0x00\n        /* \"contracts/real-estate-marketplace/Shares.sol\":3823:3837  propertyOwners */\n      0x09\n        /* \"contracts/real-estate-marketplace/Shares.sol\":3823:3849  propertyOwners[propertyId] */\n      0x00\n        /* \"contracts/real-estate-marketplace/Shares.sol\":3838:3848  propertyId */\n      dup4\n        /* \"contracts/real-estate-marketplace/Shares.sol\":3823:3849  propertyOwners[propertyId] */\n      dup2\n      mstore\n      0x20\n      add\n      swap1\n      dup2\n      mstore\n      0x20\n      add\n      0x00\n      keccak256\n      0x00\n      swap1\n      sload\n      swap1\n      0x0100\n      exp\n      swap1\n      div\n      0xffffffffffffffffffffffffffffffffffffffff\n      and\n        /* \"contracts/real-estate-marketplace/Shares.sol\":3816:3849  return propertyOwners[propertyId] */\n      swap1\n      pop\n        /* \"contracts/real-estate-marketplace/Shares.sol\":3728:3856  function getPropertyOwner(uint256 propertyId) external view returns (address) {... */\n      swap2\n      swap1\n      pop\n      jump\t// out\n        /* \"@openzeppelin/contracts/access/Ownable.sol\":2543:2758  function transferOwnership(address newOwner) public virtual onlyOwner {... */\n    tag_151:\n        /* \"@openzeppelin/contracts/access/Ownable.sol\":1531:1544  _checkOwner() */\n      tag_262\n        /* \"@openzeppelin/contracts/access/Ownable.sol\":1531:1542  _checkOwner */\n      tag_179\n        /* \"@openzeppelin/contracts/access/Ownable.sol\":1531:1544  _checkOwner() */\n      jump\t// in\n    tag_262:\n        /* \"@openzeppelin/contracts/access/Ownable.sol\":2647:2648  0 */\n      0x00\n        /* \"@openzeppelin/contracts/access/Ownable.sol\":2627:2649  newOwner == address(0) */\n      0xffffffffffffffffffffffffffffffffffffffff\n      and\n        /* \"@openzeppelin/contracts/access/Ownable.sol\":2627:2635  newOwner */\n      dup2\n        /* \"@openzeppelin/contracts/access/Ownable.sol\":2627:2649  newOwner == address(0) */\n      0xffffffffffffffffffffffffffffffffffffffff\n      and\n      sub\n        /* \"@openzeppelin/contracts/access/Ownable.sol\":2623:2714  if (newOwner == address(0)) {... */\n      tag_264\n      jumpi\n        /* \"@openzeppelin/contracts/access/Ownable.sol\":2700:2701  0 */\n      0x00\n        /* \"@openzeppelin/contracts/access/Ownable.sol\":2672:2703  OwnableInvalidOwner(address(0)) */\n      mload(0x40)\n      0x1e4fbdf700000000000000000000000000000000000000000000000000000000\n      dup2\n      mstore\n      0x04\n      add\n      tag_265\n      swap2\n      swap1\n      tag_100\n      jump\t// in\n    tag_265:\n      mload(0x40)\n      dup1\n      swap2\n      sub\n      swap1\n      revert\n        /* \"@openzeppelin/contracts/access/Ownable.sol\":2623:2714  if (newOwner == address(0)) {... */\n    tag_264:\n        /* \"@openzeppelin/contracts/access/Ownable.sol\":2723:2751  _transferOwnership(newOwner) */\n      tag_266\n        /* \"@openzeppelin/contracts/access/Ownable.sol\":2742:2750  newOwner */\n      dup2\n        /* \"@openzeppelin/contracts/access/Ownable.sol\":2723:2741  _transferOwnership */\n      tag_201\n        /* \"@openzeppelin/contracts/access/Ownable.sol\":2723:2751  _transferOwnership(newOwner) */\n      jump\t// in\n    tag_266:\n        /* \"@openzeppelin/contracts/access/Ownable.sol\":2543:2758  function transferOwnership(address newOwner) public virtual onlyOwner {... */\n      pop\n      jump\t// out\n        /* \"contracts/real-estate-marketplace/Shares.sol\":1814:1942  function getBasketDetails(uint256 basketId) external view returns (ShareBasket memory) {... */\n    tag_154:\n        /* \"contracts/real-estate-marketplace/Shares.sol\":1881:1899  ShareBasket memory */\n      tag_267\n      tag_268\n      jump\t// in\n    tag_267:\n        /* \"contracts/real-estate-marketplace/Shares.sol\":1918:1925  baskets */\n      0x06\n        /* \"contracts/real-estate-marketplace/Shares.sol\":1918:1935  baskets[basketId] */\n      0x00\n        /* \"contracts/real-estate-marketplace/Shares.sol\":1926:1934  basketId */\n      dup4\n        /* \"contracts/real-estate-marketplace/Shares.sol\":1918:1935  baskets[basketId] */\n      dup2\n      mstore\n      0x20\n      add\n      swap1\n      dup2\n      mstore\n      0x20\n      add\n      0x00\n      keccak256\n        /* \"contracts/real-estate-marketplace/Shares.sol\":1911:1935  return baskets[basketId] */\n      mload(0x40)\n      dup1\n      0x60\n      add\n      0x40\n      mstore\n      swap1\n      dup2\n      0x00\n      dup3\n      add\n      sload\n      dup2\n      mstore\n      0x20\n      add\n      0x01\n      dup3\n      add\n      dup1\n      sload\n      dup1\n      0x20\n      mul\n      0x20\n      add\n      mload(0x40)\n      swap1\n      dup2\n      add\n      0x40\n      mstore\n      dup1\n      swap3\n      swap2\n      swap1\n      dup2\n      dup2\n      mstore\n      0x20\n      add\n      dup3\n      dup1\n      sload\n      dup1\n      iszero\n      tag_270\n      jumpi\n      0x20\n      mul\n      dup3\n      add\n      swap2\n      swap1\n      0x00\n      mstore\n      keccak256(0x00, 0x20)\n      swap1\n    tag_271:\n      dup2\n      sload\n      dup2\n      mstore\n      0x20\n      add\n      swap1\n      0x01\n      add\n      swap1\n      dup1\n      dup4\n      gt\n      tag_271\n      jumpi\n    tag_270:\n      pop\n      pop\n      pop\n      pop\n      pop\n      dup2\n      mstore\n      0x20\n      add\n      0x02\n      dup3\n      add\n      sload\n      dup2\n      mstore\n      pop\n      pop\n      swap1\n      pop\n        /* \"contracts/real-estate-marketplace/Shares.sol\":1814:1942  function getBasketDetails(uint256 basketId) external view returns (ShareBasket memory) {... */\n      swap2\n      swap1\n      pop\n      jump\t// out\n        /* \"@openzeppelin/contracts/utils/Context.sol\":656:752  function _msgSender() internal view virtual returns (address) {... */\n    tag_166:\n        /* \"@openzeppelin/contracts/utils/Context.sol\":709:716  address */\n      0x00\n        /* \"@openzeppelin/contracts/utils/Context.sol\":735:745  msg.sender */\n      caller\n        /* \"@openzeppelin/contracts/utils/Context.sol\":728:745  return msg.sender */\n      swap1\n      pop\n        /* \"@openzeppelin/contracts/utils/Context.sol\":656:752  function _msgSender() internal view virtual returns (address) {... */\n      swap1\n      jump\t// out\n        /* \"@openzeppelin/contracts/token/ERC20/ERC20.sol\":8989:9117  function _approve(address owner, address spender, uint256 value) internal {... */\n    tag_168:\n        /* \"@openzeppelin/contracts/token/ERC20/ERC20.sol\":9073:9110  _approve(owner, spender, value, true) */\n      tag_274\n        /* \"@openzeppelin/contracts/token/ERC20/ERC20.sol\":9082:9087  owner */\n      dup4\n        /* \"@openzeppelin/contracts/token/ERC20/ERC20.sol\":9089:9096  spender */\n      dup4\n        /* \"@openzeppelin/contracts/token/ERC20/ERC20.sol\":9098:9103  value */\n      dup4\n        /* \"@openzeppelin/contracts/token/ERC20/ERC20.sol\":9105:9109  true */\n      0x01\n        /* \"@openzeppelin/contracts/token/ERC20/ERC20.sol\":9073:9081  _approve */\n      tag_275\n        /* \"@openzeppelin/contracts/token/ERC20/ERC20.sol\":9073:9110  _approve(owner, spender, value, true) */\n      jump\t// in\n    tag_274:\n        /* \"@openzeppelin/contracts/token/ERC20/ERC20.sol\":8989:9117  function _approve(address owner, address spender, uint256 value) internal {... */\n      pop\n      pop\n      pop\n      jump\t// out\n        /* \"@openzeppelin/contracts/token/ERC20/ERC20.sol\":10663:11140  function _spendAllowance(address owner, address spender, uint256 value) internal virtual {... */\n    tag_173:\n        /* \"@openzeppelin/contracts/token/ERC20/ERC20.sol\":10762:10786  uint256 currentAllowance */\n      0x00\n        /* \"@openzeppelin/contracts/token/ERC20/ERC20.sol\":10789:10814  allowance(owner, spender) */\n      tag_277\n        /* \"@openzeppelin/contracts/token/ERC20/ERC20.sol\":10799:10804  owner */\n      dup5\n        /* \"@openzeppelin/contracts/token/ERC20/ERC20.sol\":10806:10813  spender */\n      dup5\n        /* \"@openzeppelin/contracts/token/ERC20/ERC20.sol\":10789:10798  allowance */\n      tag_140\n        /* \"@openzeppelin/contracts/token/ERC20/ERC20.sol\":10789:10814  allowance(owner, spender) */\n      jump\t// in\n    tag_277:\n        /* \"@openzeppelin/contracts/token/ERC20/ERC20.sol\":10762:10814  uint256 currentAllowance = allowance(owner, spender) */\n      swap1\n      pop\n        /* \"@openzeppelin/contracts/token/ERC20/ERC20.sol\":10848:10865  type(uint256).max */\n      0xffffffffffffffffffffffffffffffffffffffffffffffffffffffffffffffff\n        /* \"@openzeppelin/contracts/token/ERC20/ERC20.sol\":10828:10844  currentAllowance */\n      dup2\n        /* \"@openzeppelin/contracts/token/ERC20/ERC20.sol\":10828:10865  currentAllowance != type(uint256).max */\n      eq\n        /* \"@openzeppelin/contracts/token/ERC20/ERC20.sol\":10824:11134  if (currentAllowance != type(uint256).max) {... */\n      tag_278\n      jumpi\n        /* \"@openzeppelin/contracts/token/ERC20/ERC20.sol\":10904:10909  value */\n      dup2\n        /* \"@openzeppelin/contracts/token/ERC20/ERC20.sol\":10885:10901  currentAllowance */\n      dup2\n        /* \"@openzeppelin/contracts/token/ERC20/ERC20.sol\":10885:10909  currentAllowance < value */\n      lt\n        /* \"@openzeppelin/contracts/token/ERC20/ERC20.sol\":10881:11011  if (currentAllowance < value) {... */\n      iszero\n      tag_279\n      jumpi\n        /* \"@openzeppelin/contracts/token/ERC20/ERC20.sol\":10963:10970  spender */\n      dup3\n        /* \"@openzeppelin/contracts/token/ERC20/ERC20.sol\":10972:10988  currentAllowance */\n      dup2\n        /* \"@openzeppelin/contracts/token/ERC20/ERC20.sol\":10990:10995  value */\n      dup4\n        /* \"@openzeppelin/contracts/token/ERC20/ERC20.sol\":10936:10996  ERC20InsufficientAllowance(spender, currentAllowance, value) */\n      mload(0x40)\n      0xfb8f41b200000000000000000000000000000000000000000000000000000000\n      dup2\n      mstore\n      0x04\n      add\n      tag_280\n      swap4\n      swap3\n      swap2\n      swap1\n      tag_281\n      jump\t// in\n    tag_280:\n      mload(0x40)\n      dup1\n      swap2\n      sub\n      swap1\n      revert\n        /* \"@openzeppelin/contracts/token/ERC20/ERC20.sol\":10881:11011  if (currentAllowance < value) {... */\n    tag_279:\n        /* \"@openzeppelin/contracts/token/ERC20/ERC20.sol\":11052:11109  _approve(owner, spender, currentAllowance - value, false) */\n      tag_282\n        /* \"@openzeppelin/contracts/token/ERC20/ERC20.sol\":11061:11066  owner */\n      dup5\n        /* \"@openzeppelin/contracts/token/ERC20/ERC20.sol\":11068:11075  spender */\n      dup5\n        /* \"@openzeppelin/contracts/token/ERC20/ERC20.sol\":11096:11101  value */\n      dup5\n        /* \"@openzeppelin/contracts/token/ERC20/ERC20.sol\":11077:11093  currentAllowance */\n      dup5\n        /* \"@openzeppelin/contracts/token/ERC20/ERC20.sol\":11077:11101  currentAllowance - value */\n      sub\n        /* \"@openzeppelin/contracts/token/ERC20/ERC20.sol\":11103:11108  false */\n      0x00\n        /* \"@openzeppelin/contracts/token/ERC20/ERC20.sol\":11052:11060  _approve */\n      tag_275\n        /* \"@openzeppelin/contracts/token/ERC20/ERC20.sol\":11052:11109  _approve(owner, spender, currentAllowance - value, false) */\n      jump\t// in\n    tag_282:\n        /* \"@openzeppelin/contracts/token/ERC20/ERC20.sol\":10824:11134  if (currentAllowance != type(uint256).max) {... */\n    tag_278:\n        /* \"@openzeppelin/contracts/token/ERC20/ERC20.sol\":10752:11140  {... */\n      pop\n        /* \"@openzeppelin/contracts/token/ERC20/ERC20.sol\":10663:11140  function _spendAllowance(address owner, address spender, uint256 value) internal virtual {... */\n      pop\n      pop\n      pop\n      jump\t// out\n        /* \"@openzeppelin/contracts/token/ERC20/ERC20.sol\":5656:5956  function _transfer(address from, address to, uint256 value) internal {... */\n    tag_175:\n        /* \"@openzeppelin/contracts/token/ERC20/ERC20.sol\":5755:5756  0 */\n      0x00\n        /* \"@openzeppelin/contracts/token/ERC20/ERC20.sol\":5739:5757  from == address(0) */\n      0xffffffffffffffffffffffffffffffffffffffff\n      and\n        /* \"@openzeppelin/contracts/token/ERC20/ERC20.sol\":5739:5743  from */\n      dup4\n        /* \"@openzeppelin/contracts/token/ERC20/ERC20.sol\":5739:5757  from == address(0) */\n      0xffffffffffffffffffffffffffffffffffffffff\n      and\n      sub\n        /* \"@openzeppelin/contracts/token/ERC20/ERC20.sol\":5735:5821  if (from == address(0)) {... */\n      tag_284\n      jumpi\n        /* \"@openzeppelin/contracts/token/ERC20/ERC20.sol\":5807:5808  0 */\n      0x00\n        /* \"@openzeppelin/contracts/token/ERC20/ERC20.sol\":5780:5810  ERC20InvalidSender(address(0)) */\n      mload(0x40)\n      0x96c6fd1e00000000000000000000000000000000000000000000000000000000\n      dup2\n      mstore\n      0x04\n      add\n      tag_285\n      swap2\n      swap1\n      tag_100\n      jump\t// in\n    tag_285:\n      mload(0x40)\n      dup1\n      swap2\n      sub\n      swap1\n      revert\n        /* \"@openzeppelin/contracts/token/ERC20/ERC20.sol\":5735:5821  if (from == address(0)) {... */\n    tag_284:\n        /* \"@openzeppelin/contracts/token/ERC20/ERC20.sol\":5848:5849  0 */\n      0x00\n        /* \"@openzeppelin/contracts/token/ERC20/ERC20.sol\":5834:5850  to == address(0) */\n      0xffffffffffffffffffffffffffffffffffffffff\n      and\n        /* \"@openzeppelin/contracts/token/ERC20/ERC20.sol\":5834:5836  to */\n      dup3\n        /* \"@openzeppelin/contracts/token/ERC20/ERC20.sol\":5834:5850  to == address(0) */\n      0xffffffffffffffffffffffffffffffffffffffff\n      and\n      sub\n        /* \"@openzeppelin/contracts/token/ERC20/ERC20.sol\":5830:5916  if (to == address(0)) {... */\n      tag_286\n      jumpi\n        /* \"@openzeppelin/contracts/token/ERC20/ERC20.sol\":5902:5903  0 */\n      0x00\n        /* \"@openzeppelin/contracts/token/ERC20/ERC20.sol\":5873:5905  ERC20InvalidReceiver(address(0)) */\n      mload(0x40)\n      0xec442f0500000000000000000000000000000000000000000000000000000000\n      dup2\n      mstore\n      0x04\n      add\n      tag_287\n      swap2\n      swap1\n      tag_100\n      jump\t// in\n    tag_287:\n      mload(0x40)\n      dup1\n      swap2\n      sub\n      swap1\n      revert\n        /* \"@openzeppelin/contracts/token/ERC20/ERC20.sol\":5830:5916  if (to == address(0)) {... */\n    tag_286:\n        /* \"@openzeppelin/contracts/token/ERC20/ERC20.sol\":5925:5949  _update(from, to, value) */\n      tag_288\n        /* \"@openzeppelin/contracts/token/ERC20/ERC20.sol\":5933:5937  from */\n      dup4\n        /* \"@openzeppelin/contracts/token/ERC20/ERC20.sol\":5939:5941  to */\n      dup4\n        /* \"@openzeppelin/contracts/token/ERC20/ERC20.sol\":5943:5948  value */\n      dup4\n        /* \"@openzeppelin/contracts/token/ERC20/ERC20.sol\":5925:5932  _update */\n      tag_289\n        /* \"@openzeppelin/contracts/token/ERC20/ERC20.sol\":5925:5949  _update(from, to, value) */\n      jump\t// in\n    tag_288:\n        /* \"@openzeppelin/contracts/token/ERC20/ERC20.sol\":5656:5956  function _transfer(address from, address to, uint256 value) internal {... */\n      pop\n      pop\n      pop\n      jump\t// out\n        /* \"@openzeppelin/contracts/access/Ownable.sol\":1796:1958  function _checkOwner() internal view virtual {... */\n    tag_179:\n        /* \"@openzeppelin/contracts/access/Ownable.sol\":1866:1878  _msgSender() */\n      tag_291\n        /* \"@openzeppelin/contracts/access/Ownable.sol\":1866:1876  _msgSender */\n      tag_166\n        /* \"@openzeppelin/contracts/access/Ownable.sol\":1866:1878  _msgSender() */\n      jump\t// in\n    tag_291:\n        /* \"@openzeppelin/contracts/access/Ownable.sol\":1855:1878  owner() != _msgSender() */\n      0xffffffffffffffffffffffffffffffffffffffff\n      and\n        /* \"@openzeppelin/contracts/access/Ownable.sol\":1855:1862  owner() */\n      tag_292\n        /* \"@openzeppelin/contracts/access/Ownable.sol\":1855:1860  owner */\n      tag_112\n        /* \"@openzeppelin/contracts/access/Ownable.sol\":1855:1862  owner() */\n      jump\t// in\n    tag_292:\n        /* \"@openzeppelin/contracts/access/Ownable.sol\":1855:1878  owner() != _msgSender() */\n      0xffffffffffffffffffffffffffffffffffffffff\n      and\n      eq\n        /* \"@openzeppelin/contracts/access/Ownable.sol\":1851:1952  if (owner() != _msgSender()) {... */\n      tag_293\n      jumpi\n        /* \"@openzeppelin/contracts/access/Ownable.sol\":1928:1940  _msgSender() */\n      tag_294\n        /* \"@openzeppelin/contracts/access/Ownable.sol\":1928:1938  _msgSender */\n      tag_166\n        /* \"@openzeppelin/contracts/access/Ownable.sol\":1928:1940  _msgSender() */\n      jump\t// in\n    tag_294:\n        /* \"@openzeppelin/contracts/access/Ownable.sol\":1901:1941  OwnableUnauthorizedAccount(_msgSender()) */\n      mload(0x40)\n      0x118cdaa700000000000000000000000000000000000000000000000000000000\n      dup2\n      mstore\n      0x04\n      add\n      tag_295\n      swap2\n      swap1\n      tag_100\n      jump\t// in\n    tag_295:\n      mload(0x40)\n      dup1\n      swap2\n      sub\n      swap1\n      revert\n        /* \"@openzeppelin/contracts/access/Ownable.sol\":1851:1952  if (owner() != _msgSender()) {... */\n    tag_293:\n        /* \"@openzeppelin/contracts/access/Ownable.sol\":1796:1958  function _checkOwner() internal view virtual {... */\n      jump\t// out\n        /* \"@openzeppelin/contracts/security/Pausable.sol\":2433:2550  function _unpause() internal virtual whenPaused {... */\n    tag_182:\n        /* \"@openzeppelin/contracts/security/Pausable.sol\":1486:1502  _requirePaused() */\n      tag_297\n        /* \"@openzeppelin/contracts/security/Pausable.sol\":1486:1500  _requirePaused */\n      tag_298\n        /* \"@openzeppelin/contracts/security/Pausable.sol\":1486:1502  _requirePaused() */\n      jump\t// in\n    tag_297:\n        /* \"@openzeppelin/contracts/security/Pausable.sol\":2501:2506  false */\n      0x00\n        /* \"@openzeppelin/contracts/security/Pausable.sol\":2491:2498  _paused */\n      0x05\n      0x14\n        /* \"@openzeppelin/contracts/security/Pausable.sol\":2491:2506  _paused = false */\n      0x0100\n      exp\n      dup2\n      sload\n      dup2\n      0xff\n      mul\n      not\n      and\n      swap1\n      dup4\n      iszero\n      iszero\n      mul\n      or\n      swap1\n      sstore\n      pop\n        /* \"@openzeppelin/contracts/security/Pausable.sol\":2521:2543  Unpaused(_msgSender()) */\n      0x5db9ee0a495bf2e6ff9c91a7834c1ba4fdd244a5e8aa4e537bd38aeae4b073aa\n        /* \"@openzeppelin/contracts/security/Pausable.sol\":2530:2542  _msgSender() */\n      tag_300\n        /* \"@openzeppelin/contracts/security/Pausable.sol\":2530:2540  _msgSender */\n      tag_166\n        /* \"@openzeppelin/contracts/security/Pausable.sol\":2530:2542  _msgSender() */\n      jump\t// in\n    tag_300:\n        /* \"@openzeppelin/contracts/security/Pausable.sol\":2521:2543  Unpaused(_msgSender()) */\n      mload(0x40)\n      tag_301\n      swap2\n      swap1\n      tag_100\n      jump\t// in\n    tag_301:\n      mload(0x40)\n      dup1\n      swap2\n      sub\n      swap1\n      log1\n        /* \"@openzeppelin/contracts/security/Pausable.sol\":2433:2550  function _unpause() internal virtual whenPaused {... */\n      jump\t// out\n        /* \"@openzeppelin/contracts/access/Ownable.sol\":2912:3099  function _transferOwnership(address newOwner) internal virtual {... */\n    tag_201:\n        /* \"@openzeppelin/contracts/access/Ownable.sol\":2985:3001  address oldOwner */\n      0x00\n        /* \"@openzeppelin/contracts/access/Ownable.sol\":3004:3010  _owner */\n      0x05\n      0x00\n      swap1\n      sload\n      swap1\n      0x0100\n      exp\n      swap1\n      div\n      0xffffffffffffffffffffffffffffffffffffffff\n      and\n        /* \"@openzeppelin/contracts/access/Ownable.sol\":2985:3010  address oldOwner = _owner */\n      swap1\n      pop\n        /* \"@openzeppelin/contracts/access/Ownable.sol\":3029:3037  newOwner */\n      dup2\n        /* \"@openzeppelin/contracts/access/Ownable.sol\":3020:3026  _owner */\n      0x05\n      0x00\n        /* \"@openzeppelin/contracts/access/Ownable.sol\":3020:3037  _owner = newOwner */\n      0x0100\n      exp\n      dup2\n      sload\n      dup2\n      0xffffffffffffffffffffffffffffffffffffffff\n      mul\n      not\n      and\n      swap1\n      dup4\n      0xffffffffffffffffffffffffffffffffffffffff\n      and\n      mul\n      or\n      swap1\n      sstore\n      pop\n        /* \"@openzeppelin/contracts/access/Ownable.sol\":3083:3091  newOwner */\n      dup2\n        /* \"@openzeppelin/contracts/access/Ownable.sol\":3052:3092  OwnershipTransferred(oldOwner, newOwner) */\n      0xffffffffffffffffffffffffffffffffffffffff\n      and\n        /* \"@openzeppelin/contracts/access/Ownable.sol\":3073:3081  oldOwner */\n      dup2\n        /* \"@openzeppelin/contracts/access/Ownable.sol\":3052:3092  OwnershipTransferred(oldOwner, newOwner) */\n      0xffffffffffffffffffffffffffffffffffffffff\n      and\n      0x8be0079c531659141344cd1fd0a4f28419497f9722a3daafe3b4186f6b6457e0\n      mload(0x40)\n      mload(0x40)\n      dup1\n      swap2\n      sub\n      swap1\n      log3\n        /* \"@openzeppelin/contracts/access/Ownable.sol\":2975:3099  {... */\n      pop\n        /* \"@openzeppelin/contracts/access/Ownable.sol\":2912:3099  function _transferOwnership(address newOwner) internal virtual {... */\n      pop\n      jump\t// out\n        /* \"@openzeppelin/contracts/security/Pausable.sol\":2186:2301  function _pause() internal virtual whenNotPaused {... */\n    tag_207:\n        /* \"@openzeppelin/contracts/security/Pausable.sol\":1239:1258  _requireNotPaused() */\n      tag_304\n        /* \"@openzeppelin/contracts/security/Pausable.sol\":1239:1256  _requireNotPaused */\n      tag_210\n        /* \"@openzeppelin/contracts/security/Pausable.sol\":1239:1258  _requireNotPaused() */\n      jump\t// in\n    tag_304:\n        /* \"@openzeppelin/contracts/security/Pausable.sol\":2255:2259  true */\n      0x01\n        /* \"@openzeppelin/contracts/security/Pausable.sol\":2245:2252  _paused */\n      0x05\n      0x14\n        /* \"@openzeppelin/contracts/security/Pausable.sol\":2245:2259  _paused = true */\n      0x0100\n      exp\n      dup2\n      sload\n      dup2\n      0xff\n      mul\n      not\n      and\n      swap1\n      dup4\n      iszero\n      iszero\n      mul\n      or\n      swap1\n      sstore\n      pop\n        /* \"@openzeppelin/contracts/security/Pausable.sol\":2274:2294  Paused(_msgSender()) */\n      0x62e78cea01bee320cd4e420270b5ea74000d11b0c9f74754ebdbfc544b05a258\n        /* \"@openzeppelin/contracts/security/Pausable.sol\":2281:2293  _msgSender() */\n      tag_306\n        /* \"@openzeppelin/contracts/security/Pausable.sol\":2281:2291  _msgSender */\n      tag_166\n        /* \"@openzeppelin/contracts/security/Pausable.sol\":2281:2293  _msgSender() */\n      jump\t// in\n    tag_306:\n        /* \"@openzeppelin/contracts/security/Pausable.sol\":2274:2294  Paused(_msgSender()) */\n      mload(0x40)\n      tag_307\n      swap2\n      swap1\n      tag_100\n      jump\t// in\n    tag_307:\n      mload(0x40)\n      dup1\n      swap2\n      sub\n      swap1\n      log1\n        /* \"@openzeppelin/contracts/security/Pausable.sol\":2186:2301  function _pause() internal virtual whenNotPaused {... */\n      jump\t// out\n        /* \"@openzeppelin/contracts/security/Pausable.sol\":1767:1873  function _requireNotPaused() internal view virtual {... */\n    tag_210:\n        /* \"@openzeppelin/contracts/security/Pausable.sol\":1837:1845  paused() */\n      tag_309\n        /* \"@openzeppelin/contracts/security/Pausable.sol\":1837:1843  paused */\n      tag_79\n        /* \"@openzeppelin/contracts/security/Pausable.sol\":1837:1845  paused() */\n      jump\t// in\n    tag_309:\n        /* \"@openzeppelin/contracts/security/Pausable.sol\":1836:1845  !paused() */\n      iszero\n        /* \"@openzeppelin/contracts/security/Pausable.sol\":1828:1866  require(!paused(), \"Pausable: paused\") */\n      tag_310\n      jumpi\n      mload(0x40)\n      0x08c379a000000000000000000000000000000000000000000000000000000000\n      dup2\n      mstore\n      0x04\n      add\n      tag_311\n      swap1\n      tag_312\n      jump\t// in\n    tag_311:\n      mload(0x40)\n      dup1\n      swap2\n      sub\n      swap1\n      revert\n    tag_310:\n        /* \"@openzeppelin/contracts/security/Pausable.sol\":1767:1873  function _requireNotPaused() internal view virtual {... */\n      jump\t// out\n        /* \"@openzeppelin/contracts/token/ERC20/ERC20.sol\":7721:7929  function _mint(address account, uint256 value) internal {... */\n    tag_258:\n        /* \"@openzeppelin/contracts/token/ERC20/ERC20.sol\":7810:7811  0 */\n      0x00\n        /* \"@openzeppelin/contracts/token/ERC20/ERC20.sol\":7791:7812  account == address(0) */\n      0xffffffffffffffffffffffffffffffffffffffff\n      and\n        /* \"@openzeppelin/contracts/token/ERC20/ERC20.sol\":7791:7798  account */\n      dup3\n        /* \"@openzeppelin/contracts/token/ERC20/ERC20.sol\":7791:7812  account == address(0) */\n      0xffffffffffffffffffffffffffffffffffffffff\n      and\n      sub\n        /* \"@openzeppelin/contracts/token/ERC20/ERC20.sol\":7787:7878  if (account == address(0)) {... */\n      tag_314\n      jumpi\n        /* \"@openzeppelin/contracts/token/ERC20/ERC20.sol\":7864:7865  0 */\n      0x00\n        /* \"@openzeppelin/contracts/token/ERC20/ERC20.sol\":7835:7867  ERC20InvalidReceiver(address(0)) */\n      mload(0x40)\n      0xec442f0500000000000000000000000000000000000000000000000000000000\n      dup2\n      mstore\n      0x04\n      add\n      tag_315\n      swap2\n      swap1\n      tag_100\n      jump\t// in\n    tag_315:\n      mload(0x40)\n      dup1\n      swap2\n      sub\n      swap1\n      revert\n        /* \"@openzeppelin/contracts/token/ERC20/ERC20.sol\":7787:7878  if (account == address(0)) {... */\n    tag_314:\n        /* \"@openzeppelin/contracts/token/ERC20/ERC20.sol\":7887:7922  _update(address(0), account, value) */\n      tag_316\n        /* \"@openzeppelin/contracts/token/ERC20/ERC20.sol\":7903:7904  0 */\n      0x00\n        /* \"@openzeppelin/contracts/token/ERC20/ERC20.sol\":7907:7914  account */\n      dup4\n        /* \"@openzeppelin/contracts/token/ERC20/ERC20.sol\":7916:7921  value */\n      dup4\n        /* \"@openzeppelin/contracts/token/ERC20/ERC20.sol\":7887:7894  _update */\n      tag_289\n        /* \"@openzeppelin/contracts/token/ERC20/ERC20.sol\":7887:7922  _update(address(0), account, value) */\n      jump\t// in\n    tag_316:\n        /* \"@openzeppelin/contracts/token/ERC20/ERC20.sol\":7721:7929  function _mint(address account, uint256 value) internal {... */\n      pop\n      pop\n      jump\t// out\n        /* \"@openzeppelin/contracts/token/ERC20/ERC20.sol\":9949:10381  function _approve(address owner, address spender, uint256 value, bool emitEvent) internal virtual {... */\n    tag_275:\n        /* \"@openzeppelin/contracts/token/ERC20/ERC20.sol\":10078:10079  0 */\n      0x00\n        /* \"@openzeppelin/contracts/token/ERC20/ERC20.sol\":10061:10080  owner == address(0) */\n      0xffffffffffffffffffffffffffffffffffffffff\n      and\n        /* \"@openzeppelin/contracts/token/ERC20/ERC20.sol\":10061:10066  owner */\n      dup5\n        /* \"@openzeppelin/contracts/token/ERC20/ERC20.sol\":10061:10080  owner == address(0) */\n      0xffffffffffffffffffffffffffffffffffffffff\n      and\n      sub\n        /* \"@openzeppelin/contracts/token/ERC20/ERC20.sol\":10057:10146  if (owner == address(0)) {... */\n      tag_318\n      jumpi\n        /* \"@openzeppelin/contracts/token/ERC20/ERC20.sol\":10132:10133  0 */\n      0x00\n        /* \"@openzeppelin/contracts/token/ERC20/ERC20.sol\":10103:10135  ERC20InvalidApprover(address(0)) */\n      mload(0x40)\n      0xe602df0500000000000000000000000000000000000000000000000000000000\n      dup2\n      mstore\n      0x04\n      add\n      tag_319\n      swap2\n      swap1\n      tag_100\n      jump\t// in\n    tag_319:\n      mload(0x40)\n      dup1\n      swap2\n      sub\n      swap1\n      revert\n        /* \"@openzeppelin/contracts/token/ERC20/ERC20.sol\":10057:10146  if (owner == address(0)) {... */\n    tag_318:\n        /* \"@openzeppelin/contracts/token/ERC20/ERC20.sol\":10178:10179  0 */\n      0x00\n        /* \"@openzeppelin/contracts/token/ERC20/ERC20.sol\":10159:10180  spender == address(0) */\n      0xffffffffffffffffffffffffffffffffffffffff\n      and\n        /* \"@openzeppelin/contracts/token/ERC20/ERC20.sol\":10159:10166  spender */\n      dup4\n        /* \"@openzeppelin/contracts/token/ERC20/ERC20.sol\":10159:10180  spender == address(0) */\n      0xffffffffffffffffffffffffffffffffffffffff\n      and\n      sub\n        /* \"@openzeppelin/contracts/token/ERC20/ERC20.sol\":10155:10245  if (spender == address(0)) {... */\n      tag_320\n      jumpi\n        /* \"@openzeppelin/contracts/token/ERC20/ERC20.sol\":10231:10232  0 */\n      0x00\n        /* \"@openzeppelin/contracts/token/ERC20/ERC20.sol\":10203:10234  ERC20InvalidSpender(address(0)) */\n      mload(0x40)\n      0x94280d6200000000000000000000000000000000000000000000000000000000\n      dup2\n      mstore\n      0x04\n      add\n      tag_321\n      swap2\n      swap1\n      tag_100\n      jump\t// in\n    tag_321:\n      mload(0x40)\n      dup1\n      swap2\n      sub\n      swap1\n      revert\n        /* \"@openzeppelin/contracts/token/ERC20/ERC20.sol\":10155:10245  if (spender == address(0)) {... */\n    tag_320:\n        /* \"@openzeppelin/contracts/token/ERC20/ERC20.sol\":10284:10289  value */\n      dup2\n        /* \"@openzeppelin/contracts/token/ERC20/ERC20.sol\":10254:10265  _allowances */\n      0x01\n        /* \"@openzeppelin/contracts/token/ERC20/ERC20.sol\":10254:10272  _allowances[owner] */\n      0x00\n        /* \"@openzeppelin/contracts/token/ERC20/ERC20.sol\":10266:10271  owner */\n      dup7\n        /* \"@openzeppelin/contracts/token/ERC20/ERC20.sol\":10254:10272  _allowances[owner] */\n      0xffffffffffffffffffffffffffffffffffffffff\n      and\n      0xffffffffffffffffffffffffffffffffffffffff\n      and\n      dup2\n      mstore\n      0x20\n      add\n      swap1\n      dup2\n      mstore\n      0x20\n      add\n      0x00\n      keccak256\n        /* \"@openzeppelin/contracts/token/ERC20/ERC20.sol\":10254:10281  _allowances[owner][spender] */\n      0x00\n        /* \"@openzeppelin/contracts/token/ERC20/ERC20.sol\":10273:10280  spender */\n      dup6\n        /* \"@openzeppelin/contracts/token/ERC20/ERC20.sol\":10254:10281  _allowances[owner][spender] */\n      0xffffffffffffffffffffffffffffffffffffffff\n      and\n      0xffffffffffffffffffffffffffffffffffffffff\n      and\n      dup2\n      mstore\n      0x20\n      add\n      swap1\n      dup2\n      mstore\n      0x20\n      add\n      0x00\n      keccak256\n        /* \"@openzeppelin/contracts/token/ERC20/ERC20.sol\":10254:10289  _allowances[owner][spender] = value */\n      dup2\n      swap1\n      sstore\n      pop\n        /* \"@openzeppelin/contracts/token/ERC20/ERC20.sol\":10303:10312  emitEvent */\n      dup1\n        /* \"@openzeppelin/contracts/token/ERC20/ERC20.sol\":10299:10375  if (emitEvent) {... */\n      iszero\n      tag_322\n      jumpi\n        /* \"@openzeppelin/contracts/token/ERC20/ERC20.sol\":10349:10356  spender */\n      dup3\n        /* \"@openzeppelin/contracts/token/ERC20/ERC20.sol\":10333:10364  Approval(owner, spender, value) */\n      0xffffffffffffffffffffffffffffffffffffffff\n      and\n        /* \"@openzeppelin/contracts/token/ERC20/ERC20.sol\":10342:10347  owner */\n      dup5\n        /* \"@openzeppelin/contracts/token/ERC20/ERC20.sol\":10333:10364  Approval(owner, spender, value) */\n      0xffffffffffffffffffffffffffffffffffffffff\n      and\n      0x8c5be1e5ebec7d5bd14f71427d1e84f3dd0314c0f7b2291e5b200ac8c7c3b925\n        /* \"@openzeppelin/contracts/token/ERC20/ERC20.sol\":10358:10363  value */\n      dup5\n        /* \"@openzeppelin/contracts/token/ERC20/ERC20.sol\":10333:10364  Approval(owner, spender, value) */\n      mload(0x40)\n      tag_323\n      swap2\n      swap1\n      tag_53\n      jump\t// in\n    tag_323:\n      mload(0x40)\n      dup1\n      swap2\n      sub\n      swap1\n      log3\n        /* \"@openzeppelin/contracts/token/ERC20/ERC20.sol\":10299:10375  if (emitEvent) {... */\n    tag_322:\n        /* \"@openzeppelin/contracts/token/ERC20/ERC20.sol\":9949:10381  function _approve(address owner, address spender, uint256 value, bool emitEvent) internal virtual {... */\n      pop\n      pop\n      pop\n      pop\n      jump\t// out\n        /* \"@openzeppelin/contracts/token/ERC20/ERC20.sol\":6271:7378  function _update(address from, address to, uint256 value) internal virtual {... */\n    tag_289:\n        /* \"@openzeppelin/contracts/token/ERC20/ERC20.sol\":6376:6377  0 */\n      0x00\n        /* \"@openzeppelin/contracts/token/ERC20/ERC20.sol\":6360:6378  from == address(0) */\n      0xffffffffffffffffffffffffffffffffffffffff\n      and\n        /* \"@openzeppelin/contracts/token/ERC20/ERC20.sol\":6360:6364  from */\n      dup4\n        /* \"@openzeppelin/contracts/token/ERC20/ERC20.sol\":6360:6378  from == address(0) */\n      0xffffffffffffffffffffffffffffffffffffffff\n      and\n      sub\n        /* \"@openzeppelin/contracts/token/ERC20/ERC20.sol\":6356:6896  if (from == address(0)) {... */\n      tag_325\n      jumpi\n        /* \"@openzeppelin/contracts/token/ERC20/ERC20.sol\":6512:6517  value */\n      dup1\n        /* \"@openzeppelin/contracts/token/ERC20/ERC20.sol\":6496:6508  _totalSupply */\n      0x02\n      0x00\n        /* \"@openzeppelin/contracts/token/ERC20/ERC20.sol\":6496:6517  _totalSupply += value */\n      dup3\n      dup3\n      sload\n      tag_326\n      swap2\n      swap1\n      tag_221\n      jump\t// in\n    tag_326:\n      swap3\n      pop\n      pop\n      dup2\n      swap1\n      sstore\n      pop\n        /* \"@openzeppelin/contracts/token/ERC20/ERC20.sol\":6356:6896  if (from == address(0)) {... */\n      jump(tag_327)\n    tag_325:\n        /* \"@openzeppelin/contracts/token/ERC20/ERC20.sol\":6548:6567  uint256 fromBalance */\n      0x00\n        /* \"@openzeppelin/contracts/token/ERC20/ERC20.sol\":6570:6579  _balances */\n      dup1\n        /* \"@openzeppelin/contracts/token/ERC20/ERC20.sol\":6570:6585  _balances[from] */\n      0x00\n        /* \"@openzeppelin/contracts/token/ERC20/ERC20.sol\":6580:6584  from */\n      dup6\n        /* \"@openzeppelin/contracts/token/ERC20/ERC20.sol\":6570:6585  _balances[from] */\n      0xffffffffffffffffffffffffffffffffffffffff\n      and\n      0xffffffffffffffffffffffffffffffffffffffff\n      and\n      dup2\n      mstore\n      0x20\n      add\n      swap1\n      dup2\n      mstore\n      0x20\n      add\n      0x00\n      keccak256\n      sload\n        /* \"@openzeppelin/contracts/token/ERC20/ERC20.sol\":6548:6585  uint256 fromBalance = _balances[from] */\n      swap1\n      pop\n        /* \"@openzeppelin/contracts/token/ERC20/ERC20.sol\":6617:6622  value */\n      dup2\n        /* \"@openzeppelin/contracts/token/ERC20/ERC20.sol\":6603:6614  fromBalance */\n      dup2\n        /* \"@openzeppelin/contracts/token/ERC20/ERC20.sol\":6603:6622  fromBalance < value */\n      lt\n        /* \"@openzeppelin/contracts/token/ERC20/ERC20.sol\":6599:6714  if (fromBalance < value) {... */\n      iszero\n      tag_328\n      jumpi\n        /* \"@openzeppelin/contracts/token/ERC20/ERC20.sol\":6674:6678  from */\n      dup4\n        /* \"@openzeppelin/contracts/token/ERC20/ERC20.sol\":6680:6691  fromBalance */\n      dup2\n        /* \"@openzeppelin/contracts/token/ERC20/ERC20.sol\":6693:6698  value */\n      dup4\n        /* \"@openzeppelin/contracts/token/ERC20/ERC20.sol\":6649:6699  ERC20InsufficientBalance(from, fromBalance, value) */\n      mload(0x40)\n      0xe450d38c00000000000000000000000000000000000000000000000000000000\n      dup2\n      mstore\n      0x04\n      add\n      tag_329\n      swap4\n      swap3\n      swap2\n      swap1\n      tag_281\n      jump\t// in\n    tag_329:\n      mload(0x40)\n      dup1\n      swap2\n      sub\n      swap1\n      revert\n        /* \"@openzeppelin/contracts/token/ERC20/ERC20.sol\":6599:6714  if (fromBalance < value) {... */\n    tag_328:\n        /* \"@openzeppelin/contracts/token/ERC20/ERC20.sol\":6866:6871  value */\n      dup2\n        /* \"@openzeppelin/contracts/token/ERC20/ERC20.sol\":6852:6863  fromBalance */\n      dup2\n        /* \"@openzeppelin/contracts/token/ERC20/ERC20.sol\":6852:6871  fromBalance - value */\n      sub\n        /* \"@openzeppelin/contracts/token/ERC20/ERC20.sol\":6834:6843  _balances */\n      0x00\n        /* \"@openzeppelin/contracts/token/ERC20/ERC20.sol\":6834:6849  _balances[from] */\n      dup1\n        /* \"@openzeppelin/contracts/token/ERC20/ERC20.sol\":6844:6848  from */\n      dup7\n        /* \"@openzeppelin/contracts/token/ERC20/ERC20.sol\":6834:6849  _balances[from] */\n      0xffffffffffffffffffffffffffffffffffffffff\n      and\n      0xffffffffffffffffffffffffffffffffffffffff\n      and\n      dup2\n      mstore\n      0x20\n      add\n      swap1\n      dup2\n      mstore\n      0x20\n      add\n      0x00\n      keccak256\n        /* \"@openzeppelin/contracts/token/ERC20/ERC20.sol\":6834:6871  _balances[from] = fromBalance - value */\n      dup2\n      swap1\n      sstore\n      pop\n        /* \"@openzeppelin/contracts/token/ERC20/ERC20.sol\":6534:6896  {... */\n      pop\n        /* \"@openzeppelin/contracts/token/ERC20/ERC20.sol\":6356:6896  if (from == address(0)) {... */\n    tag_327:\n        /* \"@openzeppelin/contracts/token/ERC20/ERC20.sol\":6924:6925  0 */\n      0x00\n        /* \"@openzeppelin/contracts/token/ERC20/ERC20.sol\":6910:6926  to == address(0) */\n      0xffffffffffffffffffffffffffffffffffffffff\n      and\n        /* \"@openzeppelin/contracts/token/ERC20/ERC20.sol\":6910:6912  to */\n      dup3\n        /* \"@openzeppelin/contracts/token/ERC20/ERC20.sol\":6910:6926  to == address(0) */\n      0xffffffffffffffffffffffffffffffffffffffff\n      and\n      sub\n        /* \"@openzeppelin/contracts/token/ERC20/ERC20.sol\":6906:7331  if (to == address(0)) {... */\n      tag_330\n      jumpi\n        /* \"@openzeppelin/contracts/token/ERC20/ERC20.sol\":7089:7094  value */\n      dup1\n        /* \"@openzeppelin/contracts/token/ERC20/ERC20.sol\":7073:7085  _totalSupply */\n      0x02\n      0x00\n        /* \"@openzeppelin/contracts/token/ERC20/ERC20.sol\":7073:7094  _totalSupply -= value */\n      dup3\n      dup3\n      sload\n      sub\n      swap3\n      pop\n      pop\n      dup2\n      swap1\n      sstore\n      pop\n        /* \"@openzeppelin/contracts/token/ERC20/ERC20.sol\":6906:7331  if (to == address(0)) {... */\n      jump(tag_331)\n    tag_330:\n        /* \"@openzeppelin/contracts/token/ERC20/ERC20.sol\":7301:7306  value */\n      dup1\n        /* \"@openzeppelin/contracts/token/ERC20/ERC20.sol\":7284:7293  _balances */\n      0x00\n        /* \"@openzeppelin/contracts/token/ERC20/ERC20.sol\":7284:7297  _balances[to] */\n      dup1\n        /* \"@openzeppelin/contracts/token/ERC20/ERC20.sol\":7294:7296  to */\n      dup5\n        /* \"@openzeppelin/contracts/token/ERC20/ERC20.sol\":7284:7297  _balances[to] */\n      0xffffffffffffffffffffffffffffffffffffffff\n      and\n      0xffffffffffffffffffffffffffffffffffffffff\n      and\n      dup2\n      mstore\n      0x20\n      add\n      swap1\n      dup2\n      mstore\n      0x20\n      add\n      0x00\n      keccak256\n      0x00\n        /* \"@openzeppelin/contracts/token/ERC20/ERC20.sol\":7284:7306  _balances[to] += value */\n      dup3\n      dup3\n      sload\n      add\n      swap3\n      pop\n      pop\n      dup2\n      swap1\n      sstore\n      pop\n        /* \"@openzeppelin/contracts/token/ERC20/ERC20.sol\":6906:7331  if (to == address(0)) {... */\n    tag_331:\n        /* \"@openzeppelin/contracts/token/ERC20/ERC20.sol\":7361:7363  to */\n      dup2\n        /* \"@openzeppelin/contracts/token/ERC20/ERC20.sol\":7346:7371  Transfer(from, to, value) */\n      0xffffffffffffffffffffffffffffffffffffffff\n      and\n        /* \"@openzeppelin/contracts/token/ERC20/ERC20.sol\":7355:7359  from */\n      dup4\n        /* \"@openzeppelin/contracts/token/ERC20/ERC20.sol\":7346:7371  Transfer(from, to, value) */\n      0xffffffffffffffffffffffffffffffffffffffff\n      and\n      0xddf252ad1be2c89b69c2b068fc378daa952ba7f163c4a11628f55a4df523b3ef\n        /* \"@openzeppelin/contracts/token/ERC20/ERC20.sol\":7365:7370  value */\n      dup4\n        /* \"@openzeppelin/contracts/token/ERC20/ERC20.sol\":7346:7371  Transfer(from, to, value) */\n      mload(0x40)\n      tag_332\n      swap2\n      swap1\n      tag_53\n      jump\t// in\n    tag_332:\n      mload(0x40)\n      dup1\n      swap2\n      sub\n      swap1\n      log3\n        /* \"@openzeppelin/contracts/token/ERC20/ERC20.sol\":6271:7378  function _update(address from, address to, uint256 value) internal virtual {... */\n      pop\n      pop\n      pop\n      jump\t// out\n        /* \"@openzeppelin/contracts/security/Pausable.sol\":1945:2051  function _requirePaused() internal view virtual {... */\n    tag_298:\n        /* \"@openzeppelin/contracts/security/Pausable.sol\":2011:2019  paused() */\n      tag_334\n        /* \"@openzeppelin/contracts/security/Pausable.sol\":2011:2017  paused */\n      tag_79\n        /* \"@openzeppelin/contracts/security/Pausable.sol\":2011:2019  paused() */\n      jump\t// in\n    tag_334:\n        /* \"@openzeppelin/contracts/security/Pausable.sol\":2003:2044  require(paused(), \"Pausable: not paused\") */\n      tag_335\n      jumpi\n      mload(0x40)\n      0x08c379a000000000000000000000000000000000000000000000000000000000\n      dup2\n      mstore\n      0x04\n      add\n      tag_336\n      swap1\n      tag_337\n      jump\t// in\n    tag_336:\n      mload(0x40)\n      dup1\n      swap2\n      sub\n      swap1\n      revert\n    tag_335:\n        /* \"@openzeppelin/contracts/security/Pausable.sol\":1945:2051  function _requirePaused() internal view virtual {... */\n      jump\t// out\n    tag_187:\n      dup3\n      dup1\n      sload\n      dup3\n      dup3\n      sstore\n      swap1\n      0x00\n      mstore\n      keccak256(0x00, 0x20)\n      swap1\n      dup2\n      add\n      swap3\n      dup3\n      iszero\n      tag_338\n      jumpi\n      swap2\n      0x20\n      mul\n      dup3\n      add\n    tag_339:\n      dup3\n      dup2\n      gt\n      iszero\n      tag_340\n      jumpi\n      dup3\n      mload\n      dup3\n      sstore\n      swap2\n      0x20\n      add\n      swap2\n      swap1\n      0x01\n      add\n      swap1\n      jump(tag_339)\n    tag_340:\n    tag_338:\n      pop\n      swap1\n      pop\n      tag_341\n      swap2\n      swap1\n      tag_342\n      jump\t// in\n    tag_341:\n      pop\n      swap1\n      jump\t// out\n    tag_268:\n      mload(0x40)\n      dup1\n      0x60\n      add\n      0x40\n      mstore\n      dup1\n      0x00\n      dup2\n      mstore\n      0x20\n      add\n      0x60\n      dup2\n      mstore\n      0x20\n      add\n      0x00\n      dup2\n      mstore\n      pop\n      swap1\n      jump\t// out\n    tag_342:\n    tag_343:\n      dup1\n      dup3\n      gt\n      iszero\n      tag_344\n      jumpi\n      0x00\n      dup2\n      0x00\n      swap1\n      sstore\n      pop\n      0x01\n      add\n      jump(tag_343)\n    tag_344:\n      pop\n      swap1\n      jump\t// out\n        /* \"#utility.yul\":7:106   */\n    tag_345:\n        /* \"#utility.yul\":59:65   */\n      0x00\n        /* \"#utility.yul\":93:98   */\n      dup2\n        /* \"#utility.yul\":87:99   */\n      mload\n        /* \"#utility.yul\":77:99   */\n      swap1\n      pop\n        /* \"#utility.yul\":7:106   */\n      swap2\n      swap1\n      pop\n      jump\t// out\n        /* \"#utility.yul\":112:281   */\n    tag_346:\n        /* \"#utility.yul\":196:207   */\n      0x00\n        /* \"#utility.yul\":230:236   */\n      dup3\n        /* \"#utility.yul\":225:228   */\n      dup3\n        /* \"#utility.yul\":218:237   */\n      mstore\n        /* \"#utility.yul\":270:274   */\n      0x20\n        /* \"#utility.yul\":265:268   */\n      dup3\n        /* \"#utility.yul\":261:275   */\n      add\n        /* \"#utility.yul\":246:275   */\n      swap1\n      pop\n        /* \"#utility.yul\":112:281   */\n      swap3\n      swap2\n      pop\n      pop\n      jump\t// out\n        /* \"#utility.yul\":287:426   */\n    tag_347:\n        /* \"#utility.yul\":376:382   */\n      dup3\n        /* \"#utility.yul\":371:374   */\n      dup2\n        /* \"#utility.yul\":366:369   */\n      dup4\n        /* \"#utility.yul\":360:383   */\n      mcopy\n        /* \"#utility.yul\":417:418   */\n      0x00\n        /* \"#utility.yul\":408:414   */\n      dup4\n        /* \"#utility.yul\":403:406   */\n      dup4\n        /* \"#utility.yul\":399:415   */\n      add\n        /* \"#utility.yul\":392:419   */\n      mstore\n        /* \"#utility.yul\":287:426   */\n      pop\n      pop\n      pop\n      jump\t// out\n        /* \"#utility.yul\":432:534   */\n    tag_348:\n        /* \"#utility.yul\":473:479   */\n      0x00\n        /* \"#utility.yul\":524:526   */\n      0x1f\n        /* \"#utility.yul\":520:527   */\n      not\n        /* \"#utility.yul\":515:517   */\n      0x1f\n        /* \"#utility.yul\":508:513   */\n      dup4\n        /* \"#utility.yul\":504:518   */\n      add\n        /* \"#utility.yul\":500:528   */\n      and\n        /* \"#utility.yul\":490:528   */\n      swap1\n      pop\n        /* \"#utility.yul\":432:534   */\n      swap2\n      swap1\n      pop\n      jump\t// out\n        /* \"#utility.yul\":540:917   */\n    tag_349:\n        /* \"#utility.yul\":628:631   */\n      0x00\n        /* \"#utility.yul\":656:695   */\n      tag_406\n        /* \"#utility.yul\":689:694   */\n      dup3\n        /* \"#utility.yul\":656:695   */\n      tag_345\n      jump\t// in\n    tag_406:\n        /* \"#utility.yul\":711:782   */\n      tag_407\n        /* \"#utility.yul\":775:781   */\n      dup2\n        /* \"#utility.yul\":770:773   */\n      dup6\n        /* \"#utility.yul\":711:782   */\n      tag_346\n      jump\t// in\n    tag_407:\n        /* \"#utility.yul\":704:782   */\n      swap4\n      pop\n        /* \"#utility.yul\":791:856   */\n      tag_408\n        /* \"#utility.yul\":849:855   */\n      dup2\n        /* \"#utility.yul\":844:847   */\n      dup6\n        /* \"#utility.yul\":837:841   */\n      0x20\n        /* \"#utility.yul\":830:835   */\n      dup7\n        /* \"#utility.yul\":826:842   */\n      add\n        /* \"#utility.yul\":791:856   */\n      tag_347\n      jump\t// in\n    tag_408:\n        /* \"#utility.yul\":881:910   */\n      tag_409\n        /* \"#utility.yul\":903:909   */\n      dup2\n        /* \"#utility.yul\":881:910   */\n      tag_348\n      jump\t// in\n    tag_409:\n        /* \"#utility.yul\":876:879   */\n      dup5\n        /* \"#utility.yul\":872:911   */\n      add\n        /* \"#utility.yul\":865:911   */\n      swap2\n      pop\n        /* \"#utility.yul\":632:917   */\n      pop\n        /* \"#utility.yul\":540:917   */\n      swap3\n      swap2\n      pop\n      pop\n      jump\t// out\n        /* \"#utility.yul\":923:1236   */\n    tag_43:\n        /* \"#utility.yul\":1036:1040   */\n      0x00\n        /* \"#utility.yul\":1074:1076   */\n      0x20\n        /* \"#utility.yul\":1063:1072   */\n      dup3\n        /* \"#utility.yul\":1059:1077   */\n      add\n        /* \"#utility.yul\":1051:1077   */\n      swap1\n      pop\n        /* \"#utility.yul\":1123:1132   */\n      dup2\n        /* \"#utility.yul\":1117:1121   */\n      dup2\n        /* \"#utility.yul\":1113:1133   */\n      sub\n        /* \"#utility.yul\":1109:1110   */\n      0x00\n        /* \"#utility.yul\":1098:1107   */\n      dup4\n        /* \"#utility.yul\":1094:1111   */\n      add\n        /* \"#utility.yul\":1087:1134   */\n      mstore\n        /* \"#utility.yul\":1151:1229   */\n      tag_411\n        /* \"#utility.yul\":1224:1228   */\n      dup2\n        /* \"#utility.yul\":1215:1221   */\n      dup5\n        /* \"#utility.yul\":1151:1229   */\n      tag_349\n      jump\t// in\n    tag_411:\n        /* \"#utility.yul\":1143:1229   */\n      swap1\n      pop\n        /* \"#utility.yul\":923:1236   */\n      swap3\n      swap2\n      pop\n      pop\n      jump\t// out\n        /* \"#utility.yul\":1242:1317   */\n    tag_350:\n        /* \"#utility.yul\":1275:1281   */\n      0x00\n        /* \"#utility.yul\":1308:1310   */\n      0x40\n        /* \"#utility.yul\":1302:1311   */\n      mload\n        /* \"#utility.yul\":1292:1311   */\n      swap1\n      pop\n        /* \"#utility.yul\":1242:1317   */\n      swap1\n      jump\t// out\n        /* \"#utility.yul\":1323:1440   */\n    tag_351:\n        /* \"#utility.yul\":1432:1433   */\n      0x00\n        /* \"#utility.yul\":1429:1430   */\n      dup1\n        /* \"#utility.yul\":1422:1434   */\n      revert\n        /* \"#utility.yul\":1446:1563   */\n    tag_352:\n        /* \"#utility.yul\":1555:1556   */\n      0x00\n        /* \"#utility.yul\":1552:1553   */\n      dup1\n        /* \"#utility.yul\":1545:1557   */\n      revert\n        /* \"#utility.yul\":1569:1695   */\n    tag_353:\n        /* \"#utility.yul\":1606:1613   */\n      0x00\n        /* \"#utility.yul\":1646:1688   */\n      0xffffffffffffffffffffffffffffffffffffffff\n        /* \"#utility.yul\":1639:1644   */\n      dup3\n        /* \"#utility.yul\":1635:1689   */\n      and\n        /* \"#utility.yul\":1624:1689   */\n      swap1\n      pop\n        /* \"#utility.yul\":1569:1695   */\n      swap2\n      swap1\n      pop\n      jump\t// out\n        /* \"#utility.yul\":1701:1797   */\n    tag_354:\n        /* \"#utility.yul\":1738:1745   */\n      0x00\n        /* \"#utility.yul\":1767:1791   */\n      tag_417\n        /* \"#utility.yul\":1785:1790   */\n      dup3\n        /* \"#utility.yul\":1767:1791   */\n      tag_353\n      jump\t// in\n    tag_417:\n        /* \"#utility.yul\":1756:1791   */\n      swap1\n      pop\n        /* \"#utility.yul\":1701:1797   */\n      swap2\n      swap1\n      pop\n      jump\t// out\n        /* \"#utility.yul\":1803:1925   */\n    tag_355:\n        /* \"#utility.yul\":1876:1900   */\n      tag_419\n        /* \"#utility.yul\":1894:1899   */\n      dup2\n        /* \"#utility.yul\":1876:1900   */\n      tag_354\n      jump\t// in\n    tag_419:\n        /* \"#utility.yul\":1869:1874   */\n      dup2\n        /* \"#utility.yul\":1866:1901   */\n      eq\n        /* \"#utility.yul\":1856:1919   */\n      tag_420\n      jumpi\n        /* \"#utility.yul\":1915:1916   */\n      0x00\n        /* \"#utility.yul\":1912:1913   */\n      dup1\n        /* \"#utility.yul\":1905:1917   */\n      revert\n        /* \"#utility.yul\":1856:1919   */\n    tag_420:\n        /* \"#utility.yul\":1803:1925   */\n      pop\n      jump\t// out\n        /* \"#utility.yul\":1931:2070   */\n    tag_356:\n        /* \"#utility.yul\":1977:1982   */\n      0x00\n        /* \"#utility.yul\":2015:2021   */\n      dup2\n        /* \"#utility.yul\":2002:2022   */\n      calldataload\n        /* \"#utility.yul\":1993:2022   */\n      swap1\n      pop\n        /* \"#utility.yul\":2031:2064   */\n      tag_422\n        /* \"#utility.yul\":2058:2063   */\n      dup2\n        /* \"#utility.yul\":2031:2064   */\n      tag_355\n      jump\t// in\n    tag_422:\n        /* \"#utility.yul\":1931:2070   */\n      swap3\n      swap2\n      pop\n      pop\n      jump\t// out\n        /* \"#utility.yul\":2076:2153   */\n    tag_357:\n        /* \"#utility.yul\":2113:2120   */\n      0x00\n        /* \"#utility.yul\":2142:2147   */\n      dup2\n        /* \"#utility.yul\":2131:2147   */\n      swap1\n      pop\n        /* \"#utility.yul\":2076:2153   */\n      swap2\n      swap1\n      pop\n      jump\t// out\n        /* \"#utility.yul\":2159:2281   */\n    tag_358:\n        /* \"#utility.yul\":2232:2256   */\n      tag_425\n        /* \"#utility.yul\":2250:2255   */\n      dup2\n        /* \"#utility.yul\":2232:2256   */\n      tag_357\n      jump\t// in\n    tag_425:\n        /* \"#utility.yul\":2225:2230   */\n      dup2\n        /* \"#utility.yul\":2222:2257   */\n      eq\n        /* \"#utility.yul\":2212:2275   */\n      tag_426\n      jumpi\n        /* \"#utility.yul\":2271:2272   */\n      0x00\n        /* \"#utility.yul\":2268:2269   */\n      dup1\n        /* \"#utility.yul\":2261:2273   */\n      revert\n        /* \"#utility.yul\":2212:2275   */\n    tag_426:\n        /* \"#utility.yul\":2159:2281   */\n      pop\n      jump\t// out\n        /* \"#utility.yul\":2287:2426   */\n    tag_359:\n        /* \"#utility.yul\":2333:2338   */\n      0x00\n        /* \"#utility.yul\":2371:2377   */\n      dup2\n        /* \"#utility.yul\":2358:2378   */\n      calldataload\n        /* \"#utility.yul\":2349:2378   */\n      swap1\n      pop\n        /* \"#utility.yul\":2387:2420   */\n      tag_428\n        /* \"#utility.yul\":2414:2419   */\n      dup2\n        /* \"#utility.yul\":2387:2420   */\n      tag_358\n      jump\t// in\n    tag_428:\n        /* \"#utility.yul\":2287:2426   */\n      swap3\n      swap2\n      pop\n      pop\n      jump\t// out\n        /* \"#utility.yul\":2432:2906   */\n    tag_46:\n        /* \"#utility.yul\":2500:2506   */\n      0x00\n        /* \"#utility.yul\":2508:2514   */\n      dup1\n        /* \"#utility.yul\":2557:2559   */\n      0x40\n        /* \"#utility.yul\":2545:2554   */\n      dup4\n        /* \"#utility.yul\":2536:2543   */\n      dup6\n        /* \"#utility.yul\":2532:2555   */\n      sub\n        /* \"#utility.yul\":2528:2560   */\n      slt\n        /* \"#utility.yul\":2525:2644   */\n      iszero\n      tag_430\n      jumpi\n        /* \"#utility.yul\":2563:2642   */\n      tag_431\n      tag_351\n      jump\t// in\n    tag_431:\n        /* \"#utility.yul\":2525:2644   */\n    tag_430:\n        /* \"#utility.yul\":2683:2684   */\n      0x00\n        /* \"#utility.yul\":2708:2761   */\n      tag_432\n        /* \"#utility.yul\":2753:2760   */\n      dup6\n        /* \"#utility.yul\":2744:2750   */\n      dup3\n        /* \"#utility.yul\":2733:2742   */\n      dup7\n        /* \"#utility.yul\":2729:2751   */\n      add\n        /* \"#utility.yul\":2708:2761   */\n      tag_356\n      jump\t// in\n    tag_432:\n        /* \"#utility.yul\":2698:2761   */\n      swap3\n      pop\n        /* \"#utility.yul\":2654:2771   */\n      pop\n        /* \"#utility.yul\":2810:2812   */\n      0x20\n        /* \"#utility.yul\":2836:2889   */\n      tag_433\n        /* \"#utility.yul\":2881:2888   */\n      dup6\n        /* \"#utility.yul\":2872:2878   */\n      dup3\n        /* \"#utility.yul\":2861:2870   */\n      dup7\n        /* \"#utility.yul\":2857:2879   */\n      add\n        /* \"#utility.yul\":2836:2889   */\n      tag_359\n      jump\t// in\n    tag_433:\n        /* \"#utility.yul\":2826:2889   */\n      swap2\n      pop\n        /* \"#utility.yul\":2781:2899   */\n      pop\n        /* \"#utility.yul\":2432:2906   */\n      swap3\n      pop\n      swap3\n      swap1\n      pop\n      jump\t// out\n        /* \"#utility.yul\":2912:3002   */\n    tag_360:\n        /* \"#utility.yul\":2946:2953   */\n      0x00\n        /* \"#utility.yul\":2989:2994   */\n      dup2\n        /* \"#utility.yul\":2982:2995   */\n      iszero\n        /* \"#utility.yul\":2975:2996   */\n      iszero\n        /* \"#utility.yul\":2964:2996   */\n      swap1\n      pop\n        /* \"#utility.yul\":2912:3002   */\n      swap2\n      swap1\n      pop\n      jump\t// out\n        /* \"#utility.yul\":3008:3117   */\n    tag_361:\n        /* \"#utility.yul\":3089:3110   */\n      tag_436\n        /* \"#utility.yul\":3104:3109   */\n      dup2\n        /* \"#utility.yul\":3089:3110   */\n      tag_360\n      jump\t// in\n    tag_436:\n        /* \"#utility.yul\":3084:3087   */\n      dup3\n        /* \"#utility.yul\":3077:3111   */\n      mstore\n        /* \"#utility.yul\":3008:3117   */\n      pop\n      pop\n      jump\t// out\n        /* \"#utility.yul\":3123:3333   */\n    tag_49:\n        /* \"#utility.yul\":3210:3214   */\n      0x00\n        /* \"#utility.yul\":3248:3250   */\n      0x20\n        /* \"#utility.yul\":3237:3246   */\n      dup3\n        /* \"#utility.yul\":3233:3251   */\n      add\n        /* \"#utility.yul\":3225:3251   */\n      swap1\n      pop\n        /* \"#utility.yul\":3261:3326   */\n      tag_438\n        /* \"#utility.yul\":3323:3324   */\n      0x00\n        /* \"#utility.yul\":3312:3321   */\n      dup4\n        /* \"#utility.yul\":3308:3325   */\n      add\n        /* \"#utility.yul\":3299:3305   */\n      dup5\n        /* \"#utility.yul\":3261:3326   */\n      tag_361\n      jump\t// in\n    tag_438:\n        /* \"#utility.yul\":3123:3333   */\n      swap3\n      swap2\n      pop\n      pop\n      jump\t// out\n        /* \"#utility.yul\":3339:3457   */\n    tag_362:\n        /* \"#utility.yul\":3426:3450   */\n      tag_440\n        /* \"#utility.yul\":3444:3449   */\n      dup2\n        /* \"#utility.yul\":3426:3450   */\n      tag_357\n      jump\t// in\n    tag_440:\n        /* \"#utility.yul\":3421:3424   */\n      dup3\n        /* \"#utility.yul\":3414:3451   */\n      mstore\n        /* \"#utility.yul\":3339:3457   */\n      pop\n      pop\n      jump\t// out\n        /* \"#utility.yul\":3463:3685   */\n    tag_53:\n        /* \"#utility.yul\":3556:3560   */\n      0x00\n        /* \"#utility.yul\":3594:3596   */\n      0x20\n        /* \"#utility.yul\":3583:3592   */\n      dup3\n        /* \"#utility.yul\":3579:3597   */\n      add\n        /* \"#utility.yul\":3571:3597   */\n      swap1\n      pop\n        /* \"#utility.yul\":3607:3678   */\n      tag_442\n        /* \"#utility.yul\":3675:3676   */\n      0x00\n        /* \"#utility.yul\":3664:3673   */\n      dup4\n        /* \"#utility.yul\":3660:3677   */\n      add\n        /* \"#utility.yul\":3651:3657   */\n      dup5\n        /* \"#utility.yul\":3607:3678   */\n      tag_362\n      jump\t// in\n    tag_442:\n        /* \"#utility.yul\":3463:3685   */\n      swap3\n      swap2\n      pop\n      pop\n      jump\t// out\n        /* \"#utility.yul\":3691:4310   */\n    tag_56:\n        /* \"#utility.yul\":3768:3774   */\n      0x00\n        /* \"#utility.yul\":3776:3782   */\n      dup1\n        /* \"#utility.yul\":3784:3790   */\n      0x00\n        /* \"#utility.yul\":3833:3835   */\n      0x60\n        /* \"#utility.yul\":3821:3830   */\n      dup5\n        /* \"#utility.yul\":3812:3819   */\n      dup7\n        /* \"#utility.yul\":3808:3831   */\n      sub\n        /* \"#utility.yul\":3804:3836   */\n      slt\n        /* \"#utility.yul\":3801:3920   */\n      iszero\n      tag_444\n      jumpi\n        /* \"#utility.yul\":3839:3918   */\n      tag_445\n      tag_351\n      jump\t// in\n    tag_445:\n        /* \"#utility.yul\":3801:3920   */\n    tag_444:\n        /* \"#utility.yul\":3959:3960   */\n      0x00\n        /* \"#utility.yul\":3984:4037   */\n      tag_446\n        /* \"#utility.yul\":4029:4036   */\n      dup7\n        /* \"#utility.yul\":4020:4026   */\n      dup3\n        /* \"#utility.yul\":4009:4018   */\n      dup8\n        /* \"#utility.yul\":4005:4027   */\n      add\n        /* \"#utility.yul\":3984:4037   */\n      tag_356\n      jump\t// in\n    tag_446:\n        /* \"#utility.yul\":3974:4037   */\n      swap4\n      pop\n        /* \"#utility.yul\":3930:4047   */\n      pop\n        /* \"#utility.yul\":4086:4088   */\n      0x20\n        /* \"#utility.yul\":4112:4165   */\n      tag_447\n        /* \"#utility.yul\":4157:4164   */\n      dup7\n        /* \"#utility.yul\":4148:4154   */\n      dup3\n        /* \"#utility.yul\":4137:4146   */\n      dup8\n        /* \"#utility.yul\":4133:4155   */\n      add\n        /* \"#utility.yul\":4112:4165   */\n      tag_356\n      jump\t// in\n    tag_447:\n        /* \"#utility.yul\":4102:4165   */\n      swap3\n      pop\n        /* \"#utility.yul\":4057:4175   */\n      pop\n        /* \"#utility.yul\":4214:4216   */\n      0x40\n        /* \"#utility.yul\":4240:4293   */\n      tag_448\n        /* \"#utility.yul\":4285:4292   */\n      dup7\n        /* \"#utility.yul\":4276:4282   */\n      dup3\n        /* \"#utility.yul\":4265:4274   */\n      dup8\n        /* \"#utility.yul\":4261:4283   */\n      add\n        /* \"#utility.yul\":4240:4293   */\n      tag_359\n      jump\t// in\n    tag_448:\n        /* \"#utility.yul\":4230:4293   */\n      swap2\n      pop\n        /* \"#utility.yul\":4185:4303   */\n      pop\n        /* \"#utility.yul\":3691:4310   */\n      swap3\n      pop\n      swap3\n      pop\n      swap3\n      jump\t// out\n        /* \"#utility.yul\":4316:4402   */\n    tag_363:\n        /* \"#utility.yul\":4351:4358   */\n      0x00\n        /* \"#utility.yul\":4391:4395   */\n      0xff\n        /* \"#utility.yul\":4384:4389   */\n      dup3\n        /* \"#utility.yul\":4380:4396   */\n      and\n        /* \"#utility.yul\":4369:4396   */\n      swap1\n      pop\n        /* \"#utility.yul\":4316:4402   */\n      swap2\n      swap1\n      pop\n      jump\t// out\n        /* \"#utility.yul\":4408:4520   */\n    tag_364:\n        /* \"#utility.yul\":4491:4513   */\n      tag_451\n        /* \"#utility.yul\":4507:4512   */\n      dup2\n        /* \"#utility.yul\":4491:4513   */\n      tag_363\n      jump\t// in\n    tag_451:\n        /* \"#utility.yul\":4486:4489   */\n      dup3\n        /* \"#utility.yul\":4479:4514   */\n      mstore\n        /* \"#utility.yul\":4408:4520   */\n      pop\n      pop\n      jump\t// out\n        /* \"#utility.yul\":4526:4740   */\n    tag_62:\n        /* \"#utility.yul\":4615:4619   */\n      0x00\n        /* \"#utility.yul\":4653:4655   */\n      0x20\n        /* \"#utility.yul\":4642:4651   */\n      dup3\n        /* \"#utility.yul\":4638:4656   */\n      add\n        /* \"#utility.yul\":4630:4656   */\n      swap1\n      pop\n        /* \"#utility.yul\":4666:4733   */\n      tag_453\n        /* \"#utility.yul\":4730:4731   */\n      0x00\n        /* \"#utility.yul\":4719:4728   */\n      dup4\n        /* \"#utility.yul\":4715:4732   */\n      add\n        /* \"#utility.yul\":4706:4712   */\n      dup5\n        /* \"#utility.yul\":4666:4733   */\n      tag_364\n      jump\t// in\n    tag_453:\n        /* \"#utility.yul\":4526:4740   */\n      swap3\n      swap2\n      pop\n      pop\n      jump\t// out\n        /* \"#utility.yul\":4746:5075   */\n    tag_67:\n        /* \"#utility.yul\":4805:4811   */\n      0x00\n        /* \"#utility.yul\":4854:4856   */\n      0x20\n        /* \"#utility.yul\":4842:4851   */\n      dup3\n        /* \"#utility.yul\":4833:4840   */\n      dup5\n        /* \"#utility.yul\":4829:4852   */\n      sub\n        /* \"#utility.yul\":4825:4857   */\n      slt\n        /* \"#utility.yul\":4822:4941   */\n      iszero\n      tag_455\n      jumpi\n        /* \"#utility.yul\":4860:4939   */\n      tag_456\n      tag_351\n      jump\t// in\n    tag_456:\n        /* \"#utility.yul\":4822:4941   */\n    tag_455:\n        /* \"#utility.yul\":4980:4981   */\n      0x00\n        /* \"#utility.yul\":5005:5058   */\n      tag_457\n        /* \"#utility.yul\":5050:5057   */\n      dup5\n        /* \"#utility.yul\":5041:5047   */\n      dup3\n        /* \"#utility.yul\":5030:5039   */\n      dup6\n        /* \"#utility.yul\":5026:5048   */\n      add\n        /* \"#utility.yul\":5005:5058   */\n      tag_359\n      jump\t// in\n    tag_457:\n        /* \"#utility.yul\":4995:5058   */\n      swap2\n      pop\n        /* \"#utility.yul\":4951:5068   */\n      pop\n        /* \"#utility.yul\":4746:5075   */\n      swap3\n      swap2\n      pop\n      pop\n      jump\t// out\n        /* \"#utility.yul\":5081:5198   */\n    tag_365:\n        /* \"#utility.yul\":5190:5191   */\n      0x00\n        /* \"#utility.yul\":5187:5188   */\n      dup1\n        /* \"#utility.yul\":5180:5192   */\n      revert\n        /* \"#utility.yul\":5204:5384   */\n    tag_366:\n        /* \"#utility.yul\":5252:5329   */\n      0x4e487b7100000000000000000000000000000000000000000000000000000000\n        /* \"#utility.yul\":5249:5250   */\n      0x00\n        /* \"#utility.yul\":5242:5330   */\n      mstore\n        /* \"#utility.yul\":5349:5353   */\n      0x41\n        /* \"#utility.yul\":5346:5347   */\n      0x04\n        /* \"#utility.yul\":5339:5354   */\n      mstore\n        /* \"#utility.yul\":5373:5377   */\n      0x24\n        /* \"#utility.yul\":5370:5371   */\n      0x00\n        /* \"#utility.yul\":5363:5378   */\n      revert\n        /* \"#utility.yul\":5390:5671   */\n    tag_367:\n        /* \"#utility.yul\":5473:5500   */\n      tag_461\n        /* \"#utility.yul\":5495:5499   */\n      dup3\n        /* \"#utility.yul\":5473:5500   */\n      tag_348\n      jump\t// in\n    tag_461:\n        /* \"#utility.yul\":5465:5471   */\n      dup2\n        /* \"#utility.yul\":5461:5501   */\n      add\n        /* \"#utility.yul\":5603:5609   */\n      dup2\n        /* \"#utility.yul\":5591:5601   */\n      dup2\n        /* \"#utility.yul\":5588:5610   */\n      lt\n        /* \"#utility.yul\":5567:5585   */\n      0xffffffffffffffff\n        /* \"#utility.yul\":5555:5565   */\n      dup3\n        /* \"#utility.yul\":5552:5586   */\n      gt\n        /* \"#utility.yul\":5549:5611   */\n      or\n        /* \"#utility.yul\":5546:5634   */\n      iszero\n      tag_462\n      jumpi\n        /* \"#utility.yul\":5614:5632   */\n      tag_463\n      tag_366\n      jump\t// in\n    tag_463:\n        /* \"#utility.yul\":5546:5634   */\n    tag_462:\n        /* \"#utility.yul\":5654:5664   */\n      dup1\n        /* \"#utility.yul\":5650:5652   */\n      0x40\n        /* \"#utility.yul\":5643:5665   */\n      mstore\n        /* \"#utility.yul\":5433:5671   */\n      pop\n        /* \"#utility.yul\":5390:5671   */\n      pop\n      pop\n      jump\t// out\n        /* \"#utility.yul\":5677:5806   */\n    tag_368:\n        /* \"#utility.yul\":5711:5717   */\n      0x00\n        /* \"#utility.yul\":5738:5758   */\n      tag_465\n      tag_350\n      jump\t// in\n    tag_465:\n        /* \"#utility.yul\":5728:5758   */\n      swap1\n      pop\n        /* \"#utility.yul\":5767:5800   */\n      tag_466\n        /* \"#utility.yul\":5795:5799   */\n      dup3\n        /* \"#utility.yul\":5787:5793   */\n      dup3\n        /* \"#utility.yul\":5767:5800   */\n      tag_367\n      jump\t// in\n    tag_466:\n        /* \"#utility.yul\":5677:5806   */\n      swap2\n      swap1\n      pop\n      jump\t// out\n        /* \"#utility.yul\":5812:6123   */\n    tag_369:\n        /* \"#utility.yul\":5889:5893   */\n      0x00\n        /* \"#utility.yul\":5979:5997   */\n      0xffffffffffffffff\n        /* \"#utility.yul\":5971:5977   */\n      dup3\n        /* \"#utility.yul\":5968:5998   */\n      gt\n        /* \"#utility.yul\":5965:6021   */\n      iszero\n      tag_468\n      jumpi\n        /* \"#utility.yul\":6001:6019   */\n      tag_469\n      tag_366\n      jump\t// in\n    tag_469:\n        /* \"#utility.yul\":5965:6021   */\n    tag_468:\n        /* \"#utility.yul\":6051:6055   */\n      0x20\n        /* \"#utility.yul\":6043:6049   */\n      dup3\n        /* \"#utility.yul\":6039:6056   */\n      mul\n        /* \"#utility.yul\":6031:6056   */\n      swap1\n      pop\n        /* \"#utility.yul\":6111:6115   */\n      0x20\n        /* \"#utility.yul\":6105:6109   */\n      dup2\n        /* \"#utility.yul\":6101:6116   */\n      add\n        /* \"#utility.yul\":6093:6116   */\n      swap1\n      pop\n        /* \"#utility.yul\":5812:6123   */\n      swap2\n      swap1\n      pop\n      jump\t// out\n        /* \"#utility.yul\":6129:6246   */\n    tag_370:\n        /* \"#utility.yul\":6238:6239   */\n      0x00\n        /* \"#utility.yul\":6235:6236   */\n      dup1\n        /* \"#utility.yul\":6228:6240   */\n      revert\n        /* \"#utility.yul\":6269:6979   */\n    tag_371:\n        /* \"#utility.yul\":6365:6370   */\n      0x00\n        /* \"#utility.yul\":6390:6471   */\n      tag_472\n        /* \"#utility.yul\":6406:6470   */\n      tag_473\n        /* \"#utility.yul\":6463:6469   */\n      dup5\n        /* \"#utility.yul\":6406:6470   */\n      tag_369\n      jump\t// in\n    tag_473:\n        /* \"#utility.yul\":6390:6471   */\n      tag_368\n      jump\t// in\n    tag_472:\n        /* \"#utility.yul\":6381:6471   */\n      swap1\n      pop\n        /* \"#utility.yul\":6491:6496   */\n      dup1\n        /* \"#utility.yul\":6520:6526   */\n      dup4\n        /* \"#utility.yul\":6513:6518   */\n      dup3\n        /* \"#utility.yul\":6506:6527   */\n      mstore\n        /* \"#utility.yul\":6554:6558   */\n      0x20\n        /* \"#utility.yul\":6547:6552   */\n      dup3\n        /* \"#utility.yul\":6543:6559   */\n      add\n        /* \"#utility.yul\":6536:6559   */\n      swap1\n      pop\n        /* \"#utility.yul\":6607:6611   */\n      0x20\n        /* \"#utility.yul\":6599:6605   */\n      dup5\n        /* \"#utility.yul\":6595:6612   */\n      mul\n        /* \"#utility.yul\":6587:6593   */\n      dup4\n        /* \"#utility.yul\":6583:6613   */\n      add\n        /* \"#utility.yul\":6636:6639   */\n      dup6\n        /* \"#utility.yul\":6628:6634   */\n      dup2\n        /* \"#utility.yul\":6625:6640   */\n      gt\n        /* \"#utility.yul\":6622:6744   */\n      iszero\n      tag_474\n      jumpi\n        /* \"#utility.yul\":6655:6734   */\n      tag_475\n      tag_370\n      jump\t// in\n    tag_475:\n        /* \"#utility.yul\":6622:6744   */\n    tag_474:\n        /* \"#utility.yul\":6770:6776   */\n      dup4\n        /* \"#utility.yul\":6753:6973   */\n    tag_476:\n        /* \"#utility.yul\":6787:6793   */\n      dup2\n        /* \"#utility.yul\":6782:6785   */\n      dup2\n        /* \"#utility.yul\":6779:6794   */\n      lt\n        /* \"#utility.yul\":6753:6973   */\n      iszero\n      tag_478\n      jumpi\n        /* \"#utility.yul\":6862:6865   */\n      dup1\n        /* \"#utility.yul\":6891:6928   */\n      tag_479\n        /* \"#utility.yul\":6924:6927   */\n      dup9\n        /* \"#utility.yul\":6912:6922   */\n      dup3\n        /* \"#utility.yul\":6891:6928   */\n      tag_359\n      jump\t// in\n    tag_479:\n        /* \"#utility.yul\":6886:6889   */\n      dup5\n        /* \"#utility.yul\":6879:6929   */\n      mstore\n        /* \"#utility.yul\":6958:6962   */\n      0x20\n        /* \"#utility.yul\":6953:6956   */\n      dup5\n        /* \"#utility.yul\":6949:6963   */\n      add\n        /* \"#utility.yul\":6942:6963   */\n      swap4\n      pop\n        /* \"#utility.yul\":6829:6973   */\n      pop\n        /* \"#utility.yul\":6813:6817   */\n      0x20\n        /* \"#utility.yul\":6808:6811   */\n      dup2\n        /* \"#utility.yul\":6804:6818   */\n      add\n        /* \"#utility.yul\":6797:6818   */\n      swap1\n      pop\n        /* \"#utility.yul\":6753:6973   */\n      jump(tag_476)\n    tag_478:\n        /* \"#utility.yul\":6757:6778   */\n      pop\n        /* \"#utility.yul\":6371:6979   */\n      pop\n      pop\n        /* \"#utility.yul\":6269:6979   */\n      swap4\n      swap3\n      pop\n      pop\n      pop\n      jump\t// out\n        /* \"#utility.yul\":7002:7372   */\n    tag_372:\n        /* \"#utility.yul\":7073:7078   */\n      0x00\n        /* \"#utility.yul\":7122:7125   */\n      dup3\n        /* \"#utility.yul\":7115:7119   */\n      0x1f\n        /* \"#utility.yul\":7107:7113   */\n      dup4\n        /* \"#utility.yul\":7103:7120   */\n      add\n        /* \"#utility.yul\":7099:7126   */\n      slt\n        /* \"#utility.yul\":7089:7211   */\n      tag_481\n      jumpi\n        /* \"#utility.yul\":7130:7209   */\n      tag_482\n      tag_365\n      jump\t// in\n    tag_482:\n        /* \"#utility.yul\":7089:7211   */\n    tag_481:\n        /* \"#utility.yul\":7247:7253   */\n      dup2\n        /* \"#utility.yul\":7234:7254   */\n      calldataload\n        /* \"#utility.yul\":7272:7366   */\n      tag_483\n        /* \"#utility.yul\":7362:7365   */\n      dup5\n        /* \"#utility.yul\":7354:7360   */\n      dup3\n        /* \"#utility.yul\":7347:7351   */\n      0x20\n        /* \"#utility.yul\":7339:7345   */\n      dup7\n        /* \"#utility.yul\":7335:7352   */\n      add\n        /* \"#utility.yul\":7272:7366   */\n      tag_371\n      jump\t// in\n    tag_483:\n        /* \"#utility.yul\":7263:7366   */\n      swap2\n      pop\n        /* \"#utility.yul\":7079:7372   */\n      pop\n        /* \"#utility.yul\":7002:7372   */\n      swap3\n      swap2\n      pop\n      pop\n      jump\t// out\n        /* \"#utility.yul\":7378:8207   */\n    tag_72:\n        /* \"#utility.yul\":7480:7486   */\n      0x00\n        /* \"#utility.yul\":7488:7494   */\n      dup1\n        /* \"#utility.yul\":7496:7502   */\n      0x00\n        /* \"#utility.yul\":7545:7547   */\n      0x60\n        /* \"#utility.yul\":7533:7542   */\n      dup5\n        /* \"#utility.yul\":7524:7531   */\n      dup7\n        /* \"#utility.yul\":7520:7543   */\n      sub\n        /* \"#utility.yul\":7516:7548   */\n      slt\n        /* \"#utility.yul\":7513:7632   */\n      iszero\n      tag_485\n      jumpi\n        /* \"#utility.yul\":7551:7630   */\n      tag_486\n      tag_351\n      jump\t// in\n    tag_486:\n        /* \"#utility.yul\":7513:7632   */\n    tag_485:\n        /* \"#utility.yul\":7671:7672   */\n      0x00\n        /* \"#utility.yul\":7696:7749   */\n      tag_487\n        /* \"#utility.yul\":7741:7748   */\n      dup7\n        /* \"#utility.yul\":7732:7738   */\n      dup3\n        /* \"#utility.yul\":7721:7730   */\n      dup8\n        /* \"#utility.yul\":7717:7739   */\n      add\n        /* \"#utility.yul\":7696:7749   */\n      tag_359\n      jump\t// in\n    tag_487:\n        /* \"#utility.yul\":7686:7749   */\n      swap4\n      pop\n        /* \"#utility.yul\":7642:7759   */\n      pop\n        /* \"#utility.yul\":7826:7828   */\n      0x20\n        /* \"#utility.yul\":7815:7824   */\n      dup5\n        /* \"#utility.yul\":7811:7829   */\n      add\n        /* \"#utility.yul\":7798:7830   */\n      calldataload\n        /* \"#utility.yul\":7857:7875   */\n      0xffffffffffffffff\n        /* \"#utility.yul\":7849:7855   */\n      dup2\n        /* \"#utility.yul\":7846:7876   */\n      gt\n        /* \"#utility.yul\":7843:7960   */\n      iszero\n      tag_488\n      jumpi\n        /* \"#utility.yul\":7879:7958   */\n      tag_489\n      tag_352\n      jump\t// in\n    tag_489:\n        /* \"#utility.yul\":7843:7960   */\n    tag_488:\n        /* \"#utility.yul\":7984:8062   */\n      tag_490\n        /* \"#utility.yul\":8054:8061   */\n      dup7\n        /* \"#utility.yul\":8045:8051   */\n      dup3\n        /* \"#utility.yul\":8034:8043   */\n      dup8\n        /* \"#utility.yul\":8030:8052   */\n      add\n        /* \"#utility.yul\":7984:8062   */\n      tag_372\n      jump\t// in\n    tag_490:\n        /* \"#utility.yul\":7974:8062   */\n      swap3\n      pop\n        /* \"#utility.yul\":7769:8072   */\n      pop\n        /* \"#utility.yul\":8111:8113   */\n      0x40\n        /* \"#utility.yul\":8137:8190   */\n      tag_491\n        /* \"#utility.yul\":8182:8189   */\n      dup7\n        /* \"#utility.yul\":8173:8179   */\n      dup3\n        /* \"#utility.yul\":8162:8171   */\n      dup8\n        /* \"#utility.yul\":8158:8180   */\n      add\n        /* \"#utility.yul\":8137:8190   */\n      tag_359\n      jump\t// in\n    tag_491:\n        /* \"#utility.yul\":8127:8190   */\n      swap2\n      pop\n        /* \"#utility.yul\":8082:8200   */\n      pop\n        /* \"#utility.yul\":7378:8207   */\n      swap3\n      pop\n      swap3\n      pop\n      swap3\n      jump\t// out\n        /* \"#utility.yul\":8213:8687   */\n    tag_76:\n        /* \"#utility.yul\":8281:8287   */\n      0x00\n        /* \"#utility.yul\":8289:8295   */\n      dup1\n        /* \"#utility.yul\":8338:8340   */\n      0x40\n        /* \"#utility.yul\":8326:8335   */\n      dup4\n        /* \"#utility.yul\":8317:8324   */\n      dup6\n        /* \"#utility.yul\":8313:8336   */\n      sub\n        /* \"#utility.yul\":8309:8341   */\n      slt\n        /* \"#utility.yul\":8306:8425   */\n      iszero\n      tag_493\n      jumpi\n        /* \"#utility.yul\":8344:8423   */\n      tag_494\n      tag_351\n      jump\t// in\n    tag_494:\n        /* \"#utility.yul\":8306:8425   */\n    tag_493:\n        /* \"#utility.yul\":8464:8465   */\n      0x00\n        /* \"#utility.yul\":8489:8542   */\n      tag_495\n        /* \"#utility.yul\":8534:8541   */\n      dup6\n        /* \"#utility.yul\":8525:8531   */\n      dup3\n        /* \"#utility.yul\":8514:8523   */\n      dup7\n        /* \"#utility.yul\":8510:8532   */\n      add\n        /* \"#utility.yul\":8489:8542   */\n      tag_359\n      jump\t// in\n    tag_495:\n        /* \"#utility.yul\":8479:8542   */\n      swap3\n      pop\n        /* \"#utility.yul\":8435:8552   */\n      pop\n        /* \"#utility.yul\":8591:8593   */\n      0x20\n        /* \"#utility.yul\":8617:8670   */\n      tag_496\n        /* \"#utility.yul\":8662:8669   */\n      dup6\n        /* \"#utility.yul\":8653:8659   */\n      dup3\n        /* \"#utility.yul\":8642:8651   */\n      dup7\n        /* \"#utility.yul\":8638:8660   */\n      add\n        /* \"#utility.yul\":8617:8670   */\n      tag_356\n      jump\t// in\n    tag_496:\n        /* \"#utility.yul\":8607:8670   */\n      swap2\n      pop\n        /* \"#utility.yul\":8562:8680   */\n      pop\n        /* \"#utility.yul\":8213:8687   */\n      swap3\n      pop\n      swap3\n      swap1\n      pop\n      jump\t// out\n        /* \"#utility.yul\":8693:9022   */\n    tag_87:\n        /* \"#utility.yul\":8752:8758   */\n      0x00\n        /* \"#utility.yul\":8801:8803   */\n      0x20\n        /* \"#utility.yul\":8789:8798   */\n      dup3\n        /* \"#utility.yul\":8780:8787   */\n      dup5\n        /* \"#utility.yul\":8776:8799   */\n      sub\n        /* \"#utility.yul\":8772:8804   */\n      slt\n        /* \"#utility.yul\":8769:8888   */\n      iszero\n      tag_498\n      jumpi\n        /* \"#utility.yul\":8807:8886   */\n      tag_499\n      tag_351\n      jump\t// in\n    tag_499:\n        /* \"#utility.yul\":8769:8888   */\n    tag_498:\n        /* \"#utility.yul\":8927:8928   */\n      0x00\n        /* \"#utility.yul\":8952:9005   */\n      tag_500\n        /* \"#utility.yul\":8997:9004   */\n      dup5\n        /* \"#utility.yul\":8988:8994   */\n      dup3\n        /* \"#utility.yul\":8977:8986   */\n      dup6\n        /* \"#utility.yul\":8973:8995   */\n      add\n        /* \"#utility.yul\":8952:9005   */\n      tag_356\n      jump\t// in\n    tag_500:\n        /* \"#utility.yul\":8942:9005   */\n      swap2\n      pop\n        /* \"#utility.yul\":8898:9015   */\n      pop\n        /* \"#utility.yul\":8693:9022   */\n      swap3\n      swap2\n      pop\n      pop\n      jump\t// out\n        /* \"#utility.yul\":9028:9146   */\n    tag_373:\n        /* \"#utility.yul\":9115:9139   */\n      tag_502\n        /* \"#utility.yul\":9133:9138   */\n      dup2\n        /* \"#utility.yul\":9115:9139   */\n      tag_354\n      jump\t// in\n    tag_502:\n        /* \"#utility.yul\":9110:9113   */\n      dup3\n        /* \"#utility.yul\":9103:9140   */\n      mstore\n        /* \"#utility.yul\":9028:9146   */\n      pop\n      pop\n      jump\t// out\n        /* \"#utility.yul\":9152:9374   */\n    tag_100:\n        /* \"#utility.yul\":9245:9249   */\n      0x00\n        /* \"#utility.yul\":9283:9285   */\n      0x20\n        /* \"#utility.yul\":9272:9281   */\n      dup3\n        /* \"#utility.yul\":9268:9286   */\n      add\n        /* \"#utility.yul\":9260:9286   */\n      swap1\n      pop\n        /* \"#utility.yul\":9296:9367   */\n      tag_504\n        /* \"#utility.yul\":9364:9365   */\n      0x00\n        /* \"#utility.yul\":9353:9362   */\n      dup4\n        /* \"#utility.yul\":9349:9366   */\n      add\n        /* \"#utility.yul\":9340:9346   */\n      dup5\n        /* \"#utility.yul\":9296:9367   */\n      tag_373\n      jump\t// in\n    tag_504:\n        /* \"#utility.yul\":9152:9374   */\n      swap3\n      swap2\n      pop\n      pop\n      jump\t// out\n        /* \"#utility.yul\":9380:9999   */\n    tag_105:\n        /* \"#utility.yul\":9457:9463   */\n      0x00\n        /* \"#utility.yul\":9465:9471   */\n      dup1\n        /* \"#utility.yul\":9473:9479   */\n      0x00\n        /* \"#utility.yul\":9522:9524   */\n      0x60\n        /* \"#utility.yul\":9510:9519   */\n      dup5\n        /* \"#utility.yul\":9501:9508   */\n      dup7\n        /* \"#utility.yul\":9497:9520   */\n      sub\n        /* \"#utility.yul\":9493:9525   */\n      slt\n        /* \"#utility.yul\":9490:9609   */\n      iszero\n      tag_506\n      jumpi\n        /* \"#utility.yul\":9528:9607   */\n      tag_507\n      tag_351\n      jump\t// in\n    tag_507:\n        /* \"#utility.yul\":9490:9609   */\n    tag_506:\n        /* \"#utility.yul\":9648:9649   */\n      0x00\n        /* \"#utility.yul\":9673:9726   */\n      tag_508\n        /* \"#utility.yul\":9718:9725   */\n      dup7\n        /* \"#utility.yul\":9709:9715   */\n      dup3\n        /* \"#utility.yul\":9698:9707   */\n      dup8\n        /* \"#utility.yul\":9694:9716   */\n      add\n        /* \"#utility.yul\":9673:9726   */\n      tag_359\n      jump\t// in\n    tag_508:\n        /* \"#utility.yul\":9663:9726   */\n      swap4\n      pop\n        /* \"#utility.yul\":9619:9736   */\n      pop\n        /* \"#utility.yul\":9775:9777   */\n      0x20\n        /* \"#utility.yul\":9801:9854   */\n      tag_509\n        /* \"#utility.yul\":9846:9853   */\n      dup7\n        /* \"#utility.yul\":9837:9843   */\n      dup3\n        /* \"#utility.yul\":9826:9835   */\n      dup8\n        /* \"#utility.yul\":9822:9844   */\n      add\n        /* \"#utility.yul\":9801:9854   */\n      tag_356\n      jump\t// in\n    tag_509:\n        /* \"#utility.yul\":9791:9854   */\n      swap3\n      pop\n        /* \"#utility.yul\":9746:9864   */\n      pop\n        /* \"#utility.yul\":9903:9905   */\n      0x40\n        /* \"#utility.yul\":9929:9982   */\n      tag_510\n        /* \"#utility.yul\":9974:9981   */\n      dup7\n        /* \"#utility.yul\":9965:9971   */\n      dup3\n        /* \"#utility.yul\":9954:9963   */\n      dup8\n        /* \"#utility.yul\":9950:9972   */\n      add\n        /* \"#utility.yul\":9929:9982   */\n      tag_359\n      jump\t// in\n    tag_510:\n        /* \"#utility.yul\":9919:9982   */\n      swap2\n      pop\n        /* \"#utility.yul\":9874:9992   */\n      pop\n        /* \"#utility.yul\":9380:9999   */\n      swap3\n      pop\n      swap3\n      pop\n      swap3\n      jump\t// out\n        /* \"#utility.yul\":10005:10337   */\n    tag_121:\n        /* \"#utility.yul\":10126:10130   */\n      0x00\n        /* \"#utility.yul\":10164:10166   */\n      0x40\n        /* \"#utility.yul\":10153:10162   */\n      dup3\n        /* \"#utility.yul\":10149:10167   */\n      add\n        /* \"#utility.yul\":10141:10167   */\n      swap1\n      pop\n        /* \"#utility.yul\":10177:10248   */\n      tag_512\n        /* \"#utility.yul\":10245:10246   */\n      0x00\n        /* \"#utility.yul\":10234:10243   */\n      dup4\n        /* \"#utility.yul\":10230:10247   */\n      add\n        /* \"#utility.yul\":10221:10227   */\n      dup6\n        /* \"#utility.yul\":10177:10248   */\n      tag_362\n      jump\t// in\n    tag_512:\n        /* \"#utility.yul\":10258:10330   */\n      tag_513\n        /* \"#utility.yul\":10326:10328   */\n      0x20\n        /* \"#utility.yul\":10315:10324   */\n      dup4\n        /* \"#utility.yul\":10311:10329   */\n      add\n        /* \"#utility.yul\":10302:10308   */\n      dup5\n        /* \"#utility.yul\":10258:10330   */\n      tag_362\n      jump\t// in\n    tag_513:\n        /* \"#utility.yul\":10005:10337   */\n      swap4\n      swap3\n      pop\n      pop\n      pop\n      jump\t// out\n        /* \"#utility.yul\":10343:10817   */\n    tag_139:\n        /* \"#utility.yul\":10411:10417   */\n      0x00\n        /* \"#utility.yul\":10419:10425   */\n      dup1\n        /* \"#utility.yul\":10468:10470   */\n      0x40\n        /* \"#utility.yul\":10456:10465   */\n      dup4\n        /* \"#utility.yul\":10447:10454   */\n      dup6\n        /* \"#utility.yul\":10443:10466   */\n      sub\n        /* \"#utility.yul\":10439:10471   */\n      slt\n        /* \"#utility.yul\":10436:10555   */\n      iszero\n      tag_515\n      jumpi\n        /* \"#utility.yul\":10474:10553   */\n      tag_516\n      tag_351\n      jump\t// in\n    tag_516:\n        /* \"#utility.yul\":10436:10555   */\n    tag_515:\n        /* \"#utility.yul\":10594:10595   */\n      0x00\n        /* \"#utility.yul\":10619:10672   */\n      tag_517\n        /* \"#utility.yul\":10664:10671   */\n      dup6\n        /* \"#utility.yul\":10655:10661   */\n      dup3\n        /* \"#utility.yul\":10644:10653   */\n      dup7\n        /* \"#utility.yul\":10640:10662   */\n      add\n        /* \"#utility.yul\":10619:10672   */\n      tag_356\n      jump\t// in\n    tag_517:\n        /* \"#utility.yul\":10609:10672   */\n      swap3\n      pop\n        /* \"#utility.yul\":10565:10682   */\n      pop\n        /* \"#utility.yul\":10721:10723   */\n      0x20\n        /* \"#utility.yul\":10747:10800   */\n      tag_518\n        /* \"#utility.yul\":10792:10799   */\n      dup6\n        /* \"#utility.yul\":10783:10789   */\n      dup3\n        /* \"#utility.yul\":10772:10781   */\n      dup7\n        /* \"#utility.yul\":10768:10790   */\n      add\n        /* \"#utility.yul\":10747:10800   */\n      tag_356\n      jump\t// in\n    tag_518:\n        /* \"#utility.yul\":10737:10800   */\n      swap2\n      pop\n        /* \"#utility.yul\":10692:10810   */\n      pop\n        /* \"#utility.yul\":10343:10817   */\n      swap3\n      pop\n      swap3\n      swap1\n      pop\n      jump\t// out\n        /* \"#utility.yul\":10823:10931   */\n    tag_374:\n        /* \"#utility.yul\":10900:10924   */\n      tag_520\n        /* \"#utility.yul\":10918:10923   */\n      dup2\n        /* \"#utility.yul\":10900:10924   */\n      tag_357\n      jump\t// in\n    tag_520:\n        /* \"#utility.yul\":10895:10898   */\n      dup3\n        /* \"#utility.yul\":10888:10925   */\n      mstore\n        /* \"#utility.yul\":10823:10931   */\n      pop\n      pop\n      jump\t// out\n        /* \"#utility.yul\":10937:11051   */\n    tag_375:\n        /* \"#utility.yul\":11004:11010   */\n      0x00\n        /* \"#utility.yul\":11038:11043   */\n      dup2\n        /* \"#utility.yul\":11032:11044   */\n      mload\n        /* \"#utility.yul\":11022:11044   */\n      swap1\n      pop\n        /* \"#utility.yul\":10937:11051   */\n      swap2\n      swap1\n      pop\n      jump\t// out\n        /* \"#utility.yul\":11057:11231   */\n    tag_376:\n        /* \"#utility.yul\":11146:11157   */\n      0x00\n        /* \"#utility.yul\":11180:11186   */\n      dup3\n        /* \"#utility.yul\":11175:11178   */\n      dup3\n        /* \"#utility.yul\":11168:11187   */\n      mstore\n        /* \"#utility.yul\":11220:11224   */\n      0x20\n        /* \"#utility.yul\":11215:11218   */\n      dup3\n        /* \"#utility.yul\":11211:11225   */\n      add\n        /* \"#utility.yul\":11196:11225   */\n      swap1\n      pop\n        /* \"#utility.yul\":11057:11231   */\n      swap3\n      swap2\n      pop\n      pop\n      jump\t// out\n        /* \"#utility.yul\":11237:11369   */\n    tag_377:\n        /* \"#utility.yul\":11304:11308   */\n      0x00\n        /* \"#utility.yul\":11327:11330   */\n      dup2\n        /* \"#utility.yul\":11319:11330   */\n      swap1\n      pop\n        /* \"#utility.yul\":11357:11361   */\n      0x20\n        /* \"#utility.yul\":11352:11355   */\n      dup3\n        /* \"#utility.yul\":11348:11362   */\n      add\n        /* \"#utility.yul\":11340:11362   */\n      swap1\n      pop\n        /* \"#utility.yul\":11237:11369   */\n      swap2\n      swap1\n      pop\n      jump\t// out\n        /* \"#utility.yul\":11375:11554   */\n    tag_378:\n        /* \"#utility.yul\":11444:11454   */\n      0x00\n        /* \"#utility.yul\":11465:11511   */\n      tag_525\n        /* \"#utility.yul\":11507:11510   */\n      dup4\n        /* \"#utility.yul\":11499:11505   */\n      dup4\n        /* \"#utility.yul\":11465:11511   */\n      tag_374\n      jump\t// in\n    tag_525:\n        /* \"#utility.yul\":11543:11547   */\n      0x20\n        /* \"#utility.yul\":11538:11541   */\n      dup4\n        /* \"#utility.yul\":11534:11548   */\n      add\n        /* \"#utility.yul\":11520:11548   */\n      swap1\n      pop\n        /* \"#utility.yul\":11375:11554   */\n      swap3\n      swap2\n      pop\n      pop\n      jump\t// out\n        /* \"#utility.yul\":11560:11673   */\n    tag_379:\n        /* \"#utility.yul\":11630:11634   */\n      0x00\n        /* \"#utility.yul\":11662:11666   */\n      0x20\n        /* \"#utility.yul\":11657:11660   */\n      dup3\n        /* \"#utility.yul\":11653:11667   */\n      add\n        /* \"#utility.yul\":11645:11667   */\n      swap1\n      pop\n        /* \"#utility.yul\":11560:11673   */\n      swap2\n      swap1\n      pop\n      jump\t// out\n        /* \"#utility.yul\":11709:12421   */\n    tag_380:\n        /* \"#utility.yul\":11818:11821   */\n      0x00\n        /* \"#utility.yul\":11847:11901   */\n      tag_528\n        /* \"#utility.yul\":11895:11900   */\n      dup3\n        /* \"#utility.yul\":11847:11901   */\n      tag_375\n      jump\t// in\n    tag_528:\n        /* \"#utility.yul\":11917:11993   */\n      tag_529\n        /* \"#utility.yul\":11986:11992   */\n      dup2\n        /* \"#utility.yul\":11981:11984   */\n      dup6\n        /* \"#utility.yul\":11917:11993   */\n      tag_376\n      jump\t// in\n    tag_529:\n        /* \"#utility.yul\":11910:11993   */\n      swap4\n      pop\n        /* \"#utility.yul\":12017:12073   */\n      tag_530\n        /* \"#utility.yul\":12067:12072   */\n      dup4\n        /* \"#utility.yul\":12017:12073   */\n      tag_377\n      jump\t// in\n    tag_530:\n        /* \"#utility.yul\":12096:12103   */\n      dup1\n        /* \"#utility.yul\":12127:12128   */\n      0x00\n        /* \"#utility.yul\":12112:12396   */\n    tag_531:\n        /* \"#utility.yul\":12137:12143   */\n      dup4\n        /* \"#utility.yul\":12134:12135   */\n      dup2\n        /* \"#utility.yul\":12131:12144   */\n      lt\n        /* \"#utility.yul\":12112:12396   */\n      iszero\n      tag_533\n      jumpi\n        /* \"#utility.yul\":12213:12219   */\n      dup2\n        /* \"#utility.yul\":12207:12220   */\n      mload\n        /* \"#utility.yul\":12240:12303   */\n      tag_534\n        /* \"#utility.yul\":12299:12302   */\n      dup9\n        /* \"#utility.yul\":12284:12297   */\n      dup3\n        /* \"#utility.yul\":12240:12303   */\n      tag_378\n      jump\t// in\n    tag_534:\n        /* \"#utility.yul\":12233:12303   */\n      swap8\n      pop\n        /* \"#utility.yul\":12326:12386   */\n      tag_535\n        /* \"#utility.yul\":12379:12385   */\n      dup4\n        /* \"#utility.yul\":12326:12386   */\n      tag_379\n      jump\t// in\n    tag_535:\n        /* \"#utility.yul\":12316:12386   */\n      swap3\n      pop\n        /* \"#utility.yul\":12172:12396   */\n      pop\n        /* \"#utility.yul\":12159:12160   */\n      0x01\n        /* \"#utility.yul\":12156:12157   */\n      dup2\n        /* \"#utility.yul\":12152:12161   */\n      add\n        /* \"#utility.yul\":12147:12161   */\n      swap1\n      pop\n        /* \"#utility.yul\":12112:12396   */\n      jump(tag_531)\n    tag_533:\n        /* \"#utility.yul\":12116:12130   */\n      pop\n        /* \"#utility.yul\":12412:12415   */\n      dup6\n        /* \"#utility.yul\":12405:12415   */\n      swap4\n      pop\n        /* \"#utility.yul\":11823:12421   */\n      pop\n      pop\n      pop\n        /* \"#utility.yul\":11709:12421   */\n      swap3\n      swap2\n      pop\n      pop\n      jump\t// out\n        /* \"#utility.yul\":12489:13325   */\n    tag_381:\n        /* \"#utility.yul\":12616:12619   */\n      0x00\n        /* \"#utility.yul\":12652:12656   */\n      0x60\n        /* \"#utility.yul\":12647:12650   */\n      dup4\n        /* \"#utility.yul\":12643:12657   */\n      add\n        /* \"#utility.yul\":12743:12747   */\n      0x00\n        /* \"#utility.yul\":12736:12741   */\n      dup4\n        /* \"#utility.yul\":12732:12748   */\n      add\n        /* \"#utility.yul\":12726:12749   */\n      mload\n        /* \"#utility.yul\":12762:12825   */\n      tag_537\n        /* \"#utility.yul\":12819:12823   */\n      0x00\n        /* \"#utility.yul\":12814:12817   */\n      dup7\n        /* \"#utility.yul\":12810:12824   */\n      add\n        /* \"#utility.yul\":12796:12808   */\n      dup3\n        /* \"#utility.yul\":12762:12825   */\n      tag_374\n      jump\t// in\n    tag_537:\n        /* \"#utility.yul\":12667:12835   */\n      pop\n        /* \"#utility.yul\":12924:12928   */\n      0x20\n        /* \"#utility.yul\":12917:12922   */\n      dup4\n        /* \"#utility.yul\":12913:12929   */\n      add\n        /* \"#utility.yul\":12907:12930   */\n      mload\n        /* \"#utility.yul\":12977:12980   */\n      dup5\n        /* \"#utility.yul\":12971:12975   */\n      dup3\n        /* \"#utility.yul\":12967:12981   */\n      sub\n        /* \"#utility.yul\":12960:12964   */\n      0x20\n        /* \"#utility.yul\":12955:12958   */\n      dup7\n        /* \"#utility.yul\":12951:12965   */\n      add\n        /* \"#utility.yul\":12944:12982   */\n      mstore\n        /* \"#utility.yul\":13003:13106   */\n      tag_538\n        /* \"#utility.yul\":13101:13105   */\n      dup3\n        /* \"#utility.yul\":13087:13099   */\n      dup3\n        /* \"#utility.yul\":13003:13106   */\n      tag_380\n      jump\t// in\n    tag_538:\n        /* \"#utility.yul\":12995:13106   */\n      swap2\n      pop\n        /* \"#utility.yul\":12845:13117   */\n      pop\n        /* \"#utility.yul\":13206:13210   */\n      0x40\n        /* \"#utility.yul\":13199:13204   */\n      dup4\n        /* \"#utility.yul\":13195:13211   */\n      add\n        /* \"#utility.yul\":13189:13212   */\n      mload\n        /* \"#utility.yul\":13225:13288   */\n      tag_539\n        /* \"#utility.yul\":13282:13286   */\n      0x40\n        /* \"#utility.yul\":13277:13280   */\n      dup7\n        /* \"#utility.yul\":13273:13287   */\n      add\n        /* \"#utility.yul\":13259:13271   */\n      dup3\n        /* \"#utility.yul\":13225:13288   */\n      tag_374\n      jump\t// in\n    tag_539:\n        /* \"#utility.yul\":13127:13298   */\n      pop\n        /* \"#utility.yul\":13315:13319   */\n      dup1\n        /* \"#utility.yul\":13308:13319   */\n      swap2\n      pop\n        /* \"#utility.yul\":12621:13325   */\n      pop\n        /* \"#utility.yul\":12489:13325   */\n      swap3\n      swap2\n      pop\n      pop\n      jump\t// out\n        /* \"#utility.yul\":13331:13720   */\n    tag_156:\n        /* \"#utility.yul\":13482:13486   */\n      0x00\n        /* \"#utility.yul\":13520:13522   */\n      0x20\n        /* \"#utility.yul\":13509:13518   */\n      dup3\n        /* \"#utility.yul\":13505:13523   */\n      add\n        /* \"#utility.yul\":13497:13523   */\n      swap1\n      pop\n        /* \"#utility.yul\":13569:13578   */\n      dup2\n        /* \"#utility.yul\":13563:13567   */\n      dup2\n        /* \"#utility.yul\":13559:13579   */\n      sub\n        /* \"#utility.yul\":13555:13556   */\n      0x00\n        /* \"#utility.yul\":13544:13553   */\n      dup4\n        /* \"#utility.yul\":13540:13557   */\n      add\n        /* \"#utility.yul\":13533:13580   */\n      mstore\n        /* \"#utility.yul\":13597:13713   */\n      tag_541\n        /* \"#utility.yul\":13708:13712   */\n      dup2\n        /* \"#utility.yul\":13699:13705   */\n      dup5\n        /* \"#utility.yul\":13597:13713   */\n      tag_381\n      jump\t// in\n    tag_541:\n        /* \"#utility.yul\":13589:13713   */\n      swap1\n      pop\n        /* \"#utility.yul\":13331:13720   */\n      swap3\n      swap2\n      pop\n      pop\n      jump\t// out\n        /* \"#utility.yul\":13726:13906   */\n    tag_382:\n        /* \"#utility.yul\":13774:13851   */\n      0x4e487b7100000000000000000000000000000000000000000000000000000000\n        /* \"#utility.yul\":13771:13772   */\n      0x00\n        /* \"#utility.yul\":13764:13852   */\n      mstore\n        /* \"#utility.yul\":13871:13875   */\n      0x22\n        /* \"#utility.yul\":13868:13869   */\n      0x04\n        /* \"#utility.yul\":13861:13876   */\n      mstore\n        /* \"#utility.yul\":13895:13899   */\n      0x24\n        /* \"#utility.yul\":13892:13893   */\n      0x00\n        /* \"#utility.yul\":13885:13900   */\n      revert\n        /* \"#utility.yul\":13912:14232   */\n    tag_159:\n        /* \"#utility.yul\":13956:13962   */\n      0x00\n        /* \"#utility.yul\":13993:13994   */\n      0x02\n        /* \"#utility.yul\":13987:13991   */\n      dup3\n        /* \"#utility.yul\":13983:13995   */\n      div\n        /* \"#utility.yul\":13973:13995   */\n      swap1\n      pop\n        /* \"#utility.yul\":14040:14041   */\n      0x01\n        /* \"#utility.yul\":14034:14038   */\n      dup3\n        /* \"#utility.yul\":14030:14042   */\n      and\n        /* \"#utility.yul\":14061:14079   */\n      dup1\n        /* \"#utility.yul\":14051:14132   */\n      tag_544\n      jumpi\n        /* \"#utility.yul\":14117:14121   */\n      0x7f\n        /* \"#utility.yul\":14109:14115   */\n      dup3\n        /* \"#utility.yul\":14105:14122   */\n      and\n        /* \"#utility.yul\":14095:14122   */\n      swap2\n      pop\n        /* \"#utility.yul\":14051:14132   */\n    tag_544:\n        /* \"#utility.yul\":14179:14181   */\n      0x20\n        /* \"#utility.yul\":14171:14177   */\n      dup3\n        /* \"#utility.yul\":14168:14182   */\n      lt\n        /* \"#utility.yul\":14148:14166   */\n      dup2\n        /* \"#utility.yul\":14145:14183   */\n      sub\n        /* \"#utility.yul\":14142:14226   */\n      tag_545\n      jumpi\n        /* \"#utility.yul\":14198:14216   */\n      tag_546\n      tag_382\n      jump\t// in\n    tag_546:\n        /* \"#utility.yul\":14142:14226   */\n    tag_545:\n        /* \"#utility.yul\":13963:14232   */\n      pop\n        /* \"#utility.yul\":13912:14232   */\n      swap2\n      swap1\n      pop\n      jump\t// out\n        /* \"#utility.yul\":14238:14409   */\n    tag_383:\n        /* \"#utility.yul\":14378:14401   */\n      0x496e76616c6964206f776e657220616464726573730000000000000000000000\n        /* \"#utility.yul\":14374:14375   */\n      0x00\n        /* \"#utility.yul\":14366:14372   */\n      dup3\n        /* \"#utility.yul\":14362:14376   */\n      add\n        /* \"#utility.yul\":14355:14402   */\n      mstore\n        /* \"#utility.yul\":14238:14409   */\n      pop\n      jump\t// out\n        /* \"#utility.yul\":14415:14781   */\n    tag_384:\n        /* \"#utility.yul\":14557:14560   */\n      0x00\n        /* \"#utility.yul\":14578:14645   */\n      tag_549\n        /* \"#utility.yul\":14642:14644   */\n      0x15\n        /* \"#utility.yul\":14637:14640   */\n      dup4\n        /* \"#utility.yul\":14578:14645   */\n      tag_346\n      jump\t// in\n    tag_549:\n        /* \"#utility.yul\":14571:14645   */\n      swap2\n      pop\n        /* \"#utility.yul\":14654:14747   */\n      tag_550\n        /* \"#utility.yul\":14743:14746   */\n      dup3\n        /* \"#utility.yul\":14654:14747   */\n      tag_383\n      jump\t// in\n    tag_550:\n        /* \"#utility.yul\":14772:14774   */\n      0x20\n        /* \"#utility.yul\":14767:14770   */\n      dup3\n        /* \"#utility.yul\":14763:14775   */\n      add\n        /* \"#utility.yul\":14756:14775   */\n      swap1\n      pop\n        /* \"#utility.yul\":14415:14781   */\n      swap2\n      swap1\n      pop\n      jump\t// out\n        /* \"#utility.yul\":14787:15206   */\n    tag_193:\n        /* \"#utility.yul\":14953:14957   */\n      0x00\n        /* \"#utility.yul\":14991:14993   */\n      0x20\n        /* \"#utility.yul\":14980:14989   */\n      dup3\n        /* \"#utility.yul\":14976:14994   */\n      add\n        /* \"#utility.yul\":14968:14994   */\n      swap1\n      pop\n        /* \"#utility.yul\":15040:15049   */\n      dup2\n        /* \"#utility.yul\":15034:15038   */\n      dup2\n        /* \"#utility.yul\":15030:15050   */\n      sub\n        /* \"#utility.yul\":15026:15027   */\n      0x00\n        /* \"#utility.yul\":15015:15024   */\n      dup4\n        /* \"#utility.yul\":15011:15028   */\n      add\n        /* \"#utility.yul\":15004:15051   */\n      mstore\n        /* \"#utility.yul\":15068:15199   */\n      tag_552\n        /* \"#utility.yul\":15194:15198   */\n      dup2\n        /* \"#utility.yul\":15068:15199   */\n      tag_384\n      jump\t// in\n    tag_552:\n        /* \"#utility.yul\":15060:15199   */\n      swap1\n      pop\n        /* \"#utility.yul\":14787:15206   */\n      swap2\n      swap1\n      pop\n      jump\t// out\n        /* \"#utility.yul\":15212:15387   */\n    tag_385:\n        /* \"#utility.yul\":15352:15379   */\n      0x496e76616c696420726563697069656e74206164647265737300000000000000\n        /* \"#utility.yul\":15348:15349   */\n      0x00\n        /* \"#utility.yul\":15340:15346   */\n      dup3\n        /* \"#utility.yul\":15336:15350   */\n      add\n        /* \"#utility.yul\":15329:15380   */\n      mstore\n        /* \"#utility.yul\":15212:15387   */\n      pop\n      jump\t// out\n        /* \"#utility.yul\":15393:15759   */\n    tag_386:\n        /* \"#utility.yul\":15535:15538   */\n      0x00\n        /* \"#utility.yul\":15556:15623   */\n      tag_555\n        /* \"#utility.yul\":15620:15622   */\n      0x19\n        /* \"#utility.yul\":15615:15618   */\n      dup4\n        /* \"#utility.yul\":15556:15623   */\n      tag_346\n      jump\t// in\n    tag_555:\n        /* \"#utility.yul\":15549:15623   */\n      swap2\n      pop\n        /* \"#utility.yul\":15632:15725   */\n      tag_556\n        /* \"#utility.yul\":15721:15724   */\n      dup3\n        /* \"#utility.yul\":15632:15725   */\n      tag_385\n      jump\t// in\n    tag_556:\n        /* \"#utility.yul\":15750:15752   */\n      0x20\n        /* \"#utility.yul\":15745:15748   */\n      dup3\n        /* \"#utility.yul\":15741:15753   */\n      add\n        /* \"#utility.yul\":15734:15753   */\n      swap1\n      pop\n        /* \"#utility.yul\":15393:15759   */\n      swap2\n      swap1\n      pop\n      jump\t// out\n        /* \"#utility.yul\":15765:16184   */\n    tag_214:\n        /* \"#utility.yul\":15931:15935   */\n      0x00\n        /* \"#utility.yul\":15969:15971   */\n      0x20\n        /* \"#utility.yul\":15958:15967   */\n      dup3\n        /* \"#utility.yul\":15954:15972   */\n      add\n        /* \"#utility.yul\":15946:15972   */\n      swap1\n      pop\n        /* \"#utility.yul\":16018:16027   */\n      dup2\n        /* \"#utility.yul\":16012:16016   */\n      dup2\n        /* \"#utility.yul\":16008:16028   */\n      sub\n        /* \"#utility.yul\":16004:16005   */\n      0x00\n        /* \"#utility.yul\":15993:16002   */\n      dup4\n        /* \"#utility.yul\":15989:16006   */\n      add\n        /* \"#utility.yul\":15982:16029   */\n      mstore\n        /* \"#utility.yul\":16046:16177   */\n      tag_558\n        /* \"#utility.yul\":16172:16176   */\n      dup2\n        /* \"#utility.yul\":16046:16177   */\n      tag_386\n      jump\t// in\n    tag_558:\n        /* \"#utility.yul\":16038:16177   */\n      swap1\n      pop\n        /* \"#utility.yul\":15765:16184   */\n      swap2\n      swap1\n      pop\n      jump\t// out\n        /* \"#utility.yul\":16190:16369   */\n    tag_387:\n        /* \"#utility.yul\":16330:16361   */\n      0x4e6f7420656e6f7567682073686172657320746f207472616e73666572000000\n        /* \"#utility.yul\":16326:16327   */\n      0x00\n        /* \"#utility.yul\":16318:16324   */\n      dup3\n        /* \"#utility.yul\":16314:16328   */\n      add\n        /* \"#utility.yul\":16307:16362   */\n      mstore\n        /* \"#utility.yul\":16190:16369   */\n      pop\n      jump\t// out\n        /* \"#utility.yul\":16375:16741   */\n    tag_388:\n        /* \"#utility.yul\":16517:16520   */\n      0x00\n        /* \"#utility.yul\":16538:16605   */\n      tag_561\n        /* \"#utility.yul\":16602:16604   */\n      0x1d\n        /* \"#utility.yul\":16597:16600   */\n      dup4\n        /* \"#utility.yul\":16538:16605   */\n      tag_346\n      jump\t// in\n    tag_561:\n        /* \"#utility.yul\":16531:16605   */\n      swap2\n      pop\n        /* \"#utility.yul\":16614:16707   */\n      tag_562\n        /* \"#utility.yul\":16703:16706   */\n      dup3\n        /* \"#utility.yul\":16614:16707   */\n      tag_387\n      jump\t// in\n    tag_562:\n        /* \"#utility.yul\":16732:16734   */\n      0x20\n        /* \"#utility.yul\":16727:16730   */\n      dup3\n        /* \"#utility.yul\":16723:16735   */\n      add\n        /* \"#utility.yul\":16716:16735   */\n      swap1\n      pop\n        /* \"#utility.yul\":16375:16741   */\n      swap2\n      swap1\n      pop\n      jump\t// out\n        /* \"#utility.yul\":16747:17166   */\n    tag_217:\n        /* \"#utility.yul\":16913:16917   */\n      0x00\n        /* \"#utility.yul\":16951:16953   */\n      0x20\n        /* \"#utility.yul\":16940:16949   */\n      dup3\n        /* \"#utility.yul\":16936:16954   */\n      add\n        /* \"#utility.yul\":16928:16954   */\n      swap1\n      pop\n        /* \"#utility.yul\":17000:17009   */\n      dup2\n        /* \"#utility.yul\":16994:16998   */\n      dup2\n        /* \"#utility.yul\":16990:17010   */\n      sub\n        /* \"#utility.yul\":16986:16987   */\n      0x00\n        /* \"#utility.yul\":16975:16984   */\n      dup4\n        /* \"#utility.yul\":16971:16988   */\n      add\n        /* \"#utility.yul\":16964:17011   */\n      mstore\n        /* \"#utility.yul\":17028:17159   */\n      tag_564\n        /* \"#utility.yul\":17154:17158   */\n      dup2\n        /* \"#utility.yul\":17028:17159   */\n      tag_388\n      jump\t// in\n    tag_564:\n        /* \"#utility.yul\":17020:17159   */\n      swap1\n      pop\n        /* \"#utility.yul\":16747:17166   */\n      swap2\n      swap1\n      pop\n      jump\t// out\n        /* \"#utility.yul\":17172:17352   */\n    tag_389:\n        /* \"#utility.yul\":17220:17297   */\n      0x4e487b7100000000000000000000000000000000000000000000000000000000\n        /* \"#utility.yul\":17217:17218   */\n      0x00\n        /* \"#utility.yul\":17210:17298   */\n      mstore\n        /* \"#utility.yul\":17317:17321   */\n      0x11\n        /* \"#utility.yul\":17314:17315   */\n      0x04\n        /* \"#utility.yul\":17307:17322   */\n      mstore\n        /* \"#utility.yul\":17341:17345   */\n      0x24\n        /* \"#utility.yul\":17338:17339   */\n      0x00\n        /* \"#utility.yul\":17331:17346   */\n      revert\n        /* \"#utility.yul\":17358:17552   */\n    tag_219:\n        /* \"#utility.yul\":17398:17402   */\n      0x00\n        /* \"#utility.yul\":17418:17438   */\n      tag_567\n        /* \"#utility.yul\":17436:17437   */\n      dup3\n        /* \"#utility.yul\":17418:17438   */\n      tag_357\n      jump\t// in\n    tag_567:\n        /* \"#utility.yul\":17413:17438   */\n      swap2\n      pop\n        /* \"#utility.yul\":17452:17472   */\n      tag_568\n        /* \"#utility.yul\":17470:17471   */\n      dup4\n        /* \"#utility.yul\":17452:17472   */\n      tag_357\n      jump\t// in\n    tag_568:\n        /* \"#utility.yul\":17447:17472   */\n      swap3\n      pop\n        /* \"#utility.yul\":17496:17497   */\n      dup3\n        /* \"#utility.yul\":17493:17494   */\n      dup3\n        /* \"#utility.yul\":17489:17498   */\n      sub\n        /* \"#utility.yul\":17481:17498   */\n      swap1\n      pop\n        /* \"#utility.yul\":17520:17521   */\n      dup2\n        /* \"#utility.yul\":17514:17518   */\n      dup2\n        /* \"#utility.yul\":17511:17522   */\n      gt\n        /* \"#utility.yul\":17508:17545   */\n      iszero\n      tag_569\n      jumpi\n        /* \"#utility.yul\":17525:17543   */\n      tag_570\n      tag_389\n      jump\t// in\n    tag_570:\n        /* \"#utility.yul\":17508:17545   */\n    tag_569:\n        /* \"#utility.yul\":17358:17552   */\n      swap3\n      swap2\n      pop\n      pop\n      jump\t// out\n        /* \"#utility.yul\":17558:17749   */\n    tag_221:\n        /* \"#utility.yul\":17598:17601   */\n      0x00\n        /* \"#utility.yul\":17617:17637   */\n      tag_572\n        /* \"#utility.yul\":17635:17636   */\n      dup3\n        /* \"#utility.yul\":17617:17637   */\n      tag_357\n      jump\t// in\n    tag_572:\n        /* \"#utility.yul\":17612:17637   */\n      swap2\n      pop\n        /* \"#utility.yul\":17651:17671   */\n      tag_573\n        /* \"#utility.yul\":17669:17670   */\n      dup4\n        /* \"#utility.yul\":17651:17671   */\n      tag_357\n      jump\t// in\n    tag_573:\n        /* \"#utility.yul\":17646:17671   */\n      swap3\n      pop\n        /* \"#utility.yul\":17694:17695   */\n      dup3\n        /* \"#utility.yul\":17691:17692   */\n      dup3\n        /* \"#utility.yul\":17687:17696   */\n      add\n        /* \"#utility.yul\":17680:17696   */\n      swap1\n      pop\n        /* \"#utility.yul\":17715:17718   */\n      dup1\n        /* \"#utility.yul\":17712:17713   */\n      dup3\n        /* \"#utility.yul\":17709:17719   */\n      gt\n        /* \"#utility.yul\":17706:17742   */\n      iszero\n      tag_574\n      jumpi\n        /* \"#utility.yul\":17722:17740   */\n      tag_575\n      tag_389\n      jump\t// in\n    tag_575:\n        /* \"#utility.yul\":17706:17742   */\n    tag_574:\n        /* \"#utility.yul\":17558:17749   */\n      swap3\n      swap2\n      pop\n      pop\n      jump\t// out\n        /* \"#utility.yul\":17755:17934   */\n    tag_390:\n        /* \"#utility.yul\":17895:17926   */\n      0x536861726573206d7573742062652067726561746572207468616e2030000000\n        /* \"#utility.yul\":17891:17892   */\n      0x00\n        /* \"#utility.yul\":17883:17889   */\n      dup3\n        /* \"#utility.yul\":17879:17893   */\n      add\n        /* \"#utility.yul\":17872:17927   */\n      mstore\n        /* \"#utility.yul\":17755:17934   */\n      pop\n      jump\t// out\n        /* \"#utility.yul\":17940:18306   */\n    tag_391:\n        /* \"#utility.yul\":18082:18085   */\n      0x00\n        /* \"#utility.yul\":18103:18170   */\n      tag_578\n        /* \"#utility.yul\":18167:18169   */\n      0x1d\n        /* \"#utility.yul\":18162:18165   */\n      dup4\n        /* \"#utility.yul\":18103:18170   */\n      tag_346\n      jump\t// in\n    tag_578:\n        /* \"#utility.yul\":18096:18170   */\n      swap2\n      pop\n        /* \"#utility.yul\":18179:18272   */\n      tag_579\n        /* \"#utility.yul\":18268:18271   */\n      dup3\n        /* \"#utility.yul\":18179:18272   */\n      tag_390\n      jump\t// in\n    tag_579:\n        /* \"#utility.yul\":18297:18299   */\n      0x20\n        /* \"#utility.yul\":18292:18295   */\n      dup3\n        /* \"#utility.yul\":18288:18300   */\n      add\n        /* \"#utility.yul\":18281:18300   */\n      swap1\n      pop\n        /* \"#utility.yul\":17940:18306   */\n      swap2\n      swap1\n      pop\n      jump\t// out\n        /* \"#utility.yul\":18312:18731   */\n    tag_241:\n        /* \"#utility.yul\":18478:18482   */\n      0x00\n        /* \"#utility.yul\":18516:18518   */\n      0x20\n        /* \"#utility.yul\":18505:18514   */\n      dup3\n        /* \"#utility.yul\":18501:18519   */\n      add\n        /* \"#utility.yul\":18493:18519   */\n      swap1\n      pop\n        /* \"#utility.yul\":18565:18574   */\n      dup2\n        /* \"#utility.yul\":18559:18563   */\n      dup2\n        /* \"#utility.yul\":18555:18575   */\n      sub\n        /* \"#utility.yul\":18551:18552   */\n      0x00\n        /* \"#utility.yul\":18540:18549   */\n      dup4\n        /* \"#utility.yul\":18536:18553   */\n      add\n        /* \"#utility.yul\":18529:18576   */\n      mstore\n        /* \"#utility.yul\":18593:18724   */\n      tag_581\n        /* \"#utility.yul\":18719:18723   */\n      dup2\n        /* \"#utility.yul\":18593:18724   */\n      tag_391\n      jump\t// in\n    tag_581:\n        /* \"#utility.yul\":18585:18724   */\n      swap1\n      pop\n        /* \"#utility.yul\":18312:18731   */\n      swap2\n      swap1\n      pop\n      jump\t// out\n        /* \"#utility.yul\":18737:18914   */\n    tag_392:\n        /* \"#utility.yul\":18877:18906   */\n      0x4e6f7420656e6f7567682073686172657320617661696c61626c650000000000\n        /* \"#utility.yul\":18873:18874   */\n      0x00\n        /* \"#utility.yul\":18865:18871   */\n      dup3\n        /* \"#utility.yul\":18861:18875   */\n      add\n        /* \"#utility.yul\":18854:18907   */\n      mstore\n        /* \"#utility.yul\":18737:18914   */\n      pop\n      jump\t// out\n        /* \"#utility.yul\":18920:19286   */\n    tag_393:\n        /* \"#utility.yul\":19062:19065   */\n      0x00\n        /* \"#utility.yul\":19083:19150   */\n      tag_584\n        /* \"#utility.yul\":19147:19149   */\n      0x1b\n        /* \"#utility.yul\":19142:19145   */\n      dup4\n        /* \"#utility.yul\":19083:19150   */\n      tag_346\n      jump\t// in\n    tag_584:\n        /* \"#utility.yul\":19076:19150   */\n      swap2\n      pop\n        /* \"#utility.yul\":19159:19252   */\n      tag_585\n        /* \"#utility.yul\":19248:19251   */\n      dup3\n        /* \"#utility.yul\":19159:19252   */\n      tag_392\n      jump\t// in\n    tag_585:\n        /* \"#utility.yul\":19277:19279   */\n      0x20\n        /* \"#utility.yul\":19272:19275   */\n      dup3\n        /* \"#utility.yul\":19268:19280   */\n      add\n        /* \"#utility.yul\":19261:19280   */\n      swap1\n      pop\n        /* \"#utility.yul\":18920:19286   */\n      swap2\n      swap1\n      pop\n      jump\t// out\n        /* \"#utility.yul\":19292:19711   */\n    tag_244:\n        /* \"#utility.yul\":19458:19462   */\n      0x00\n        /* \"#utility.yul\":19496:19498   */\n      0x20\n        /* \"#utility.yul\":19485:19494   */\n      dup3\n        /* \"#utility.yul\":19481:19499   */\n      add\n        /* \"#utility.yul\":19473:19499   */\n      swap1\n      pop\n        /* \"#utility.yul\":19545:19554   */\n      dup2\n        /* \"#utility.yul\":19539:19543   */\n      dup2\n        /* \"#utility.yul\":19535:19555   */\n      sub\n        /* \"#utility.yul\":19531:19532   */\n      0x00\n        /* \"#utility.yul\":19520:19529   */\n      dup4\n        /* \"#utility.yul\":19516:19533   */\n      add\n        /* \"#utility.yul\":19509:19556   */\n      mstore\n        /* \"#utility.yul\":19573:19704   */\n      tag_587\n        /* \"#utility.yul\":19699:19703   */\n      dup2\n        /* \"#utility.yul\":19573:19704   */\n      tag_393\n      jump\t// in\n    tag_587:\n        /* \"#utility.yul\":19565:19704   */\n      swap1\n      pop\n        /* \"#utility.yul\":19292:19711   */\n      swap2\n      swap1\n      pop\n      jump\t// out\n        /* \"#utility.yul\":19717:19896   */\n    tag_394:\n        /* \"#utility.yul\":19857:19888   */\n      0x496e73756666696369656e742073686172657320617661696c61626c65000000\n        /* \"#utility.yul\":19853:19854   */\n      0x00\n        /* \"#utility.yul\":19845:19851   */\n      dup3\n        /* \"#utility.yul\":19841:19855   */\n      add\n        /* \"#utility.yul\":19834:19889   */\n      mstore\n        /* \"#utility.yul\":19717:19896   */\n      pop\n      jump\t// out\n        /* \"#utility.yul\":19902:20268   */\n    tag_395:\n        /* \"#utility.yul\":20044:20047   */\n      0x00\n        /* \"#utility.yul\":20065:20132   */\n      tag_590\n        /* \"#utility.yul\":20129:20131   */\n      0x1d\n        /* \"#utility.yul\":20124:20127   */\n      dup4\n        /* \"#utility.yul\":20065:20132   */\n      tag_346\n      jump\t// in\n    tag_590:\n        /* \"#utility.yul\":20058:20132   */\n      swap2\n      pop\n        /* \"#utility.yul\":20141:20234   */\n      tag_591\n        /* \"#utility.yul\":20230:20233   */\n      dup3\n        /* \"#utility.yul\":20141:20234   */\n      tag_394\n      jump\t// in\n    tag_591:\n        /* \"#utility.yul\":20259:20261   */\n      0x20\n        /* \"#utility.yul\":20254:20257   */\n      dup3\n        /* \"#utility.yul\":20250:20262   */\n      add\n        /* \"#utility.yul\":20243:20262   */\n      swap1\n      pop\n        /* \"#utility.yul\":19902:20268   */\n      swap2\n      swap1\n      pop\n      jump\t// out\n        /* \"#utility.yul\":20274:20693   */\n    tag_256:\n        /* \"#utility.yul\":20440:20444   */\n      0x00\n        /* \"#utility.yul\":20478:20480   */\n      0x20\n        /* \"#utility.yul\":20467:20476   */\n      dup3\n        /* \"#utility.yul\":20463:20481   */\n      add\n        /* \"#utility.yul\":20455:20481   */\n      swap1\n      pop\n        /* \"#utility.yul\":20527:20536   */\n      dup2\n        /* \"#utility.yul\":20521:20525   */\n      dup2\n        /* \"#utility.yul\":20517:20537   */\n      sub\n        /* \"#utility.yul\":20513:20514   */\n      0x00\n        /* \"#utility.yul\":20502:20511   */\n      dup4\n        /* \"#utility.yul\":20498:20515   */\n      add\n        /* \"#utility.yul\":20491:20538   */\n      mstore\n        /* \"#utility.yul\":20555:20686   */\n      tag_593\n        /* \"#utility.yul\":20681:20685   */\n      dup2\n        /* \"#utility.yul\":20555:20686   */\n      tag_395\n      jump\t// in\n    tag_593:\n        /* \"#utility.yul\":20547:20686   */\n      swap1\n      pop\n        /* \"#utility.yul\":20274:20693   */\n      swap2\n      swap1\n      pop\n      jump\t// out\n        /* \"#utility.yul\":20699:21141   */\n    tag_281:\n        /* \"#utility.yul\":20848:20852   */\n      0x00\n        /* \"#utility.yul\":20886:20888   */\n      0x60\n        /* \"#utility.yul\":20875:20884   */\n      dup3\n        /* \"#utility.yul\":20871:20889   */\n      add\n        /* \"#utility.yul\":20863:20889   */\n      swap1\n      pop\n        /* \"#utility.yul\":20899:20970   */\n      tag_595\n        /* \"#utility.yul\":20967:20968   */\n      0x00\n        /* \"#utility.yul\":20956:20965   */\n      dup4\n        /* \"#utility.yul\":20952:20969   */\n      add\n        /* \"#utility.yul\":20943:20949   */\n      dup7\n        /* \"#utility.yul\":20899:20970   */\n      tag_373\n      jump\t// in\n    tag_595:\n        /* \"#utility.yul\":20980:21052   */\n      tag_596\n        /* \"#utility.yul\":21048:21050   */\n      0x20\n        /* \"#utility.yul\":21037:21046   */\n      dup4\n        /* \"#utility.yul\":21033:21051   */\n      add\n        /* \"#utility.yul\":21024:21030   */\n      dup6\n        /* \"#utility.yul\":20980:21052   */\n      tag_362\n      jump\t// in\n    tag_596:\n        /* \"#utility.yul\":21062:21134   */\n      tag_597\n        /* \"#utility.yul\":21130:21132   */\n      0x40\n        /* \"#utility.yul\":21119:21128   */\n      dup4\n        /* \"#utility.yul\":21115:21133   */\n      add\n        /* \"#utility.yul\":21106:21112   */\n      dup5\n        /* \"#utility.yul\":21062:21134   */\n      tag_362\n      jump\t// in\n    tag_597:\n        /* \"#utility.yul\":20699:21141   */\n      swap5\n      swap4\n      pop\n      pop\n      pop\n      pop\n      jump\t// out\n        /* \"#utility.yul\":21147:21313   */\n    tag_396:\n        /* \"#utility.yul\":21287:21305   */\n      0x5061757361626c653a2070617573656400000000000000000000000000000000\n        /* \"#utility.yul\":21283:21284   */\n      0x00\n        /* \"#utility.yul\":21275:21281   */\n      dup3\n        /* \"#utility.yul\":21271:21285   */\n      add\n        /* \"#utility.yul\":21264:21306   */\n      mstore\n        /* \"#utility.yul\":21147:21313   */\n      pop\n      jump\t// out\n        /* \"#utility.yul\":21319:21685   */\n    tag_397:\n        /* \"#utility.yul\":21461:21464   */\n      0x00\n        /* \"#utility.yul\":21482:21549   */\n      tag_600\n        /* \"#utility.yul\":21546:21548   */\n      0x10\n        /* \"#utility.yul\":21541:21544   */\n      dup4\n        /* \"#utility.yul\":21482:21549   */\n      tag_346\n      jump\t// in\n    tag_600:\n        /* \"#utility.yul\":21475:21549   */\n      swap2\n      pop\n        /* \"#utility.yul\":21558:21651   */\n      tag_601\n        /* \"#utility.yul\":21647:21650   */\n      dup3\n        /* \"#utility.yul\":21558:21651   */\n      tag_396\n      jump\t// in\n    tag_601:\n        /* \"#utility.yul\":21676:21678   */\n      0x20\n        /* \"#utility.yul\":21671:21674   */\n      dup3\n        /* \"#utility.yul\":21667:21679   */\n      add\n        /* \"#utility.yul\":21660:21679   */\n      swap1\n      pop\n        /* \"#utility.yul\":21319:21685   */\n      swap2\n      swap1\n      pop\n      jump\t// out\n        /* \"#utility.yul\":21691:22110   */\n    tag_312:\n        /* \"#utility.yul\":21857:21861   */\n      0x00\n        /* \"#utility.yul\":21895:21897   */\n      0x20\n        /* \"#utility.yul\":21884:21893   */\n      dup3\n        /* \"#utility.yul\":21880:21898   */\n      add\n        /* \"#utility.yul\":21872:21898   */\n      swap1\n      pop\n        /* \"#utility.yul\":21944:21953   */\n      dup2\n        /* \"#utility.yul\":21938:21942   */\n      dup2\n        /* \"#utility.yul\":21934:21954   */\n      sub\n        /* \"#utility.yul\":21930:21931   */\n      0x00\n        /* \"#utility.yul\":21919:21928   */\n      dup4\n        /* \"#utility.yul\":21915:21932   */\n      add\n        /* \"#utility.yul\":21908:21955   */\n      mstore\n        /* \"#utility.yul\":21972:22103   */\n      tag_603\n        /* \"#utility.yul\":22098:22102   */\n      dup2\n        /* \"#utility.yul\":21972:22103   */\n      tag_397\n      jump\t// in\n    tag_603:\n        /* \"#utility.yul\":21964:22103   */\n      swap1\n      pop\n        /* \"#utility.yul\":21691:22110   */\n      swap2\n      swap1\n      pop\n      jump\t// out\n        /* \"#utility.yul\":22116:22286   */\n    tag_398:\n        /* \"#utility.yul\":22256:22278   */\n      0x5061757361626c653a206e6f7420706175736564000000000000000000000000\n        /* \"#utility.yul\":22252:22253   */\n      0x00\n        /* \"#utility.yul\":22244:22250   */\n      dup3\n        /* \"#utility.yul\":22240:22254   */\n      add\n        /* \"#utility.yul\":22233:22279   */\n      mstore\n        /* \"#utility.yul\":22116:22286   */\n      pop\n      jump\t// out\n        /* \"#utility.yul\":22292:22658   */\n    tag_399:\n        /* \"#utility.yul\":22434:22437   */\n      0x00\n        /* \"#utility.yul\":22455:22522   */\n      tag_606\n        /* \"#utility.yul\":22519:22521   */\n      0x14\n        /* \"#utility.yul\":22514:22517   */\n      dup4\n        /* \"#utility.yul\":22455:22522   */\n      tag_346\n      jump\t// in\n    tag_606:\n        /* \"#utility.yul\":22448:22522   */\n      swap2\n      pop\n        /* \"#utility.yul\":22531:22624   */\n      tag_607\n        /* \"#utility.yul\":22620:22623   */\n      dup3\n        /* \"#utility.yul\":22531:22624   */\n      tag_398\n      jump\t// in\n    tag_607:\n        /* \"#utility.yul\":22649:22651   */\n      0x20\n        /* \"#utility.yul\":22644:22647   */\n      dup3\n        /* \"#utility.yul\":22640:22652   */\n      add\n        /* \"#utility.yul\":22633:22652   */\n      swap1\n      pop\n        /* \"#utility.yul\":22292:22658   */\n      swap2\n      swap1\n      pop\n      jump\t// out\n        /* \"#utility.yul\":22664:23083   */\n    tag_337:\n        /* \"#utility.yul\":22830:22834   */\n      0x00\n        /* \"#utility.yul\":22868:22870   */\n      0x20\n        /* \"#utility.yul\":22857:22866   */\n      dup3\n        /* \"#utility.yul\":22853:22871   */\n      add\n        /* \"#utility.yul\":22845:22871   */\n      swap1\n      pop\n        /* \"#utility.yul\":22917:22926   */\n      dup2\n        /* \"#utility.yul\":22911:22915   */\n      dup2\n        /* \"#utility.yul\":22907:22927   */\n      sub\n        /* \"#utility.yul\":22903:22904   */\n      0x00\n        /* \"#utility.yul\":22892:22901   */\n      dup4\n        /* \"#utility.yul\":22888:22905   */\n      add\n        /* \"#utility.yul\":22881:22928   */\n      mstore\n        /* \"#utility.yul\":22945:23076   */\n      tag_609\n        /* \"#utility.yul\":23071:23075   */\n      dup2\n        /* \"#utility.yul\":22945:23076   */\n      tag_399\n      jump\t// in\n    tag_609:\n        /* \"#utility.yul\":22937:23076   */\n      swap1\n      pop\n        /* \"#utility.yul\":22664:23083   */\n      swap2\n      swap1\n      pop\n      jump\t// out\n\n    auxdata: 0xa26469706673582212208a3288be81ac17034bbe1af1db02ba6a69e546275e1d6032a6813f487d83739364736f6c634300081a0033\n}\n",
				"bytecode": {
					"linkReferences": {},
					"object": "608060405234801561000f575f80fd5b50336040518060400160405280600d81526020017f50726f70657274795368617265000000000000000000000000000000000000008152506040518060400160405280600581526020017f5348415245000000000000000000000000000000000000000000000000000000815250816003908161008c919061043b565b50806004908161009c919061043b565b5050505f73ffffffffffffffffffffffffffffffffffffffff168173ffffffffffffffffffffffffffffffffffffffff160361010f575f6040517f1e4fbdf70000000000000000000000000000000000000000000000000000000081526004016101069190610549565b60405180910390fd5b61011e8161013e60201b60201c565b505f600560146101000a81548160ff021916908315150217905550610562565b5f60055f9054906101000a900473ffffffffffffffffffffffffffffffffffffffff1690508160055f6101000a81548173ffffffffffffffffffffffffffffffffffffffff021916908373ffffffffffffffffffffffffffffffffffffffff1602179055508173ffffffffffffffffffffffffffffffffffffffff168173ffffffffffffffffffffffffffffffffffffffff167f8be0079c531659141344cd1fd0a4f28419497f9722a3daafe3b4186f6b6457e060405160405180910390a35050565b5f81519050919050565b7f4e487b71000000000000000000000000000000000000000000000000000000005f52604160045260245ffd5b7f4e487b71000000000000000000000000000000000000000000000000000000005f52602260045260245ffd5b5f600282049050600182168061027c57607f821691505b60208210810361028f5761028e610238565b5b50919050565b5f819050815f5260205f209050919050565b5f6020601f8301049050919050565b5f82821b905092915050565b5f600883026102f17fffffffffffffffffffffffffffffffffffffffffffffffffffffffffffffffff826102b6565b6102fb86836102b6565b95508019841693508086168417925050509392505050565b5f819050919050565b5f819050919050565b5f61033f61033a61033584610313565b61031c565b610313565b9050919050565b5f819050919050565b61035883610325565b61036c61036482610346565b8484546102c2565b825550505050565b5f90565b610380610374565b61038b81848461034f565b505050565b5b818110156103ae576103a35f82610378565b600181019050610391565b5050565b601f8211156103f3576103c481610295565b6103cd846102a7565b810160208510156103dc578190505b6103f06103e8856102a7565b830182610390565b50505b505050565b5f82821c905092915050565b5f6104135f19846008026103f8565b1980831691505092915050565b5f61042b8383610404565b9150826002028217905092915050565b61044482610201565b67ffffffffffffffff81111561045d5761045c61020b565b5b6104678254610265565b6104728282856103b2565b5f60209050601f8311600181146104a3575f8415610491578287015190505b61049b8582610420565b865550610502565b601f1984166104b186610295565b5f5b828110156104d8578489015182556001820191506020850194506020810190506104b3565b868310156104f557848901516104f1601f891682610404565b8355505b6001600288020188555050505b505050505050565b5f73ffffffffffffffffffffffffffffffffffffffff82169050919050565b5f6105338261050a565b9050919050565b61054381610529565b82525050565b5f60208201905061055c5f83018461053a565b92915050565b6125738061056f5f395ff3fe608060405234801561000f575f80fd5b50600436106101d8575f3560e01c80638456cb5911610102578063b543cf38116100a0578063dd8aa6f61161006f578063dd8aa6f614610590578063e34fc531146105ac578063f2fde38b146105dc578063ff03e8c2146105f8576101d8565b8063b543cf38146104e3578063b7b551ed146104ff578063dcd9d12d14610530578063dd62ed3e14610560576101d8565b80638da5cb5b116100dc5780638da5cb5b1461044657806395d89b4114610464578063a60ed37414610482578063a9059cbb146104b3576101d8565b80638456cb59146103f057806384b9a6e6146103fa57806385fff85814610416576101d8565b806351111b721161017a57806370a082311161014957806370a0823114610356578063715018a61461038657806375c0b9fe146103905780637f2af083146103c0576101d8565b806351111b72146102d05780635813a683146102ec5780635c975abb146103085780635dfe772114610326576101d8565b806323b872dd116101b657806323b872dd14610248578063313ce567146102785780633f4ba83a146102965780634885cf0a146102a0576101d8565b806306fdde03146101dc578063095ea7b3146101fa57806318160ddd1461022a575b5f80fd5b6101e4610628565b6040516101f19190611abc565b60405180910390f35b610214600480360381019061020f9190611b7a565b6106b8565b6040516102219190611bd2565b60405180910390f35b6102326106da565b60405161023f9190611bfa565b60405180910390f35b610262600480360381019061025d9190611c13565b6106e3565b60405161026f9190611bd2565b60405180910390f35b610280610711565b60405161028d9190611c7e565b60405180910390f35b61029e610719565b005b6102ba60048036038101906102b59190611c97565b61072b565b6040516102c79190611bfa565b60405180910390f35b6102ea60048036038101906102e59190611e02565b610740565b005b61030660048036038101906103019190611e6e565b6107c1565b005b61031061088a565b60405161031d9190611bd2565b60405180910390f35b610340600480360381019061033b9190611c97565b6108a0565b60405161034d9190611bd2565b60405180910390f35b610370600480360381019061036b9190611eac565b6108aa565b60405161037d9190611bfa565b60405180910390f35b61038e6108ef565b005b6103aa60048036038101906103a59190611e6e565b610902565b6040516103b79190611bfa565b60405180910390f35b6103da60048036038101906103d59190611c97565b61095b565b6040516103e79190611ee6565b60405180910390f35b6103f861098b565b005b610414600480360381019061040f9190611eff565b61099d565b005b610430600480360381019061042b9190611c97565b610bd0565b60405161043d9190611bfa565b60405180910390f35b61044e610bec565b60405161045b9190611ee6565b60405180910390f35b61046c610c14565b6040516104799190611abc565b60405180910390f35b61049c60048036038101906104979190611c97565b610ca4565b6040516104aa929190611f4f565b60405180910390f35b6104cd60048036038101906104c89190611b7a565b610cc4565b6040516104da9190611bd2565b60405180910390f35b6104fd60048036038101906104f89190611eff565b610ce6565b005b61051960048036038101906105149190611c97565b610e81565b604051610527929190611f4f565b60405180910390f35b61054a60048036038101906105459190611c97565b610ea1565b6040516105579190611bfa565b60405180910390f35b61057a60048036038101906105759190611f76565b610ebe565b6040516105879190611bfa565b60405180910390f35b6105aa60048036038101906105a59190611eff565b610f40565b005b6105c660048036038101906105c19190611c97565b610fd2565b6040516105d39190611ee6565b60405180910390f35b6105f660048036038101906105f19190611eac565b61100b565b005b610612600480360381019061060d9190611c97565b61108f565b60405161061f91906120b8565b60405180910390f35b60606003805461063790612105565b80601f016020809104026020016040519081016040528092919081815260200182805461066390612105565b80156106ae5780601f10610685576101008083540402835291602001916106ae565b820191905f5260205f20905b81548152906001019060200180831161069157829003601f168201915b5050505050905090565b5f806106c2611123565b90506106cf81858561112a565b600191505092915050565b5f600254905090565b5f806106ed611123565b90506106fa85828561113c565b6107058585856111ce565b60019150509392505050565b5f6012905090565b6107216112be565b610729611345565b565b6007602052805f5260405f205f915090505481565b6107486112be565b60405180606001604052808481526020018381526020018281525060065f8581526020019081526020015f205f820151815f015560208201518160010190805190602001906107989291906119c7565b50604082015181600201559050508060075f8581526020019081526020015f2081905550505050565b6107c96112be565b5f73ffffffffffffffffffffffffffffffffffffffff168173ffffffffffffffffffffffffffffffffffffffff1603610837576040517f08c379a000000000000000000000000000000000000000000000000000000000815260040161082e9061217f565b60405180910390fd5b8060095f8481526020019081526020015f205f6101000a81548173ffffffffffffffffffffffffffffffffffffffff021916908373ffffffffffffffffffffffffffffffffffffffff1602179055505050565b5f600560149054906101000a900460ff16905090565b5f60019050919050565b5f805f8373ffffffffffffffffffffffffffffffffffffffff1673ffffffffffffffffffffffffffffffffffffffff1681526020019081526020015f20549050919050565b6108f76112be565b6109005f6113a7565b565b5f60085f8481526020019081526020015f206002015f8373ffffffffffffffffffffffffffffffffffffffff1673ffffffffffffffffffffffffffffffffffffffff1681526020019081526020015f2054905092915050565b6009602052805f5260405f205f915054906101000a900473ffffffffffffffffffffffffffffffffffffffff1681565b6109936112be565b61099b61146a565b565b6109a56114cd565b5f73ffffffffffffffffffffffffffffffffffffffff168273ffffffffffffffffffffffffffffffffffffffff1603610a13576040517f08c379a0000000000000000000000000000000000000000000000000000000008152600401610a0a906121e7565b60405180910390fd5b8060085f8581526020019081526020015f206002015f3373ffffffffffffffffffffffffffffffffffffffff1673ffffffffffffffffffffffffffffffffffffffff1681526020019081526020015f20541015610aa5576040517f08c379a0000000000000000000000000000000000000000000000000000000008152600401610a9c9061224f565b60405180910390fd5b5f60085f8581526020019081526020015f20905081816002015f3373ffffffffffffffffffffffffffffffffffffffff1673ffffffffffffffffffffffffffffffffffffffff1681526020019081526020015f205f828254610b07919061229a565b9250508190555081816002015f8573ffffffffffffffffffffffffffffffffffffffff1673ffffffffffffffffffffffffffffffffffffffff1681526020019081526020015f205f828254610b5c91906122cd565b925050819055508273ffffffffffffffffffffffffffffffffffffffff163373ffffffffffffffffffffffffffffffffffffffff167f1ba44e8b79687fed555749cae6dcccf9bc5df37a2739fbc73062f07b534cf03e8685604051610bc2929190611f4f565b60405180910390a350505050565b5f60085f8381526020019081526020015f205f01549050919050565b5f60055f9054906101000a900473ffffffffffffffffffffffffffffffffffffffff16905090565b606060048054610c2390612105565b80601f0160208091040260200160405190810160405280929190818152602001828054610c4f90612105565b8015610c9a5780601f10610c7157610100808354040283529160200191610c9a565b820191905f5260205f20905b815481529060010190602001808311610c7d57829003601f168201915b5050505050905090565b6006602052805f5260405f205f91509050805f0154908060020154905082565b5f80610cce611123565b9050610cdb8185856111ce565b600191505092915050565b610cee6112be565b610cf66114cd565b5f8111610d38576040517f08c379a0000000000000000000000000000000000000000000000000000000008152600401610d2f9061234a565b60405180910390fd5b8060085f8581526020019081526020015f20600101541015610d8f576040517f08c379a0000000000000000000000000000000000000000000000000000000008152600401610d86906123b2565b60405180910390fd5b5f60085f8581526020019081526020015f20905081815f015f828254610db591906122cd565b9250508190555081816001015f828254610dcf919061229a565b9250508190555081816002015f8573ffffffffffffffffffffffffffffffffffffffff1673ffffffffffffffffffffffffffffffffffffffff1681526020019081526020015f205f828254610e2491906122cd565b925050819055508273ffffffffffffffffffffffffffffffffffffffff167f6b3332210c2263e1008f810d148fc1c61a002c8f5dfcf18fe06858064bc49e698584604051610e73929190611f4f565b60405180910390a250505050565b6008602052805f5260405f205f91509050805f0154908060010154905082565b5f60085f8381526020019081526020015f20600101549050919050565b5f60015f8473ffffffffffffffffffffffffffffffffffffffff1673ffffffffffffffffffffffffffffffffffffffff1681526020019081526020015f205f8373ffffffffffffffffffffffffffffffffffffffff1673ffffffffffffffffffffffffffffffffffffffff1681526020019081526020015f2054905092915050565b610f486112be565b8060075f8581526020019081526020015f20541015610f9c576040517f08c379a0000000000000000000000000000000000000000000000000000000008152600401610f939061241a565b60405180910390fd5b610fa68282611517565b8060075f8581526020019081526020015f205f828254610fc6919061229a565b92505081905550505050565b5f60095f8381526020019081526020015f205f9054906101000a900473ffffffffffffffffffffffffffffffffffffffff169050919050565b6110136112be565b5f73ffffffffffffffffffffffffffffffffffffffff168173ffffffffffffffffffffffffffffffffffffffff1603611083575f6040517f1e4fbdf700000000000000000000000000000000000000000000000000000000815260040161107a9190611ee6565b60405180910390fd5b61108c816113a7565b50565b611097611a12565b60065f8381526020019081526020015f206040518060600160405290815f82015481526020016001820180548060200260200160405190810160405280929190818152602001828054801561110957602002820191905f5260205f20905b8154815260200190600101908083116110f5575b505050505081526020016002820154815250509050919050565b5f33905090565b6111378383836001611596565b505050565b5f6111478484610ebe565b90507fffffffffffffffffffffffffffffffffffffffffffffffffffffffffffffffff81146111c857818110156111b9578281836040517ffb8f41b20000000000000000000000000000000000000000000000000000000081526004016111b093929190612438565b60405180910390fd5b6111c784848484035f611596565b5b50505050565b5f73ffffffffffffffffffffffffffffffffffffffff168373ffffffffffffffffffffffffffffffffffffffff160361123e575f6040517f96c6fd1e0000000000000000000000000000000000000000000000000000000081526004016112359190611ee6565b60405180910390fd5b5f73ffffffffffffffffffffffffffffffffffffffff168273ffffffffffffffffffffffffffffffffffffffff16036112ae575f6040517fec442f050000000000000000000000000000000000000000000000000000000081526004016112a59190611ee6565b60405180910390fd5b6112b9838383611765565b505050565b6112c6611123565b73ffffffffffffffffffffffffffffffffffffffff166112e4610bec565b73ffffffffffffffffffffffffffffffffffffffff161461134357611307611123565b6040517f118cdaa700000000000000000000000000000000000000000000000000000000815260040161133a9190611ee6565b60405180910390fd5b565b61134d61197e565b5f600560146101000a81548160ff0219169083151502179055507f5db9ee0a495bf2e6ff9c91a7834c1ba4fdd244a5e8aa4e537bd38aeae4b073aa611390611123565b60405161139d9190611ee6565b60405180910390a1565b5f60055f9054906101000a900473ffffffffffffffffffffffffffffffffffffffff1690508160055f6101000a81548173ffffffffffffffffffffffffffffffffffffffff021916908373ffffffffffffffffffffffffffffffffffffffff1602179055508173ffffffffffffffffffffffffffffffffffffffff168173ffffffffffffffffffffffffffffffffffffffff167f8be0079c531659141344cd1fd0a4f28419497f9722a3daafe3b4186f6b6457e060405160405180910390a35050565b6114726114cd565b6001600560146101000a81548160ff0219169083151502179055507f62e78cea01bee320cd4e420270b5ea74000d11b0c9f74754ebdbfc544b05a2586114b6611123565b6040516114c39190611ee6565b60405180910390a1565b6114d561088a565b15611515576040517f08c379a000000000000000000000000000000000000000000000000000000000815260040161150c906124b7565b60405180910390fd5b565b5f73ffffffffffffffffffffffffffffffffffffffff168273ffffffffffffffffffffffffffffffffffffffff1603611587575f6040517fec442f0500000000000000000000000000000000000000000000000000000000815260040161157e9190611ee6565b60405180910390fd5b6115925f8383611765565b5050565b5f73ffffffffffffffffffffffffffffffffffffffff168473ffffffffffffffffffffffffffffffffffffffff1603611606575f6040517fe602df050000000000000000000000000000000000000000000000000000000081526004016115fd9190611ee6565b60405180910390fd5b5f73ffffffffffffffffffffffffffffffffffffffff168373ffffffffffffffffffffffffffffffffffffffff1603611676575f6040517f94280d6200000000000000000000000000000000000000000000000000000000815260040161166d9190611ee6565b60405180910390fd5b8160015f8673ffffffffffffffffffffffffffffffffffffffff1673ffffffffffffffffffffffffffffffffffffffff1681526020019081526020015f205f8573ffffffffffffffffffffffffffffffffffffffff1673ffffffffffffffffffffffffffffffffffffffff1681526020019081526020015f2081905550801561175f578273ffffffffffffffffffffffffffffffffffffffff168473ffffffffffffffffffffffffffffffffffffffff167f8c5be1e5ebec7d5bd14f71427d1e84f3dd0314c0f7b2291e5b200ac8c7c3b925846040516117569190611bfa565b60405180910390a35b50505050565b5f73ffffffffffffffffffffffffffffffffffffffff168373ffffffffffffffffffffffffffffffffffffffff16036117b5578060025f8282546117a991906122cd565b92505081905550611883565b5f805f8573ffffffffffffffffffffffffffffffffffffffff1673ffffffffffffffffffffffffffffffffffffffff1681526020019081526020015f205490508181101561183e578381836040517fe450d38c00000000000000000000000000000000000000000000000000000000815260040161183593929190612438565b60405180910390fd5b8181035f808673ffffffffffffffffffffffffffffffffffffffff1673ffffffffffffffffffffffffffffffffffffffff1681526020019081526020015f2081905550505b5f73ffffffffffffffffffffffffffffffffffffffff168273ffffffffffffffffffffffffffffffffffffffff16036118ca578060025f8282540392505081905550611914565b805f808473ffffffffffffffffffffffffffffffffffffffff1673ffffffffffffffffffffffffffffffffffffffff1681526020019081526020015f205f82825401925050819055505b8173ffffffffffffffffffffffffffffffffffffffff168373ffffffffffffffffffffffffffffffffffffffff167fddf252ad1be2c89b69c2b068fc378daa952ba7f163c4a11628f55a4df523b3ef836040516119719190611bfa565b60405180910390a3505050565b61198661088a565b6119c5576040517f08c379a00000000000000000000000000000000000000000000000000000000081526004016119bc9061251f565b60405180910390fd5b565b828054828255905f5260205f20908101928215611a01579160200282015b82811115611a005782518255916020019190600101906119e5565b5b509050611a0e9190611a31565b5090565b60405180606001604052805f8152602001606081526020015f81525090565b5b80821115611a48575f815f905550600101611a32565b5090565b5f81519050919050565b5f82825260208201905092915050565b8281835e5f83830152505050565b5f601f19601f8301169050919050565b5f611a8e82611a4c565b611a988185611a56565b9350611aa8818560208601611a66565b611ab181611a74565b840191505092915050565b5f6020820190508181035f830152611ad48184611a84565b905092915050565b5f604051905090565b5f80fd5b5f80fd5b5f73ffffffffffffffffffffffffffffffffffffffff82169050919050565b5f611b1682611aed565b9050919050565b611b2681611b0c565b8114611b30575f80fd5b50565b5f81359050611b4181611b1d565b92915050565b5f819050919050565b611b5981611b47565b8114611b63575f80fd5b50565b5f81359050611b7481611b50565b92915050565b5f8060408385031215611b9057611b8f611ae5565b5b5f611b9d85828601611b33565b9250506020611bae85828601611b66565b9150509250929050565b5f8115159050919050565b611bcc81611bb8565b82525050565b5f602082019050611be55f830184611bc3565b92915050565b611bf481611b47565b82525050565b5f602082019050611c0d5f830184611beb565b92915050565b5f805f60608486031215611c2a57611c29611ae5565b5b5f611c3786828701611b33565b9350506020611c4886828701611b33565b9250506040611c5986828701611b66565b9150509250925092565b5f60ff82169050919050565b611c7881611c63565b82525050565b5f602082019050611c915f830184611c6f565b92915050565b5f60208284031215611cac57611cab611ae5565b5b5f611cb984828501611b66565b91505092915050565b5f80fd5b7f4e487b71000000000000000000000000000000000000000000000000000000005f52604160045260245ffd5b611cfc82611a74565b810181811067ffffffffffffffff82111715611d1b57611d1a611cc6565b5b80604052505050565b5f611d2d611adc565b9050611d398282611cf3565b919050565b5f67ffffffffffffffff821115611d5857611d57611cc6565b5b602082029050602081019050919050565b5f80fd5b5f611d7f611d7a84611d3e565b611d24565b90508083825260208201905060208402830185811115611da257611da1611d69565b5b835b81811015611dcb5780611db78882611b66565b845260208401935050602081019050611da4565b5050509392505050565b5f82601f830112611de957611de8611cc2565b5b8135611df9848260208601611d6d565b91505092915050565b5f805f60608486031215611e1957611e18611ae5565b5b5f611e2686828701611b66565b935050602084013567ffffffffffffffff811115611e4757611e46611ae9565b5b611e5386828701611dd5565b9250506040611e6486828701611b66565b9150509250925092565b5f8060408385031215611e8457611e83611ae5565b5b5f611e9185828601611b66565b9250506020611ea285828601611b33565b9150509250929050565b5f60208284031215611ec157611ec0611ae5565b5b5f611ece84828501611b33565b91505092915050565b611ee081611b0c565b82525050565b5f602082019050611ef95f830184611ed7565b92915050565b5f805f60608486031215611f1657611f15611ae5565b5b5f611f2386828701611b66565b9350506020611f3486828701611b33565b9250506040611f4586828701611b66565b9150509250925092565b5f604082019050611f625f830185611beb565b611f6f6020830184611beb565b9392505050565b5f8060408385031215611f8c57611f8b611ae5565b5b5f611f9985828601611b33565b9250506020611faa85828601611b33565b9150509250929050565b611fbd81611b47565b82525050565b5f81519050919050565b5f82825260208201905092915050565b5f819050602082019050919050565b5f611ff78383611fb4565b60208301905092915050565b5f602082019050919050565b5f61201982611fc3565b6120238185611fcd565b935061202e83611fdd565b805f5b8381101561205e5781516120458882611fec565b975061205083612003565b925050600181019050612031565b5085935050505092915050565b5f606083015f8301516120805f860182611fb4565b5060208301518482036020860152612098828261200f565b91505060408301516120ad6040860182611fb4565b508091505092915050565b5f6020820190508181035f8301526120d0818461206b565b905092915050565b7f4e487b71000000000000000000000000000000000000000000000000000000005f52602260045260245ffd5b5f600282049050600182168061211c57607f821691505b60208210810361212f5761212e6120d8565b5b50919050565b7f496e76616c6964206f776e6572206164647265737300000000000000000000005f82015250565b5f612169601583611a56565b915061217482612135565b602082019050919050565b5f6020820190508181035f8301526121968161215d565b9050919050565b7f496e76616c696420726563697069656e742061646472657373000000000000005f82015250565b5f6121d1601983611a56565b91506121dc8261219d565b602082019050919050565b5f6020820190508181035f8301526121fe816121c5565b9050919050565b7f4e6f7420656e6f7567682073686172657320746f207472616e736665720000005f82015250565b5f612239601d83611a56565b915061224482612205565b602082019050919050565b5f6020820190508181035f8301526122668161222d565b9050919050565b7f4e487b71000000000000000000000000000000000000000000000000000000005f52601160045260245ffd5b5f6122a482611b47565b91506122af83611b47565b92508282039050818111156122c7576122c661226d565b5b92915050565b5f6122d782611b47565b91506122e283611b47565b92508282019050808211156122fa576122f961226d565b5b92915050565b7f536861726573206d7573742062652067726561746572207468616e20300000005f82015250565b5f612334601d83611a56565b915061233f82612300565b602082019050919050565b5f6020820190508181035f83015261236181612328565b9050919050565b7f4e6f7420656e6f7567682073686172657320617661696c61626c6500000000005f82015250565b5f61239c601b83611a56565b91506123a782612368565b602082019050919050565b5f6020820190508181035f8301526123c981612390565b9050919050565b7f496e73756666696369656e742073686172657320617661696c61626c650000005f82015250565b5f612404601d83611a56565b915061240f826123d0565b602082019050919050565b5f6020820190508181035f830152612431816123f8565b9050919050565b5f60608201905061244b5f830186611ed7565b6124586020830185611beb565b6124656040830184611beb565b949350505050565b7f5061757361626c653a20706175736564000000000000000000000000000000005f82015250565b5f6124a1601083611a56565b91506124ac8261246d565b602082019050919050565b5f6020820190508181035f8301526124ce81612495565b9050919050565b7f5061757361626c653a206e6f74207061757365640000000000000000000000005f82015250565b5f612509601483611a56565b9150612514826124d5565b602082019050919050565b5f6020820190508181035f830152612536816124fd565b905091905056fea26469706673582212208a3288be81ac17034bbe1af1db02ba6a69e546275e1d6032a6813f487d83739364736f6c634300081a0033",
					"opcodes": "PUSH1 0x80 PUSH1 0x40 MSTORE CALLVALUE DUP1 ISZERO PUSH2 0xF JUMPI PUSH0 DUP1 REVERT JUMPDEST POP CALLER PUSH1 0x40 MLOAD DUP1 PUSH1 0x40 ADD PUSH1 0x40 MSTORE DUP1 PUSH1 0xD DUP2 MSTORE PUSH1 0x20 ADD PUSH32 0x50726F7065727479536861726500000000000000000000000000000000000000 DUP2 MSTORE POP PUSH1 0x40 MLOAD DUP1 PUSH1 0x40 ADD PUSH1 0x40 MSTORE DUP1 PUSH1 0x5 DUP2 MSTORE PUSH1 0x20 ADD PUSH32 0x5348415245000000000000000000000000000000000000000000000000000000 DUP2 MSTORE POP DUP2 PUSH1 0x3 SWAP1 DUP2 PUSH2 0x8C SWAP2 SWAP1 PUSH2 0x43B JUMP JUMPDEST POP DUP1 PUSH1 0x4 SWAP1 DUP2 PUSH2 0x9C SWAP2 SWAP1 PUSH2 0x43B JUMP JUMPDEST POP POP POP PUSH0 PUSH20 0xFFFFFFFFFFFFFFFFFFFFFFFFFFFFFFFFFFFFFFFF AND DUP2 PUSH20 0xFFFFFFFFFFFFFFFFFFFFFFFFFFFFFFFFFFFFFFFF AND SUB PUSH2 0x10F JUMPI PUSH0 PUSH1 0x40 MLOAD PUSH32 0x1E4FBDF700000000000000000000000000000000000000000000000000000000 DUP2 MSTORE PUSH1 0x4 ADD PUSH2 0x106 SWAP2 SWAP1 PUSH2 0x549 JUMP JUMPDEST PUSH1 0x40 MLOAD DUP1 SWAP2 SUB SWAP1 REVERT JUMPDEST PUSH2 0x11E DUP2 PUSH2 0x13E PUSH1 0x20 SHL PUSH1 0x20 SHR JUMP JUMPDEST POP PUSH0 PUSH1 0x5 PUSH1 0x14 PUSH2 0x100 EXP DUP2 SLOAD DUP2 PUSH1 0xFF MUL NOT AND SWAP1 DUP4 ISZERO ISZERO MUL OR SWAP1 SSTORE POP PUSH2 0x562 JUMP JUMPDEST PUSH0 PUSH1 0x5 PUSH0 SWAP1 SLOAD SWAP1 PUSH2 0x100 EXP SWAP1 DIV PUSH20 0xFFFFFFFFFFFFFFFFFFFFFFFFFFFFFFFFFFFFFFFF AND SWAP1 POP DUP2 PUSH1 0x5 PUSH0 PUSH2 0x100 EXP DUP2 SLOAD DUP2 PUSH20 0xFFFFFFFFFFFFFFFFFFFFFFFFFFFFFFFFFFFFFFFF MUL NOT AND SWAP1 DUP4 PUSH20 0xFFFFFFFFFFFFFFFFFFFFFFFFFFFFFFFFFFFFFFFF AND MUL OR SWAP1 SSTORE POP DUP2 PUSH20 0xFFFFFFFFFFFFFFFFFFFFFFFFFFFFFFFFFFFFFFFF AND DUP2 PUSH20 0xFFFFFFFFFFFFFFFFFFFFFFFFFFFFFFFFFFFFFFFF AND PUSH32 0x8BE0079C531659141344CD1FD0A4F28419497F9722A3DAAFE3B4186F6B6457E0 PUSH1 0x40 MLOAD PUSH1 0x40 MLOAD DUP1 SWAP2 SUB SWAP1 LOG3 POP POP JUMP JUMPDEST PUSH0 DUP2 MLOAD SWAP1 POP SWAP2 SWAP1 POP JUMP JUMPDEST PUSH32 0x4E487B7100000000000000000000000000000000000000000000000000000000 PUSH0 MSTORE PUSH1 0x41 PUSH1 0x4 MSTORE PUSH1 0x24 PUSH0 REVERT JUMPDEST PUSH32 0x4E487B7100000000000000000000000000000000000000000000000000000000 PUSH0 MSTORE PUSH1 0x22 PUSH1 0x4 MSTORE PUSH1 0x24 PUSH0 REVERT JUMPDEST PUSH0 PUSH1 0x2 DUP3 DIV SWAP1 POP PUSH1 0x1 DUP3 AND DUP1 PUSH2 0x27C JUMPI PUSH1 0x7F DUP3 AND SWAP2 POP JUMPDEST PUSH1 0x20 DUP3 LT DUP2 SUB PUSH2 0x28F JUMPI PUSH2 0x28E PUSH2 0x238 JUMP JUMPDEST JUMPDEST POP SWAP2 SWAP1 POP JUMP JUMPDEST PUSH0 DUP2 SWAP1 POP DUP2 PUSH0 MSTORE PUSH1 0x20 PUSH0 KECCAK256 SWAP1 POP SWAP2 SWAP1 POP JUMP JUMPDEST PUSH0 PUSH1 0x20 PUSH1 0x1F DUP4 ADD DIV SWAP1 POP SWAP2 SWAP1 POP JUMP JUMPDEST PUSH0 DUP3 DUP3 SHL SWAP1 POP SWAP3 SWAP2 POP POP JUMP JUMPDEST PUSH0 PUSH1 0x8 DUP4 MUL PUSH2 0x2F1 PUSH32 0xFFFFFFFFFFFFFFFFFFFFFFFFFFFFFFFFFFFFFFFFFFFFFFFFFFFFFFFFFFFFFFFF DUP3 PUSH2 0x2B6 JUMP JUMPDEST PUSH2 0x2FB DUP7 DUP4 PUSH2 0x2B6 JUMP JUMPDEST SWAP6 POP DUP1 NOT DUP5 AND SWAP4 POP DUP1 DUP7 AND DUP5 OR SWAP3 POP POP POP SWAP4 SWAP3 POP POP POP JUMP JUMPDEST PUSH0 DUP2 SWAP1 POP SWAP2 SWAP1 POP JUMP JUMPDEST PUSH0 DUP2 SWAP1 POP SWAP2 SWAP1 POP JUMP JUMPDEST PUSH0 PUSH2 0x33F PUSH2 0x33A PUSH2 0x335 DUP5 PUSH2 0x313 JUMP JUMPDEST PUSH2 0x31C JUMP JUMPDEST PUSH2 0x313 JUMP JUMPDEST SWAP1 POP SWAP2 SWAP1 POP JUMP JUMPDEST PUSH0 DUP2 SWAP1 POP SWAP2 SWAP1 POP JUMP JUMPDEST PUSH2 0x358 DUP4 PUSH2 0x325 JUMP JUMPDEST PUSH2 0x36C PUSH2 0x364 DUP3 PUSH2 0x346 JUMP JUMPDEST DUP5 DUP5 SLOAD PUSH2 0x2C2 JUMP JUMPDEST DUP3 SSTORE POP POP POP POP JUMP JUMPDEST PUSH0 SWAP1 JUMP JUMPDEST PUSH2 0x380 PUSH2 0x374 JUMP JUMPDEST PUSH2 0x38B DUP2 DUP5 DUP5 PUSH2 0x34F JUMP JUMPDEST POP POP POP JUMP JUMPDEST JUMPDEST DUP2 DUP2 LT ISZERO PUSH2 0x3AE JUMPI PUSH2 0x3A3 PUSH0 DUP3 PUSH2 0x378 JUMP JUMPDEST PUSH1 0x1 DUP2 ADD SWAP1 POP PUSH2 0x391 JUMP JUMPDEST POP POP JUMP JUMPDEST PUSH1 0x1F DUP3 GT ISZERO PUSH2 0x3F3 JUMPI PUSH2 0x3C4 DUP2 PUSH2 0x295 JUMP JUMPDEST PUSH2 0x3CD DUP5 PUSH2 0x2A7 JUMP JUMPDEST DUP2 ADD PUSH1 0x20 DUP6 LT ISZERO PUSH2 0x3DC JUMPI DUP2 SWAP1 POP JUMPDEST PUSH2 0x3F0 PUSH2 0x3E8 DUP6 PUSH2 0x2A7 JUMP JUMPDEST DUP4 ADD DUP3 PUSH2 0x390 JUMP JUMPDEST POP POP JUMPDEST POP POP POP JUMP JUMPDEST PUSH0 DUP3 DUP3 SHR SWAP1 POP SWAP3 SWAP2 POP POP JUMP JUMPDEST PUSH0 PUSH2 0x413 PUSH0 NOT DUP5 PUSH1 0x8 MUL PUSH2 0x3F8 JUMP JUMPDEST NOT DUP1 DUP4 AND SWAP2 POP POP SWAP3 SWAP2 POP POP JUMP JUMPDEST PUSH0 PUSH2 0x42B DUP4 DUP4 PUSH2 0x404 JUMP JUMPDEST SWAP2 POP DUP3 PUSH1 0x2 MUL DUP3 OR SWAP1 POP SWAP3 SWAP2 POP POP JUMP JUMPDEST PUSH2 0x444 DUP3 PUSH2 0x201 JUMP JUMPDEST PUSH8 0xFFFFFFFFFFFFFFFF DUP2 GT ISZERO PUSH2 0x45D JUMPI PUSH2 0x45C PUSH2 0x20B JUMP JUMPDEST JUMPDEST PUSH2 0x467 DUP3 SLOAD PUSH2 0x265 JUMP JUMPDEST PUSH2 0x472 DUP3 DUP3 DUP6 PUSH2 0x3B2 JUMP JUMPDEST PUSH0 PUSH1 0x20 SWAP1 POP PUSH1 0x1F DUP4 GT PUSH1 0x1 DUP2 EQ PUSH2 0x4A3 JUMPI PUSH0 DUP5 ISZERO PUSH2 0x491 JUMPI DUP3 DUP8 ADD MLOAD SWAP1 POP JUMPDEST PUSH2 0x49B DUP6 DUP3 PUSH2 0x420 JUMP JUMPDEST DUP7 SSTORE POP PUSH2 0x502 JUMP JUMPDEST PUSH1 0x1F NOT DUP5 AND PUSH2 0x4B1 DUP7 PUSH2 0x295 JUMP JUMPDEST PUSH0 JUMPDEST DUP3 DUP2 LT ISZERO PUSH2 0x4D8 JUMPI DUP5 DUP10 ADD MLOAD DUP3 SSTORE PUSH1 0x1 DUP3 ADD SWAP2 POP PUSH1 0x20 DUP6 ADD SWAP5 POP PUSH1 0x20 DUP2 ADD SWAP1 POP PUSH2 0x4B3 JUMP JUMPDEST DUP7 DUP4 LT ISZERO PUSH2 0x4F5 JUMPI DUP5 DUP10 ADD MLOAD PUSH2 0x4F1 PUSH1 0x1F DUP10 AND DUP3 PUSH2 0x404 JUMP JUMPDEST DUP4 SSTORE POP JUMPDEST PUSH1 0x1 PUSH1 0x2 DUP9 MUL ADD DUP9 SSTORE POP POP POP JUMPDEST POP POP POP POP POP POP JUMP JUMPDEST PUSH0 PUSH20 0xFFFFFFFFFFFFFFFFFFFFFFFFFFFFFFFFFFFFFFFF DUP3 AND SWAP1 POP SWAP2 SWAP1 POP JUMP JUMPDEST PUSH0 PUSH2 0x533 DUP3 PUSH2 0x50A JUMP JUMPDEST SWAP1 POP SWAP2 SWAP1 POP JUMP JUMPDEST PUSH2 0x543 DUP2 PUSH2 0x529 JUMP JUMPDEST DUP3 MSTORE POP POP JUMP JUMPDEST PUSH0 PUSH1 0x20 DUP3 ADD SWAP1 POP PUSH2 0x55C PUSH0 DUP4 ADD DUP5 PUSH2 0x53A JUMP JUMPDEST SWAP3 SWAP2 POP POP JUMP JUMPDEST PUSH2 0x2573 DUP1 PUSH2 0x56F PUSH0 CODECOPY PUSH0 RETURN INVALID PUSH1 0x80 PUSH1 0x40 MSTORE CALLVALUE DUP1 ISZERO PUSH2 0xF JUMPI PUSH0 DUP1 REVERT JUMPDEST POP PUSH1 0x4 CALLDATASIZE LT PUSH2 0x1D8 JUMPI PUSH0 CALLDATALOAD PUSH1 0xE0 SHR DUP1 PUSH4 0x8456CB59 GT PUSH2 0x102 JUMPI DUP1 PUSH4 0xB543CF38 GT PUSH2 0xA0 JUMPI DUP1 PUSH4 0xDD8AA6F6 GT PUSH2 0x6F JUMPI DUP1 PUSH4 0xDD8AA6F6 EQ PUSH2 0x590 JUMPI DUP1 PUSH4 0xE34FC531 EQ PUSH2 0x5AC JUMPI DUP1 PUSH4 0xF2FDE38B EQ PUSH2 0x5DC JUMPI DUP1 PUSH4 0xFF03E8C2 EQ PUSH2 0x5F8 JUMPI PUSH2 0x1D8 JUMP JUMPDEST DUP1 PUSH4 0xB543CF38 EQ PUSH2 0x4E3 JUMPI DUP1 PUSH4 0xB7B551ED EQ PUSH2 0x4FF JUMPI DUP1 PUSH4 0xDCD9D12D EQ PUSH2 0x530 JUMPI DUP1 PUSH4 0xDD62ED3E EQ PUSH2 0x560 JUMPI PUSH2 0x1D8 JUMP JUMPDEST DUP1 PUSH4 0x8DA5CB5B GT PUSH2 0xDC JUMPI DUP1 PUSH4 0x8DA5CB5B EQ PUSH2 0x446 JUMPI DUP1 PUSH4 0x95D89B41 EQ PUSH2 0x464 JUMPI DUP1 PUSH4 0xA60ED374 EQ PUSH2 0x482 JUMPI DUP1 PUSH4 0xA9059CBB EQ PUSH2 0x4B3 JUMPI PUSH2 0x1D8 JUMP JUMPDEST DUP1 PUSH4 0x8456CB59 EQ PUSH2 0x3F0 JUMPI DUP1 PUSH4 0x84B9A6E6 EQ PUSH2 0x3FA JUMPI DUP1 PUSH4 0x85FFF858 EQ PUSH2 0x416 JUMPI PUSH2 0x1D8 JUMP JUMPDEST DUP1 PUSH4 0x51111B72 GT PUSH2 0x17A JUMPI DUP1 PUSH4 0x70A08231 GT PUSH2 0x149 JUMPI DUP1 PUSH4 0x70A08231 EQ PUSH2 0x356 JUMPI DUP1 PUSH4 0x715018A6 EQ PUSH2 0x386 JUMPI DUP1 PUSH4 0x75C0B9FE EQ PUSH2 0x390 JUMPI DUP1 PUSH4 0x7F2AF083 EQ PUSH2 0x3C0 JUMPI PUSH2 0x1D8 JUMP JUMPDEST DUP1 PUSH4 0x51111B72 EQ PUSH2 0x2D0 JUMPI DUP1 PUSH4 0x5813A683 EQ PUSH2 0x2EC JUMPI DUP1 PUSH4 0x5C975ABB EQ PUSH2 0x308 JUMPI DUP1 PUSH4 0x5DFE7721 EQ PUSH2 0x326 JUMPI PUSH2 0x1D8 JUMP JUMPDEST DUP1 PUSH4 0x23B872DD GT PUSH2 0x1B6 JUMPI DUP1 PUSH4 0x23B872DD EQ PUSH2 0x248 JUMPI DUP1 PUSH4 0x313CE567 EQ PUSH2 0x278 JUMPI DUP1 PUSH4 0x3F4BA83A EQ PUSH2 0x296 JUMPI DUP1 PUSH4 0x4885CF0A EQ PUSH2 0x2A0 JUMPI PUSH2 0x1D8 JUMP JUMPDEST DUP1 PUSH4 0x6FDDE03 EQ PUSH2 0x1DC JUMPI DUP1 PUSH4 0x95EA7B3 EQ PUSH2 0x1FA JUMPI DUP1 PUSH4 0x18160DDD EQ PUSH2 0x22A JUMPI JUMPDEST PUSH0 DUP1 REVERT JUMPDEST PUSH2 0x1E4 PUSH2 0x628 JUMP JUMPDEST PUSH1 0x40 MLOAD PUSH2 0x1F1 SWAP2 SWAP1 PUSH2 0x1ABC JUMP JUMPDEST PUSH1 0x40 MLOAD DUP1 SWAP2 SUB SWAP1 RETURN JUMPDEST PUSH2 0x214 PUSH1 0x4 DUP1 CALLDATASIZE SUB DUP2 ADD SWAP1 PUSH2 0x20F SWAP2 SWAP1 PUSH2 0x1B7A JUMP JUMPDEST PUSH2 0x6B8 JUMP JUMPDEST PUSH1 0x40 MLOAD PUSH2 0x221 SWAP2 SWAP1 PUSH2 0x1BD2 JUMP JUMPDEST PUSH1 0x40 MLOAD DUP1 SWAP2 SUB SWAP1 RETURN JUMPDEST PUSH2 0x232 PUSH2 0x6DA JUMP JUMPDEST PUSH1 0x40 MLOAD PUSH2 0x23F SWAP2 SWAP1 PUSH2 0x1BFA JUMP JUMPDEST PUSH1 0x40 MLOAD DUP1 SWAP2 SUB SWAP1 RETURN JUMPDEST PUSH2 0x262 PUSH1 0x4 DUP1 CALLDATASIZE SUB DUP2 ADD SWAP1 PUSH2 0x25D SWAP2 SWAP1 PUSH2 0x1C13 JUMP JUMPDEST PUSH2 0x6E3 JUMP JUMPDEST PUSH1 0x40 MLOAD PUSH2 0x26F SWAP2 SWAP1 PUSH2 0x1BD2 JUMP JUMPDEST PUSH1 0x40 MLOAD DUP1 SWAP2 SUB SWAP1 RETURN JUMPDEST PUSH2 0x280 PUSH2 0x711 JUMP JUMPDEST PUSH1 0x40 MLOAD PUSH2 0x28D SWAP2 SWAP1 PUSH2 0x1C7E JUMP JUMPDEST PUSH1 0x40 MLOAD DUP1 SWAP2 SUB SWAP1 RETURN JUMPDEST PUSH2 0x29E PUSH2 0x719 JUMP JUMPDEST STOP JUMPDEST PUSH2 0x2BA PUSH1 0x4 DUP1 CALLDATASIZE SUB DUP2 ADD SWAP1 PUSH2 0x2B5 SWAP2 SWAP1 PUSH2 0x1C97 JUMP JUMPDEST PUSH2 0x72B JUMP JUMPDEST PUSH1 0x40 MLOAD PUSH2 0x2C7 SWAP2 SWAP1 PUSH2 0x1BFA JUMP JUMPDEST PUSH1 0x40 MLOAD DUP1 SWAP2 SUB SWAP1 RETURN JUMPDEST PUSH2 0x2EA PUSH1 0x4 DUP1 CALLDATASIZE SUB DUP2 ADD SWAP1 PUSH2 0x2E5 SWAP2 SWAP1 PUSH2 0x1E02 JUMP JUMPDEST PUSH2 0x740 JUMP JUMPDEST STOP JUMPDEST PUSH2 0x306 PUSH1 0x4 DUP1 CALLDATASIZE SUB DUP2 ADD SWAP1 PUSH2 0x301 SWAP2 SWAP1 PUSH2 0x1E6E JUMP JUMPDEST PUSH2 0x7C1 JUMP JUMPDEST STOP JUMPDEST PUSH2 0x310 PUSH2 0x88A JUMP JUMPDEST PUSH1 0x40 MLOAD PUSH2 0x31D SWAP2 SWAP1 PUSH2 0x1BD2 JUMP JUMPDEST PUSH1 0x40 MLOAD DUP1 SWAP2 SUB SWAP1 RETURN JUMPDEST PUSH2 0x340 PUSH1 0x4 DUP1 CALLDATASIZE SUB DUP2 ADD SWAP1 PUSH2 0x33B SWAP2 SWAP1 PUSH2 0x1C97 JUMP JUMPDEST PUSH2 0x8A0 JUMP JUMPDEST PUSH1 0x40 MLOAD PUSH2 0x34D SWAP2 SWAP1 PUSH2 0x1BD2 JUMP JUMPDEST PUSH1 0x40 MLOAD DUP1 SWAP2 SUB SWAP1 RETURN JUMPDEST PUSH2 0x370 PUSH1 0x4 DUP1 CALLDATASIZE SUB DUP2 ADD SWAP1 PUSH2 0x36B SWAP2 SWAP1 PUSH2 0x1EAC JUMP JUMPDEST PUSH2 0x8AA JUMP JUMPDEST PUSH1 0x40 MLOAD PUSH2 0x37D SWAP2 SWAP1 PUSH2 0x1BFA JUMP JUMPDEST PUSH1 0x40 MLOAD DUP1 SWAP2 SUB SWAP1 RETURN JUMPDEST PUSH2 0x38E PUSH2 0x8EF JUMP JUMPDEST STOP JUMPDEST PUSH2 0x3AA PUSH1 0x4 DUP1 CALLDATASIZE SUB DUP2 ADD SWAP1 PUSH2 0x3A5 SWAP2 SWAP1 PUSH2 0x1E6E JUMP JUMPDEST PUSH2 0x902 JUMP JUMPDEST PUSH1 0x40 MLOAD PUSH2 0x3B7 SWAP2 SWAP1 PUSH2 0x1BFA JUMP JUMPDEST PUSH1 0x40 MLOAD DUP1 SWAP2 SUB SWAP1 RETURN JUMPDEST PUSH2 0x3DA PUSH1 0x4 DUP1 CALLDATASIZE SUB DUP2 ADD SWAP1 PUSH2 0x3D5 SWAP2 SWAP1 PUSH2 0x1C97 JUMP JUMPDEST PUSH2 0x95B JUMP JUMPDEST PUSH1 0x40 MLOAD PUSH2 0x3E7 SWAP2 SWAP1 PUSH2 0x1EE6 JUMP JUMPDEST PUSH1 0x40 MLOAD DUP1 SWAP2 SUB SWAP1 RETURN JUMPDEST PUSH2 0x3F8 PUSH2 0x98B JUMP JUMPDEST STOP JUMPDEST PUSH2 0x414 PUSH1 0x4 DUP1 CALLDATASIZE SUB DUP2 ADD SWAP1 PUSH2 0x40F SWAP2 SWAP1 PUSH2 0x1EFF JUMP JUMPDEST PUSH2 0x99D JUMP JUMPDEST STOP JUMPDEST PUSH2 0x430 PUSH1 0x4 DUP1 CALLDATASIZE SUB DUP2 ADD SWAP1 PUSH2 0x42B SWAP2 SWAP1 PUSH2 0x1C97 JUMP JUMPDEST PUSH2 0xBD0 JUMP JUMPDEST PUSH1 0x40 MLOAD PUSH2 0x43D SWAP2 SWAP1 PUSH2 0x1BFA JUMP JUMPDEST PUSH1 0x40 MLOAD DUP1 SWAP2 SUB SWAP1 RETURN JUMPDEST PUSH2 0x44E PUSH2 0xBEC JUMP JUMPDEST PUSH1 0x40 MLOAD PUSH2 0x45B SWAP2 SWAP1 PUSH2 0x1EE6 JUMP JUMPDEST PUSH1 0x40 MLOAD DUP1 SWAP2 SUB SWAP1 RETURN JUMPDEST PUSH2 0x46C PUSH2 0xC14 JUMP JUMPDEST PUSH1 0x40 MLOAD PUSH2 0x479 SWAP2 SWAP1 PUSH2 0x1ABC JUMP JUMPDEST PUSH1 0x40 MLOAD DUP1 SWAP2 SUB SWAP1 RETURN JUMPDEST PUSH2 0x49C PUSH1 0x4 DUP1 CALLDATASIZE SUB DUP2 ADD SWAP1 PUSH2 0x497 SWAP2 SWAP1 PUSH2 0x1C97 JUMP JUMPDEST PUSH2 0xCA4 JUMP JUMPDEST PUSH1 0x40 MLOAD PUSH2 0x4AA SWAP3 SWAP2 SWAP1 PUSH2 0x1F4F JUMP JUMPDEST PUSH1 0x40 MLOAD DUP1 SWAP2 SUB SWAP1 RETURN JUMPDEST PUSH2 0x4CD PUSH1 0x4 DUP1 CALLDATASIZE SUB DUP2 ADD SWAP1 PUSH2 0x4C8 SWAP2 SWAP1 PUSH2 0x1B7A JUMP JUMPDEST PUSH2 0xCC4 JUMP JUMPDEST PUSH1 0x40 MLOAD PUSH2 0x4DA SWAP2 SWAP1 PUSH2 0x1BD2 JUMP JUMPDEST PUSH1 0x40 MLOAD DUP1 SWAP2 SUB SWAP1 RETURN JUMPDEST PUSH2 0x4FD PUSH1 0x4 DUP1 CALLDATASIZE SUB DUP2 ADD SWAP1 PUSH2 0x4F8 SWAP2 SWAP1 PUSH2 0x1EFF JUMP JUMPDEST PUSH2 0xCE6 JUMP JUMPDEST STOP JUMPDEST PUSH2 0x519 PUSH1 0x4 DUP1 CALLDATASIZE SUB DUP2 ADD SWAP1 PUSH2 0x514 SWAP2 SWAP1 PUSH2 0x1C97 JUMP JUMPDEST PUSH2 0xE81 JUMP JUMPDEST PUSH1 0x40 MLOAD PUSH2 0x527 SWAP3 SWAP2 SWAP1 PUSH2 0x1F4F JUMP JUMPDEST PUSH1 0x40 MLOAD DUP1 SWAP2 SUB SWAP1 RETURN JUMPDEST PUSH2 0x54A PUSH1 0x4 DUP1 CALLDATASIZE SUB DUP2 ADD SWAP1 PUSH2 0x545 SWAP2 SWAP1 PUSH2 0x1C97 JUMP JUMPDEST PUSH2 0xEA1 JUMP JUMPDEST PUSH1 0x40 MLOAD PUSH2 0x557 SWAP2 SWAP1 PUSH2 0x1BFA JUMP JUMPDEST PUSH1 0x40 MLOAD DUP1 SWAP2 SUB SWAP1 RETURN JUMPDEST PUSH2 0x57A PUSH1 0x4 DUP1 CALLDATASIZE SUB DUP2 ADD SWAP1 PUSH2 0x575 SWAP2 SWAP1 PUSH2 0x1F76 JUMP JUMPDEST PUSH2 0xEBE JUMP JUMPDEST PUSH1 0x40 MLOAD PUSH2 0x587 SWAP2 SWAP1 PUSH2 0x1BFA JUMP JUMPDEST PUSH1 0x40 MLOAD DUP1 SWAP2 SUB SWAP1 RETURN JUMPDEST PUSH2 0x5AA PUSH1 0x4 DUP1 CALLDATASIZE SUB DUP2 ADD SWAP1 PUSH2 0x5A5 SWAP2 SWAP1 PUSH2 0x1EFF JUMP JUMPDEST PUSH2 0xF40 JUMP JUMPDEST STOP JUMPDEST PUSH2 0x5C6 PUSH1 0x4 DUP1 CALLDATASIZE SUB DUP2 ADD SWAP1 PUSH2 0x5C1 SWAP2 SWAP1 PUSH2 0x1C97 JUMP JUMPDEST PUSH2 0xFD2 JUMP JUMPDEST PUSH1 0x40 MLOAD PUSH2 0x5D3 SWAP2 SWAP1 PUSH2 0x1EE6 JUMP JUMPDEST PUSH1 0x40 MLOAD DUP1 SWAP2 SUB SWAP1 RETURN JUMPDEST PUSH2 0x5F6 PUSH1 0x4 DUP1 CALLDATASIZE SUB DUP2 ADD SWAP1 PUSH2 0x5F1 SWAP2 SWAP1 PUSH2 0x1EAC JUMP JUMPDEST PUSH2 0x100B JUMP JUMPDEST STOP JUMPDEST PUSH2 0x612 PUSH1 0x4 DUP1 CALLDATASIZE SUB DUP2 ADD SWAP1 PUSH2 0x60D SWAP2 SWAP1 PUSH2 0x1C97 JUMP JUMPDEST PUSH2 0x108F JUMP JUMPDEST PUSH1 0x40 MLOAD PUSH2 0x61F SWAP2 SWAP1 PUSH2 0x20B8 JUMP JUMPDEST PUSH1 0x40 MLOAD DUP1 SWAP2 SUB SWAP1 RETURN JUMPDEST PUSH1 0x60 PUSH1 0x3 DUP1 SLOAD PUSH2 0x637 SWAP1 PUSH2 0x2105 JUMP JUMPDEST DUP1 PUSH1 0x1F ADD PUSH1 0x20 DUP1 SWAP2 DIV MUL PUSH1 0x20 ADD PUSH1 0x40 MLOAD SWAP1 DUP2 ADD PUSH1 0x40 MSTORE DUP1 SWAP3 SWAP2 SWAP1 DUP2 DUP2 MSTORE PUSH1 0x20 ADD DUP3 DUP1 SLOAD PUSH2 0x663 SWAP1 PUSH2 0x2105 JUMP JUMPDEST DUP1 ISZERO PUSH2 0x6AE JUMPI DUP1 PUSH1 0x1F LT PUSH2 0x685 JUMPI PUSH2 0x100 DUP1 DUP4 SLOAD DIV MUL DUP4 MSTORE SWAP2 PUSH1 0x20 ADD SWAP2 PUSH2 0x6AE JUMP JUMPDEST DUP3 ADD SWAP2 SWAP1 PUSH0 MSTORE PUSH1 0x20 PUSH0 KECCAK256 SWAP1 JUMPDEST DUP2 SLOAD DUP2 MSTORE SWAP1 PUSH1 0x1 ADD SWAP1 PUSH1 0x20 ADD DUP1 DUP4 GT PUSH2 0x691 JUMPI DUP3 SWAP1 SUB PUSH1 0x1F AND DUP3 ADD SWAP2 JUMPDEST POP POP POP POP POP SWAP1 POP SWAP1 JUMP JUMPDEST PUSH0 DUP1 PUSH2 0x6C2 PUSH2 0x1123 JUMP JUMPDEST SWAP1 POP PUSH2 0x6CF DUP2 DUP6 DUP6 PUSH2 0x112A JUMP JUMPDEST PUSH1 0x1 SWAP2 POP POP SWAP3 SWAP2 POP POP JUMP JUMPDEST PUSH0 PUSH1 0x2 SLOAD SWAP1 POP SWAP1 JUMP JUMPDEST PUSH0 DUP1 PUSH2 0x6ED PUSH2 0x1123 JUMP JUMPDEST SWAP1 POP PUSH2 0x6FA DUP6 DUP3 DUP6 PUSH2 0x113C JUMP JUMPDEST PUSH2 0x705 DUP6 DUP6 DUP6 PUSH2 0x11CE JUMP JUMPDEST PUSH1 0x1 SWAP2 POP POP SWAP4 SWAP3 POP POP POP JUMP JUMPDEST PUSH0 PUSH1 0x12 SWAP1 POP SWAP1 JUMP JUMPDEST PUSH2 0x721 PUSH2 0x12BE JUMP JUMPDEST PUSH2 0x729 PUSH2 0x1345 JUMP JUMPDEST JUMP JUMPDEST PUSH1 0x7 PUSH1 0x20 MSTORE DUP1 PUSH0 MSTORE PUSH1 0x40 PUSH0 KECCAK256 PUSH0 SWAP2 POP SWAP1 POP SLOAD DUP2 JUMP JUMPDEST PUSH2 0x748 PUSH2 0x12BE JUMP JUMPDEST PUSH1 0x40 MLOAD DUP1 PUSH1 0x60 ADD PUSH1 0x40 MSTORE DUP1 DUP5 DUP2 MSTORE PUSH1 0x20 ADD DUP4 DUP2 MSTORE PUSH1 0x20 ADD DUP3 DUP2 MSTORE POP PUSH1 0x6 PUSH0 DUP6 DUP2 MSTORE PUSH1 0x20 ADD SWAP1 DUP2 MSTORE PUSH1 0x20 ADD PUSH0 KECCAK256 PUSH0 DUP3 ADD MLOAD DUP2 PUSH0 ADD SSTORE PUSH1 0x20 DUP3 ADD MLOAD DUP2 PUSH1 0x1 ADD SWAP1 DUP1 MLOAD SWAP1 PUSH1 0x20 ADD SWAP1 PUSH2 0x798 SWAP3 SWAP2 SWAP1 PUSH2 0x19C7 JUMP JUMPDEST POP PUSH1 0x40 DUP3 ADD MLOAD DUP2 PUSH1 0x2 ADD SSTORE SWAP1 POP POP DUP1 PUSH1 0x7 PUSH0 DUP6 DUP2 MSTORE PUSH1 0x20 ADD SWAP1 DUP2 MSTORE PUSH1 0x20 ADD PUSH0 KECCAK256 DUP2 SWAP1 SSTORE POP POP POP POP JUMP JUMPDEST PUSH2 0x7C9 PUSH2 0x12BE JUMP JUMPDEST PUSH0 PUSH20 0xFFFFFFFFFFFFFFFFFFFFFFFFFFFFFFFFFFFFFFFF AND DUP2 PUSH20 0xFFFFFFFFFFFFFFFFFFFFFFFFFFFFFFFFFFFFFFFF AND SUB PUSH2 0x837 JUMPI PUSH1 0x40 MLOAD PUSH32 0x8C379A000000000000000000000000000000000000000000000000000000000 DUP2 MSTORE PUSH1 0x4 ADD PUSH2 0x82E SWAP1 PUSH2 0x217F JUMP JUMPDEST PUSH1 0x40 MLOAD DUP1 SWAP2 SUB SWAP1 REVERT JUMPDEST DUP1 PUSH1 0x9 PUSH0 DUP5 DUP2 MSTORE PUSH1 0x20 ADD SWAP1 DUP2 MSTORE PUSH1 0x20 ADD PUSH0 KECCAK256 PUSH0 PUSH2 0x100 EXP DUP2 SLOAD DUP2 PUSH20 0xFFFFFFFFFFFFFFFFFFFFFFFFFFFFFFFFFFFFFFFF MUL NOT AND SWAP1 DUP4 PUSH20 0xFFFFFFFFFFFFFFFFFFFFFFFFFFFFFFFFFFFFFFFF AND MUL OR SWAP1 SSTORE POP POP POP JUMP JUMPDEST PUSH0 PUSH1 0x5 PUSH1 0x14 SWAP1 SLOAD SWAP1 PUSH2 0x100 EXP SWAP1 DIV PUSH1 0xFF AND SWAP1 POP SWAP1 JUMP JUMPDEST PUSH0 PUSH1 0x1 SWAP1 POP SWAP2 SWAP1 POP JUMP JUMPDEST PUSH0 DUP1 PUSH0 DUP4 PUSH20 0xFFFFFFFFFFFFFFFFFFFFFFFFFFFFFFFFFFFFFFFF AND PUSH20 0xFFFFFFFFFFFFFFFFFFFFFFFFFFFFFFFFFFFFFFFF AND DUP2 MSTORE PUSH1 0x20 ADD SWAP1 DUP2 MSTORE PUSH1 0x20 ADD PUSH0 KECCAK256 SLOAD SWAP1 POP SWAP2 SWAP1 POP JUMP JUMPDEST PUSH2 0x8F7 PUSH2 0x12BE JUMP JUMPDEST PUSH2 0x900 PUSH0 PUSH2 0x13A7 JUMP JUMPDEST JUMP JUMPDEST PUSH0 PUSH1 0x8 PUSH0 DUP5 DUP2 MSTORE PUSH1 0x20 ADD SWAP1 DUP2 MSTORE PUSH1 0x20 ADD PUSH0 KECCAK256 PUSH1 0x2 ADD PUSH0 DUP4 PUSH20 0xFFFFFFFFFFFFFFFFFFFFFFFFFFFFFFFFFFFFFFFF AND PUSH20 0xFFFFFFFFFFFFFFFFFFFFFFFFFFFFFFFFFFFFFFFF AND DUP2 MSTORE PUSH1 0x20 ADD SWAP1 DUP2 MSTORE PUSH1 0x20 ADD PUSH0 KECCAK256 SLOAD SWAP1 POP SWAP3 SWAP2 POP POP JUMP JUMPDEST PUSH1 0x9 PUSH1 0x20 MSTORE DUP1 PUSH0 MSTORE PUSH1 0x40 PUSH0 KECCAK256 PUSH0 SWAP2 POP SLOAD SWAP1 PUSH2 0x100 EXP SWAP1 DIV PUSH20 0xFFFFFFFFFFFFFFFFFFFFFFFFFFFFFFFFFFFFFFFF AND DUP2 JUMP JUMPDEST PUSH2 0x993 PUSH2 0x12BE JUMP JUMPDEST PUSH2 0x99B PUSH2 0x146A JUMP JUMPDEST JUMP JUMPDEST PUSH2 0x9A5 PUSH2 0x14CD JUMP JUMPDEST PUSH0 PUSH20 0xFFFFFFFFFFFFFFFFFFFFFFFFFFFFFFFFFFFFFFFF AND DUP3 PUSH20 0xFFFFFFFFFFFFFFFFFFFFFFFFFFFFFFFFFFFFFFFF AND SUB PUSH2 0xA13 JUMPI PUSH1 0x40 MLOAD PUSH32 0x8C379A000000000000000000000000000000000000000000000000000000000 DUP2 MSTORE PUSH1 0x4 ADD PUSH2 0xA0A SWAP1 PUSH2 0x21E7 JUMP JUMPDEST PUSH1 0x40 MLOAD DUP1 SWAP2 SUB SWAP1 REVERT JUMPDEST DUP1 PUSH1 0x8 PUSH0 DUP6 DUP2 MSTORE PUSH1 0x20 ADD SWAP1 DUP2 MSTORE PUSH1 0x20 ADD PUSH0 KECCAK256 PUSH1 0x2 ADD PUSH0 CALLER PUSH20 0xFFFFFFFFFFFFFFFFFFFFFFFFFFFFFFFFFFFFFFFF AND PUSH20 0xFFFFFFFFFFFFFFFFFFFFFFFFFFFFFFFFFFFFFFFF AND DUP2 MSTORE PUSH1 0x20 ADD SWAP1 DUP2 MSTORE PUSH1 0x20 ADD PUSH0 KECCAK256 SLOAD LT ISZERO PUSH2 0xAA5 JUMPI PUSH1 0x40 MLOAD PUSH32 0x8C379A000000000000000000000000000000000000000000000000000000000 DUP2 MSTORE PUSH1 0x4 ADD PUSH2 0xA9C SWAP1 PUSH2 0x224F JUMP JUMPDEST PUSH1 0x40 MLOAD DUP1 SWAP2 SUB SWAP1 REVERT JUMPDEST PUSH0 PUSH1 0x8 PUSH0 DUP6 DUP2 MSTORE PUSH1 0x20 ADD SWAP1 DUP2 MSTORE PUSH1 0x20 ADD PUSH0 KECCAK256 SWAP1 POP DUP2 DUP2 PUSH1 0x2 ADD PUSH0 CALLER PUSH20 0xFFFFFFFFFFFFFFFFFFFFFFFFFFFFFFFFFFFFFFFF AND PUSH20 0xFFFFFFFFFFFFFFFFFFFFFFFFFFFFFFFFFFFFFFFF AND DUP2 MSTORE PUSH1 0x20 ADD SWAP1 DUP2 MSTORE PUSH1 0x20 ADD PUSH0 KECCAK256 PUSH0 DUP3 DUP3 SLOAD PUSH2 0xB07 SWAP2 SWAP1 PUSH2 0x229A JUMP JUMPDEST SWAP3 POP POP DUP2 SWAP1 SSTORE POP DUP2 DUP2 PUSH1 0x2 ADD PUSH0 DUP6 PUSH20 0xFFFFFFFFFFFFFFFFFFFFFFFFFFFFFFFFFFFFFFFF AND PUSH20 0xFFFFFFFFFFFFFFFFFFFFFFFFFFFFFFFFFFFFFFFF AND DUP2 MSTORE PUSH1 0x20 ADD SWAP1 DUP2 MSTORE PUSH1 0x20 ADD PUSH0 KECCAK256 PUSH0 DUP3 DUP3 SLOAD PUSH2 0xB5C SWAP2 SWAP1 PUSH2 0x22CD JUMP JUMPDEST SWAP3 POP POP DUP2 SWAP1 SSTORE POP DUP3 PUSH20 0xFFFFFFFFFFFFFFFFFFFFFFFFFFFFFFFFFFFFFFFF AND CALLER PUSH20 0xFFFFFFFFFFFFFFFFFFFFFFFFFFFFFFFFFFFFFFFF AND PUSH32 0x1BA44E8B79687FED555749CAE6DCCCF9BC5DF37A2739FBC73062F07B534CF03E DUP7 DUP6 PUSH1 0x40 MLOAD PUSH2 0xBC2 SWAP3 SWAP2 SWAP1 PUSH2 0x1F4F JUMP JUMPDEST PUSH1 0x40 MLOAD DUP1 SWAP2 SUB SWAP1 LOG3 POP POP POP POP JUMP JUMPDEST PUSH0 PUSH1 0x8 PUSH0 DUP4 DUP2 MSTORE PUSH1 0x20 ADD SWAP1 DUP2 MSTORE PUSH1 0x20 ADD PUSH0 KECCAK256 PUSH0 ADD SLOAD SWAP1 POP SWAP2 SWAP1 POP JUMP JUMPDEST PUSH0 PUSH1 0x5 PUSH0 SWAP1 SLOAD SWAP1 PUSH2 0x100 EXP SWAP1 DIV PUSH20 0xFFFFFFFFFFFFFFFFFFFFFFFFFFFFFFFFFFFFFFFF AND SWAP1 POP SWAP1 JUMP JUMPDEST PUSH1 0x60 PUSH1 0x4 DUP1 SLOAD PUSH2 0xC23 SWAP1 PUSH2 0x2105 JUMP JUMPDEST DUP1 PUSH1 0x1F ADD PUSH1 0x20 DUP1 SWAP2 DIV MUL PUSH1 0x20 ADD PUSH1 0x40 MLOAD SWAP1 DUP2 ADD PUSH1 0x40 MSTORE DUP1 SWAP3 SWAP2 SWAP1 DUP2 DUP2 MSTORE PUSH1 0x20 ADD DUP3 DUP1 SLOAD PUSH2 0xC4F SWAP1 PUSH2 0x2105 JUMP JUMPDEST DUP1 ISZERO PUSH2 0xC9A JUMPI DUP1 PUSH1 0x1F LT PUSH2 0xC71 JUMPI PUSH2 0x100 DUP1 DUP4 SLOAD DIV MUL DUP4 MSTORE SWAP2 PUSH1 0x20 ADD SWAP2 PUSH2 0xC9A JUMP JUMPDEST DUP3 ADD SWAP2 SWAP1 PUSH0 MSTORE PUSH1 0x20 PUSH0 KECCAK256 SWAP1 JUMPDEST DUP2 SLOAD DUP2 MSTORE SWAP1 PUSH1 0x1 ADD SWAP1 PUSH1 0x20 ADD DUP1 DUP4 GT PUSH2 0xC7D JUMPI DUP3 SWAP1 SUB PUSH1 0x1F AND DUP3 ADD SWAP2 JUMPDEST POP POP POP POP POP SWAP1 POP SWAP1 JUMP JUMPDEST PUSH1 0x6 PUSH1 0x20 MSTORE DUP1 PUSH0 MSTORE PUSH1 0x40 PUSH0 KECCAK256 PUSH0 SWAP2 POP SWAP1 POP DUP1 PUSH0 ADD SLOAD SWAP1 DUP1 PUSH1 0x2 ADD SLOAD SWAP1 POP DUP3 JUMP JUMPDEST PUSH0 DUP1 PUSH2 0xCCE PUSH2 0x1123 JUMP JUMPDEST SWAP1 POP PUSH2 0xCDB DUP2 DUP6 DUP6 PUSH2 0x11CE JUMP JUMPDEST PUSH1 0x1 SWAP2 POP POP SWAP3 SWAP2 POP POP JUMP JUMPDEST PUSH2 0xCEE PUSH2 0x12BE JUMP JUMPDEST PUSH2 0xCF6 PUSH2 0x14CD JUMP JUMPDEST PUSH0 DUP2 GT PUSH2 0xD38 JUMPI PUSH1 0x40 MLOAD PUSH32 0x8C379A000000000000000000000000000000000000000000000000000000000 DUP2 MSTORE PUSH1 0x4 ADD PUSH2 0xD2F SWAP1 PUSH2 0x234A JUMP JUMPDEST PUSH1 0x40 MLOAD DUP1 SWAP2 SUB SWAP1 REVERT JUMPDEST DUP1 PUSH1 0x8 PUSH0 DUP6 DUP2 MSTORE PUSH1 0x20 ADD SWAP1 DUP2 MSTORE PUSH1 0x20 ADD PUSH0 KECCAK256 PUSH1 0x1 ADD SLOAD LT ISZERO PUSH2 0xD8F JUMPI PUSH1 0x40 MLOAD PUSH32 0x8C379A000000000000000000000000000000000000000000000000000000000 DUP2 MSTORE PUSH1 0x4 ADD PUSH2 0xD86 SWAP1 PUSH2 0x23B2 JUMP JUMPDEST PUSH1 0x40 MLOAD DUP1 SWAP2 SUB SWAP1 REVERT JUMPDEST PUSH0 PUSH1 0x8 PUSH0 DUP6 DUP2 MSTORE PUSH1 0x20 ADD SWAP1 DUP2 MSTORE PUSH1 0x20 ADD PUSH0 KECCAK256 SWAP1 POP DUP2 DUP2 PUSH0 ADD PUSH0 DUP3 DUP3 SLOAD PUSH2 0xDB5 SWAP2 SWAP1 PUSH2 0x22CD JUMP JUMPDEST SWAP3 POP POP DUP2 SWAP1 SSTORE POP DUP2 DUP2 PUSH1 0x1 ADD PUSH0 DUP3 DUP3 SLOAD PUSH2 0xDCF SWAP2 SWAP1 PUSH2 0x229A JUMP JUMPDEST SWAP3 POP POP DUP2 SWAP1 SSTORE POP DUP2 DUP2 PUSH1 0x2 ADD PUSH0 DUP6 PUSH20 0xFFFFFFFFFFFFFFFFFFFFFFFFFFFFFFFFFFFFFFFF AND PUSH20 0xFFFFFFFFFFFFFFFFFFFFFFFFFFFFFFFFFFFFFFFF AND DUP2 MSTORE PUSH1 0x20 ADD SWAP1 DUP2 MSTORE PUSH1 0x20 ADD PUSH0 KECCAK256 PUSH0 DUP3 DUP3 SLOAD PUSH2 0xE24 SWAP2 SWAP1 PUSH2 0x22CD JUMP JUMPDEST SWAP3 POP POP DUP2 SWAP1 SSTORE POP DUP3 PUSH20 0xFFFFFFFFFFFFFFFFFFFFFFFFFFFFFFFFFFFFFFFF AND PUSH32 0x6B3332210C2263E1008F810D148FC1C61A002C8F5DFCF18FE06858064BC49E69 DUP6 DUP5 PUSH1 0x40 MLOAD PUSH2 0xE73 SWAP3 SWAP2 SWAP1 PUSH2 0x1F4F JUMP JUMPDEST PUSH1 0x40 MLOAD DUP1 SWAP2 SUB SWAP1 LOG2 POP POP POP POP JUMP JUMPDEST PUSH1 0x8 PUSH1 0x20 MSTORE DUP1 PUSH0 MSTORE PUSH1 0x40 PUSH0 KECCAK256 PUSH0 SWAP2 POP SWAP1 POP DUP1 PUSH0 ADD SLOAD SWAP1 DUP1 PUSH1 0x1 ADD SLOAD SWAP1 POP DUP3 JUMP JUMPDEST PUSH0 PUSH1 0x8 PUSH0 DUP4 DUP2 MSTORE PUSH1 0x20 ADD SWAP1 DUP2 MSTORE PUSH1 0x20 ADD PUSH0 KECCAK256 PUSH1 0x1 ADD SLOAD SWAP1 POP SWAP2 SWAP1 POP JUMP JUMPDEST PUSH0 PUSH1 0x1 PUSH0 DUP5 PUSH20 0xFFFFFFFFFFFFFFFFFFFFFFFFFFFFFFFFFFFFFFFF AND PUSH20 0xFFFFFFFFFFFFFFFFFFFFFFFFFFFFFFFFFFFFFFFF AND DUP2 MSTORE PUSH1 0x20 ADD SWAP1 DUP2 MSTORE PUSH1 0x20 ADD PUSH0 KECCAK256 PUSH0 DUP4 PUSH20 0xFFFFFFFFFFFFFFFFFFFFFFFFFFFFFFFFFFFFFFFF AND PUSH20 0xFFFFFFFFFFFFFFFFFFFFFFFFFFFFFFFFFFFFFFFF AND DUP2 MSTORE PUSH1 0x20 ADD SWAP1 DUP2 MSTORE PUSH1 0x20 ADD PUSH0 KECCAK256 SLOAD SWAP1 POP SWAP3 SWAP2 POP POP JUMP JUMPDEST PUSH2 0xF48 PUSH2 0x12BE JUMP JUMPDEST DUP1 PUSH1 0x7 PUSH0 DUP6 DUP2 MSTORE PUSH1 0x20 ADD SWAP1 DUP2 MSTORE PUSH1 0x20 ADD PUSH0 KECCAK256 SLOAD LT ISZERO PUSH2 0xF9C JUMPI PUSH1 0x40 MLOAD PUSH32 0x8C379A000000000000000000000000000000000000000000000000000000000 DUP2 MSTORE PUSH1 0x4 ADD PUSH2 0xF93 SWAP1 PUSH2 0x241A JUMP JUMPDEST PUSH1 0x40 MLOAD DUP1 SWAP2 SUB SWAP1 REVERT JUMPDEST PUSH2 0xFA6 DUP3 DUP3 PUSH2 0x1517 JUMP JUMPDEST DUP1 PUSH1 0x7 PUSH0 DUP6 DUP2 MSTORE PUSH1 0x20 ADD SWAP1 DUP2 MSTORE PUSH1 0x20 ADD PUSH0 KECCAK256 PUSH0 DUP3 DUP3 SLOAD PUSH2 0xFC6 SWAP2 SWAP1 PUSH2 0x229A JUMP JUMPDEST SWAP3 POP POP DUP2 SWAP1 SSTORE POP POP POP POP JUMP JUMPDEST PUSH0 PUSH1 0x9 PUSH0 DUP4 DUP2 MSTORE PUSH1 0x20 ADD SWAP1 DUP2 MSTORE PUSH1 0x20 ADD PUSH0 KECCAK256 PUSH0 SWAP1 SLOAD SWAP1 PUSH2 0x100 EXP SWAP1 DIV PUSH20 0xFFFFFFFFFFFFFFFFFFFFFFFFFFFFFFFFFFFFFFFF AND SWAP1 POP SWAP2 SWAP1 POP JUMP JUMPDEST PUSH2 0x1013 PUSH2 0x12BE JUMP JUMPDEST PUSH0 PUSH20 0xFFFFFFFFFFFFFFFFFFFFFFFFFFFFFFFFFFFFFFFF AND DUP2 PUSH20 0xFFFFFFFFFFFFFFFFFFFFFFFFFFFFFFFFFFFFFFFF AND SUB PUSH2 0x1083 JUMPI PUSH0 PUSH1 0x40 MLOAD PUSH32 0x1E4FBDF700000000000000000000000000000000000000000000000000000000 DUP2 MSTORE PUSH1 0x4 ADD PUSH2 0x107A SWAP2 SWAP1 PUSH2 0x1EE6 JUMP JUMPDEST PUSH1 0x40 MLOAD DUP1 SWAP2 SUB SWAP1 REVERT JUMPDEST PUSH2 0x108C DUP2 PUSH2 0x13A7 JUMP JUMPDEST POP JUMP JUMPDEST PUSH2 0x1097 PUSH2 0x1A12 JUMP JUMPDEST PUSH1 0x6 PUSH0 DUP4 DUP2 MSTORE PUSH1 0x20 ADD SWAP1 DUP2 MSTORE PUSH1 0x20 ADD PUSH0 KECCAK256 PUSH1 0x40 MLOAD DUP1 PUSH1 0x60 ADD PUSH1 0x40 MSTORE SWAP1 DUP2 PUSH0 DUP3 ADD SLOAD DUP2 MSTORE PUSH1 0x20 ADD PUSH1 0x1 DUP3 ADD DUP1 SLOAD DUP1 PUSH1 0x20 MUL PUSH1 0x20 ADD PUSH1 0x40 MLOAD SWAP1 DUP2 ADD PUSH1 0x40 MSTORE DUP1 SWAP3 SWAP2 SWAP1 DUP2 DUP2 MSTORE PUSH1 0x20 ADD DUP3 DUP1 SLOAD DUP1 ISZERO PUSH2 0x1109 JUMPI PUSH1 0x20 MUL DUP3 ADD SWAP2 SWAP1 PUSH0 MSTORE PUSH1 0x20 PUSH0 KECCAK256 SWAP1 JUMPDEST DUP2 SLOAD DUP2 MSTORE PUSH1 0x20 ADD SWAP1 PUSH1 0x1 ADD SWAP1 DUP1 DUP4 GT PUSH2 0x10F5 JUMPI JUMPDEST POP POP POP POP POP DUP2 MSTORE PUSH1 0x20 ADD PUSH1 0x2 DUP3 ADD SLOAD DUP2 MSTORE POP POP SWAP1 POP SWAP2 SWAP1 POP JUMP JUMPDEST PUSH0 CALLER SWAP1 POP SWAP1 JUMP JUMPDEST PUSH2 0x1137 DUP4 DUP4 DUP4 PUSH1 0x1 PUSH2 0x1596 JUMP JUMPDEST POP POP POP JUMP JUMPDEST PUSH0 PUSH2 0x1147 DUP5 DUP5 PUSH2 0xEBE JUMP JUMPDEST SWAP1 POP PUSH32 0xFFFFFFFFFFFFFFFFFFFFFFFFFFFFFFFFFFFFFFFFFFFFFFFFFFFFFFFFFFFFFFFF DUP2 EQ PUSH2 0x11C8 JUMPI DUP2 DUP2 LT ISZERO PUSH2 0x11B9 JUMPI DUP3 DUP2 DUP4 PUSH1 0x40 MLOAD PUSH32 0xFB8F41B200000000000000000000000000000000000000000000000000000000 DUP2 MSTORE PUSH1 0x4 ADD PUSH2 0x11B0 SWAP4 SWAP3 SWAP2 SWAP1 PUSH2 0x2438 JUMP JUMPDEST PUSH1 0x40 MLOAD DUP1 SWAP2 SUB SWAP1 REVERT JUMPDEST PUSH2 0x11C7 DUP5 DUP5 DUP5 DUP5 SUB PUSH0 PUSH2 0x1596 JUMP JUMPDEST JUMPDEST POP POP POP POP JUMP JUMPDEST PUSH0 PUSH20 0xFFFFFFFFFFFFFFFFFFFFFFFFFFFFFFFFFFFFFFFF AND DUP4 PUSH20 0xFFFFFFFFFFFFFFFFFFFFFFFFFFFFFFFFFFFFFFFF AND SUB PUSH2 0x123E JUMPI PUSH0 PUSH1 0x40 MLOAD PUSH32 0x96C6FD1E00000000000000000000000000000000000000000000000000000000 DUP2 MSTORE PUSH1 0x4 ADD PUSH2 0x1235 SWAP2 SWAP1 PUSH2 0x1EE6 JUMP JUMPDEST PUSH1 0x40 MLOAD DUP1 SWAP2 SUB SWAP1 REVERT JUMPDEST PUSH0 PUSH20 0xFFFFFFFFFFFFFFFFFFFFFFFFFFFFFFFFFFFFFFFF AND DUP3 PUSH20 0xFFFFFFFFFFFFFFFFFFFFFFFFFFFFFFFFFFFFFFFF AND SUB PUSH2 0x12AE JUMPI PUSH0 PUSH1 0x40 MLOAD PUSH32 0xEC442F0500000000000000000000000000000000000000000000000000000000 DUP2 MSTORE PUSH1 0x4 ADD PUSH2 0x12A5 SWAP2 SWAP1 PUSH2 0x1EE6 JUMP JUMPDEST PUSH1 0x40 MLOAD DUP1 SWAP2 SUB SWAP1 REVERT JUMPDEST PUSH2 0x12B9 DUP4 DUP4 DUP4 PUSH2 0x1765 JUMP JUMPDEST POP POP POP JUMP JUMPDEST PUSH2 0x12C6 PUSH2 0x1123 JUMP JUMPDEST PUSH20 0xFFFFFFFFFFFFFFFFFFFFFFFFFFFFFFFFFFFFFFFF AND PUSH2 0x12E4 PUSH2 0xBEC JUMP JUMPDEST PUSH20 0xFFFFFFFFFFFFFFFFFFFFFFFFFFFFFFFFFFFFFFFF AND EQ PUSH2 0x1343 JUMPI PUSH2 0x1307 PUSH2 0x1123 JUMP JUMPDEST PUSH1 0x40 MLOAD PUSH32 0x118CDAA700000000000000000000000000000000000000000000000000000000 DUP2 MSTORE PUSH1 0x4 ADD PUSH2 0x133A SWAP2 SWAP1 PUSH2 0x1EE6 JUMP JUMPDEST PUSH1 0x40 MLOAD DUP1 SWAP2 SUB SWAP1 REVERT JUMPDEST JUMP JUMPDEST PUSH2 0x134D PUSH2 0x197E JUMP JUMPDEST PUSH0 PUSH1 0x5 PUSH1 0x14 PUSH2 0x100 EXP DUP2 SLOAD DUP2 PUSH1 0xFF MUL NOT AND SWAP1 DUP4 ISZERO ISZERO MUL OR SWAP1 SSTORE POP PUSH32 0x5DB9EE0A495BF2E6FF9C91A7834C1BA4FDD244A5E8AA4E537BD38AEAE4B073AA PUSH2 0x1390 PUSH2 0x1123 JUMP JUMPDEST PUSH1 0x40 MLOAD PUSH2 0x139D SWAP2 SWAP1 PUSH2 0x1EE6 JUMP JUMPDEST PUSH1 0x40 MLOAD DUP1 SWAP2 SUB SWAP1 LOG1 JUMP JUMPDEST PUSH0 PUSH1 0x5 PUSH0 SWAP1 SLOAD SWAP1 PUSH2 0x100 EXP SWAP1 DIV PUSH20 0xFFFFFFFFFFFFFFFFFFFFFFFFFFFFFFFFFFFFFFFF AND SWAP1 POP DUP2 PUSH1 0x5 PUSH0 PUSH2 0x100 EXP DUP2 SLOAD DUP2 PUSH20 0xFFFFFFFFFFFFFFFFFFFFFFFFFFFFFFFFFFFFFFFF MUL NOT AND SWAP1 DUP4 PUSH20 0xFFFFFFFFFFFFFFFFFFFFFFFFFFFFFFFFFFFFFFFF AND MUL OR SWAP1 SSTORE POP DUP2 PUSH20 0xFFFFFFFFFFFFFFFFFFFFFFFFFFFFFFFFFFFFFFFF AND DUP2 PUSH20 0xFFFFFFFFFFFFFFFFFFFFFFFFFFFFFFFFFFFFFFFF AND PUSH32 0x8BE0079C531659141344CD1FD0A4F28419497F9722A3DAAFE3B4186F6B6457E0 PUSH1 0x40 MLOAD PUSH1 0x40 MLOAD DUP1 SWAP2 SUB SWAP1 LOG3 POP POP JUMP JUMPDEST PUSH2 0x1472 PUSH2 0x14CD JUMP JUMPDEST PUSH1 0x1 PUSH1 0x5 PUSH1 0x14 PUSH2 0x100 EXP DUP2 SLOAD DUP2 PUSH1 0xFF MUL NOT AND SWAP1 DUP4 ISZERO ISZERO MUL OR SWAP1 SSTORE POP PUSH32 0x62E78CEA01BEE320CD4E420270B5EA74000D11B0C9F74754EBDBFC544B05A258 PUSH2 0x14B6 PUSH2 0x1123 JUMP JUMPDEST PUSH1 0x40 MLOAD PUSH2 0x14C3 SWAP2 SWAP1 PUSH2 0x1EE6 JUMP JUMPDEST PUSH1 0x40 MLOAD DUP1 SWAP2 SUB SWAP1 LOG1 JUMP JUMPDEST PUSH2 0x14D5 PUSH2 0x88A JUMP JUMPDEST ISZERO PUSH2 0x1515 JUMPI PUSH1 0x40 MLOAD PUSH32 0x8C379A000000000000000000000000000000000000000000000000000000000 DUP2 MSTORE PUSH1 0x4 ADD PUSH2 0x150C SWAP1 PUSH2 0x24B7 JUMP JUMPDEST PUSH1 0x40 MLOAD DUP1 SWAP2 SUB SWAP1 REVERT JUMPDEST JUMP JUMPDEST PUSH0 PUSH20 0xFFFFFFFFFFFFFFFFFFFFFFFFFFFFFFFFFFFFFFFF AND DUP3 PUSH20 0xFFFFFFFFFFFFFFFFFFFFFFFFFFFFFFFFFFFFFFFF AND SUB PUSH2 0x1587 JUMPI PUSH0 PUSH1 0x40 MLOAD PUSH32 0xEC442F0500000000000000000000000000000000000000000000000000000000 DUP2 MSTORE PUSH1 0x4 ADD PUSH2 0x157E SWAP2 SWAP1 PUSH2 0x1EE6 JUMP JUMPDEST PUSH1 0x40 MLOAD DUP1 SWAP2 SUB SWAP1 REVERT JUMPDEST PUSH2 0x1592 PUSH0 DUP4 DUP4 PUSH2 0x1765 JUMP JUMPDEST POP POP JUMP JUMPDEST PUSH0 PUSH20 0xFFFFFFFFFFFFFFFFFFFFFFFFFFFFFFFFFFFFFFFF AND DUP5 PUSH20 0xFFFFFFFFFFFFFFFFFFFFFFFFFFFFFFFFFFFFFFFF AND SUB PUSH2 0x1606 JUMPI PUSH0 PUSH1 0x40 MLOAD PUSH32 0xE602DF0500000000000000000000000000000000000000000000000000000000 DUP2 MSTORE PUSH1 0x4 ADD PUSH2 0x15FD SWAP2 SWAP1 PUSH2 0x1EE6 JUMP JUMPDEST PUSH1 0x40 MLOAD DUP1 SWAP2 SUB SWAP1 REVERT JUMPDEST PUSH0 PUSH20 0xFFFFFFFFFFFFFFFFFFFFFFFFFFFFFFFFFFFFFFFF AND DUP4 PUSH20 0xFFFFFFFFFFFFFFFFFFFFFFFFFFFFFFFFFFFFFFFF AND SUB PUSH2 0x1676 JUMPI PUSH0 PUSH1 0x40 MLOAD PUSH32 0x94280D6200000000000000000000000000000000000000000000000000000000 DUP2 MSTORE PUSH1 0x4 ADD PUSH2 0x166D SWAP2 SWAP1 PUSH2 0x1EE6 JUMP JUMPDEST PUSH1 0x40 MLOAD DUP1 SWAP2 SUB SWAP1 REVERT JUMPDEST DUP2 PUSH1 0x1 PUSH0 DUP7 PUSH20 0xFFFFFFFFFFFFFFFFFFFFFFFFFFFFFFFFFFFFFFFF AND PUSH20 0xFFFFFFFFFFFFFFFFFFFFFFFFFFFFFFFFFFFFFFFF AND DUP2 MSTORE PUSH1 0x20 ADD SWAP1 DUP2 MSTORE PUSH1 0x20 ADD PUSH0 KECCAK256 PUSH0 DUP6 PUSH20 0xFFFFFFFFFFFFFFFFFFFFFFFFFFFFFFFFFFFFFFFF AND PUSH20 0xFFFFFFFFFFFFFFFFFFFFFFFFFFFFFFFFFFFFFFFF AND DUP2 MSTORE PUSH1 0x20 ADD SWAP1 DUP2 MSTORE PUSH1 0x20 ADD PUSH0 KECCAK256 DUP2 SWAP1 SSTORE POP DUP1 ISZERO PUSH2 0x175F JUMPI DUP3 PUSH20 0xFFFFFFFFFFFFFFFFFFFFFFFFFFFFFFFFFFFFFFFF AND DUP5 PUSH20 0xFFFFFFFFFFFFFFFFFFFFFFFFFFFFFFFFFFFFFFFF AND PUSH32 0x8C5BE1E5EBEC7D5BD14F71427D1E84F3DD0314C0F7B2291E5B200AC8C7C3B925 DUP5 PUSH1 0x40 MLOAD PUSH2 0x1756 SWAP2 SWAP1 PUSH2 0x1BFA JUMP JUMPDEST PUSH1 0x40 MLOAD DUP1 SWAP2 SUB SWAP1 LOG3 JUMPDEST POP POP POP POP JUMP JUMPDEST PUSH0 PUSH20 0xFFFFFFFFFFFFFFFFFFFFFFFFFFFFFFFFFFFFFFFF AND DUP4 PUSH20 0xFFFFFFFFFFFFFFFFFFFFFFFFFFFFFFFFFFFFFFFF AND SUB PUSH2 0x17B5 JUMPI DUP1 PUSH1 0x2 PUSH0 DUP3 DUP3 SLOAD PUSH2 0x17A9 SWAP2 SWAP1 PUSH2 0x22CD JUMP JUMPDEST SWAP3 POP POP DUP2 SWAP1 SSTORE POP PUSH2 0x1883 JUMP JUMPDEST PUSH0 DUP1 PUSH0 DUP6 PUSH20 0xFFFFFFFFFFFFFFFFFFFFFFFFFFFFFFFFFFFFFFFF AND PUSH20 0xFFFFFFFFFFFFFFFFFFFFFFFFFFFFFFFFFFFFFFFF AND DUP2 MSTORE PUSH1 0x20 ADD SWAP1 DUP2 MSTORE PUSH1 0x20 ADD PUSH0 KECCAK256 SLOAD SWAP1 POP DUP2 DUP2 LT ISZERO PUSH2 0x183E JUMPI DUP4 DUP2 DUP4 PUSH1 0x40 MLOAD PUSH32 0xE450D38C00000000000000000000000000000000000000000000000000000000 DUP2 MSTORE PUSH1 0x4 ADD PUSH2 0x1835 SWAP4 SWAP3 SWAP2 SWAP1 PUSH2 0x2438 JUMP JUMPDEST PUSH1 0x40 MLOAD DUP1 SWAP2 SUB SWAP1 REVERT JUMPDEST DUP2 DUP2 SUB PUSH0 DUP1 DUP7 PUSH20 0xFFFFFFFFFFFFFFFFFFFFFFFFFFFFFFFFFFFFFFFF AND PUSH20 0xFFFFFFFFFFFFFFFFFFFFFFFFFFFFFFFFFFFFFFFF AND DUP2 MSTORE PUSH1 0x20 ADD SWAP1 DUP2 MSTORE PUSH1 0x20 ADD PUSH0 KECCAK256 DUP2 SWAP1 SSTORE POP POP JUMPDEST PUSH0 PUSH20 0xFFFFFFFFFFFFFFFFFFFFFFFFFFFFFFFFFFFFFFFF AND DUP3 PUSH20 0xFFFFFFFFFFFFFFFFFFFFFFFFFFFFFFFFFFFFFFFF AND SUB PUSH2 0x18CA JUMPI DUP1 PUSH1 0x2 PUSH0 DUP3 DUP3 SLOAD SUB SWAP3 POP POP DUP2 SWAP1 SSTORE POP PUSH2 0x1914 JUMP JUMPDEST DUP1 PUSH0 DUP1 DUP5 PUSH20 0xFFFFFFFFFFFFFFFFFFFFFFFFFFFFFFFFFFFFFFFF AND PUSH20 0xFFFFFFFFFFFFFFFFFFFFFFFFFFFFFFFFFFFFFFFF AND DUP2 MSTORE PUSH1 0x20 ADD SWAP1 DUP2 MSTORE PUSH1 0x20 ADD PUSH0 KECCAK256 PUSH0 DUP3 DUP3 SLOAD ADD SWAP3 POP POP DUP2 SWAP1 SSTORE POP JUMPDEST DUP2 PUSH20 0xFFFFFFFFFFFFFFFFFFFFFFFFFFFFFFFFFFFFFFFF AND DUP4 PUSH20 0xFFFFFFFFFFFFFFFFFFFFFFFFFFFFFFFFFFFFFFFF AND PUSH32 0xDDF252AD1BE2C89B69C2B068FC378DAA952BA7F163C4A11628F55A4DF523B3EF DUP4 PUSH1 0x40 MLOAD PUSH2 0x1971 SWAP2 SWAP1 PUSH2 0x1BFA JUMP JUMPDEST PUSH1 0x40 MLOAD DUP1 SWAP2 SUB SWAP1 LOG3 POP POP POP JUMP JUMPDEST PUSH2 0x1986 PUSH2 0x88A JUMP JUMPDEST PUSH2 0x19C5 JUMPI PUSH1 0x40 MLOAD PUSH32 0x8C379A000000000000000000000000000000000000000000000000000000000 DUP2 MSTORE PUSH1 0x4 ADD PUSH2 0x19BC SWAP1 PUSH2 0x251F JUMP JUMPDEST PUSH1 0x40 MLOAD DUP1 SWAP2 SUB SWAP1 REVERT JUMPDEST JUMP JUMPDEST DUP3 DUP1 SLOAD DUP3 DUP3 SSTORE SWAP1 PUSH0 MSTORE PUSH1 0x20 PUSH0 KECCAK256 SWAP1 DUP2 ADD SWAP3 DUP3 ISZERO PUSH2 0x1A01 JUMPI SWAP2 PUSH1 0x20 MUL DUP3 ADD JUMPDEST DUP3 DUP2 GT ISZERO PUSH2 0x1A00 JUMPI DUP3 MLOAD DUP3 SSTORE SWAP2 PUSH1 0x20 ADD SWAP2 SWAP1 PUSH1 0x1 ADD SWAP1 PUSH2 0x19E5 JUMP JUMPDEST JUMPDEST POP SWAP1 POP PUSH2 0x1A0E SWAP2 SWAP1 PUSH2 0x1A31 JUMP JUMPDEST POP SWAP1 JUMP JUMPDEST PUSH1 0x40 MLOAD DUP1 PUSH1 0x60 ADD PUSH1 0x40 MSTORE DUP1 PUSH0 DUP2 MSTORE PUSH1 0x20 ADD PUSH1 0x60 DUP2 MSTORE PUSH1 0x20 ADD PUSH0 DUP2 MSTORE POP SWAP1 JUMP JUMPDEST JUMPDEST DUP1 DUP3 GT ISZERO PUSH2 0x1A48 JUMPI PUSH0 DUP2 PUSH0 SWAP1 SSTORE POP PUSH1 0x1 ADD PUSH2 0x1A32 JUMP JUMPDEST POP SWAP1 JUMP JUMPDEST PUSH0 DUP2 MLOAD SWAP1 POP SWAP2 SWAP1 POP JUMP JUMPDEST PUSH0 DUP3 DUP3 MSTORE PUSH1 0x20 DUP3 ADD SWAP1 POP SWAP3 SWAP2 POP POP JUMP JUMPDEST DUP3 DUP2 DUP4 MCOPY PUSH0 DUP4 DUP4 ADD MSTORE POP POP POP JUMP JUMPDEST PUSH0 PUSH1 0x1F NOT PUSH1 0x1F DUP4 ADD AND SWAP1 POP SWAP2 SWAP1 POP JUMP JUMPDEST PUSH0 PUSH2 0x1A8E DUP3 PUSH2 0x1A4C JUMP JUMPDEST PUSH2 0x1A98 DUP2 DUP6 PUSH2 0x1A56 JUMP JUMPDEST SWAP4 POP PUSH2 0x1AA8 DUP2 DUP6 PUSH1 0x20 DUP7 ADD PUSH2 0x1A66 JUMP JUMPDEST PUSH2 0x1AB1 DUP2 PUSH2 0x1A74 JUMP JUMPDEST DUP5 ADD SWAP2 POP POP SWAP3 SWAP2 POP POP JUMP JUMPDEST PUSH0 PUSH1 0x20 DUP3 ADD SWAP1 POP DUP2 DUP2 SUB PUSH0 DUP4 ADD MSTORE PUSH2 0x1AD4 DUP2 DUP5 PUSH2 0x1A84 JUMP JUMPDEST SWAP1 POP SWAP3 SWAP2 POP POP JUMP JUMPDEST PUSH0 PUSH1 0x40 MLOAD SWAP1 POP SWAP1 JUMP JUMPDEST PUSH0 DUP1 REVERT JUMPDEST PUSH0 DUP1 REVERT JUMPDEST PUSH0 PUSH20 0xFFFFFFFFFFFFFFFFFFFFFFFFFFFFFFFFFFFFFFFF DUP3 AND SWAP1 POP SWAP2 SWAP1 POP JUMP JUMPDEST PUSH0 PUSH2 0x1B16 DUP3 PUSH2 0x1AED JUMP JUMPDEST SWAP1 POP SWAP2 SWAP1 POP JUMP JUMPDEST PUSH2 0x1B26 DUP2 PUSH2 0x1B0C JUMP JUMPDEST DUP2 EQ PUSH2 0x1B30 JUMPI PUSH0 DUP1 REVERT JUMPDEST POP JUMP JUMPDEST PUSH0 DUP2 CALLDATALOAD SWAP1 POP PUSH2 0x1B41 DUP2 PUSH2 0x1B1D JUMP JUMPDEST SWAP3 SWAP2 POP POP JUMP JUMPDEST PUSH0 DUP2 SWAP1 POP SWAP2 SWAP1 POP JUMP JUMPDEST PUSH2 0x1B59 DUP2 PUSH2 0x1B47 JUMP JUMPDEST DUP2 EQ PUSH2 0x1B63 JUMPI PUSH0 DUP1 REVERT JUMPDEST POP JUMP JUMPDEST PUSH0 DUP2 CALLDATALOAD SWAP1 POP PUSH2 0x1B74 DUP2 PUSH2 0x1B50 JUMP JUMPDEST SWAP3 SWAP2 POP POP JUMP JUMPDEST PUSH0 DUP1 PUSH1 0x40 DUP4 DUP6 SUB SLT ISZERO PUSH2 0x1B90 JUMPI PUSH2 0x1B8F PUSH2 0x1AE5 JUMP JUMPDEST JUMPDEST PUSH0 PUSH2 0x1B9D DUP6 DUP3 DUP7 ADD PUSH2 0x1B33 JUMP JUMPDEST SWAP3 POP POP PUSH1 0x20 PUSH2 0x1BAE DUP6 DUP3 DUP7 ADD PUSH2 0x1B66 JUMP JUMPDEST SWAP2 POP POP SWAP3 POP SWAP3 SWAP1 POP JUMP JUMPDEST PUSH0 DUP2 ISZERO ISZERO SWAP1 POP SWAP2 SWAP1 POP JUMP JUMPDEST PUSH2 0x1BCC DUP2 PUSH2 0x1BB8 JUMP JUMPDEST DUP3 MSTORE POP POP JUMP JUMPDEST PUSH0 PUSH1 0x20 DUP3 ADD SWAP1 POP PUSH2 0x1BE5 PUSH0 DUP4 ADD DUP5 PUSH2 0x1BC3 JUMP JUMPDEST SWAP3 SWAP2 POP POP JUMP JUMPDEST PUSH2 0x1BF4 DUP2 PUSH2 0x1B47 JUMP JUMPDEST DUP3 MSTORE POP POP JUMP JUMPDEST PUSH0 PUSH1 0x20 DUP3 ADD SWAP1 POP PUSH2 0x1C0D PUSH0 DUP4 ADD DUP5 PUSH2 0x1BEB JUMP JUMPDEST SWAP3 SWAP2 POP POP JUMP JUMPDEST PUSH0 DUP1 PUSH0 PUSH1 0x60 DUP5 DUP7 SUB SLT ISZERO PUSH2 0x1C2A JUMPI PUSH2 0x1C29 PUSH2 0x1AE5 JUMP JUMPDEST JUMPDEST PUSH0 PUSH2 0x1C37 DUP7 DUP3 DUP8 ADD PUSH2 0x1B33 JUMP JUMPDEST SWAP4 POP POP PUSH1 0x20 PUSH2 0x1C48 DUP7 DUP3 DUP8 ADD PUSH2 0x1B33 JUMP JUMPDEST SWAP3 POP POP PUSH1 0x40 PUSH2 0x1C59 DUP7 DUP3 DUP8 ADD PUSH2 0x1B66 JUMP JUMPDEST SWAP2 POP POP SWAP3 POP SWAP3 POP SWAP3 JUMP JUMPDEST PUSH0 PUSH1 0xFF DUP3 AND SWAP1 POP SWAP2 SWAP1 POP JUMP JUMPDEST PUSH2 0x1C78 DUP2 PUSH2 0x1C63 JUMP JUMPDEST DUP3 MSTORE POP POP JUMP JUMPDEST PUSH0 PUSH1 0x20 DUP3 ADD SWAP1 POP PUSH2 0x1C91 PUSH0 DUP4 ADD DUP5 PUSH2 0x1C6F JUMP JUMPDEST SWAP3 SWAP2 POP POP JUMP JUMPDEST PUSH0 PUSH1 0x20 DUP3 DUP5 SUB SLT ISZERO PUSH2 0x1CAC JUMPI PUSH2 0x1CAB PUSH2 0x1AE5 JUMP JUMPDEST JUMPDEST PUSH0 PUSH2 0x1CB9 DUP5 DUP3 DUP6 ADD PUSH2 0x1B66 JUMP JUMPDEST SWAP2 POP POP SWAP3 SWAP2 POP POP JUMP JUMPDEST PUSH0 DUP1 REVERT JUMPDEST PUSH32 0x4E487B7100000000000000000000000000000000000000000000000000000000 PUSH0 MSTORE PUSH1 0x41 PUSH1 0x4 MSTORE PUSH1 0x24 PUSH0 REVERT JUMPDEST PUSH2 0x1CFC DUP3 PUSH2 0x1A74 JUMP JUMPDEST DUP2 ADD DUP2 DUP2 LT PUSH8 0xFFFFFFFFFFFFFFFF DUP3 GT OR ISZERO PUSH2 0x1D1B JUMPI PUSH2 0x1D1A PUSH2 0x1CC6 JUMP JUMPDEST JUMPDEST DUP1 PUSH1 0x40 MSTORE POP POP POP JUMP JUMPDEST PUSH0 PUSH2 0x1D2D PUSH2 0x1ADC JUMP JUMPDEST SWAP1 POP PUSH2 0x1D39 DUP3 DUP3 PUSH2 0x1CF3 JUMP JUMPDEST SWAP2 SWAP1 POP JUMP JUMPDEST PUSH0 PUSH8 0xFFFFFFFFFFFFFFFF DUP3 GT ISZERO PUSH2 0x1D58 JUMPI PUSH2 0x1D57 PUSH2 0x1CC6 JUMP JUMPDEST JUMPDEST PUSH1 0x20 DUP3 MUL SWAP1 POP PUSH1 0x20 DUP2 ADD SWAP1 POP SWAP2 SWAP1 POP JUMP JUMPDEST PUSH0 DUP1 REVERT JUMPDEST PUSH0 PUSH2 0x1D7F PUSH2 0x1D7A DUP5 PUSH2 0x1D3E JUMP JUMPDEST PUSH2 0x1D24 JUMP JUMPDEST SWAP1 POP DUP1 DUP4 DUP3 MSTORE PUSH1 0x20 DUP3 ADD SWAP1 POP PUSH1 0x20 DUP5 MUL DUP4 ADD DUP6 DUP2 GT ISZERO PUSH2 0x1DA2 JUMPI PUSH2 0x1DA1 PUSH2 0x1D69 JUMP JUMPDEST JUMPDEST DUP4 JUMPDEST DUP2 DUP2 LT ISZERO PUSH2 0x1DCB JUMPI DUP1 PUSH2 0x1DB7 DUP9 DUP3 PUSH2 0x1B66 JUMP JUMPDEST DUP5 MSTORE PUSH1 0x20 DUP5 ADD SWAP4 POP POP PUSH1 0x20 DUP2 ADD SWAP1 POP PUSH2 0x1DA4 JUMP JUMPDEST POP POP POP SWAP4 SWAP3 POP POP POP JUMP JUMPDEST PUSH0 DUP3 PUSH1 0x1F DUP4 ADD SLT PUSH2 0x1DE9 JUMPI PUSH2 0x1DE8 PUSH2 0x1CC2 JUMP JUMPDEST JUMPDEST DUP2 CALLDATALOAD PUSH2 0x1DF9 DUP5 DUP3 PUSH1 0x20 DUP7 ADD PUSH2 0x1D6D JUMP JUMPDEST SWAP2 POP POP SWAP3 SWAP2 POP POP JUMP JUMPDEST PUSH0 DUP1 PUSH0 PUSH1 0x60 DUP5 DUP7 SUB SLT ISZERO PUSH2 0x1E19 JUMPI PUSH2 0x1E18 PUSH2 0x1AE5 JUMP JUMPDEST JUMPDEST PUSH0 PUSH2 0x1E26 DUP7 DUP3 DUP8 ADD PUSH2 0x1B66 JUMP JUMPDEST SWAP4 POP POP PUSH1 0x20 DUP5 ADD CALLDATALOAD PUSH8 0xFFFFFFFFFFFFFFFF DUP2 GT ISZERO PUSH2 0x1E47 JUMPI PUSH2 0x1E46 PUSH2 0x1AE9 JUMP JUMPDEST JUMPDEST PUSH2 0x1E53 DUP7 DUP3 DUP8 ADD PUSH2 0x1DD5 JUMP JUMPDEST SWAP3 POP POP PUSH1 0x40 PUSH2 0x1E64 DUP7 DUP3 DUP8 ADD PUSH2 0x1B66 JUMP JUMPDEST SWAP2 POP POP SWAP3 POP SWAP3 POP SWAP3 JUMP JUMPDEST PUSH0 DUP1 PUSH1 0x40 DUP4 DUP6 SUB SLT ISZERO PUSH2 0x1E84 JUMPI PUSH2 0x1E83 PUSH2 0x1AE5 JUMP JUMPDEST JUMPDEST PUSH0 PUSH2 0x1E91 DUP6 DUP3 DUP7 ADD PUSH2 0x1B66 JUMP JUMPDEST SWAP3 POP POP PUSH1 0x20 PUSH2 0x1EA2 DUP6 DUP3 DUP7 ADD PUSH2 0x1B33 JUMP JUMPDEST SWAP2 POP POP SWAP3 POP SWAP3 SWAP1 POP JUMP JUMPDEST PUSH0 PUSH1 0x20 DUP3 DUP5 SUB SLT ISZERO PUSH2 0x1EC1 JUMPI PUSH2 0x1EC0 PUSH2 0x1AE5 JUMP JUMPDEST JUMPDEST PUSH0 PUSH2 0x1ECE DUP5 DUP3 DUP6 ADD PUSH2 0x1B33 JUMP JUMPDEST SWAP2 POP POP SWAP3 SWAP2 POP POP JUMP JUMPDEST PUSH2 0x1EE0 DUP2 PUSH2 0x1B0C JUMP JUMPDEST DUP3 MSTORE POP POP JUMP JUMPDEST PUSH0 PUSH1 0x20 DUP3 ADD SWAP1 POP PUSH2 0x1EF9 PUSH0 DUP4 ADD DUP5 PUSH2 0x1ED7 JUMP JUMPDEST SWAP3 SWAP2 POP POP JUMP JUMPDEST PUSH0 DUP1 PUSH0 PUSH1 0x60 DUP5 DUP7 SUB SLT ISZERO PUSH2 0x1F16 JUMPI PUSH2 0x1F15 PUSH2 0x1AE5 JUMP JUMPDEST JUMPDEST PUSH0 PUSH2 0x1F23 DUP7 DUP3 DUP8 ADD PUSH2 0x1B66 JUMP JUMPDEST SWAP4 POP POP PUSH1 0x20 PUSH2 0x1F34 DUP7 DUP3 DUP8 ADD PUSH2 0x1B33 JUMP JUMPDEST SWAP3 POP POP PUSH1 0x40 PUSH2 0x1F45 DUP7 DUP3 DUP8 ADD PUSH2 0x1B66 JUMP JUMPDEST SWAP2 POP POP SWAP3 POP SWAP3 POP SWAP3 JUMP JUMPDEST PUSH0 PUSH1 0x40 DUP3 ADD SWAP1 POP PUSH2 0x1F62 PUSH0 DUP4 ADD DUP6 PUSH2 0x1BEB JUMP JUMPDEST PUSH2 0x1F6F PUSH1 0x20 DUP4 ADD DUP5 PUSH2 0x1BEB JUMP JUMPDEST SWAP4 SWAP3 POP POP POP JUMP JUMPDEST PUSH0 DUP1 PUSH1 0x40 DUP4 DUP6 SUB SLT ISZERO PUSH2 0x1F8C JUMPI PUSH2 0x1F8B PUSH2 0x1AE5 JUMP JUMPDEST JUMPDEST PUSH0 PUSH2 0x1F99 DUP6 DUP3 DUP7 ADD PUSH2 0x1B33 JUMP JUMPDEST SWAP3 POP POP PUSH1 0x20 PUSH2 0x1FAA DUP6 DUP3 DUP7 ADD PUSH2 0x1B33 JUMP JUMPDEST SWAP2 POP POP SWAP3 POP SWAP3 SWAP1 POP JUMP JUMPDEST PUSH2 0x1FBD DUP2 PUSH2 0x1B47 JUMP JUMPDEST DUP3 MSTORE POP POP JUMP JUMPDEST PUSH0 DUP2 MLOAD SWAP1 POP SWAP2 SWAP1 POP JUMP JUMPDEST PUSH0 DUP3 DUP3 MSTORE PUSH1 0x20 DUP3 ADD SWAP1 POP SWAP3 SWAP2 POP POP JUMP JUMPDEST PUSH0 DUP2 SWAP1 POP PUSH1 0x20 DUP3 ADD SWAP1 POP SWAP2 SWAP1 POP JUMP JUMPDEST PUSH0 PUSH2 0x1FF7 DUP4 DUP4 PUSH2 0x1FB4 JUMP JUMPDEST PUSH1 0x20 DUP4 ADD SWAP1 POP SWAP3 SWAP2 POP POP JUMP JUMPDEST PUSH0 PUSH1 0x20 DUP3 ADD SWAP1 POP SWAP2 SWAP1 POP JUMP JUMPDEST PUSH0 PUSH2 0x2019 DUP3 PUSH2 0x1FC3 JUMP JUMPDEST PUSH2 0x2023 DUP2 DUP6 PUSH2 0x1FCD JUMP JUMPDEST SWAP4 POP PUSH2 0x202E DUP4 PUSH2 0x1FDD JUMP JUMPDEST DUP1 PUSH0 JUMPDEST DUP4 DUP2 LT ISZERO PUSH2 0x205E JUMPI DUP2 MLOAD PUSH2 0x2045 DUP9 DUP3 PUSH2 0x1FEC JUMP JUMPDEST SWAP8 POP PUSH2 0x2050 DUP4 PUSH2 0x2003 JUMP JUMPDEST SWAP3 POP POP PUSH1 0x1 DUP2 ADD SWAP1 POP PUSH2 0x2031 JUMP JUMPDEST POP DUP6 SWAP4 POP POP POP POP SWAP3 SWAP2 POP POP JUMP JUMPDEST PUSH0 PUSH1 0x60 DUP4 ADD PUSH0 DUP4 ADD MLOAD PUSH2 0x2080 PUSH0 DUP7 ADD DUP3 PUSH2 0x1FB4 JUMP JUMPDEST POP PUSH1 0x20 DUP4 ADD MLOAD DUP5 DUP3 SUB PUSH1 0x20 DUP7 ADD MSTORE PUSH2 0x2098 DUP3 DUP3 PUSH2 0x200F JUMP JUMPDEST SWAP2 POP POP PUSH1 0x40 DUP4 ADD MLOAD PUSH2 0x20AD PUSH1 0x40 DUP7 ADD DUP3 PUSH2 0x1FB4 JUMP JUMPDEST POP DUP1 SWAP2 POP POP SWAP3 SWAP2 POP POP JUMP JUMPDEST PUSH0 PUSH1 0x20 DUP3 ADD SWAP1 POP DUP2 DUP2 SUB PUSH0 DUP4 ADD MSTORE PUSH2 0x20D0 DUP2 DUP5 PUSH2 0x206B JUMP JUMPDEST SWAP1 POP SWAP3 SWAP2 POP POP JUMP JUMPDEST PUSH32 0x4E487B7100000000000000000000000000000000000000000000000000000000 PUSH0 MSTORE PUSH1 0x22 PUSH1 0x4 MSTORE PUSH1 0x24 PUSH0 REVERT JUMPDEST PUSH0 PUSH1 0x2 DUP3 DIV SWAP1 POP PUSH1 0x1 DUP3 AND DUP1 PUSH2 0x211C JUMPI PUSH1 0x7F DUP3 AND SWAP2 POP JUMPDEST PUSH1 0x20 DUP3 LT DUP2 SUB PUSH2 0x212F JUMPI PUSH2 0x212E PUSH2 0x20D8 JUMP JUMPDEST JUMPDEST POP SWAP2 SWAP1 POP JUMP JUMPDEST PUSH32 0x496E76616C6964206F776E657220616464726573730000000000000000000000 PUSH0 DUP3 ADD MSTORE POP JUMP JUMPDEST PUSH0 PUSH2 0x2169 PUSH1 0x15 DUP4 PUSH2 0x1A56 JUMP JUMPDEST SWAP2 POP PUSH2 0x2174 DUP3 PUSH2 0x2135 JUMP JUMPDEST PUSH1 0x20 DUP3 ADD SWAP1 POP SWAP2 SWAP1 POP JUMP JUMPDEST PUSH0 PUSH1 0x20 DUP3 ADD SWAP1 POP DUP2 DUP2 SUB PUSH0 DUP4 ADD MSTORE PUSH2 0x2196 DUP2 PUSH2 0x215D JUMP JUMPDEST SWAP1 POP SWAP2 SWAP1 POP JUMP JUMPDEST PUSH32 0x496E76616C696420726563697069656E74206164647265737300000000000000 PUSH0 DUP3 ADD MSTORE POP JUMP JUMPDEST PUSH0 PUSH2 0x21D1 PUSH1 0x19 DUP4 PUSH2 0x1A56 JUMP JUMPDEST SWAP2 POP PUSH2 0x21DC DUP3 PUSH2 0x219D JUMP JUMPDEST PUSH1 0x20 DUP3 ADD SWAP1 POP SWAP2 SWAP1 POP JUMP JUMPDEST PUSH0 PUSH1 0x20 DUP3 ADD SWAP1 POP DUP2 DUP2 SUB PUSH0 DUP4 ADD MSTORE PUSH2 0x21FE DUP2 PUSH2 0x21C5 JUMP JUMPDEST SWAP1 POP SWAP2 SWAP1 POP JUMP JUMPDEST PUSH32 0x4E6F7420656E6F7567682073686172657320746F207472616E73666572000000 PUSH0 DUP3 ADD MSTORE POP JUMP JUMPDEST PUSH0 PUSH2 0x2239 PUSH1 0x1D DUP4 PUSH2 0x1A56 JUMP JUMPDEST SWAP2 POP PUSH2 0x2244 DUP3 PUSH2 0x2205 JUMP JUMPDEST PUSH1 0x20 DUP3 ADD SWAP1 POP SWAP2 SWAP1 POP JUMP JUMPDEST PUSH0 PUSH1 0x20 DUP3 ADD SWAP1 POP DUP2 DUP2 SUB PUSH0 DUP4 ADD MSTORE PUSH2 0x2266 DUP2 PUSH2 0x222D JUMP JUMPDEST SWAP1 POP SWAP2 SWAP1 POP JUMP JUMPDEST PUSH32 0x4E487B7100000000000000000000000000000000000000000000000000000000 PUSH0 MSTORE PUSH1 0x11 PUSH1 0x4 MSTORE PUSH1 0x24 PUSH0 REVERT JUMPDEST PUSH0 PUSH2 0x22A4 DUP3 PUSH2 0x1B47 JUMP JUMPDEST SWAP2 POP PUSH2 0x22AF DUP4 PUSH2 0x1B47 JUMP JUMPDEST SWAP3 POP DUP3 DUP3 SUB SWAP1 POP DUP2 DUP2 GT ISZERO PUSH2 0x22C7 JUMPI PUSH2 0x22C6 PUSH2 0x226D JUMP JUMPDEST JUMPDEST SWAP3 SWAP2 POP POP JUMP JUMPDEST PUSH0 PUSH2 0x22D7 DUP3 PUSH2 0x1B47 JUMP JUMPDEST SWAP2 POP PUSH2 0x22E2 DUP4 PUSH2 0x1B47 JUMP JUMPDEST SWAP3 POP DUP3 DUP3 ADD SWAP1 POP DUP1 DUP3 GT ISZERO PUSH2 0x22FA JUMPI PUSH2 0x22F9 PUSH2 0x226D JUMP JUMPDEST JUMPDEST SWAP3 SWAP2 POP POP JUMP JUMPDEST PUSH32 0x536861726573206D7573742062652067726561746572207468616E2030000000 PUSH0 DUP3 ADD MSTORE POP JUMP JUMPDEST PUSH0 PUSH2 0x2334 PUSH1 0x1D DUP4 PUSH2 0x1A56 JUMP JUMPDEST SWAP2 POP PUSH2 0x233F DUP3 PUSH2 0x2300 JUMP JUMPDEST PUSH1 0x20 DUP3 ADD SWAP1 POP SWAP2 SWAP1 POP JUMP JUMPDEST PUSH0 PUSH1 0x20 DUP3 ADD SWAP1 POP DUP2 DUP2 SUB PUSH0 DUP4 ADD MSTORE PUSH2 0x2361 DUP2 PUSH2 0x2328 JUMP JUMPDEST SWAP1 POP SWAP2 SWAP1 POP JUMP JUMPDEST PUSH32 0x4E6F7420656E6F7567682073686172657320617661696C61626C650000000000 PUSH0 DUP3 ADD MSTORE POP JUMP JUMPDEST PUSH0 PUSH2 0x239C PUSH1 0x1B DUP4 PUSH2 0x1A56 JUMP JUMPDEST SWAP2 POP PUSH2 0x23A7 DUP3 PUSH2 0x2368 JUMP JUMPDEST PUSH1 0x20 DUP3 ADD SWAP1 POP SWAP2 SWAP1 POP JUMP JUMPDEST PUSH0 PUSH1 0x20 DUP3 ADD SWAP1 POP DUP2 DUP2 SUB PUSH0 DUP4 ADD MSTORE PUSH2 0x23C9 DUP2 PUSH2 0x2390 JUMP JUMPDEST SWAP1 POP SWAP2 SWAP1 POP JUMP JUMPDEST PUSH32 0x496E73756666696369656E742073686172657320617661696C61626C65000000 PUSH0 DUP3 ADD MSTORE POP JUMP JUMPDEST PUSH0 PUSH2 0x2404 PUSH1 0x1D DUP4 PUSH2 0x1A56 JUMP JUMPDEST SWAP2 POP PUSH2 0x240F DUP3 PUSH2 0x23D0 JUMP JUMPDEST PUSH1 0x20 DUP3 ADD SWAP1 POP SWAP2 SWAP1 POP JUMP JUMPDEST PUSH0 PUSH1 0x20 DUP3 ADD SWAP1 POP DUP2 DUP2 SUB PUSH0 DUP4 ADD MSTORE PUSH2 0x2431 DUP2 PUSH2 0x23F8 JUMP JUMPDEST SWAP1 POP SWAP2 SWAP1 POP JUMP JUMPDEST PUSH0 PUSH1 0x60 DUP3 ADD SWAP1 POP PUSH2 0x244B PUSH0 DUP4 ADD DUP7 PUSH2 0x1ED7 JUMP JUMPDEST PUSH2 0x2458 PUSH1 0x20 DUP4 ADD DUP6 PUSH2 0x1BEB JUMP JUMPDEST PUSH2 0x2465 PUSH1 0x40 DUP4 ADD DUP5 PUSH2 0x1BEB JUMP JUMPDEST SWAP5 SWAP4 POP POP POP POP JUMP JUMPDEST PUSH32 0x5061757361626C653A2070617573656400000000000000000000000000000000 PUSH0 DUP3 ADD MSTORE POP JUMP JUMPDEST PUSH0 PUSH2 0x24A1 PUSH1 0x10 DUP4 PUSH2 0x1A56 JUMP JUMPDEST SWAP2 POP PUSH2 0x24AC DUP3 PUSH2 0x246D JUMP JUMPDEST PUSH1 0x20 DUP3 ADD SWAP1 POP SWAP2 SWAP1 POP JUMP JUMPDEST PUSH0 PUSH1 0x20 DUP3 ADD SWAP1 POP DUP2 DUP2 SUB PUSH0 DUP4 ADD MSTORE PUSH2 0x24CE DUP2 PUSH2 0x2495 JUMP JUMPDEST SWAP1 POP SWAP2 SWAP1 POP JUMP JUMPDEST PUSH32 0x5061757361626C653A206E6F7420706175736564000000000000000000000000 PUSH0 DUP3 ADD MSTORE POP JUMP JUMPDEST PUSH0 PUSH2 0x2509 PUSH1 0x14 DUP4 PUSH2 0x1A56 JUMP JUMPDEST SWAP2 POP PUSH2 0x2514 DUP3 PUSH2 0x24D5 JUMP JUMPDEST PUSH1 0x20 DUP3 ADD SWAP1 POP SWAP2 SWAP1 POP JUMP JUMPDEST PUSH0 PUSH1 0x20 DUP3 ADD SWAP1 POP DUP2 DUP2 SUB PUSH0 DUP4 ADD MSTORE PUSH2 0x2536 DUP2 PUSH2 0x24FD JUMP JUMPDEST SWAP1 POP SWAP2 SWAP1 POP JUMP INVALID LOG2 PUSH5 0x6970667358 0x22 SLT KECCAK256 DUP11 ORIGIN DUP9 0xBE DUP2 0xAC OR SUB 0x4B 0xBE BYTE CALL 0xDB MUL 0xBA PUSH11 0x69E546275E1D6032A6813F BASEFEE PUSH30 0x83739364736F6C634300081A003300000000000000000000000000000000 "
				},
				"gasEstimates": {
					"creation": {
						"codeDepositCost": "1917400",
						"executionCost": "infinite",
						"totalCost": "infinite"
					},
					"external": {
						"allowance(address,address)": "infinite",
						"approve(address,uint256)": "infinite",
						"balanceOf(address)": "2874",
						"basketShares(uint256)": "infinite",
						"baskets(uint256)": "infinite",
						"createBasket(uint256,uint256[],uint256)": "infinite",
						"decimals()": "406",
						"getAvailableShares(uint256)": "infinite",
						"getBasketDetails(uint256)": "infinite",
						"getPropertyOwner(uint256)": "2918",
						"getShares(uint256,address)": "infinite",
						"getTotalShares(uint256)": "infinite",
						"integrateWithExternalSystem(uint256)": "711",
						"issuePropertyShares(uint256,address,uint256)": "infinite",
						"issueShares(uint256,address,uint256)": "infinite",
						"name()": "infinite",
						"owner()": "2560",
						"pause()": "infinite",
						"paused()": "2614",
						"propertyOwners(uint256)": "2938",
						"propertyShares(uint256)": "infinite",
						"renounceOwnership()": "infinite",
						"setPropertyOwner(uint256,address)": "infinite",
						"symbol()": "infinite",
						"totalSupply()": "2523",
						"transfer(address,uint256)": "infinite",
						"transferFrom(address,address,uint256)": "infinite",
						"transferOwnership(address)": "infinite",
						"transferShares(uint256,address,uint256)": "infinite",
						"unpause()": "infinite"
					}
				},
				"methodIdentifiers": {
					"allowance(address,address)": "dd62ed3e",
					"approve(address,uint256)": "095ea7b3",
					"balanceOf(address)": "70a08231",
					"basketShares(uint256)": "4885cf0a",
					"baskets(uint256)": "a60ed374",
					"createBasket(uint256,uint256[],uint256)": "51111b72",
					"decimals()": "313ce567",
					"getAvailableShares(uint256)": "dcd9d12d",
					"getBasketDetails(uint256)": "ff03e8c2",
					"getPropertyOwner(uint256)": "e34fc531",
					"getShares(uint256,address)": "75c0b9fe",
					"getTotalShares(uint256)": "85fff858",
					"integrateWithExternalSystem(uint256)": "5dfe7721",
					"issuePropertyShares(uint256,address,uint256)": "b543cf38",
					"issueShares(uint256,address,uint256)": "dd8aa6f6",
					"name()": "06fdde03",
					"owner()": "8da5cb5b",
					"pause()": "8456cb59",
					"paused()": "5c975abb",
					"propertyOwners(uint256)": "7f2af083",
					"propertyShares(uint256)": "b7b551ed",
					"renounceOwnership()": "715018a6",
					"setPropertyOwner(uint256,address)": "5813a683",
					"symbol()": "95d89b41",
					"totalSupply()": "18160ddd",
					"transfer(address,uint256)": "a9059cbb",
					"transferFrom(address,address,uint256)": "23b872dd",
					"transferOwnership(address)": "f2fde38b",
					"transferShares(uint256,address,uint256)": "84b9a6e6",
					"unpause()": "3f4ba83a"
				}
			},
			"storageLayout": {
				"storage": [
					{
						"astId": 415,
						"contract": "contracts/real-estate-marketplace/Shares.sol:Shares",
						"label": "_balances",
						"offset": 0,
						"slot": "0",
						"type": "t_mapping(t_address,t_uint256)"
					},
					{
						"astId": 421,
						"contract": "contracts/real-estate-marketplace/Shares.sol:Shares",
						"label": "_allowances",
						"offset": 0,
						"slot": "1",
						"type": "t_mapping(t_address,t_mapping(t_address,t_uint256))"
					},
					{
						"astId": 423,
						"contract": "contracts/real-estate-marketplace/Shares.sol:Shares",
						"label": "_totalSupply",
						"offset": 0,
						"slot": "2",
						"type": "t_uint256"
					},
					{
						"astId": 425,
						"contract": "contracts/real-estate-marketplace/Shares.sol:Shares",
						"label": "_name",
						"offset": 0,
						"slot": "3",
						"type": "t_string_storage"
					},
					{
						"astId": 427,
						"contract": "contracts/real-estate-marketplace/Shares.sol:Shares",
						"label": "_symbol",
						"offset": 0,
						"slot": "4",
						"type": "t_string_storage"
					},
					{
						"astId": 8,
						"contract": "contracts/real-estate-marketplace/Shares.sol:Shares",
						"label": "_owner",
						"offset": 0,
						"slot": "5",
						"type": "t_address"
					},
					{
						"astId": 302,
						"contract": "contracts/real-estate-marketplace/Shares.sol:Shares",
						"label": "_paused",
						"offset": 20,
						"slot": "5",
						"type": "t_bool"
					},
					{
						"astId": 2716,
						"contract": "contracts/real-estate-marketplace/Shares.sol:Shares",
						"label": "baskets",
						"offset": 0,
						"slot": "6",
						"type": "t_mapping(t_uint256,t_struct(ShareBasket)2702_storage)"
					},
					{
						"astId": 2720,
						"contract": "contracts/real-estate-marketplace/Shares.sol:Shares",
						"label": "basketShares",
						"offset": 0,
						"slot": "7",
						"type": "t_mapping(t_uint256,t_uint256)"
					},
					{
						"astId": 2725,
						"contract": "contracts/real-estate-marketplace/Shares.sol:Shares",
						"label": "propertyShares",
						"offset": 0,
						"slot": "8",
						"type": "t_mapping(t_uint256,t_struct(PropertyShares)2711_storage)"
					},
					{
						"astId": 2729,
						"contract": "contracts/real-estate-marketplace/Shares.sol:Shares",
						"label": "propertyOwners",
						"offset": 0,
						"slot": "9",
						"type": "t_mapping(t_uint256,t_address)"
					}
				],
				"types": {
					"t_address": {
						"encoding": "inplace",
						"label": "address",
						"numberOfBytes": "20"
					},
					"t_array(t_uint256)dyn_storage": {
						"base": "t_uint256",
						"encoding": "dynamic_array",
						"label": "uint256[]",
						"numberOfBytes": "32"
					},
					"t_bool": {
						"encoding": "inplace",
						"label": "bool",
						"numberOfBytes": "1"
					},
					"t_mapping(t_address,t_mapping(t_address,t_uint256))": {
						"encoding": "mapping",
						"key": "t_address",
						"label": "mapping(address => mapping(address => uint256))",
						"numberOfBytes": "32",
						"value": "t_mapping(t_address,t_uint256)"
					},
					"t_mapping(t_address,t_uint256)": {
						"encoding": "mapping",
						"key": "t_address",
						"label": "mapping(address => uint256)",
						"numberOfBytes": "32",
						"value": "t_uint256"
					},
					"t_mapping(t_uint256,t_address)": {
						"encoding": "mapping",
						"key": "t_uint256",
						"label": "mapping(uint256 => address)",
						"numberOfBytes": "32",
						"value": "t_address"
					},
					"t_mapping(t_uint256,t_struct(PropertyShares)2711_storage)": {
						"encoding": "mapping",
						"key": "t_uint256",
						"label": "mapping(uint256 => struct Shares.PropertyShares)",
						"numberOfBytes": "32",
						"value": "t_struct(PropertyShares)2711_storage"
					},
					"t_mapping(t_uint256,t_struct(ShareBasket)2702_storage)": {
						"encoding": "mapping",
						"key": "t_uint256",
						"label": "mapping(uint256 => struct Shares.ShareBasket)",
						"numberOfBytes": "32",
						"value": "t_struct(ShareBasket)2702_storage"
					},
					"t_mapping(t_uint256,t_uint256)": {
						"encoding": "mapping",
						"key": "t_uint256",
						"label": "mapping(uint256 => uint256)",
						"numberOfBytes": "32",
						"value": "t_uint256"
					},
					"t_string_storage": {
						"encoding": "bytes",
						"label": "string",
						"numberOfBytes": "32"
					},
					"t_struct(PropertyShares)2711_storage": {
						"encoding": "inplace",
						"label": "struct Shares.PropertyShares",
						"members": [
							{
								"astId": 2704,
								"contract": "contracts/real-estate-marketplace/Shares.sol:Shares",
								"label": "totalShares",
								"offset": 0,
								"slot": "0",
								"type": "t_uint256"
							},
							{
								"astId": 2706,
								"contract": "contracts/real-estate-marketplace/Shares.sol:Shares",
								"label": "availableShares",
								"offset": 0,
								"slot": "1",
								"type": "t_uint256"
							},
							{
								"astId": 2710,
								"contract": "contracts/real-estate-marketplace/Shares.sol:Shares",
								"label": "shareholders",
								"offset": 0,
								"slot": "2",
								"type": "t_mapping(t_address,t_uint256)"
							}
						],
						"numberOfBytes": "96"
					},
					"t_struct(ShareBasket)2702_storage": {
						"encoding": "inplace",
						"label": "struct Shares.ShareBasket",
						"members": [
							{
								"astId": 2696,
								"contract": "contracts/real-estate-marketplace/Shares.sol:Shares",
								"label": "basketId",
								"offset": 0,
								"slot": "0",
								"type": "t_uint256"
							},
							{
								"astId": 2699,
								"contract": "contracts/real-estate-marketplace/Shares.sol:Shares",
								"label": "propertyIds",
								"offset": 0,
								"slot": "1",
								"type": "t_array(t_uint256)dyn_storage"
							},
							{
								"astId": 2701,
								"contract": "contracts/real-estate-marketplace/Shares.sol:Shares",
								"label": "totalShares",
								"offset": 0,
								"slot": "2",
								"type": "t_uint256"
							}
						],
						"numberOfBytes": "96"
					},
					"t_uint256": {
						"encoding": "inplace",
						"label": "uint256",
						"numberOfBytes": "32"
					}
				}
			},
			"userdoc": {
				"kind": "user",
				"methods": {},
				"version": 1
			}
		}
	}
}