{
	"contracts/real-estate-marketplace/Escrow.sol": {
		"Escrow": {
			"abi": [
				{
					"inputs": [
						{
							"internalType": "address",
							"name": "_propertyContract",
							"type": "address"
						},
						{
							"internalType": "address",
							"name": "_sharesContract",
							"type": "address"
						}
					],
					"stateMutability": "nonpayable",
					"type": "constructor"
				},
				{
					"inputs": [],
					"name": "EnforcedPause",
					"type": "error"
				},
				{
					"inputs": [],
					"name": "ExpectedPause",
					"type": "error"
				},
				{
					"inputs": [
						{
							"internalType": "address",
							"name": "owner",
							"type": "address"
						}
					],
					"name": "OwnableInvalidOwner",
					"type": "error"
				},
				{
					"inputs": [
						{
							"internalType": "address",
							"name": "account",
							"type": "address"
						}
					],
					"name": "OwnableUnauthorizedAccount",
					"type": "error"
				},
				{
					"anonymous": false,
					"inputs": [
						{
							"indexed": true,
							"internalType": "address",
							"name": "previousOwner",
							"type": "address"
						},
						{
							"indexed": true,
							"internalType": "address",
							"name": "newOwner",
							"type": "address"
						}
					],
					"name": "OwnershipTransferred",
					"type": "event"
				},
				{
					"anonymous": false,
					"inputs": [
						{
							"indexed": false,
							"internalType": "address",
							"name": "account",
							"type": "address"
						}
					],
					"name": "Paused",
					"type": "event"
				},
				{
					"anonymous": false,
					"inputs": [
						{
							"indexed": false,
							"internalType": "uint256",
							"name": "transactionId",
							"type": "uint256"
						}
					],
					"name": "TransactionCompleted",
					"type": "event"
				},
				{
					"anonymous": false,
					"inputs": [
						{
							"indexed": false,
							"internalType": "uint256",
							"name": "transactionId",
							"type": "uint256"
						},
						{
							"indexed": true,
							"internalType": "address",
							"name": "buyer",
							"type": "address"
						},
						{
							"indexed": true,
							"internalType": "address",
							"name": "seller",
							"type": "address"
						},
						{
							"indexed": false,
							"internalType": "uint256",
							"name": "basketId",
							"type": "uint256"
						},
						{
							"indexed": false,
							"internalType": "uint256",
							"name": "amount",
							"type": "uint256"
						}
					],
					"name": "TransactionCreated",
					"type": "event"
				},
				{
					"anonymous": false,
					"inputs": [
						{
							"indexed": false,
							"internalType": "uint256",
							"name": "transactionId",
							"type": "uint256"
						},
						{
							"indexed": false,
							"internalType": "string",
							"name": "reason",
							"type": "string"
						}
					],
					"name": "TransactionDisputed",
					"type": "event"
				},
				{
					"anonymous": false,
					"inputs": [
						{
							"indexed": false,
							"internalType": "uint256",
							"name": "transactionId",
							"type": "uint256"
						}
					],
					"name": "TransactionRefunded",
					"type": "event"
				},
				{
					"anonymous": false,
					"inputs": [
						{
							"indexed": false,
							"internalType": "address",
							"name": "account",
							"type": "address"
						}
					],
					"name": "Unpaused",
					"type": "event"
				},
				{
					"inputs": [
						{
							"internalType": "uint256",
							"name": "transactionId",
							"type": "uint256"
						}
					],
					"name": "completeTransaction",
					"outputs": [],
					"stateMutability": "nonpayable",
					"type": "function"
				},
				{
					"inputs": [
						{
							"internalType": "address",
							"name": "seller",
							"type": "address"
						},
						{
							"internalType": "uint256",
							"name": "basketId",
							"type": "uint256"
						}
					],
					"name": "createTransaction",
					"outputs": [],
					"stateMutability": "payable",
					"type": "function"
				},
				{
					"inputs": [
						{
							"internalType": "uint256",
							"name": "transactionId",
							"type": "uint256"
						},
						{
							"internalType": "string",
							"name": "reason",
							"type": "string"
						}
					],
					"name": "disputeTransaction",
					"outputs": [],
					"stateMutability": "nonpayable",
					"type": "function"
				},
				{
					"inputs": [
						{
							"internalType": "uint256",
							"name": "transactionId",
							"type": "uint256"
						}
					],
					"name": "getTransaction",
					"outputs": [
						{
							"internalType": "address",
							"name": "buyer",
							"type": "address"
						},
						{
							"internalType": "address",
							"name": "seller",
							"type": "address"
						},
						{
							"internalType": "uint256",
							"name": "basketId",
							"type": "uint256"
						},
						{
							"internalType": "uint256",
							"name": "amount",
							"type": "uint256"
						},
						{
							"internalType": "enum Escrow.EscrowState",
							"name": "state",
							"type": "uint8"
						},
						{
							"internalType": "uint256",
							"name": "createdAt",
							"type": "uint256"
						},
						{
							"internalType": "uint256",
							"name": "updatedAt",
							"type": "uint256"
						},
						{
							"internalType": "string",
							"name": "disputeReason",
							"type": "string"
						}
					],
					"stateMutability": "view",
					"type": "function"
				},
				{
					"inputs": [],
					"name": "owner",
					"outputs": [
						{
							"internalType": "address",
							"name": "",
							"type": "address"
						}
					],
					"stateMutability": "view",
					"type": "function"
				},
				{
					"inputs": [],
					"name": "pause",
					"outputs": [],
					"stateMutability": "nonpayable",
					"type": "function"
				},
				{
					"inputs": [],
					"name": "paused",
					"outputs": [
						{
							"internalType": "bool",
							"name": "",
							"type": "bool"
						}
					],
					"stateMutability": "view",
					"type": "function"
				},
				{
					"inputs": [],
					"name": "propertyContract",
					"outputs": [
						{
							"internalType": "contract IProperty",
							"name": "",
							"type": "address"
						}
					],
					"stateMutability": "view",
					"type": "function"
				},
				{
					"inputs": [
						{
							"internalType": "uint256",
							"name": "transactionId",
							"type": "uint256"
						}
					],
					"name": "refundTransaction",
					"outputs": [],
					"stateMutability": "payable",
					"type": "function"
				},
				{
					"inputs": [],
					"name": "renounceOwnership",
					"outputs": [],
					"stateMutability": "nonpayable",
					"type": "function"
				},
				{
					"inputs": [
						{
							"internalType": "uint256",
							"name": "transactionId",
							"type": "uint256"
						},
						{
							"internalType": "bool",
							"name": "approve",
							"type": "bool"
						}
					],
					"name": "resolveDispute",
					"outputs": [],
					"stateMutability": "payable",
					"type": "function"
				},
				{
					"inputs": [],
					"name": "sharesContract",
					"outputs": [
						{
							"internalType": "contract IShares",
							"name": "",
							"type": "address"
						}
					],
					"stateMutability": "view",
					"type": "function"
				},
				{
					"inputs": [],
					"name": "transactionCount",
					"outputs": [
						{
							"internalType": "uint256",
							"name": "",
							"type": "uint256"
						}
					],
					"stateMutability": "view",
					"type": "function"
				},
				{
					"inputs": [
						{
							"internalType": "uint256",
							"name": "",
							"type": "uint256"
						}
					],
					"name": "transactions",
					"outputs": [
						{
							"internalType": "address",
							"name": "buyer",
							"type": "address"
						},
						{
							"internalType": "address",
							"name": "seller",
							"type": "address"
						},
						{
							"internalType": "uint256",
							"name": "basketId",
							"type": "uint256"
						},
						{
							"internalType": "uint256",
							"name": "amount",
							"type": "uint256"
						},
						{
							"internalType": "enum Escrow.EscrowState",
							"name": "state",
							"type": "uint8"
						},
						{
							"internalType": "uint256",
							"name": "createdAt",
							"type": "uint256"
						},
						{
							"internalType": "uint256",
							"name": "updatedAt",
							"type": "uint256"
						},
						{
							"internalType": "string",
							"name": "disputeReason",
							"type": "string"
						}
					],
					"stateMutability": "view",
					"type": "function"
				},
				{
					"inputs": [
						{
							"internalType": "address",
							"name": "newOwner",
							"type": "address"
						}
					],
					"name": "transferOwnership",
					"outputs": [],
					"stateMutability": "nonpayable",
					"type": "function"
				},
				{
					"inputs": [],
					"name": "unpause",
					"outputs": [],
					"stateMutability": "nonpayable",
					"type": "function"
				}
			],
			"devdoc": {
				"errors": {
					"EnforcedPause()": [
						{
							"details": "The operation failed because the contract is paused."
						}
					],
					"ExpectedPause()": [
						{
							"details": "The operation failed because the contract is not paused."
						}
					],
					"OwnableInvalidOwner(address)": [
						{
							"details": "The owner is not a valid owner account. (eg. `address(0)`)"
						}
					],
					"OwnableUnauthorizedAccount(address)": [
						{
							"details": "The caller account is not authorized to perform an operation."
						}
					]
				},
				"events": {
					"Paused(address)": {
						"details": "Emitted when the pause is triggered by `account`."
					},
					"Unpaused(address)": {
						"details": "Emitted when the pause is lifted by `account`."
					}
				},
				"kind": "dev",
				"methods": {
					"owner()": {
						"details": "Returns the address of the current owner."
					},
					"paused()": {
						"details": "Returns true if the contract is paused, and false otherwise."
					},
					"renounceOwnership()": {
						"details": "Leaves the contract without owner. It will not be possible to call `onlyOwner` functions. Can only be called by the current owner. NOTE: Renouncing ownership will leave the contract without an owner, thereby disabling any functionality that is only available to the owner."
					},
					"transferOwnership(address)": {
						"details": "Transfers ownership of the contract to a new account (`newOwner`). Can only be called by the current owner."
					}
				},
				"version": 1
			},
			"evm": {
				"assembly": "    /* \"contracts/real-estate-marketplace/Escrow.sol\":292:5321  contract Escrow is Ownable, Pausable {... */\n  mstore(0x40, 0x80)\n    /* \"contracts/real-estate-marketplace/Escrow.sol\":1627:1873  constructor(address _propertyContract, address _sharesContract) Ownable(msg.sender) {... */\n  callvalue\n  dup1\n  iszero\n  tag_1\n  jumpi\n  0x00\n  dup1\n  revert\ntag_1:\n  pop\n  mload(0x40)\n  sub(codesize, bytecodeSize)\n  dup1\n  bytecodeSize\n  dup4\n  codecopy\n  dup2\n  dup2\n  add\n  0x40\n  mstore\n  dup2\n  add\n  swap1\n  tag_2\n  swap2\n  swap1\n  tag_3\n  jump\t// in\ntag_2:\n    /* \"contracts/real-estate-marketplace/Escrow.sol\":1699:1709  msg.sender */\n  caller\n    /* \"@openzeppelin/contracts/access/Ownable.sol\":1297:1298  0 */\n  0x00\n    /* \"@openzeppelin/contracts/access/Ownable.sol\":1273:1299  initialOwner == address(0) */\n  0xffffffffffffffffffffffffffffffffffffffff\n  and\n    /* \"@openzeppelin/contracts/access/Ownable.sol\":1273:1285  initialOwner */\n  dup2\n    /* \"@openzeppelin/contracts/access/Ownable.sol\":1273:1299  initialOwner == address(0) */\n  0xffffffffffffffffffffffffffffffffffffffff\n  and\n  sub\n    /* \"@openzeppelin/contracts/access/Ownable.sol\":1269:1364  if (initialOwner == address(0)) {... */\n  tag_8\n  jumpi\n    /* \"@openzeppelin/contracts/access/Ownable.sol\":1350:1351  0 */\n  0x00\n    /* \"@openzeppelin/contracts/access/Ownable.sol\":1322:1353  OwnableInvalidOwner(address(0)) */\n  mload(0x40)\n  0x1e4fbdf700000000000000000000000000000000000000000000000000000000\n  dup2\n  mstore\n  0x04\n  add\n  tag_9\n  swap2\n  swap1\n  tag_10\n  jump\t// in\ntag_9:\n  mload(0x40)\n  dup1\n  swap2\n  sub\n  swap1\n  revert\n    /* \"@openzeppelin/contracts/access/Ownable.sol\":1269:1364  if (initialOwner == address(0)) {... */\ntag_8:\n    /* \"@openzeppelin/contracts/access/Ownable.sol\":1373:1405  _transferOwnership(initialOwner) */\n  tag_11\n    /* \"@openzeppelin/contracts/access/Ownable.sol\":1392:1404  initialOwner */\n  dup2\n    /* \"@openzeppelin/contracts/access/Ownable.sol\":1373:1391  _transferOwnership */\n  shl(0x20, tag_12)\n    /* \"@openzeppelin/contracts/access/Ownable.sol\":1373:1405  _transferOwnership(initialOwner) */\n  0x20\n  shr\n  jump\t// in\ntag_11:\n    /* \"@openzeppelin/contracts/access/Ownable.sol\":1225:1412  constructor(address initialOwner) {... */\n  pop\n    /* \"@openzeppelin/contracts/utils/Pausable.sol\":1241:1246  false */\n  0x00\n    /* \"@openzeppelin/contracts/utils/Pausable.sol\":1231:1238  _paused */\n  dup1\n  0x14\n    /* \"@openzeppelin/contracts/utils/Pausable.sol\":1231:1246  _paused = false */\n  0x0100\n  exp\n  dup2\n  sload\n  dup2\n  0xff\n  mul\n  not\n  and\n  swap1\n  dup4\n  iszero\n  iszero\n  mul\n  or\n  swap1\n  sstore\n  pop\n    /* \"contracts/real-estate-marketplace/Escrow.sol\":1746:1763  _propertyContract */\n  dup2\n    /* \"contracts/real-estate-marketplace/Escrow.sol\":1717:1733  propertyContract */\n  0x03\n  0x00\n    /* \"contracts/real-estate-marketplace/Escrow.sol\":1717:1764  propertyContract = IProperty(_propertyContract) */\n  0x0100\n  exp\n  dup2\n  sload\n  dup2\n  0xffffffffffffffffffffffffffffffffffffffff\n  mul\n  not\n  and\n  swap1\n  dup4\n  0xffffffffffffffffffffffffffffffffffffffff\n  and\n  mul\n  or\n  swap1\n  sstore\n  pop\n    /* \"contracts/real-estate-marketplace/Escrow.sol\":1795:1810  _sharesContract */\n  dup1\n    /* \"contracts/real-estate-marketplace/Escrow.sol\":1770:1784  sharesContract */\n  0x04\n  0x00\n    /* \"contracts/real-estate-marketplace/Escrow.sol\":1770:1811  sharesContract = IShares(_sharesContract) */\n  0x0100\n  exp\n  dup2\n  sload\n  dup2\n  0xffffffffffffffffffffffffffffffffffffffff\n  mul\n  not\n  and\n  swap1\n  dup4\n  0xffffffffffffffffffffffffffffffffffffffff\n  and\n  mul\n  or\n  swap1\n  sstore\n  pop\n    /* \"contracts/real-estate-marketplace/Escrow.sol\":1817:1825  _pause() */\n  tag_15\n    /* \"contracts/real-estate-marketplace/Escrow.sol\":1817:1823  _pause */\n  shl(0x20, tag_16)\n    /* \"contracts/real-estate-marketplace/Escrow.sol\":1817:1825  _pause() */\n  0x20\n  shr\n  jump\t// in\ntag_15:\n    /* \"contracts/real-estate-marketplace/Escrow.sol\":1627:1873  constructor(address _propertyContract, address _sharesContract) Ownable(msg.sender) {... */\n  pop\n  pop\n    /* \"contracts/real-estate-marketplace/Escrow.sol\":292:5321  contract Escrow is Ownable, Pausable {... */\n  jump(tag_17)\n    /* \"@openzeppelin/contracts/access/Ownable.sol\":2912:3099  function _transferOwnership(address newOwner) internal virtual {... */\ntag_12:\n    /* \"@openzeppelin/contracts/access/Ownable.sol\":2985:3001  address oldOwner */\n  0x00\n    /* \"@openzeppelin/contracts/access/Ownable.sol\":3004:3010  _owner */\n  dup1\n  0x00\n  swap1\n  sload\n  swap1\n  0x0100\n  exp\n  swap1\n  div\n  0xffffffffffffffffffffffffffffffffffffffff\n  and\n    /* \"@openzeppelin/contracts/access/Ownable.sol\":2985:3010  address oldOwner = _owner */\n  swap1\n  pop\n    /* \"@openzeppelin/contracts/access/Ownable.sol\":3029:3037  newOwner */\n  dup2\n    /* \"@openzeppelin/contracts/access/Ownable.sol\":3020:3026  _owner */\n  0x00\n  dup1\n    /* \"@openzeppelin/contracts/access/Ownable.sol\":3020:3037  _owner = newOwner */\n  0x0100\n  exp\n  dup2\n  sload\n  dup2\n  0xffffffffffffffffffffffffffffffffffffffff\n  mul\n  not\n  and\n  swap1\n  dup4\n  0xffffffffffffffffffffffffffffffffffffffff\n  and\n  mul\n  or\n  swap1\n  sstore\n  pop\n    /* \"@openzeppelin/contracts/access/Ownable.sol\":3083:3091  newOwner */\n  dup2\n    /* \"@openzeppelin/contracts/access/Ownable.sol\":3052:3092  OwnershipTransferred(oldOwner, newOwner) */\n  0xffffffffffffffffffffffffffffffffffffffff\n  and\n    /* \"@openzeppelin/contracts/access/Ownable.sol\":3073:3081  oldOwner */\n  dup2\n    /* \"@openzeppelin/contracts/access/Ownable.sol\":3052:3092  OwnershipTransferred(oldOwner, newOwner) */\n  0xffffffffffffffffffffffffffffffffffffffff\n  and\n  0x8be0079c531659141344cd1fd0a4f28419497f9722a3daafe3b4186f6b6457e0\n  mload(0x40)\n  mload(0x40)\n  dup1\n  swap2\n  sub\n  swap1\n  log3\n    /* \"@openzeppelin/contracts/access/Ownable.sol\":2975:3099  {... */\n  pop\n    /* \"@openzeppelin/contracts/access/Ownable.sol\":2912:3099  function _transferOwnership(address newOwner) internal virtual {... */\n  pop\n  jump\t// out\n    /* \"@openzeppelin/contracts/utils/Pausable.sol\":2463:2578  function _pause() internal virtual whenNotPaused {... */\ntag_16:\n    /* \"@openzeppelin/contracts/utils/Pausable.sol\":1474:1493  _requireNotPaused() */\n  tag_20\n    /* \"@openzeppelin/contracts/utils/Pausable.sol\":1474:1491  _requireNotPaused */\n  shl(0x20, tag_21)\n    /* \"@openzeppelin/contracts/utils/Pausable.sol\":1474:1493  _requireNotPaused() */\n  0x20\n  shr\n  jump\t// in\ntag_20:\n    /* \"@openzeppelin/contracts/utils/Pausable.sol\":2532:2536  true */\n  0x01\n    /* \"@openzeppelin/contracts/utils/Pausable.sol\":2522:2529  _paused */\n  0x00\n  0x14\n    /* \"@openzeppelin/contracts/utils/Pausable.sol\":2522:2536  _paused = true */\n  0x0100\n  exp\n  dup2\n  sload\n  dup2\n  0xff\n  mul\n  not\n  and\n  swap1\n  dup4\n  iszero\n  iszero\n  mul\n  or\n  swap1\n  sstore\n  pop\n    /* \"@openzeppelin/contracts/utils/Pausable.sol\":2551:2571  Paused(_msgSender()) */\n  0x62e78cea01bee320cd4e420270b5ea74000d11b0c9f74754ebdbfc544b05a258\n    /* \"@openzeppelin/contracts/utils/Pausable.sol\":2558:2570  _msgSender() */\n  tag_23\n    /* \"@openzeppelin/contracts/utils/Pausable.sol\":2558:2568  _msgSender */\n  shl(0x20, tag_24)\n    /* \"@openzeppelin/contracts/utils/Pausable.sol\":2558:2570  _msgSender() */\n  0x20\n  shr\n  jump\t// in\ntag_23:\n    /* \"@openzeppelin/contracts/utils/Pausable.sol\":2551:2571  Paused(_msgSender()) */\n  mload(0x40)\n  tag_25\n  swap2\n  swap1\n  tag_10\n  jump\t// in\ntag_25:\n  mload(0x40)\n  dup1\n  swap2\n  sub\n  swap1\n  log1\n    /* \"@openzeppelin/contracts/utils/Pausable.sol\":2463:2578  function _pause() internal virtual whenNotPaused {... */\n  jump\t// out\n    /* \"@openzeppelin/contracts/utils/Pausable.sol\":2002:2130  function _requireNotPaused() internal view virtual {... */\ntag_21:\n    /* \"@openzeppelin/contracts/utils/Pausable.sol\":2067:2075  paused() */\n  tag_27\n    /* \"@openzeppelin/contracts/utils/Pausable.sol\":2067:2073  paused */\n  shl(0x20, tag_28)\n    /* \"@openzeppelin/contracts/utils/Pausable.sol\":2067:2075  paused() */\n  0x20\n  shr\n  jump\t// in\ntag_27:\n    /* \"@openzeppelin/contracts/utils/Pausable.sol\":2063:2124  if (paused()) {... */\n  iszero\n  tag_29\n  jumpi\n    /* \"@openzeppelin/contracts/utils/Pausable.sol\":2098:2113  EnforcedPause() */\n  mload(0x40)\n  0xd93c066500000000000000000000000000000000000000000000000000000000\n  dup2\n  mstore\n  0x04\n  add\n  mload(0x40)\n  dup1\n  swap2\n  sub\n  swap1\n  revert\n    /* \"@openzeppelin/contracts/utils/Pausable.sol\":2063:2124  if (paused()) {... */\ntag_29:\n    /* \"@openzeppelin/contracts/utils/Pausable.sol\":2002:2130  function _requireNotPaused() internal view virtual {... */\n  jump\t// out\n    /* \"@openzeppelin/contracts/utils/Context.sol\":656:752  function _msgSender() internal view virtual returns (address) {... */\ntag_24:\n    /* \"@openzeppelin/contracts/utils/Context.sol\":709:716  address */\n  0x00\n    /* \"@openzeppelin/contracts/utils/Context.sol\":735:745  msg.sender */\n  caller\n    /* \"@openzeppelin/contracts/utils/Context.sol\":728:745  return msg.sender */\n  swap1\n  pop\n    /* \"@openzeppelin/contracts/utils/Context.sol\":656:752  function _msgSender() internal view virtual returns (address) {... */\n  swap1\n  jump\t// out\n    /* \"@openzeppelin/contracts/utils/Pausable.sol\":1850:1934  function paused() public view virtual returns (bool) {... */\ntag_28:\n    /* \"@openzeppelin/contracts/utils/Pausable.sol\":1897:1901  bool */\n  0x00\n    /* \"@openzeppelin/contracts/utils/Pausable.sol\":1920:1927  _paused */\n  dup1\n  0x14\n  swap1\n  sload\n  swap1\n  0x0100\n  exp\n  swap1\n  div\n  0xff\n  and\n    /* \"@openzeppelin/contracts/utils/Pausable.sol\":1913:1927  return _paused */\n  swap1\n  pop\n    /* \"@openzeppelin/contracts/utils/Pausable.sol\":1850:1934  function paused() public view virtual returns (bool) {... */\n  swap1\n  jump\t// out\n    /* \"#utility.yul\":88:205   */\ntag_33:\n    /* \"#utility.yul\":197:198   */\n  0x00\n    /* \"#utility.yul\":194:195   */\n  dup1\n    /* \"#utility.yul\":187:199   */\n  revert\n    /* \"#utility.yul\":334:460   */\ntag_35:\n    /* \"#utility.yul\":371:378   */\n  0x00\n    /* \"#utility.yul\":411:453   */\n  0xffffffffffffffffffffffffffffffffffffffff\n    /* \"#utility.yul\":404:409   */\n  dup3\n    /* \"#utility.yul\":400:454   */\n  and\n    /* \"#utility.yul\":389:454   */\n  swap1\n  pop\n    /* \"#utility.yul\":334:460   */\n  swap2\n  swap1\n  pop\n  jump\t// out\n    /* \"#utility.yul\":466:562   */\ntag_36:\n    /* \"#utility.yul\":503:510   */\n  0x00\n    /* \"#utility.yul\":532:556   */\n  tag_46\n    /* \"#utility.yul\":550:555   */\n  dup3\n    /* \"#utility.yul\":532:556   */\n  tag_35\n  jump\t// in\ntag_46:\n    /* \"#utility.yul\":521:556   */\n  swap1\n  pop\n    /* \"#utility.yul\":466:562   */\n  swap2\n  swap1\n  pop\n  jump\t// out\n    /* \"#utility.yul\":568:690   */\ntag_37:\n    /* \"#utility.yul\":641:665   */\n  tag_48\n    /* \"#utility.yul\":659:664   */\n  dup2\n    /* \"#utility.yul\":641:665   */\n  tag_36\n  jump\t// in\ntag_48:\n    /* \"#utility.yul\":634:639   */\n  dup2\n    /* \"#utility.yul\":631:666   */\n  eq\n    /* \"#utility.yul\":621:684   */\n  tag_49\n  jumpi\n    /* \"#utility.yul\":680:681   */\n  0x00\n    /* \"#utility.yul\":677:678   */\n  dup1\n    /* \"#utility.yul\":670:682   */\n  revert\n    /* \"#utility.yul\":621:684   */\ntag_49:\n    /* \"#utility.yul\":568:690   */\n  pop\n  jump\t// out\n    /* \"#utility.yul\":696:839   */\ntag_38:\n    /* \"#utility.yul\":753:758   */\n  0x00\n    /* \"#utility.yul\":784:790   */\n  dup2\n    /* \"#utility.yul\":778:791   */\n  mload\n    /* \"#utility.yul\":769:791   */\n  swap1\n  pop\n    /* \"#utility.yul\":800:833   */\n  tag_51\n    /* \"#utility.yul\":827:832   */\n  dup2\n    /* \"#utility.yul\":800:833   */\n  tag_37\n  jump\t// in\ntag_51:\n    /* \"#utility.yul\":696:839   */\n  swap3\n  swap2\n  pop\n  pop\n  jump\t// out\n    /* \"#utility.yul\":845:1352   */\ntag_3:\n    /* \"#utility.yul\":924:930   */\n  0x00\n    /* \"#utility.yul\":932:938   */\n  dup1\n    /* \"#utility.yul\":981:983   */\n  0x40\n    /* \"#utility.yul\":969:978   */\n  dup4\n    /* \"#utility.yul\":960:967   */\n  dup6\n    /* \"#utility.yul\":956:979   */\n  sub\n    /* \"#utility.yul\":952:984   */\n  slt\n    /* \"#utility.yul\":949:1068   */\n  iszero\n  tag_53\n  jumpi\n    /* \"#utility.yul\":987:1066   */\n  tag_54\n  tag_33\n  jump\t// in\ntag_54:\n    /* \"#utility.yul\":949:1068   */\ntag_53:\n    /* \"#utility.yul\":1107:1108   */\n  0x00\n    /* \"#utility.yul\":1132:1196   */\n  tag_55\n    /* \"#utility.yul\":1188:1195   */\n  dup6\n    /* \"#utility.yul\":1179:1185   */\n  dup3\n    /* \"#utility.yul\":1168:1177   */\n  dup7\n    /* \"#utility.yul\":1164:1186   */\n  add\n    /* \"#utility.yul\":1132:1196   */\n  tag_38\n  jump\t// in\ntag_55:\n    /* \"#utility.yul\":1122:1196   */\n  swap3\n  pop\n    /* \"#utility.yul\":1078:1206   */\n  pop\n    /* \"#utility.yul\":1245:1247   */\n  0x20\n    /* \"#utility.yul\":1271:1335   */\n  tag_56\n    /* \"#utility.yul\":1327:1334   */\n  dup6\n    /* \"#utility.yul\":1318:1324   */\n  dup3\n    /* \"#utility.yul\":1307:1316   */\n  dup7\n    /* \"#utility.yul\":1303:1325   */\n  add\n    /* \"#utility.yul\":1271:1335   */\n  tag_38\n  jump\t// in\ntag_56:\n    /* \"#utility.yul\":1261:1335   */\n  swap2\n  pop\n    /* \"#utility.yul\":1216:1345   */\n  pop\n    /* \"#utility.yul\":845:1352   */\n  swap3\n  pop\n  swap3\n  swap1\n  pop\n  jump\t// out\n    /* \"#utility.yul\":1358:1476   */\ntag_39:\n    /* \"#utility.yul\":1445:1469   */\n  tag_58\n    /* \"#utility.yul\":1463:1468   */\n  dup2\n    /* \"#utility.yul\":1445:1469   */\n  tag_36\n  jump\t// in\ntag_58:\n    /* \"#utility.yul\":1440:1443   */\n  dup3\n    /* \"#utility.yul\":1433:1470   */\n  mstore\n    /* \"#utility.yul\":1358:1476   */\n  pop\n  pop\n  jump\t// out\n    /* \"#utility.yul\":1482:1704   */\ntag_10:\n    /* \"#utility.yul\":1575:1579   */\n  0x00\n    /* \"#utility.yul\":1613:1615   */\n  0x20\n    /* \"#utility.yul\":1602:1611   */\n  dup3\n    /* \"#utility.yul\":1598:1616   */\n  add\n    /* \"#utility.yul\":1590:1616   */\n  swap1\n  pop\n    /* \"#utility.yul\":1626:1697   */\n  tag_60\n    /* \"#utility.yul\":1694:1695   */\n  0x00\n    /* \"#utility.yul\":1683:1692   */\n  dup4\n    /* \"#utility.yul\":1679:1696   */\n  add\n    /* \"#utility.yul\":1670:1676   */\n  dup5\n    /* \"#utility.yul\":1626:1697   */\n  tag_39\n  jump\t// in\ntag_60:\n    /* \"#utility.yul\":1482:1704   */\n  swap3\n  swap2\n  pop\n  pop\n  jump\t// out\n    /* \"contracts/real-estate-marketplace/Escrow.sol\":292:5321  contract Escrow is Ownable, Pausable {... */\ntag_17:\n  dataSize(sub_0)\n  dup1\n  dataOffset(sub_0)\n  0x00\n  codecopy\n  0x00\n  return\nstop\n\nsub_0: assembly {\n        /* \"contracts/real-estate-marketplace/Escrow.sol\":292:5321  contract Escrow is Ownable, Pausable {... */\n      mstore(0x40, 0x80)\n      jumpi(tag_1, lt(calldatasize, 0x04))\n      shr(0xe0, calldataload(0x00))\n      dup1\n      0x8da5cb5b\n      gt\n      tag_18\n      jumpi\n      dup1\n      0xd4e678b8\n      gt\n      tag_19\n      jumpi\n      dup1\n      0xd4e678b8\n      eq\n      tag_14\n      jumpi\n      dup1\n      0xe58d5bdd\n      eq\n      tag_15\n      jumpi\n      dup1\n      0xf2fde38b\n      eq\n      tag_16\n      jumpi\n      dup1\n      0xf5e83e17\n      eq\n      tag_17\n      jumpi\n      jump(tag_1)\n    tag_19:\n      dup1\n      0x8da5cb5b\n      eq\n      tag_10\n      jumpi\n      dup1\n      0x8fca9673\n      eq\n      tag_11\n      jumpi\n      dup1\n      0x9ace38c2\n      eq\n      tag_12\n      jumpi\n      dup1\n      0xb77bf600\n      eq\n      tag_13\n      jumpi\n      jump(tag_1)\n    tag_18:\n      dup1\n      0x5c975abb\n      gt\n      tag_20\n      jumpi\n      dup1\n      0x5c975abb\n      eq\n      tag_6\n      jumpi\n      dup1\n      0x715018a6\n      eq\n      tag_7\n      jumpi\n      dup1\n      0x7bc1ed63\n      eq\n      tag_8\n      jumpi\n      dup1\n      0x8456cb59\n      eq\n      tag_9\n      jumpi\n      jump(tag_1)\n    tag_20:\n      dup1\n      0x1e7f8f0f\n      eq\n      tag_2\n      jumpi\n      dup1\n      0x33ea3dc8\n      eq\n      tag_3\n      jumpi\n      dup1\n      0x34b25ee2\n      eq\n      tag_4\n      jumpi\n      dup1\n      0x3f4ba83a\n      eq\n      tag_5\n      jumpi\n    tag_1:\n      0x00\n      dup1\n      revert\n        /* \"contracts/real-estate-marketplace/Escrow.sol\":1879:2590  function createTransaction(address seller, uint256 basketId) external payable whenNotPaused {... */\n    tag_2:\n      tag_21\n      0x04\n      dup1\n      calldatasize\n      sub\n      dup2\n      add\n      swap1\n      tag_22\n      swap2\n      swap1\n      tag_23\n      jump\t// in\n    tag_22:\n      tag_24\n      jump\t// in\n    tag_21:\n      stop\n        /* \"contracts/real-estate-marketplace/Escrow.sol\":4588:5181  function getTransaction(uint256 transactionId) external view returns (... */\n    tag_3:\n      callvalue\n      dup1\n      iszero\n      tag_25\n      jumpi\n      0x00\n      dup1\n      revert\n    tag_25:\n      pop\n      tag_26\n      0x04\n      dup1\n      calldatasize\n      sub\n      dup2\n      add\n      swap1\n      tag_27\n      swap2\n      swap1\n      tag_28\n      jump\t// in\n    tag_27:\n      tag_29\n      jump\t// in\n    tag_26:\n      mload(0x40)\n      tag_30\n      swap9\n      swap8\n      swap7\n      swap6\n      swap5\n      swap4\n      swap3\n      swap2\n      swap1\n      tag_31\n      jump\t// in\n    tag_30:\n      mload(0x40)\n      dup1\n      swap2\n      sub\n      swap1\n      return\n        /* \"contracts/real-estate-marketplace/Escrow.sol\":3865:4582  function resolveDispute(uint256 transactionId, bool approve) external onlyOwner payable {... */\n    tag_4:\n      tag_32\n      0x04\n      dup1\n      calldatasize\n      sub\n      dup2\n      add\n      swap1\n      tag_33\n      swap2\n      swap1\n      tag_34\n      jump\t// in\n    tag_33:\n      tag_35\n      jump\t// in\n    tag_32:\n      stop\n        /* \"contracts/real-estate-marketplace/Escrow.sol\":5254:5319  function unpause() external onlyOwner {... */\n    tag_5:\n      callvalue\n      dup1\n      iszero\n      tag_36\n      jumpi\n      0x00\n      dup1\n      revert\n    tag_36:\n      pop\n      tag_37\n      tag_38\n      jump\t// in\n    tag_37:\n      stop\n        /* \"@openzeppelin/contracts/utils/Pausable.sol\":1850:1934  function paused() public view virtual returns (bool) {... */\n    tag_6:\n      callvalue\n      dup1\n      iszero\n      tag_39\n      jumpi\n      0x00\n      dup1\n      revert\n    tag_39:\n      pop\n      tag_40\n      tag_41\n      jump\t// in\n    tag_40:\n      mload(0x40)\n      tag_42\n      swap2\n      swap1\n      tag_43\n      jump\t// in\n    tag_42:\n      mload(0x40)\n      dup1\n      swap2\n      sub\n      swap1\n      return\n        /* \"@openzeppelin/contracts/access/Ownable.sol\":2293:2394  function renounceOwnership() public virtual onlyOwner {... */\n    tag_7:\n      callvalue\n      dup1\n      iszero\n      tag_44\n      jumpi\n      0x00\n      dup1\n      revert\n    tag_44:\n      pop\n      tag_45\n      tag_46\n      jump\t// in\n    tag_45:\n      stop\n        /* \"contracts/real-estate-marketplace/Escrow.sol\":803:832  IShares public sharesContract */\n    tag_8:\n      callvalue\n      dup1\n      iszero\n      tag_47\n      jumpi\n      0x00\n      dup1\n      revert\n    tag_47:\n      pop\n      tag_48\n      tag_49\n      jump\t// in\n    tag_48:\n      mload(0x40)\n      tag_50\n      swap2\n      swap1\n      tag_51\n      jump\t// in\n    tag_50:\n      mload(0x40)\n      dup1\n      swap2\n      sub\n      swap1\n      return\n        /* \"contracts/real-estate-marketplace/Escrow.sol\":5187:5248  function pause() external onlyOwner {... */\n    tag_9:\n      callvalue\n      dup1\n      iszero\n      tag_52\n      jumpi\n      0x00\n      dup1\n      revert\n    tag_52:\n      pop\n      tag_53\n      tag_54\n      jump\t// in\n    tag_53:\n      stop\n        /* \"@openzeppelin/contracts/access/Ownable.sol\":1638:1723  function owner() public view virtual returns (address) {... */\n    tag_10:\n      callvalue\n      dup1\n      iszero\n      tag_55\n      jumpi\n      0x00\n      dup1\n      revert\n    tag_55:\n      pop\n      tag_56\n      tag_57\n      jump\t// in\n    tag_56:\n      mload(0x40)\n      tag_58\n      swap2\n      swap1\n      tag_59\n      jump\t// in\n    tag_58:\n      mload(0x40)\n      dup1\n      swap2\n      sub\n      swap1\n      return\n        /* \"contracts/real-estate-marketplace/Escrow.sol\":764:797  IProperty public propertyContract */\n    tag_11:\n      callvalue\n      dup1\n      iszero\n      tag_60\n      jumpi\n      0x00\n      dup1\n      revert\n    tag_60:\n      pop\n      tag_61\n      tag_62\n      jump\t// in\n    tag_61:\n      mload(0x40)\n      tag_63\n      swap2\n      swap1\n      tag_64\n      jump\t// in\n    tag_63:\n      mload(0x40)\n      dup1\n      swap2\n      sub\n      swap1\n      return\n        /* \"contracts/real-estate-marketplace/Escrow.sol\":706:757  mapping(uint256 => Transaction) public transactions */\n    tag_12:\n      callvalue\n      dup1\n      iszero\n      tag_65\n      jumpi\n      0x00\n      dup1\n      revert\n    tag_65:\n      pop\n      tag_66\n      0x04\n      dup1\n      calldatasize\n      sub\n      dup2\n      add\n      swap1\n      tag_67\n      swap2\n      swap1\n      tag_28\n      jump\t// in\n    tag_67:\n      tag_68\n      jump\t// in\n    tag_66:\n      mload(0x40)\n      tag_69\n      swap9\n      swap8\n      swap7\n      swap6\n      swap5\n      swap4\n      swap3\n      swap2\n      swap1\n      tag_31\n      jump\t// in\n    tag_69:\n      mload(0x40)\n      dup1\n      swap2\n      sub\n      swap1\n      return\n        /* \"contracts/real-estate-marketplace/Escrow.sol\":669:700  uint256 public transactionCount */\n    tag_13:\n      callvalue\n      dup1\n      iszero\n      tag_70\n      jumpi\n      0x00\n      dup1\n      revert\n    tag_70:\n      pop\n      tag_71\n      tag_72\n      jump\t// in\n    tag_71:\n      mload(0x40)\n      tag_73\n      swap2\n      swap1\n      tag_74\n      jump\t// in\n    tag_73:\n      mload(0x40)\n      dup1\n      swap2\n      sub\n      swap1\n      return\n        /* \"contracts/real-estate-marketplace/Escrow.sol\":3099:3470  function refundTransaction(uint256 transactionId) external onlyBuyer(transactionId) onlyPending(transactionId) payable {... */\n    tag_14:\n      tag_75\n      0x04\n      dup1\n      calldatasize\n      sub\n      dup2\n      add\n      swap1\n      tag_76\n      swap2\n      swap1\n      tag_28\n      jump\t// in\n    tag_76:\n      tag_77\n      jump\t// in\n    tag_75:\n      stop\n        /* \"contracts/real-estate-marketplace/Escrow.sol\":3476:3859  function disputeTransaction(uint256 transactionId, string calldata reason) external onlyBuyer(transactionId) onlyPending(transactionId) {... */\n    tag_15:\n      callvalue\n      dup1\n      iszero\n      tag_78\n      jumpi\n      0x00\n      dup1\n      revert\n    tag_78:\n      pop\n      tag_79\n      0x04\n      dup1\n      calldatasize\n      sub\n      dup2\n      add\n      swap1\n      tag_80\n      swap2\n      swap1\n      tag_81\n      jump\t// in\n    tag_80:\n      tag_82\n      jump\t// in\n    tag_79:\n      stop\n        /* \"@openzeppelin/contracts/access/Ownable.sol\":2543:2758  function transferOwnership(address newOwner) public virtual onlyOwner {... */\n    tag_16:\n      callvalue\n      dup1\n      iszero\n      tag_83\n      jumpi\n      0x00\n      dup1\n      revert\n    tag_83:\n      pop\n      tag_84\n      0x04\n      dup1\n      calldatasize\n      sub\n      dup2\n      add\n      swap1\n      tag_85\n      swap2\n      swap1\n      tag_86\n      jump\t// in\n    tag_85:\n      tag_87\n      jump\t// in\n    tag_84:\n      stop\n        /* \"contracts/real-estate-marketplace/Escrow.sol\":2596:3093  function completeTransaction(uint256 transactionId) external onlySeller(transactionId) onlyPending(transactionId) {... */\n    tag_17:\n      callvalue\n      dup1\n      iszero\n      tag_88\n      jumpi\n      0x00\n      dup1\n      revert\n    tag_88:\n      pop\n      tag_89\n      0x04\n      dup1\n      calldatasize\n      sub\n      dup2\n      add\n      swap1\n      tag_90\n      swap2\n      swap1\n      tag_28\n      jump\t// in\n    tag_90:\n      tag_91\n      jump\t// in\n    tag_89:\n      stop\n        /* \"contracts/real-estate-marketplace/Escrow.sol\":1879:2590  function createTransaction(address seller, uint256 basketId) external payable whenNotPaused {... */\n    tag_24:\n        /* \"@openzeppelin/contracts/utils/Pausable.sol\":1474:1493  _requireNotPaused() */\n      tag_93\n        /* \"@openzeppelin/contracts/utils/Pausable.sol\":1474:1491  _requireNotPaused */\n      tag_94\n        /* \"@openzeppelin/contracts/utils/Pausable.sol\":1474:1493  _requireNotPaused() */\n      jump\t// in\n    tag_93:\n        /* \"contracts/real-estate-marketplace/Escrow.sol\":1997:1998  0 */\n      0x00\n        /* \"contracts/real-estate-marketplace/Escrow.sol\":1985:1994  msg.value */\n      callvalue\n        /* \"contracts/real-estate-marketplace/Escrow.sol\":1985:1998  msg.value > 0 */\n      gt\n        /* \"contracts/real-estate-marketplace/Escrow.sol\":1977:2032  require(msg.value > 0, \"Amount must be greater than 0\") */\n      tag_96\n      jumpi\n      mload(0x40)\n      0x08c379a000000000000000000000000000000000000000000000000000000000\n      dup2\n      mstore\n      0x04\n      add\n      tag_97\n      swap1\n      tag_98\n      jump\t// in\n    tag_97:\n      mload(0x40)\n      dup1\n      swap2\n      sub\n      swap1\n      revert\n    tag_96:\n        /* \"contracts/real-estate-marketplace/Escrow.sol\":2038:2071  IShares.ShareBasket memory basket */\n      0x00\n        /* \"contracts/real-estate-marketplace/Escrow.sol\":2074:2088  sharesContract */\n      0x04\n      0x00\n      swap1\n      sload\n      swap1\n      0x0100\n      exp\n      swap1\n      div\n      0xffffffffffffffffffffffffffffffffffffffff\n      and\n        /* \"contracts/real-estate-marketplace/Escrow.sol\":2074:2105  sharesContract.getBasketDetails */\n      0xffffffffffffffffffffffffffffffffffffffff\n      and\n      0xff03e8c2\n        /* \"contracts/real-estate-marketplace/Escrow.sol\":2106:2114  basketId */\n      dup4\n        /* \"contracts/real-estate-marketplace/Escrow.sol\":2074:2115  sharesContract.getBasketDetails(basketId) */\n      mload(0x40)\n      dup3\n      0xffffffff\n      and\n      0xe0\n      shl\n      dup2\n      mstore\n      0x04\n      add\n      tag_99\n      swap2\n      swap1\n      tag_74\n      jump\t// in\n    tag_99:\n      0x00\n      mload(0x40)\n      dup1\n      dup4\n      sub\n      dup2\n      dup7\n      gas\n      staticcall\n      iszero\n      dup1\n      iszero\n      tag_101\n      jumpi\n      returndatasize\n      0x00\n      dup1\n      returndatacopy\n      revert(0x00, returndatasize)\n    tag_101:\n      pop\n      pop\n      pop\n      pop\n      mload(0x40)\n      returndatasize\n      0x00\n      dup3\n      returndatacopy\n      returndatasize\n      not(0x1f)\n      0x1f\n      dup3\n      add\n      and\n      dup3\n      add\n      dup1\n      0x40\n      mstore\n      pop\n      dup2\n      add\n      swap1\n      tag_102\n      swap2\n      swap1\n      tag_103\n      jump\t// in\n    tag_102:\n        /* \"contracts/real-estate-marketplace/Escrow.sol\":2038:2115  IShares.ShareBasket memory basket = sharesContract.getBasketDetails(basketId) */\n      swap1\n      pop\n        /* \"contracts/real-estate-marketplace/Escrow.sol\":2150:2151  0 */\n      0x00\n        /* \"contracts/real-estate-marketplace/Escrow.sol\":2129:2135  basket */\n      dup2\n        /* \"contracts/real-estate-marketplace/Escrow.sol\":2129:2147  basket.totalShares */\n      0x40\n      add\n      mload\n        /* \"contracts/real-estate-marketplace/Escrow.sol\":2129:2151  basket.totalShares > 0 */\n      gt\n        /* \"contracts/real-estate-marketplace/Escrow.sol\":2121:2170  require(basket.totalShares > 0, \"Invalid basket\") */\n      tag_104\n      jumpi\n      mload(0x40)\n      0x08c379a000000000000000000000000000000000000000000000000000000000\n      dup2\n      mstore\n      0x04\n      add\n      tag_105\n      swap1\n      tag_106\n      jump\t// in\n    tag_105:\n      mload(0x40)\n      dup1\n      swap2\n      sub\n      swap1\n      revert\n    tag_104:\n        /* \"contracts/real-estate-marketplace/Escrow.sol\":2181:2197  transactionCount */\n      0x01\n      0x00\n        /* \"contracts/real-estate-marketplace/Escrow.sol\":2181:2199  transactionCount++ */\n      dup2\n      sload\n      dup1\n      swap3\n      swap2\n      swap1\n      tag_107\n      swap1\n      tag_108\n      jump\t// in\n    tag_107:\n      swap2\n      swap1\n      pop\n      sstore\n      pop\n        /* \"contracts/real-estate-marketplace/Escrow.sol\":2238:2498  Transaction({... */\n      mload(0x40)\n      dup1\n      0x0100\n      add\n      0x40\n      mstore\n      dup1\n        /* \"contracts/real-estate-marketplace/Escrow.sol\":2267:2277  msg.sender */\n      caller\n        /* \"contracts/real-estate-marketplace/Escrow.sol\":2238:2498  Transaction({... */\n      0xffffffffffffffffffffffffffffffffffffffff\n      and\n      dup2\n      mstore\n      0x20\n      add\n        /* \"contracts/real-estate-marketplace/Escrow.sol\":2295:2301  seller */\n      dup5\n        /* \"contracts/real-estate-marketplace/Escrow.sol\":2238:2498  Transaction({... */\n      0xffffffffffffffffffffffffffffffffffffffff\n      and\n      dup2\n      mstore\n      0x20\n      add\n        /* \"contracts/real-estate-marketplace/Escrow.sol\":2321:2329  basketId */\n      dup4\n        /* \"contracts/real-estate-marketplace/Escrow.sol\":2238:2498  Transaction({... */\n      dup2\n      mstore\n      0x20\n      add\n        /* \"contracts/real-estate-marketplace/Escrow.sol\":2347:2356  msg.value */\n      callvalue\n        /* \"contracts/real-estate-marketplace/Escrow.sol\":2238:2498  Transaction({... */\n      dup2\n      mstore\n      0x20\n      add\n        /* \"contracts/real-estate-marketplace/Escrow.sol\":2373:2392  EscrowState.Pending */\n      0x00\n        /* \"contracts/real-estate-marketplace/Escrow.sol\":2238:2498  Transaction({... */\n      0x03\n      dup2\n      gt\n      iszero\n      tag_109\n      jumpi\n      tag_110\n      tag_111\n      jump\t// in\n    tag_110:\n    tag_109:\n      dup2\n      mstore\n      0x20\n      add\n        /* \"contracts/real-estate-marketplace/Escrow.sol\":2413:2428  block.timestamp */\n      timestamp\n        /* \"contracts/real-estate-marketplace/Escrow.sol\":2238:2498  Transaction({... */\n      dup2\n      mstore\n      0x20\n      add\n        /* \"contracts/real-estate-marketplace/Escrow.sol\":2449:2464  block.timestamp */\n      timestamp\n        /* \"contracts/real-estate-marketplace/Escrow.sol\":2238:2498  Transaction({... */\n      dup2\n      mstore\n      0x20\n      add\n      mload(0x40)\n      dup1\n      0x20\n      add\n      0x40\n      mstore\n      dup1\n      0x00\n      dup2\n      mstore\n      pop\n      dup2\n      mstore\n      pop\n        /* \"contracts/real-estate-marketplace/Escrow.sol\":2205:2217  transactions */\n      0x02\n        /* \"contracts/real-estate-marketplace/Escrow.sol\":2205:2235  transactions[transactionCount] */\n      0x00\n        /* \"contracts/real-estate-marketplace/Escrow.sol\":2218:2234  transactionCount */\n      sload(0x01)\n        /* \"contracts/real-estate-marketplace/Escrow.sol\":2205:2235  transactions[transactionCount] */\n      dup2\n      mstore\n      0x20\n      add\n      swap1\n      dup2\n      mstore\n      0x20\n      add\n      0x00\n      keccak256\n        /* \"contracts/real-estate-marketplace/Escrow.sol\":2205:2498  transactions[transactionCount] = Transaction({... */\n      0x00\n      dup3\n      add\n      mload\n      dup2\n      0x00\n      add\n      exp(0x0100, 0x00)\n      dup2\n      sload\n      dup2\n      0xffffffffffffffffffffffffffffffffffffffff\n      mul\n      not\n      and\n      swap1\n      dup4\n      0xffffffffffffffffffffffffffffffffffffffff\n      and\n      mul\n      or\n      swap1\n      sstore\n      pop\n      0x20\n      dup3\n      add\n      mload\n      dup2\n      0x01\n      add\n      exp(0x0100, 0x00)\n      dup2\n      sload\n      dup2\n      0xffffffffffffffffffffffffffffffffffffffff\n      mul\n      not\n      and\n      swap1\n      dup4\n      0xffffffffffffffffffffffffffffffffffffffff\n      and\n      mul\n      or\n      swap1\n      sstore\n      pop\n      0x40\n      dup3\n      add\n      mload\n      dup2\n      0x02\n      add\n      sstore\n      0x60\n      dup3\n      add\n      mload\n      dup2\n      0x03\n      add\n      sstore\n      0x80\n      dup3\n      add\n      mload\n      dup2\n      0x04\n      add\n      exp(0x0100, 0x00)\n      dup2\n      sload\n      dup2\n      0xff\n      mul\n      not\n      and\n      swap1\n      dup4\n      0x03\n      dup2\n      gt\n      iszero\n      tag_112\n      jumpi\n      tag_113\n      tag_111\n      jump\t// in\n    tag_113:\n    tag_112:\n      mul\n      or\n      swap1\n      sstore\n      pop\n      0xa0\n      dup3\n      add\n      mload\n      dup2\n      0x05\n      add\n      sstore\n      0xc0\n      dup3\n      add\n      mload\n      dup2\n      0x06\n      add\n      sstore\n      0xe0\n      dup3\n      add\n      mload\n      dup2\n      0x07\n      add\n      swap1\n      dup2\n      tag_114\n      swap2\n      swap1\n      tag_115\n      jump\t// in\n    tag_114:\n      pop\n      swap1\n      pop\n      pop\n        /* \"contracts/real-estate-marketplace/Escrow.sol\":2559:2565  seller */\n      dup3\n        /* \"contracts/real-estate-marketplace/Escrow.sol\":2510:2587  TransactionCreated(transactionCount, msg.sender, seller, basketId, msg.value) */\n      0xffffffffffffffffffffffffffffffffffffffff\n      and\n        /* \"contracts/real-estate-marketplace/Escrow.sol\":2547:2557  msg.sender */\n      caller\n        /* \"contracts/real-estate-marketplace/Escrow.sol\":2510:2587  TransactionCreated(transactionCount, msg.sender, seller, basketId, msg.value) */\n      0xffffffffffffffffffffffffffffffffffffffff\n      and\n      0x0d83ad1eaafb458f529ac87cb6f4531ec0ab2827c3fe8e6cf341d6e6a12b6b00\n        /* \"contracts/real-estate-marketplace/Escrow.sol\":2529:2545  transactionCount */\n      sload(0x01)\n        /* \"contracts/real-estate-marketplace/Escrow.sol\":2567:2575  basketId */\n      dup6\n        /* \"contracts/real-estate-marketplace/Escrow.sol\":2577:2586  msg.value */\n      callvalue\n        /* \"contracts/real-estate-marketplace/Escrow.sol\":2510:2587  TransactionCreated(transactionCount, msg.sender, seller, basketId, msg.value) */\n      mload(0x40)\n      tag_116\n      swap4\n      swap3\n      swap2\n      swap1\n      tag_117\n      jump\t// in\n    tag_116:\n      mload(0x40)\n      dup1\n      swap2\n      sub\n      swap1\n      log3\n        /* \"contracts/real-estate-marketplace/Escrow.sol\":1971:2590  {... */\n      pop\n        /* \"contracts/real-estate-marketplace/Escrow.sol\":1879:2590  function createTransaction(address seller, uint256 basketId) external payable whenNotPaused {... */\n      pop\n      pop\n      jump\t// out\n        /* \"contracts/real-estate-marketplace/Escrow.sol\":4588:5181  function getTransaction(uint256 transactionId) external view returns (... */\n    tag_29:\n        /* \"contracts/real-estate-marketplace/Escrow.sol\":4667:4680  address buyer */\n      0x00\n        /* \"contracts/real-estate-marketplace/Escrow.sol\":4690:4704  address seller */\n      dup1\n        /* \"contracts/real-estate-marketplace/Escrow.sol\":4714:4730  uint256 basketId */\n      0x00\n        /* \"contracts/real-estate-marketplace/Escrow.sol\":4740:4754  uint256 amount */\n      dup1\n        /* \"contracts/real-estate-marketplace/Escrow.sol\":4764:4781  EscrowState state */\n      0x00\n        /* \"contracts/real-estate-marketplace/Escrow.sol\":4791:4808  uint256 createdAt */\n      dup1\n        /* \"contracts/real-estate-marketplace/Escrow.sol\":4818:4835  uint256 updatedAt */\n      0x00\n        /* \"contracts/real-estate-marketplace/Escrow.sol\":4845:4872  string memory disputeReason */\n      0x60\n        /* \"contracts/real-estate-marketplace/Escrow.sol\":4889:4912  Transaction storage txn */\n      0x00\n        /* \"contracts/real-estate-marketplace/Escrow.sol\":4915:4927  transactions */\n      0x02\n        /* \"contracts/real-estate-marketplace/Escrow.sol\":4915:4942  transactions[transactionId] */\n      0x00\n        /* \"contracts/real-estate-marketplace/Escrow.sol\":4928:4941  transactionId */\n      dup12\n        /* \"contracts/real-estate-marketplace/Escrow.sol\":4915:4942  transactions[transactionId] */\n      dup2\n      mstore\n      0x20\n      add\n      swap1\n      dup2\n      mstore\n      0x20\n      add\n      0x00\n      keccak256\n        /* \"contracts/real-estate-marketplace/Escrow.sol\":4889:4942  Transaction storage txn = transactions[transactionId] */\n      swap1\n      pop\n        /* \"contracts/real-estate-marketplace/Escrow.sol\":4973:4976  txn */\n      dup1\n        /* \"contracts/real-estate-marketplace/Escrow.sol\":4973:4982  txn.buyer */\n      0x00\n      add\n      0x00\n      swap1\n      sload\n      swap1\n      0x0100\n      exp\n      swap1\n      div\n      0xffffffffffffffffffffffffffffffffffffffff\n      and\n        /* \"contracts/real-estate-marketplace/Escrow.sol\":4996:4999  txn */\n      dup2\n        /* \"contracts/real-estate-marketplace/Escrow.sol\":4996:5006  txn.seller */\n      0x01\n      add\n      0x00\n      swap1\n      sload\n      swap1\n      0x0100\n      exp\n      swap1\n      div\n      0xffffffffffffffffffffffffffffffffffffffff\n      and\n        /* \"contracts/real-estate-marketplace/Escrow.sol\":5020:5023  txn */\n      dup3\n        /* \"contracts/real-estate-marketplace/Escrow.sol\":5020:5032  txn.basketId */\n      0x02\n      add\n      sload\n        /* \"contracts/real-estate-marketplace/Escrow.sol\":5046:5049  txn */\n      dup4\n        /* \"contracts/real-estate-marketplace/Escrow.sol\":5046:5056  txn.amount */\n      0x03\n      add\n      sload\n        /* \"contracts/real-estate-marketplace/Escrow.sol\":5070:5073  txn */\n      dup5\n        /* \"contracts/real-estate-marketplace/Escrow.sol\":5070:5079  txn.state */\n      0x04\n      add\n      0x00\n      swap1\n      sload\n      swap1\n      0x0100\n      exp\n      swap1\n      div\n      0xff\n      and\n        /* \"contracts/real-estate-marketplace/Escrow.sol\":5093:5096  txn */\n      dup6\n        /* \"contracts/real-estate-marketplace/Escrow.sol\":5093:5106  txn.createdAt */\n      0x05\n      add\n      sload\n        /* \"contracts/real-estate-marketplace/Escrow.sol\":5120:5123  txn */\n      dup7\n        /* \"contracts/real-estate-marketplace/Escrow.sol\":5120:5133  txn.updatedAt */\n      0x06\n      add\n      sload\n        /* \"contracts/real-estate-marketplace/Escrow.sol\":5147:5150  txn */\n      dup8\n        /* \"contracts/real-estate-marketplace/Escrow.sol\":5147:5164  txn.disputeReason */\n      0x07\n      add\n        /* \"contracts/real-estate-marketplace/Escrow.sol\":4952:5174  return (... */\n      dup1\n      dup1\n      sload\n      tag_119\n      swap1\n      tag_120\n      jump\t// in\n    tag_119:\n      dup1\n      0x1f\n      add\n      0x20\n      dup1\n      swap2\n      div\n      mul\n      0x20\n      add\n      mload(0x40)\n      swap1\n      dup2\n      add\n      0x40\n      mstore\n      dup1\n      swap3\n      swap2\n      swap1\n      dup2\n      dup2\n      mstore\n      0x20\n      add\n      dup3\n      dup1\n      sload\n      tag_121\n      swap1\n      tag_120\n      jump\t// in\n    tag_121:\n      dup1\n      iszero\n      tag_122\n      jumpi\n      dup1\n      0x1f\n      lt\n      tag_123\n      jumpi\n      0x0100\n      dup1\n      dup4\n      sload\n      div\n      mul\n      dup4\n      mstore\n      swap2\n      0x20\n      add\n      swap2\n      jump(tag_122)\n    tag_123:\n      dup3\n      add\n      swap2\n      swap1\n      0x00\n      mstore\n      keccak256(0x00, 0x20)\n      swap1\n    tag_124:\n      dup2\n      sload\n      dup2\n      mstore\n      swap1\n      0x01\n      add\n      swap1\n      0x20\n      add\n      dup1\n      dup4\n      gt\n      tag_124\n      jumpi\n      dup3\n      swap1\n      sub\n      0x1f\n      and\n      dup3\n      add\n      swap2\n    tag_122:\n      pop\n      pop\n      pop\n      pop\n      pop\n      swap1\n      pop\n      swap9\n      pop\n      swap9\n      pop\n      swap9\n      pop\n      swap9\n      pop\n      swap9\n      pop\n      swap9\n      pop\n      swap9\n      pop\n      swap9\n      pop\n      pop\n        /* \"contracts/real-estate-marketplace/Escrow.sol\":4588:5181  function getTransaction(uint256 transactionId) external view returns (... */\n      swap2\n      swap4\n      swap6\n      swap8\n      pop\n      swap2\n      swap4\n      swap6\n      swap8\n      jump\t// out\n        /* \"contracts/real-estate-marketplace/Escrow.sol\":3865:4582  function resolveDispute(uint256 transactionId, bool approve) external onlyOwner payable {... */\n    tag_35:\n        /* \"@openzeppelin/contracts/access/Ownable.sol\":1531:1544  _checkOwner() */\n      tag_126\n        /* \"@openzeppelin/contracts/access/Ownable.sol\":1531:1542  _checkOwner */\n      tag_127\n        /* \"@openzeppelin/contracts/access/Ownable.sol\":1531:1544  _checkOwner() */\n      jump\t// in\n    tag_126:\n        /* \"contracts/real-estate-marketplace/Escrow.sol\":3963:3986  Transaction storage txn */\n      0x00\n        /* \"contracts/real-estate-marketplace/Escrow.sol\":3989:4001  transactions */\n      0x02\n        /* \"contracts/real-estate-marketplace/Escrow.sol\":3989:4016  transactions[transactionId] */\n      0x00\n        /* \"contracts/real-estate-marketplace/Escrow.sol\":4002:4015  transactionId */\n      dup5\n        /* \"contracts/real-estate-marketplace/Escrow.sol\":3989:4016  transactions[transactionId] */\n      dup2\n      mstore\n      0x20\n      add\n      swap1\n      dup2\n      mstore\n      0x20\n      add\n      0x00\n      keccak256\n        /* \"contracts/real-estate-marketplace/Escrow.sol\":3963:4016  Transaction storage txn = transactions[transactionId] */\n      swap1\n      pop\n        /* \"contracts/real-estate-marketplace/Escrow.sol\":4047:4067  EscrowState.Disputed */\n      0x02\n        /* \"contracts/real-estate-marketplace/Escrow.sol\":4034:4067  txn.state == EscrowState.Disputed */\n      0x03\n      dup2\n      gt\n      iszero\n      tag_129\n      jumpi\n      tag_130\n      tag_111\n      jump\t// in\n    tag_130:\n    tag_129:\n        /* \"contracts/real-estate-marketplace/Escrow.sol\":4034:4037  txn */\n      dup2\n        /* \"contracts/real-estate-marketplace/Escrow.sol\":4034:4043  txn.state */\n      0x04\n      add\n      0x00\n      swap1\n      sload\n      swap1\n      0x0100\n      exp\n      swap1\n      div\n      0xff\n      and\n        /* \"contracts/real-estate-marketplace/Escrow.sol\":4034:4067  txn.state == EscrowState.Disputed */\n      0x03\n      dup2\n      gt\n      iszero\n      tag_131\n      jumpi\n      tag_132\n      tag_111\n      jump\t// in\n    tag_132:\n    tag_131:\n      eq\n        /* \"contracts/real-estate-marketplace/Escrow.sol\":4026:4099  require(txn.state == EscrowState.Disputed, \"Transaction is not disputed\") */\n      tag_133\n      jumpi\n      mload(0x40)\n      0x08c379a000000000000000000000000000000000000000000000000000000000\n      dup2\n      mstore\n      0x04\n      add\n      tag_134\n      swap1\n      tag_135\n      jump\t// in\n    tag_134:\n      mload(0x40)\n      dup1\n      swap2\n      sub\n      swap1\n      revert\n    tag_133:\n        /* \"contracts/real-estate-marketplace/Escrow.sol\":4114:4121  approve */\n      dup2\n        /* \"contracts/real-estate-marketplace/Escrow.sol\":4110:4535  if (approve) {... */\n      iszero\n      tag_136\n      jumpi\n        /* \"contracts/real-estate-marketplace/Escrow.sol\":4149:4170  EscrowState.Completed */\n      0x01\n        /* \"contracts/real-estate-marketplace/Escrow.sol\":4137:4140  txn */\n      dup2\n        /* \"contracts/real-estate-marketplace/Escrow.sol\":4137:4146  txn.state */\n      0x04\n      add\n      0x00\n        /* \"contracts/real-estate-marketplace/Escrow.sol\":4137:4170  txn.state = EscrowState.Completed */\n      0x0100\n      exp\n      dup2\n      sload\n      dup2\n      0xff\n      mul\n      not\n      and\n      swap1\n      dup4\n      0x03\n      dup2\n      gt\n      iszero\n      tag_137\n      jumpi\n      tag_138\n      tag_111\n      jump\t// in\n    tag_138:\n    tag_137:\n      mul\n      or\n      swap1\n      sstore\n      pop\n        /* \"contracts/real-estate-marketplace/Escrow.sol\":4192:4195  txn */\n      dup1\n        /* \"contracts/real-estate-marketplace/Escrow.sol\":4192:4202  txn.seller */\n      0x01\n      add\n      0x00\n      swap1\n      sload\n      swap1\n      0x0100\n      exp\n      swap1\n      div\n      0xffffffffffffffffffffffffffffffffffffffff\n      and\n        /* \"contracts/real-estate-marketplace/Escrow.sol\":4184:4212  payable(txn.seller).transfer */\n      0xffffffffffffffffffffffffffffffffffffffff\n      and\n        /* \"contracts/real-estate-marketplace/Escrow.sol\":4184:4224  payable(txn.seller).transfer(txn.amount) */\n      0x08fc\n        /* \"contracts/real-estate-marketplace/Escrow.sol\":4213:4216  txn */\n      dup3\n        /* \"contracts/real-estate-marketplace/Escrow.sol\":4213:4223  txn.amount */\n      0x03\n      add\n      sload\n        /* \"contracts/real-estate-marketplace/Escrow.sol\":4184:4224  payable(txn.seller).transfer(txn.amount) */\n      swap1\n      dup2\n      iszero\n      mul\n      swap1\n      mload(0x40)\n      0x00\n      mload(0x40)\n      dup1\n      dup4\n      sub\n      dup2\n      dup6\n      dup9\n      dup9\n      call\n      swap4\n      pop\n      pop\n      pop\n      pop\n      iszero\n      dup1\n      iszero\n      tag_140\n      jumpi\n      returndatasize\n      0x00\n      dup1\n      returndatacopy\n      revert(0x00, returndatasize)\n    tag_140:\n      pop\n        /* \"contracts/real-estate-marketplace/Escrow.sol\":4238:4252  sharesContract */\n      0x04\n      0x00\n      swap1\n      sload\n      swap1\n      0x0100\n      exp\n      swap1\n      div\n      0xffffffffffffffffffffffffffffffffffffffff\n      and\n        /* \"contracts/real-estate-marketplace/Escrow.sol\":4238:4264  sharesContract.issueShares */\n      0xffffffffffffffffffffffffffffffffffffffff\n      and\n      0xdd8aa6f6\n        /* \"contracts/real-estate-marketplace/Escrow.sol\":4265:4268  txn */\n      dup3\n        /* \"contracts/real-estate-marketplace/Escrow.sol\":4265:4277  txn.basketId */\n      0x02\n      add\n      sload\n        /* \"contracts/real-estate-marketplace/Escrow.sol\":4279:4282  txn */\n      dup4\n        /* \"contracts/real-estate-marketplace/Escrow.sol\":4279:4288  txn.buyer */\n      0x00\n      add\n      0x00\n      swap1\n      sload\n      swap1\n      0x0100\n      exp\n      swap1\n      div\n      0xffffffffffffffffffffffffffffffffffffffff\n      and\n        /* \"contracts/real-estate-marketplace/Escrow.sol\":4290:4293  txn */\n      dup5\n        /* \"contracts/real-estate-marketplace/Escrow.sol\":4290:4300  txn.amount */\n      0x03\n      add\n      sload\n        /* \"contracts/real-estate-marketplace/Escrow.sol\":4238:4301  sharesContract.issueShares(txn.basketId, txn.buyer, txn.amount) */\n      mload(0x40)\n      dup5\n      0xffffffff\n      and\n      0xe0\n      shl\n      dup2\n      mstore\n      0x04\n      add\n      tag_141\n      swap4\n      swap3\n      swap2\n      swap1\n      tag_142\n      jump\t// in\n    tag_141:\n      0x00\n      mload(0x40)\n      dup1\n      dup4\n      sub\n      dup2\n      0x00\n      dup8\n      dup1\n      extcodesize\n      iszero\n      dup1\n      iszero\n      tag_143\n      jumpi\n      0x00\n      dup1\n      revert\n    tag_143:\n      pop\n      gas\n      call\n      iszero\n      dup1\n      iszero\n      tag_145\n      jumpi\n      returndatasize\n      0x00\n      dup1\n      returndatacopy\n      revert(0x00, returndatasize)\n    tag_145:\n      pop\n      pop\n      pop\n      pop\n        /* \"contracts/real-estate-marketplace/Escrow.sol\":4320:4355  TransactionCompleted(transactionId) */\n      0x161186077e0cdfa49fae16d54ce01ea091439dbf14243419593fa6c051c906c8\n        /* \"contracts/real-estate-marketplace/Escrow.sol\":4341:4354  transactionId */\n      dup4\n        /* \"contracts/real-estate-marketplace/Escrow.sol\":4320:4355  TransactionCompleted(transactionId) */\n      mload(0x40)\n      tag_146\n      swap2\n      swap1\n      tag_74\n      jump\t// in\n    tag_146:\n      mload(0x40)\n      dup1\n      swap2\n      sub\n      swap1\n      log1\n        /* \"contracts/real-estate-marketplace/Escrow.sol\":4110:4535  if (approve) {... */\n      jump(tag_147)\n    tag_136:\n        /* \"contracts/real-estate-marketplace/Escrow.sol\":4398:4418  EscrowState.Refunded */\n      0x03\n        /* \"contracts/real-estate-marketplace/Escrow.sol\":4386:4389  txn */\n      dup2\n        /* \"contracts/real-estate-marketplace/Escrow.sol\":4386:4395  txn.state */\n      0x04\n      add\n      0x00\n        /* \"contracts/real-estate-marketplace/Escrow.sol\":4386:4418  txn.state = EscrowState.Refunded */\n      0x0100\n      exp\n      dup2\n      sload\n      dup2\n      0xff\n      mul\n      not\n      and\n      swap1\n      dup4\n      0x03\n      dup2\n      gt\n      iszero\n      tag_148\n      jumpi\n      tag_149\n      tag_111\n      jump\t// in\n    tag_149:\n    tag_148:\n      mul\n      or\n      swap1\n      sstore\n      pop\n        /* \"contracts/real-estate-marketplace/Escrow.sol\":4440:4443  txn */\n      dup1\n        /* \"contracts/real-estate-marketplace/Escrow.sol\":4440:4449  txn.buyer */\n      0x00\n      add\n      0x00\n      swap1\n      sload\n      swap1\n      0x0100\n      exp\n      swap1\n      div\n      0xffffffffffffffffffffffffffffffffffffffff\n      and\n        /* \"contracts/real-estate-marketplace/Escrow.sol\":4432:4459  payable(txn.buyer).transfer */\n      0xffffffffffffffffffffffffffffffffffffffff\n      and\n        /* \"contracts/real-estate-marketplace/Escrow.sol\":4432:4471  payable(txn.buyer).transfer(txn.amount) */\n      0x08fc\n        /* \"contracts/real-estate-marketplace/Escrow.sol\":4460:4463  txn */\n      dup3\n        /* \"contracts/real-estate-marketplace/Escrow.sol\":4460:4470  txn.amount */\n      0x03\n      add\n      sload\n        /* \"contracts/real-estate-marketplace/Escrow.sol\":4432:4471  payable(txn.buyer).transfer(txn.amount) */\n      swap1\n      dup2\n      iszero\n      mul\n      swap1\n      mload(0x40)\n      0x00\n      mload(0x40)\n      dup1\n      dup4\n      sub\n      dup2\n      dup6\n      dup9\n      dup9\n      call\n      swap4\n      pop\n      pop\n      pop\n      pop\n      iszero\n      dup1\n      iszero\n      tag_151\n      jumpi\n      returndatasize\n      0x00\n      dup1\n      returndatacopy\n      revert(0x00, returndatasize)\n    tag_151:\n      pop\n        /* \"contracts/real-estate-marketplace/Escrow.sol\":4490:4524  TransactionRefunded(transactionId) */\n      0x4c5f7b4b152ec03bf5cc9c2af634e2efd9b7a01044e6ce4acef7e3c955697a4d\n        /* \"contracts/real-estate-marketplace/Escrow.sol\":4510:4523  transactionId */\n      dup4\n        /* \"contracts/real-estate-marketplace/Escrow.sol\":4490:4524  TransactionRefunded(transactionId) */\n      mload(0x40)\n      tag_152\n      swap2\n      swap1\n      tag_74\n      jump\t// in\n    tag_152:\n      mload(0x40)\n      dup1\n      swap2\n      sub\n      swap1\n      log1\n        /* \"contracts/real-estate-marketplace/Escrow.sol\":4110:4535  if (approve) {... */\n    tag_147:\n        /* \"contracts/real-estate-marketplace/Escrow.sol\":4560:4575  block.timestamp */\n      timestamp\n        /* \"contracts/real-estate-marketplace/Escrow.sol\":4544:4547  txn */\n      dup2\n        /* \"contracts/real-estate-marketplace/Escrow.sol\":4544:4557  txn.updatedAt */\n      0x06\n      add\n        /* \"contracts/real-estate-marketplace/Escrow.sol\":4544:4575  txn.updatedAt = block.timestamp */\n      dup2\n      swap1\n      sstore\n      pop\n        /* \"contracts/real-estate-marketplace/Escrow.sol\":3953:4582  {... */\n      pop\n        /* \"contracts/real-estate-marketplace/Escrow.sol\":3865:4582  function resolveDispute(uint256 transactionId, bool approve) external onlyOwner payable {... */\n      pop\n      pop\n      jump\t// out\n        /* \"contracts/real-estate-marketplace/Escrow.sol\":5254:5319  function unpause() external onlyOwner {... */\n    tag_38:\n        /* \"@openzeppelin/contracts/access/Ownable.sol\":1531:1544  _checkOwner() */\n      tag_154\n        /* \"@openzeppelin/contracts/access/Ownable.sol\":1531:1542  _checkOwner */\n      tag_127\n        /* \"@openzeppelin/contracts/access/Ownable.sol\":1531:1544  _checkOwner() */\n      jump\t// in\n    tag_154:\n        /* \"contracts/real-estate-marketplace/Escrow.sol\":5302:5312  _unpause() */\n      tag_156\n        /* \"contracts/real-estate-marketplace/Escrow.sol\":5302:5310  _unpause */\n      tag_157\n        /* \"contracts/real-estate-marketplace/Escrow.sol\":5302:5312  _unpause() */\n      jump\t// in\n    tag_156:\n        /* \"contracts/real-estate-marketplace/Escrow.sol\":5254:5319  function unpause() external onlyOwner {... */\n      jump\t// out\n        /* \"@openzeppelin/contracts/utils/Pausable.sol\":1850:1934  function paused() public view virtual returns (bool) {... */\n    tag_41:\n        /* \"@openzeppelin/contracts/utils/Pausable.sol\":1897:1901  bool */\n      0x00\n        /* \"@openzeppelin/contracts/utils/Pausable.sol\":1920:1927  _paused */\n      dup1\n      0x14\n      swap1\n      sload\n      swap1\n      0x0100\n      exp\n      swap1\n      div\n      0xff\n      and\n        /* \"@openzeppelin/contracts/utils/Pausable.sol\":1913:1927  return _paused */\n      swap1\n      pop\n        /* \"@openzeppelin/contracts/utils/Pausable.sol\":1850:1934  function paused() public view virtual returns (bool) {... */\n      swap1\n      jump\t// out\n        /* \"@openzeppelin/contracts/access/Ownable.sol\":2293:2394  function renounceOwnership() public virtual onlyOwner {... */\n    tag_46:\n        /* \"@openzeppelin/contracts/access/Ownable.sol\":1531:1544  _checkOwner() */\n      tag_160\n        /* \"@openzeppelin/contracts/access/Ownable.sol\":1531:1542  _checkOwner */\n      tag_127\n        /* \"@openzeppelin/contracts/access/Ownable.sol\":1531:1544  _checkOwner() */\n      jump\t// in\n    tag_160:\n        /* \"@openzeppelin/contracts/access/Ownable.sol\":2357:2387  _transferOwnership(address(0)) */\n      tag_162\n        /* \"@openzeppelin/contracts/access/Ownable.sol\":2384:2385  0 */\n      0x00\n        /* \"@openzeppelin/contracts/access/Ownable.sol\":2357:2375  _transferOwnership */\n      tag_163\n        /* \"@openzeppelin/contracts/access/Ownable.sol\":2357:2387  _transferOwnership(address(0)) */\n      jump\t// in\n    tag_162:\n        /* \"@openzeppelin/contracts/access/Ownable.sol\":2293:2394  function renounceOwnership() public virtual onlyOwner {... */\n      jump\t// out\n        /* \"contracts/real-estate-marketplace/Escrow.sol\":803:832  IShares public sharesContract */\n    tag_49:\n      0x04\n      0x00\n      swap1\n      sload\n      swap1\n      0x0100\n      exp\n      swap1\n      div\n      0xffffffffffffffffffffffffffffffffffffffff\n      and\n      dup2\n      jump\t// out\n        /* \"contracts/real-estate-marketplace/Escrow.sol\":5187:5248  function pause() external onlyOwner {... */\n    tag_54:\n        /* \"@openzeppelin/contracts/access/Ownable.sol\":1531:1544  _checkOwner() */\n      tag_165\n        /* \"@openzeppelin/contracts/access/Ownable.sol\":1531:1542  _checkOwner */\n      tag_127\n        /* \"@openzeppelin/contracts/access/Ownable.sol\":1531:1544  _checkOwner() */\n      jump\t// in\n    tag_165:\n        /* \"contracts/real-estate-marketplace/Escrow.sol\":5233:5241  _pause() */\n      tag_167\n        /* \"contracts/real-estate-marketplace/Escrow.sol\":5233:5239  _pause */\n      tag_168\n        /* \"contracts/real-estate-marketplace/Escrow.sol\":5233:5241  _pause() */\n      jump\t// in\n    tag_167:\n        /* \"contracts/real-estate-marketplace/Escrow.sol\":5187:5248  function pause() external onlyOwner {... */\n      jump\t// out\n        /* \"@openzeppelin/contracts/access/Ownable.sol\":1638:1723  function owner() public view virtual returns (address) {... */\n    tag_57:\n        /* \"@openzeppelin/contracts/access/Ownable.sol\":1684:1691  address */\n      0x00\n        /* \"@openzeppelin/contracts/access/Ownable.sol\":1710:1716  _owner */\n      dup1\n      0x00\n      swap1\n      sload\n      swap1\n      0x0100\n      exp\n      swap1\n      div\n      0xffffffffffffffffffffffffffffffffffffffff\n      and\n        /* \"@openzeppelin/contracts/access/Ownable.sol\":1703:1716  return _owner */\n      swap1\n      pop\n        /* \"@openzeppelin/contracts/access/Ownable.sol\":1638:1723  function owner() public view virtual returns (address) {... */\n      swap1\n      jump\t// out\n        /* \"contracts/real-estate-marketplace/Escrow.sol\":764:797  IProperty public propertyContract */\n    tag_62:\n      0x03\n      0x00\n      swap1\n      sload\n      swap1\n      0x0100\n      exp\n      swap1\n      div\n      0xffffffffffffffffffffffffffffffffffffffff\n      and\n      dup2\n      jump\t// out\n        /* \"contracts/real-estate-marketplace/Escrow.sol\":706:757  mapping(uint256 => Transaction) public transactions */\n    tag_68:\n      mstore(0x20, 0x02)\n      dup1\n      0x00\n      mstore\n      keccak256(0x00, 0x40)\n      0x00\n      swap2\n      pop\n      swap1\n      pop\n      dup1\n      0x00\n      add\n      0x00\n      swap1\n      sload\n      swap1\n      0x0100\n      exp\n      swap1\n      div\n      0xffffffffffffffffffffffffffffffffffffffff\n      and\n      swap1\n      dup1\n      0x01\n      add\n      0x00\n      swap1\n      sload\n      swap1\n      0x0100\n      exp\n      swap1\n      div\n      0xffffffffffffffffffffffffffffffffffffffff\n      and\n      swap1\n      dup1\n      0x02\n      add\n      sload\n      swap1\n      dup1\n      0x03\n      add\n      sload\n      swap1\n      dup1\n      0x04\n      add\n      0x00\n      swap1\n      sload\n      swap1\n      0x0100\n      exp\n      swap1\n      div\n      0xff\n      and\n      swap1\n      dup1\n      0x05\n      add\n      sload\n      swap1\n      dup1\n      0x06\n      add\n      sload\n      swap1\n      dup1\n      0x07\n      add\n      dup1\n      sload\n      tag_170\n      swap1\n      tag_120\n      jump\t// in\n    tag_170:\n      dup1\n      0x1f\n      add\n      0x20\n      dup1\n      swap2\n      div\n      mul\n      0x20\n      add\n      mload(0x40)\n      swap1\n      dup2\n      add\n      0x40\n      mstore\n      dup1\n      swap3\n      swap2\n      swap1\n      dup2\n      dup2\n      mstore\n      0x20\n      add\n      dup3\n      dup1\n      sload\n      tag_171\n      swap1\n      tag_120\n      jump\t// in\n    tag_171:\n      dup1\n      iszero\n      tag_172\n      jumpi\n      dup1\n      0x1f\n      lt\n      tag_173\n      jumpi\n      0x0100\n      dup1\n      dup4\n      sload\n      div\n      mul\n      dup4\n      mstore\n      swap2\n      0x20\n      add\n      swap2\n      jump(tag_172)\n    tag_173:\n      dup3\n      add\n      swap2\n      swap1\n      0x00\n      mstore\n      keccak256(0x00, 0x20)\n      swap1\n    tag_174:\n      dup2\n      sload\n      dup2\n      mstore\n      swap1\n      0x01\n      add\n      swap1\n      0x20\n      add\n      dup1\n      dup4\n      gt\n      tag_174\n      jumpi\n      dup3\n      swap1\n      sub\n      0x1f\n      and\n      dup3\n      add\n      swap2\n    tag_172:\n      pop\n      pop\n      pop\n      pop\n      pop\n      swap1\n      pop\n      dup9\n      jump\t// out\n        /* \"contracts/real-estate-marketplace/Escrow.sol\":669:700  uint256 public transactionCount */\n    tag_72:\n      sload(0x01)\n      dup2\n      jump\t// out\n        /* \"contracts/real-estate-marketplace/Escrow.sol\":3099:3470  function refundTransaction(uint256 transactionId) external onlyBuyer(transactionId) onlyPending(transactionId) payable {... */\n    tag_77:\n        /* \"contracts/real-estate-marketplace/Escrow.sol\":3168:3181  transactionId */\n      dup1\n        /* \"contracts/real-estate-marketplace/Escrow.sol\":1226:1238  transactions */\n      0x02\n        /* \"contracts/real-estate-marketplace/Escrow.sol\":1226:1253  transactions[transactionId] */\n      0x00\n        /* \"contracts/real-estate-marketplace/Escrow.sol\":1239:1252  transactionId */\n      dup3\n        /* \"contracts/real-estate-marketplace/Escrow.sol\":1226:1253  transactions[transactionId] */\n      dup2\n      mstore\n      0x20\n      add\n      swap1\n      dup2\n      mstore\n      0x20\n      add\n      0x00\n      keccak256\n        /* \"contracts/real-estate-marketplace/Escrow.sol\":1226:1259  transactions[transactionId].buyer */\n      0x00\n      add\n      0x00\n      swap1\n      sload\n      swap1\n      0x0100\n      exp\n      swap1\n      div\n      0xffffffffffffffffffffffffffffffffffffffff\n      and\n        /* \"contracts/real-estate-marketplace/Escrow.sol\":1212:1259  msg.sender == transactions[transactionId].buyer */\n      0xffffffffffffffffffffffffffffffffffffffff\n      and\n        /* \"contracts/real-estate-marketplace/Escrow.sol\":1212:1222  msg.sender */\n      caller\n        /* \"contracts/real-estate-marketplace/Escrow.sol\":1212:1259  msg.sender == transactions[transactionId].buyer */\n      0xffffffffffffffffffffffffffffffffffffffff\n      and\n      eq\n        /* \"contracts/real-estate-marketplace/Escrow.sol\":1204:1278  require(msg.sender == transactions[transactionId].buyer, \"Not authorized\") */\n      tag_176\n      jumpi\n      mload(0x40)\n      0x08c379a000000000000000000000000000000000000000000000000000000000\n      dup2\n      mstore\n      0x04\n      add\n      tag_177\n      swap1\n      tag_178\n      jump\t// in\n    tag_177:\n      mload(0x40)\n      dup1\n      swap2\n      sub\n      swap1\n      revert\n    tag_176:\n        /* \"contracts/real-estate-marketplace/Escrow.sol\":3195:3208  transactionId */\n      dup2\n        /* \"contracts/real-estate-marketplace/Escrow.sol\":1553:1572  EscrowState.Pending */\n      0x00\n        /* \"contracts/real-estate-marketplace/Escrow.sol\":1516:1572  transactions[transactionId].state == EscrowState.Pending */\n      0x03\n      dup2\n      gt\n      iszero\n      tag_180\n      jumpi\n      tag_181\n      tag_111\n      jump\t// in\n    tag_181:\n    tag_180:\n        /* \"contracts/real-estate-marketplace/Escrow.sol\":1516:1528  transactions */\n      0x02\n        /* \"contracts/real-estate-marketplace/Escrow.sol\":1516:1543  transactions[transactionId] */\n      0x00\n        /* \"contracts/real-estate-marketplace/Escrow.sol\":1529:1542  transactionId */\n      dup4\n        /* \"contracts/real-estate-marketplace/Escrow.sol\":1516:1543  transactions[transactionId] */\n      dup2\n      mstore\n      0x20\n      add\n      swap1\n      dup2\n      mstore\n      0x20\n      add\n      0x00\n      keccak256\n        /* \"contracts/real-estate-marketplace/Escrow.sol\":1516:1549  transactions[transactionId].state */\n      0x04\n      add\n      0x00\n      swap1\n      sload\n      swap1\n      0x0100\n      exp\n      swap1\n      div\n      0xff\n      and\n        /* \"contracts/real-estate-marketplace/Escrow.sol\":1516:1572  transactions[transactionId].state == EscrowState.Pending */\n      0x03\n      dup2\n      gt\n      iszero\n      tag_182\n      jumpi\n      tag_183\n      tag_111\n      jump\t// in\n    tag_183:\n    tag_182:\n      eq\n        /* \"contracts/real-estate-marketplace/Escrow.sol\":1508:1603  require(transactions[transactionId].state == EscrowState.Pending, \"Transaction is not pending\") */\n      tag_184\n      jumpi\n      mload(0x40)\n      0x08c379a000000000000000000000000000000000000000000000000000000000\n      dup2\n      mstore\n      0x04\n      add\n      tag_185\n      swap1\n      tag_186\n      jump\t// in\n    tag_185:\n      mload(0x40)\n      dup1\n      swap2\n      sub\n      swap1\n      revert\n    tag_184:\n        /* \"contracts/real-estate-marketplace/Escrow.sol\":3228:3251  Transaction storage txn */\n      0x00\n        /* \"contracts/real-estate-marketplace/Escrow.sol\":3254:3266  transactions */\n      0x02\n        /* \"contracts/real-estate-marketplace/Escrow.sol\":3254:3281  transactions[transactionId] */\n      0x00\n        /* \"contracts/real-estate-marketplace/Escrow.sol\":3267:3280  transactionId */\n      dup6\n        /* \"contracts/real-estate-marketplace/Escrow.sol\":3254:3281  transactions[transactionId] */\n      dup2\n      mstore\n      0x20\n      add\n      swap1\n      dup2\n      mstore\n      0x20\n      add\n      0x00\n      keccak256\n        /* \"contracts/real-estate-marketplace/Escrow.sol\":3228:3281  Transaction storage txn = transactions[transactionId] */\n      swap1\n      pop\n        /* \"contracts/real-estate-marketplace/Escrow.sol\":3303:3323  EscrowState.Disputed */\n      0x02\n        /* \"contracts/real-estate-marketplace/Escrow.sol\":3291:3294  txn */\n      dup2\n        /* \"contracts/real-estate-marketplace/Escrow.sol\":3291:3300  txn.state */\n      0x04\n      add\n      0x00\n        /* \"contracts/real-estate-marketplace/Escrow.sol\":3291:3323  txn.state = EscrowState.Disputed */\n      0x0100\n      exp\n      dup2\n      sload\n      dup2\n      0xff\n      mul\n      not\n      and\n      swap1\n      dup4\n      0x03\n      dup2\n      gt\n      iszero\n      tag_188\n      jumpi\n      tag_189\n      tag_111\n      jump\t// in\n    tag_189:\n    tag_188:\n      mul\n      or\n      swap1\n      sstore\n      pop\n        /* \"contracts/real-estate-marketplace/Escrow.sol\":3341:3344  txn */\n      dup1\n        /* \"contracts/real-estate-marketplace/Escrow.sol\":3341:3350  txn.buyer */\n      0x00\n      add\n      0x00\n      swap1\n      sload\n      swap1\n      0x0100\n      exp\n      swap1\n      div\n      0xffffffffffffffffffffffffffffffffffffffff\n      and\n        /* \"contracts/real-estate-marketplace/Escrow.sol\":3333:3360  payable(txn.buyer).transfer */\n      0xffffffffffffffffffffffffffffffffffffffff\n      and\n        /* \"contracts/real-estate-marketplace/Escrow.sol\":3333:3372  payable(txn.buyer).transfer(txn.amount) */\n      0x08fc\n        /* \"contracts/real-estate-marketplace/Escrow.sol\":3361:3364  txn */\n      dup3\n        /* \"contracts/real-estate-marketplace/Escrow.sol\":3361:3371  txn.amount */\n      0x03\n      add\n      sload\n        /* \"contracts/real-estate-marketplace/Escrow.sol\":3333:3372  payable(txn.buyer).transfer(txn.amount) */\n      swap1\n      dup2\n      iszero\n      mul\n      swap1\n      mload(0x40)\n      0x00\n      mload(0x40)\n      dup1\n      dup4\n      sub\n      dup2\n      dup6\n      dup9\n      dup9\n      call\n      swap4\n      pop\n      pop\n      pop\n      pop\n      iszero\n      dup1\n      iszero\n      tag_191\n      jumpi\n      returndatasize\n      0x00\n      dup1\n      returndatacopy\n      revert(0x00, returndatasize)\n    tag_191:\n      pop\n        /* \"contracts/real-estate-marketplace/Escrow.sol\":3398:3413  block.timestamp */\n      timestamp\n        /* \"contracts/real-estate-marketplace/Escrow.sol\":3382:3385  txn */\n      dup2\n        /* \"contracts/real-estate-marketplace/Escrow.sol\":3382:3395  txn.updatedAt */\n      0x06\n      add\n        /* \"contracts/real-estate-marketplace/Escrow.sol\":3382:3413  txn.updatedAt = block.timestamp */\n      dup2\n      swap1\n      sstore\n      pop\n        /* \"contracts/real-estate-marketplace/Escrow.sol\":3429:3463  TransactionRefunded(transactionId) */\n      0x4c5f7b4b152ec03bf5cc9c2af634e2efd9b7a01044e6ce4acef7e3c955697a4d\n        /* \"contracts/real-estate-marketplace/Escrow.sol\":3449:3462  transactionId */\n      dup5\n        /* \"contracts/real-estate-marketplace/Escrow.sol\":3429:3463  TransactionRefunded(transactionId) */\n      mload(0x40)\n      tag_192\n      swap2\n      swap1\n      tag_74\n      jump\t// in\n    tag_192:\n      mload(0x40)\n      dup1\n      swap2\n      sub\n      swap1\n      log1\n        /* \"contracts/real-estate-marketplace/Escrow.sol\":3218:3470  {... */\n      pop\n        /* \"contracts/real-estate-marketplace/Escrow.sol\":1288:1289  _ */\n      pop\n        /* \"contracts/real-estate-marketplace/Escrow.sol\":3099:3470  function refundTransaction(uint256 transactionId) external onlyBuyer(transactionId) onlyPending(transactionId) payable {... */\n      pop\n      pop\n      jump\t// out\n        /* \"contracts/real-estate-marketplace/Escrow.sol\":3476:3859  function disputeTransaction(uint256 transactionId, string calldata reason) external onlyBuyer(transactionId) onlyPending(transactionId) {... */\n    tag_82:\n        /* \"contracts/real-estate-marketplace/Escrow.sol\":3570:3583  transactionId */\n      dup3\n        /* \"contracts/real-estate-marketplace/Escrow.sol\":1226:1238  transactions */\n      0x02\n        /* \"contracts/real-estate-marketplace/Escrow.sol\":1226:1253  transactions[transactionId] */\n      0x00\n        /* \"contracts/real-estate-marketplace/Escrow.sol\":1239:1252  transactionId */\n      dup3\n        /* \"contracts/real-estate-marketplace/Escrow.sol\":1226:1253  transactions[transactionId] */\n      dup2\n      mstore\n      0x20\n      add\n      swap1\n      dup2\n      mstore\n      0x20\n      add\n      0x00\n      keccak256\n        /* \"contracts/real-estate-marketplace/Escrow.sol\":1226:1259  transactions[transactionId].buyer */\n      0x00\n      add\n      0x00\n      swap1\n      sload\n      swap1\n      0x0100\n      exp\n      swap1\n      div\n      0xffffffffffffffffffffffffffffffffffffffff\n      and\n        /* \"contracts/real-estate-marketplace/Escrow.sol\":1212:1259  msg.sender == transactions[transactionId].buyer */\n      0xffffffffffffffffffffffffffffffffffffffff\n      and\n        /* \"contracts/real-estate-marketplace/Escrow.sol\":1212:1222  msg.sender */\n      caller\n        /* \"contracts/real-estate-marketplace/Escrow.sol\":1212:1259  msg.sender == transactions[transactionId].buyer */\n      0xffffffffffffffffffffffffffffffffffffffff\n      and\n      eq\n        /* \"contracts/real-estate-marketplace/Escrow.sol\":1204:1278  require(msg.sender == transactions[transactionId].buyer, \"Not authorized\") */\n      tag_194\n      jumpi\n      mload(0x40)\n      0x08c379a000000000000000000000000000000000000000000000000000000000\n      dup2\n      mstore\n      0x04\n      add\n      tag_195\n      swap1\n      tag_178\n      jump\t// in\n    tag_195:\n      mload(0x40)\n      dup1\n      swap2\n      sub\n      swap1\n      revert\n    tag_194:\n        /* \"contracts/real-estate-marketplace/Escrow.sol\":3597:3610  transactionId */\n      dup4\n        /* \"contracts/real-estate-marketplace/Escrow.sol\":1553:1572  EscrowState.Pending */\n      0x00\n        /* \"contracts/real-estate-marketplace/Escrow.sol\":1516:1572  transactions[transactionId].state == EscrowState.Pending */\n      0x03\n      dup2\n      gt\n      iszero\n      tag_197\n      jumpi\n      tag_198\n      tag_111\n      jump\t// in\n    tag_198:\n    tag_197:\n        /* \"contracts/real-estate-marketplace/Escrow.sol\":1516:1528  transactions */\n      0x02\n        /* \"contracts/real-estate-marketplace/Escrow.sol\":1516:1543  transactions[transactionId] */\n      0x00\n        /* \"contracts/real-estate-marketplace/Escrow.sol\":1529:1542  transactionId */\n      dup4\n        /* \"contracts/real-estate-marketplace/Escrow.sol\":1516:1543  transactions[transactionId] */\n      dup2\n      mstore\n      0x20\n      add\n      swap1\n      dup2\n      mstore\n      0x20\n      add\n      0x00\n      keccak256\n        /* \"contracts/real-estate-marketplace/Escrow.sol\":1516:1549  transactions[transactionId].state */\n      0x04\n      add\n      0x00\n      swap1\n      sload\n      swap1\n      0x0100\n      exp\n      swap1\n      div\n      0xff\n      and\n        /* \"contracts/real-estate-marketplace/Escrow.sol\":1516:1572  transactions[transactionId].state == EscrowState.Pending */\n      0x03\n      dup2\n      gt\n      iszero\n      tag_199\n      jumpi\n      tag_200\n      tag_111\n      jump\t// in\n    tag_200:\n    tag_199:\n      eq\n        /* \"contracts/real-estate-marketplace/Escrow.sol\":1508:1603  require(transactions[transactionId].state == EscrowState.Pending, \"Transaction is not pending\") */\n      tag_201\n      jumpi\n      mload(0x40)\n      0x08c379a000000000000000000000000000000000000000000000000000000000\n      dup2\n      mstore\n      0x04\n      add\n      tag_202\n      swap1\n      tag_186\n      jump\t// in\n    tag_202:\n      mload(0x40)\n      dup1\n      swap2\n      sub\n      swap1\n      revert\n    tag_201:\n        /* \"contracts/real-estate-marketplace/Escrow.sol\":3622:3645  Transaction storage txn */\n      0x00\n        /* \"contracts/real-estate-marketplace/Escrow.sol\":3648:3660  transactions */\n      0x02\n        /* \"contracts/real-estate-marketplace/Escrow.sol\":3648:3675  transactions[transactionId] */\n      0x00\n        /* \"contracts/real-estate-marketplace/Escrow.sol\":3661:3674  transactionId */\n      dup8\n        /* \"contracts/real-estate-marketplace/Escrow.sol\":3648:3675  transactions[transactionId] */\n      dup2\n      mstore\n      0x20\n      add\n      swap1\n      dup2\n      mstore\n      0x20\n      add\n      0x00\n      keccak256\n        /* \"contracts/real-estate-marketplace/Escrow.sol\":3622:3675  Transaction storage txn = transactions[transactionId] */\n      swap1\n      pop\n        /* \"contracts/real-estate-marketplace/Escrow.sol\":3697:3717  EscrowState.Disputed */\n      0x02\n        /* \"contracts/real-estate-marketplace/Escrow.sol\":3685:3688  txn */\n      dup2\n        /* \"contracts/real-estate-marketplace/Escrow.sol\":3685:3694  txn.state */\n      0x04\n      add\n      0x00\n        /* \"contracts/real-estate-marketplace/Escrow.sol\":3685:3717  txn.state = EscrowState.Disputed */\n      0x0100\n      exp\n      dup2\n      sload\n      dup2\n      0xff\n      mul\n      not\n      and\n      swap1\n      dup4\n      0x03\n      dup2\n      gt\n      iszero\n      tag_204\n      jumpi\n      tag_205\n      tag_111\n      jump\t// in\n    tag_205:\n    tag_204:\n      mul\n      or\n      swap1\n      sstore\n      pop\n        /* \"contracts/real-estate-marketplace/Escrow.sol\":3747:3753  reason */\n      dup5\n      dup5\n        /* \"contracts/real-estate-marketplace/Escrow.sol\":3727:3730  txn */\n      dup3\n        /* \"contracts/real-estate-marketplace/Escrow.sol\":3727:3744  txn.disputeReason */\n      0x07\n      add\n        /* \"contracts/real-estate-marketplace/Escrow.sol\":3727:3753  txn.disputeReason = reason */\n      swap2\n      dup3\n      tag_206\n      swap3\n      swap2\n      swap1\n      tag_207\n      jump\t// in\n    tag_206:\n      pop\n        /* \"contracts/real-estate-marketplace/Escrow.sol\":3779:3794  block.timestamp */\n      timestamp\n        /* \"contracts/real-estate-marketplace/Escrow.sol\":3763:3766  txn */\n      dup2\n        /* \"contracts/real-estate-marketplace/Escrow.sol\":3763:3776  txn.updatedAt */\n      0x06\n      add\n        /* \"contracts/real-estate-marketplace/Escrow.sol\":3763:3794  txn.updatedAt = block.timestamp */\n      dup2\n      swap1\n      sstore\n      pop\n        /* \"contracts/real-estate-marketplace/Escrow.sol\":3810:3852  TransactionDisputed(transactionId, reason) */\n      0x1f1097374b196396d043cb547ad15553dde63e0f746eba010ef8065be3ec8f05\n        /* \"contracts/real-estate-marketplace/Escrow.sol\":3830:3843  transactionId */\n      dup7\n        /* \"contracts/real-estate-marketplace/Escrow.sol\":3845:3851  reason */\n      dup7\n      dup7\n        /* \"contracts/real-estate-marketplace/Escrow.sol\":3810:3852  TransactionDisputed(transactionId, reason) */\n      mload(0x40)\n      tag_208\n      swap4\n      swap3\n      swap2\n      swap1\n      tag_209\n      jump\t// in\n    tag_208:\n      mload(0x40)\n      dup1\n      swap2\n      sub\n      swap1\n      log1\n        /* \"contracts/real-estate-marketplace/Escrow.sol\":3612:3859  {... */\n      pop\n        /* \"contracts/real-estate-marketplace/Escrow.sol\":1288:1289  _ */\n      pop\n        /* \"contracts/real-estate-marketplace/Escrow.sol\":3476:3859  function disputeTransaction(uint256 transactionId, string calldata reason) external onlyBuyer(transactionId) onlyPending(transactionId) {... */\n      pop\n      pop\n      pop\n      pop\n      jump\t// out\n        /* \"@openzeppelin/contracts/access/Ownable.sol\":2543:2758  function transferOwnership(address newOwner) public virtual onlyOwner {... */\n    tag_87:\n        /* \"@openzeppelin/contracts/access/Ownable.sol\":1531:1544  _checkOwner() */\n      tag_211\n        /* \"@openzeppelin/contracts/access/Ownable.sol\":1531:1542  _checkOwner */\n      tag_127\n        /* \"@openzeppelin/contracts/access/Ownable.sol\":1531:1544  _checkOwner() */\n      jump\t// in\n    tag_211:\n        /* \"@openzeppelin/contracts/access/Ownable.sol\":2647:2648  0 */\n      0x00\n        /* \"@openzeppelin/contracts/access/Ownable.sol\":2627:2649  newOwner == address(0) */\n      0xffffffffffffffffffffffffffffffffffffffff\n      and\n        /* \"@openzeppelin/contracts/access/Ownable.sol\":2627:2635  newOwner */\n      dup2\n        /* \"@openzeppelin/contracts/access/Ownable.sol\":2627:2649  newOwner == address(0) */\n      0xffffffffffffffffffffffffffffffffffffffff\n      and\n      sub\n        /* \"@openzeppelin/contracts/access/Ownable.sol\":2623:2714  if (newOwner == address(0)) {... */\n      tag_213\n      jumpi\n        /* \"@openzeppelin/contracts/access/Ownable.sol\":2700:2701  0 */\n      0x00\n        /* \"@openzeppelin/contracts/access/Ownable.sol\":2672:2703  OwnableInvalidOwner(address(0)) */\n      mload(0x40)\n      0x1e4fbdf700000000000000000000000000000000000000000000000000000000\n      dup2\n      mstore\n      0x04\n      add\n      tag_214\n      swap2\n      swap1\n      tag_59\n      jump\t// in\n    tag_214:\n      mload(0x40)\n      dup1\n      swap2\n      sub\n      swap1\n      revert\n        /* \"@openzeppelin/contracts/access/Ownable.sol\":2623:2714  if (newOwner == address(0)) {... */\n    tag_213:\n        /* \"@openzeppelin/contracts/access/Ownable.sol\":2723:2751  _transferOwnership(newOwner) */\n      tag_215\n        /* \"@openzeppelin/contracts/access/Ownable.sol\":2742:2750  newOwner */\n      dup2\n        /* \"@openzeppelin/contracts/access/Ownable.sol\":2723:2741  _transferOwnership */\n      tag_163\n        /* \"@openzeppelin/contracts/access/Ownable.sol\":2723:2751  _transferOwnership(newOwner) */\n      jump\t// in\n    tag_215:\n        /* \"@openzeppelin/contracts/access/Ownable.sol\":2543:2758  function transferOwnership(address newOwner) public virtual onlyOwner {... */\n      pop\n      jump\t// out\n        /* \"contracts/real-estate-marketplace/Escrow.sol\":2596:3093  function completeTransaction(uint256 transactionId) external onlySeller(transactionId) onlyPending(transactionId) {... */\n    tag_91:\n        /* \"contracts/real-estate-marketplace/Escrow.sol\":2668:2681  transactionId */\n      dup1\n        /* \"contracts/real-estate-marketplace/Escrow.sol\":1377:1389  transactions */\n      0x02\n        /* \"contracts/real-estate-marketplace/Escrow.sol\":1377:1404  transactions[transactionId] */\n      0x00\n        /* \"contracts/real-estate-marketplace/Escrow.sol\":1390:1403  transactionId */\n      dup3\n        /* \"contracts/real-estate-marketplace/Escrow.sol\":1377:1404  transactions[transactionId] */\n      dup2\n      mstore\n      0x20\n      add\n      swap1\n      dup2\n      mstore\n      0x20\n      add\n      0x00\n      keccak256\n        /* \"contracts/real-estate-marketplace/Escrow.sol\":1377:1411  transactions[transactionId].seller */\n      0x01\n      add\n      0x00\n      swap1\n      sload\n      swap1\n      0x0100\n      exp\n      swap1\n      div\n      0xffffffffffffffffffffffffffffffffffffffff\n      and\n        /* \"contracts/real-estate-marketplace/Escrow.sol\":1363:1411  msg.sender == transactions[transactionId].seller */\n      0xffffffffffffffffffffffffffffffffffffffff\n      and\n        /* \"contracts/real-estate-marketplace/Escrow.sol\":1363:1373  msg.sender */\n      caller\n        /* \"contracts/real-estate-marketplace/Escrow.sol\":1363:1411  msg.sender == transactions[transactionId].seller */\n      0xffffffffffffffffffffffffffffffffffffffff\n      and\n      eq\n        /* \"contracts/real-estate-marketplace/Escrow.sol\":1355:1430  require(msg.sender == transactions[transactionId].seller, \"Not authorized\") */\n      tag_217\n      jumpi\n      mload(0x40)\n      0x08c379a000000000000000000000000000000000000000000000000000000000\n      dup2\n      mstore\n      0x04\n      add\n      tag_218\n      swap1\n      tag_178\n      jump\t// in\n    tag_218:\n      mload(0x40)\n      dup1\n      swap2\n      sub\n      swap1\n      revert\n    tag_217:\n        /* \"contracts/real-estate-marketplace/Escrow.sol\":2695:2708  transactionId */\n      dup2\n        /* \"contracts/real-estate-marketplace/Escrow.sol\":1553:1572  EscrowState.Pending */\n      0x00\n        /* \"contracts/real-estate-marketplace/Escrow.sol\":1516:1572  transactions[transactionId].state == EscrowState.Pending */\n      0x03\n      dup2\n      gt\n      iszero\n      tag_220\n      jumpi\n      tag_221\n      tag_111\n      jump\t// in\n    tag_221:\n    tag_220:\n        /* \"contracts/real-estate-marketplace/Escrow.sol\":1516:1528  transactions */\n      0x02\n        /* \"contracts/real-estate-marketplace/Escrow.sol\":1516:1543  transactions[transactionId] */\n      0x00\n        /* \"contracts/real-estate-marketplace/Escrow.sol\":1529:1542  transactionId */\n      dup4\n        /* \"contracts/real-estate-marketplace/Escrow.sol\":1516:1543  transactions[transactionId] */\n      dup2\n      mstore\n      0x20\n      add\n      swap1\n      dup2\n      mstore\n      0x20\n      add\n      0x00\n      keccak256\n        /* \"contracts/real-estate-marketplace/Escrow.sol\":1516:1549  transactions[transactionId].state */\n      0x04\n      add\n      0x00\n      swap1\n      sload\n      swap1\n      0x0100\n      exp\n      swap1\n      div\n      0xff\n      and\n        /* \"contracts/real-estate-marketplace/Escrow.sol\":1516:1572  transactions[transactionId].state == EscrowState.Pending */\n      0x03\n      dup2\n      gt\n      iszero\n      tag_222\n      jumpi\n      tag_223\n      tag_111\n      jump\t// in\n    tag_223:\n    tag_222:\n      eq\n        /* \"contracts/real-estate-marketplace/Escrow.sol\":1508:1603  require(transactions[transactionId].state == EscrowState.Pending, \"Transaction is not pending\") */\n      tag_224\n      jumpi\n      mload(0x40)\n      0x08c379a000000000000000000000000000000000000000000000000000000000\n      dup2\n      mstore\n      0x04\n      add\n      tag_225\n      swap1\n      tag_186\n      jump\t// in\n    tag_225:\n      mload(0x40)\n      dup1\n      swap2\n      sub\n      swap1\n      revert\n    tag_224:\n        /* \"contracts/real-estate-marketplace/Escrow.sol\":2720:2743  Transaction storage txn */\n      0x00\n        /* \"contracts/real-estate-marketplace/Escrow.sol\":2746:2758  transactions */\n      0x02\n        /* \"contracts/real-estate-marketplace/Escrow.sol\":2746:2773  transactions[transactionId] */\n      0x00\n        /* \"contracts/real-estate-marketplace/Escrow.sol\":2759:2772  transactionId */\n      dup6\n        /* \"contracts/real-estate-marketplace/Escrow.sol\":2746:2773  transactions[transactionId] */\n      dup2\n      mstore\n      0x20\n      add\n      swap1\n      dup2\n      mstore\n      0x20\n      add\n      0x00\n      keccak256\n        /* \"contracts/real-estate-marketplace/Escrow.sol\":2720:2773  Transaction storage txn = transactions[transactionId] */\n      swap1\n      pop\n        /* \"contracts/real-estate-marketplace/Escrow.sol\":2795:2816  EscrowState.Completed */\n      0x01\n        /* \"contracts/real-estate-marketplace/Escrow.sol\":2783:2786  txn */\n      dup2\n        /* \"contracts/real-estate-marketplace/Escrow.sol\":2783:2792  txn.state */\n      0x04\n      add\n      0x00\n        /* \"contracts/real-estate-marketplace/Escrow.sol\":2783:2816  txn.state = EscrowState.Completed */\n      0x0100\n      exp\n      dup2\n      sload\n      dup2\n      0xff\n      mul\n      not\n      and\n      swap1\n      dup4\n      0x03\n      dup2\n      gt\n      iszero\n      tag_227\n      jumpi\n      tag_228\n      tag_111\n      jump\t// in\n    tag_228:\n    tag_227:\n      mul\n      or\n      swap1\n      sstore\n      pop\n        /* \"contracts/real-estate-marketplace/Escrow.sol\":2834:2837  txn */\n      dup1\n        /* \"contracts/real-estate-marketplace/Escrow.sol\":2834:2844  txn.seller */\n      0x01\n      add\n      0x00\n      swap1\n      sload\n      swap1\n      0x0100\n      exp\n      swap1\n      div\n      0xffffffffffffffffffffffffffffffffffffffff\n      and\n        /* \"contracts/real-estate-marketplace/Escrow.sol\":2826:2854  payable(txn.seller).transfer */\n      0xffffffffffffffffffffffffffffffffffffffff\n      and\n        /* \"contracts/real-estate-marketplace/Escrow.sol\":2826:2866  payable(txn.seller).transfer(txn.amount) */\n      0x08fc\n        /* \"contracts/real-estate-marketplace/Escrow.sol\":2855:2858  txn */\n      dup3\n        /* \"contracts/real-estate-marketplace/Escrow.sol\":2855:2865  txn.amount */\n      0x03\n      add\n      sload\n        /* \"contracts/real-estate-marketplace/Escrow.sol\":2826:2866  payable(txn.seller).transfer(txn.amount) */\n      swap1\n      dup2\n      iszero\n      mul\n      swap1\n      mload(0x40)\n      0x00\n      mload(0x40)\n      dup1\n      dup4\n      sub\n      dup2\n      dup6\n      dup9\n      dup9\n      call\n      swap4\n      pop\n      pop\n      pop\n      pop\n      iszero\n      dup1\n      iszero\n      tag_230\n      jumpi\n      returndatasize\n      0x00\n      dup1\n      returndatacopy\n      revert(0x00, returndatasize)\n    tag_230:\n      pop\n        /* \"contracts/real-estate-marketplace/Escrow.sol\":2922:2936  sharesContract */\n      0x04\n      0x00\n      swap1\n      sload\n      swap1\n      0x0100\n      exp\n      swap1\n      div\n      0xffffffffffffffffffffffffffffffffffffffff\n      and\n        /* \"contracts/real-estate-marketplace/Escrow.sol\":2922:2948  sharesContract.issueShares */\n      0xffffffffffffffffffffffffffffffffffffffff\n      and\n      0xdd8aa6f6\n        /* \"contracts/real-estate-marketplace/Escrow.sol\":2949:2952  txn */\n      dup3\n        /* \"contracts/real-estate-marketplace/Escrow.sol\":2949:2961  txn.basketId */\n      0x02\n      add\n      sload\n        /* \"contracts/real-estate-marketplace/Escrow.sol\":2963:2966  txn */\n      dup4\n        /* \"contracts/real-estate-marketplace/Escrow.sol\":2963:2972  txn.buyer */\n      0x00\n      add\n      0x00\n      swap1\n      sload\n      swap1\n      0x0100\n      exp\n      swap1\n      div\n      0xffffffffffffffffffffffffffffffffffffffff\n      and\n        /* \"contracts/real-estate-marketplace/Escrow.sol\":2974:2977  txn */\n      dup5\n        /* \"contracts/real-estate-marketplace/Escrow.sol\":2974:2984  txn.amount */\n      0x03\n      add\n      sload\n        /* \"contracts/real-estate-marketplace/Escrow.sol\":2922:2985  sharesContract.issueShares(txn.basketId, txn.buyer, txn.amount) */\n      mload(0x40)\n      dup5\n      0xffffffff\n      and\n      0xe0\n      shl\n      dup2\n      mstore\n      0x04\n      add\n      tag_231\n      swap4\n      swap3\n      swap2\n      swap1\n      tag_142\n      jump\t// in\n    tag_231:\n      0x00\n      mload(0x40)\n      dup1\n      dup4\n      sub\n      dup2\n      0x00\n      dup8\n      dup1\n      extcodesize\n      iszero\n      dup1\n      iszero\n      tag_232\n      jumpi\n      0x00\n      dup1\n      revert\n    tag_232:\n      pop\n      gas\n      call\n      iszero\n      dup1\n      iszero\n      tag_234\n      jumpi\n      returndatasize\n      0x00\n      dup1\n      returndatacopy\n      revert(0x00, returndatasize)\n    tag_234:\n      pop\n      pop\n      pop\n      pop\n        /* \"contracts/real-estate-marketplace/Escrow.sol\":3020:3035  block.timestamp */\n      timestamp\n        /* \"contracts/real-estate-marketplace/Escrow.sol\":3004:3007  txn */\n      dup2\n        /* \"contracts/real-estate-marketplace/Escrow.sol\":3004:3017  txn.updatedAt */\n      0x06\n      add\n        /* \"contracts/real-estate-marketplace/Escrow.sol\":3004:3035  txn.updatedAt = block.timestamp */\n      dup2\n      swap1\n      sstore\n      pop\n        /* \"contracts/real-estate-marketplace/Escrow.sol\":3051:3086  TransactionCompleted(transactionId) */\n      0x161186077e0cdfa49fae16d54ce01ea091439dbf14243419593fa6c051c906c8\n        /* \"contracts/real-estate-marketplace/Escrow.sol\":3072:3085  transactionId */\n      dup5\n        /* \"contracts/real-estate-marketplace/Escrow.sol\":3051:3086  TransactionCompleted(transactionId) */\n      mload(0x40)\n      tag_235\n      swap2\n      swap1\n      tag_74\n      jump\t// in\n    tag_235:\n      mload(0x40)\n      dup1\n      swap2\n      sub\n      swap1\n      log1\n        /* \"contracts/real-estate-marketplace/Escrow.sol\":2710:3093  {... */\n      pop\n        /* \"contracts/real-estate-marketplace/Escrow.sol\":1440:1441  _ */\n      pop\n        /* \"contracts/real-estate-marketplace/Escrow.sol\":2596:3093  function completeTransaction(uint256 transactionId) external onlySeller(transactionId) onlyPending(transactionId) {... */\n      pop\n      pop\n      jump\t// out\n        /* \"@openzeppelin/contracts/utils/Pausable.sol\":2002:2130  function _requireNotPaused() internal view virtual {... */\n    tag_94:\n        /* \"@openzeppelin/contracts/utils/Pausable.sol\":2067:2075  paused() */\n      tag_237\n        /* \"@openzeppelin/contracts/utils/Pausable.sol\":2067:2073  paused */\n      tag_41\n        /* \"@openzeppelin/contracts/utils/Pausable.sol\":2067:2075  paused() */\n      jump\t// in\n    tag_237:\n        /* \"@openzeppelin/contracts/utils/Pausable.sol\":2063:2124  if (paused()) {... */\n      iszero\n      tag_238\n      jumpi\n        /* \"@openzeppelin/contracts/utils/Pausable.sol\":2098:2113  EnforcedPause() */\n      mload(0x40)\n      0xd93c066500000000000000000000000000000000000000000000000000000000\n      dup2\n      mstore\n      0x04\n      add\n      mload(0x40)\n      dup1\n      swap2\n      sub\n      swap1\n      revert\n        /* \"@openzeppelin/contracts/utils/Pausable.sol\":2063:2124  if (paused()) {... */\n    tag_238:\n        /* \"@openzeppelin/contracts/utils/Pausable.sol\":2002:2130  function _requireNotPaused() internal view virtual {... */\n      jump\t// out\n        /* \"@openzeppelin/contracts/access/Ownable.sol\":1796:1958  function _checkOwner() internal view virtual {... */\n    tag_127:\n        /* \"@openzeppelin/contracts/access/Ownable.sol\":1866:1878  _msgSender() */\n      tag_240\n        /* \"@openzeppelin/contracts/access/Ownable.sol\":1866:1876  _msgSender */\n      tag_241\n        /* \"@openzeppelin/contracts/access/Ownable.sol\":1866:1878  _msgSender() */\n      jump\t// in\n    tag_240:\n        /* \"@openzeppelin/contracts/access/Ownable.sol\":1855:1878  owner() != _msgSender() */\n      0xffffffffffffffffffffffffffffffffffffffff\n      and\n        /* \"@openzeppelin/contracts/access/Ownable.sol\":1855:1862  owner() */\n      tag_242\n        /* \"@openzeppelin/contracts/access/Ownable.sol\":1855:1860  owner */\n      tag_57\n        /* \"@openzeppelin/contracts/access/Ownable.sol\":1855:1862  owner() */\n      jump\t// in\n    tag_242:\n        /* \"@openzeppelin/contracts/access/Ownable.sol\":1855:1878  owner() != _msgSender() */\n      0xffffffffffffffffffffffffffffffffffffffff\n      and\n      eq\n        /* \"@openzeppelin/contracts/access/Ownable.sol\":1851:1952  if (owner() != _msgSender()) {... */\n      tag_243\n      jumpi\n        /* \"@openzeppelin/contracts/access/Ownable.sol\":1928:1940  _msgSender() */\n      tag_244\n        /* \"@openzeppelin/contracts/access/Ownable.sol\":1928:1938  _msgSender */\n      tag_241\n        /* \"@openzeppelin/contracts/access/Ownable.sol\":1928:1940  _msgSender() */\n      jump\t// in\n    tag_244:\n        /* \"@openzeppelin/contracts/access/Ownable.sol\":1901:1941  OwnableUnauthorizedAccount(_msgSender()) */\n      mload(0x40)\n      0x118cdaa700000000000000000000000000000000000000000000000000000000\n      dup2\n      mstore\n      0x04\n      add\n      tag_245\n      swap2\n      swap1\n      tag_59\n      jump\t// in\n    tag_245:\n      mload(0x40)\n      dup1\n      swap2\n      sub\n      swap1\n      revert\n        /* \"@openzeppelin/contracts/access/Ownable.sol\":1851:1952  if (owner() != _msgSender()) {... */\n    tag_243:\n        /* \"@openzeppelin/contracts/access/Ownable.sol\":1796:1958  function _checkOwner() internal view virtual {... */\n      jump\t// out\n        /* \"@openzeppelin/contracts/utils/Pausable.sol\":2710:2827  function _unpause() internal virtual whenPaused {... */\n    tag_157:\n        /* \"@openzeppelin/contracts/utils/Pausable.sol\":1721:1737  _requirePaused() */\n      tag_247\n        /* \"@openzeppelin/contracts/utils/Pausable.sol\":1721:1735  _requirePaused */\n      tag_248\n        /* \"@openzeppelin/contracts/utils/Pausable.sol\":1721:1737  _requirePaused() */\n      jump\t// in\n    tag_247:\n        /* \"@openzeppelin/contracts/utils/Pausable.sol\":2778:2783  false */\n      0x00\n        /* \"@openzeppelin/contracts/utils/Pausable.sol\":2768:2775  _paused */\n      dup1\n      0x14\n        /* \"@openzeppelin/contracts/utils/Pausable.sol\":2768:2783  _paused = false */\n      0x0100\n      exp\n      dup2\n      sload\n      dup2\n      0xff\n      mul\n      not\n      and\n      swap1\n      dup4\n      iszero\n      iszero\n      mul\n      or\n      swap1\n      sstore\n      pop\n        /* \"@openzeppelin/contracts/utils/Pausable.sol\":2798:2820  Unpaused(_msgSender()) */\n      0x5db9ee0a495bf2e6ff9c91a7834c1ba4fdd244a5e8aa4e537bd38aeae4b073aa\n        /* \"@openzeppelin/contracts/utils/Pausable.sol\":2807:2819  _msgSender() */\n      tag_250\n        /* \"@openzeppelin/contracts/utils/Pausable.sol\":2807:2817  _msgSender */\n      tag_241\n        /* \"@openzeppelin/contracts/utils/Pausable.sol\":2807:2819  _msgSender() */\n      jump\t// in\n    tag_250:\n        /* \"@openzeppelin/contracts/utils/Pausable.sol\":2798:2820  Unpaused(_msgSender()) */\n      mload(0x40)\n      tag_251\n      swap2\n      swap1\n      tag_59\n      jump\t// in\n    tag_251:\n      mload(0x40)\n      dup1\n      swap2\n      sub\n      swap1\n      log1\n        /* \"@openzeppelin/contracts/utils/Pausable.sol\":2710:2827  function _unpause() internal virtual whenPaused {... */\n      jump\t// out\n        /* \"@openzeppelin/contracts/access/Ownable.sol\":2912:3099  function _transferOwnership(address newOwner) internal virtual {... */\n    tag_163:\n        /* \"@openzeppelin/contracts/access/Ownable.sol\":2985:3001  address oldOwner */\n      0x00\n        /* \"@openzeppelin/contracts/access/Ownable.sol\":3004:3010  _owner */\n      dup1\n      0x00\n      swap1\n      sload\n      swap1\n      0x0100\n      exp\n      swap1\n      div\n      0xffffffffffffffffffffffffffffffffffffffff\n      and\n        /* \"@openzeppelin/contracts/access/Ownable.sol\":2985:3010  address oldOwner = _owner */\n      swap1\n      pop\n        /* \"@openzeppelin/contracts/access/Ownable.sol\":3029:3037  newOwner */\n      dup2\n        /* \"@openzeppelin/contracts/access/Ownable.sol\":3020:3026  _owner */\n      0x00\n      dup1\n        /* \"@openzeppelin/contracts/access/Ownable.sol\":3020:3037  _owner = newOwner */\n      0x0100\n      exp\n      dup2\n      sload\n      dup2\n      0xffffffffffffffffffffffffffffffffffffffff\n      mul\n      not\n      and\n      swap1\n      dup4\n      0xffffffffffffffffffffffffffffffffffffffff\n      and\n      mul\n      or\n      swap1\n      sstore\n      pop\n        /* \"@openzeppelin/contracts/access/Ownable.sol\":3083:3091  newOwner */\n      dup2\n        /* \"@openzeppelin/contracts/access/Ownable.sol\":3052:3092  OwnershipTransferred(oldOwner, newOwner) */\n      0xffffffffffffffffffffffffffffffffffffffff\n      and\n        /* \"@openzeppelin/contracts/access/Ownable.sol\":3073:3081  oldOwner */\n      dup2\n        /* \"@openzeppelin/contracts/access/Ownable.sol\":3052:3092  OwnershipTransferred(oldOwner, newOwner) */\n      0xffffffffffffffffffffffffffffffffffffffff\n      and\n      0x8be0079c531659141344cd1fd0a4f28419497f9722a3daafe3b4186f6b6457e0\n      mload(0x40)\n      mload(0x40)\n      dup1\n      swap2\n      sub\n      swap1\n      log3\n        /* \"@openzeppelin/contracts/access/Ownable.sol\":2975:3099  {... */\n      pop\n        /* \"@openzeppelin/contracts/access/Ownable.sol\":2912:3099  function _transferOwnership(address newOwner) internal virtual {... */\n      pop\n      jump\t// out\n        /* \"@openzeppelin/contracts/utils/Pausable.sol\":2463:2578  function _pause() internal virtual whenNotPaused {... */\n    tag_168:\n        /* \"@openzeppelin/contracts/utils/Pausable.sol\":1474:1493  _requireNotPaused() */\n      tag_254\n        /* \"@openzeppelin/contracts/utils/Pausable.sol\":1474:1491  _requireNotPaused */\n      tag_94\n        /* \"@openzeppelin/contracts/utils/Pausable.sol\":1474:1493  _requireNotPaused() */\n      jump\t// in\n    tag_254:\n        /* \"@openzeppelin/contracts/utils/Pausable.sol\":2532:2536  true */\n      0x01\n        /* \"@openzeppelin/contracts/utils/Pausable.sol\":2522:2529  _paused */\n      0x00\n      0x14\n        /* \"@openzeppelin/contracts/utils/Pausable.sol\":2522:2536  _paused = true */\n      0x0100\n      exp\n      dup2\n      sload\n      dup2\n      0xff\n      mul\n      not\n      and\n      swap1\n      dup4\n      iszero\n      iszero\n      mul\n      or\n      swap1\n      sstore\n      pop\n        /* \"@openzeppelin/contracts/utils/Pausable.sol\":2551:2571  Paused(_msgSender()) */\n      0x62e78cea01bee320cd4e420270b5ea74000d11b0c9f74754ebdbfc544b05a258\n        /* \"@openzeppelin/contracts/utils/Pausable.sol\":2558:2570  _msgSender() */\n      tag_256\n        /* \"@openzeppelin/contracts/utils/Pausable.sol\":2558:2568  _msgSender */\n      tag_241\n        /* \"@openzeppelin/contracts/utils/Pausable.sol\":2558:2570  _msgSender() */\n      jump\t// in\n    tag_256:\n        /* \"@openzeppelin/contracts/utils/Pausable.sol\":2551:2571  Paused(_msgSender()) */\n      mload(0x40)\n      tag_257\n      swap2\n      swap1\n      tag_59\n      jump\t// in\n    tag_257:\n      mload(0x40)\n      dup1\n      swap2\n      sub\n      swap1\n      log1\n        /* \"@openzeppelin/contracts/utils/Pausable.sol\":2463:2578  function _pause() internal virtual whenNotPaused {... */\n      jump\t// out\n        /* \"@openzeppelin/contracts/utils/Context.sol\":656:752  function _msgSender() internal view virtual returns (address) {... */\n    tag_241:\n        /* \"@openzeppelin/contracts/utils/Context.sol\":709:716  address */\n      0x00\n        /* \"@openzeppelin/contracts/utils/Context.sol\":735:745  msg.sender */\n      caller\n        /* \"@openzeppelin/contracts/utils/Context.sol\":728:745  return msg.sender */\n      swap1\n      pop\n        /* \"@openzeppelin/contracts/utils/Context.sol\":656:752  function _msgSender() internal view virtual returns (address) {... */\n      swap1\n      jump\t// out\n        /* \"@openzeppelin/contracts/utils/Pausable.sol\":2202:2328  function _requirePaused() internal view virtual {... */\n    tag_248:\n        /* \"@openzeppelin/contracts/utils/Pausable.sol\":2265:2273  paused() */\n      tag_260\n        /* \"@openzeppelin/contracts/utils/Pausable.sol\":2265:2271  paused */\n      tag_41\n        /* \"@openzeppelin/contracts/utils/Pausable.sol\":2265:2273  paused() */\n      jump\t// in\n    tag_260:\n        /* \"@openzeppelin/contracts/utils/Pausable.sol\":2260:2322  if (!paused()) {... */\n      tag_261\n      jumpi\n        /* \"@openzeppelin/contracts/utils/Pausable.sol\":2296:2311  ExpectedPause() */\n      mload(0x40)\n      0x8dfc202b00000000000000000000000000000000000000000000000000000000\n      dup2\n      mstore\n      0x04\n      add\n      mload(0x40)\n      dup1\n      swap2\n      sub\n      swap1\n      revert\n        /* \"@openzeppelin/contracts/utils/Pausable.sol\":2260:2322  if (!paused()) {... */\n    tag_261:\n        /* \"@openzeppelin/contracts/utils/Pausable.sol\":2202:2328  function _requirePaused() internal view virtual {... */\n      jump\t// out\n        /* \"#utility.yul\":7:82   */\n    tag_262:\n        /* \"#utility.yul\":40:46   */\n      0x00\n        /* \"#utility.yul\":73:75   */\n      0x40\n        /* \"#utility.yul\":67:76   */\n      mload\n        /* \"#utility.yul\":57:76   */\n      swap1\n      pop\n        /* \"#utility.yul\":7:82   */\n      swap1\n      jump\t// out\n        /* \"#utility.yul\":88:205   */\n    tag_263:\n        /* \"#utility.yul\":197:198   */\n      0x00\n        /* \"#utility.yul\":194:195   */\n      dup1\n        /* \"#utility.yul\":187:199   */\n      revert\n        /* \"#utility.yul\":211:328   */\n    tag_264:\n        /* \"#utility.yul\":320:321   */\n      0x00\n        /* \"#utility.yul\":317:318   */\n      dup1\n        /* \"#utility.yul\":310:322   */\n      revert\n        /* \"#utility.yul\":334:460   */\n    tag_265:\n        /* \"#utility.yul\":371:378   */\n      0x00\n        /* \"#utility.yul\":411:453   */\n      0xffffffffffffffffffffffffffffffffffffffff\n        /* \"#utility.yul\":404:409   */\n      dup3\n        /* \"#utility.yul\":400:454   */\n      and\n        /* \"#utility.yul\":389:454   */\n      swap1\n      pop\n        /* \"#utility.yul\":334:460   */\n      swap2\n      swap1\n      pop\n      jump\t// out\n        /* \"#utility.yul\":466:562   */\n    tag_266:\n        /* \"#utility.yul\":503:510   */\n      0x00\n        /* \"#utility.yul\":532:556   */\n      tag_343\n        /* \"#utility.yul\":550:555   */\n      dup3\n        /* \"#utility.yul\":532:556   */\n      tag_265\n      jump\t// in\n    tag_343:\n        /* \"#utility.yul\":521:556   */\n      swap1\n      pop\n        /* \"#utility.yul\":466:562   */\n      swap2\n      swap1\n      pop\n      jump\t// out\n        /* \"#utility.yul\":568:690   */\n    tag_267:\n        /* \"#utility.yul\":641:665   */\n      tag_345\n        /* \"#utility.yul\":659:664   */\n      dup2\n        /* \"#utility.yul\":641:665   */\n      tag_266\n      jump\t// in\n    tag_345:\n        /* \"#utility.yul\":634:639   */\n      dup2\n        /* \"#utility.yul\":631:666   */\n      eq\n        /* \"#utility.yul\":621:684   */\n      tag_346\n      jumpi\n        /* \"#utility.yul\":680:681   */\n      0x00\n        /* \"#utility.yul\":677:678   */\n      dup1\n        /* \"#utility.yul\":670:682   */\n      revert\n        /* \"#utility.yul\":621:684   */\n    tag_346:\n        /* \"#utility.yul\":568:690   */\n      pop\n      jump\t// out\n        /* \"#utility.yul\":696:835   */\n    tag_268:\n        /* \"#utility.yul\":742:747   */\n      0x00\n        /* \"#utility.yul\":780:786   */\n      dup2\n        /* \"#utility.yul\":767:787   */\n      calldataload\n        /* \"#utility.yul\":758:787   */\n      swap1\n      pop\n        /* \"#utility.yul\":796:829   */\n      tag_348\n        /* \"#utility.yul\":823:828   */\n      dup2\n        /* \"#utility.yul\":796:829   */\n      tag_267\n      jump\t// in\n    tag_348:\n        /* \"#utility.yul\":696:835   */\n      swap3\n      swap2\n      pop\n      pop\n      jump\t// out\n        /* \"#utility.yul\":841:918   */\n    tag_269:\n        /* \"#utility.yul\":878:885   */\n      0x00\n        /* \"#utility.yul\":907:912   */\n      dup2\n        /* \"#utility.yul\":896:912   */\n      swap1\n      pop\n        /* \"#utility.yul\":841:918   */\n      swap2\n      swap1\n      pop\n      jump\t// out\n        /* \"#utility.yul\":924:1046   */\n    tag_270:\n        /* \"#utility.yul\":997:1021   */\n      tag_351\n        /* \"#utility.yul\":1015:1020   */\n      dup2\n        /* \"#utility.yul\":997:1021   */\n      tag_269\n      jump\t// in\n    tag_351:\n        /* \"#utility.yul\":990:995   */\n      dup2\n        /* \"#utility.yul\":987:1022   */\n      eq\n        /* \"#utility.yul\":977:1040   */\n      tag_352\n      jumpi\n        /* \"#utility.yul\":1036:1037   */\n      0x00\n        /* \"#utility.yul\":1033:1034   */\n      dup1\n        /* \"#utility.yul\":1026:1038   */\n      revert\n        /* \"#utility.yul\":977:1040   */\n    tag_352:\n        /* \"#utility.yul\":924:1046   */\n      pop\n      jump\t// out\n        /* \"#utility.yul\":1052:1191   */\n    tag_271:\n        /* \"#utility.yul\":1098:1103   */\n      0x00\n        /* \"#utility.yul\":1136:1142   */\n      dup2\n        /* \"#utility.yul\":1123:1143   */\n      calldataload\n        /* \"#utility.yul\":1114:1143   */\n      swap1\n      pop\n        /* \"#utility.yul\":1152:1185   */\n      tag_354\n        /* \"#utility.yul\":1179:1184   */\n      dup2\n        /* \"#utility.yul\":1152:1185   */\n      tag_270\n      jump\t// in\n    tag_354:\n        /* \"#utility.yul\":1052:1191   */\n      swap3\n      swap2\n      pop\n      pop\n      jump\t// out\n        /* \"#utility.yul\":1197:1671   */\n    tag_23:\n        /* \"#utility.yul\":1265:1271   */\n      0x00\n        /* \"#utility.yul\":1273:1279   */\n      dup1\n        /* \"#utility.yul\":1322:1324   */\n      0x40\n        /* \"#utility.yul\":1310:1319   */\n      dup4\n        /* \"#utility.yul\":1301:1308   */\n      dup6\n        /* \"#utility.yul\":1297:1320   */\n      sub\n        /* \"#utility.yul\":1293:1325   */\n      slt\n        /* \"#utility.yul\":1290:1409   */\n      iszero\n      tag_356\n      jumpi\n        /* \"#utility.yul\":1328:1407   */\n      tag_357\n      tag_263\n      jump\t// in\n    tag_357:\n        /* \"#utility.yul\":1290:1409   */\n    tag_356:\n        /* \"#utility.yul\":1448:1449   */\n      0x00\n        /* \"#utility.yul\":1473:1526   */\n      tag_358\n        /* \"#utility.yul\":1518:1525   */\n      dup6\n        /* \"#utility.yul\":1509:1515   */\n      dup3\n        /* \"#utility.yul\":1498:1507   */\n      dup7\n        /* \"#utility.yul\":1494:1516   */\n      add\n        /* \"#utility.yul\":1473:1526   */\n      tag_268\n      jump\t// in\n    tag_358:\n        /* \"#utility.yul\":1463:1526   */\n      swap3\n      pop\n        /* \"#utility.yul\":1419:1536   */\n      pop\n        /* \"#utility.yul\":1575:1577   */\n      0x20\n        /* \"#utility.yul\":1601:1654   */\n      tag_359\n        /* \"#utility.yul\":1646:1653   */\n      dup6\n        /* \"#utility.yul\":1637:1643   */\n      dup3\n        /* \"#utility.yul\":1626:1635   */\n      dup7\n        /* \"#utility.yul\":1622:1644   */\n      add\n        /* \"#utility.yul\":1601:1654   */\n      tag_271\n      jump\t// in\n    tag_359:\n        /* \"#utility.yul\":1591:1654   */\n      swap2\n      pop\n        /* \"#utility.yul\":1546:1664   */\n      pop\n        /* \"#utility.yul\":1197:1671   */\n      swap3\n      pop\n      swap3\n      swap1\n      pop\n      jump\t// out\n        /* \"#utility.yul\":1677:2006   */\n    tag_28:\n        /* \"#utility.yul\":1736:1742   */\n      0x00\n        /* \"#utility.yul\":1785:1787   */\n      0x20\n        /* \"#utility.yul\":1773:1782   */\n      dup3\n        /* \"#utility.yul\":1764:1771   */\n      dup5\n        /* \"#utility.yul\":1760:1783   */\n      sub\n        /* \"#utility.yul\":1756:1788   */\n      slt\n        /* \"#utility.yul\":1753:1872   */\n      iszero\n      tag_361\n      jumpi\n        /* \"#utility.yul\":1791:1870   */\n      tag_362\n      tag_263\n      jump\t// in\n    tag_362:\n        /* \"#utility.yul\":1753:1872   */\n    tag_361:\n        /* \"#utility.yul\":1911:1912   */\n      0x00\n        /* \"#utility.yul\":1936:1989   */\n      tag_363\n        /* \"#utility.yul\":1981:1988   */\n      dup5\n        /* \"#utility.yul\":1972:1978   */\n      dup3\n        /* \"#utility.yul\":1961:1970   */\n      dup6\n        /* \"#utility.yul\":1957:1979   */\n      add\n        /* \"#utility.yul\":1936:1989   */\n      tag_271\n      jump\t// in\n    tag_363:\n        /* \"#utility.yul\":1926:1989   */\n      swap2\n      pop\n        /* \"#utility.yul\":1882:1999   */\n      pop\n        /* \"#utility.yul\":1677:2006   */\n      swap3\n      swap2\n      pop\n      pop\n      jump\t// out\n        /* \"#utility.yul\":2012:2130   */\n    tag_272:\n        /* \"#utility.yul\":2099:2123   */\n      tag_365\n        /* \"#utility.yul\":2117:2122   */\n      dup2\n        /* \"#utility.yul\":2099:2123   */\n      tag_266\n      jump\t// in\n    tag_365:\n        /* \"#utility.yul\":2094:2097   */\n      dup3\n        /* \"#utility.yul\":2087:2124   */\n      mstore\n        /* \"#utility.yul\":2012:2130   */\n      pop\n      pop\n      jump\t// out\n        /* \"#utility.yul\":2136:2254   */\n    tag_273:\n        /* \"#utility.yul\":2223:2247   */\n      tag_367\n        /* \"#utility.yul\":2241:2246   */\n      dup2\n        /* \"#utility.yul\":2223:2247   */\n      tag_269\n      jump\t// in\n    tag_367:\n        /* \"#utility.yul\":2218:2221   */\n      dup3\n        /* \"#utility.yul\":2211:2248   */\n      mstore\n        /* \"#utility.yul\":2136:2254   */\n      pop\n      pop\n      jump\t// out\n        /* \"#utility.yul\":2260:2440   */\n    tag_111:\n        /* \"#utility.yul\":2308:2385   */\n      0x4e487b7100000000000000000000000000000000000000000000000000000000\n        /* \"#utility.yul\":2305:2306   */\n      0x00\n        /* \"#utility.yul\":2298:2386   */\n      mstore\n        /* \"#utility.yul\":2405:2409   */\n      0x21\n        /* \"#utility.yul\":2402:2403   */\n      0x04\n        /* \"#utility.yul\":2395:2410   */\n      mstore\n        /* \"#utility.yul\":2429:2433   */\n      0x24\n        /* \"#utility.yul\":2426:2427   */\n      0x00\n        /* \"#utility.yul\":2419:2434   */\n      revert\n        /* \"#utility.yul\":2446:2567   */\n    tag_274:\n        /* \"#utility.yul\":2535:2536   */\n      0x04\n        /* \"#utility.yul\":2528:2533   */\n      dup2\n        /* \"#utility.yul\":2525:2537   */\n      lt\n        /* \"#utility.yul\":2515:2561   */\n      tag_370\n      jumpi\n        /* \"#utility.yul\":2541:2559   */\n      tag_371\n      tag_111\n      jump\t// in\n    tag_371:\n        /* \"#utility.yul\":2515:2561   */\n    tag_370:\n        /* \"#utility.yul\":2446:2567   */\n      pop\n      jump\t// out\n        /* \"#utility.yul\":2573:2716   */\n    tag_275:\n        /* \"#utility.yul\":2626:2633   */\n      0x00\n        /* \"#utility.yul\":2655:2660   */\n      dup2\n        /* \"#utility.yul\":2644:2660   */\n      swap1\n      pop\n        /* \"#utility.yul\":2661:2710   */\n      tag_373\n        /* \"#utility.yul\":2704:2709   */\n      dup3\n        /* \"#utility.yul\":2661:2710   */\n      tag_274\n      jump\t// in\n    tag_373:\n        /* \"#utility.yul\":2573:2716   */\n      swap2\n      swap1\n      pop\n      jump\t// out\n        /* \"#utility.yul\":2722:2865   */\n    tag_276:\n        /* \"#utility.yul\":2786:2795   */\n      0x00\n        /* \"#utility.yul\":2819:2859   */\n      tag_375\n        /* \"#utility.yul\":2853:2858   */\n      dup3\n        /* \"#utility.yul\":2819:2859   */\n      tag_275\n      jump\t// in\n    tag_375:\n        /* \"#utility.yul\":2806:2859   */\n      swap1\n      pop\n        /* \"#utility.yul\":2722:2865   */\n      swap2\n      swap1\n      pop\n      jump\t// out\n        /* \"#utility.yul\":2871:3030   */\n    tag_277:\n        /* \"#utility.yul\":2972:3023   */\n      tag_377\n        /* \"#utility.yul\":3017:3022   */\n      dup2\n        /* \"#utility.yul\":2972:3023   */\n      tag_276\n      jump\t// in\n    tag_377:\n        /* \"#utility.yul\":2967:2970   */\n      dup3\n        /* \"#utility.yul\":2960:3024   */\n      mstore\n        /* \"#utility.yul\":2871:3030   */\n      pop\n      pop\n      jump\t// out\n        /* \"#utility.yul\":3036:3135   */\n    tag_278:\n        /* \"#utility.yul\":3088:3094   */\n      0x00\n        /* \"#utility.yul\":3122:3127   */\n      dup2\n        /* \"#utility.yul\":3116:3128   */\n      mload\n        /* \"#utility.yul\":3106:3128   */\n      swap1\n      pop\n        /* \"#utility.yul\":3036:3135   */\n      swap2\n      swap1\n      pop\n      jump\t// out\n        /* \"#utility.yul\":3141:3310   */\n    tag_279:\n        /* \"#utility.yul\":3225:3236   */\n      0x00\n        /* \"#utility.yul\":3259:3265   */\n      dup3\n        /* \"#utility.yul\":3254:3257   */\n      dup3\n        /* \"#utility.yul\":3247:3266   */\n      mstore\n        /* \"#utility.yul\":3299:3303   */\n      0x20\n        /* \"#utility.yul\":3294:3297   */\n      dup3\n        /* \"#utility.yul\":3290:3304   */\n      add\n        /* \"#utility.yul\":3275:3304   */\n      swap1\n      pop\n        /* \"#utility.yul\":3141:3310   */\n      swap3\n      swap2\n      pop\n      pop\n      jump\t// out\n        /* \"#utility.yul\":3316:3455   */\n    tag_280:\n        /* \"#utility.yul\":3405:3411   */\n      dup3\n        /* \"#utility.yul\":3400:3403   */\n      dup2\n        /* \"#utility.yul\":3395:3398   */\n      dup4\n        /* \"#utility.yul\":3389:3412   */\n      mcopy\n        /* \"#utility.yul\":3446:3447   */\n      0x00\n        /* \"#utility.yul\":3437:3443   */\n      dup4\n        /* \"#utility.yul\":3432:3435   */\n      dup4\n        /* \"#utility.yul\":3428:3444   */\n      add\n        /* \"#utility.yul\":3421:3448   */\n      mstore\n        /* \"#utility.yul\":3316:3455   */\n      pop\n      pop\n      pop\n      jump\t// out\n        /* \"#utility.yul\":3461:3563   */\n    tag_281:\n        /* \"#utility.yul\":3502:3508   */\n      0x00\n        /* \"#utility.yul\":3553:3555   */\n      0x1f\n        /* \"#utility.yul\":3549:3556   */\n      not\n        /* \"#utility.yul\":3544:3546   */\n      0x1f\n        /* \"#utility.yul\":3537:3542   */\n      dup4\n        /* \"#utility.yul\":3533:3547   */\n      add\n        /* \"#utility.yul\":3529:3557   */\n      and\n        /* \"#utility.yul\":3519:3557   */\n      swap1\n      pop\n        /* \"#utility.yul\":3461:3563   */\n      swap2\n      swap1\n      pop\n      jump\t// out\n        /* \"#utility.yul\":3569:3946   */\n    tag_282:\n        /* \"#utility.yul\":3657:3660   */\n      0x00\n        /* \"#utility.yul\":3685:3724   */\n      tag_383\n        /* \"#utility.yul\":3718:3723   */\n      dup3\n        /* \"#utility.yul\":3685:3724   */\n      tag_278\n      jump\t// in\n    tag_383:\n        /* \"#utility.yul\":3740:3811   */\n      tag_384\n        /* \"#utility.yul\":3804:3810   */\n      dup2\n        /* \"#utility.yul\":3799:3802   */\n      dup6\n        /* \"#utility.yul\":3740:3811   */\n      tag_279\n      jump\t// in\n    tag_384:\n        /* \"#utility.yul\":3733:3811   */\n      swap4\n      pop\n        /* \"#utility.yul\":3820:3885   */\n      tag_385\n        /* \"#utility.yul\":3878:3884   */\n      dup2\n        /* \"#utility.yul\":3873:3876   */\n      dup6\n        /* \"#utility.yul\":3866:3870   */\n      0x20\n        /* \"#utility.yul\":3859:3864   */\n      dup7\n        /* \"#utility.yul\":3855:3871   */\n      add\n        /* \"#utility.yul\":3820:3885   */\n      tag_280\n      jump\t// in\n    tag_385:\n        /* \"#utility.yul\":3910:3939   */\n      tag_386\n        /* \"#utility.yul\":3932:3938   */\n      dup2\n        /* \"#utility.yul\":3910:3939   */\n      tag_281\n      jump\t// in\n    tag_386:\n        /* \"#utility.yul\":3905:3908   */\n      dup5\n        /* \"#utility.yul\":3901:3940   */\n      add\n        /* \"#utility.yul\":3894:3940   */\n      swap2\n      pop\n        /* \"#utility.yul\":3661:3946   */\n      pop\n        /* \"#utility.yul\":3569:3946   */\n      swap3\n      swap2\n      pop\n      pop\n      jump\t// out\n        /* \"#utility.yul\":3952:5068   */\n    tag_31:\n        /* \"#utility.yul\":4275:4279   */\n      0x00\n        /* \"#utility.yul\":4313:4316   */\n      0x0100\n        /* \"#utility.yul\":4302:4311   */\n      dup3\n        /* \"#utility.yul\":4298:4317   */\n      add\n        /* \"#utility.yul\":4290:4317   */\n      swap1\n      pop\n        /* \"#utility.yul\":4327:4398   */\n      tag_388\n        /* \"#utility.yul\":4395:4396   */\n      0x00\n        /* \"#utility.yul\":4384:4393   */\n      dup4\n        /* \"#utility.yul\":4380:4397   */\n      add\n        /* \"#utility.yul\":4371:4377   */\n      dup12\n        /* \"#utility.yul\":4327:4398   */\n      tag_272\n      jump\t// in\n    tag_388:\n        /* \"#utility.yul\":4408:4480   */\n      tag_389\n        /* \"#utility.yul\":4476:4478   */\n      0x20\n        /* \"#utility.yul\":4465:4474   */\n      dup4\n        /* \"#utility.yul\":4461:4479   */\n      add\n        /* \"#utility.yul\":4452:4458   */\n      dup11\n        /* \"#utility.yul\":4408:4480   */\n      tag_272\n      jump\t// in\n    tag_389:\n        /* \"#utility.yul\":4490:4562   */\n      tag_390\n        /* \"#utility.yul\":4558:4560   */\n      0x40\n        /* \"#utility.yul\":4547:4556   */\n      dup4\n        /* \"#utility.yul\":4543:4561   */\n      add\n        /* \"#utility.yul\":4534:4540   */\n      dup10\n        /* \"#utility.yul\":4490:4562   */\n      tag_273\n      jump\t// in\n    tag_390:\n        /* \"#utility.yul\":4572:4644   */\n      tag_391\n        /* \"#utility.yul\":4640:4642   */\n      0x60\n        /* \"#utility.yul\":4629:4638   */\n      dup4\n        /* \"#utility.yul\":4625:4643   */\n      add\n        /* \"#utility.yul\":4616:4622   */\n      dup9\n        /* \"#utility.yul\":4572:4644   */\n      tag_273\n      jump\t// in\n    tag_391:\n        /* \"#utility.yul\":4654:4741   */\n      tag_392\n        /* \"#utility.yul\":4736:4739   */\n      0x80\n        /* \"#utility.yul\":4725:4734   */\n      dup4\n        /* \"#utility.yul\":4721:4740   */\n      add\n        /* \"#utility.yul\":4712:4718   */\n      dup8\n        /* \"#utility.yul\":4654:4741   */\n      tag_277\n      jump\t// in\n    tag_392:\n        /* \"#utility.yul\":4751:4824   */\n      tag_393\n        /* \"#utility.yul\":4819:4822   */\n      0xa0\n        /* \"#utility.yul\":4808:4817   */\n      dup4\n        /* \"#utility.yul\":4804:4823   */\n      add\n        /* \"#utility.yul\":4795:4801   */\n      dup7\n        /* \"#utility.yul\":4751:4824   */\n      tag_273\n      jump\t// in\n    tag_393:\n        /* \"#utility.yul\":4834:4907   */\n      tag_394\n        /* \"#utility.yul\":4902:4905   */\n      0xc0\n        /* \"#utility.yul\":4891:4900   */\n      dup4\n        /* \"#utility.yul\":4887:4906   */\n      add\n        /* \"#utility.yul\":4878:4884   */\n      dup6\n        /* \"#utility.yul\":4834:4907   */\n      tag_273\n      jump\t// in\n    tag_394:\n        /* \"#utility.yul\":4955:4964   */\n      dup2\n        /* \"#utility.yul\":4949:4953   */\n      dup2\n        /* \"#utility.yul\":4945:4965   */\n      sub\n        /* \"#utility.yul\":4939:4942   */\n      0xe0\n        /* \"#utility.yul\":4928:4937   */\n      dup4\n        /* \"#utility.yul\":4924:4943   */\n      add\n        /* \"#utility.yul\":4917:4966   */\n      mstore\n        /* \"#utility.yul\":4983:5061   */\n      tag_395\n        /* \"#utility.yul\":5056:5060   */\n      dup2\n        /* \"#utility.yul\":5047:5053   */\n      dup5\n        /* \"#utility.yul\":4983:5061   */\n      tag_282\n      jump\t// in\n    tag_395:\n        /* \"#utility.yul\":4975:5061   */\n      swap1\n      pop\n        /* \"#utility.yul\":3952:5068   */\n      swap10\n      swap9\n      pop\n      pop\n      pop\n      pop\n      pop\n      pop\n      pop\n      pop\n      pop\n      jump\t// out\n        /* \"#utility.yul\":5074:5164   */\n    tag_283:\n        /* \"#utility.yul\":5108:5115   */\n      0x00\n        /* \"#utility.yul\":5151:5156   */\n      dup2\n        /* \"#utility.yul\":5144:5157   */\n      iszero\n        /* \"#utility.yul\":5137:5158   */\n      iszero\n        /* \"#utility.yul\":5126:5158   */\n      swap1\n      pop\n        /* \"#utility.yul\":5074:5164   */\n      swap2\n      swap1\n      pop\n      jump\t// out\n        /* \"#utility.yul\":5170:5286   */\n    tag_284:\n        /* \"#utility.yul\":5240:5261   */\n      tag_398\n        /* \"#utility.yul\":5255:5260   */\n      dup2\n        /* \"#utility.yul\":5240:5261   */\n      tag_283\n      jump\t// in\n    tag_398:\n        /* \"#utility.yul\":5233:5238   */\n      dup2\n        /* \"#utility.yul\":5230:5262   */\n      eq\n        /* \"#utility.yul\":5220:5280   */\n      tag_399\n      jumpi\n        /* \"#utility.yul\":5276:5277   */\n      0x00\n        /* \"#utility.yul\":5273:5274   */\n      dup1\n        /* \"#utility.yul\":5266:5278   */\n      revert\n        /* \"#utility.yul\":5220:5280   */\n    tag_399:\n        /* \"#utility.yul\":5170:5286   */\n      pop\n      jump\t// out\n        /* \"#utility.yul\":5292:5425   */\n    tag_285:\n        /* \"#utility.yul\":5335:5340   */\n      0x00\n        /* \"#utility.yul\":5373:5379   */\n      dup2\n        /* \"#utility.yul\":5360:5380   */\n      calldataload\n        /* \"#utility.yul\":5351:5380   */\n      swap1\n      pop\n        /* \"#utility.yul\":5389:5419   */\n      tag_401\n        /* \"#utility.yul\":5413:5418   */\n      dup2\n        /* \"#utility.yul\":5389:5419   */\n      tag_284\n      jump\t// in\n    tag_401:\n        /* \"#utility.yul\":5292:5425   */\n      swap3\n      swap2\n      pop\n      pop\n      jump\t// out\n        /* \"#utility.yul\":5431:5899   */\n    tag_34:\n        /* \"#utility.yul\":5496:5502   */\n      0x00\n        /* \"#utility.yul\":5504:5510   */\n      dup1\n        /* \"#utility.yul\":5553:5555   */\n      0x40\n        /* \"#utility.yul\":5541:5550   */\n      dup4\n        /* \"#utility.yul\":5532:5539   */\n      dup6\n        /* \"#utility.yul\":5528:5551   */\n      sub\n        /* \"#utility.yul\":5524:5556   */\n      slt\n        /* \"#utility.yul\":5521:5640   */\n      iszero\n      tag_403\n      jumpi\n        /* \"#utility.yul\":5559:5638   */\n      tag_404\n      tag_263\n      jump\t// in\n    tag_404:\n        /* \"#utility.yul\":5521:5640   */\n    tag_403:\n        /* \"#utility.yul\":5679:5680   */\n      0x00\n        /* \"#utility.yul\":5704:5757   */\n      tag_405\n        /* \"#utility.yul\":5749:5756   */\n      dup6\n        /* \"#utility.yul\":5740:5746   */\n      dup3\n        /* \"#utility.yul\":5729:5738   */\n      dup7\n        /* \"#utility.yul\":5725:5747   */\n      add\n        /* \"#utility.yul\":5704:5757   */\n      tag_271\n      jump\t// in\n    tag_405:\n        /* \"#utility.yul\":5694:5757   */\n      swap3\n      pop\n        /* \"#utility.yul\":5650:5767   */\n      pop\n        /* \"#utility.yul\":5806:5808   */\n      0x20\n        /* \"#utility.yul\":5832:5882   */\n      tag_406\n        /* \"#utility.yul\":5874:5881   */\n      dup6\n        /* \"#utility.yul\":5865:5871   */\n      dup3\n        /* \"#utility.yul\":5854:5863   */\n      dup7\n        /* \"#utility.yul\":5850:5872   */\n      add\n        /* \"#utility.yul\":5832:5882   */\n      tag_285\n      jump\t// in\n    tag_406:\n        /* \"#utility.yul\":5822:5882   */\n      swap2\n      pop\n        /* \"#utility.yul\":5777:5892   */\n      pop\n        /* \"#utility.yul\":5431:5899   */\n      swap3\n      pop\n      swap3\n      swap1\n      pop\n      jump\t// out\n        /* \"#utility.yul\":5905:6014   */\n    tag_286:\n        /* \"#utility.yul\":5986:6007   */\n      tag_408\n        /* \"#utility.yul\":6001:6006   */\n      dup2\n        /* \"#utility.yul\":5986:6007   */\n      tag_283\n      jump\t// in\n    tag_408:\n        /* \"#utility.yul\":5981:5984   */\n      dup3\n        /* \"#utility.yul\":5974:6008   */\n      mstore\n        /* \"#utility.yul\":5905:6014   */\n      pop\n      pop\n      jump\t// out\n        /* \"#utility.yul\":6020:6230   */\n    tag_43:\n        /* \"#utility.yul\":6107:6111   */\n      0x00\n        /* \"#utility.yul\":6145:6147   */\n      0x20\n        /* \"#utility.yul\":6134:6143   */\n      dup3\n        /* \"#utility.yul\":6130:6148   */\n      add\n        /* \"#utility.yul\":6122:6148   */\n      swap1\n      pop\n        /* \"#utility.yul\":6158:6223   */\n      tag_410\n        /* \"#utility.yul\":6220:6221   */\n      0x00\n        /* \"#utility.yul\":6209:6218   */\n      dup4\n        /* \"#utility.yul\":6205:6222   */\n      add\n        /* \"#utility.yul\":6196:6202   */\n      dup5\n        /* \"#utility.yul\":6158:6223   */\n      tag_286\n      jump\t// in\n    tag_410:\n        /* \"#utility.yul\":6020:6230   */\n      swap3\n      swap2\n      pop\n      pop\n      jump\t// out\n        /* \"#utility.yul\":6236:6296   */\n    tag_287:\n        /* \"#utility.yul\":6264:6267   */\n      0x00\n        /* \"#utility.yul\":6285:6290   */\n      dup2\n        /* \"#utility.yul\":6278:6290   */\n      swap1\n      pop\n        /* \"#utility.yul\":6236:6296   */\n      swap2\n      swap1\n      pop\n      jump\t// out\n        /* \"#utility.yul\":6302:6444   */\n    tag_288:\n        /* \"#utility.yul\":6352:6361   */\n      0x00\n        /* \"#utility.yul\":6385:6438   */\n      tag_413\n        /* \"#utility.yul\":6403:6437   */\n      tag_414\n        /* \"#utility.yul\":6412:6436   */\n      tag_415\n        /* \"#utility.yul\":6430:6435   */\n      dup5\n        /* \"#utility.yul\":6412:6436   */\n      tag_265\n      jump\t// in\n    tag_415:\n        /* \"#utility.yul\":6403:6437   */\n      tag_287\n      jump\t// in\n    tag_414:\n        /* \"#utility.yul\":6385:6438   */\n      tag_265\n      jump\t// in\n    tag_413:\n        /* \"#utility.yul\":6372:6438   */\n      swap1\n      pop\n        /* \"#utility.yul\":6302:6444   */\n      swap2\n      swap1\n      pop\n      jump\t// out\n        /* \"#utility.yul\":6450:6576   */\n    tag_289:\n        /* \"#utility.yul\":6500:6509   */\n      0x00\n        /* \"#utility.yul\":6533:6570   */\n      tag_417\n        /* \"#utility.yul\":6564:6569   */\n      dup3\n        /* \"#utility.yul\":6533:6570   */\n      tag_288\n      jump\t// in\n    tag_417:\n        /* \"#utility.yul\":6520:6570   */\n      swap1\n      pop\n        /* \"#utility.yul\":6450:6576   */\n      swap2\n      swap1\n      pop\n      jump\t// out\n        /* \"#utility.yul\":6582:6724   */\n    tag_290:\n        /* \"#utility.yul\":6648:6657   */\n      0x00\n        /* \"#utility.yul\":6681:6718   */\n      tag_419\n        /* \"#utility.yul\":6712:6717   */\n      dup3\n        /* \"#utility.yul\":6681:6718   */\n      tag_289\n      jump\t// in\n    tag_419:\n        /* \"#utility.yul\":6668:6718   */\n      swap1\n      pop\n        /* \"#utility.yul\":6582:6724   */\n      swap2\n      swap1\n      pop\n      jump\t// out\n        /* \"#utility.yul\":6730:6893   */\n    tag_291:\n        /* \"#utility.yul\":6833:6886   */\n      tag_421\n        /* \"#utility.yul\":6880:6885   */\n      dup2\n        /* \"#utility.yul\":6833:6886   */\n      tag_290\n      jump\t// in\n    tag_421:\n        /* \"#utility.yul\":6828:6831   */\n      dup3\n        /* \"#utility.yul\":6821:6887   */\n      mstore\n        /* \"#utility.yul\":6730:6893   */\n      pop\n      pop\n      jump\t// out\n        /* \"#utility.yul\":6899:7153   */\n    tag_51:\n        /* \"#utility.yul\":7008:7012   */\n      0x00\n        /* \"#utility.yul\":7046:7048   */\n      0x20\n        /* \"#utility.yul\":7035:7044   */\n      dup3\n        /* \"#utility.yul\":7031:7049   */\n      add\n        /* \"#utility.yul\":7023:7049   */\n      swap1\n      pop\n        /* \"#utility.yul\":7059:7146   */\n      tag_423\n        /* \"#utility.yul\":7143:7144   */\n      0x00\n        /* \"#utility.yul\":7132:7141   */\n      dup4\n        /* \"#utility.yul\":7128:7145   */\n      add\n        /* \"#utility.yul\":7119:7125   */\n      dup5\n        /* \"#utility.yul\":7059:7146   */\n      tag_291\n      jump\t// in\n    tag_423:\n        /* \"#utility.yul\":6899:7153   */\n      swap3\n      swap2\n      pop\n      pop\n      jump\t// out\n        /* \"#utility.yul\":7159:7381   */\n    tag_59:\n        /* \"#utility.yul\":7252:7256   */\n      0x00\n        /* \"#utility.yul\":7290:7292   */\n      0x20\n        /* \"#utility.yul\":7279:7288   */\n      dup3\n        /* \"#utility.yul\":7275:7293   */\n      add\n        /* \"#utility.yul\":7267:7293   */\n      swap1\n      pop\n        /* \"#utility.yul\":7303:7374   */\n      tag_425\n        /* \"#utility.yul\":7371:7372   */\n      0x00\n        /* \"#utility.yul\":7360:7369   */\n      dup4\n        /* \"#utility.yul\":7356:7373   */\n      add\n        /* \"#utility.yul\":7347:7353   */\n      dup5\n        /* \"#utility.yul\":7303:7374   */\n      tag_272\n      jump\t// in\n    tag_425:\n        /* \"#utility.yul\":7159:7381   */\n      swap3\n      swap2\n      pop\n      pop\n      jump\t// out\n        /* \"#utility.yul\":7387:7531   */\n    tag_292:\n        /* \"#utility.yul\":7455:7464   */\n      0x00\n        /* \"#utility.yul\":7488:7525   */\n      tag_427\n        /* \"#utility.yul\":7519:7524   */\n      dup3\n        /* \"#utility.yul\":7488:7525   */\n      tag_289\n      jump\t// in\n    tag_427:\n        /* \"#utility.yul\":7475:7525   */\n      swap1\n      pop\n        /* \"#utility.yul\":7387:7531   */\n      swap2\n      swap1\n      pop\n      jump\t// out\n        /* \"#utility.yul\":7537:7704   */\n    tag_293:\n        /* \"#utility.yul\":7642:7697   */\n      tag_429\n        /* \"#utility.yul\":7691:7696   */\n      dup2\n        /* \"#utility.yul\":7642:7697   */\n      tag_292\n      jump\t// in\n    tag_429:\n        /* \"#utility.yul\":7637:7640   */\n      dup3\n        /* \"#utility.yul\":7630:7698   */\n      mstore\n        /* \"#utility.yul\":7537:7704   */\n      pop\n      pop\n      jump\t// out\n        /* \"#utility.yul\":7710:7968   */\n    tag_64:\n        /* \"#utility.yul\":7821:7825   */\n      0x00\n        /* \"#utility.yul\":7859:7861   */\n      0x20\n        /* \"#utility.yul\":7848:7857   */\n      dup3\n        /* \"#utility.yul\":7844:7862   */\n      add\n        /* \"#utility.yul\":7836:7862   */\n      swap1\n      pop\n        /* \"#utility.yul\":7872:7961   */\n      tag_431\n        /* \"#utility.yul\":7958:7959   */\n      0x00\n        /* \"#utility.yul\":7947:7956   */\n      dup4\n        /* \"#utility.yul\":7943:7960   */\n      add\n        /* \"#utility.yul\":7934:7940   */\n      dup5\n        /* \"#utility.yul\":7872:7961   */\n      tag_293\n      jump\t// in\n    tag_431:\n        /* \"#utility.yul\":7710:7968   */\n      swap3\n      swap2\n      pop\n      pop\n      jump\t// out\n        /* \"#utility.yul\":7974:8196   */\n    tag_74:\n        /* \"#utility.yul\":8067:8071   */\n      0x00\n        /* \"#utility.yul\":8105:8107   */\n      0x20\n        /* \"#utility.yul\":8094:8103   */\n      dup3\n        /* \"#utility.yul\":8090:8108   */\n      add\n        /* \"#utility.yul\":8082:8108   */\n      swap1\n      pop\n        /* \"#utility.yul\":8118:8189   */\n      tag_433\n        /* \"#utility.yul\":8186:8187   */\n      0x00\n        /* \"#utility.yul\":8175:8184   */\n      dup4\n        /* \"#utility.yul\":8171:8188   */\n      add\n        /* \"#utility.yul\":8162:8168   */\n      dup5\n        /* \"#utility.yul\":8118:8189   */\n      tag_273\n      jump\t// in\n    tag_433:\n        /* \"#utility.yul\":7974:8196   */\n      swap3\n      swap2\n      pop\n      pop\n      jump\t// out\n        /* \"#utility.yul\":8202:8319   */\n    tag_294:\n        /* \"#utility.yul\":8311:8312   */\n      0x00\n        /* \"#utility.yul\":8308:8309   */\n      dup1\n        /* \"#utility.yul\":8301:8313   */\n      revert\n        /* \"#utility.yul\":8325:8442   */\n    tag_295:\n        /* \"#utility.yul\":8434:8435   */\n      0x00\n        /* \"#utility.yul\":8431:8432   */\n      dup1\n        /* \"#utility.yul\":8424:8436   */\n      revert\n        /* \"#utility.yul\":8448:8565   */\n    tag_296:\n        /* \"#utility.yul\":8557:8558   */\n      0x00\n        /* \"#utility.yul\":8554:8555   */\n      dup1\n        /* \"#utility.yul\":8547:8559   */\n      revert\n        /* \"#utility.yul\":8585:9138   */\n    tag_297:\n        /* \"#utility.yul\":8643:8651   */\n      0x00\n        /* \"#utility.yul\":8653:8659   */\n      dup1\n        /* \"#utility.yul\":8703:8706   */\n      dup4\n        /* \"#utility.yul\":8696:8700   */\n      0x1f\n        /* \"#utility.yul\":8688:8694   */\n      dup5\n        /* \"#utility.yul\":8684:8701   */\n      add\n        /* \"#utility.yul\":8680:8707   */\n      slt\n        /* \"#utility.yul\":8670:8792   */\n      tag_438\n      jumpi\n        /* \"#utility.yul\":8711:8790   */\n      tag_439\n      tag_294\n      jump\t// in\n    tag_439:\n        /* \"#utility.yul\":8670:8792   */\n    tag_438:\n        /* \"#utility.yul\":8824:8830   */\n      dup3\n        /* \"#utility.yul\":8811:8831   */\n      calldataload\n        /* \"#utility.yul\":8801:8831   */\n      swap1\n      pop\n        /* \"#utility.yul\":8854:8872   */\n      0xffffffffffffffff\n        /* \"#utility.yul\":8846:8852   */\n      dup2\n        /* \"#utility.yul\":8843:8873   */\n      gt\n        /* \"#utility.yul\":8840:8957   */\n      iszero\n      tag_440\n      jumpi\n        /* \"#utility.yul\":8876:8955   */\n      tag_441\n      tag_295\n      jump\t// in\n    tag_441:\n        /* \"#utility.yul\":8840:8957   */\n    tag_440:\n        /* \"#utility.yul\":8990:8994   */\n      0x20\n        /* \"#utility.yul\":8982:8988   */\n      dup4\n        /* \"#utility.yul\":8978:8995   */\n      add\n        /* \"#utility.yul\":8966:8995   */\n      swap2\n      pop\n        /* \"#utility.yul\":9044:9047   */\n      dup4\n        /* \"#utility.yul\":9036:9040   */\n      0x01\n        /* \"#utility.yul\":9028:9034   */\n      dup3\n        /* \"#utility.yul\":9024:9041   */\n      mul\n        /* \"#utility.yul\":9014:9022   */\n      dup4\n        /* \"#utility.yul\":9010:9042   */\n      add\n        /* \"#utility.yul\":9007:9048   */\n      gt\n        /* \"#utility.yul\":9004:9132   */\n      iszero\n      tag_442\n      jumpi\n        /* \"#utility.yul\":9051:9130   */\n      tag_443\n      tag_296\n      jump\t// in\n    tag_443:\n        /* \"#utility.yul\":9004:9132   */\n    tag_442:\n        /* \"#utility.yul\":8585:9138   */\n      swap3\n      pop\n      swap3\n      swap1\n      pop\n      jump\t// out\n        /* \"#utility.yul\":9144:9818   */\n    tag_81:\n        /* \"#utility.yul\":9224:9230   */\n      0x00\n        /* \"#utility.yul\":9232:9238   */\n      dup1\n        /* \"#utility.yul\":9240:9246   */\n      0x00\n        /* \"#utility.yul\":9289:9291   */\n      0x40\n        /* \"#utility.yul\":9277:9286   */\n      dup5\n        /* \"#utility.yul\":9268:9275   */\n      dup7\n        /* \"#utility.yul\":9264:9287   */\n      sub\n        /* \"#utility.yul\":9260:9292   */\n      slt\n        /* \"#utility.yul\":9257:9376   */\n      iszero\n      tag_445\n      jumpi\n        /* \"#utility.yul\":9295:9374   */\n      tag_446\n      tag_263\n      jump\t// in\n    tag_446:\n        /* \"#utility.yul\":9257:9376   */\n    tag_445:\n        /* \"#utility.yul\":9415:9416   */\n      0x00\n        /* \"#utility.yul\":9440:9493   */\n      tag_447\n        /* \"#utility.yul\":9485:9492   */\n      dup7\n        /* \"#utility.yul\":9476:9482   */\n      dup3\n        /* \"#utility.yul\":9465:9474   */\n      dup8\n        /* \"#utility.yul\":9461:9483   */\n      add\n        /* \"#utility.yul\":9440:9493   */\n      tag_271\n      jump\t// in\n    tag_447:\n        /* \"#utility.yul\":9430:9493   */\n      swap4\n      pop\n        /* \"#utility.yul\":9386:9503   */\n      pop\n        /* \"#utility.yul\":9570:9572   */\n      0x20\n        /* \"#utility.yul\":9559:9568   */\n      dup5\n        /* \"#utility.yul\":9555:9573   */\n      add\n        /* \"#utility.yul\":9542:9574   */\n      calldataload\n        /* \"#utility.yul\":9601:9619   */\n      0xffffffffffffffff\n        /* \"#utility.yul\":9593:9599   */\n      dup2\n        /* \"#utility.yul\":9590:9620   */\n      gt\n        /* \"#utility.yul\":9587:9704   */\n      iszero\n      tag_448\n      jumpi\n        /* \"#utility.yul\":9623:9702   */\n      tag_449\n      tag_264\n      jump\t// in\n    tag_449:\n        /* \"#utility.yul\":9587:9704   */\n    tag_448:\n        /* \"#utility.yul\":9736:9801   */\n      tag_450\n        /* \"#utility.yul\":9793:9800   */\n      dup7\n        /* \"#utility.yul\":9784:9790   */\n      dup3\n        /* \"#utility.yul\":9773:9782   */\n      dup8\n        /* \"#utility.yul\":9769:9791   */\n      add\n        /* \"#utility.yul\":9736:9801   */\n      tag_297\n      jump\t// in\n    tag_450:\n        /* \"#utility.yul\":9718:9801   */\n      swap3\n      pop\n      swap3\n      pop\n        /* \"#utility.yul\":9513:9811   */\n      pop\n        /* \"#utility.yul\":9144:9818   */\n      swap3\n      pop\n      swap3\n      pop\n      swap3\n      jump\t// out\n        /* \"#utility.yul\":9824:10153   */\n    tag_86:\n        /* \"#utility.yul\":9883:9889   */\n      0x00\n        /* \"#utility.yul\":9932:9934   */\n      0x20\n        /* \"#utility.yul\":9920:9929   */\n      dup3\n        /* \"#utility.yul\":9911:9918   */\n      dup5\n        /* \"#utility.yul\":9907:9930   */\n      sub\n        /* \"#utility.yul\":9903:9935   */\n      slt\n        /* \"#utility.yul\":9900:10019   */\n      iszero\n      tag_452\n      jumpi\n        /* \"#utility.yul\":9938:10017   */\n      tag_453\n      tag_263\n      jump\t// in\n    tag_453:\n        /* \"#utility.yul\":9900:10019   */\n    tag_452:\n        /* \"#utility.yul\":10058:10059   */\n      0x00\n        /* \"#utility.yul\":10083:10136   */\n      tag_454\n        /* \"#utility.yul\":10128:10135   */\n      dup5\n        /* \"#utility.yul\":10119:10125   */\n      dup3\n        /* \"#utility.yul\":10108:10117   */\n      dup6\n        /* \"#utility.yul\":10104:10126   */\n      add\n        /* \"#utility.yul\":10083:10136   */\n      tag_268\n      jump\t// in\n    tag_454:\n        /* \"#utility.yul\":10073:10136   */\n      swap2\n      pop\n        /* \"#utility.yul\":10029:10146   */\n      pop\n        /* \"#utility.yul\":9824:10153   */\n      swap3\n      swap2\n      pop\n      pop\n      jump\t// out\n        /* \"#utility.yul\":10159:10338   */\n    tag_298:\n        /* \"#utility.yul\":10299:10330   */\n      0x416d6f756e74206d7573742062652067726561746572207468616e2030000000\n        /* \"#utility.yul\":10295:10296   */\n      0x00\n        /* \"#utility.yul\":10287:10293   */\n      dup3\n        /* \"#utility.yul\":10283:10297   */\n      add\n        /* \"#utility.yul\":10276:10331   */\n      mstore\n        /* \"#utility.yul\":10159:10338   */\n      pop\n      jump\t// out\n        /* \"#utility.yul\":10344:10710   */\n    tag_299:\n        /* \"#utility.yul\":10486:10489   */\n      0x00\n        /* \"#utility.yul\":10507:10574   */\n      tag_457\n        /* \"#utility.yul\":10571:10573   */\n      0x1d\n        /* \"#utility.yul\":10566:10569   */\n      dup4\n        /* \"#utility.yul\":10507:10574   */\n      tag_279\n      jump\t// in\n    tag_457:\n        /* \"#utility.yul\":10500:10574   */\n      swap2\n      pop\n        /* \"#utility.yul\":10583:10676   */\n      tag_458\n        /* \"#utility.yul\":10672:10675   */\n      dup3\n        /* \"#utility.yul\":10583:10676   */\n      tag_298\n      jump\t// in\n    tag_458:\n        /* \"#utility.yul\":10701:10703   */\n      0x20\n        /* \"#utility.yul\":10696:10699   */\n      dup3\n        /* \"#utility.yul\":10692:10704   */\n      add\n        /* \"#utility.yul\":10685:10704   */\n      swap1\n      pop\n        /* \"#utility.yul\":10344:10710   */\n      swap2\n      swap1\n      pop\n      jump\t// out\n        /* \"#utility.yul\":10716:11135   */\n    tag_98:\n        /* \"#utility.yul\":10882:10886   */\n      0x00\n        /* \"#utility.yul\":10920:10922   */\n      0x20\n        /* \"#utility.yul\":10909:10918   */\n      dup3\n        /* \"#utility.yul\":10905:10923   */\n      add\n        /* \"#utility.yul\":10897:10923   */\n      swap1\n      pop\n        /* \"#utility.yul\":10969:10978   */\n      dup2\n        /* \"#utility.yul\":10963:10967   */\n      dup2\n        /* \"#utility.yul\":10959:10979   */\n      sub\n        /* \"#utility.yul\":10955:10956   */\n      0x00\n        /* \"#utility.yul\":10944:10953   */\n      dup4\n        /* \"#utility.yul\":10940:10957   */\n      add\n        /* \"#utility.yul\":10933:10980   */\n      mstore\n        /* \"#utility.yul\":10997:11128   */\n      tag_460\n        /* \"#utility.yul\":11123:11127   */\n      dup2\n        /* \"#utility.yul\":10997:11128   */\n      tag_299\n      jump\t// in\n    tag_460:\n        /* \"#utility.yul\":10989:11128   */\n      swap1\n      pop\n        /* \"#utility.yul\":10716:11135   */\n      swap2\n      swap1\n      pop\n      jump\t// out\n        /* \"#utility.yul\":11141:11258   */\n    tag_300:\n        /* \"#utility.yul\":11250:11251   */\n      0x00\n        /* \"#utility.yul\":11247:11248   */\n      dup1\n        /* \"#utility.yul\":11240:11252   */\n      revert\n        /* \"#utility.yul\":11264:11444   */\n    tag_301:\n        /* \"#utility.yul\":11312:11389   */\n      0x4e487b7100000000000000000000000000000000000000000000000000000000\n        /* \"#utility.yul\":11309:11310   */\n      0x00\n        /* \"#utility.yul\":11302:11390   */\n      mstore\n        /* \"#utility.yul\":11409:11413   */\n      0x41\n        /* \"#utility.yul\":11406:11407   */\n      0x04\n        /* \"#utility.yul\":11399:11414   */\n      mstore\n        /* \"#utility.yul\":11433:11437   */\n      0x24\n        /* \"#utility.yul\":11430:11431   */\n      0x00\n        /* \"#utility.yul\":11423:11438   */\n      revert\n        /* \"#utility.yul\":11450:11731   */\n    tag_302:\n        /* \"#utility.yul\":11533:11560   */\n      tag_464\n        /* \"#utility.yul\":11555:11559   */\n      dup3\n        /* \"#utility.yul\":11533:11560   */\n      tag_281\n      jump\t// in\n    tag_464:\n        /* \"#utility.yul\":11525:11531   */\n      dup2\n        /* \"#utility.yul\":11521:11561   */\n      add\n        /* \"#utility.yul\":11663:11669   */\n      dup2\n        /* \"#utility.yul\":11651:11661   */\n      dup2\n        /* \"#utility.yul\":11648:11670   */\n      lt\n        /* \"#utility.yul\":11627:11645   */\n      0xffffffffffffffff\n        /* \"#utility.yul\":11615:11625   */\n      dup3\n        /* \"#utility.yul\":11612:11646   */\n      gt\n        /* \"#utility.yul\":11609:11671   */\n      or\n        /* \"#utility.yul\":11606:11694   */\n      iszero\n      tag_465\n      jumpi\n        /* \"#utility.yul\":11674:11692   */\n      tag_466\n      tag_301\n      jump\t// in\n    tag_466:\n        /* \"#utility.yul\":11606:11694   */\n    tag_465:\n        /* \"#utility.yul\":11714:11724   */\n      dup1\n        /* \"#utility.yul\":11710:11712   */\n      0x40\n        /* \"#utility.yul\":11703:11725   */\n      mstore\n        /* \"#utility.yul\":11493:11731   */\n      pop\n        /* \"#utility.yul\":11450:11731   */\n      pop\n      pop\n      jump\t// out\n        /* \"#utility.yul\":11737:11866   */\n    tag_303:\n        /* \"#utility.yul\":11771:11777   */\n      0x00\n        /* \"#utility.yul\":11798:11818   */\n      tag_468\n      tag_262\n      jump\t// in\n    tag_468:\n        /* \"#utility.yul\":11788:11818   */\n      swap1\n      pop\n        /* \"#utility.yul\":11827:11860   */\n      tag_469\n        /* \"#utility.yul\":11855:11859   */\n      dup3\n        /* \"#utility.yul\":11847:11853   */\n      dup3\n        /* \"#utility.yul\":11827:11860   */\n      tag_302\n      jump\t// in\n    tag_469:\n        /* \"#utility.yul\":11737:11866   */\n      swap2\n      swap1\n      pop\n      jump\t// out\n        /* \"#utility.yul\":11872:11989   */\n    tag_304:\n        /* \"#utility.yul\":11981:11982   */\n      0x00\n        /* \"#utility.yul\":11978:11979   */\n      dup1\n        /* \"#utility.yul\":11971:11983   */\n      revert\n        /* \"#utility.yul\":11995:12138   */\n    tag_305:\n        /* \"#utility.yul\":12052:12057   */\n      0x00\n        /* \"#utility.yul\":12083:12089   */\n      dup2\n        /* \"#utility.yul\":12077:12090   */\n      mload\n        /* \"#utility.yul\":12068:12090   */\n      swap1\n      pop\n        /* \"#utility.yul\":12099:12132   */\n      tag_472\n        /* \"#utility.yul\":12126:12131   */\n      dup2\n        /* \"#utility.yul\":12099:12132   */\n      tag_270\n      jump\t// in\n    tag_472:\n        /* \"#utility.yul\":11995:12138   */\n      swap3\n      swap2\n      pop\n      pop\n      jump\t// out\n        /* \"#utility.yul\":12144:12455   */\n    tag_306:\n        /* \"#utility.yul\":12221:12225   */\n      0x00\n        /* \"#utility.yul\":12311:12329   */\n      0xffffffffffffffff\n        /* \"#utility.yul\":12303:12309   */\n      dup3\n        /* \"#utility.yul\":12300:12330   */\n      gt\n        /* \"#utility.yul\":12297:12353   */\n      iszero\n      tag_474\n      jumpi\n        /* \"#utility.yul\":12333:12351   */\n      tag_475\n      tag_301\n      jump\t// in\n    tag_475:\n        /* \"#utility.yul\":12297:12353   */\n    tag_474:\n        /* \"#utility.yul\":12383:12387   */\n      0x20\n        /* \"#utility.yul\":12375:12381   */\n      dup3\n        /* \"#utility.yul\":12371:12388   */\n      mul\n        /* \"#utility.yul\":12363:12388   */\n      swap1\n      pop\n        /* \"#utility.yul\":12443:12447   */\n      0x20\n        /* \"#utility.yul\":12437:12441   */\n      dup2\n        /* \"#utility.yul\":12433:12448   */\n      add\n        /* \"#utility.yul\":12425:12448   */\n      swap1\n      pop\n        /* \"#utility.yul\":12144:12455   */\n      swap2\n      swap1\n      pop\n      jump\t// out\n        /* \"#utility.yul\":12478:13210   */\n    tag_307:\n        /* \"#utility.yul\":12585:12590   */\n      0x00\n        /* \"#utility.yul\":12610:12691   */\n      tag_477\n        /* \"#utility.yul\":12626:12690   */\n      tag_478\n        /* \"#utility.yul\":12683:12689   */\n      dup5\n        /* \"#utility.yul\":12626:12690   */\n      tag_306\n      jump\t// in\n    tag_478:\n        /* \"#utility.yul\":12610:12691   */\n      tag_303\n      jump\t// in\n    tag_477:\n        /* \"#utility.yul\":12601:12691   */\n      swap1\n      pop\n        /* \"#utility.yul\":12711:12716   */\n      dup1\n        /* \"#utility.yul\":12740:12746   */\n      dup4\n        /* \"#utility.yul\":12733:12738   */\n      dup3\n        /* \"#utility.yul\":12726:12747   */\n      mstore\n        /* \"#utility.yul\":12774:12778   */\n      0x20\n        /* \"#utility.yul\":12767:12772   */\n      dup3\n        /* \"#utility.yul\":12763:12779   */\n      add\n        /* \"#utility.yul\":12756:12779   */\n      swap1\n      pop\n        /* \"#utility.yul\":12827:12831   */\n      0x20\n        /* \"#utility.yul\":12819:12825   */\n      dup5\n        /* \"#utility.yul\":12815:12832   */\n      mul\n        /* \"#utility.yul\":12807:12813   */\n      dup4\n        /* \"#utility.yul\":12803:12833   */\n      add\n        /* \"#utility.yul\":12856:12859   */\n      dup6\n        /* \"#utility.yul\":12848:12854   */\n      dup2\n        /* \"#utility.yul\":12845:12860   */\n      gt\n        /* \"#utility.yul\":12842:12964   */\n      iszero\n      tag_479\n      jumpi\n        /* \"#utility.yul\":12875:12954   */\n      tag_480\n      tag_296\n      jump\t// in\n    tag_480:\n        /* \"#utility.yul\":12842:12964   */\n    tag_479:\n        /* \"#utility.yul\":12990:12996   */\n      dup4\n        /* \"#utility.yul\":12973:13204   */\n    tag_481:\n        /* \"#utility.yul\":13007:13013   */\n      dup2\n        /* \"#utility.yul\":13002:13005   */\n      dup2\n        /* \"#utility.yul\":12999:13014   */\n      lt\n        /* \"#utility.yul\":12973:13204   */\n      iszero\n      tag_483\n      jumpi\n        /* \"#utility.yul\":13082:13085   */\n      dup1\n        /* \"#utility.yul\":13111:13159   */\n      tag_484\n        /* \"#utility.yul\":13155:13158   */\n      dup9\n        /* \"#utility.yul\":13143:13153   */\n      dup3\n        /* \"#utility.yul\":13111:13159   */\n      tag_305\n      jump\t// in\n    tag_484:\n        /* \"#utility.yul\":13106:13109   */\n      dup5\n        /* \"#utility.yul\":13099:13160   */\n      mstore\n        /* \"#utility.yul\":13189:13193   */\n      0x20\n        /* \"#utility.yul\":13184:13187   */\n      dup5\n        /* \"#utility.yul\":13180:13194   */\n      add\n        /* \"#utility.yul\":13173:13194   */\n      swap4\n      pop\n        /* \"#utility.yul\":13049:13204   */\n      pop\n        /* \"#utility.yul\":13033:13037   */\n      0x20\n        /* \"#utility.yul\":13028:13031   */\n      dup2\n        /* \"#utility.yul\":13024:13038   */\n      add\n        /* \"#utility.yul\":13017:13038   */\n      swap1\n      pop\n        /* \"#utility.yul\":12973:13204   */\n      jump(tag_481)\n    tag_483:\n        /* \"#utility.yul\":12977:12998   */\n      pop\n        /* \"#utility.yul\":12591:13210   */\n      pop\n      pop\n        /* \"#utility.yul\":12478:13210   */\n      swap4\n      swap3\n      pop\n      pop\n      pop\n      jump\t// out\n        /* \"#utility.yul\":13233:13618   */\n    tag_308:\n        /* \"#utility.yul\":13315:13320   */\n      0x00\n        /* \"#utility.yul\":13364:13367   */\n      dup3\n        /* \"#utility.yul\":13357:13361   */\n      0x1f\n        /* \"#utility.yul\":13349:13355   */\n      dup4\n        /* \"#utility.yul\":13345:13362   */\n      add\n        /* \"#utility.yul\":13341:13368   */\n      slt\n        /* \"#utility.yul\":13331:13453   */\n      tag_486\n      jumpi\n        /* \"#utility.yul\":13372:13451   */\n      tag_487\n      tag_294\n      jump\t// in\n    tag_487:\n        /* \"#utility.yul\":13331:13453   */\n    tag_486:\n        /* \"#utility.yul\":13482:13488   */\n      dup2\n        /* \"#utility.yul\":13476:13489   */\n      mload\n        /* \"#utility.yul\":13507:13612   */\n      tag_488\n        /* \"#utility.yul\":13608:13611   */\n      dup5\n        /* \"#utility.yul\":13600:13606   */\n      dup3\n        /* \"#utility.yul\":13593:13597   */\n      0x20\n        /* \"#utility.yul\":13585:13591   */\n      dup7\n        /* \"#utility.yul\":13581:13598   */\n      add\n        /* \"#utility.yul\":13507:13612   */\n      tag_307\n      jump\t// in\n    tag_488:\n        /* \"#utility.yul\":13498:13612   */\n      swap2\n      pop\n        /* \"#utility.yul\":13321:13618   */\n      pop\n        /* \"#utility.yul\":13233:13618   */\n      swap3\n      swap2\n      pop\n      pop\n      jump\t// out\n        /* \"#utility.yul\":13658:14637   */\n    tag_309:\n        /* \"#utility.yul\":13747:13752   */\n      0x00\n        /* \"#utility.yul\":13791:13795   */\n      0x60\n        /* \"#utility.yul\":13779:13788   */\n      dup3\n        /* \"#utility.yul\":13774:13777   */\n      dup5\n        /* \"#utility.yul\":13770:13789   */\n      sub\n        /* \"#utility.yul\":13766:13796   */\n      slt\n        /* \"#utility.yul\":13763:13880   */\n      iszero\n      tag_490\n      jumpi\n        /* \"#utility.yul\":13799:13878   */\n      tag_491\n      tag_300\n      jump\t// in\n    tag_491:\n        /* \"#utility.yul\":13763:13880   */\n    tag_490:\n        /* \"#utility.yul\":13898:13919   */\n      tag_492\n        /* \"#utility.yul\":13914:13918   */\n      0x60\n        /* \"#utility.yul\":13898:13919   */\n      tag_303\n      jump\t// in\n    tag_492:\n        /* \"#utility.yul\":13889:13919   */\n      swap1\n      pop\n        /* \"#utility.yul\":13982:13983   */\n      0x00\n        /* \"#utility.yul\":14022:14082   */\n      tag_493\n        /* \"#utility.yul\":14078:14081   */\n      dup5\n        /* \"#utility.yul\":14069:14075   */\n      dup3\n        /* \"#utility.yul\":14058:14067   */\n      dup6\n        /* \"#utility.yul\":14054:14076   */\n      add\n        /* \"#utility.yul\":14022:14082   */\n      tag_305\n      jump\t// in\n    tag_493:\n        /* \"#utility.yul\":14015:14019   */\n      0x00\n        /* \"#utility.yul\":14008:14013   */\n      dup4\n        /* \"#utility.yul\":14004:14020   */\n      add\n        /* \"#utility.yul\":13997:14083   */\n      mstore\n        /* \"#utility.yul\":13929:14094   */\n      pop\n        /* \"#utility.yul\":14181:14183   */\n      0x20\n        /* \"#utility.yul\":14170:14179   */\n      dup3\n        /* \"#utility.yul\":14166:14184   */\n      add\n        /* \"#utility.yul\":14160:14185   */\n      mload\n        /* \"#utility.yul\":14212:14230   */\n      0xffffffffffffffff\n        /* \"#utility.yul\":14204:14210   */\n      dup2\n        /* \"#utility.yul\":14201:14231   */\n      gt\n        /* \"#utility.yul\":14198:14315   */\n      iszero\n      tag_494\n      jumpi\n        /* \"#utility.yul\":14234:14313   */\n      tag_495\n      tag_304\n      jump\t// in\n    tag_495:\n        /* \"#utility.yul\":14198:14315   */\n    tag_494:\n        /* \"#utility.yul\":14354:14439   */\n      tag_496\n        /* \"#utility.yul\":14435:14438   */\n      dup5\n        /* \"#utility.yul\":14426:14432   */\n      dup3\n        /* \"#utility.yul\":14415:14424   */\n      dup6\n        /* \"#utility.yul\":14411:14433   */\n      add\n        /* \"#utility.yul\":14354:14439   */\n      tag_308\n      jump\t// in\n    tag_496:\n        /* \"#utility.yul\":14347:14351   */\n      0x20\n        /* \"#utility.yul\":14340:14345   */\n      dup4\n        /* \"#utility.yul\":14336:14352   */\n      add\n        /* \"#utility.yul\":14329:14440   */\n      mstore\n        /* \"#utility.yul\":14104:14451   */\n      pop\n        /* \"#utility.yul\":14517:14519   */\n      0x40\n        /* \"#utility.yul\":14558:14618   */\n      tag_497\n        /* \"#utility.yul\":14614:14617   */\n      dup5\n        /* \"#utility.yul\":14605:14611   */\n      dup3\n        /* \"#utility.yul\":14594:14603   */\n      dup6\n        /* \"#utility.yul\":14590:14612   */\n      add\n        /* \"#utility.yul\":14558:14618   */\n      tag_305\n      jump\t// in\n    tag_497:\n        /* \"#utility.yul\":14551:14555   */\n      0x40\n        /* \"#utility.yul\":14544:14549   */\n      dup4\n        /* \"#utility.yul\":14540:14556   */\n      add\n        /* \"#utility.yul\":14533:14619   */\n      mstore\n        /* \"#utility.yul\":14461:14630   */\n      pop\n        /* \"#utility.yul\":13658:14637   */\n      swap3\n      swap2\n      pop\n      pop\n      jump\t// out\n        /* \"#utility.yul\":14643:15205   */\n    tag_103:\n        /* \"#utility.yul\":14742:14748   */\n      0x00\n        /* \"#utility.yul\":14791:14793   */\n      0x20\n        /* \"#utility.yul\":14779:14788   */\n      dup3\n        /* \"#utility.yul\":14770:14777   */\n      dup5\n        /* \"#utility.yul\":14766:14789   */\n      sub\n        /* \"#utility.yul\":14762:14794   */\n      slt\n        /* \"#utility.yul\":14759:14878   */\n      iszero\n      tag_499\n      jumpi\n        /* \"#utility.yul\":14797:14876   */\n      tag_500\n      tag_263\n      jump\t// in\n    tag_500:\n        /* \"#utility.yul\":14759:14878   */\n    tag_499:\n        /* \"#utility.yul\":14938:14939   */\n      0x00\n        /* \"#utility.yul\":14927:14936   */\n      dup3\n        /* \"#utility.yul\":14923:14940   */\n      add\n        /* \"#utility.yul\":14917:14941   */\n      mload\n        /* \"#utility.yul\":14968:14986   */\n      0xffffffffffffffff\n        /* \"#utility.yul\":14960:14966   */\n      dup2\n        /* \"#utility.yul\":14957:14987   */\n      gt\n        /* \"#utility.yul\":14954:15071   */\n      iszero\n      tag_501\n      jumpi\n        /* \"#utility.yul\":14990:15069   */\n      tag_502\n      tag_264\n      jump\t// in\n    tag_502:\n        /* \"#utility.yul\":14954:15071   */\n    tag_501:\n        /* \"#utility.yul\":15095:15188   */\n      tag_503\n        /* \"#utility.yul\":15180:15187   */\n      dup5\n        /* \"#utility.yul\":15171:15177   */\n      dup3\n        /* \"#utility.yul\":15160:15169   */\n      dup6\n        /* \"#utility.yul\":15156:15178   */\n      add\n        /* \"#utility.yul\":15095:15188   */\n      tag_309\n      jump\t// in\n    tag_503:\n        /* \"#utility.yul\":15085:15188   */\n      swap2\n      pop\n        /* \"#utility.yul\":14888:15198   */\n      pop\n        /* \"#utility.yul\":14643:15205   */\n      swap3\n      swap2\n      pop\n      pop\n      jump\t// out\n        /* \"#utility.yul\":15211:15375   */\n    tag_310:\n        /* \"#utility.yul\":15351:15367   */\n      0x496e76616c6964206261736b6574000000000000000000000000000000000000\n        /* \"#utility.yul\":15347:15348   */\n      0x00\n        /* \"#utility.yul\":15339:15345   */\n      dup3\n        /* \"#utility.yul\":15335:15349   */\n      add\n        /* \"#utility.yul\":15328:15368   */\n      mstore\n        /* \"#utility.yul\":15211:15375   */\n      pop\n      jump\t// out\n        /* \"#utility.yul\":15381:15747   */\n    tag_311:\n        /* \"#utility.yul\":15523:15526   */\n      0x00\n        /* \"#utility.yul\":15544:15611   */\n      tag_506\n        /* \"#utility.yul\":15608:15610   */\n      0x0e\n        /* \"#utility.yul\":15603:15606   */\n      dup4\n        /* \"#utility.yul\":15544:15611   */\n      tag_279\n      jump\t// in\n    tag_506:\n        /* \"#utility.yul\":15537:15611   */\n      swap2\n      pop\n        /* \"#utility.yul\":15620:15713   */\n      tag_507\n        /* \"#utility.yul\":15709:15712   */\n      dup3\n        /* \"#utility.yul\":15620:15713   */\n      tag_310\n      jump\t// in\n    tag_507:\n        /* \"#utility.yul\":15738:15740   */\n      0x20\n        /* \"#utility.yul\":15733:15736   */\n      dup3\n        /* \"#utility.yul\":15729:15741   */\n      add\n        /* \"#utility.yul\":15722:15741   */\n      swap1\n      pop\n        /* \"#utility.yul\":15381:15747   */\n      swap2\n      swap1\n      pop\n      jump\t// out\n        /* \"#utility.yul\":15753:16172   */\n    tag_106:\n        /* \"#utility.yul\":15919:15923   */\n      0x00\n        /* \"#utility.yul\":15957:15959   */\n      0x20\n        /* \"#utility.yul\":15946:15955   */\n      dup3\n        /* \"#utility.yul\":15942:15960   */\n      add\n        /* \"#utility.yul\":15934:15960   */\n      swap1\n      pop\n        /* \"#utility.yul\":16006:16015   */\n      dup2\n        /* \"#utility.yul\":16000:16004   */\n      dup2\n        /* \"#utility.yul\":15996:16016   */\n      sub\n        /* \"#utility.yul\":15992:15993   */\n      0x00\n        /* \"#utility.yul\":15981:15990   */\n      dup4\n        /* \"#utility.yul\":15977:15994   */\n      add\n        /* \"#utility.yul\":15970:16017   */\n      mstore\n        /* \"#utility.yul\":16034:16165   */\n      tag_509\n        /* \"#utility.yul\":16160:16164   */\n      dup2\n        /* \"#utility.yul\":16034:16165   */\n      tag_311\n      jump\t// in\n    tag_509:\n        /* \"#utility.yul\":16026:16165   */\n      swap1\n      pop\n        /* \"#utility.yul\":15753:16172   */\n      swap2\n      swap1\n      pop\n      jump\t// out\n        /* \"#utility.yul\":16178:16358   */\n    tag_312:\n        /* \"#utility.yul\":16226:16303   */\n      0x4e487b7100000000000000000000000000000000000000000000000000000000\n        /* \"#utility.yul\":16223:16224   */\n      0x00\n        /* \"#utility.yul\":16216:16304   */\n      mstore\n        /* \"#utility.yul\":16323:16327   */\n      0x11\n        /* \"#utility.yul\":16320:16321   */\n      0x04\n        /* \"#utility.yul\":16313:16328   */\n      mstore\n        /* \"#utility.yul\":16347:16351   */\n      0x24\n        /* \"#utility.yul\":16344:16345   */\n      0x00\n        /* \"#utility.yul\":16337:16352   */\n      revert\n        /* \"#utility.yul\":16364:16597   */\n    tag_108:\n        /* \"#utility.yul\":16403:16406   */\n      0x00\n        /* \"#utility.yul\":16426:16450   */\n      tag_512\n        /* \"#utility.yul\":16444:16449   */\n      dup3\n        /* \"#utility.yul\":16426:16450   */\n      tag_269\n      jump\t// in\n    tag_512:\n        /* \"#utility.yul\":16417:16450   */\n      swap2\n      pop\n        /* \"#utility.yul\":16472:16538   */\n      0xffffffffffffffffffffffffffffffffffffffffffffffffffffffffffffffff\n        /* \"#utility.yul\":16465:16470   */\n      dup3\n        /* \"#utility.yul\":16462:16539   */\n      sub\n        /* \"#utility.yul\":16459:16562   */\n      tag_513\n      jumpi\n        /* \"#utility.yul\":16542:16560   */\n      tag_514\n      tag_312\n      jump\t// in\n    tag_514:\n        /* \"#utility.yul\":16459:16562   */\n    tag_513:\n        /* \"#utility.yul\":16589:16590   */\n      0x01\n        /* \"#utility.yul\":16582:16587   */\n      dup3\n        /* \"#utility.yul\":16578:16591   */\n      add\n        /* \"#utility.yul\":16571:16591   */\n      swap1\n      pop\n        /* \"#utility.yul\":16364:16597   */\n      swap2\n      swap1\n      pop\n      jump\t// out\n        /* \"#utility.yul\":16603:16783   */\n    tag_313:\n        /* \"#utility.yul\":16651:16728   */\n      0x4e487b7100000000000000000000000000000000000000000000000000000000\n        /* \"#utility.yul\":16648:16649   */\n      0x00\n        /* \"#utility.yul\":16641:16729   */\n      mstore\n        /* \"#utility.yul\":16748:16752   */\n      0x22\n        /* \"#utility.yul\":16745:16746   */\n      0x04\n        /* \"#utility.yul\":16738:16753   */\n      mstore\n        /* \"#utility.yul\":16772:16776   */\n      0x24\n        /* \"#utility.yul\":16769:16770   */\n      0x00\n        /* \"#utility.yul\":16762:16777   */\n      revert\n        /* \"#utility.yul\":16789:17109   */\n    tag_120:\n        /* \"#utility.yul\":16833:16839   */\n      0x00\n        /* \"#utility.yul\":16870:16871   */\n      0x02\n        /* \"#utility.yul\":16864:16868   */\n      dup3\n        /* \"#utility.yul\":16860:16872   */\n      div\n        /* \"#utility.yul\":16850:16872   */\n      swap1\n      pop\n        /* \"#utility.yul\":16917:16918   */\n      0x01\n        /* \"#utility.yul\":16911:16915   */\n      dup3\n        /* \"#utility.yul\":16907:16919   */\n      and\n        /* \"#utility.yul\":16938:16956   */\n      dup1\n        /* \"#utility.yul\":16928:17009   */\n      tag_517\n      jumpi\n        /* \"#utility.yul\":16994:16998   */\n      0x7f\n        /* \"#utility.yul\":16986:16992   */\n      dup3\n        /* \"#utility.yul\":16982:16999   */\n      and\n        /* \"#utility.yul\":16972:16999   */\n      swap2\n      pop\n        /* \"#utility.yul\":16928:17009   */\n    tag_517:\n        /* \"#utility.yul\":17056:17058   */\n      0x20\n        /* \"#utility.yul\":17048:17054   */\n      dup3\n        /* \"#utility.yul\":17045:17059   */\n      lt\n        /* \"#utility.yul\":17025:17043   */\n      dup2\n        /* \"#utility.yul\":17022:17060   */\n      sub\n        /* \"#utility.yul\":17019:17103   */\n      tag_518\n      jumpi\n        /* \"#utility.yul\":17075:17093   */\n      tag_519\n      tag_313\n      jump\t// in\n    tag_519:\n        /* \"#utility.yul\":17019:17103   */\n    tag_518:\n        /* \"#utility.yul\":16840:17109   */\n      pop\n        /* \"#utility.yul\":16789:17109   */\n      swap2\n      swap1\n      pop\n      jump\t// out\n        /* \"#utility.yul\":17115:17256   */\n    tag_314:\n        /* \"#utility.yul\":17164:17168   */\n      0x00\n        /* \"#utility.yul\":17187:17190   */\n      dup2\n        /* \"#utility.yul\":17179:17190   */\n      swap1\n      pop\n        /* \"#utility.yul\":17210:17213   */\n      dup2\n        /* \"#utility.yul\":17207:17208   */\n      0x00\n        /* \"#utility.yul\":17200:17214   */\n      mstore\n        /* \"#utility.yul\":17244:17248   */\n      0x20\n        /* \"#utility.yul\":17241:17242   */\n      0x00\n        /* \"#utility.yul\":17231:17249   */\n      keccak256\n        /* \"#utility.yul\":17223:17249   */\n      swap1\n      pop\n        /* \"#utility.yul\":17115:17256   */\n      swap2\n      swap1\n      pop\n      jump\t// out\n        /* \"#utility.yul\":17262:17355   */\n    tag_315:\n        /* \"#utility.yul\":17299:17305   */\n      0x00\n        /* \"#utility.yul\":17346:17348   */\n      0x20\n        /* \"#utility.yul\":17341:17343   */\n      0x1f\n        /* \"#utility.yul\":17334:17339   */\n      dup4\n        /* \"#utility.yul\":17330:17344   */\n      add\n        /* \"#utility.yul\":17326:17349   */\n      div\n        /* \"#utility.yul\":17316:17349   */\n      swap1\n      pop\n        /* \"#utility.yul\":17262:17355   */\n      swap2\n      swap1\n      pop\n      jump\t// out\n        /* \"#utility.yul\":17361:17468   */\n    tag_316:\n        /* \"#utility.yul\":17405:17413   */\n      0x00\n        /* \"#utility.yul\":17455:17460   */\n      dup3\n        /* \"#utility.yul\":17449:17453   */\n      dup3\n        /* \"#utility.yul\":17445:17461   */\n      shl\n        /* \"#utility.yul\":17424:17461   */\n      swap1\n      pop\n        /* \"#utility.yul\":17361:17468   */\n      swap3\n      swap2\n      pop\n      pop\n      jump\t// out\n        /* \"#utility.yul\":17474:17867   */\n    tag_317:\n        /* \"#utility.yul\":17543:17549   */\n      0x00\n        /* \"#utility.yul\":17593:17594   */\n      0x08\n        /* \"#utility.yul\":17581:17591   */\n      dup4\n        /* \"#utility.yul\":17577:17595   */\n      mul\n        /* \"#utility.yul\":17616:17713   */\n      tag_524\n        /* \"#utility.yul\":17646:17712   */\n      0xffffffffffffffffffffffffffffffffffffffffffffffffffffffffffffffff\n        /* \"#utility.yul\":17635:17644   */\n      dup3\n        /* \"#utility.yul\":17616:17713   */\n      tag_316\n      jump\t// in\n    tag_524:\n        /* \"#utility.yul\":17734:17773   */\n      tag_525\n        /* \"#utility.yul\":17764:17772   */\n      dup7\n        /* \"#utility.yul\":17753:17762   */\n      dup4\n        /* \"#utility.yul\":17734:17773   */\n      tag_316\n      jump\t// in\n    tag_525:\n        /* \"#utility.yul\":17722:17773   */\n      swap6\n      pop\n        /* \"#utility.yul\":17806:17810   */\n      dup1\n        /* \"#utility.yul\":17802:17811   */\n      not\n        /* \"#utility.yul\":17795:17800   */\n      dup5\n        /* \"#utility.yul\":17791:17812   */\n      and\n        /* \"#utility.yul\":17782:17812   */\n      swap4\n      pop\n        /* \"#utility.yul\":17855:17859   */\n      dup1\n        /* \"#utility.yul\":17845:17853   */\n      dup7\n        /* \"#utility.yul\":17841:17860   */\n      and\n        /* \"#utility.yul\":17834:17839   */\n      dup5\n        /* \"#utility.yul\":17831:17861   */\n      or\n        /* \"#utility.yul\":17821:17861   */\n      swap3\n      pop\n        /* \"#utility.yul\":17550:17867   */\n      pop\n      pop\n        /* \"#utility.yul\":17474:17867   */\n      swap4\n      swap3\n      pop\n      pop\n      pop\n      jump\t// out\n        /* \"#utility.yul\":17873:18015   */\n    tag_318:\n        /* \"#utility.yul\":17923:17932   */\n      0x00\n        /* \"#utility.yul\":17956:18009   */\n      tag_527\n        /* \"#utility.yul\":17974:18008   */\n      tag_528\n        /* \"#utility.yul\":17983:18007   */\n      tag_529\n        /* \"#utility.yul\":18001:18006   */\n      dup5\n        /* \"#utility.yul\":17983:18007   */\n      tag_269\n      jump\t// in\n    tag_529:\n        /* \"#utility.yul\":17974:18008   */\n      tag_287\n      jump\t// in\n    tag_528:\n        /* \"#utility.yul\":17956:18009   */\n      tag_269\n      jump\t// in\n    tag_527:\n        /* \"#utility.yul\":17943:18009   */\n      swap1\n      pop\n        /* \"#utility.yul\":17873:18015   */\n      swap2\n      swap1\n      pop\n      jump\t// out\n        /* \"#utility.yul\":18021:18096   */\n    tag_319:\n        /* \"#utility.yul\":18064:18067   */\n      0x00\n        /* \"#utility.yul\":18085:18090   */\n      dup2\n        /* \"#utility.yul\":18078:18090   */\n      swap1\n      pop\n        /* \"#utility.yul\":18021:18096   */\n      swap2\n      swap1\n      pop\n      jump\t// out\n        /* \"#utility.yul\":18102:18371   */\n    tag_320:\n        /* \"#utility.yul\":18212:18251   */\n      tag_532\n        /* \"#utility.yul\":18243:18250   */\n      dup4\n        /* \"#utility.yul\":18212:18251   */\n      tag_318\n      jump\t// in\n    tag_532:\n        /* \"#utility.yul\":18273:18364   */\n      tag_533\n        /* \"#utility.yul\":18322:18363   */\n      tag_534\n        /* \"#utility.yul\":18346:18362   */\n      dup3\n        /* \"#utility.yul\":18322:18363   */\n      tag_319\n      jump\t// in\n    tag_534:\n        /* \"#utility.yul\":18314:18320   */\n      dup5\n        /* \"#utility.yul\":18307:18311   */\n      dup5\n        /* \"#utility.yul\":18301:18312   */\n      sload\n        /* \"#utility.yul\":18273:18364   */\n      tag_317\n      jump\t// in\n    tag_533:\n        /* \"#utility.yul\":18267:18271   */\n      dup3\n        /* \"#utility.yul\":18260:18365   */\n      sstore\n        /* \"#utility.yul\":18178:18371   */\n      pop\n        /* \"#utility.yul\":18102:18371   */\n      pop\n      pop\n      pop\n      jump\t// out\n        /* \"#utility.yul\":18377:18450   */\n    tag_321:\n        /* \"#utility.yul\":18422:18425   */\n      0x00\n        /* \"#utility.yul\":18377:18450   */\n      swap1\n      jump\t// out\n        /* \"#utility.yul\":18456:18645   */\n    tag_322:\n        /* \"#utility.yul\":18533:18565   */\n      tag_537\n      tag_321\n      jump\t// in\n    tag_537:\n        /* \"#utility.yul\":18574:18639   */\n      tag_538\n        /* \"#utility.yul\":18632:18638   */\n      dup2\n        /* \"#utility.yul\":18624:18630   */\n      dup5\n        /* \"#utility.yul\":18618:18622   */\n      dup5\n        /* \"#utility.yul\":18574:18639   */\n      tag_320\n      jump\t// in\n    tag_538:\n        /* \"#utility.yul\":18509:18645   */\n      pop\n        /* \"#utility.yul\":18456:18645   */\n      pop\n      pop\n      jump\t// out\n        /* \"#utility.yul\":18651:18837   */\n    tag_323:\n        /* \"#utility.yul\":18711:18831   */\n    tag_540:\n        /* \"#utility.yul\":18728:18731   */\n      dup2\n        /* \"#utility.yul\":18721:18726   */\n      dup2\n        /* \"#utility.yul\":18718:18732   */\n      lt\n        /* \"#utility.yul\":18711:18831   */\n      iszero\n      tag_542\n      jumpi\n        /* \"#utility.yul\":18782:18821   */\n      tag_543\n        /* \"#utility.yul\":18819:18820   */\n      0x00\n        /* \"#utility.yul\":18812:18817   */\n      dup3\n        /* \"#utility.yul\":18782:18821   */\n      tag_322\n      jump\t// in\n    tag_543:\n        /* \"#utility.yul\":18755:18756   */\n      0x01\n        /* \"#utility.yul\":18748:18753   */\n      dup2\n        /* \"#utility.yul\":18744:18757   */\n      add\n        /* \"#utility.yul\":18735:18757   */\n      swap1\n      pop\n        /* \"#utility.yul\":18711:18831   */\n      jump(tag_540)\n    tag_542:\n        /* \"#utility.yul\":18651:18837   */\n      pop\n      pop\n      jump\t// out\n        /* \"#utility.yul\":18843:19386   */\n    tag_324:\n        /* \"#utility.yul\":18944:18946   */\n      0x1f\n        /* \"#utility.yul\":18939:18942   */\n      dup3\n        /* \"#utility.yul\":18936:18947   */\n      gt\n        /* \"#utility.yul\":18933:19379   */\n      iszero\n      tag_545\n      jumpi\n        /* \"#utility.yul\":18978:19016   */\n      tag_546\n        /* \"#utility.yul\":19010:19015   */\n      dup2\n        /* \"#utility.yul\":18978:19016   */\n      tag_314\n      jump\t// in\n    tag_546:\n        /* \"#utility.yul\":19062:19091   */\n      tag_547\n        /* \"#utility.yul\":19080:19090   */\n      dup5\n        /* \"#utility.yul\":19062:19091   */\n      tag_315\n      jump\t// in\n    tag_547:\n        /* \"#utility.yul\":19052:19060   */\n      dup2\n        /* \"#utility.yul\":19048:19092   */\n      add\n        /* \"#utility.yul\":19245:19247   */\n      0x20\n        /* \"#utility.yul\":19233:19243   */\n      dup6\n        /* \"#utility.yul\":19230:19248   */\n      lt\n        /* \"#utility.yul\":19227:19276   */\n      iszero\n      tag_548\n      jumpi\n        /* \"#utility.yul\":19266:19274   */\n      dup2\n        /* \"#utility.yul\":19251:19274   */\n      swap1\n      pop\n        /* \"#utility.yul\":19227:19276   */\n    tag_548:\n        /* \"#utility.yul\":19289:19369   */\n      tag_549\n        /* \"#utility.yul\":19345:19367   */\n      tag_550\n        /* \"#utility.yul\":19363:19366   */\n      dup6\n        /* \"#utility.yul\":19345:19367   */\n      tag_315\n      jump\t// in\n    tag_550:\n        /* \"#utility.yul\":19335:19343   */\n      dup4\n        /* \"#utility.yul\":19331:19368   */\n      add\n        /* \"#utility.yul\":19318:19329   */\n      dup3\n        /* \"#utility.yul\":19289:19369   */\n      tag_323\n      jump\t// in\n    tag_549:\n        /* \"#utility.yul\":18948:19379   */\n      pop\n      pop\n        /* \"#utility.yul\":18933:19379   */\n    tag_545:\n        /* \"#utility.yul\":18843:19386   */\n      pop\n      pop\n      pop\n      jump\t// out\n        /* \"#utility.yul\":19392:19509   */\n    tag_325:\n        /* \"#utility.yul\":19446:19454   */\n      0x00\n        /* \"#utility.yul\":19496:19501   */\n      dup3\n        /* \"#utility.yul\":19490:19494   */\n      dup3\n        /* \"#utility.yul\":19486:19502   */\n      shr\n        /* \"#utility.yul\":19465:19502   */\n      swap1\n      pop\n        /* \"#utility.yul\":19392:19509   */\n      swap3\n      swap2\n      pop\n      pop\n      jump\t// out\n        /* \"#utility.yul\":19515:19684   */\n    tag_326:\n        /* \"#utility.yul\":19559:19565   */\n      0x00\n        /* \"#utility.yul\":19592:19643   */\n      tag_553\n        /* \"#utility.yul\":19640:19641   */\n      0x00\n        /* \"#utility.yul\":19636:19642   */\n      not\n        /* \"#utility.yul\":19628:19633   */\n      dup5\n        /* \"#utility.yul\":19625:19626   */\n      0x08\n        /* \"#utility.yul\":19621:19634   */\n      mul\n        /* \"#utility.yul\":19592:19643   */\n      tag_325\n      jump\t// in\n    tag_553:\n        /* \"#utility.yul\":19588:19644   */\n      not\n        /* \"#utility.yul\":19673:19677   */\n      dup1\n        /* \"#utility.yul\":19667:19671   */\n      dup4\n        /* \"#utility.yul\":19663:19678   */\n      and\n        /* \"#utility.yul\":19653:19678   */\n      swap2\n      pop\n        /* \"#utility.yul\":19566:19684   */\n      pop\n        /* \"#utility.yul\":19515:19684   */\n      swap3\n      swap2\n      pop\n      pop\n      jump\t// out\n        /* \"#utility.yul\":19689:19984   */\n    tag_327:\n        /* \"#utility.yul\":19765:19769   */\n      0x00\n        /* \"#utility.yul\":19911:19940   */\n      tag_555\n        /* \"#utility.yul\":19936:19939   */\n      dup4\n        /* \"#utility.yul\":19930:19934   */\n      dup4\n        /* \"#utility.yul\":19911:19940   */\n      tag_326\n      jump\t// in\n    tag_555:\n        /* \"#utility.yul\":19903:19940   */\n      swap2\n      pop\n        /* \"#utility.yul\":19973:19976   */\n      dup3\n        /* \"#utility.yul\":19970:19971   */\n      0x02\n        /* \"#utility.yul\":19966:19977   */\n      mul\n        /* \"#utility.yul\":19960:19964   */\n      dup3\n        /* \"#utility.yul\":19957:19978   */\n      or\n        /* \"#utility.yul\":19949:19978   */\n      swap1\n      pop\n        /* \"#utility.yul\":19689:19984   */\n      swap3\n      swap2\n      pop\n      pop\n      jump\t// out\n        /* \"#utility.yul\":19989:21384   */\n    tag_115:\n        /* \"#utility.yul\":20106:20143   */\n      tag_557\n        /* \"#utility.yul\":20139:20142   */\n      dup3\n        /* \"#utility.yul\":20106:20143   */\n      tag_278\n      jump\t// in\n    tag_557:\n        /* \"#utility.yul\":20208:20226   */\n      0xffffffffffffffff\n        /* \"#utility.yul\":20200:20206   */\n      dup2\n        /* \"#utility.yul\":20197:20227   */\n      gt\n        /* \"#utility.yul\":20194:20250   */\n      iszero\n      tag_558\n      jumpi\n        /* \"#utility.yul\":20230:20248   */\n      tag_559\n      tag_301\n      jump\t// in\n    tag_559:\n        /* \"#utility.yul\":20194:20250   */\n    tag_558:\n        /* \"#utility.yul\":20274:20312   */\n      tag_560\n        /* \"#utility.yul\":20306:20310   */\n      dup3\n        /* \"#utility.yul\":20300:20311   */\n      sload\n        /* \"#utility.yul\":20274:20312   */\n      tag_120\n      jump\t// in\n    tag_560:\n        /* \"#utility.yul\":20359:20426   */\n      tag_561\n        /* \"#utility.yul\":20419:20425   */\n      dup3\n        /* \"#utility.yul\":20411:20417   */\n      dup3\n        /* \"#utility.yul\":20405:20409   */\n      dup6\n        /* \"#utility.yul\":20359:20426   */\n      tag_324\n      jump\t// in\n    tag_561:\n        /* \"#utility.yul\":20453:20454   */\n      0x00\n        /* \"#utility.yul\":20477:20481   */\n      0x20\n        /* \"#utility.yul\":20464:20481   */\n      swap1\n      pop\n        /* \"#utility.yul\":20509:20511   */\n      0x1f\n        /* \"#utility.yul\":20501:20507   */\n      dup4\n        /* \"#utility.yul\":20498:20512   */\n      gt\n        /* \"#utility.yul\":20526:20527   */\n      0x01\n        /* \"#utility.yul\":20521:21139   */\n      dup2\n      eq\n      tag_563\n      jumpi\n        /* \"#utility.yul\":21183:21184   */\n      0x00\n        /* \"#utility.yul\":21200:21206   */\n      dup5\n        /* \"#utility.yul\":21197:21274   */\n      iszero\n      tag_564\n      jumpi\n        /* \"#utility.yul\":21249:21258   */\n      dup3\n        /* \"#utility.yul\":21244:21247   */\n      dup8\n        /* \"#utility.yul\":21240:21259   */\n      add\n        /* \"#utility.yul\":21234:21260   */\n      mload\n        /* \"#utility.yul\":21225:21260   */\n      swap1\n      pop\n        /* \"#utility.yul\":21197:21274   */\n    tag_564:\n        /* \"#utility.yul\":21300:21367   */\n      tag_565\n        /* \"#utility.yul\":21360:21366   */\n      dup6\n        /* \"#utility.yul\":21353:21358   */\n      dup3\n        /* \"#utility.yul\":21300:21367   */\n      tag_327\n      jump\t// in\n    tag_565:\n        /* \"#utility.yul\":21294:21298   */\n      dup7\n        /* \"#utility.yul\":21287:21368   */\n      sstore\n        /* \"#utility.yul\":21156:21378   */\n      pop\n        /* \"#utility.yul\":20491:21378   */\n      jump(tag_562)\n        /* \"#utility.yul\":20521:21139   */\n    tag_563:\n        /* \"#utility.yul\":20573:20577   */\n      0x1f\n        /* \"#utility.yul\":20569:20578   */\n      not\n        /* \"#utility.yul\":20561:20567   */\n      dup5\n        /* \"#utility.yul\":20557:20579   */\n      and\n        /* \"#utility.yul\":20607:20644   */\n      tag_566\n        /* \"#utility.yul\":20639:20643   */\n      dup7\n        /* \"#utility.yul\":20607:20644   */\n      tag_314\n      jump\t// in\n    tag_566:\n        /* \"#utility.yul\":20666:20667   */\n      0x00\n        /* \"#utility.yul\":20680:20888   */\n    tag_567:\n        /* \"#utility.yul\":20694:20701   */\n      dup3\n        /* \"#utility.yul\":20691:20692   */\n      dup2\n        /* \"#utility.yul\":20688:20702   */\n      lt\n        /* \"#utility.yul\":20680:20888   */\n      iszero\n      tag_569\n      jumpi\n        /* \"#utility.yul\":20773:20782   */\n      dup5\n        /* \"#utility.yul\":20768:20771   */\n      dup10\n        /* \"#utility.yul\":20764:20783   */\n      add\n        /* \"#utility.yul\":20758:20784   */\n      mload\n        /* \"#utility.yul\":20750:20756   */\n      dup3\n        /* \"#utility.yul\":20743:20785   */\n      sstore\n        /* \"#utility.yul\":20824:20825   */\n      0x01\n        /* \"#utility.yul\":20816:20822   */\n      dup3\n        /* \"#utility.yul\":20812:20826   */\n      add\n        /* \"#utility.yul\":20802:20826   */\n      swap2\n      pop\n        /* \"#utility.yul\":20871:20873   */\n      0x20\n        /* \"#utility.yul\":20860:20869   */\n      dup6\n        /* \"#utility.yul\":20856:20874   */\n      add\n        /* \"#utility.yul\":20843:20874   */\n      swap5\n      pop\n        /* \"#utility.yul\":20717:20721   */\n      0x20\n        /* \"#utility.yul\":20714:20715   */\n      dup2\n        /* \"#utility.yul\":20710:20722   */\n      add\n        /* \"#utility.yul\":20705:20722   */\n      swap1\n      pop\n        /* \"#utility.yul\":20680:20888   */\n      jump(tag_567)\n    tag_569:\n        /* \"#utility.yul\":20916:20922   */\n      dup7\n        /* \"#utility.yul\":20907:20914   */\n      dup4\n        /* \"#utility.yul\":20904:20923   */\n      lt\n        /* \"#utility.yul\":20901:21080   */\n      iszero\n      tag_570\n      jumpi\n        /* \"#utility.yul\":20974:20983   */\n      dup5\n        /* \"#utility.yul\":20969:20972   */\n      dup10\n        /* \"#utility.yul\":20965:20984   */\n      add\n        /* \"#utility.yul\":20959:20985   */\n      mload\n        /* \"#utility.yul\":21017:21065   */\n      tag_571\n        /* \"#utility.yul\":21059:21063   */\n      0x1f\n        /* \"#utility.yul\":21051:21057   */\n      dup10\n        /* \"#utility.yul\":21047:21064   */\n      and\n        /* \"#utility.yul\":21036:21045   */\n      dup3\n        /* \"#utility.yul\":21017:21065   */\n      tag_326\n      jump\t// in\n    tag_571:\n        /* \"#utility.yul\":21009:21015   */\n      dup4\n        /* \"#utility.yul\":21002:21066   */\n      sstore\n        /* \"#utility.yul\":20924:21080   */\n      pop\n        /* \"#utility.yul\":20901:21080   */\n    tag_570:\n        /* \"#utility.yul\":21126:21127   */\n      0x01\n        /* \"#utility.yul\":21122:21123   */\n      0x02\n        /* \"#utility.yul\":21114:21120   */\n      dup9\n        /* \"#utility.yul\":21110:21124   */\n      mul\n        /* \"#utility.yul\":21106:21128   */\n      add\n        /* \"#utility.yul\":21100:21104   */\n      dup9\n        /* \"#utility.yul\":21093:21129   */\n      sstore\n        /* \"#utility.yul\":20528:21139   */\n      pop\n      pop\n      pop\n        /* \"#utility.yul\":20491:21378   */\n    tag_562:\n      pop\n        /* \"#utility.yul\":20081:21384   */\n      pop\n      pop\n      pop\n        /* \"#utility.yul\":19989:21384   */\n      pop\n      pop\n      jump\t// out\n        /* \"#utility.yul\":21390:21832   */\n    tag_117:\n        /* \"#utility.yul\":21539:21543   */\n      0x00\n        /* \"#utility.yul\":21577:21579   */\n      0x60\n        /* \"#utility.yul\":21566:21575   */\n      dup3\n        /* \"#utility.yul\":21562:21580   */\n      add\n        /* \"#utility.yul\":21554:21580   */\n      swap1\n      pop\n        /* \"#utility.yul\":21590:21661   */\n      tag_573\n        /* \"#utility.yul\":21658:21659   */\n      0x00\n        /* \"#utility.yul\":21647:21656   */\n      dup4\n        /* \"#utility.yul\":21643:21660   */\n      add\n        /* \"#utility.yul\":21634:21640   */\n      dup7\n        /* \"#utility.yul\":21590:21661   */\n      tag_273\n      jump\t// in\n    tag_573:\n        /* \"#utility.yul\":21671:21743   */\n      tag_574\n        /* \"#utility.yul\":21739:21741   */\n      0x20\n        /* \"#utility.yul\":21728:21737   */\n      dup4\n        /* \"#utility.yul\":21724:21742   */\n      add\n        /* \"#utility.yul\":21715:21721   */\n      dup6\n        /* \"#utility.yul\":21671:21743   */\n      tag_273\n      jump\t// in\n    tag_574:\n        /* \"#utility.yul\":21753:21825   */\n      tag_575\n        /* \"#utility.yul\":21821:21823   */\n      0x40\n        /* \"#utility.yul\":21810:21819   */\n      dup4\n        /* \"#utility.yul\":21806:21824   */\n      add\n        /* \"#utility.yul\":21797:21803   */\n      dup5\n        /* \"#utility.yul\":21753:21825   */\n      tag_273\n      jump\t// in\n    tag_575:\n        /* \"#utility.yul\":21390:21832   */\n      swap5\n      swap4\n      pop\n      pop\n      pop\n      pop\n      jump\t// out\n        /* \"#utility.yul\":21838:22015   */\n    tag_328:\n        /* \"#utility.yul\":21978:22007   */\n      0x5472616e73616374696f6e206973206e6f742064697370757465640000000000\n        /* \"#utility.yul\":21974:21975   */\n      0x00\n        /* \"#utility.yul\":21966:21972   */\n      dup3\n        /* \"#utility.yul\":21962:21976   */\n      add\n        /* \"#utility.yul\":21955:22008   */\n      mstore\n        /* \"#utility.yul\":21838:22015   */\n      pop\n      jump\t// out\n        /* \"#utility.yul\":22021:22387   */\n    tag_329:\n        /* \"#utility.yul\":22163:22166   */\n      0x00\n        /* \"#utility.yul\":22184:22251   */\n      tag_578\n        /* \"#utility.yul\":22248:22250   */\n      0x1b\n        /* \"#utility.yul\":22243:22246   */\n      dup4\n        /* \"#utility.yul\":22184:22251   */\n      tag_279\n      jump\t// in\n    tag_578:\n        /* \"#utility.yul\":22177:22251   */\n      swap2\n      pop\n        /* \"#utility.yul\":22260:22353   */\n      tag_579\n        /* \"#utility.yul\":22349:22352   */\n      dup3\n        /* \"#utility.yul\":22260:22353   */\n      tag_328\n      jump\t// in\n    tag_579:\n        /* \"#utility.yul\":22378:22380   */\n      0x20\n        /* \"#utility.yul\":22373:22376   */\n      dup3\n        /* \"#utility.yul\":22369:22381   */\n      add\n        /* \"#utility.yul\":22362:22381   */\n      swap1\n      pop\n        /* \"#utility.yul\":22021:22387   */\n      swap2\n      swap1\n      pop\n      jump\t// out\n        /* \"#utility.yul\":22393:22812   */\n    tag_135:\n        /* \"#utility.yul\":22559:22563   */\n      0x00\n        /* \"#utility.yul\":22597:22599   */\n      0x20\n        /* \"#utility.yul\":22586:22595   */\n      dup3\n        /* \"#utility.yul\":22582:22600   */\n      add\n        /* \"#utility.yul\":22574:22600   */\n      swap1\n      pop\n        /* \"#utility.yul\":22646:22655   */\n      dup2\n        /* \"#utility.yul\":22640:22644   */\n      dup2\n        /* \"#utility.yul\":22636:22656   */\n      sub\n        /* \"#utility.yul\":22632:22633   */\n      0x00\n        /* \"#utility.yul\":22621:22630   */\n      dup4\n        /* \"#utility.yul\":22617:22634   */\n      add\n        /* \"#utility.yul\":22610:22657   */\n      mstore\n        /* \"#utility.yul\":22674:22805   */\n      tag_581\n        /* \"#utility.yul\":22800:22804   */\n      dup2\n        /* \"#utility.yul\":22674:22805   */\n      tag_329\n      jump\t// in\n    tag_581:\n        /* \"#utility.yul\":22666:22805   */\n      swap1\n      pop\n        /* \"#utility.yul\":22393:22812   */\n      swap2\n      swap1\n      pop\n      jump\t// out\n        /* \"#utility.yul\":22818:23260   */\n    tag_142:\n        /* \"#utility.yul\":22967:22971   */\n      0x00\n        /* \"#utility.yul\":23005:23007   */\n      0x60\n        /* \"#utility.yul\":22994:23003   */\n      dup3\n        /* \"#utility.yul\":22990:23008   */\n      add\n        /* \"#utility.yul\":22982:23008   */\n      swap1\n      pop\n        /* \"#utility.yul\":23018:23089   */\n      tag_583\n        /* \"#utility.yul\":23086:23087   */\n      0x00\n        /* \"#utility.yul\":23075:23084   */\n      dup4\n        /* \"#utility.yul\":23071:23088   */\n      add\n        /* \"#utility.yul\":23062:23068   */\n      dup7\n        /* \"#utility.yul\":23018:23089   */\n      tag_273\n      jump\t// in\n    tag_583:\n        /* \"#utility.yul\":23099:23171   */\n      tag_584\n        /* \"#utility.yul\":23167:23169   */\n      0x20\n        /* \"#utility.yul\":23156:23165   */\n      dup4\n        /* \"#utility.yul\":23152:23170   */\n      add\n        /* \"#utility.yul\":23143:23149   */\n      dup6\n        /* \"#utility.yul\":23099:23171   */\n      tag_272\n      jump\t// in\n    tag_584:\n        /* \"#utility.yul\":23181:23253   */\n      tag_585\n        /* \"#utility.yul\":23249:23251   */\n      0x40\n        /* \"#utility.yul\":23238:23247   */\n      dup4\n        /* \"#utility.yul\":23234:23252   */\n      add\n        /* \"#utility.yul\":23225:23231   */\n      dup5\n        /* \"#utility.yul\":23181:23253   */\n      tag_273\n      jump\t// in\n    tag_585:\n        /* \"#utility.yul\":22818:23260   */\n      swap5\n      swap4\n      pop\n      pop\n      pop\n      pop\n      jump\t// out\n        /* \"#utility.yul\":23266:23430   */\n    tag_330:\n        /* \"#utility.yul\":23406:23422   */\n      0x4e6f7420617574686f72697a6564000000000000000000000000000000000000\n        /* \"#utility.yul\":23402:23403   */\n      0x00\n        /* \"#utility.yul\":23394:23400   */\n      dup3\n        /* \"#utility.yul\":23390:23404   */\n      add\n        /* \"#utility.yul\":23383:23423   */\n      mstore\n        /* \"#utility.yul\":23266:23430   */\n      pop\n      jump\t// out\n        /* \"#utility.yul\":23436:23802   */\n    tag_331:\n        /* \"#utility.yul\":23578:23581   */\n      0x00\n        /* \"#utility.yul\":23599:23666   */\n      tag_588\n        /* \"#utility.yul\":23663:23665   */\n      0x0e\n        /* \"#utility.yul\":23658:23661   */\n      dup4\n        /* \"#utility.yul\":23599:23666   */\n      tag_279\n      jump\t// in\n    tag_588:\n        /* \"#utility.yul\":23592:23666   */\n      swap2\n      pop\n        /* \"#utility.yul\":23675:23768   */\n      tag_589\n        /* \"#utility.yul\":23764:23767   */\n      dup3\n        /* \"#utility.yul\":23675:23768   */\n      tag_330\n      jump\t// in\n    tag_589:\n        /* \"#utility.yul\":23793:23795   */\n      0x20\n        /* \"#utility.yul\":23788:23791   */\n      dup3\n        /* \"#utility.yul\":23784:23796   */\n      add\n        /* \"#utility.yul\":23777:23796   */\n      swap1\n      pop\n        /* \"#utility.yul\":23436:23802   */\n      swap2\n      swap1\n      pop\n      jump\t// out\n        /* \"#utility.yul\":23808:24227   */\n    tag_178:\n        /* \"#utility.yul\":23974:23978   */\n      0x00\n        /* \"#utility.yul\":24012:24014   */\n      0x20\n        /* \"#utility.yul\":24001:24010   */\n      dup3\n        /* \"#utility.yul\":23997:24015   */\n      add\n        /* \"#utility.yul\":23989:24015   */\n      swap1\n      pop\n        /* \"#utility.yul\":24061:24070   */\n      dup2\n        /* \"#utility.yul\":24055:24059   */\n      dup2\n        /* \"#utility.yul\":24051:24071   */\n      sub\n        /* \"#utility.yul\":24047:24048   */\n      0x00\n        /* \"#utility.yul\":24036:24045   */\n      dup4\n        /* \"#utility.yul\":24032:24049   */\n      add\n        /* \"#utility.yul\":24025:24072   */\n      mstore\n        /* \"#utility.yul\":24089:24220   */\n      tag_591\n        /* \"#utility.yul\":24215:24219   */\n      dup2\n        /* \"#utility.yul\":24089:24220   */\n      tag_331\n      jump\t// in\n    tag_591:\n        /* \"#utility.yul\":24081:24220   */\n      swap1\n      pop\n        /* \"#utility.yul\":23808:24227   */\n      swap2\n      swap1\n      pop\n      jump\t// out\n        /* \"#utility.yul\":24233:24409   */\n    tag_332:\n        /* \"#utility.yul\":24373:24401   */\n      0x5472616e73616374696f6e206973206e6f742070656e64696e67000000000000\n        /* \"#utility.yul\":24369:24370   */\n      0x00\n        /* \"#utility.yul\":24361:24367   */\n      dup3\n        /* \"#utility.yul\":24357:24371   */\n      add\n        /* \"#utility.yul\":24350:24402   */\n      mstore\n        /* \"#utility.yul\":24233:24409   */\n      pop\n      jump\t// out\n        /* \"#utility.yul\":24415:24781   */\n    tag_333:\n        /* \"#utility.yul\":24557:24560   */\n      0x00\n        /* \"#utility.yul\":24578:24645   */\n      tag_594\n        /* \"#utility.yul\":24642:24644   */\n      0x1a\n        /* \"#utility.yul\":24637:24640   */\n      dup4\n        /* \"#utility.yul\":24578:24645   */\n      tag_279\n      jump\t// in\n    tag_594:\n        /* \"#utility.yul\":24571:24645   */\n      swap2\n      pop\n        /* \"#utility.yul\":24654:24747   */\n      tag_595\n        /* \"#utility.yul\":24743:24746   */\n      dup3\n        /* \"#utility.yul\":24654:24747   */\n      tag_332\n      jump\t// in\n    tag_595:\n        /* \"#utility.yul\":24772:24774   */\n      0x20\n        /* \"#utility.yul\":24767:24770   */\n      dup3\n        /* \"#utility.yul\":24763:24775   */\n      add\n        /* \"#utility.yul\":24756:24775   */\n      swap1\n      pop\n        /* \"#utility.yul\":24415:24781   */\n      swap2\n      swap1\n      pop\n      jump\t// out\n        /* \"#utility.yul\":24787:25206   */\n    tag_186:\n        /* \"#utility.yul\":24953:24957   */\n      0x00\n        /* \"#utility.yul\":24991:24993   */\n      0x20\n        /* \"#utility.yul\":24980:24989   */\n      dup3\n        /* \"#utility.yul\":24976:24994   */\n      add\n        /* \"#utility.yul\":24968:24994   */\n      swap1\n      pop\n        /* \"#utility.yul\":25040:25049   */\n      dup2\n        /* \"#utility.yul\":25034:25038   */\n      dup2\n        /* \"#utility.yul\":25030:25050   */\n      sub\n        /* \"#utility.yul\":25026:25027   */\n      0x00\n        /* \"#utility.yul\":25015:25024   */\n      dup4\n        /* \"#utility.yul\":25011:25028   */\n      add\n        /* \"#utility.yul\":25004:25051   */\n      mstore\n        /* \"#utility.yul\":25068:25199   */\n      tag_597\n        /* \"#utility.yul\":25194:25198   */\n      dup2\n        /* \"#utility.yul\":25068:25199   */\n      tag_333\n      jump\t// in\n    tag_597:\n        /* \"#utility.yul\":25060:25199   */\n      swap1\n      pop\n        /* \"#utility.yul\":24787:25206   */\n      swap2\n      swap1\n      pop\n      jump\t// out\n        /* \"#utility.yul\":25212:25309   */\n    tag_334:\n        /* \"#utility.yul\":25271:25277   */\n      0x00\n        /* \"#utility.yul\":25299:25302   */\n      dup3\n        /* \"#utility.yul\":25289:25302   */\n      swap1\n      pop\n        /* \"#utility.yul\":25212:25309   */\n      swap3\n      swap2\n      pop\n      pop\n      jump\t// out\n        /* \"#utility.yul\":25315:26718   */\n    tag_207:\n        /* \"#utility.yul\":25439:25483   */\n      tag_600\n        /* \"#utility.yul\":25479:25482   */\n      dup4\n        /* \"#utility.yul\":25474:25477   */\n      dup4\n        /* \"#utility.yul\":25439:25483   */\n      tag_334\n      jump\t// in\n    tag_600:\n        /* \"#utility.yul\":25548:25566   */\n      0xffffffffffffffff\n        /* \"#utility.yul\":25540:25546   */\n      dup2\n        /* \"#utility.yul\":25537:25567   */\n      gt\n        /* \"#utility.yul\":25534:25590   */\n      iszero\n      tag_601\n      jumpi\n        /* \"#utility.yul\":25570:25588   */\n      tag_602\n      tag_301\n      jump\t// in\n    tag_602:\n        /* \"#utility.yul\":25534:25590   */\n    tag_601:\n        /* \"#utility.yul\":25614:25652   */\n      tag_603\n        /* \"#utility.yul\":25646:25650   */\n      dup3\n        /* \"#utility.yul\":25640:25651   */\n      sload\n        /* \"#utility.yul\":25614:25652   */\n      tag_120\n      jump\t// in\n    tag_603:\n        /* \"#utility.yul\":25699:25766   */\n      tag_604\n        /* \"#utility.yul\":25759:25765   */\n      dup3\n        /* \"#utility.yul\":25751:25757   */\n      dup3\n        /* \"#utility.yul\":25745:25749   */\n      dup6\n        /* \"#utility.yul\":25699:25766   */\n      tag_324\n      jump\t// in\n    tag_604:\n        /* \"#utility.yul\":25793:25794   */\n      0x00\n        /* \"#utility.yul\":25822:25824   */\n      0x1f\n        /* \"#utility.yul\":25814:25820   */\n      dup4\n        /* \"#utility.yul\":25811:25825   */\n      gt\n        /* \"#utility.yul\":25839:25840   */\n      0x01\n        /* \"#utility.yul\":25834:26466   */\n      dup2\n      eq\n      tag_606\n      jumpi\n        /* \"#utility.yul\":26510:26511   */\n      0x00\n        /* \"#utility.yul\":26527:26533   */\n      dup5\n        /* \"#utility.yul\":26524:26608   */\n      iszero\n      tag_607\n      jumpi\n        /* \"#utility.yul\":26583:26592   */\n      dup3\n        /* \"#utility.yul\":26578:26581   */\n      dup8\n        /* \"#utility.yul\":26574:26593   */\n      add\n        /* \"#utility.yul\":26561:26594   */\n      calldataload\n        /* \"#utility.yul\":26552:26594   */\n      swap1\n      pop\n        /* \"#utility.yul\":26524:26608   */\n    tag_607:\n        /* \"#utility.yul\":26634:26701   */\n      tag_608\n        /* \"#utility.yul\":26694:26700   */\n      dup6\n        /* \"#utility.yul\":26687:26692   */\n      dup3\n        /* \"#utility.yul\":26634:26701   */\n      tag_327\n      jump\t// in\n    tag_608:\n        /* \"#utility.yul\":26628:26632   */\n      dup7\n        /* \"#utility.yul\":26621:26702   */\n      sstore\n        /* \"#utility.yul\":26483:26712   */\n      pop\n        /* \"#utility.yul\":25804:26712   */\n      jump(tag_605)\n        /* \"#utility.yul\":25834:26466   */\n    tag_606:\n        /* \"#utility.yul\":25886:25890   */\n      0x1f\n        /* \"#utility.yul\":25882:25891   */\n      not\n        /* \"#utility.yul\":25874:25880   */\n      dup5\n        /* \"#utility.yul\":25870:25892   */\n      and\n        /* \"#utility.yul\":25920:25957   */\n      tag_609\n        /* \"#utility.yul\":25952:25956   */\n      dup7\n        /* \"#utility.yul\":25920:25957   */\n      tag_314\n      jump\t// in\n    tag_609:\n        /* \"#utility.yul\":25979:25980   */\n      0x00\n        /* \"#utility.yul\":25993:26208   */\n    tag_610:\n        /* \"#utility.yul\":26007:26014   */\n      dup3\n        /* \"#utility.yul\":26004:26005   */\n      dup2\n        /* \"#utility.yul\":26001:26015   */\n      lt\n        /* \"#utility.yul\":25993:26208   */\n      iszero\n      tag_612\n      jumpi\n        /* \"#utility.yul\":26093:26102   */\n      dup5\n        /* \"#utility.yul\":26088:26091   */\n      dup10\n        /* \"#utility.yul\":26084:26103   */\n      add\n        /* \"#utility.yul\":26071:26104   */\n      calldataload\n        /* \"#utility.yul\":26063:26069   */\n      dup3\n        /* \"#utility.yul\":26056:26105   */\n      sstore\n        /* \"#utility.yul\":26144:26145   */\n      0x01\n        /* \"#utility.yul\":26136:26142   */\n      dup3\n        /* \"#utility.yul\":26132:26146   */\n      add\n        /* \"#utility.yul\":26122:26146   */\n      swap2\n      pop\n        /* \"#utility.yul\":26191:26193   */\n      0x20\n        /* \"#utility.yul\":26180:26189   */\n      dup6\n        /* \"#utility.yul\":26176:26194   */\n      add\n        /* \"#utility.yul\":26163:26194   */\n      swap5\n      pop\n        /* \"#utility.yul\":26030:26034   */\n      0x20\n        /* \"#utility.yul\":26027:26028   */\n      dup2\n        /* \"#utility.yul\":26023:26035   */\n      add\n        /* \"#utility.yul\":26018:26035   */\n      swap1\n      pop\n        /* \"#utility.yul\":25993:26208   */\n      jump(tag_610)\n    tag_612:\n        /* \"#utility.yul\":26236:26242   */\n      dup7\n        /* \"#utility.yul\":26227:26234   */\n      dup4\n        /* \"#utility.yul\":26224:26243   */\n      lt\n        /* \"#utility.yul\":26221:26407   */\n      iszero\n      tag_613\n      jumpi\n        /* \"#utility.yul\":26301:26310   */\n      dup5\n        /* \"#utility.yul\":26296:26299   */\n      dup10\n        /* \"#utility.yul\":26292:26311   */\n      add\n        /* \"#utility.yul\":26279:26312   */\n      calldataload\n        /* \"#utility.yul\":26344:26392   */\n      tag_614\n        /* \"#utility.yul\":26386:26390   */\n      0x1f\n        /* \"#utility.yul\":26378:26384   */\n      dup10\n        /* \"#utility.yul\":26374:26391   */\n      and\n        /* \"#utility.yul\":26363:26372   */\n      dup3\n        /* \"#utility.yul\":26344:26392   */\n      tag_326\n      jump\t// in\n    tag_614:\n        /* \"#utility.yul\":26336:26342   */\n      dup4\n        /* \"#utility.yul\":26329:26393   */\n      sstore\n        /* \"#utility.yul\":26244:26407   */\n      pop\n        /* \"#utility.yul\":26221:26407   */\n    tag_613:\n        /* \"#utility.yul\":26453:26454   */\n      0x01\n        /* \"#utility.yul\":26449:26450   */\n      0x02\n        /* \"#utility.yul\":26441:26447   */\n      dup9\n        /* \"#utility.yul\":26437:26451   */\n      mul\n        /* \"#utility.yul\":26433:26455   */\n      add\n        /* \"#utility.yul\":26427:26431   */\n      dup9\n        /* \"#utility.yul\":26420:26456   */\n      sstore\n        /* \"#utility.yul\":25841:26466   */\n      pop\n      pop\n      pop\n        /* \"#utility.yul\":25804:26712   */\n    tag_605:\n      pop\n        /* \"#utility.yul\":25414:26718   */\n      pop\n      pop\n      pop\n        /* \"#utility.yul\":25315:26718   */\n      pop\n      pop\n      pop\n      jump\t// out\n        /* \"#utility.yul\":26724:26872   */\n    tag_335:\n        /* \"#utility.yul\":26822:26828   */\n      dup3\n        /* \"#utility.yul\":26817:26820   */\n      dup2\n        /* \"#utility.yul\":26812:26815   */\n      dup4\n        /* \"#utility.yul\":26799:26829   */\n      calldatacopy\n        /* \"#utility.yul\":26863:26864   */\n      0x00\n        /* \"#utility.yul\":26854:26860   */\n      dup4\n        /* \"#utility.yul\":26849:26852   */\n      dup4\n        /* \"#utility.yul\":26845:26861   */\n      add\n        /* \"#utility.yul\":26838:26865   */\n      mstore\n        /* \"#utility.yul\":26724:26872   */\n      pop\n      pop\n      pop\n      jump\t// out\n        /* \"#utility.yul\":26902:27219   */\n    tag_336:\n        /* \"#utility.yul\":27000:27003   */\n      0x00\n        /* \"#utility.yul\":27021:27092   */\n      tag_617\n        /* \"#utility.yul\":27085:27091   */\n      dup4\n        /* \"#utility.yul\":27080:27083   */\n      dup6\n        /* \"#utility.yul\":27021:27092   */\n      tag_279\n      jump\t// in\n    tag_617:\n        /* \"#utility.yul\":27014:27092   */\n      swap4\n      pop\n        /* \"#utility.yul\":27102:27158   */\n      tag_618\n        /* \"#utility.yul\":27151:27157   */\n      dup4\n        /* \"#utility.yul\":27146:27149   */\n      dup6\n        /* \"#utility.yul\":27139:27144   */\n      dup5\n        /* \"#utility.yul\":27102:27158   */\n      tag_335\n      jump\t// in\n    tag_618:\n        /* \"#utility.yul\":27183:27212   */\n      tag_619\n        /* \"#utility.yul\":27205:27211   */\n      dup4\n        /* \"#utility.yul\":27183:27212   */\n      tag_281\n      jump\t// in\n    tag_619:\n        /* \"#utility.yul\":27178:27181   */\n      dup5\n        /* \"#utility.yul\":27174:27213   */\n      add\n        /* \"#utility.yul\":27167:27213   */\n      swap1\n      pop\n        /* \"#utility.yul\":26902:27219   */\n      swap4\n      swap3\n      pop\n      pop\n      pop\n      jump\t// out\n        /* \"#utility.yul\":27225:27668   */\n    tag_209:\n        /* \"#utility.yul\":27376:27380   */\n      0x00\n        /* \"#utility.yul\":27414:27416   */\n      0x40\n        /* \"#utility.yul\":27403:27412   */\n      dup3\n        /* \"#utility.yul\":27399:27417   */\n      add\n        /* \"#utility.yul\":27391:27417   */\n      swap1\n      pop\n        /* \"#utility.yul\":27427:27498   */\n      tag_621\n        /* \"#utility.yul\":27495:27496   */\n      0x00\n        /* \"#utility.yul\":27484:27493   */\n      dup4\n        /* \"#utility.yul\":27480:27497   */\n      add\n        /* \"#utility.yul\":27471:27477   */\n      dup7\n        /* \"#utility.yul\":27427:27498   */\n      tag_273\n      jump\t// in\n    tag_621:\n        /* \"#utility.yul\":27545:27554   */\n      dup2\n        /* \"#utility.yul\":27539:27543   */\n      dup2\n        /* \"#utility.yul\":27535:27555   */\n      sub\n        /* \"#utility.yul\":27530:27532   */\n      0x20\n        /* \"#utility.yul\":27519:27528   */\n      dup4\n        /* \"#utility.yul\":27515:27533   */\n      add\n        /* \"#utility.yul\":27508:27556   */\n      mstore\n        /* \"#utility.yul\":27573:27661   */\n      tag_622\n        /* \"#utility.yul\":27656:27660   */\n      dup2\n        /* \"#utility.yul\":27647:27653   */\n      dup5\n        /* \"#utility.yul\":27639:27645   */\n      dup7\n        /* \"#utility.yul\":27573:27661   */\n      tag_336\n      jump\t// in\n    tag_622:\n        /* \"#utility.yul\":27565:27661   */\n      swap1\n      pop\n        /* \"#utility.yul\":27225:27668   */\n      swap5\n      swap4\n      pop\n      pop\n      pop\n      pop\n      jump\t// out\n\n    auxdata: 0xa2646970667358221220976e4f4de8d9d58579a86e7453f37bfc010b869c62bc7f34493649b5473a960264736f6c634300081a0033\n}\n",
				"bytecode": {
					"linkReferences": {},
					"object": "608060405234801561000f575f80fd5b5060405161285838038061285883398181016040528101906100319190610350565b335f73ffffffffffffffffffffffffffffffffffffffff168173ffffffffffffffffffffffffffffffffffffffff16036100a2575f6040517f1e4fbdf7000000000000000000000000000000000000000000000000000000008152600401610099919061039d565b60405180910390fd5b6100b18161016060201b60201c565b505f8060146101000a81548160ff0219169083151502179055508160035f6101000a81548173ffffffffffffffffffffffffffffffffffffffff021916908373ffffffffffffffffffffffffffffffffffffffff1602179055508060045f6101000a81548173ffffffffffffffffffffffffffffffffffffffff021916908373ffffffffffffffffffffffffffffffffffffffff16021790555061015961022160201b60201c565b50506103b6565b5f805f9054906101000a900473ffffffffffffffffffffffffffffffffffffffff169050815f806101000a81548173ffffffffffffffffffffffffffffffffffffffff021916908373ffffffffffffffffffffffffffffffffffffffff1602179055508173ffffffffffffffffffffffffffffffffffffffff168173ffffffffffffffffffffffffffffffffffffffff167f8be0079c531659141344cd1fd0a4f28419497f9722a3daafe3b4186f6b6457e060405160405180910390a35050565b61022f61028f60201b60201c565b60015f60146101000a81548160ff0219169083151502179055507f62e78cea01bee320cd4e420270b5ea74000d11b0c9f74754ebdbfc544b05a2586102786102d660201b60201c565b604051610285919061039d565b60405180910390a1565b61029d6102dd60201b60201c565b156102d4576040517fd93c066500000000000000000000000000000000000000000000000000000000815260040160405180910390fd5b565b5f33905090565b5f8060149054906101000a900460ff16905090565b5f80fd5b5f73ffffffffffffffffffffffffffffffffffffffff82169050919050565b5f61031f826102f6565b9050919050565b61032f81610315565b8114610339575f80fd5b50565b5f8151905061034a81610326565b92915050565b5f8060408385031215610366576103656102f2565b5b5f6103738582860161033c565b92505060206103848582860161033c565b9150509250929050565b61039781610315565b82525050565b5f6020820190506103b05f83018461038e565b92915050565b612495806103c35f395ff3fe6080604052600436106100f2575f3560e01c80638da5cb5b11610089578063d4e678b811610058578063d4e678b8146102c8578063e58d5bdd146102e4578063f2fde38b1461030c578063f5e83e1714610334576100f2565b80638da5cb5b146102075780638fca9673146102315780639ace38c21461025b578063b77bf6001461029e576100f2565b80635c975abb116100c55780635c975abb14610187578063715018a6146101b15780637bc1ed63146101c75780638456cb59146101f1576100f2565b80631e7f8f0f146100f657806333ea3dc81461011257806334b25ee2146101555780633f4ba83a14610171575b5f80fd5b610110600480360381019061010b9190611710565b61035c565b005b34801561011d575f80fd5b506101386004803603810190610133919061174e565b6106a5565b60405161014c98979695949392919061187a565b60405180910390f35b61016f600480360381019061016a9190611932565b6107d8565b005b34801561017c575f80fd5b50610185610ad5565b005b348015610192575f80fd5b5061019b610ae7565b6040516101a8919061197f565b60405180910390f35b3480156101bc575f80fd5b506101c5610afc565b005b3480156101d2575f80fd5b506101db610b0f565b6040516101e891906119f3565b60405180910390f35b3480156101fc575f80fd5b50610205610b34565b005b348015610212575f80fd5b5061021b610b46565b6040516102289190611a0c565b60405180910390f35b34801561023c575f80fd5b50610245610b6d565b6040516102529190611a45565b60405180910390f35b348015610266575f80fd5b50610281600480360381019061027c919061174e565b610b92565b60405161029598979695949392919061187a565b60405180910390f35b3480156102a9575f80fd5b506102b2610ca6565b6040516102bf9190611a5e565b60405180910390f35b6102e260048036038101906102dd919061174e565b610cac565b005b3480156102ef575f80fd5b5061030a60048036038101906103059190611ad8565b610ec4565b005b348015610317575f80fd5b50610332600480360381019061032d9190611b35565b61108c565b005b34801561033f575f80fd5b5061035a6004803603810190610355919061174e565b611110565b005b6103646113df565b5f34116103a6576040517f08c379a000000000000000000000000000000000000000000000000000000000815260040161039d90611baa565b60405180910390fd5b5f60045f9054906101000a900473ffffffffffffffffffffffffffffffffffffffff1673ffffffffffffffffffffffffffffffffffffffff1663ff03e8c2836040518263ffffffff1660e01b81526004016104019190611a5e565b5f60405180830381865afa15801561041b573d5f803e3d5ffd5b505050506040513d5f823e3d601f19601f820116820180604052508101906104439190611d99565b90505f81604001511161048b576040517f08c379a000000000000000000000000000000000000000000000000000000000815260040161048290611e2a565b60405180910390fd5b60015f81548092919061049d90611e75565b91905055506040518061010001604052803373ffffffffffffffffffffffffffffffffffffffff1681526020018473ffffffffffffffffffffffffffffffffffffffff1681526020018381526020013481526020015f600381111561050557610504611797565b5b815260200142815260200142815260200160405180602001604052805f81525081525060025f60015481526020019081526020015f205f820151815f015f6101000a81548173ffffffffffffffffffffffffffffffffffffffff021916908373ffffffffffffffffffffffffffffffffffffffff1602179055506020820151816001015f6101000a81548173ffffffffffffffffffffffffffffffffffffffff021916908373ffffffffffffffffffffffffffffffffffffffff16021790555060408201518160020155606082015181600301556080820151816004015f6101000a81548160ff0219169083600381111561060357610602611797565b5b021790555060a0820151816005015560c0820151816006015560e082015181600701908161063191906120ad565b509050508273ffffffffffffffffffffffffffffffffffffffff163373ffffffffffffffffffffffffffffffffffffffff167f0d83ad1eaafb458f529ac87cb6f4531ec0ab2827c3fe8e6cf341d6e6a12b6b0060015485346040516106989392919061217c565b60405180910390a3505050565b5f805f805f805f60605f60025f8b81526020019081526020015f209050805f015f9054906101000a900473ffffffffffffffffffffffffffffffffffffffff16816001015f9054906101000a900473ffffffffffffffffffffffffffffffffffffffff1682600201548360030154846004015f9054906101000a900460ff16856005015486600601548760070180805461073e90611ee9565b80601f016020809104026020016040519081016040528092919081815260200182805461076a90611ee9565b80156107b55780601f1061078c576101008083540402835291602001916107b5565b820191905f5260205f20905b81548152906001019060200180831161079857829003601f168201915b505050505090509850985098509850985098509850985050919395975091939597565b6107e0611420565b5f60025f8481526020019081526020015f2090506002600381111561080857610807611797565b5b816004015f9054906101000a900460ff16600381111561082b5761082a611797565b5b1461086b576040517f08c379a0000000000000000000000000000000000000000000000000000000008152600401610862906121fb565b60405180910390fd5b81156109f9576001816004015f6101000a81548160ff0219169083600381111561089857610897611797565b5b0217905550806001015f9054906101000a900473ffffffffffffffffffffffffffffffffffffffff1673ffffffffffffffffffffffffffffffffffffffff166108fc826003015490811502906040515f60405180830381858888f19350505050158015610907573d5f803e3d5ffd5b5060045f9054906101000a900473ffffffffffffffffffffffffffffffffffffffff1673ffffffffffffffffffffffffffffffffffffffff1663dd8aa6f68260020154835f015f9054906101000a900473ffffffffffffffffffffffffffffffffffffffff1684600301546040518463ffffffff1660e01b815260040161099093929190612219565b5f604051808303815f87803b1580156109a7575f80fd5b505af11580156109b9573d5f803e3d5ffd5b505050507f161186077e0cdfa49fae16d54ce01ea091439dbf14243419593fa6c051c906c8836040516109ec9190611a5e565b60405180910390a1610ac7565b6003816004015f6101000a81548160ff02191690836003811115610a2057610a1f611797565b5b0217905550805f015f9054906101000a900473ffffffffffffffffffffffffffffffffffffffff1673ffffffffffffffffffffffffffffffffffffffff166108fc826003015490811502906040515f60405180830381858888f19350505050158015610a8e573d5f803e3d5ffd5b507f4c5f7b4b152ec03bf5cc9c2af634e2efd9b7a01044e6ce4acef7e3c955697a4d83604051610abe9190611a5e565b60405180910390a15b428160060181905550505050565b610add611420565b610ae56114a7565b565b5f8060149054906101000a900460ff16905090565b610b04611420565b610b0d5f611508565b565b60045f9054906101000a900473ffffffffffffffffffffffffffffffffffffffff1681565b610b3c611420565b610b446115c9565b565b5f805f9054906101000a900473ffffffffffffffffffffffffffffffffffffffff16905090565b60035f9054906101000a900473ffffffffffffffffffffffffffffffffffffffff1681565b6002602052805f5260405f205f91509050805f015f9054906101000a900473ffffffffffffffffffffffffffffffffffffffff1690806001015f9054906101000a900473ffffffffffffffffffffffffffffffffffffffff1690806002015490806003015490806004015f9054906101000a900460ff1690806005015490806006015490806007018054610c2590611ee9565b80601f0160208091040260200160405190810160405280929190818152602001828054610c5190611ee9565b8015610c9c5780601f10610c7357610100808354040283529160200191610c9c565b820191905f5260205f20905b815481529060010190602001808311610c7f57829003601f168201915b5050505050905088565b60015481565b8060025f8281526020019081526020015f205f015f9054906101000a900473ffffffffffffffffffffffffffffffffffffffff1673ffffffffffffffffffffffffffffffffffffffff163373ffffffffffffffffffffffffffffffffffffffff1614610d4d576040517f08c379a0000000000000000000000000000000000000000000000000000000008152600401610d4490612298565b60405180910390fd5b815f6003811115610d6157610d60611797565b5b60025f8381526020019081526020015f206004015f9054906101000a900460ff166003811115610d9457610d93611797565b5b14610dd4576040517f08c379a0000000000000000000000000000000000000000000000000000000008152600401610dcb90612300565b60405180910390fd5b5f60025f8581526020019081526020015f2090506002816004015f6101000a81548160ff02191690836003811115610e0f57610e0e611797565b5b0217905550805f015f9054906101000a900473ffffffffffffffffffffffffffffffffffffffff1673ffffffffffffffffffffffffffffffffffffffff166108fc826003015490811502906040515f60405180830381858888f19350505050158015610e7d573d5f803e3d5ffd5b504281600601819055507f4c5f7b4b152ec03bf5cc9c2af634e2efd9b7a01044e6ce4acef7e3c955697a4d84604051610eb69190611a5e565b60405180910390a150505050565b8260025f8281526020019081526020015f205f015f9054906101000a900473ffffffffffffffffffffffffffffffffffffffff1673ffffffffffffffffffffffffffffffffffffffff163373ffffffffffffffffffffffffffffffffffffffff1614610f65576040517f08c379a0000000000000000000000000000000000000000000000000000000008152600401610f5c90612298565b60405180910390fd5b835f6003811115610f7957610f78611797565b5b60025f8381526020019081526020015f206004015f9054906101000a900460ff166003811115610fac57610fab611797565b5b14610fec576040517f08c379a0000000000000000000000000000000000000000000000000000000008152600401610fe390612300565b60405180910390fd5b5f60025f8781526020019081526020015f2090506002816004015f6101000a81548160ff0219169083600381111561102757611026611797565b5b0217905550848482600701918261103f929190612328565b504281600601819055507f1f1097374b196396d043cb547ad15553dde63e0f746eba010ef8065be3ec8f0586868660405161107c9392919061242f565b60405180910390a1505050505050565b611094611420565b5f73ffffffffffffffffffffffffffffffffffffffff168173ffffffffffffffffffffffffffffffffffffffff1603611104575f6040517f1e4fbdf70000000000000000000000000000000000000000000000000000000081526004016110fb9190611a0c565b60405180910390fd5b61110d81611508565b50565b8060025f8281526020019081526020015f206001015f9054906101000a900473ffffffffffffffffffffffffffffffffffffffff1673ffffffffffffffffffffffffffffffffffffffff163373ffffffffffffffffffffffffffffffffffffffff16146111b2576040517f08c379a00000000000000000000000000000000000000000000000000000000081526004016111a990612298565b60405180910390fd5b815f60038111156111c6576111c5611797565b5b60025f8381526020019081526020015f206004015f9054906101000a900460ff1660038111156111f9576111f8611797565b5b14611239576040517f08c379a000000000000000000000000000000000000000000000000000000000815260040161123090612300565b60405180910390fd5b5f60025f8581526020019081526020015f2090506001816004015f6101000a81548160ff0219169083600381111561127457611273611797565b5b0217905550806001015f9054906101000a900473ffffffffffffffffffffffffffffffffffffffff1673ffffffffffffffffffffffffffffffffffffffff166108fc826003015490811502906040515f60405180830381858888f193505050501580156112e3573d5f803e3d5ffd5b5060045f9054906101000a900473ffffffffffffffffffffffffffffffffffffffff1673ffffffffffffffffffffffffffffffffffffffff1663dd8aa6f68260020154835f015f9054906101000a900473ffffffffffffffffffffffffffffffffffffffff1684600301546040518463ffffffff1660e01b815260040161136c93929190612219565b5f604051808303815f87803b158015611383575f80fd5b505af1158015611395573d5f803e3d5ffd5b505050504281600601819055507f161186077e0cdfa49fae16d54ce01ea091439dbf14243419593fa6c051c906c8846040516113d19190611a5e565b60405180910390a150505050565b6113e7610ae7565b1561141e576040517fd93c066500000000000000000000000000000000000000000000000000000000815260040160405180910390fd5b565b61142861162b565b73ffffffffffffffffffffffffffffffffffffffff16611446610b46565b73ffffffffffffffffffffffffffffffffffffffff16146114a55761146961162b565b6040517f118cdaa700000000000000000000000000000000000000000000000000000000815260040161149c9190611a0c565b60405180910390fd5b565b6114af611632565b5f8060146101000a81548160ff0219169083151502179055507f5db9ee0a495bf2e6ff9c91a7834c1ba4fdd244a5e8aa4e537bd38aeae4b073aa6114f161162b565b6040516114fe9190611a0c565b60405180910390a1565b5f805f9054906101000a900473ffffffffffffffffffffffffffffffffffffffff169050815f806101000a81548173ffffffffffffffffffffffffffffffffffffffff021916908373ffffffffffffffffffffffffffffffffffffffff1602179055508173ffffffffffffffffffffffffffffffffffffffff168173ffffffffffffffffffffffffffffffffffffffff167f8be0079c531659141344cd1fd0a4f28419497f9722a3daafe3b4186f6b6457e060405160405180910390a35050565b6115d16113df565b60015f60146101000a81548160ff0219169083151502179055507f62e78cea01bee320cd4e420270b5ea74000d11b0c9f74754ebdbfc544b05a25861161461162b565b6040516116219190611a0c565b60405180910390a1565b5f33905090565b61163a610ae7565b611670576040517f8dfc202b00000000000000000000000000000000000000000000000000000000815260040160405180910390fd5b565b5f604051905090565b5f80fd5b5f80fd5b5f73ffffffffffffffffffffffffffffffffffffffff82169050919050565b5f6116ac82611683565b9050919050565b6116bc816116a2565b81146116c6575f80fd5b50565b5f813590506116d7816116b3565b92915050565b5f819050919050565b6116ef816116dd565b81146116f9575f80fd5b50565b5f8135905061170a816116e6565b92915050565b5f80604083850312156117265761172561167b565b5b5f611733858286016116c9565b9250506020611744858286016116fc565b9150509250929050565b5f602082840312156117635761176261167b565b5b5f611770848285016116fc565b91505092915050565b611782816116a2565b82525050565b611791816116dd565b82525050565b7f4e487b71000000000000000000000000000000000000000000000000000000005f52602160045260245ffd5b600481106117d5576117d4611797565b5b50565b5f8190506117e5826117c4565b919050565b5f6117f4826117d8565b9050919050565b611804816117ea565b82525050565b5f81519050919050565b5f82825260208201905092915050565b8281835e5f83830152505050565b5f601f19601f8301169050919050565b5f61184c8261180a565b6118568185611814565b9350611866818560208601611824565b61186f81611832565b840191505092915050565b5f6101008201905061188e5f83018b611779565b61189b602083018a611779565b6118a86040830189611788565b6118b56060830188611788565b6118c260808301876117fb565b6118cf60a0830186611788565b6118dc60c0830185611788565b81810360e08301526118ee8184611842565b90509998505050505050505050565b5f8115159050919050565b611911816118fd565b811461191b575f80fd5b50565b5f8135905061192c81611908565b92915050565b5f80604083850312156119485761194761167b565b5b5f611955858286016116fc565b92505060206119668582860161191e565b9150509250929050565b611979816118fd565b82525050565b5f6020820190506119925f830184611970565b92915050565b5f819050919050565b5f6119bb6119b66119b184611683565b611998565b611683565b9050919050565b5f6119cc826119a1565b9050919050565b5f6119dd826119c2565b9050919050565b6119ed816119d3565b82525050565b5f602082019050611a065f8301846119e4565b92915050565b5f602082019050611a1f5f830184611779565b92915050565b5f611a2f826119c2565b9050919050565b611a3f81611a25565b82525050565b5f602082019050611a585f830184611a36565b92915050565b5f602082019050611a715f830184611788565b92915050565b5f80fd5b5f80fd5b5f80fd5b5f8083601f840112611a9857611a97611a77565b5b8235905067ffffffffffffffff811115611ab557611ab4611a7b565b5b602083019150836001820283011115611ad157611ad0611a7f565b5b9250929050565b5f805f60408486031215611aef57611aee61167b565b5b5f611afc868287016116fc565b935050602084013567ffffffffffffffff811115611b1d57611b1c61167f565b5b611b2986828701611a83565b92509250509250925092565b5f60208284031215611b4a57611b4961167b565b5b5f611b57848285016116c9565b91505092915050565b7f416d6f756e74206d7573742062652067726561746572207468616e20300000005f82015250565b5f611b94601d83611814565b9150611b9f82611b60565b602082019050919050565b5f6020820190508181035f830152611bc181611b88565b9050919050565b5f80fd5b7f4e487b71000000000000000000000000000000000000000000000000000000005f52604160045260245ffd5b611c0282611832565b810181811067ffffffffffffffff82111715611c2157611c20611bcc565b5b80604052505050565b5f611c33611672565b9050611c3f8282611bf9565b919050565b5f80fd5b5f81519050611c56816116e6565b92915050565b5f67ffffffffffffffff821115611c7657611c75611bcc565b5b602082029050602081019050919050565b5f611c99611c9484611c5c565b611c2a565b90508083825260208201905060208402830185811115611cbc57611cbb611a7f565b5b835b81811015611ce55780611cd18882611c48565b845260208401935050602081019050611cbe565b5050509392505050565b5f82601f830112611d0357611d02611a77565b5b8151611d13848260208601611c87565b91505092915050565b5f60608284031215611d3157611d30611bc8565b5b611d3b6060611c2a565b90505f611d4a84828501611c48565b5f83015250602082015167ffffffffffffffff811115611d6d57611d6c611c44565b5b611d7984828501611cef565b6020830152506040611d8d84828501611c48565b60408301525092915050565b5f60208284031215611dae57611dad61167b565b5b5f82015167ffffffffffffffff811115611dcb57611dca61167f565b5b611dd784828501611d1c565b91505092915050565b7f496e76616c6964206261736b65740000000000000000000000000000000000005f82015250565b5f611e14600e83611814565b9150611e1f82611de0565b602082019050919050565b5f6020820190508181035f830152611e4181611e08565b9050919050565b7f4e487b71000000000000000000000000000000000000000000000000000000005f52601160045260245ffd5b5f611e7f826116dd565b91507fffffffffffffffffffffffffffffffffffffffffffffffffffffffffffffffff8203611eb157611eb0611e48565b5b600182019050919050565b7f4e487b71000000000000000000000000000000000000000000000000000000005f52602260045260245ffd5b5f6002820490506001821680611f0057607f821691505b602082108103611f1357611f12611ebc565b5b50919050565b5f819050815f5260205f209050919050565b5f6020601f8301049050919050565b5f82821b905092915050565b5f60088302611f757fffffffffffffffffffffffffffffffffffffffffffffffffffffffffffffffff82611f3a565b611f7f8683611f3a565b95508019841693508086168417925050509392505050565b5f611fb1611fac611fa7846116dd565b611998565b6116dd565b9050919050565b5f819050919050565b611fca83611f97565b611fde611fd682611fb8565b848454611f46565b825550505050565b5f90565b611ff2611fe6565b611ffd818484611fc1565b505050565b5b81811015612020576120155f82611fea565b600181019050612003565b5050565b601f8211156120655761203681611f19565b61203f84611f2b565b8101602085101561204e578190505b61206261205a85611f2b565b830182612002565b50505b505050565b5f82821c905092915050565b5f6120855f198460080261206a565b1980831691505092915050565b5f61209d8383612076565b9150826002028217905092915050565b6120b68261180a565b67ffffffffffffffff8111156120cf576120ce611bcc565b5b6120d98254611ee9565b6120e4828285612024565b5f60209050601f831160018114612115575f8415612103578287015190505b61210d8582612092565b865550612174565b601f19841661212386611f19565b5f5b8281101561214a57848901518255600182019150602085019450602081019050612125565b868310156121675784890151612163601f891682612076565b8355505b6001600288020188555050505b505050505050565b5f60608201905061218f5f830186611788565b61219c6020830185611788565b6121a96040830184611788565b949350505050565b7f5472616e73616374696f6e206973206e6f7420646973707574656400000000005f82015250565b5f6121e5601b83611814565b91506121f0826121b1565b602082019050919050565b5f6020820190508181035f830152612212816121d9565b9050919050565b5f60608201905061222c5f830186611788565b6122396020830185611779565b6122466040830184611788565b949350505050565b7f4e6f7420617574686f72697a65640000000000000000000000000000000000005f82015250565b5f612282600e83611814565b915061228d8261224e565b602082019050919050565b5f6020820190508181035f8301526122af81612276565b9050919050565b7f5472616e73616374696f6e206973206e6f742070656e64696e670000000000005f82015250565b5f6122ea601a83611814565b91506122f5826122b6565b602082019050919050565b5f6020820190508181035f830152612317816122de565b9050919050565b5f82905092915050565b612332838361231e565b67ffffffffffffffff81111561234b5761234a611bcc565b5b6123558254611ee9565b612360828285612024565b5f601f83116001811461238d575f841561237b578287013590505b6123858582612092565b8655506123ec565b601f19841661239b86611f19565b5f5b828110156123c25784890135825560018201915060208501945060208101905061239d565b868310156123df57848901356123db601f891682612076565b8355505b6001600288020188555050505b50505050505050565b828183375f83830152505050565b5f61240e8385611814565b935061241b8385846123f5565b61242483611832565b840190509392505050565b5f6040820190506124425f830186611788565b8181036020830152612455818486612403565b905094935050505056fea2646970667358221220976e4f4de8d9d58579a86e7453f37bfc010b869c62bc7f34493649b5473a960264736f6c634300081a0033",
					"opcodes": "PUSH1 0x80 PUSH1 0x40 MSTORE CALLVALUE DUP1 ISZERO PUSH2 0xF JUMPI PUSH0 DUP1 REVERT JUMPDEST POP PUSH1 0x40 MLOAD PUSH2 0x2858 CODESIZE SUB DUP1 PUSH2 0x2858 DUP4 CODECOPY DUP2 DUP2 ADD PUSH1 0x40 MSTORE DUP2 ADD SWAP1 PUSH2 0x31 SWAP2 SWAP1 PUSH2 0x350 JUMP JUMPDEST CALLER PUSH0 PUSH20 0xFFFFFFFFFFFFFFFFFFFFFFFFFFFFFFFFFFFFFFFF AND DUP2 PUSH20 0xFFFFFFFFFFFFFFFFFFFFFFFFFFFFFFFFFFFFFFFF AND SUB PUSH2 0xA2 JUMPI PUSH0 PUSH1 0x40 MLOAD PUSH32 0x1E4FBDF700000000000000000000000000000000000000000000000000000000 DUP2 MSTORE PUSH1 0x4 ADD PUSH2 0x99 SWAP2 SWAP1 PUSH2 0x39D JUMP JUMPDEST PUSH1 0x40 MLOAD DUP1 SWAP2 SUB SWAP1 REVERT JUMPDEST PUSH2 0xB1 DUP2 PUSH2 0x160 PUSH1 0x20 SHL PUSH1 0x20 SHR JUMP JUMPDEST POP PUSH0 DUP1 PUSH1 0x14 PUSH2 0x100 EXP DUP2 SLOAD DUP2 PUSH1 0xFF MUL NOT AND SWAP1 DUP4 ISZERO ISZERO MUL OR SWAP1 SSTORE POP DUP2 PUSH1 0x3 PUSH0 PUSH2 0x100 EXP DUP2 SLOAD DUP2 PUSH20 0xFFFFFFFFFFFFFFFFFFFFFFFFFFFFFFFFFFFFFFFF MUL NOT AND SWAP1 DUP4 PUSH20 0xFFFFFFFFFFFFFFFFFFFFFFFFFFFFFFFFFFFFFFFF AND MUL OR SWAP1 SSTORE POP DUP1 PUSH1 0x4 PUSH0 PUSH2 0x100 EXP DUP2 SLOAD DUP2 PUSH20 0xFFFFFFFFFFFFFFFFFFFFFFFFFFFFFFFFFFFFFFFF MUL NOT AND SWAP1 DUP4 PUSH20 0xFFFFFFFFFFFFFFFFFFFFFFFFFFFFFFFFFFFFFFFF AND MUL OR SWAP1 SSTORE POP PUSH2 0x159 PUSH2 0x221 PUSH1 0x20 SHL PUSH1 0x20 SHR JUMP JUMPDEST POP POP PUSH2 0x3B6 JUMP JUMPDEST PUSH0 DUP1 PUSH0 SWAP1 SLOAD SWAP1 PUSH2 0x100 EXP SWAP1 DIV PUSH20 0xFFFFFFFFFFFFFFFFFFFFFFFFFFFFFFFFFFFFFFFF AND SWAP1 POP DUP2 PUSH0 DUP1 PUSH2 0x100 EXP DUP2 SLOAD DUP2 PUSH20 0xFFFFFFFFFFFFFFFFFFFFFFFFFFFFFFFFFFFFFFFF MUL NOT AND SWAP1 DUP4 PUSH20 0xFFFFFFFFFFFFFFFFFFFFFFFFFFFFFFFFFFFFFFFF AND MUL OR SWAP1 SSTORE POP DUP2 PUSH20 0xFFFFFFFFFFFFFFFFFFFFFFFFFFFFFFFFFFFFFFFF AND DUP2 PUSH20 0xFFFFFFFFFFFFFFFFFFFFFFFFFFFFFFFFFFFFFFFF AND PUSH32 0x8BE0079C531659141344CD1FD0A4F28419497F9722A3DAAFE3B4186F6B6457E0 PUSH1 0x40 MLOAD PUSH1 0x40 MLOAD DUP1 SWAP2 SUB SWAP1 LOG3 POP POP JUMP JUMPDEST PUSH2 0x22F PUSH2 0x28F PUSH1 0x20 SHL PUSH1 0x20 SHR JUMP JUMPDEST PUSH1 0x1 PUSH0 PUSH1 0x14 PUSH2 0x100 EXP DUP2 SLOAD DUP2 PUSH1 0xFF MUL NOT AND SWAP1 DUP4 ISZERO ISZERO MUL OR SWAP1 SSTORE POP PUSH32 0x62E78CEA01BEE320CD4E420270B5EA74000D11B0C9F74754EBDBFC544B05A258 PUSH2 0x278 PUSH2 0x2D6 PUSH1 0x20 SHL PUSH1 0x20 SHR JUMP JUMPDEST PUSH1 0x40 MLOAD PUSH2 0x285 SWAP2 SWAP1 PUSH2 0x39D JUMP JUMPDEST PUSH1 0x40 MLOAD DUP1 SWAP2 SUB SWAP1 LOG1 JUMP JUMPDEST PUSH2 0x29D PUSH2 0x2DD PUSH1 0x20 SHL PUSH1 0x20 SHR JUMP JUMPDEST ISZERO PUSH2 0x2D4 JUMPI PUSH1 0x40 MLOAD PUSH32 0xD93C066500000000000000000000000000000000000000000000000000000000 DUP2 MSTORE PUSH1 0x4 ADD PUSH1 0x40 MLOAD DUP1 SWAP2 SUB SWAP1 REVERT JUMPDEST JUMP JUMPDEST PUSH0 CALLER SWAP1 POP SWAP1 JUMP JUMPDEST PUSH0 DUP1 PUSH1 0x14 SWAP1 SLOAD SWAP1 PUSH2 0x100 EXP SWAP1 DIV PUSH1 0xFF AND SWAP1 POP SWAP1 JUMP JUMPDEST PUSH0 DUP1 REVERT JUMPDEST PUSH0 PUSH20 0xFFFFFFFFFFFFFFFFFFFFFFFFFFFFFFFFFFFFFFFF DUP3 AND SWAP1 POP SWAP2 SWAP1 POP JUMP JUMPDEST PUSH0 PUSH2 0x31F DUP3 PUSH2 0x2F6 JUMP JUMPDEST SWAP1 POP SWAP2 SWAP1 POP JUMP JUMPDEST PUSH2 0x32F DUP2 PUSH2 0x315 JUMP JUMPDEST DUP2 EQ PUSH2 0x339 JUMPI PUSH0 DUP1 REVERT JUMPDEST POP JUMP JUMPDEST PUSH0 DUP2 MLOAD SWAP1 POP PUSH2 0x34A DUP2 PUSH2 0x326 JUMP JUMPDEST SWAP3 SWAP2 POP POP JUMP JUMPDEST PUSH0 DUP1 PUSH1 0x40 DUP4 DUP6 SUB SLT ISZERO PUSH2 0x366 JUMPI PUSH2 0x365 PUSH2 0x2F2 JUMP JUMPDEST JUMPDEST PUSH0 PUSH2 0x373 DUP6 DUP3 DUP7 ADD PUSH2 0x33C JUMP JUMPDEST SWAP3 POP POP PUSH1 0x20 PUSH2 0x384 DUP6 DUP3 DUP7 ADD PUSH2 0x33C JUMP JUMPDEST SWAP2 POP POP SWAP3 POP SWAP3 SWAP1 POP JUMP JUMPDEST PUSH2 0x397 DUP2 PUSH2 0x315 JUMP JUMPDEST DUP3 MSTORE POP POP JUMP JUMPDEST PUSH0 PUSH1 0x20 DUP3 ADD SWAP1 POP PUSH2 0x3B0 PUSH0 DUP4 ADD DUP5 PUSH2 0x38E JUMP JUMPDEST SWAP3 SWAP2 POP POP JUMP JUMPDEST PUSH2 0x2495 DUP1 PUSH2 0x3C3 PUSH0 CODECOPY PUSH0 RETURN INVALID PUSH1 0x80 PUSH1 0x40 MSTORE PUSH1 0x4 CALLDATASIZE LT PUSH2 0xF2 JUMPI PUSH0 CALLDATALOAD PUSH1 0xE0 SHR DUP1 PUSH4 0x8DA5CB5B GT PUSH2 0x89 JUMPI DUP1 PUSH4 0xD4E678B8 GT PUSH2 0x58 JUMPI DUP1 PUSH4 0xD4E678B8 EQ PUSH2 0x2C8 JUMPI DUP1 PUSH4 0xE58D5BDD EQ PUSH2 0x2E4 JUMPI DUP1 PUSH4 0xF2FDE38B EQ PUSH2 0x30C JUMPI DUP1 PUSH4 0xF5E83E17 EQ PUSH2 0x334 JUMPI PUSH2 0xF2 JUMP JUMPDEST DUP1 PUSH4 0x8DA5CB5B EQ PUSH2 0x207 JUMPI DUP1 PUSH4 0x8FCA9673 EQ PUSH2 0x231 JUMPI DUP1 PUSH4 0x9ACE38C2 EQ PUSH2 0x25B JUMPI DUP1 PUSH4 0xB77BF600 EQ PUSH2 0x29E JUMPI PUSH2 0xF2 JUMP JUMPDEST DUP1 PUSH4 0x5C975ABB GT PUSH2 0xC5 JUMPI DUP1 PUSH4 0x5C975ABB EQ PUSH2 0x187 JUMPI DUP1 PUSH4 0x715018A6 EQ PUSH2 0x1B1 JUMPI DUP1 PUSH4 0x7BC1ED63 EQ PUSH2 0x1C7 JUMPI DUP1 PUSH4 0x8456CB59 EQ PUSH2 0x1F1 JUMPI PUSH2 0xF2 JUMP JUMPDEST DUP1 PUSH4 0x1E7F8F0F EQ PUSH2 0xF6 JUMPI DUP1 PUSH4 0x33EA3DC8 EQ PUSH2 0x112 JUMPI DUP1 PUSH4 0x34B25EE2 EQ PUSH2 0x155 JUMPI DUP1 PUSH4 0x3F4BA83A EQ PUSH2 0x171 JUMPI JUMPDEST PUSH0 DUP1 REVERT JUMPDEST PUSH2 0x110 PUSH1 0x4 DUP1 CALLDATASIZE SUB DUP2 ADD SWAP1 PUSH2 0x10B SWAP2 SWAP1 PUSH2 0x1710 JUMP JUMPDEST PUSH2 0x35C JUMP JUMPDEST STOP JUMPDEST CALLVALUE DUP1 ISZERO PUSH2 0x11D JUMPI PUSH0 DUP1 REVERT JUMPDEST POP PUSH2 0x138 PUSH1 0x4 DUP1 CALLDATASIZE SUB DUP2 ADD SWAP1 PUSH2 0x133 SWAP2 SWAP1 PUSH2 0x174E JUMP JUMPDEST PUSH2 0x6A5 JUMP JUMPDEST PUSH1 0x40 MLOAD PUSH2 0x14C SWAP9 SWAP8 SWAP7 SWAP6 SWAP5 SWAP4 SWAP3 SWAP2 SWAP1 PUSH2 0x187A JUMP JUMPDEST PUSH1 0x40 MLOAD DUP1 SWAP2 SUB SWAP1 RETURN JUMPDEST PUSH2 0x16F PUSH1 0x4 DUP1 CALLDATASIZE SUB DUP2 ADD SWAP1 PUSH2 0x16A SWAP2 SWAP1 PUSH2 0x1932 JUMP JUMPDEST PUSH2 0x7D8 JUMP JUMPDEST STOP JUMPDEST CALLVALUE DUP1 ISZERO PUSH2 0x17C JUMPI PUSH0 DUP1 REVERT JUMPDEST POP PUSH2 0x185 PUSH2 0xAD5 JUMP JUMPDEST STOP JUMPDEST CALLVALUE DUP1 ISZERO PUSH2 0x192 JUMPI PUSH0 DUP1 REVERT JUMPDEST POP PUSH2 0x19B PUSH2 0xAE7 JUMP JUMPDEST PUSH1 0x40 MLOAD PUSH2 0x1A8 SWAP2 SWAP1 PUSH2 0x197F JUMP JUMPDEST PUSH1 0x40 MLOAD DUP1 SWAP2 SUB SWAP1 RETURN JUMPDEST CALLVALUE DUP1 ISZERO PUSH2 0x1BC JUMPI PUSH0 DUP1 REVERT JUMPDEST POP PUSH2 0x1C5 PUSH2 0xAFC JUMP JUMPDEST STOP JUMPDEST CALLVALUE DUP1 ISZERO PUSH2 0x1D2 JUMPI PUSH0 DUP1 REVERT JUMPDEST POP PUSH2 0x1DB PUSH2 0xB0F JUMP JUMPDEST PUSH1 0x40 MLOAD PUSH2 0x1E8 SWAP2 SWAP1 PUSH2 0x19F3 JUMP JUMPDEST PUSH1 0x40 MLOAD DUP1 SWAP2 SUB SWAP1 RETURN JUMPDEST CALLVALUE DUP1 ISZERO PUSH2 0x1FC JUMPI PUSH0 DUP1 REVERT JUMPDEST POP PUSH2 0x205 PUSH2 0xB34 JUMP JUMPDEST STOP JUMPDEST CALLVALUE DUP1 ISZERO PUSH2 0x212 JUMPI PUSH0 DUP1 REVERT JUMPDEST POP PUSH2 0x21B PUSH2 0xB46 JUMP JUMPDEST PUSH1 0x40 MLOAD PUSH2 0x228 SWAP2 SWAP1 PUSH2 0x1A0C JUMP JUMPDEST PUSH1 0x40 MLOAD DUP1 SWAP2 SUB SWAP1 RETURN JUMPDEST CALLVALUE DUP1 ISZERO PUSH2 0x23C JUMPI PUSH0 DUP1 REVERT JUMPDEST POP PUSH2 0x245 PUSH2 0xB6D JUMP JUMPDEST PUSH1 0x40 MLOAD PUSH2 0x252 SWAP2 SWAP1 PUSH2 0x1A45 JUMP JUMPDEST PUSH1 0x40 MLOAD DUP1 SWAP2 SUB SWAP1 RETURN JUMPDEST CALLVALUE DUP1 ISZERO PUSH2 0x266 JUMPI PUSH0 DUP1 REVERT JUMPDEST POP PUSH2 0x281 PUSH1 0x4 DUP1 CALLDATASIZE SUB DUP2 ADD SWAP1 PUSH2 0x27C SWAP2 SWAP1 PUSH2 0x174E JUMP JUMPDEST PUSH2 0xB92 JUMP JUMPDEST PUSH1 0x40 MLOAD PUSH2 0x295 SWAP9 SWAP8 SWAP7 SWAP6 SWAP5 SWAP4 SWAP3 SWAP2 SWAP1 PUSH2 0x187A JUMP JUMPDEST PUSH1 0x40 MLOAD DUP1 SWAP2 SUB SWAP1 RETURN JUMPDEST CALLVALUE DUP1 ISZERO PUSH2 0x2A9 JUMPI PUSH0 DUP1 REVERT JUMPDEST POP PUSH2 0x2B2 PUSH2 0xCA6 JUMP JUMPDEST PUSH1 0x40 MLOAD PUSH2 0x2BF SWAP2 SWAP1 PUSH2 0x1A5E JUMP JUMPDEST PUSH1 0x40 MLOAD DUP1 SWAP2 SUB SWAP1 RETURN JUMPDEST PUSH2 0x2E2 PUSH1 0x4 DUP1 CALLDATASIZE SUB DUP2 ADD SWAP1 PUSH2 0x2DD SWAP2 SWAP1 PUSH2 0x174E JUMP JUMPDEST PUSH2 0xCAC JUMP JUMPDEST STOP JUMPDEST CALLVALUE DUP1 ISZERO PUSH2 0x2EF JUMPI PUSH0 DUP1 REVERT JUMPDEST POP PUSH2 0x30A PUSH1 0x4 DUP1 CALLDATASIZE SUB DUP2 ADD SWAP1 PUSH2 0x305 SWAP2 SWAP1 PUSH2 0x1AD8 JUMP JUMPDEST PUSH2 0xEC4 JUMP JUMPDEST STOP JUMPDEST CALLVALUE DUP1 ISZERO PUSH2 0x317 JUMPI PUSH0 DUP1 REVERT JUMPDEST POP PUSH2 0x332 PUSH1 0x4 DUP1 CALLDATASIZE SUB DUP2 ADD SWAP1 PUSH2 0x32D SWAP2 SWAP1 PUSH2 0x1B35 JUMP JUMPDEST PUSH2 0x108C JUMP JUMPDEST STOP JUMPDEST CALLVALUE DUP1 ISZERO PUSH2 0x33F JUMPI PUSH0 DUP1 REVERT JUMPDEST POP PUSH2 0x35A PUSH1 0x4 DUP1 CALLDATASIZE SUB DUP2 ADD SWAP1 PUSH2 0x355 SWAP2 SWAP1 PUSH2 0x174E JUMP JUMPDEST PUSH2 0x1110 JUMP JUMPDEST STOP JUMPDEST PUSH2 0x364 PUSH2 0x13DF JUMP JUMPDEST PUSH0 CALLVALUE GT PUSH2 0x3A6 JUMPI PUSH1 0x40 MLOAD PUSH32 0x8C379A000000000000000000000000000000000000000000000000000000000 DUP2 MSTORE PUSH1 0x4 ADD PUSH2 0x39D SWAP1 PUSH2 0x1BAA JUMP JUMPDEST PUSH1 0x40 MLOAD DUP1 SWAP2 SUB SWAP1 REVERT JUMPDEST PUSH0 PUSH1 0x4 PUSH0 SWAP1 SLOAD SWAP1 PUSH2 0x100 EXP SWAP1 DIV PUSH20 0xFFFFFFFFFFFFFFFFFFFFFFFFFFFFFFFFFFFFFFFF AND PUSH20 0xFFFFFFFFFFFFFFFFFFFFFFFFFFFFFFFFFFFFFFFF AND PUSH4 0xFF03E8C2 DUP4 PUSH1 0x40 MLOAD DUP3 PUSH4 0xFFFFFFFF AND PUSH1 0xE0 SHL DUP2 MSTORE PUSH1 0x4 ADD PUSH2 0x401 SWAP2 SWAP1 PUSH2 0x1A5E JUMP JUMPDEST PUSH0 PUSH1 0x40 MLOAD DUP1 DUP4 SUB DUP2 DUP7 GAS STATICCALL ISZERO DUP1 ISZERO PUSH2 0x41B JUMPI RETURNDATASIZE PUSH0 DUP1 RETURNDATACOPY RETURNDATASIZE PUSH0 REVERT JUMPDEST POP POP POP POP PUSH1 0x40 MLOAD RETURNDATASIZE PUSH0 DUP3 RETURNDATACOPY RETURNDATASIZE PUSH1 0x1F NOT PUSH1 0x1F DUP3 ADD AND DUP3 ADD DUP1 PUSH1 0x40 MSTORE POP DUP2 ADD SWAP1 PUSH2 0x443 SWAP2 SWAP1 PUSH2 0x1D99 JUMP JUMPDEST SWAP1 POP PUSH0 DUP2 PUSH1 0x40 ADD MLOAD GT PUSH2 0x48B JUMPI PUSH1 0x40 MLOAD PUSH32 0x8C379A000000000000000000000000000000000000000000000000000000000 DUP2 MSTORE PUSH1 0x4 ADD PUSH2 0x482 SWAP1 PUSH2 0x1E2A JUMP JUMPDEST PUSH1 0x40 MLOAD DUP1 SWAP2 SUB SWAP1 REVERT JUMPDEST PUSH1 0x1 PUSH0 DUP2 SLOAD DUP1 SWAP3 SWAP2 SWAP1 PUSH2 0x49D SWAP1 PUSH2 0x1E75 JUMP JUMPDEST SWAP2 SWAP1 POP SSTORE POP PUSH1 0x40 MLOAD DUP1 PUSH2 0x100 ADD PUSH1 0x40 MSTORE DUP1 CALLER PUSH20 0xFFFFFFFFFFFFFFFFFFFFFFFFFFFFFFFFFFFFFFFF AND DUP2 MSTORE PUSH1 0x20 ADD DUP5 PUSH20 0xFFFFFFFFFFFFFFFFFFFFFFFFFFFFFFFFFFFFFFFF AND DUP2 MSTORE PUSH1 0x20 ADD DUP4 DUP2 MSTORE PUSH1 0x20 ADD CALLVALUE DUP2 MSTORE PUSH1 0x20 ADD PUSH0 PUSH1 0x3 DUP2 GT ISZERO PUSH2 0x505 JUMPI PUSH2 0x504 PUSH2 0x1797 JUMP JUMPDEST JUMPDEST DUP2 MSTORE PUSH1 0x20 ADD TIMESTAMP DUP2 MSTORE PUSH1 0x20 ADD TIMESTAMP DUP2 MSTORE PUSH1 0x20 ADD PUSH1 0x40 MLOAD DUP1 PUSH1 0x20 ADD PUSH1 0x40 MSTORE DUP1 PUSH0 DUP2 MSTORE POP DUP2 MSTORE POP PUSH1 0x2 PUSH0 PUSH1 0x1 SLOAD DUP2 MSTORE PUSH1 0x20 ADD SWAP1 DUP2 MSTORE PUSH1 0x20 ADD PUSH0 KECCAK256 PUSH0 DUP3 ADD MLOAD DUP2 PUSH0 ADD PUSH0 PUSH2 0x100 EXP DUP2 SLOAD DUP2 PUSH20 0xFFFFFFFFFFFFFFFFFFFFFFFFFFFFFFFFFFFFFFFF MUL NOT AND SWAP1 DUP4 PUSH20 0xFFFFFFFFFFFFFFFFFFFFFFFFFFFFFFFFFFFFFFFF AND MUL OR SWAP1 SSTORE POP PUSH1 0x20 DUP3 ADD MLOAD DUP2 PUSH1 0x1 ADD PUSH0 PUSH2 0x100 EXP DUP2 SLOAD DUP2 PUSH20 0xFFFFFFFFFFFFFFFFFFFFFFFFFFFFFFFFFFFFFFFF MUL NOT AND SWAP1 DUP4 PUSH20 0xFFFFFFFFFFFFFFFFFFFFFFFFFFFFFFFFFFFFFFFF AND MUL OR SWAP1 SSTORE POP PUSH1 0x40 DUP3 ADD MLOAD DUP2 PUSH1 0x2 ADD SSTORE PUSH1 0x60 DUP3 ADD MLOAD DUP2 PUSH1 0x3 ADD SSTORE PUSH1 0x80 DUP3 ADD MLOAD DUP2 PUSH1 0x4 ADD PUSH0 PUSH2 0x100 EXP DUP2 SLOAD DUP2 PUSH1 0xFF MUL NOT AND SWAP1 DUP4 PUSH1 0x3 DUP2 GT ISZERO PUSH2 0x603 JUMPI PUSH2 0x602 PUSH2 0x1797 JUMP JUMPDEST JUMPDEST MUL OR SWAP1 SSTORE POP PUSH1 0xA0 DUP3 ADD MLOAD DUP2 PUSH1 0x5 ADD SSTORE PUSH1 0xC0 DUP3 ADD MLOAD DUP2 PUSH1 0x6 ADD SSTORE PUSH1 0xE0 DUP3 ADD MLOAD DUP2 PUSH1 0x7 ADD SWAP1 DUP2 PUSH2 0x631 SWAP2 SWAP1 PUSH2 0x20AD JUMP JUMPDEST POP SWAP1 POP POP DUP3 PUSH20 0xFFFFFFFFFFFFFFFFFFFFFFFFFFFFFFFFFFFFFFFF AND CALLER PUSH20 0xFFFFFFFFFFFFFFFFFFFFFFFFFFFFFFFFFFFFFFFF AND PUSH32 0xD83AD1EAAFB458F529AC87CB6F4531EC0AB2827C3FE8E6CF341D6E6A12B6B00 PUSH1 0x1 SLOAD DUP6 CALLVALUE PUSH1 0x40 MLOAD PUSH2 0x698 SWAP4 SWAP3 SWAP2 SWAP1 PUSH2 0x217C JUMP JUMPDEST PUSH1 0x40 MLOAD DUP1 SWAP2 SUB SWAP1 LOG3 POP POP POP JUMP JUMPDEST PUSH0 DUP1 PUSH0 DUP1 PUSH0 DUP1 PUSH0 PUSH1 0x60 PUSH0 PUSH1 0x2 PUSH0 DUP12 DUP2 MSTORE PUSH1 0x20 ADD SWAP1 DUP2 MSTORE PUSH1 0x20 ADD PUSH0 KECCAK256 SWAP1 POP DUP1 PUSH0 ADD PUSH0 SWAP1 SLOAD SWAP1 PUSH2 0x100 EXP SWAP1 DIV PUSH20 0xFFFFFFFFFFFFFFFFFFFFFFFFFFFFFFFFFFFFFFFF AND DUP2 PUSH1 0x1 ADD PUSH0 SWAP1 SLOAD SWAP1 PUSH2 0x100 EXP SWAP1 DIV PUSH20 0xFFFFFFFFFFFFFFFFFFFFFFFFFFFFFFFFFFFFFFFF AND DUP3 PUSH1 0x2 ADD SLOAD DUP4 PUSH1 0x3 ADD SLOAD DUP5 PUSH1 0x4 ADD PUSH0 SWAP1 SLOAD SWAP1 PUSH2 0x100 EXP SWAP1 DIV PUSH1 0xFF AND DUP6 PUSH1 0x5 ADD SLOAD DUP7 PUSH1 0x6 ADD SLOAD DUP8 PUSH1 0x7 ADD DUP1 DUP1 SLOAD PUSH2 0x73E SWAP1 PUSH2 0x1EE9 JUMP JUMPDEST DUP1 PUSH1 0x1F ADD PUSH1 0x20 DUP1 SWAP2 DIV MUL PUSH1 0x20 ADD PUSH1 0x40 MLOAD SWAP1 DUP2 ADD PUSH1 0x40 MSTORE DUP1 SWAP3 SWAP2 SWAP1 DUP2 DUP2 MSTORE PUSH1 0x20 ADD DUP3 DUP1 SLOAD PUSH2 0x76A SWAP1 PUSH2 0x1EE9 JUMP JUMPDEST DUP1 ISZERO PUSH2 0x7B5 JUMPI DUP1 PUSH1 0x1F LT PUSH2 0x78C JUMPI PUSH2 0x100 DUP1 DUP4 SLOAD DIV MUL DUP4 MSTORE SWAP2 PUSH1 0x20 ADD SWAP2 PUSH2 0x7B5 JUMP JUMPDEST DUP3 ADD SWAP2 SWAP1 PUSH0 MSTORE PUSH1 0x20 PUSH0 KECCAK256 SWAP1 JUMPDEST DUP2 SLOAD DUP2 MSTORE SWAP1 PUSH1 0x1 ADD SWAP1 PUSH1 0x20 ADD DUP1 DUP4 GT PUSH2 0x798 JUMPI DUP3 SWAP1 SUB PUSH1 0x1F AND DUP3 ADD SWAP2 JUMPDEST POP POP POP POP POP SWAP1 POP SWAP9 POP SWAP9 POP SWAP9 POP SWAP9 POP SWAP9 POP SWAP9 POP SWAP9 POP SWAP9 POP POP SWAP2 SWAP4 SWAP6 SWAP8 POP SWAP2 SWAP4 SWAP6 SWAP8 JUMP JUMPDEST PUSH2 0x7E0 PUSH2 0x1420 JUMP JUMPDEST PUSH0 PUSH1 0x2 PUSH0 DUP5 DUP2 MSTORE PUSH1 0x20 ADD SWAP1 DUP2 MSTORE PUSH1 0x20 ADD PUSH0 KECCAK256 SWAP1 POP PUSH1 0x2 PUSH1 0x3 DUP2 GT ISZERO PUSH2 0x808 JUMPI PUSH2 0x807 PUSH2 0x1797 JUMP JUMPDEST JUMPDEST DUP2 PUSH1 0x4 ADD PUSH0 SWAP1 SLOAD SWAP1 PUSH2 0x100 EXP SWAP1 DIV PUSH1 0xFF AND PUSH1 0x3 DUP2 GT ISZERO PUSH2 0x82B JUMPI PUSH2 0x82A PUSH2 0x1797 JUMP JUMPDEST JUMPDEST EQ PUSH2 0x86B JUMPI PUSH1 0x40 MLOAD PUSH32 0x8C379A000000000000000000000000000000000000000000000000000000000 DUP2 MSTORE PUSH1 0x4 ADD PUSH2 0x862 SWAP1 PUSH2 0x21FB JUMP JUMPDEST PUSH1 0x40 MLOAD DUP1 SWAP2 SUB SWAP1 REVERT JUMPDEST DUP2 ISZERO PUSH2 0x9F9 JUMPI PUSH1 0x1 DUP2 PUSH1 0x4 ADD PUSH0 PUSH2 0x100 EXP DUP2 SLOAD DUP2 PUSH1 0xFF MUL NOT AND SWAP1 DUP4 PUSH1 0x3 DUP2 GT ISZERO PUSH2 0x898 JUMPI PUSH2 0x897 PUSH2 0x1797 JUMP JUMPDEST JUMPDEST MUL OR SWAP1 SSTORE POP DUP1 PUSH1 0x1 ADD PUSH0 SWAP1 SLOAD SWAP1 PUSH2 0x100 EXP SWAP1 DIV PUSH20 0xFFFFFFFFFFFFFFFFFFFFFFFFFFFFFFFFFFFFFFFF AND PUSH20 0xFFFFFFFFFFFFFFFFFFFFFFFFFFFFFFFFFFFFFFFF AND PUSH2 0x8FC DUP3 PUSH1 0x3 ADD SLOAD SWAP1 DUP2 ISZERO MUL SWAP1 PUSH1 0x40 MLOAD PUSH0 PUSH1 0x40 MLOAD DUP1 DUP4 SUB DUP2 DUP6 DUP9 DUP9 CALL SWAP4 POP POP POP POP ISZERO DUP1 ISZERO PUSH2 0x907 JUMPI RETURNDATASIZE PUSH0 DUP1 RETURNDATACOPY RETURNDATASIZE PUSH0 REVERT JUMPDEST POP PUSH1 0x4 PUSH0 SWAP1 SLOAD SWAP1 PUSH2 0x100 EXP SWAP1 DIV PUSH20 0xFFFFFFFFFFFFFFFFFFFFFFFFFFFFFFFFFFFFFFFF AND PUSH20 0xFFFFFFFFFFFFFFFFFFFFFFFFFFFFFFFFFFFFFFFF AND PUSH4 0xDD8AA6F6 DUP3 PUSH1 0x2 ADD SLOAD DUP4 PUSH0 ADD PUSH0 SWAP1 SLOAD SWAP1 PUSH2 0x100 EXP SWAP1 DIV PUSH20 0xFFFFFFFFFFFFFFFFFFFFFFFFFFFFFFFFFFFFFFFF AND DUP5 PUSH1 0x3 ADD SLOAD PUSH1 0x40 MLOAD DUP5 PUSH4 0xFFFFFFFF AND PUSH1 0xE0 SHL DUP2 MSTORE PUSH1 0x4 ADD PUSH2 0x990 SWAP4 SWAP3 SWAP2 SWAP1 PUSH2 0x2219 JUMP JUMPDEST PUSH0 PUSH1 0x40 MLOAD DUP1 DUP4 SUB DUP2 PUSH0 DUP8 DUP1 EXTCODESIZE ISZERO DUP1 ISZERO PUSH2 0x9A7 JUMPI PUSH0 DUP1 REVERT JUMPDEST POP GAS CALL ISZERO DUP1 ISZERO PUSH2 0x9B9 JUMPI RETURNDATASIZE PUSH0 DUP1 RETURNDATACOPY RETURNDATASIZE PUSH0 REVERT JUMPDEST POP POP POP POP PUSH32 0x161186077E0CDFA49FAE16D54CE01EA091439DBF14243419593FA6C051C906C8 DUP4 PUSH1 0x40 MLOAD PUSH2 0x9EC SWAP2 SWAP1 PUSH2 0x1A5E JUMP JUMPDEST PUSH1 0x40 MLOAD DUP1 SWAP2 SUB SWAP1 LOG1 PUSH2 0xAC7 JUMP JUMPDEST PUSH1 0x3 DUP2 PUSH1 0x4 ADD PUSH0 PUSH2 0x100 EXP DUP2 SLOAD DUP2 PUSH1 0xFF MUL NOT AND SWAP1 DUP4 PUSH1 0x3 DUP2 GT ISZERO PUSH2 0xA20 JUMPI PUSH2 0xA1F PUSH2 0x1797 JUMP JUMPDEST JUMPDEST MUL OR SWAP1 SSTORE POP DUP1 PUSH0 ADD PUSH0 SWAP1 SLOAD SWAP1 PUSH2 0x100 EXP SWAP1 DIV PUSH20 0xFFFFFFFFFFFFFFFFFFFFFFFFFFFFFFFFFFFFFFFF AND PUSH20 0xFFFFFFFFFFFFFFFFFFFFFFFFFFFFFFFFFFFFFFFF AND PUSH2 0x8FC DUP3 PUSH1 0x3 ADD SLOAD SWAP1 DUP2 ISZERO MUL SWAP1 PUSH1 0x40 MLOAD PUSH0 PUSH1 0x40 MLOAD DUP1 DUP4 SUB DUP2 DUP6 DUP9 DUP9 CALL SWAP4 POP POP POP POP ISZERO DUP1 ISZERO PUSH2 0xA8E JUMPI RETURNDATASIZE PUSH0 DUP1 RETURNDATACOPY RETURNDATASIZE PUSH0 REVERT JUMPDEST POP PUSH32 0x4C5F7B4B152EC03BF5CC9C2AF634E2EFD9B7A01044E6CE4ACEF7E3C955697A4D DUP4 PUSH1 0x40 MLOAD PUSH2 0xABE SWAP2 SWAP1 PUSH2 0x1A5E JUMP JUMPDEST PUSH1 0x40 MLOAD DUP1 SWAP2 SUB SWAP1 LOG1 JUMPDEST TIMESTAMP DUP2 PUSH1 0x6 ADD DUP2 SWAP1 SSTORE POP POP POP POP JUMP JUMPDEST PUSH2 0xADD PUSH2 0x1420 JUMP JUMPDEST PUSH2 0xAE5 PUSH2 0x14A7 JUMP JUMPDEST JUMP JUMPDEST PUSH0 DUP1 PUSH1 0x14 SWAP1 SLOAD SWAP1 PUSH2 0x100 EXP SWAP1 DIV PUSH1 0xFF AND SWAP1 POP SWAP1 JUMP JUMPDEST PUSH2 0xB04 PUSH2 0x1420 JUMP JUMPDEST PUSH2 0xB0D PUSH0 PUSH2 0x1508 JUMP JUMPDEST JUMP JUMPDEST PUSH1 0x4 PUSH0 SWAP1 SLOAD SWAP1 PUSH2 0x100 EXP SWAP1 DIV PUSH20 0xFFFFFFFFFFFFFFFFFFFFFFFFFFFFFFFFFFFFFFFF AND DUP2 JUMP JUMPDEST PUSH2 0xB3C PUSH2 0x1420 JUMP JUMPDEST PUSH2 0xB44 PUSH2 0x15C9 JUMP JUMPDEST JUMP JUMPDEST PUSH0 DUP1 PUSH0 SWAP1 SLOAD SWAP1 PUSH2 0x100 EXP SWAP1 DIV PUSH20 0xFFFFFFFFFFFFFFFFFFFFFFFFFFFFFFFFFFFFFFFF AND SWAP1 POP SWAP1 JUMP JUMPDEST PUSH1 0x3 PUSH0 SWAP1 SLOAD SWAP1 PUSH2 0x100 EXP SWAP1 DIV PUSH20 0xFFFFFFFFFFFFFFFFFFFFFFFFFFFFFFFFFFFFFFFF AND DUP2 JUMP JUMPDEST PUSH1 0x2 PUSH1 0x20 MSTORE DUP1 PUSH0 MSTORE PUSH1 0x40 PUSH0 KECCAK256 PUSH0 SWAP2 POP SWAP1 POP DUP1 PUSH0 ADD PUSH0 SWAP1 SLOAD SWAP1 PUSH2 0x100 EXP SWAP1 DIV PUSH20 0xFFFFFFFFFFFFFFFFFFFFFFFFFFFFFFFFFFFFFFFF AND SWAP1 DUP1 PUSH1 0x1 ADD PUSH0 SWAP1 SLOAD SWAP1 PUSH2 0x100 EXP SWAP1 DIV PUSH20 0xFFFFFFFFFFFFFFFFFFFFFFFFFFFFFFFFFFFFFFFF AND SWAP1 DUP1 PUSH1 0x2 ADD SLOAD SWAP1 DUP1 PUSH1 0x3 ADD SLOAD SWAP1 DUP1 PUSH1 0x4 ADD PUSH0 SWAP1 SLOAD SWAP1 PUSH2 0x100 EXP SWAP1 DIV PUSH1 0xFF AND SWAP1 DUP1 PUSH1 0x5 ADD SLOAD SWAP1 DUP1 PUSH1 0x6 ADD SLOAD SWAP1 DUP1 PUSH1 0x7 ADD DUP1 SLOAD PUSH2 0xC25 SWAP1 PUSH2 0x1EE9 JUMP JUMPDEST DUP1 PUSH1 0x1F ADD PUSH1 0x20 DUP1 SWAP2 DIV MUL PUSH1 0x20 ADD PUSH1 0x40 MLOAD SWAP1 DUP2 ADD PUSH1 0x40 MSTORE DUP1 SWAP3 SWAP2 SWAP1 DUP2 DUP2 MSTORE PUSH1 0x20 ADD DUP3 DUP1 SLOAD PUSH2 0xC51 SWAP1 PUSH2 0x1EE9 JUMP JUMPDEST DUP1 ISZERO PUSH2 0xC9C JUMPI DUP1 PUSH1 0x1F LT PUSH2 0xC73 JUMPI PUSH2 0x100 DUP1 DUP4 SLOAD DIV MUL DUP4 MSTORE SWAP2 PUSH1 0x20 ADD SWAP2 PUSH2 0xC9C JUMP JUMPDEST DUP3 ADD SWAP2 SWAP1 PUSH0 MSTORE PUSH1 0x20 PUSH0 KECCAK256 SWAP1 JUMPDEST DUP2 SLOAD DUP2 MSTORE SWAP1 PUSH1 0x1 ADD SWAP1 PUSH1 0x20 ADD DUP1 DUP4 GT PUSH2 0xC7F JUMPI DUP3 SWAP1 SUB PUSH1 0x1F AND DUP3 ADD SWAP2 JUMPDEST POP POP POP POP POP SWAP1 POP DUP9 JUMP JUMPDEST PUSH1 0x1 SLOAD DUP2 JUMP JUMPDEST DUP1 PUSH1 0x2 PUSH0 DUP3 DUP2 MSTORE PUSH1 0x20 ADD SWAP1 DUP2 MSTORE PUSH1 0x20 ADD PUSH0 KECCAK256 PUSH0 ADD PUSH0 SWAP1 SLOAD SWAP1 PUSH2 0x100 EXP SWAP1 DIV PUSH20 0xFFFFFFFFFFFFFFFFFFFFFFFFFFFFFFFFFFFFFFFF AND PUSH20 0xFFFFFFFFFFFFFFFFFFFFFFFFFFFFFFFFFFFFFFFF AND CALLER PUSH20 0xFFFFFFFFFFFFFFFFFFFFFFFFFFFFFFFFFFFFFFFF AND EQ PUSH2 0xD4D JUMPI PUSH1 0x40 MLOAD PUSH32 0x8C379A000000000000000000000000000000000000000000000000000000000 DUP2 MSTORE PUSH1 0x4 ADD PUSH2 0xD44 SWAP1 PUSH2 0x2298 JUMP JUMPDEST PUSH1 0x40 MLOAD DUP1 SWAP2 SUB SWAP1 REVERT JUMPDEST DUP2 PUSH0 PUSH1 0x3 DUP2 GT ISZERO PUSH2 0xD61 JUMPI PUSH2 0xD60 PUSH2 0x1797 JUMP JUMPDEST JUMPDEST PUSH1 0x2 PUSH0 DUP4 DUP2 MSTORE PUSH1 0x20 ADD SWAP1 DUP2 MSTORE PUSH1 0x20 ADD PUSH0 KECCAK256 PUSH1 0x4 ADD PUSH0 SWAP1 SLOAD SWAP1 PUSH2 0x100 EXP SWAP1 DIV PUSH1 0xFF AND PUSH1 0x3 DUP2 GT ISZERO PUSH2 0xD94 JUMPI PUSH2 0xD93 PUSH2 0x1797 JUMP JUMPDEST JUMPDEST EQ PUSH2 0xDD4 JUMPI PUSH1 0x40 MLOAD PUSH32 0x8C379A000000000000000000000000000000000000000000000000000000000 DUP2 MSTORE PUSH1 0x4 ADD PUSH2 0xDCB SWAP1 PUSH2 0x2300 JUMP JUMPDEST PUSH1 0x40 MLOAD DUP1 SWAP2 SUB SWAP1 REVERT JUMPDEST PUSH0 PUSH1 0x2 PUSH0 DUP6 DUP2 MSTORE PUSH1 0x20 ADD SWAP1 DUP2 MSTORE PUSH1 0x20 ADD PUSH0 KECCAK256 SWAP1 POP PUSH1 0x2 DUP2 PUSH1 0x4 ADD PUSH0 PUSH2 0x100 EXP DUP2 SLOAD DUP2 PUSH1 0xFF MUL NOT AND SWAP1 DUP4 PUSH1 0x3 DUP2 GT ISZERO PUSH2 0xE0F JUMPI PUSH2 0xE0E PUSH2 0x1797 JUMP JUMPDEST JUMPDEST MUL OR SWAP1 SSTORE POP DUP1 PUSH0 ADD PUSH0 SWAP1 SLOAD SWAP1 PUSH2 0x100 EXP SWAP1 DIV PUSH20 0xFFFFFFFFFFFFFFFFFFFFFFFFFFFFFFFFFFFFFFFF AND PUSH20 0xFFFFFFFFFFFFFFFFFFFFFFFFFFFFFFFFFFFFFFFF AND PUSH2 0x8FC DUP3 PUSH1 0x3 ADD SLOAD SWAP1 DUP2 ISZERO MUL SWAP1 PUSH1 0x40 MLOAD PUSH0 PUSH1 0x40 MLOAD DUP1 DUP4 SUB DUP2 DUP6 DUP9 DUP9 CALL SWAP4 POP POP POP POP ISZERO DUP1 ISZERO PUSH2 0xE7D JUMPI RETURNDATASIZE PUSH0 DUP1 RETURNDATACOPY RETURNDATASIZE PUSH0 REVERT JUMPDEST POP TIMESTAMP DUP2 PUSH1 0x6 ADD DUP2 SWAP1 SSTORE POP PUSH32 0x4C5F7B4B152EC03BF5CC9C2AF634E2EFD9B7A01044E6CE4ACEF7E3C955697A4D DUP5 PUSH1 0x40 MLOAD PUSH2 0xEB6 SWAP2 SWAP1 PUSH2 0x1A5E JUMP JUMPDEST PUSH1 0x40 MLOAD DUP1 SWAP2 SUB SWAP1 LOG1 POP POP POP POP JUMP JUMPDEST DUP3 PUSH1 0x2 PUSH0 DUP3 DUP2 MSTORE PUSH1 0x20 ADD SWAP1 DUP2 MSTORE PUSH1 0x20 ADD PUSH0 KECCAK256 PUSH0 ADD PUSH0 SWAP1 SLOAD SWAP1 PUSH2 0x100 EXP SWAP1 DIV PUSH20 0xFFFFFFFFFFFFFFFFFFFFFFFFFFFFFFFFFFFFFFFF AND PUSH20 0xFFFFFFFFFFFFFFFFFFFFFFFFFFFFFFFFFFFFFFFF AND CALLER PUSH20 0xFFFFFFFFFFFFFFFFFFFFFFFFFFFFFFFFFFFFFFFF AND EQ PUSH2 0xF65 JUMPI PUSH1 0x40 MLOAD PUSH32 0x8C379A000000000000000000000000000000000000000000000000000000000 DUP2 MSTORE PUSH1 0x4 ADD PUSH2 0xF5C SWAP1 PUSH2 0x2298 JUMP JUMPDEST PUSH1 0x40 MLOAD DUP1 SWAP2 SUB SWAP1 REVERT JUMPDEST DUP4 PUSH0 PUSH1 0x3 DUP2 GT ISZERO PUSH2 0xF79 JUMPI PUSH2 0xF78 PUSH2 0x1797 JUMP JUMPDEST JUMPDEST PUSH1 0x2 PUSH0 DUP4 DUP2 MSTORE PUSH1 0x20 ADD SWAP1 DUP2 MSTORE PUSH1 0x20 ADD PUSH0 KECCAK256 PUSH1 0x4 ADD PUSH0 SWAP1 SLOAD SWAP1 PUSH2 0x100 EXP SWAP1 DIV PUSH1 0xFF AND PUSH1 0x3 DUP2 GT ISZERO PUSH2 0xFAC JUMPI PUSH2 0xFAB PUSH2 0x1797 JUMP JUMPDEST JUMPDEST EQ PUSH2 0xFEC JUMPI PUSH1 0x40 MLOAD PUSH32 0x8C379A000000000000000000000000000000000000000000000000000000000 DUP2 MSTORE PUSH1 0x4 ADD PUSH2 0xFE3 SWAP1 PUSH2 0x2300 JUMP JUMPDEST PUSH1 0x40 MLOAD DUP1 SWAP2 SUB SWAP1 REVERT JUMPDEST PUSH0 PUSH1 0x2 PUSH0 DUP8 DUP2 MSTORE PUSH1 0x20 ADD SWAP1 DUP2 MSTORE PUSH1 0x20 ADD PUSH0 KECCAK256 SWAP1 POP PUSH1 0x2 DUP2 PUSH1 0x4 ADD PUSH0 PUSH2 0x100 EXP DUP2 SLOAD DUP2 PUSH1 0xFF MUL NOT AND SWAP1 DUP4 PUSH1 0x3 DUP2 GT ISZERO PUSH2 0x1027 JUMPI PUSH2 0x1026 PUSH2 0x1797 JUMP JUMPDEST JUMPDEST MUL OR SWAP1 SSTORE POP DUP5 DUP5 DUP3 PUSH1 0x7 ADD SWAP2 DUP3 PUSH2 0x103F SWAP3 SWAP2 SWAP1 PUSH2 0x2328 JUMP JUMPDEST POP TIMESTAMP DUP2 PUSH1 0x6 ADD DUP2 SWAP1 SSTORE POP PUSH32 0x1F1097374B196396D043CB547AD15553DDE63E0F746EBA010EF8065BE3EC8F05 DUP7 DUP7 DUP7 PUSH1 0x40 MLOAD PUSH2 0x107C SWAP4 SWAP3 SWAP2 SWAP1 PUSH2 0x242F JUMP JUMPDEST PUSH1 0x40 MLOAD DUP1 SWAP2 SUB SWAP1 LOG1 POP POP POP POP POP POP JUMP JUMPDEST PUSH2 0x1094 PUSH2 0x1420 JUMP JUMPDEST PUSH0 PUSH20 0xFFFFFFFFFFFFFFFFFFFFFFFFFFFFFFFFFFFFFFFF AND DUP2 PUSH20 0xFFFFFFFFFFFFFFFFFFFFFFFFFFFFFFFFFFFFFFFF AND SUB PUSH2 0x1104 JUMPI PUSH0 PUSH1 0x40 MLOAD PUSH32 0x1E4FBDF700000000000000000000000000000000000000000000000000000000 DUP2 MSTORE PUSH1 0x4 ADD PUSH2 0x10FB SWAP2 SWAP1 PUSH2 0x1A0C JUMP JUMPDEST PUSH1 0x40 MLOAD DUP1 SWAP2 SUB SWAP1 REVERT JUMPDEST PUSH2 0x110D DUP2 PUSH2 0x1508 JUMP JUMPDEST POP JUMP JUMPDEST DUP1 PUSH1 0x2 PUSH0 DUP3 DUP2 MSTORE PUSH1 0x20 ADD SWAP1 DUP2 MSTORE PUSH1 0x20 ADD PUSH0 KECCAK256 PUSH1 0x1 ADD PUSH0 SWAP1 SLOAD SWAP1 PUSH2 0x100 EXP SWAP1 DIV PUSH20 0xFFFFFFFFFFFFFFFFFFFFFFFFFFFFFFFFFFFFFFFF AND PUSH20 0xFFFFFFFFFFFFFFFFFFFFFFFFFFFFFFFFFFFFFFFF AND CALLER PUSH20 0xFFFFFFFFFFFFFFFFFFFFFFFFFFFFFFFFFFFFFFFF AND EQ PUSH2 0x11B2 JUMPI PUSH1 0x40 MLOAD PUSH32 0x8C379A000000000000000000000000000000000000000000000000000000000 DUP2 MSTORE PUSH1 0x4 ADD PUSH2 0x11A9 SWAP1 PUSH2 0x2298 JUMP JUMPDEST PUSH1 0x40 MLOAD DUP1 SWAP2 SUB SWAP1 REVERT JUMPDEST DUP2 PUSH0 PUSH1 0x3 DUP2 GT ISZERO PUSH2 0x11C6 JUMPI PUSH2 0x11C5 PUSH2 0x1797 JUMP JUMPDEST JUMPDEST PUSH1 0x2 PUSH0 DUP4 DUP2 MSTORE PUSH1 0x20 ADD SWAP1 DUP2 MSTORE PUSH1 0x20 ADD PUSH0 KECCAK256 PUSH1 0x4 ADD PUSH0 SWAP1 SLOAD SWAP1 PUSH2 0x100 EXP SWAP1 DIV PUSH1 0xFF AND PUSH1 0x3 DUP2 GT ISZERO PUSH2 0x11F9 JUMPI PUSH2 0x11F8 PUSH2 0x1797 JUMP JUMPDEST JUMPDEST EQ PUSH2 0x1239 JUMPI PUSH1 0x40 MLOAD PUSH32 0x8C379A000000000000000000000000000000000000000000000000000000000 DUP2 MSTORE PUSH1 0x4 ADD PUSH2 0x1230 SWAP1 PUSH2 0x2300 JUMP JUMPDEST PUSH1 0x40 MLOAD DUP1 SWAP2 SUB SWAP1 REVERT JUMPDEST PUSH0 PUSH1 0x2 PUSH0 DUP6 DUP2 MSTORE PUSH1 0x20 ADD SWAP1 DUP2 MSTORE PUSH1 0x20 ADD PUSH0 KECCAK256 SWAP1 POP PUSH1 0x1 DUP2 PUSH1 0x4 ADD PUSH0 PUSH2 0x100 EXP DUP2 SLOAD DUP2 PUSH1 0xFF MUL NOT AND SWAP1 DUP4 PUSH1 0x3 DUP2 GT ISZERO PUSH2 0x1274 JUMPI PUSH2 0x1273 PUSH2 0x1797 JUMP JUMPDEST JUMPDEST MUL OR SWAP1 SSTORE POP DUP1 PUSH1 0x1 ADD PUSH0 SWAP1 SLOAD SWAP1 PUSH2 0x100 EXP SWAP1 DIV PUSH20 0xFFFFFFFFFFFFFFFFFFFFFFFFFFFFFFFFFFFFFFFF AND PUSH20 0xFFFFFFFFFFFFFFFFFFFFFFFFFFFFFFFFFFFFFFFF AND PUSH2 0x8FC DUP3 PUSH1 0x3 ADD SLOAD SWAP1 DUP2 ISZERO MUL SWAP1 PUSH1 0x40 MLOAD PUSH0 PUSH1 0x40 MLOAD DUP1 DUP4 SUB DUP2 DUP6 DUP9 DUP9 CALL SWAP4 POP POP POP POP ISZERO DUP1 ISZERO PUSH2 0x12E3 JUMPI RETURNDATASIZE PUSH0 DUP1 RETURNDATACOPY RETURNDATASIZE PUSH0 REVERT JUMPDEST POP PUSH1 0x4 PUSH0 SWAP1 SLOAD SWAP1 PUSH2 0x100 EXP SWAP1 DIV PUSH20 0xFFFFFFFFFFFFFFFFFFFFFFFFFFFFFFFFFFFFFFFF AND PUSH20 0xFFFFFFFFFFFFFFFFFFFFFFFFFFFFFFFFFFFFFFFF AND PUSH4 0xDD8AA6F6 DUP3 PUSH1 0x2 ADD SLOAD DUP4 PUSH0 ADD PUSH0 SWAP1 SLOAD SWAP1 PUSH2 0x100 EXP SWAP1 DIV PUSH20 0xFFFFFFFFFFFFFFFFFFFFFFFFFFFFFFFFFFFFFFFF AND DUP5 PUSH1 0x3 ADD SLOAD PUSH1 0x40 MLOAD DUP5 PUSH4 0xFFFFFFFF AND PUSH1 0xE0 SHL DUP2 MSTORE PUSH1 0x4 ADD PUSH2 0x136C SWAP4 SWAP3 SWAP2 SWAP1 PUSH2 0x2219 JUMP JUMPDEST PUSH0 PUSH1 0x40 MLOAD DUP1 DUP4 SUB DUP2 PUSH0 DUP8 DUP1 EXTCODESIZE ISZERO DUP1 ISZERO PUSH2 0x1383 JUMPI PUSH0 DUP1 REVERT JUMPDEST POP GAS CALL ISZERO DUP1 ISZERO PUSH2 0x1395 JUMPI RETURNDATASIZE PUSH0 DUP1 RETURNDATACOPY RETURNDATASIZE PUSH0 REVERT JUMPDEST POP POP POP POP TIMESTAMP DUP2 PUSH1 0x6 ADD DUP2 SWAP1 SSTORE POP PUSH32 0x161186077E0CDFA49FAE16D54CE01EA091439DBF14243419593FA6C051C906C8 DUP5 PUSH1 0x40 MLOAD PUSH2 0x13D1 SWAP2 SWAP1 PUSH2 0x1A5E JUMP JUMPDEST PUSH1 0x40 MLOAD DUP1 SWAP2 SUB SWAP1 LOG1 POP POP POP POP JUMP JUMPDEST PUSH2 0x13E7 PUSH2 0xAE7 JUMP JUMPDEST ISZERO PUSH2 0x141E JUMPI PUSH1 0x40 MLOAD PUSH32 0xD93C066500000000000000000000000000000000000000000000000000000000 DUP2 MSTORE PUSH1 0x4 ADD PUSH1 0x40 MLOAD DUP1 SWAP2 SUB SWAP1 REVERT JUMPDEST JUMP JUMPDEST PUSH2 0x1428 PUSH2 0x162B JUMP JUMPDEST PUSH20 0xFFFFFFFFFFFFFFFFFFFFFFFFFFFFFFFFFFFFFFFF AND PUSH2 0x1446 PUSH2 0xB46 JUMP JUMPDEST PUSH20 0xFFFFFFFFFFFFFFFFFFFFFFFFFFFFFFFFFFFFFFFF AND EQ PUSH2 0x14A5 JUMPI PUSH2 0x1469 PUSH2 0x162B JUMP JUMPDEST PUSH1 0x40 MLOAD PUSH32 0x118CDAA700000000000000000000000000000000000000000000000000000000 DUP2 MSTORE PUSH1 0x4 ADD PUSH2 0x149C SWAP2 SWAP1 PUSH2 0x1A0C JUMP JUMPDEST PUSH1 0x40 MLOAD DUP1 SWAP2 SUB SWAP1 REVERT JUMPDEST JUMP JUMPDEST PUSH2 0x14AF PUSH2 0x1632 JUMP JUMPDEST PUSH0 DUP1 PUSH1 0x14 PUSH2 0x100 EXP DUP2 SLOAD DUP2 PUSH1 0xFF MUL NOT AND SWAP1 DUP4 ISZERO ISZERO MUL OR SWAP1 SSTORE POP PUSH32 0x5DB9EE0A495BF2E6FF9C91A7834C1BA4FDD244A5E8AA4E537BD38AEAE4B073AA PUSH2 0x14F1 PUSH2 0x162B JUMP JUMPDEST PUSH1 0x40 MLOAD PUSH2 0x14FE SWAP2 SWAP1 PUSH2 0x1A0C JUMP JUMPDEST PUSH1 0x40 MLOAD DUP1 SWAP2 SUB SWAP1 LOG1 JUMP JUMPDEST PUSH0 DUP1 PUSH0 SWAP1 SLOAD SWAP1 PUSH2 0x100 EXP SWAP1 DIV PUSH20 0xFFFFFFFFFFFFFFFFFFFFFFFFFFFFFFFFFFFFFFFF AND SWAP1 POP DUP2 PUSH0 DUP1 PUSH2 0x100 EXP DUP2 SLOAD DUP2 PUSH20 0xFFFFFFFFFFFFFFFFFFFFFFFFFFFFFFFFFFFFFFFF MUL NOT AND SWAP1 DUP4 PUSH20 0xFFFFFFFFFFFFFFFFFFFFFFFFFFFFFFFFFFFFFFFF AND MUL OR SWAP1 SSTORE POP DUP2 PUSH20 0xFFFFFFFFFFFFFFFFFFFFFFFFFFFFFFFFFFFFFFFF AND DUP2 PUSH20 0xFFFFFFFFFFFFFFFFFFFFFFFFFFFFFFFFFFFFFFFF AND PUSH32 0x8BE0079C531659141344CD1FD0A4F28419497F9722A3DAAFE3B4186F6B6457E0 PUSH1 0x40 MLOAD PUSH1 0x40 MLOAD DUP1 SWAP2 SUB SWAP1 LOG3 POP POP JUMP JUMPDEST PUSH2 0x15D1 PUSH2 0x13DF JUMP JUMPDEST PUSH1 0x1 PUSH0 PUSH1 0x14 PUSH2 0x100 EXP DUP2 SLOAD DUP2 PUSH1 0xFF MUL NOT AND SWAP1 DUP4 ISZERO ISZERO MUL OR SWAP1 SSTORE POP PUSH32 0x62E78CEA01BEE320CD4E420270B5EA74000D11B0C9F74754EBDBFC544B05A258 PUSH2 0x1614 PUSH2 0x162B JUMP JUMPDEST PUSH1 0x40 MLOAD PUSH2 0x1621 SWAP2 SWAP1 PUSH2 0x1A0C JUMP JUMPDEST PUSH1 0x40 MLOAD DUP1 SWAP2 SUB SWAP1 LOG1 JUMP JUMPDEST PUSH0 CALLER SWAP1 POP SWAP1 JUMP JUMPDEST PUSH2 0x163A PUSH2 0xAE7 JUMP JUMPDEST PUSH2 0x1670 JUMPI PUSH1 0x40 MLOAD PUSH32 0x8DFC202B00000000000000000000000000000000000000000000000000000000 DUP2 MSTORE PUSH1 0x4 ADD PUSH1 0x40 MLOAD DUP1 SWAP2 SUB SWAP1 REVERT JUMPDEST JUMP JUMPDEST PUSH0 PUSH1 0x40 MLOAD SWAP1 POP SWAP1 JUMP JUMPDEST PUSH0 DUP1 REVERT JUMPDEST PUSH0 DUP1 REVERT JUMPDEST PUSH0 PUSH20 0xFFFFFFFFFFFFFFFFFFFFFFFFFFFFFFFFFFFFFFFF DUP3 AND SWAP1 POP SWAP2 SWAP1 POP JUMP JUMPDEST PUSH0 PUSH2 0x16AC DUP3 PUSH2 0x1683 JUMP JUMPDEST SWAP1 POP SWAP2 SWAP1 POP JUMP JUMPDEST PUSH2 0x16BC DUP2 PUSH2 0x16A2 JUMP JUMPDEST DUP2 EQ PUSH2 0x16C6 JUMPI PUSH0 DUP1 REVERT JUMPDEST POP JUMP JUMPDEST PUSH0 DUP2 CALLDATALOAD SWAP1 POP PUSH2 0x16D7 DUP2 PUSH2 0x16B3 JUMP JUMPDEST SWAP3 SWAP2 POP POP JUMP JUMPDEST PUSH0 DUP2 SWAP1 POP SWAP2 SWAP1 POP JUMP JUMPDEST PUSH2 0x16EF DUP2 PUSH2 0x16DD JUMP JUMPDEST DUP2 EQ PUSH2 0x16F9 JUMPI PUSH0 DUP1 REVERT JUMPDEST POP JUMP JUMPDEST PUSH0 DUP2 CALLDATALOAD SWAP1 POP PUSH2 0x170A DUP2 PUSH2 0x16E6 JUMP JUMPDEST SWAP3 SWAP2 POP POP JUMP JUMPDEST PUSH0 DUP1 PUSH1 0x40 DUP4 DUP6 SUB SLT ISZERO PUSH2 0x1726 JUMPI PUSH2 0x1725 PUSH2 0x167B JUMP JUMPDEST JUMPDEST PUSH0 PUSH2 0x1733 DUP6 DUP3 DUP7 ADD PUSH2 0x16C9 JUMP JUMPDEST SWAP3 POP POP PUSH1 0x20 PUSH2 0x1744 DUP6 DUP3 DUP7 ADD PUSH2 0x16FC JUMP JUMPDEST SWAP2 POP POP SWAP3 POP SWAP3 SWAP1 POP JUMP JUMPDEST PUSH0 PUSH1 0x20 DUP3 DUP5 SUB SLT ISZERO PUSH2 0x1763 JUMPI PUSH2 0x1762 PUSH2 0x167B JUMP JUMPDEST JUMPDEST PUSH0 PUSH2 0x1770 DUP5 DUP3 DUP6 ADD PUSH2 0x16FC JUMP JUMPDEST SWAP2 POP POP SWAP3 SWAP2 POP POP JUMP JUMPDEST PUSH2 0x1782 DUP2 PUSH2 0x16A2 JUMP JUMPDEST DUP3 MSTORE POP POP JUMP JUMPDEST PUSH2 0x1791 DUP2 PUSH2 0x16DD JUMP JUMPDEST DUP3 MSTORE POP POP JUMP JUMPDEST PUSH32 0x4E487B7100000000000000000000000000000000000000000000000000000000 PUSH0 MSTORE PUSH1 0x21 PUSH1 0x4 MSTORE PUSH1 0x24 PUSH0 REVERT JUMPDEST PUSH1 0x4 DUP2 LT PUSH2 0x17D5 JUMPI PUSH2 0x17D4 PUSH2 0x1797 JUMP JUMPDEST JUMPDEST POP JUMP JUMPDEST PUSH0 DUP2 SWAP1 POP PUSH2 0x17E5 DUP3 PUSH2 0x17C4 JUMP JUMPDEST SWAP2 SWAP1 POP JUMP JUMPDEST PUSH0 PUSH2 0x17F4 DUP3 PUSH2 0x17D8 JUMP JUMPDEST SWAP1 POP SWAP2 SWAP1 POP JUMP JUMPDEST PUSH2 0x1804 DUP2 PUSH2 0x17EA JUMP JUMPDEST DUP3 MSTORE POP POP JUMP JUMPDEST PUSH0 DUP2 MLOAD SWAP1 POP SWAP2 SWAP1 POP JUMP JUMPDEST PUSH0 DUP3 DUP3 MSTORE PUSH1 0x20 DUP3 ADD SWAP1 POP SWAP3 SWAP2 POP POP JUMP JUMPDEST DUP3 DUP2 DUP4 MCOPY PUSH0 DUP4 DUP4 ADD MSTORE POP POP POP JUMP JUMPDEST PUSH0 PUSH1 0x1F NOT PUSH1 0x1F DUP4 ADD AND SWAP1 POP SWAP2 SWAP1 POP JUMP JUMPDEST PUSH0 PUSH2 0x184C DUP3 PUSH2 0x180A JUMP JUMPDEST PUSH2 0x1856 DUP2 DUP6 PUSH2 0x1814 JUMP JUMPDEST SWAP4 POP PUSH2 0x1866 DUP2 DUP6 PUSH1 0x20 DUP7 ADD PUSH2 0x1824 JUMP JUMPDEST PUSH2 0x186F DUP2 PUSH2 0x1832 JUMP JUMPDEST DUP5 ADD SWAP2 POP POP SWAP3 SWAP2 POP POP JUMP JUMPDEST PUSH0 PUSH2 0x100 DUP3 ADD SWAP1 POP PUSH2 0x188E PUSH0 DUP4 ADD DUP12 PUSH2 0x1779 JUMP JUMPDEST PUSH2 0x189B PUSH1 0x20 DUP4 ADD DUP11 PUSH2 0x1779 JUMP JUMPDEST PUSH2 0x18A8 PUSH1 0x40 DUP4 ADD DUP10 PUSH2 0x1788 JUMP JUMPDEST PUSH2 0x18B5 PUSH1 0x60 DUP4 ADD DUP9 PUSH2 0x1788 JUMP JUMPDEST PUSH2 0x18C2 PUSH1 0x80 DUP4 ADD DUP8 PUSH2 0x17FB JUMP JUMPDEST PUSH2 0x18CF PUSH1 0xA0 DUP4 ADD DUP7 PUSH2 0x1788 JUMP JUMPDEST PUSH2 0x18DC PUSH1 0xC0 DUP4 ADD DUP6 PUSH2 0x1788 JUMP JUMPDEST DUP2 DUP2 SUB PUSH1 0xE0 DUP4 ADD MSTORE PUSH2 0x18EE DUP2 DUP5 PUSH2 0x1842 JUMP JUMPDEST SWAP1 POP SWAP10 SWAP9 POP POP POP POP POP POP POP POP POP JUMP JUMPDEST PUSH0 DUP2 ISZERO ISZERO SWAP1 POP SWAP2 SWAP1 POP JUMP JUMPDEST PUSH2 0x1911 DUP2 PUSH2 0x18FD JUMP JUMPDEST DUP2 EQ PUSH2 0x191B JUMPI PUSH0 DUP1 REVERT JUMPDEST POP JUMP JUMPDEST PUSH0 DUP2 CALLDATALOAD SWAP1 POP PUSH2 0x192C DUP2 PUSH2 0x1908 JUMP JUMPDEST SWAP3 SWAP2 POP POP JUMP JUMPDEST PUSH0 DUP1 PUSH1 0x40 DUP4 DUP6 SUB SLT ISZERO PUSH2 0x1948 JUMPI PUSH2 0x1947 PUSH2 0x167B JUMP JUMPDEST JUMPDEST PUSH0 PUSH2 0x1955 DUP6 DUP3 DUP7 ADD PUSH2 0x16FC JUMP JUMPDEST SWAP3 POP POP PUSH1 0x20 PUSH2 0x1966 DUP6 DUP3 DUP7 ADD PUSH2 0x191E JUMP JUMPDEST SWAP2 POP POP SWAP3 POP SWAP3 SWAP1 POP JUMP JUMPDEST PUSH2 0x1979 DUP2 PUSH2 0x18FD JUMP JUMPDEST DUP3 MSTORE POP POP JUMP JUMPDEST PUSH0 PUSH1 0x20 DUP3 ADD SWAP1 POP PUSH2 0x1992 PUSH0 DUP4 ADD DUP5 PUSH2 0x1970 JUMP JUMPDEST SWAP3 SWAP2 POP POP JUMP JUMPDEST PUSH0 DUP2 SWAP1 POP SWAP2 SWAP1 POP JUMP JUMPDEST PUSH0 PUSH2 0x19BB PUSH2 0x19B6 PUSH2 0x19B1 DUP5 PUSH2 0x1683 JUMP JUMPDEST PUSH2 0x1998 JUMP JUMPDEST PUSH2 0x1683 JUMP JUMPDEST SWAP1 POP SWAP2 SWAP1 POP JUMP JUMPDEST PUSH0 PUSH2 0x19CC DUP3 PUSH2 0x19A1 JUMP JUMPDEST SWAP1 POP SWAP2 SWAP1 POP JUMP JUMPDEST PUSH0 PUSH2 0x19DD DUP3 PUSH2 0x19C2 JUMP JUMPDEST SWAP1 POP SWAP2 SWAP1 POP JUMP JUMPDEST PUSH2 0x19ED DUP2 PUSH2 0x19D3 JUMP JUMPDEST DUP3 MSTORE POP POP JUMP JUMPDEST PUSH0 PUSH1 0x20 DUP3 ADD SWAP1 POP PUSH2 0x1A06 PUSH0 DUP4 ADD DUP5 PUSH2 0x19E4 JUMP JUMPDEST SWAP3 SWAP2 POP POP JUMP JUMPDEST PUSH0 PUSH1 0x20 DUP3 ADD SWAP1 POP PUSH2 0x1A1F PUSH0 DUP4 ADD DUP5 PUSH2 0x1779 JUMP JUMPDEST SWAP3 SWAP2 POP POP JUMP JUMPDEST PUSH0 PUSH2 0x1A2F DUP3 PUSH2 0x19C2 JUMP JUMPDEST SWAP1 POP SWAP2 SWAP1 POP JUMP JUMPDEST PUSH2 0x1A3F DUP2 PUSH2 0x1A25 JUMP JUMPDEST DUP3 MSTORE POP POP JUMP JUMPDEST PUSH0 PUSH1 0x20 DUP3 ADD SWAP1 POP PUSH2 0x1A58 PUSH0 DUP4 ADD DUP5 PUSH2 0x1A36 JUMP JUMPDEST SWAP3 SWAP2 POP POP JUMP JUMPDEST PUSH0 PUSH1 0x20 DUP3 ADD SWAP1 POP PUSH2 0x1A71 PUSH0 DUP4 ADD DUP5 PUSH2 0x1788 JUMP JUMPDEST SWAP3 SWAP2 POP POP JUMP JUMPDEST PUSH0 DUP1 REVERT JUMPDEST PUSH0 DUP1 REVERT JUMPDEST PUSH0 DUP1 REVERT JUMPDEST PUSH0 DUP1 DUP4 PUSH1 0x1F DUP5 ADD SLT PUSH2 0x1A98 JUMPI PUSH2 0x1A97 PUSH2 0x1A77 JUMP JUMPDEST JUMPDEST DUP3 CALLDATALOAD SWAP1 POP PUSH8 0xFFFFFFFFFFFFFFFF DUP2 GT ISZERO PUSH2 0x1AB5 JUMPI PUSH2 0x1AB4 PUSH2 0x1A7B JUMP JUMPDEST JUMPDEST PUSH1 0x20 DUP4 ADD SWAP2 POP DUP4 PUSH1 0x1 DUP3 MUL DUP4 ADD GT ISZERO PUSH2 0x1AD1 JUMPI PUSH2 0x1AD0 PUSH2 0x1A7F JUMP JUMPDEST JUMPDEST SWAP3 POP SWAP3 SWAP1 POP JUMP JUMPDEST PUSH0 DUP1 PUSH0 PUSH1 0x40 DUP5 DUP7 SUB SLT ISZERO PUSH2 0x1AEF JUMPI PUSH2 0x1AEE PUSH2 0x167B JUMP JUMPDEST JUMPDEST PUSH0 PUSH2 0x1AFC DUP7 DUP3 DUP8 ADD PUSH2 0x16FC JUMP JUMPDEST SWAP4 POP POP PUSH1 0x20 DUP5 ADD CALLDATALOAD PUSH8 0xFFFFFFFFFFFFFFFF DUP2 GT ISZERO PUSH2 0x1B1D JUMPI PUSH2 0x1B1C PUSH2 0x167F JUMP JUMPDEST JUMPDEST PUSH2 0x1B29 DUP7 DUP3 DUP8 ADD PUSH2 0x1A83 JUMP JUMPDEST SWAP3 POP SWAP3 POP POP SWAP3 POP SWAP3 POP SWAP3 JUMP JUMPDEST PUSH0 PUSH1 0x20 DUP3 DUP5 SUB SLT ISZERO PUSH2 0x1B4A JUMPI PUSH2 0x1B49 PUSH2 0x167B JUMP JUMPDEST JUMPDEST PUSH0 PUSH2 0x1B57 DUP5 DUP3 DUP6 ADD PUSH2 0x16C9 JUMP JUMPDEST SWAP2 POP POP SWAP3 SWAP2 POP POP JUMP JUMPDEST PUSH32 0x416D6F756E74206D7573742062652067726561746572207468616E2030000000 PUSH0 DUP3 ADD MSTORE POP JUMP JUMPDEST PUSH0 PUSH2 0x1B94 PUSH1 0x1D DUP4 PUSH2 0x1814 JUMP JUMPDEST SWAP2 POP PUSH2 0x1B9F DUP3 PUSH2 0x1B60 JUMP JUMPDEST PUSH1 0x20 DUP3 ADD SWAP1 POP SWAP2 SWAP1 POP JUMP JUMPDEST PUSH0 PUSH1 0x20 DUP3 ADD SWAP1 POP DUP2 DUP2 SUB PUSH0 DUP4 ADD MSTORE PUSH2 0x1BC1 DUP2 PUSH2 0x1B88 JUMP JUMPDEST SWAP1 POP SWAP2 SWAP1 POP JUMP JUMPDEST PUSH0 DUP1 REVERT JUMPDEST PUSH32 0x4E487B7100000000000000000000000000000000000000000000000000000000 PUSH0 MSTORE PUSH1 0x41 PUSH1 0x4 MSTORE PUSH1 0x24 PUSH0 REVERT JUMPDEST PUSH2 0x1C02 DUP3 PUSH2 0x1832 JUMP JUMPDEST DUP2 ADD DUP2 DUP2 LT PUSH8 0xFFFFFFFFFFFFFFFF DUP3 GT OR ISZERO PUSH2 0x1C21 JUMPI PUSH2 0x1C20 PUSH2 0x1BCC JUMP JUMPDEST JUMPDEST DUP1 PUSH1 0x40 MSTORE POP POP POP JUMP JUMPDEST PUSH0 PUSH2 0x1C33 PUSH2 0x1672 JUMP JUMPDEST SWAP1 POP PUSH2 0x1C3F DUP3 DUP3 PUSH2 0x1BF9 JUMP JUMPDEST SWAP2 SWAP1 POP JUMP JUMPDEST PUSH0 DUP1 REVERT JUMPDEST PUSH0 DUP2 MLOAD SWAP1 POP PUSH2 0x1C56 DUP2 PUSH2 0x16E6 JUMP JUMPDEST SWAP3 SWAP2 POP POP JUMP JUMPDEST PUSH0 PUSH8 0xFFFFFFFFFFFFFFFF DUP3 GT ISZERO PUSH2 0x1C76 JUMPI PUSH2 0x1C75 PUSH2 0x1BCC JUMP JUMPDEST JUMPDEST PUSH1 0x20 DUP3 MUL SWAP1 POP PUSH1 0x20 DUP2 ADD SWAP1 POP SWAP2 SWAP1 POP JUMP JUMPDEST PUSH0 PUSH2 0x1C99 PUSH2 0x1C94 DUP5 PUSH2 0x1C5C JUMP JUMPDEST PUSH2 0x1C2A JUMP JUMPDEST SWAP1 POP DUP1 DUP4 DUP3 MSTORE PUSH1 0x20 DUP3 ADD SWAP1 POP PUSH1 0x20 DUP5 MUL DUP4 ADD DUP6 DUP2 GT ISZERO PUSH2 0x1CBC JUMPI PUSH2 0x1CBB PUSH2 0x1A7F JUMP JUMPDEST JUMPDEST DUP4 JUMPDEST DUP2 DUP2 LT ISZERO PUSH2 0x1CE5 JUMPI DUP1 PUSH2 0x1CD1 DUP9 DUP3 PUSH2 0x1C48 JUMP JUMPDEST DUP5 MSTORE PUSH1 0x20 DUP5 ADD SWAP4 POP POP PUSH1 0x20 DUP2 ADD SWAP1 POP PUSH2 0x1CBE JUMP JUMPDEST POP POP POP SWAP4 SWAP3 POP POP POP JUMP JUMPDEST PUSH0 DUP3 PUSH1 0x1F DUP4 ADD SLT PUSH2 0x1D03 JUMPI PUSH2 0x1D02 PUSH2 0x1A77 JUMP JUMPDEST JUMPDEST DUP2 MLOAD PUSH2 0x1D13 DUP5 DUP3 PUSH1 0x20 DUP7 ADD PUSH2 0x1C87 JUMP JUMPDEST SWAP2 POP POP SWAP3 SWAP2 POP POP JUMP JUMPDEST PUSH0 PUSH1 0x60 DUP3 DUP5 SUB SLT ISZERO PUSH2 0x1D31 JUMPI PUSH2 0x1D30 PUSH2 0x1BC8 JUMP JUMPDEST JUMPDEST PUSH2 0x1D3B PUSH1 0x60 PUSH2 0x1C2A JUMP JUMPDEST SWAP1 POP PUSH0 PUSH2 0x1D4A DUP5 DUP3 DUP6 ADD PUSH2 0x1C48 JUMP JUMPDEST PUSH0 DUP4 ADD MSTORE POP PUSH1 0x20 DUP3 ADD MLOAD PUSH8 0xFFFFFFFFFFFFFFFF DUP2 GT ISZERO PUSH2 0x1D6D JUMPI PUSH2 0x1D6C PUSH2 0x1C44 JUMP JUMPDEST JUMPDEST PUSH2 0x1D79 DUP5 DUP3 DUP6 ADD PUSH2 0x1CEF JUMP JUMPDEST PUSH1 0x20 DUP4 ADD MSTORE POP PUSH1 0x40 PUSH2 0x1D8D DUP5 DUP3 DUP6 ADD PUSH2 0x1C48 JUMP JUMPDEST PUSH1 0x40 DUP4 ADD MSTORE POP SWAP3 SWAP2 POP POP JUMP JUMPDEST PUSH0 PUSH1 0x20 DUP3 DUP5 SUB SLT ISZERO PUSH2 0x1DAE JUMPI PUSH2 0x1DAD PUSH2 0x167B JUMP JUMPDEST JUMPDEST PUSH0 DUP3 ADD MLOAD PUSH8 0xFFFFFFFFFFFFFFFF DUP2 GT ISZERO PUSH2 0x1DCB JUMPI PUSH2 0x1DCA PUSH2 0x167F JUMP JUMPDEST JUMPDEST PUSH2 0x1DD7 DUP5 DUP3 DUP6 ADD PUSH2 0x1D1C JUMP JUMPDEST SWAP2 POP POP SWAP3 SWAP2 POP POP JUMP JUMPDEST PUSH32 0x496E76616C6964206261736B6574000000000000000000000000000000000000 PUSH0 DUP3 ADD MSTORE POP JUMP JUMPDEST PUSH0 PUSH2 0x1E14 PUSH1 0xE DUP4 PUSH2 0x1814 JUMP JUMPDEST SWAP2 POP PUSH2 0x1E1F DUP3 PUSH2 0x1DE0 JUMP JUMPDEST PUSH1 0x20 DUP3 ADD SWAP1 POP SWAP2 SWAP1 POP JUMP JUMPDEST PUSH0 PUSH1 0x20 DUP3 ADD SWAP1 POP DUP2 DUP2 SUB PUSH0 DUP4 ADD MSTORE PUSH2 0x1E41 DUP2 PUSH2 0x1E08 JUMP JUMPDEST SWAP1 POP SWAP2 SWAP1 POP JUMP JUMPDEST PUSH32 0x4E487B7100000000000000000000000000000000000000000000000000000000 PUSH0 MSTORE PUSH1 0x11 PUSH1 0x4 MSTORE PUSH1 0x24 PUSH0 REVERT JUMPDEST PUSH0 PUSH2 0x1E7F DUP3 PUSH2 0x16DD JUMP JUMPDEST SWAP2 POP PUSH32 0xFFFFFFFFFFFFFFFFFFFFFFFFFFFFFFFFFFFFFFFFFFFFFFFFFFFFFFFFFFFFFFFF DUP3 SUB PUSH2 0x1EB1 JUMPI PUSH2 0x1EB0 PUSH2 0x1E48 JUMP JUMPDEST JUMPDEST PUSH1 0x1 DUP3 ADD SWAP1 POP SWAP2 SWAP1 POP JUMP JUMPDEST PUSH32 0x4E487B7100000000000000000000000000000000000000000000000000000000 PUSH0 MSTORE PUSH1 0x22 PUSH1 0x4 MSTORE PUSH1 0x24 PUSH0 REVERT JUMPDEST PUSH0 PUSH1 0x2 DUP3 DIV SWAP1 POP PUSH1 0x1 DUP3 AND DUP1 PUSH2 0x1F00 JUMPI PUSH1 0x7F DUP3 AND SWAP2 POP JUMPDEST PUSH1 0x20 DUP3 LT DUP2 SUB PUSH2 0x1F13 JUMPI PUSH2 0x1F12 PUSH2 0x1EBC JUMP JUMPDEST JUMPDEST POP SWAP2 SWAP1 POP JUMP JUMPDEST PUSH0 DUP2 SWAP1 POP DUP2 PUSH0 MSTORE PUSH1 0x20 PUSH0 KECCAK256 SWAP1 POP SWAP2 SWAP1 POP JUMP JUMPDEST PUSH0 PUSH1 0x20 PUSH1 0x1F DUP4 ADD DIV SWAP1 POP SWAP2 SWAP1 POP JUMP JUMPDEST PUSH0 DUP3 DUP3 SHL SWAP1 POP SWAP3 SWAP2 POP POP JUMP JUMPDEST PUSH0 PUSH1 0x8 DUP4 MUL PUSH2 0x1F75 PUSH32 0xFFFFFFFFFFFFFFFFFFFFFFFFFFFFFFFFFFFFFFFFFFFFFFFFFFFFFFFFFFFFFFFF DUP3 PUSH2 0x1F3A JUMP JUMPDEST PUSH2 0x1F7F DUP7 DUP4 PUSH2 0x1F3A JUMP JUMPDEST SWAP6 POP DUP1 NOT DUP5 AND SWAP4 POP DUP1 DUP7 AND DUP5 OR SWAP3 POP POP POP SWAP4 SWAP3 POP POP POP JUMP JUMPDEST PUSH0 PUSH2 0x1FB1 PUSH2 0x1FAC PUSH2 0x1FA7 DUP5 PUSH2 0x16DD JUMP JUMPDEST PUSH2 0x1998 JUMP JUMPDEST PUSH2 0x16DD JUMP JUMPDEST SWAP1 POP SWAP2 SWAP1 POP JUMP JUMPDEST PUSH0 DUP2 SWAP1 POP SWAP2 SWAP1 POP JUMP JUMPDEST PUSH2 0x1FCA DUP4 PUSH2 0x1F97 JUMP JUMPDEST PUSH2 0x1FDE PUSH2 0x1FD6 DUP3 PUSH2 0x1FB8 JUMP JUMPDEST DUP5 DUP5 SLOAD PUSH2 0x1F46 JUMP JUMPDEST DUP3 SSTORE POP POP POP POP JUMP JUMPDEST PUSH0 SWAP1 JUMP JUMPDEST PUSH2 0x1FF2 PUSH2 0x1FE6 JUMP JUMPDEST PUSH2 0x1FFD DUP2 DUP5 DUP5 PUSH2 0x1FC1 JUMP JUMPDEST POP POP POP JUMP JUMPDEST JUMPDEST DUP2 DUP2 LT ISZERO PUSH2 0x2020 JUMPI PUSH2 0x2015 PUSH0 DUP3 PUSH2 0x1FEA JUMP JUMPDEST PUSH1 0x1 DUP2 ADD SWAP1 POP PUSH2 0x2003 JUMP JUMPDEST POP POP JUMP JUMPDEST PUSH1 0x1F DUP3 GT ISZERO PUSH2 0x2065 JUMPI PUSH2 0x2036 DUP2 PUSH2 0x1F19 JUMP JUMPDEST PUSH2 0x203F DUP5 PUSH2 0x1F2B JUMP JUMPDEST DUP2 ADD PUSH1 0x20 DUP6 LT ISZERO PUSH2 0x204E JUMPI DUP2 SWAP1 POP JUMPDEST PUSH2 0x2062 PUSH2 0x205A DUP6 PUSH2 0x1F2B JUMP JUMPDEST DUP4 ADD DUP3 PUSH2 0x2002 JUMP JUMPDEST POP POP JUMPDEST POP POP POP JUMP JUMPDEST PUSH0 DUP3 DUP3 SHR SWAP1 POP SWAP3 SWAP2 POP POP JUMP JUMPDEST PUSH0 PUSH2 0x2085 PUSH0 NOT DUP5 PUSH1 0x8 MUL PUSH2 0x206A JUMP JUMPDEST NOT DUP1 DUP4 AND SWAP2 POP POP SWAP3 SWAP2 POP POP JUMP JUMPDEST PUSH0 PUSH2 0x209D DUP4 DUP4 PUSH2 0x2076 JUMP JUMPDEST SWAP2 POP DUP3 PUSH1 0x2 MUL DUP3 OR SWAP1 POP SWAP3 SWAP2 POP POP JUMP JUMPDEST PUSH2 0x20B6 DUP3 PUSH2 0x180A JUMP JUMPDEST PUSH8 0xFFFFFFFFFFFFFFFF DUP2 GT ISZERO PUSH2 0x20CF JUMPI PUSH2 0x20CE PUSH2 0x1BCC JUMP JUMPDEST JUMPDEST PUSH2 0x20D9 DUP3 SLOAD PUSH2 0x1EE9 JUMP JUMPDEST PUSH2 0x20E4 DUP3 DUP3 DUP6 PUSH2 0x2024 JUMP JUMPDEST PUSH0 PUSH1 0x20 SWAP1 POP PUSH1 0x1F DUP4 GT PUSH1 0x1 DUP2 EQ PUSH2 0x2115 JUMPI PUSH0 DUP5 ISZERO PUSH2 0x2103 JUMPI DUP3 DUP8 ADD MLOAD SWAP1 POP JUMPDEST PUSH2 0x210D DUP6 DUP3 PUSH2 0x2092 JUMP JUMPDEST DUP7 SSTORE POP PUSH2 0x2174 JUMP JUMPDEST PUSH1 0x1F NOT DUP5 AND PUSH2 0x2123 DUP7 PUSH2 0x1F19 JUMP JUMPDEST PUSH0 JUMPDEST DUP3 DUP2 LT ISZERO PUSH2 0x214A JUMPI DUP5 DUP10 ADD MLOAD DUP3 SSTORE PUSH1 0x1 DUP3 ADD SWAP2 POP PUSH1 0x20 DUP6 ADD SWAP5 POP PUSH1 0x20 DUP2 ADD SWAP1 POP PUSH2 0x2125 JUMP JUMPDEST DUP7 DUP4 LT ISZERO PUSH2 0x2167 JUMPI DUP5 DUP10 ADD MLOAD PUSH2 0x2163 PUSH1 0x1F DUP10 AND DUP3 PUSH2 0x2076 JUMP JUMPDEST DUP4 SSTORE POP JUMPDEST PUSH1 0x1 PUSH1 0x2 DUP9 MUL ADD DUP9 SSTORE POP POP POP JUMPDEST POP POP POP POP POP POP JUMP JUMPDEST PUSH0 PUSH1 0x60 DUP3 ADD SWAP1 POP PUSH2 0x218F PUSH0 DUP4 ADD DUP7 PUSH2 0x1788 JUMP JUMPDEST PUSH2 0x219C PUSH1 0x20 DUP4 ADD DUP6 PUSH2 0x1788 JUMP JUMPDEST PUSH2 0x21A9 PUSH1 0x40 DUP4 ADD DUP5 PUSH2 0x1788 JUMP JUMPDEST SWAP5 SWAP4 POP POP POP POP JUMP JUMPDEST PUSH32 0x5472616E73616374696F6E206973206E6F742064697370757465640000000000 PUSH0 DUP3 ADD MSTORE POP JUMP JUMPDEST PUSH0 PUSH2 0x21E5 PUSH1 0x1B DUP4 PUSH2 0x1814 JUMP JUMPDEST SWAP2 POP PUSH2 0x21F0 DUP3 PUSH2 0x21B1 JUMP JUMPDEST PUSH1 0x20 DUP3 ADD SWAP1 POP SWAP2 SWAP1 POP JUMP JUMPDEST PUSH0 PUSH1 0x20 DUP3 ADD SWAP1 POP DUP2 DUP2 SUB PUSH0 DUP4 ADD MSTORE PUSH2 0x2212 DUP2 PUSH2 0x21D9 JUMP JUMPDEST SWAP1 POP SWAP2 SWAP1 POP JUMP JUMPDEST PUSH0 PUSH1 0x60 DUP3 ADD SWAP1 POP PUSH2 0x222C PUSH0 DUP4 ADD DUP7 PUSH2 0x1788 JUMP JUMPDEST PUSH2 0x2239 PUSH1 0x20 DUP4 ADD DUP6 PUSH2 0x1779 JUMP JUMPDEST PUSH2 0x2246 PUSH1 0x40 DUP4 ADD DUP5 PUSH2 0x1788 JUMP JUMPDEST SWAP5 SWAP4 POP POP POP POP JUMP JUMPDEST PUSH32 0x4E6F7420617574686F72697A6564000000000000000000000000000000000000 PUSH0 DUP3 ADD MSTORE POP JUMP JUMPDEST PUSH0 PUSH2 0x2282 PUSH1 0xE DUP4 PUSH2 0x1814 JUMP JUMPDEST SWAP2 POP PUSH2 0x228D DUP3 PUSH2 0x224E JUMP JUMPDEST PUSH1 0x20 DUP3 ADD SWAP1 POP SWAP2 SWAP1 POP JUMP JUMPDEST PUSH0 PUSH1 0x20 DUP3 ADD SWAP1 POP DUP2 DUP2 SUB PUSH0 DUP4 ADD MSTORE PUSH2 0x22AF DUP2 PUSH2 0x2276 JUMP JUMPDEST SWAP1 POP SWAP2 SWAP1 POP JUMP JUMPDEST PUSH32 0x5472616E73616374696F6E206973206E6F742070656E64696E67000000000000 PUSH0 DUP3 ADD MSTORE POP JUMP JUMPDEST PUSH0 PUSH2 0x22EA PUSH1 0x1A DUP4 PUSH2 0x1814 JUMP JUMPDEST SWAP2 POP PUSH2 0x22F5 DUP3 PUSH2 0x22B6 JUMP JUMPDEST PUSH1 0x20 DUP3 ADD SWAP1 POP SWAP2 SWAP1 POP JUMP JUMPDEST PUSH0 PUSH1 0x20 DUP3 ADD SWAP1 POP DUP2 DUP2 SUB PUSH0 DUP4 ADD MSTORE PUSH2 0x2317 DUP2 PUSH2 0x22DE JUMP JUMPDEST SWAP1 POP SWAP2 SWAP1 POP JUMP JUMPDEST PUSH0 DUP3 SWAP1 POP SWAP3 SWAP2 POP POP JUMP JUMPDEST PUSH2 0x2332 DUP4 DUP4 PUSH2 0x231E JUMP JUMPDEST PUSH8 0xFFFFFFFFFFFFFFFF DUP2 GT ISZERO PUSH2 0x234B JUMPI PUSH2 0x234A PUSH2 0x1BCC JUMP JUMPDEST JUMPDEST PUSH2 0x2355 DUP3 SLOAD PUSH2 0x1EE9 JUMP JUMPDEST PUSH2 0x2360 DUP3 DUP3 DUP6 PUSH2 0x2024 JUMP JUMPDEST PUSH0 PUSH1 0x1F DUP4 GT PUSH1 0x1 DUP2 EQ PUSH2 0x238D JUMPI PUSH0 DUP5 ISZERO PUSH2 0x237B JUMPI DUP3 DUP8 ADD CALLDATALOAD SWAP1 POP JUMPDEST PUSH2 0x2385 DUP6 DUP3 PUSH2 0x2092 JUMP JUMPDEST DUP7 SSTORE POP PUSH2 0x23EC JUMP JUMPDEST PUSH1 0x1F NOT DUP5 AND PUSH2 0x239B DUP7 PUSH2 0x1F19 JUMP JUMPDEST PUSH0 JUMPDEST DUP3 DUP2 LT ISZERO PUSH2 0x23C2 JUMPI DUP5 DUP10 ADD CALLDATALOAD DUP3 SSTORE PUSH1 0x1 DUP3 ADD SWAP2 POP PUSH1 0x20 DUP6 ADD SWAP5 POP PUSH1 0x20 DUP2 ADD SWAP1 POP PUSH2 0x239D JUMP JUMPDEST DUP7 DUP4 LT ISZERO PUSH2 0x23DF JUMPI DUP5 DUP10 ADD CALLDATALOAD PUSH2 0x23DB PUSH1 0x1F DUP10 AND DUP3 PUSH2 0x2076 JUMP JUMPDEST DUP4 SSTORE POP JUMPDEST PUSH1 0x1 PUSH1 0x2 DUP9 MUL ADD DUP9 SSTORE POP POP POP JUMPDEST POP POP POP POP POP POP POP JUMP JUMPDEST DUP3 DUP2 DUP4 CALLDATACOPY PUSH0 DUP4 DUP4 ADD MSTORE POP POP POP JUMP JUMPDEST PUSH0 PUSH2 0x240E DUP4 DUP6 PUSH2 0x1814 JUMP JUMPDEST SWAP4 POP PUSH2 0x241B DUP4 DUP6 DUP5 PUSH2 0x23F5 JUMP JUMPDEST PUSH2 0x2424 DUP4 PUSH2 0x1832 JUMP JUMPDEST DUP5 ADD SWAP1 POP SWAP4 SWAP3 POP POP POP JUMP JUMPDEST PUSH0 PUSH1 0x40 DUP3 ADD SWAP1 POP PUSH2 0x2442 PUSH0 DUP4 ADD DUP7 PUSH2 0x1788 JUMP JUMPDEST DUP2 DUP2 SUB PUSH1 0x20 DUP4 ADD MSTORE PUSH2 0x2455 DUP2 DUP5 DUP7 PUSH2 0x2403 JUMP JUMPDEST SWAP1 POP SWAP5 SWAP4 POP POP POP POP JUMP INVALID LOG2 PUSH5 0x6970667358 0x22 SLT KECCAK256 SWAP8 PUSH15 0x4F4DE8D9D58579A86E7453F37BFC01 SIGNEXTEND DUP7 SWAP13 PUSH3 0xBC7F34 BLOBHASH CALLDATASIZE BLOBHASH 0xB5 SELFBALANCE GASPRICE SWAP7 MUL PUSH5 0x736F6C6343 STOP ADDMOD BYTE STOP CALLER "
				},
				"gasEstimates": {
					"creation": {
						"codeDepositCost": "1873000",
						"executionCost": "infinite",
						"totalCost": "infinite"
					},
					"external": {
						"completeTransaction(uint256)": "infinite",
						"createTransaction(address,uint256)": "infinite",
						"disputeTransaction(uint256,string)": "infinite",
						"getTransaction(uint256)": "infinite",
						"owner()": "2538",
						"pause()": "infinite",
						"paused()": "2547",
						"propertyContract()": "infinite",
						"refundTransaction(uint256)": "infinite",
						"renounceOwnership()": "infinite",
						"resolveDispute(uint256,bool)": "infinite",
						"sharesContract()": "infinite",
						"transactionCount()": "2514",
						"transactions(uint256)": "infinite",
						"transferOwnership(address)": "infinite",
						"unpause()": "infinite"
					}
				},
				"methodIdentifiers": {
					"completeTransaction(uint256)": "f5e83e17",
					"createTransaction(address,uint256)": "1e7f8f0f",
					"disputeTransaction(uint256,string)": "e58d5bdd",
					"getTransaction(uint256)": "33ea3dc8",
					"owner()": "8da5cb5b",
					"pause()": "8456cb59",
					"paused()": "5c975abb",
					"propertyContract()": "8fca9673",
					"refundTransaction(uint256)": "d4e678b8",
					"renounceOwnership()": "715018a6",
					"resolveDispute(uint256,bool)": "34b25ee2",
					"sharesContract()": "7bc1ed63",
					"transactionCount()": "b77bf600",
					"transactions(uint256)": "9ace38c2",
					"transferOwnership(address)": "f2fde38b",
					"unpause()": "3f4ba83a"
				}
			},
			"storageLayout": {
				"storage": [
					{
						"astId": 8,
						"contract": "contracts/real-estate-marketplace/Escrow.sol:Escrow",
						"label": "_owner",
						"offset": 0,
						"slot": "0",
						"type": "t_address"
					},
					{
						"astId": 186,
						"contract": "contracts/real-estate-marketplace/Escrow.sol:Escrow",
						"label": "_paused",
						"offset": 20,
						"slot": "0",
						"type": "t_bool"
					},
					{
						"astId": 1642,
						"contract": "contracts/real-estate-marketplace/Escrow.sol:Escrow",
						"label": "transactionCount",
						"offset": 0,
						"slot": "1",
						"type": "t_uint256"
					},
					{
						"astId": 1647,
						"contract": "contracts/real-estate-marketplace/Escrow.sol:Escrow",
						"label": "transactions",
						"offset": 0,
						"slot": "2",
						"type": "t_mapping(t_uint256,t_struct(Transaction)1640_storage)"
					},
					{
						"astId": 1650,
						"contract": "contracts/real-estate-marketplace/Escrow.sol:Escrow",
						"label": "propertyContract",
						"offset": 0,
						"slot": "3",
						"type": "t_contract(IProperty)1460"
					},
					{
						"astId": 1653,
						"contract": "contracts/real-estate-marketplace/Escrow.sol:Escrow",
						"label": "sharesContract",
						"offset": 0,
						"slot": "4",
						"type": "t_contract(IShares)1603"
					}
				],
				"types": {
					"t_address": {
						"encoding": "inplace",
						"label": "address",
						"numberOfBytes": "20"
					},
					"t_bool": {
						"encoding": "inplace",
						"label": "bool",
						"numberOfBytes": "1"
					},
					"t_contract(IProperty)1460": {
						"encoding": "inplace",
						"label": "contract IProperty",
						"numberOfBytes": "20"
					},
					"t_contract(IShares)1603": {
						"encoding": "inplace",
						"label": "contract IShares",
						"numberOfBytes": "20"
					},
					"t_enum(EscrowState)1622": {
						"encoding": "inplace",
						"label": "enum Escrow.EscrowState",
						"numberOfBytes": "1"
					},
					"t_mapping(t_uint256,t_struct(Transaction)1640_storage)": {
						"encoding": "mapping",
						"key": "t_uint256",
						"label": "mapping(uint256 => struct Escrow.Transaction)",
						"numberOfBytes": "32",
						"value": "t_struct(Transaction)1640_storage"
					},
					"t_string_storage": {
						"encoding": "bytes",
						"label": "string",
						"numberOfBytes": "32"
					},
					"t_struct(Transaction)1640_storage": {
						"encoding": "inplace",
						"label": "struct Escrow.Transaction",
						"members": [
							{
								"astId": 1624,
								"contract": "contracts/real-estate-marketplace/Escrow.sol:Escrow",
								"label": "buyer",
								"offset": 0,
								"slot": "0",
								"type": "t_address"
							},
							{
								"astId": 1626,
								"contract": "contracts/real-estate-marketplace/Escrow.sol:Escrow",
								"label": "seller",
								"offset": 0,
								"slot": "1",
								"type": "t_address"
							},
							{
								"astId": 1628,
								"contract": "contracts/real-estate-marketplace/Escrow.sol:Escrow",
								"label": "basketId",
								"offset": 0,
								"slot": "2",
								"type": "t_uint256"
							},
							{
								"astId": 1630,
								"contract": "contracts/real-estate-marketplace/Escrow.sol:Escrow",
								"label": "amount",
								"offset": 0,
								"slot": "3",
								"type": "t_uint256"
							},
							{
								"astId": 1633,
								"contract": "contracts/real-estate-marketplace/Escrow.sol:Escrow",
								"label": "state",
								"offset": 0,
								"slot": "4",
								"type": "t_enum(EscrowState)1622"
							},
							{
								"astId": 1635,
								"contract": "contracts/real-estate-marketplace/Escrow.sol:Escrow",
								"label": "createdAt",
								"offset": 0,
								"slot": "5",
								"type": "t_uint256"
							},
							{
								"astId": 1637,
								"contract": "contracts/real-estate-marketplace/Escrow.sol:Escrow",
								"label": "updatedAt",
								"offset": 0,
								"slot": "6",
								"type": "t_uint256"
							},
							{
								"astId": 1639,
								"contract": "contracts/real-estate-marketplace/Escrow.sol:Escrow",
								"label": "disputeReason",
								"offset": 0,
								"slot": "7",
								"type": "t_string_storage"
							}
						],
						"numberOfBytes": "256"
					},
					"t_uint256": {
						"encoding": "inplace",
						"label": "uint256",
						"numberOfBytes": "32"
					}
				}
			},
			"userdoc": {
				"kind": "user",
				"methods": {},
				"version": 1
			}
		}
	}
}