{
	"contracts/real-estate-marketplace/Marketplace.sol": {
		"Marketplace": {
			"abi": [
				{
					"inputs": [
						{
							"internalType": "contract IERC20",
							"name": "_paymentToken",
							"type": "address"
						},
						{
							"internalType": "contract IAlvaraProtocol",
							"name": "_alvaraProtocol",
							"type": "address"
						}
					],
					"stateMutability": "nonpayable",
					"type": "constructor"
				},
				{
					"inputs": [
						{
							"internalType": "address",
							"name": "target",
							"type": "address"
						}
					],
					"name": "AddressEmptyCode",
					"type": "error"
				},
				{
					"inputs": [
						{
							"internalType": "address",
							"name": "account",
							"type": "address"
						}
					],
					"name": "AddressInsufficientBalance",
					"type": "error"
				},
				{
					"inputs": [],
					"name": "EnforcedPause",
					"type": "error"
				},
				{
					"inputs": [],
					"name": "ExpectedPause",
					"type": "error"
				},
				{
					"inputs": [],
					"name": "FailedInnerCall",
					"type": "error"
				},
				{
					"inputs": [
						{
							"internalType": "address",
							"name": "owner",
							"type": "address"
						}
					],
					"name": "OwnableInvalidOwner",
					"type": "error"
				},
				{
					"inputs": [
						{
							"internalType": "address",
							"name": "account",
							"type": "address"
						}
					],
					"name": "OwnableUnauthorizedAccount",
					"type": "error"
				},
				{
					"inputs": [
						{
							"internalType": "address",
							"name": "token",
							"type": "address"
						}
					],
					"name": "SafeERC20FailedOperation",
					"type": "error"
				},
				{
					"anonymous": false,
					"inputs": [
						{
							"indexed": true,
							"internalType": "address",
							"name": "previousOwner",
							"type": "address"
						},
						{
							"indexed": true,
							"internalType": "address",
							"name": "newOwner",
							"type": "address"
						}
					],
					"name": "OwnershipTransferred",
					"type": "event"
				},
				{
					"anonymous": false,
					"inputs": [
						{
							"indexed": false,
							"internalType": "address",
							"name": "account",
							"type": "address"
						}
					],
					"name": "Paused",
					"type": "event"
				},
				{
					"anonymous": false,
					"inputs": [
						{
							"indexed": false,
							"internalType": "uint256",
							"name": "propertyId",
							"type": "uint256"
						},
						{
							"indexed": true,
							"internalType": "address",
							"name": "owner",
							"type": "address"
						},
						{
							"indexed": false,
							"internalType": "uint256",
							"name": "price",
							"type": "uint256"
						},
						{
							"indexed": false,
							"internalType": "uint256",
							"name": "totalShares",
							"type": "uint256"
						}
					],
					"name": "PropertyListed",
					"type": "event"
				},
				{
					"anonymous": false,
					"inputs": [
						{
							"indexed": false,
							"internalType": "uint256",
							"name": "propertyId",
							"type": "uint256"
						},
						{
							"indexed": true,
							"internalType": "address",
							"name": "buyer",
							"type": "address"
						},
						{
							"indexed": false,
							"internalType": "uint256",
							"name": "shares",
							"type": "uint256"
						}
					],
					"name": "PropertySold",
					"type": "event"
				},
				{
					"anonymous": false,
					"inputs": [
						{
							"indexed": false,
							"internalType": "uint256",
							"name": "propertyId",
							"type": "uint256"
						},
						{
							"indexed": true,
							"internalType": "address",
							"name": "buyer",
							"type": "address"
						},
						{
							"indexed": false,
							"internalType": "uint256",
							"name": "shares",
							"type": "uint256"
						}
					],
					"name": "SharesPurchased",
					"type": "event"
				},
				{
					"anonymous": false,
					"inputs": [
						{
							"indexed": false,
							"internalType": "address",
							"name": "account",
							"type": "address"
						}
					],
					"name": "Unpaused",
					"type": "event"
				},
				{
					"inputs": [],
					"name": "alvaraProtocol",
					"outputs": [
						{
							"internalType": "contract IAlvaraProtocol",
							"name": "",
							"type": "address"
						}
					],
					"stateMutability": "view",
					"type": "function"
				},
				{
					"inputs": [
						{
							"internalType": "uint256",
							"name": "propertyId",
							"type": "uint256"
						},
						{
							"internalType": "address",
							"name": "buyer",
							"type": "address"
						}
					],
					"name": "finalizeSale",
					"outputs": [],
					"stateMutability": "nonpayable",
					"type": "function"
				},
				{
					"inputs": [
						{
							"internalType": "uint256",
							"name": "propertyId",
							"type": "uint256"
						}
					],
					"name": "integrateWithAlvara",
					"outputs": [
						{
							"internalType": "bool",
							"name": "",
							"type": "bool"
						}
					],
					"stateMutability": "view",
					"type": "function"
				},
				{
					"inputs": [
						{
							"internalType": "uint256",
							"name": "price",
							"type": "uint256"
						},
						{
							"internalType": "uint256",
							"name": "totalShares",
							"type": "uint256"
						},
						{
							"internalType": "address",
							"name": "tokenAddress",
							"type": "address"
						}
					],
					"name": "listProperty",
					"outputs": [],
					"stateMutability": "nonpayable",
					"type": "function"
				},
				{
					"inputs": [],
					"name": "nextPropertyId",
					"outputs": [
						{
							"internalType": "uint256",
							"name": "",
							"type": "uint256"
						}
					],
					"stateMutability": "view",
					"type": "function"
				},
				{
					"inputs": [],
					"name": "owner",
					"outputs": [
						{
							"internalType": "address",
							"name": "",
							"type": "address"
						}
					],
					"stateMutability": "view",
					"type": "function"
				},
				{
					"inputs": [],
					"name": "pause",
					"outputs": [],
					"stateMutability": "nonpayable",
					"type": "function"
				},
				{
					"inputs": [],
					"name": "paused",
					"outputs": [
						{
							"internalType": "bool",
							"name": "",
							"type": "bool"
						}
					],
					"stateMutability": "view",
					"type": "function"
				},
				{
					"inputs": [],
					"name": "paymentToken",
					"outputs": [
						{
							"internalType": "contract IERC20",
							"name": "",
							"type": "address"
						}
					],
					"stateMutability": "view",
					"type": "function"
				},
				{
					"inputs": [
						{
							"internalType": "uint256",
							"name": "",
							"type": "uint256"
						}
					],
					"name": "properties",
					"outputs": [
						{
							"internalType": "address",
							"name": "owner",
							"type": "address"
						},
						{
							"internalType": "uint256",
							"name": "price",
							"type": "uint256"
						},
						{
							"internalType": "uint256",
							"name": "totalShares",
							"type": "uint256"
						},
						{
							"internalType": "uint256",
							"name": "availableShares",
							"type": "uint256"
						},
						{
							"internalType": "address",
							"name": "tokenAddress",
							"type": "address"
						},
						{
							"internalType": "bool",
							"name": "isListed",
							"type": "bool"
						}
					],
					"stateMutability": "view",
					"type": "function"
				},
				{
					"inputs": [
						{
							"internalType": "uint256",
							"name": "propertyId",
							"type": "uint256"
						},
						{
							"internalType": "uint256",
							"name": "sharesToBuy",
							"type": "uint256"
						}
					],
					"name": "purchaseShares",
					"outputs": [],
					"stateMutability": "nonpayable",
					"type": "function"
				},
				{
					"inputs": [],
					"name": "renounceOwnership",
					"outputs": [],
					"stateMutability": "nonpayable",
					"type": "function"
				},
				{
					"inputs": [
						{
							"internalType": "address",
							"name": "newOwner",
							"type": "address"
						}
					],
					"name": "transferOwnership",
					"outputs": [],
					"stateMutability": "nonpayable",
					"type": "function"
				},
				{
					"inputs": [],
					"name": "unpause",
					"outputs": [],
					"stateMutability": "nonpayable",
					"type": "function"
				}
			],
			"devdoc": {
				"errors": {
					"AddressEmptyCode(address)": [
						{
							"details": "There's no code at `target` (it is not a contract)."
						}
					],
					"AddressInsufficientBalance(address)": [
						{
							"details": "The ETH balance of the account is not enough to perform the operation."
						}
					],
					"EnforcedPause()": [
						{
							"details": "The operation failed because the contract is paused."
						}
					],
					"ExpectedPause()": [
						{
							"details": "The operation failed because the contract is not paused."
						}
					],
					"FailedInnerCall()": [
						{
							"details": "A call to an address target failed. The target may have reverted."
						}
					],
					"OwnableInvalidOwner(address)": [
						{
							"details": "The owner is not a valid owner account. (eg. `address(0)`)"
						}
					],
					"OwnableUnauthorizedAccount(address)": [
						{
							"details": "The caller account is not authorized to perform an operation."
						}
					],
					"SafeERC20FailedOperation(address)": [
						{
							"details": "An operation with an ERC20 token failed."
						}
					]
				},
				"events": {
					"Paused(address)": {
						"details": "Emitted when the pause is triggered by `account`."
					},
					"Unpaused(address)": {
						"details": "Emitted when the pause is lifted by `account`."
					}
				},
				"kind": "dev",
				"methods": {
					"owner()": {
						"details": "Returns the address of the current owner."
					},
					"paused()": {
						"details": "Returns true if the contract is paused, and false otherwise."
					},
					"renounceOwnership()": {
						"details": "Leaves the contract without owner. It will not be possible to call `onlyOwner` functions. Can only be called by the current owner. NOTE: Renouncing ownership will leave the contract without an owner, thereby disabling any functionality that is only available to the owner."
					},
					"transferOwnership(address)": {
						"details": "Transfers ownership of the contract to a new account (`newOwner`). Can only be called by the current owner."
					}
				},
				"version": 1
			},
			"evm": {
				"assembly": "    /* \"contracts/real-estate-marketplace/Marketplace.sol\":460:4067  contract Marketplace is Ownable, Pausable {... */\n  mstore(0x40, 0x80)\n    /* \"contracts/real-estate-marketplace/Marketplace.sol\":1363:1537  constructor(IERC20 _paymentToken, IAlvaraProtocol _alvaraProtocol) Ownable(msg.sender) {... */\n  callvalue\n  dup1\n  iszero\n  tag_1\n  jumpi\n  0x00\n  dup1\n  revert\ntag_1:\n  pop\n  mload(0x40)\n  sub(codesize, bytecodeSize)\n  dup1\n  bytecodeSize\n  dup4\n  codecopy\n  dup2\n  dup2\n  add\n  0x40\n  mstore\n  dup2\n  add\n  swap1\n  tag_2\n  swap2\n  swap1\n  tag_3\n  jump\t// in\ntag_2:\n    /* \"contracts/real-estate-marketplace/Marketplace.sol\":1438:1448  msg.sender */\n  caller\n    /* \"@openzeppelin/contracts/access/Ownable.sol\":1297:1298  0 */\n  0x00\n    /* \"@openzeppelin/contracts/access/Ownable.sol\":1273:1299  initialOwner == address(0) */\n  0xffffffffffffffffffffffffffffffffffffffff\n  and\n    /* \"@openzeppelin/contracts/access/Ownable.sol\":1273:1285  initialOwner */\n  dup2\n    /* \"@openzeppelin/contracts/access/Ownable.sol\":1273:1299  initialOwner == address(0) */\n  0xffffffffffffffffffffffffffffffffffffffff\n  and\n  sub\n    /* \"@openzeppelin/contracts/access/Ownable.sol\":1269:1364  if (initialOwner == address(0)) {... */\n  tag_8\n  jumpi\n    /* \"@openzeppelin/contracts/access/Ownable.sol\":1350:1351  0 */\n  0x00\n    /* \"@openzeppelin/contracts/access/Ownable.sol\":1322:1353  OwnableInvalidOwner(address(0)) */\n  mload(0x40)\n  0x1e4fbdf700000000000000000000000000000000000000000000000000000000\n  dup2\n  mstore\n  0x04\n  add\n  tag_9\n  swap2\n  swap1\n  tag_10\n  jump\t// in\ntag_9:\n  mload(0x40)\n  dup1\n  swap2\n  sub\n  swap1\n  revert\n    /* \"@openzeppelin/contracts/access/Ownable.sol\":1269:1364  if (initialOwner == address(0)) {... */\ntag_8:\n    /* \"@openzeppelin/contracts/access/Ownable.sol\":1373:1405  _transferOwnership(initialOwner) */\n  tag_11\n    /* \"@openzeppelin/contracts/access/Ownable.sol\":1392:1404  initialOwner */\n  dup2\n    /* \"@openzeppelin/contracts/access/Ownable.sol\":1373:1391  _transferOwnership */\n  shl(0x20, tag_12)\n    /* \"@openzeppelin/contracts/access/Ownable.sol\":1373:1405  _transferOwnership(initialOwner) */\n  0x20\n  shr\n  jump\t// in\ntag_11:\n    /* \"@openzeppelin/contracts/access/Ownable.sol\":1225:1412  constructor(address initialOwner) {... */\n  pop\n    /* \"@openzeppelin/contracts/utils/Pausable.sol\":1241:1246  false */\n  0x00\n    /* \"@openzeppelin/contracts/utils/Pausable.sol\":1231:1238  _paused */\n  dup1\n  0x14\n    /* \"@openzeppelin/contracts/utils/Pausable.sol\":1231:1246  _paused = false */\n  0x0100\n  exp\n  dup2\n  sload\n  dup2\n  0xff\n  mul\n  not\n  and\n  swap1\n  dup4\n  iszero\n  iszero\n  mul\n  or\n  swap1\n  sstore\n  pop\n    /* \"contracts/real-estate-marketplace/Marketplace.sol\":1475:1488  _paymentToken */\n  dup2\n    /* \"contracts/real-estate-marketplace/Marketplace.sol\":1460:1472  paymentToken */\n  0x03\n  0x00\n    /* \"contracts/real-estate-marketplace/Marketplace.sol\":1460:1488  paymentToken = _paymentToken */\n  0x0100\n  exp\n  dup2\n  sload\n  dup2\n  0xffffffffffffffffffffffffffffffffffffffff\n  mul\n  not\n  and\n  swap1\n  dup4\n  0xffffffffffffffffffffffffffffffffffffffff\n  and\n  mul\n  or\n  swap1\n  sstore\n  pop\n    /* \"contracts/real-estate-marketplace/Marketplace.sol\":1515:1530  _alvaraProtocol */\n  dup1\n    /* \"contracts/real-estate-marketplace/Marketplace.sol\":1498:1512  alvaraProtocol */\n  0x04\n  0x00\n    /* \"contracts/real-estate-marketplace/Marketplace.sol\":1498:1530  alvaraProtocol = _alvaraProtocol */\n  0x0100\n  exp\n  dup2\n  sload\n  dup2\n  0xffffffffffffffffffffffffffffffffffffffff\n  mul\n  not\n  and\n  swap1\n  dup4\n  0xffffffffffffffffffffffffffffffffffffffff\n  and\n  mul\n  or\n  swap1\n  sstore\n  pop\n    /* \"contracts/real-estate-marketplace/Marketplace.sol\":1363:1537  constructor(IERC20 _paymentToken, IAlvaraProtocol _alvaraProtocol) Ownable(msg.sender) {... */\n  pop\n  pop\n    /* \"contracts/real-estate-marketplace/Marketplace.sol\":460:4067  contract Marketplace is Ownable, Pausable {... */\n  jump(tag_15)\n    /* \"@openzeppelin/contracts/access/Ownable.sol\":2912:3099  function _transferOwnership(address newOwner) internal virtual {... */\ntag_12:\n    /* \"@openzeppelin/contracts/access/Ownable.sol\":2985:3001  address oldOwner */\n  0x00\n    /* \"@openzeppelin/contracts/access/Ownable.sol\":3004:3010  _owner */\n  dup1\n  0x00\n  swap1\n  sload\n  swap1\n  0x0100\n  exp\n  swap1\n  div\n  0xffffffffffffffffffffffffffffffffffffffff\n  and\n    /* \"@openzeppelin/contracts/access/Ownable.sol\":2985:3010  address oldOwner = _owner */\n  swap1\n  pop\n    /* \"@openzeppelin/contracts/access/Ownable.sol\":3029:3037  newOwner */\n  dup2\n    /* \"@openzeppelin/contracts/access/Ownable.sol\":3020:3026  _owner */\n  0x00\n  dup1\n    /* \"@openzeppelin/contracts/access/Ownable.sol\":3020:3037  _owner = newOwner */\n  0x0100\n  exp\n  dup2\n  sload\n  dup2\n  0xffffffffffffffffffffffffffffffffffffffff\n  mul\n  not\n  and\n  swap1\n  dup4\n  0xffffffffffffffffffffffffffffffffffffffff\n  and\n  mul\n  or\n  swap1\n  sstore\n  pop\n    /* \"@openzeppelin/contracts/access/Ownable.sol\":3083:3091  newOwner */\n  dup2\n    /* \"@openzeppelin/contracts/access/Ownable.sol\":3052:3092  OwnershipTransferred(oldOwner, newOwner) */\n  0xffffffffffffffffffffffffffffffffffffffff\n  and\n    /* \"@openzeppelin/contracts/access/Ownable.sol\":3073:3081  oldOwner */\n  dup2\n    /* \"@openzeppelin/contracts/access/Ownable.sol\":3052:3092  OwnershipTransferred(oldOwner, newOwner) */\n  0xffffffffffffffffffffffffffffffffffffffff\n  and\n  0x8be0079c531659141344cd1fd0a4f28419497f9722a3daafe3b4186f6b6457e0\n  mload(0x40)\n  mload(0x40)\n  dup1\n  swap2\n  sub\n  swap1\n  log3\n    /* \"@openzeppelin/contracts/access/Ownable.sol\":2975:3099  {... */\n  pop\n    /* \"@openzeppelin/contracts/access/Ownable.sol\":2912:3099  function _transferOwnership(address newOwner) internal virtual {... */\n  pop\n  jump\t// out\n    /* \"#utility.yul\":88:205   */\ntag_18:\n    /* \"#utility.yul\":197:198   */\n  0x00\n    /* \"#utility.yul\":194:195   */\n  dup1\n    /* \"#utility.yul\":187:199   */\n  revert\n    /* \"#utility.yul\":334:460   */\ntag_20:\n    /* \"#utility.yul\":371:378   */\n  0x00\n    /* \"#utility.yul\":411:453   */\n  0xffffffffffffffffffffffffffffffffffffffff\n    /* \"#utility.yul\":404:409   */\n  dup3\n    /* \"#utility.yul\":400:454   */\n  and\n    /* \"#utility.yul\":389:454   */\n  swap1\n  pop\n    /* \"#utility.yul\":334:460   */\n  swap2\n  swap1\n  pop\n  jump\t// out\n    /* \"#utility.yul\":466:562   */\ntag_21:\n    /* \"#utility.yul\":503:510   */\n  0x00\n    /* \"#utility.yul\":532:556   */\n  tag_35\n    /* \"#utility.yul\":550:555   */\n  dup3\n    /* \"#utility.yul\":532:556   */\n  tag_20\n  jump\t// in\ntag_35:\n    /* \"#utility.yul\":521:556   */\n  swap1\n  pop\n    /* \"#utility.yul\":466:562   */\n  swap2\n  swap1\n  pop\n  jump\t// out\n    /* \"#utility.yul\":568:678   */\ntag_22:\n    /* \"#utility.yul\":619:626   */\n  0x00\n    /* \"#utility.yul\":648:672   */\n  tag_37\n    /* \"#utility.yul\":666:671   */\n  dup3\n    /* \"#utility.yul\":648:672   */\n  tag_21\n  jump\t// in\ntag_37:\n    /* \"#utility.yul\":637:672   */\n  swap1\n  pop\n    /* \"#utility.yul\":568:678   */\n  swap2\n  swap1\n  pop\n  jump\t// out\n    /* \"#utility.yul\":684:834   */\ntag_23:\n    /* \"#utility.yul\":771:809   */\n  tag_39\n    /* \"#utility.yul\":803:808   */\n  dup2\n    /* \"#utility.yul\":771:809   */\n  tag_22\n  jump\t// in\ntag_39:\n    /* \"#utility.yul\":764:769   */\n  dup2\n    /* \"#utility.yul\":761:810   */\n  eq\n    /* \"#utility.yul\":751:828   */\n  tag_40\n  jumpi\n    /* \"#utility.yul\":824:825   */\n  0x00\n    /* \"#utility.yul\":821:822   */\n  dup1\n    /* \"#utility.yul\":814:826   */\n  revert\n    /* \"#utility.yul\":751:828   */\ntag_40:\n    /* \"#utility.yul\":684:834   */\n  pop\n  jump\t// out\n    /* \"#utility.yul\":840:1011   */\ntag_24:\n    /* \"#utility.yul\":911:916   */\n  0x00\n    /* \"#utility.yul\":942:948   */\n  dup2\n    /* \"#utility.yul\":936:949   */\n  mload\n    /* \"#utility.yul\":927:949   */\n  swap1\n  pop\n    /* \"#utility.yul\":958:1005   */\n  tag_42\n    /* \"#utility.yul\":999:1004   */\n  dup2\n    /* \"#utility.yul\":958:1005   */\n  tag_23\n  jump\t// in\ntag_42:\n    /* \"#utility.yul\":840:1011   */\n  swap3\n  swap2\n  pop\n  pop\n  jump\t// out\n    /* \"#utility.yul\":1017:1137   */\ntag_25:\n    /* \"#utility.yul\":1078:1085   */\n  0x00\n    /* \"#utility.yul\":1107:1131   */\n  tag_44\n    /* \"#utility.yul\":1125:1130   */\n  dup3\n    /* \"#utility.yul\":1107:1131   */\n  tag_21\n  jump\t// in\ntag_44:\n    /* \"#utility.yul\":1096:1131   */\n  swap1\n  pop\n    /* \"#utility.yul\":1017:1137   */\n  swap2\n  swap1\n  pop\n  jump\t// out\n    /* \"#utility.yul\":1143:1313   */\ntag_26:\n    /* \"#utility.yul\":1240:1288   */\n  tag_46\n    /* \"#utility.yul\":1282:1287   */\n  dup2\n    /* \"#utility.yul\":1240:1288   */\n  tag_25\n  jump\t// in\ntag_46:\n    /* \"#utility.yul\":1233:1238   */\n  dup2\n    /* \"#utility.yul\":1230:1289   */\n  eq\n    /* \"#utility.yul\":1220:1307   */\n  tag_47\n  jumpi\n    /* \"#utility.yul\":1303:1304   */\n  0x00\n    /* \"#utility.yul\":1300:1301   */\n  dup1\n    /* \"#utility.yul\":1293:1305   */\n  revert\n    /* \"#utility.yul\":1220:1307   */\ntag_47:\n    /* \"#utility.yul\":1143:1313   */\n  pop\n  jump\t// out\n    /* \"#utility.yul\":1319:1510   */\ntag_27:\n    /* \"#utility.yul\":1400:1405   */\n  0x00\n    /* \"#utility.yul\":1431:1437   */\n  dup2\n    /* \"#utility.yul\":1425:1438   */\n  mload\n    /* \"#utility.yul\":1416:1438   */\n  swap1\n  pop\n    /* \"#utility.yul\":1447:1504   */\n  tag_49\n    /* \"#utility.yul\":1498:1503   */\n  dup2\n    /* \"#utility.yul\":1447:1504   */\n  tag_26\n  jump\t// in\ntag_49:\n    /* \"#utility.yul\":1319:1510   */\n  swap3\n  swap2\n  pop\n  pop\n  jump\t// out\n    /* \"#utility.yul\":1516:2099   */\ntag_3:\n    /* \"#utility.yul\":1633:1639   */\n  0x00\n    /* \"#utility.yul\":1641:1647   */\n  dup1\n    /* \"#utility.yul\":1690:1692   */\n  0x40\n    /* \"#utility.yul\":1678:1687   */\n  dup4\n    /* \"#utility.yul\":1669:1676   */\n  dup6\n    /* \"#utility.yul\":1665:1688   */\n  sub\n    /* \"#utility.yul\":1661:1693   */\n  slt\n    /* \"#utility.yul\":1658:1777   */\n  iszero\n  tag_51\n  jumpi\n    /* \"#utility.yul\":1696:1775   */\n  tag_52\n  tag_18\n  jump\t// in\ntag_52:\n    /* \"#utility.yul\":1658:1777   */\ntag_51:\n    /* \"#utility.yul\":1816:1817   */\n  0x00\n    /* \"#utility.yul\":1841:1919   */\n  tag_53\n    /* \"#utility.yul\":1911:1918   */\n  dup6\n    /* \"#utility.yul\":1902:1908   */\n  dup3\n    /* \"#utility.yul\":1891:1900   */\n  dup7\n    /* \"#utility.yul\":1887:1909   */\n  add\n    /* \"#utility.yul\":1841:1919   */\n  tag_24\n  jump\t// in\ntag_53:\n    /* \"#utility.yul\":1831:1919   */\n  swap3\n  pop\n    /* \"#utility.yul\":1787:1929   */\n  pop\n    /* \"#utility.yul\":1968:1970   */\n  0x20\n    /* \"#utility.yul\":1994:2082   */\n  tag_54\n    /* \"#utility.yul\":2074:2081   */\n  dup6\n    /* \"#utility.yul\":2065:2071   */\n  dup3\n    /* \"#utility.yul\":2054:2063   */\n  dup7\n    /* \"#utility.yul\":2050:2072   */\n  add\n    /* \"#utility.yul\":1994:2082   */\n  tag_27\n  jump\t// in\ntag_54:\n    /* \"#utility.yul\":1984:2082   */\n  swap2\n  pop\n    /* \"#utility.yul\":1939:2092   */\n  pop\n    /* \"#utility.yul\":1516:2099   */\n  swap3\n  pop\n  swap3\n  swap1\n  pop\n  jump\t// out\n    /* \"#utility.yul\":2105:2223   */\ntag_28:\n    /* \"#utility.yul\":2192:2216   */\n  tag_56\n    /* \"#utility.yul\":2210:2215   */\n  dup2\n    /* \"#utility.yul\":2192:2216   */\n  tag_21\n  jump\t// in\ntag_56:\n    /* \"#utility.yul\":2187:2190   */\n  dup3\n    /* \"#utility.yul\":2180:2217   */\n  mstore\n    /* \"#utility.yul\":2105:2223   */\n  pop\n  pop\n  jump\t// out\n    /* \"#utility.yul\":2229:2451   */\ntag_10:\n    /* \"#utility.yul\":2322:2326   */\n  0x00\n    /* \"#utility.yul\":2360:2362   */\n  0x20\n    /* \"#utility.yul\":2349:2358   */\n  dup3\n    /* \"#utility.yul\":2345:2363   */\n  add\n    /* \"#utility.yul\":2337:2363   */\n  swap1\n  pop\n    /* \"#utility.yul\":2373:2444   */\n  tag_58\n    /* \"#utility.yul\":2441:2442   */\n  0x00\n    /* \"#utility.yul\":2430:2439   */\n  dup4\n    /* \"#utility.yul\":2426:2443   */\n  add\n    /* \"#utility.yul\":2417:2423   */\n  dup5\n    /* \"#utility.yul\":2373:2444   */\n  tag_28\n  jump\t// in\ntag_58:\n    /* \"#utility.yul\":2229:2451   */\n  swap3\n  swap2\n  pop\n  pop\n  jump\t// out\n    /* \"contracts/real-estate-marketplace/Marketplace.sol\":460:4067  contract Marketplace is Ownable, Pausable {... */\ntag_15:\n  dataSize(sub_0)\n  dup1\n  dataOffset(sub_0)\n  0x00\n  codecopy\n  0x00\n  return\nstop\n\nsub_0: assembly {\n        /* \"contracts/real-estate-marketplace/Marketplace.sol\":460:4067  contract Marketplace is Ownable, Pausable {... */\n      mstore(0x40, 0x80)\n      callvalue\n      dup1\n      iszero\n      tag_1\n      jumpi\n      0x00\n      dup1\n      revert\n    tag_1:\n      pop\n      jumpi(tag_2, lt(calldatasize, 0x04))\n      shr(0xe0, calldataload(0x00))\n      dup1\n      0x8da5cb5b\n      gt\n      tag_17\n      jumpi\n      dup1\n      0xbaf52c77\n      gt\n      tag_18\n      jumpi\n      dup1\n      0xbaf52c77\n      eq\n      tag_13\n      jumpi\n      dup1\n      0xd2bcdc60\n      eq\n      tag_14\n      jumpi\n      dup1\n      0xf2fde38b\n      eq\n      tag_15\n      jumpi\n      dup1\n      0xf7b10808\n      eq\n      tag_16\n      jumpi\n      jump(tag_2)\n    tag_18:\n      dup1\n      0x8da5cb5b\n      eq\n      tag_10\n      jumpi\n      dup1\n      0xb41b936d\n      eq\n      tag_11\n      jumpi\n      dup1\n      0xb4d346be\n      eq\n      tag_12\n      jumpi\n      jump(tag_2)\n    tag_17:\n      dup1\n      0x5c975abb\n      gt\n      tag_19\n      jumpi\n      dup1\n      0x5c975abb\n      eq\n      tag_6\n      jumpi\n      dup1\n      0x715018a6\n      eq\n      tag_7\n      jumpi\n      dup1\n      0x8456cb59\n      eq\n      tag_8\n      jumpi\n      dup1\n      0x86aa217e\n      eq\n      tag_9\n      jumpi\n      jump(tag_2)\n    tag_19:\n      dup1\n      0x3013ce29\n      eq\n      tag_3\n      jumpi\n      dup1\n      0x39500f34\n      eq\n      tag_4\n      jumpi\n      dup1\n      0x3f4ba83a\n      eq\n      tag_5\n      jumpi\n    tag_2:\n      0x00\n      dup1\n      revert\n        /* \"contracts/real-estate-marketplace/Marketplace.sol\":1190:1216  IERC20 public paymentToken */\n    tag_3:\n      tag_20\n      tag_21\n      jump\t// in\n    tag_20:\n      mload(0x40)\n      tag_22\n      swap2\n      swap1\n      tag_23\n      jump\t// in\n    tag_22:\n      mload(0x40)\n      dup1\n      swap2\n      sub\n      swap1\n      return\n        /* \"contracts/real-estate-marketplace/Marketplace.sol\":1150:1179  uint256 public nextPropertyId */\n    tag_4:\n      tag_24\n      tag_25\n      jump\t// in\n    tag_24:\n      mload(0x40)\n      tag_26\n      swap2\n      swap1\n      tag_27\n      jump\t// in\n    tag_26:\n      mload(0x40)\n      dup1\n      swap2\n      sub\n      swap1\n      return\n        /* \"contracts/real-estate-marketplace/Marketplace.sol\":3787:3852  function unpause() external onlyOwner {... */\n    tag_5:\n      tag_28\n      tag_29\n      jump\t// in\n    tag_28:\n      stop\n        /* \"@openzeppelin/contracts/utils/Pausable.sol\":1850:1934  function paused() public view virtual returns (bool) {... */\n    tag_6:\n      tag_30\n      tag_31\n      jump\t// in\n    tag_30:\n      mload(0x40)\n      tag_32\n      swap2\n      swap1\n      tag_33\n      jump\t// in\n    tag_32:\n      mload(0x40)\n      dup1\n      swap2\n      sub\n      swap1\n      return\n        /* \"@openzeppelin/contracts/access/Ownable.sol\":2293:2394  function renounceOwnership() public virtual onlyOwner {... */\n    tag_7:\n      tag_34\n      tag_35\n      jump\t// in\n    tag_34:\n      stop\n        /* \"contracts/real-estate-marketplace/Marketplace.sol\":3670:3731  function pause() external onlyOwner {... */\n    tag_8:\n      tag_36\n      tag_37\n      jump\t// in\n    tag_36:\n      stop\n        /* \"contracts/real-estate-marketplace/Marketplace.sol\":1582:2210  function listProperty(uint256 price, uint256 totalShares, address tokenAddress) external whenNotPaused {... */\n    tag_9:\n      tag_38\n      0x04\n      dup1\n      calldatasize\n      sub\n      dup2\n      add\n      swap1\n      tag_39\n      swap2\n      swap1\n      tag_40\n      jump\t// in\n    tag_39:\n      tag_41\n      jump\t// in\n    tag_38:\n      stop\n        /* \"@openzeppelin/contracts/access/Ownable.sol\":1638:1723  function owner() public view virtual returns (address) {... */\n    tag_10:\n      tag_42\n      tag_43\n      jump\t// in\n    tag_42:\n      mload(0x40)\n      tag_44\n      swap2\n      swap1\n      tag_45\n      jump\t// in\n    tag_44:\n      mload(0x40)\n      dup1\n      swap2\n      sub\n      swap1\n      return\n        /* \"contracts/real-estate-marketplace/Marketplace.sol\":1261:1298  IAlvaraProtocol public alvaraProtocol */\n    tag_11:\n      tag_46\n      tag_47\n      jump\t// in\n    tag_46:\n      mload(0x40)\n      tag_48\n      swap2\n      swap1\n      tag_49\n      jump\t// in\n    tag_48:\n      mload(0x40)\n      dup1\n      swap2\n      sub\n      swap1\n      return\n        /* \"contracts/real-estate-marketplace/Marketplace.sol\":3015:3601  function finalizeSale(uint256 propertyId, address buyer) external whenNotPaused {... */\n    tag_12:\n      tag_50\n      0x04\n      dup1\n      calldatasize\n      sub\n      dup2\n      add\n      swap1\n      tag_51\n      swap2\n      swap1\n      tag_52\n      jump\t// in\n    tag_51:\n      tag_53\n      jump\t// in\n    tag_50:\n      stop\n        /* \"contracts/real-estate-marketplace/Marketplace.sol\":3912:4065  function integrateWithAlvara(uint256 propertyId) external view returns (bool) {... */\n    tag_13:\n      tag_54\n      0x04\n      dup1\n      calldatasize\n      sub\n      dup2\n      add\n      swap1\n      tag_55\n      swap2\n      swap1\n      tag_56\n      jump\t// in\n    tag_55:\n      tag_57\n      jump\t// in\n    tag_54:\n      mload(0x40)\n      tag_58\n      swap2\n      swap1\n      tag_33\n      jump\t// in\n    tag_58:\n      mload(0x40)\n      dup1\n      swap2\n      sub\n      swap1\n      return\n        /* \"contracts/real-estate-marketplace/Marketplace.sol\":2269:2954  function purchaseShares(uint256 propertyId, uint256 sharesToBuy) external whenNotPaused {... */\n    tag_14:\n      tag_59\n      0x04\n      dup1\n      calldatasize\n      sub\n      dup2\n      add\n      swap1\n      tag_60\n      swap2\n      swap1\n      tag_61\n      jump\t// in\n    tag_60:\n      tag_62\n      jump\t// in\n    tag_59:\n      stop\n        /* \"@openzeppelin/contracts/access/Ownable.sol\":2543:2758  function transferOwnership(address newOwner) public virtual onlyOwner {... */\n    tag_15:\n      tag_63\n      0x04\n      dup1\n      calldatasize\n      sub\n      dup2\n      add\n      swap1\n      tag_64\n      swap2\n      swap1\n      tag_65\n      jump\t// in\n    tag_64:\n      tag_66\n      jump\t// in\n    tag_63:\n      stop\n        /* \"contracts/real-estate-marketplace/Marketplace.sol\":1098:1144  mapping(uint256 => Property) public properties */\n    tag_16:\n      tag_67\n      0x04\n      dup1\n      calldatasize\n      sub\n      dup2\n      add\n      swap1\n      tag_68\n      swap2\n      swap1\n      tag_56\n      jump\t// in\n    tag_68:\n      tag_69\n      jump\t// in\n    tag_67:\n      mload(0x40)\n      tag_70\n      swap7\n      swap6\n      swap5\n      swap4\n      swap3\n      swap2\n      swap1\n      tag_71\n      jump\t// in\n    tag_70:\n      mload(0x40)\n      dup1\n      swap2\n      sub\n      swap1\n      return\n        /* \"contracts/real-estate-marketplace/Marketplace.sol\":1190:1216  IERC20 public paymentToken */\n    tag_21:\n      0x03\n      0x00\n      swap1\n      sload\n      swap1\n      0x0100\n      exp\n      swap1\n      div\n      0xffffffffffffffffffffffffffffffffffffffff\n      and\n      dup2\n      jump\t// out\n        /* \"contracts/real-estate-marketplace/Marketplace.sol\":1150:1179  uint256 public nextPropertyId */\n    tag_25:\n      sload(0x02)\n      dup2\n      jump\t// out\n        /* \"contracts/real-estate-marketplace/Marketplace.sol\":3787:3852  function unpause() external onlyOwner {... */\n    tag_29:\n        /* \"@openzeppelin/contracts/access/Ownable.sol\":1531:1544  _checkOwner() */\n      tag_73\n        /* \"@openzeppelin/contracts/access/Ownable.sol\":1531:1542  _checkOwner */\n      tag_74\n        /* \"@openzeppelin/contracts/access/Ownable.sol\":1531:1544  _checkOwner() */\n      jump\t// in\n    tag_73:\n        /* \"contracts/real-estate-marketplace/Marketplace.sol\":3835:3845  _unpause() */\n      tag_76\n        /* \"contracts/real-estate-marketplace/Marketplace.sol\":3835:3843  _unpause */\n      tag_77\n        /* \"contracts/real-estate-marketplace/Marketplace.sol\":3835:3845  _unpause() */\n      jump\t// in\n    tag_76:\n        /* \"contracts/real-estate-marketplace/Marketplace.sol\":3787:3852  function unpause() external onlyOwner {... */\n      jump\t// out\n        /* \"@openzeppelin/contracts/utils/Pausable.sol\":1850:1934  function paused() public view virtual returns (bool) {... */\n    tag_31:\n        /* \"@openzeppelin/contracts/utils/Pausable.sol\":1897:1901  bool */\n      0x00\n        /* \"@openzeppelin/contracts/utils/Pausable.sol\":1920:1927  _paused */\n      dup1\n      0x14\n      swap1\n      sload\n      swap1\n      0x0100\n      exp\n      swap1\n      div\n      0xff\n      and\n        /* \"@openzeppelin/contracts/utils/Pausable.sol\":1913:1927  return _paused */\n      swap1\n      pop\n        /* \"@openzeppelin/contracts/utils/Pausable.sol\":1850:1934  function paused() public view virtual returns (bool) {... */\n      swap1\n      jump\t// out\n        /* \"@openzeppelin/contracts/access/Ownable.sol\":2293:2394  function renounceOwnership() public virtual onlyOwner {... */\n    tag_35:\n        /* \"@openzeppelin/contracts/access/Ownable.sol\":1531:1544  _checkOwner() */\n      tag_80\n        /* \"@openzeppelin/contracts/access/Ownable.sol\":1531:1542  _checkOwner */\n      tag_74\n        /* \"@openzeppelin/contracts/access/Ownable.sol\":1531:1544  _checkOwner() */\n      jump\t// in\n    tag_80:\n        /* \"@openzeppelin/contracts/access/Ownable.sol\":2357:2387  _transferOwnership(address(0)) */\n      tag_82\n        /* \"@openzeppelin/contracts/access/Ownable.sol\":2384:2385  0 */\n      0x00\n        /* \"@openzeppelin/contracts/access/Ownable.sol\":2357:2375  _transferOwnership */\n      tag_83\n        /* \"@openzeppelin/contracts/access/Ownable.sol\":2357:2387  _transferOwnership(address(0)) */\n      jump\t// in\n    tag_82:\n        /* \"@openzeppelin/contracts/access/Ownable.sol\":2293:2394  function renounceOwnership() public virtual onlyOwner {... */\n      jump\t// out\n        /* \"contracts/real-estate-marketplace/Marketplace.sol\":3670:3731  function pause() external onlyOwner {... */\n    tag_37:\n        /* \"@openzeppelin/contracts/access/Ownable.sol\":1531:1544  _checkOwner() */\n      tag_85\n        /* \"@openzeppelin/contracts/access/Ownable.sol\":1531:1542  _checkOwner */\n      tag_74\n        /* \"@openzeppelin/contracts/access/Ownable.sol\":1531:1544  _checkOwner() */\n      jump\t// in\n    tag_85:\n        /* \"contracts/real-estate-marketplace/Marketplace.sol\":3716:3724  _pause() */\n      tag_87\n        /* \"contracts/real-estate-marketplace/Marketplace.sol\":3716:3722  _pause */\n      tag_88\n        /* \"contracts/real-estate-marketplace/Marketplace.sol\":3716:3724  _pause() */\n      jump\t// in\n    tag_87:\n        /* \"contracts/real-estate-marketplace/Marketplace.sol\":3670:3731  function pause() external onlyOwner {... */\n      jump\t// out\n        /* \"contracts/real-estate-marketplace/Marketplace.sol\":1582:2210  function listProperty(uint256 price, uint256 totalShares, address tokenAddress) external whenNotPaused {... */\n    tag_41:\n        /* \"@openzeppelin/contracts/utils/Pausable.sol\":1474:1493  _requireNotPaused() */\n      tag_90\n        /* \"@openzeppelin/contracts/utils/Pausable.sol\":1474:1491  _requireNotPaused */\n      tag_91\n        /* \"@openzeppelin/contracts/utils/Pausable.sol\":1474:1493  _requireNotPaused() */\n      jump\t// in\n    tag_90:\n        /* \"contracts/real-estate-marketplace/Marketplace.sol\":1711:1712  0 */\n      0x00\n        /* \"contracts/real-estate-marketplace/Marketplace.sol\":1703:1708  price */\n      dup4\n        /* \"contracts/real-estate-marketplace/Marketplace.sol\":1703:1712  price > 0 */\n      gt\n        /* \"contracts/real-estate-marketplace/Marketplace.sol\":1695:1745  require(price > 0, \"Price must be greater than 0\") */\n      tag_93\n      jumpi\n      mload(0x40)\n      0x08c379a000000000000000000000000000000000000000000000000000000000\n      dup2\n      mstore\n      0x04\n      add\n      tag_94\n      swap1\n      tag_95\n      jump\t// in\n    tag_94:\n      mload(0x40)\n      dup1\n      swap2\n      sub\n      swap1\n      revert\n    tag_93:\n        /* \"contracts/real-estate-marketplace/Marketplace.sol\":1777:1778  0 */\n      0x00\n        /* \"contracts/real-estate-marketplace/Marketplace.sol\":1763:1774  totalShares */\n      dup3\n        /* \"contracts/real-estate-marketplace/Marketplace.sol\":1763:1778  totalShares > 0 */\n      gt\n        /* \"contracts/real-estate-marketplace/Marketplace.sol\":1755:1818  require(totalShares > 0, \"Total shares must be greater than 0\") */\n      tag_96\n      jumpi\n      mload(0x40)\n      0x08c379a000000000000000000000000000000000000000000000000000000000\n      dup2\n      mstore\n      0x04\n      add\n      tag_97\n      swap1\n      tag_98\n      jump\t// in\n    tag_97:\n      mload(0x40)\n      dup1\n      swap2\n      sub\n      swap1\n      revert\n    tag_96:\n        /* \"contracts/real-estate-marketplace/Marketplace.sol\":1866:2091  Property({... */\n      mload(0x40)\n      dup1\n      0xc0\n      add\n      0x40\n      mstore\n      dup1\n        /* \"contracts/real-estate-marketplace/Marketplace.sol\":1896:1906  msg.sender */\n      caller\n        /* \"contracts/real-estate-marketplace/Marketplace.sol\":1866:2091  Property({... */\n      0xffffffffffffffffffffffffffffffffffffffff\n      and\n      dup2\n      mstore\n      0x20\n      add\n        /* \"contracts/real-estate-marketplace/Marketplace.sol\":1927:1932  price */\n      dup5\n        /* \"contracts/real-estate-marketplace/Marketplace.sol\":1866:2091  Property({... */\n      dup2\n      mstore\n      0x20\n      add\n        /* \"contracts/real-estate-marketplace/Marketplace.sol\":1959:1970  totalShares */\n      dup4\n        /* \"contracts/real-estate-marketplace/Marketplace.sol\":1866:2091  Property({... */\n      dup2\n      mstore\n      0x20\n      add\n        /* \"contracts/real-estate-marketplace/Marketplace.sol\":2001:2012  totalShares */\n      dup4\n        /* \"contracts/real-estate-marketplace/Marketplace.sol\":1866:2091  Property({... */\n      dup2\n      mstore\n      0x20\n      add\n        /* \"contracts/real-estate-marketplace/Marketplace.sol\":2040:2052  tokenAddress */\n      dup3\n        /* \"contracts/real-estate-marketplace/Marketplace.sol\":1866:2091  Property({... */\n      0xffffffffffffffffffffffffffffffffffffffff\n      and\n      dup2\n      mstore\n      0x20\n      add\n        /* \"contracts/real-estate-marketplace/Marketplace.sol\":2076:2080  true */\n      0x01\n        /* \"contracts/real-estate-marketplace/Marketplace.sol\":1866:2091  Property({... */\n      iszero\n      iszero\n      dup2\n      mstore\n      pop\n        /* \"contracts/real-estate-marketplace/Marketplace.sol\":1837:1847  properties */\n      0x01\n        /* \"contracts/real-estate-marketplace/Marketplace.sol\":1837:1863  properties[nextPropertyId] */\n      0x00\n        /* \"contracts/real-estate-marketplace/Marketplace.sol\":1848:1862  nextPropertyId */\n      sload(0x02)\n        /* \"contracts/real-estate-marketplace/Marketplace.sol\":1837:1863  properties[nextPropertyId] */\n      dup2\n      mstore\n      0x20\n      add\n      swap1\n      dup2\n      mstore\n      0x20\n      add\n      0x00\n      keccak256\n        /* \"contracts/real-estate-marketplace/Marketplace.sol\":1837:2091  properties[nextPropertyId] = Property({... */\n      0x00\n      dup3\n      add\n      mload\n      dup2\n      0x00\n      add\n      exp(0x0100, 0x00)\n      dup2\n      sload\n      dup2\n      0xffffffffffffffffffffffffffffffffffffffff\n      mul\n      not\n      and\n      swap1\n      dup4\n      0xffffffffffffffffffffffffffffffffffffffff\n      and\n      mul\n      or\n      swap1\n      sstore\n      pop\n      0x20\n      dup3\n      add\n      mload\n      dup2\n      0x01\n      add\n      sstore\n      0x40\n      dup3\n      add\n      mload\n      dup2\n      0x02\n      add\n      sstore\n      0x60\n      dup3\n      add\n      mload\n      dup2\n      0x03\n      add\n      sstore\n      0x80\n      dup3\n      add\n      mload\n      dup2\n      0x04\n      add\n      exp(0x0100, 0x00)\n      dup2\n      sload\n      dup2\n      0xffffffffffffffffffffffffffffffffffffffff\n      mul\n      not\n      and\n      swap1\n      dup4\n      0xffffffffffffffffffffffffffffffffffffffff\n      and\n      mul\n      or\n      swap1\n      sstore\n      pop\n      0xa0\n      dup3\n      add\n      mload\n      dup2\n      0x04\n      add\n      exp(0x0100, 0x14)\n      dup2\n      sload\n      dup2\n      0xff\n      mul\n      not\n      and\n      swap1\n      dup4\n      iszero\n      iszero\n      mul\n      or\n      swap1\n      sstore\n      pop\n      swap1\n      pop\n      pop\n        /* \"contracts/real-estate-marketplace/Marketplace.sol\":2146:2156  msg.sender */\n      caller\n        /* \"contracts/real-estate-marketplace/Marketplace.sol\":2115:2177  PropertyListed(nextPropertyId, msg.sender, price, totalShares) */\n      0xffffffffffffffffffffffffffffffffffffffff\n      and\n      0x2c479e2e638a3a97a6f194336f17f298b4ec7145f37c7d35ff6346f9cd4a0030\n        /* \"contracts/real-estate-marketplace/Marketplace.sol\":2130:2144  nextPropertyId */\n      sload(0x02)\n        /* \"contracts/real-estate-marketplace/Marketplace.sol\":2158:2163  price */\n      dup6\n        /* \"contracts/real-estate-marketplace/Marketplace.sol\":2165:2176  totalShares */\n      dup6\n        /* \"contracts/real-estate-marketplace/Marketplace.sol\":2115:2177  PropertyListed(nextPropertyId, msg.sender, price, totalShares) */\n      mload(0x40)\n      tag_99\n      swap4\n      swap3\n      swap2\n      swap1\n      tag_100\n      jump\t// in\n    tag_99:\n      mload(0x40)\n      dup1\n      swap2\n      sub\n      swap1\n      log2\n        /* \"contracts/real-estate-marketplace/Marketplace.sol\":2187:2201  nextPropertyId */\n      0x02\n      0x00\n        /* \"contracts/real-estate-marketplace/Marketplace.sol\":2187:2203  nextPropertyId++ */\n      dup2\n      sload\n      dup1\n      swap3\n      swap2\n      swap1\n      tag_101\n      swap1\n      tag_102\n      jump\t// in\n    tag_101:\n      swap2\n      swap1\n      pop\n      sstore\n      pop\n        /* \"contracts/real-estate-marketplace/Marketplace.sol\":1582:2210  function listProperty(uint256 price, uint256 totalShares, address tokenAddress) external whenNotPaused {... */\n      pop\n      pop\n      pop\n      jump\t// out\n        /* \"@openzeppelin/contracts/access/Ownable.sol\":1638:1723  function owner() public view virtual returns (address) {... */\n    tag_43:\n        /* \"@openzeppelin/contracts/access/Ownable.sol\":1684:1691  address */\n      0x00\n        /* \"@openzeppelin/contracts/access/Ownable.sol\":1710:1716  _owner */\n      dup1\n      0x00\n      swap1\n      sload\n      swap1\n      0x0100\n      exp\n      swap1\n      div\n      0xffffffffffffffffffffffffffffffffffffffff\n      and\n        /* \"@openzeppelin/contracts/access/Ownable.sol\":1703:1716  return _owner */\n      swap1\n      pop\n        /* \"@openzeppelin/contracts/access/Ownable.sol\":1638:1723  function owner() public view virtual returns (address) {... */\n      swap1\n      jump\t// out\n        /* \"contracts/real-estate-marketplace/Marketplace.sol\":1261:1298  IAlvaraProtocol public alvaraProtocol */\n    tag_47:\n      0x04\n      0x00\n      swap1\n      sload\n      swap1\n      0x0100\n      exp\n      swap1\n      div\n      0xffffffffffffffffffffffffffffffffffffffff\n      and\n      dup2\n      jump\t// out\n        /* \"contracts/real-estate-marketplace/Marketplace.sol\":3015:3601  function finalizeSale(uint256 propertyId, address buyer) external whenNotPaused {... */\n    tag_53:\n        /* \"@openzeppelin/contracts/utils/Pausable.sol\":1474:1493  _requireNotPaused() */\n      tag_105\n        /* \"@openzeppelin/contracts/utils/Pausable.sol\":1474:1491  _requireNotPaused */\n      tag_91\n        /* \"@openzeppelin/contracts/utils/Pausable.sol\":1474:1493  _requireNotPaused() */\n      jump\t// in\n    tag_105:\n        /* \"contracts/real-estate-marketplace/Marketplace.sol\":3105:3130  Property storage property */\n      0x00\n        /* \"contracts/real-estate-marketplace/Marketplace.sol\":3133:3143  properties */\n      0x01\n        /* \"contracts/real-estate-marketplace/Marketplace.sol\":3133:3155  properties[propertyId] */\n      0x00\n        /* \"contracts/real-estate-marketplace/Marketplace.sol\":3144:3154  propertyId */\n      dup5\n        /* \"contracts/real-estate-marketplace/Marketplace.sol\":3133:3155  properties[propertyId] */\n      dup2\n      mstore\n      0x20\n      add\n      swap1\n      dup2\n      mstore\n      0x20\n      add\n      0x00\n      keccak256\n        /* \"contracts/real-estate-marketplace/Marketplace.sol\":3105:3155  Property storage property = properties[propertyId] */\n      swap1\n      pop\n        /* \"contracts/real-estate-marketplace/Marketplace.sol\":3191:3201  msg.sender */\n      caller\n        /* \"contracts/real-estate-marketplace/Marketplace.sol\":3173:3201  property.owner == msg.sender */\n      0xffffffffffffffffffffffffffffffffffffffff\n      and\n        /* \"contracts/real-estate-marketplace/Marketplace.sol\":3173:3181  property */\n      dup2\n        /* \"contracts/real-estate-marketplace/Marketplace.sol\":3173:3187  property.owner */\n      0x00\n      add\n      0x00\n      swap1\n      sload\n      swap1\n      0x0100\n      exp\n      swap1\n      div\n      0xffffffffffffffffffffffffffffffffffffffff\n      and\n        /* \"contracts/real-estate-marketplace/Marketplace.sol\":3173:3201  property.owner == msg.sender */\n      0xffffffffffffffffffffffffffffffffffffffff\n      and\n      eq\n        /* \"contracts/real-estate-marketplace/Marketplace.sol\":3165:3242  require(property.owner == msg.sender, \"Only the owner can finalize the sale\") */\n      tag_107\n      jumpi\n      mload(0x40)\n      0x08c379a000000000000000000000000000000000000000000000000000000000\n      dup2\n      mstore\n      0x04\n      add\n      tag_108\n      swap1\n      tag_109\n      jump\t// in\n    tag_108:\n      mload(0x40)\n      dup1\n      swap2\n      sub\n      swap1\n      revert\n    tag_107:\n        /* \"contracts/real-estate-marketplace/Marketplace.sol\":3288:3289  0 */\n      0x00\n        /* \"contracts/real-estate-marketplace/Marketplace.sol\":3260:3268  property */\n      dup2\n        /* \"contracts/real-estate-marketplace/Marketplace.sol\":3260:3284  property.availableShares */\n      0x03\n      add\n      sload\n        /* \"contracts/real-estate-marketplace/Marketplace.sol\":3260:3289  property.availableShares == 0 */\n      eq\n        /* \"contracts/real-estate-marketplace/Marketplace.sol\":3252:3320  require(property.availableShares == 0, \"Shares are still available\") */\n      tag_110\n      jumpi\n      mload(0x40)\n      0x08c379a000000000000000000000000000000000000000000000000000000000\n      dup2\n      mstore\n      0x04\n      add\n      tag_111\n      swap1\n      tag_112\n      jump\t// in\n    tag_111:\n      mload(0x40)\n      dup1\n      swap2\n      sub\n      swap1\n      revert\n    tag_110:\n        /* \"contracts/real-estate-marketplace/Marketplace.sol\":3359:3364  false */\n      0x00\n        /* \"contracts/real-estate-marketplace/Marketplace.sol\":3339:3347  property */\n      dup2\n        /* \"contracts/real-estate-marketplace/Marketplace.sol\":3339:3356  property.isListed */\n      0x04\n      add\n      0x14\n        /* \"contracts/real-estate-marketplace/Marketplace.sol\":3339:3364  property.isListed = false */\n      0x0100\n      exp\n      dup2\n      sload\n      dup2\n      0xff\n      mul\n      not\n      and\n      swap1\n      dup4\n      iszero\n      iszero\n      mul\n      or\n      swap1\n      sstore\n      pop\n        /* \"contracts/real-estate-marketplace/Marketplace.sol\":3391:3396  buyer */\n      dup2\n        /* \"contracts/real-estate-marketplace/Marketplace.sol\":3374:3382  property */\n      dup2\n        /* \"contracts/real-estate-marketplace/Marketplace.sol\":3374:3388  property.owner */\n      0x00\n      add\n      0x00\n        /* \"contracts/real-estate-marketplace/Marketplace.sol\":3374:3396  property.owner = buyer */\n      0x0100\n      exp\n      dup2\n      sload\n      dup2\n      0xffffffffffffffffffffffffffffffffffffffff\n      mul\n      not\n      and\n      swap1\n      dup4\n      0xffffffffffffffffffffffffffffffffffffffff\n      and\n      mul\n      or\n      swap1\n      sstore\n      pop\n        /* \"contracts/real-estate-marketplace/Marketplace.sol\":3415:3435  uint256 totalPayment */\n      0x00\n        /* \"contracts/real-estate-marketplace/Marketplace.sol\":3438:3446  property */\n      dup2\n        /* \"contracts/real-estate-marketplace/Marketplace.sol\":3438:3452  property.price */\n      0x01\n      add\n      sload\n        /* \"contracts/real-estate-marketplace/Marketplace.sol\":3415:3452  uint256 totalPayment = property.price */\n      swap1\n      pop\n        /* \"contracts/real-estate-marketplace/Marketplace.sol\":3462:3517  paymentToken.safeTransfer(property.owner, totalPayment) */\n      tag_113\n        /* \"contracts/real-estate-marketplace/Marketplace.sol\":3488:3496  property */\n      dup3\n        /* \"contracts/real-estate-marketplace/Marketplace.sol\":3488:3502  property.owner */\n      0x00\n      add\n      0x00\n      swap1\n      sload\n      swap1\n      0x0100\n      exp\n      swap1\n      div\n      0xffffffffffffffffffffffffffffffffffffffff\n      and\n        /* \"contracts/real-estate-marketplace/Marketplace.sol\":3504:3516  totalPayment */\n      dup3\n        /* \"contracts/real-estate-marketplace/Marketplace.sol\":3462:3474  paymentToken */\n      0x03\n      0x00\n      swap1\n      sload\n      swap1\n      0x0100\n      exp\n      swap1\n      div\n      0xffffffffffffffffffffffffffffffffffffffff\n      and\n        /* \"contracts/real-estate-marketplace/Marketplace.sol\":3462:3487  paymentToken.safeTransfer */\n      0xffffffffffffffffffffffffffffffffffffffff\n      and\n      tag_114\n      swap1\n        /* \"contracts/real-estate-marketplace/Marketplace.sol\":3462:3517  paymentToken.safeTransfer(property.owner, totalPayment) */\n      swap3\n      swap2\n      swap1\n      0xffffffff\n      and\n      jump\t// in\n    tag_113:\n        /* \"contracts/real-estate-marketplace/Marketplace.sol\":3566:3571  buyer */\n      dup3\n        /* \"contracts/real-estate-marketplace/Marketplace.sol\":3541:3594  PropertySold(propertyId, buyer, property.totalShares) */\n      0xffffffffffffffffffffffffffffffffffffffff\n      and\n      0xf17a6666765db393a6218bb324c4de5cc60c9ee3b981bd102ba416effc13b895\n        /* \"contracts/real-estate-marketplace/Marketplace.sol\":3554:3564  propertyId */\n      dup6\n        /* \"contracts/real-estate-marketplace/Marketplace.sol\":3573:3581  property */\n      dup5\n        /* \"contracts/real-estate-marketplace/Marketplace.sol\":3573:3593  property.totalShares */\n      0x02\n      add\n      sload\n        /* \"contracts/real-estate-marketplace/Marketplace.sol\":3541:3594  PropertySold(propertyId, buyer, property.totalShares) */\n      mload(0x40)\n      tag_115\n      swap3\n      swap2\n      swap1\n      tag_116\n      jump\t// in\n    tag_115:\n      mload(0x40)\n      dup1\n      swap2\n      sub\n      swap1\n      log2\n        /* \"contracts/real-estate-marketplace/Marketplace.sol\":3095:3601  {... */\n      pop\n      pop\n        /* \"contracts/real-estate-marketplace/Marketplace.sol\":3015:3601  function finalizeSale(uint256 propertyId, address buyer) external whenNotPaused {... */\n      pop\n      pop\n      jump\t// out\n        /* \"contracts/real-estate-marketplace/Marketplace.sol\":3912:4065  function integrateWithAlvara(uint256 propertyId) external view returns (bool) {... */\n    tag_57:\n        /* \"contracts/real-estate-marketplace/Marketplace.sol\":3984:3988  bool */\n      0x00\n        /* \"contracts/real-estate-marketplace/Marketplace.sol\":4007:4021  alvaraProtocol */\n      0x04\n      0x00\n      swap1\n      sload\n      swap1\n      0x0100\n      exp\n      swap1\n      div\n      0xffffffffffffffffffffffffffffffffffffffff\n      and\n        /* \"contracts/real-estate-marketplace/Marketplace.sol\":4007:4046  alvaraProtocol.checkPropertyIntegration */\n      0xffffffffffffffffffffffffffffffffffffffff\n      and\n      0x7485cdc2\n        /* \"contracts/real-estate-marketplace/Marketplace.sol\":4047:4057  propertyId */\n      dup4\n        /* \"contracts/real-estate-marketplace/Marketplace.sol\":4007:4058  alvaraProtocol.checkPropertyIntegration(propertyId) */\n      mload(0x40)\n      dup3\n      0xffffffff\n      and\n      0xe0\n      shl\n      dup2\n      mstore\n      0x04\n      add\n      tag_118\n      swap2\n      swap1\n      tag_27\n      jump\t// in\n    tag_118:\n      0x20\n      mload(0x40)\n      dup1\n      dup4\n      sub\n      dup2\n      dup7\n      gas\n      staticcall\n      iszero\n      dup1\n      iszero\n      tag_120\n      jumpi\n      returndatasize\n      0x00\n      dup1\n      returndatacopy\n      revert(0x00, returndatasize)\n    tag_120:\n      pop\n      pop\n      pop\n      pop\n      mload(0x40)\n      returndatasize\n      not(0x1f)\n      0x1f\n      dup3\n      add\n      and\n      dup3\n      add\n      dup1\n      0x40\n      mstore\n      pop\n      dup2\n      add\n      swap1\n      tag_121\n      swap2\n      swap1\n      tag_122\n      jump\t// in\n    tag_121:\n        /* \"contracts/real-estate-marketplace/Marketplace.sol\":4000:4058  return alvaraProtocol.checkPropertyIntegration(propertyId) */\n      swap1\n      pop\n        /* \"contracts/real-estate-marketplace/Marketplace.sol\":3912:4065  function integrateWithAlvara(uint256 propertyId) external view returns (bool) {... */\n      swap2\n      swap1\n      pop\n      jump\t// out\n        /* \"contracts/real-estate-marketplace/Marketplace.sol\":2269:2954  function purchaseShares(uint256 propertyId, uint256 sharesToBuy) external whenNotPaused {... */\n    tag_62:\n        /* \"@openzeppelin/contracts/utils/Pausable.sol\":1474:1493  _requireNotPaused() */\n      tag_124\n        /* \"@openzeppelin/contracts/utils/Pausable.sol\":1474:1491  _requireNotPaused */\n      tag_91\n        /* \"@openzeppelin/contracts/utils/Pausable.sol\":1474:1493  _requireNotPaused() */\n      jump\t// in\n    tag_124:\n        /* \"contracts/real-estate-marketplace/Marketplace.sol\":2367:2392  Property storage property */\n      0x00\n        /* \"contracts/real-estate-marketplace/Marketplace.sol\":2395:2405  properties */\n      0x01\n        /* \"contracts/real-estate-marketplace/Marketplace.sol\":2395:2417  properties[propertyId] */\n      0x00\n        /* \"contracts/real-estate-marketplace/Marketplace.sol\":2406:2416  propertyId */\n      dup5\n        /* \"contracts/real-estate-marketplace/Marketplace.sol\":2395:2417  properties[propertyId] */\n      dup2\n      mstore\n      0x20\n      add\n      swap1\n      dup2\n      mstore\n      0x20\n      add\n      0x00\n      keccak256\n        /* \"contracts/real-estate-marketplace/Marketplace.sol\":2367:2417  Property storage property = properties[propertyId] */\n      swap1\n      pop\n        /* \"contracts/real-estate-marketplace/Marketplace.sol\":2435:2443  property */\n      dup1\n        /* \"contracts/real-estate-marketplace/Marketplace.sol\":2435:2452  property.isListed */\n      0x04\n      add\n      0x14\n      swap1\n      sload\n      swap1\n      0x0100\n      exp\n      swap1\n      div\n      0xff\n      and\n        /* \"contracts/real-estate-marketplace/Marketplace.sol\":2427:2479  require(property.isListed, \"Property is not listed\") */\n      tag_126\n      jumpi\n      mload(0x40)\n      0x08c379a000000000000000000000000000000000000000000000000000000000\n      dup2\n      mstore\n      0x04\n      add\n      tag_127\n      swap1\n      tag_128\n      jump\t// in\n    tag_127:\n      mload(0x40)\n      dup1\n      swap2\n      sub\n      swap1\n      revert\n    tag_126:\n        /* \"contracts/real-estate-marketplace/Marketplace.sol\":2525:2536  sharesToBuy */\n      dup2\n        /* \"contracts/real-estate-marketplace/Marketplace.sol\":2497:2505  property */\n      dup2\n        /* \"contracts/real-estate-marketplace/Marketplace.sol\":2497:2521  property.availableShares */\n      0x03\n      add\n      sload\n        /* \"contracts/real-estate-marketplace/Marketplace.sol\":2497:2536  property.availableShares >= sharesToBuy */\n      lt\n      iszero\n        /* \"contracts/real-estate-marketplace/Marketplace.sol\":2489:2568  require(property.availableShares >= sharesToBuy, \"Not enough shares available\") */\n      tag_129\n      jumpi\n      mload(0x40)\n      0x08c379a000000000000000000000000000000000000000000000000000000000\n      dup2\n      mstore\n      0x04\n      add\n      tag_130\n      swap1\n      tag_131\n      jump\t// in\n    tag_130:\n      mload(0x40)\n      dup1\n      swap2\n      sub\n      swap1\n      revert\n    tag_129:\n        /* \"contracts/real-estate-marketplace/Marketplace.sol\":2600:2601  0 */\n      0x00\n        /* \"contracts/real-estate-marketplace/Marketplace.sol\":2586:2597  sharesToBuy */\n      dup3\n        /* \"contracts/real-estate-marketplace/Marketplace.sol\":2586:2601  sharesToBuy > 0 */\n      gt\n        /* \"contracts/real-estate-marketplace/Marketplace.sol\":2578:2642  require(sharesToBuy > 0, \"Shares to buy must be greater than 0\") */\n      tag_132\n      jumpi\n      mload(0x40)\n      0x08c379a000000000000000000000000000000000000000000000000000000000\n      dup2\n      mstore\n      0x04\n      add\n      tag_133\n      swap1\n      tag_134\n      jump\t// in\n    tag_133:\n      mload(0x40)\n      dup1\n      swap2\n      sub\n      swap1\n      revert\n    tag_132:\n        /* \"contracts/real-estate-marketplace/Marketplace.sol\":2661:2679  uint256 totalPrice */\n      0x00\n        /* \"contracts/real-estate-marketplace/Marketplace.sol\":2715:2723  property */\n      dup2\n        /* \"contracts/real-estate-marketplace/Marketplace.sol\":2715:2735  property.totalShares */\n      0x02\n      add\n      sload\n        /* \"contracts/real-estate-marketplace/Marketplace.sol\":2700:2711  sharesToBuy */\n      dup4\n        /* \"contracts/real-estate-marketplace/Marketplace.sol\":2683:2691  property */\n      dup4\n        /* \"contracts/real-estate-marketplace/Marketplace.sol\":2683:2697  property.price */\n      0x01\n      add\n      sload\n        /* \"contracts/real-estate-marketplace/Marketplace.sol\":2683:2711  property.price * sharesToBuy */\n      tag_135\n      swap2\n      swap1\n      tag_136\n      jump\t// in\n    tag_135:\n        /* \"contracts/real-estate-marketplace/Marketplace.sol\":2682:2735  (property.price * sharesToBuy) / property.totalShares */\n      tag_137\n      swap2\n      swap1\n      tag_138\n      jump\t// in\n    tag_137:\n        /* \"contracts/real-estate-marketplace/Marketplace.sol\":2661:2735  uint256 totalPrice = (property.price * sharesToBuy) / property.totalShares */\n      swap1\n      pop\n        /* \"contracts/real-estate-marketplace/Marketplace.sol\":2745:2813  paymentToken.safeTransferFrom(msg.sender, address(this), totalPrice) */\n      tag_139\n        /* \"contracts/real-estate-marketplace/Marketplace.sol\":2775:2785  msg.sender */\n      caller\n        /* \"contracts/real-estate-marketplace/Marketplace.sol\":2795:2799  this */\n      address\n        /* \"contracts/real-estate-marketplace/Marketplace.sol\":2802:2812  totalPrice */\n      dup4\n        /* \"contracts/real-estate-marketplace/Marketplace.sol\":2745:2757  paymentToken */\n      0x03\n      0x00\n      swap1\n      sload\n      swap1\n      0x0100\n      exp\n      swap1\n      div\n      0xffffffffffffffffffffffffffffffffffffffff\n      and\n        /* \"contracts/real-estate-marketplace/Marketplace.sol\":2745:2774  paymentToken.safeTransferFrom */\n      0xffffffffffffffffffffffffffffffffffffffff\n      and\n      tag_140\n      swap1\n        /* \"contracts/real-estate-marketplace/Marketplace.sol\":2745:2813  paymentToken.safeTransferFrom(msg.sender, address(this), totalPrice) */\n      swap4\n      swap3\n      swap2\n      swap1\n      0xffffffff\n      and\n      jump\t// in\n    tag_139:\n        /* \"contracts/real-estate-marketplace/Marketplace.sol\":2860:2871  sharesToBuy */\n      dup3\n        /* \"contracts/real-estate-marketplace/Marketplace.sol\":2832:2840  property */\n      dup3\n        /* \"contracts/real-estate-marketplace/Marketplace.sol\":2832:2856  property.availableShares */\n      0x03\n      add\n      0x00\n        /* \"contracts/real-estate-marketplace/Marketplace.sol\":2832:2871  property.availableShares -= sharesToBuy */\n      dup3\n      dup3\n      sload\n      tag_141\n      swap2\n      swap1\n      tag_142\n      jump\t// in\n    tag_141:\n      swap3\n      pop\n      pop\n      dup2\n      swap1\n      sstore\n      pop\n        /* \"contracts/real-estate-marketplace/Marketplace.sol\":2923:2933  msg.sender */\n      caller\n        /* \"contracts/real-estate-marketplace/Marketplace.sol\":2895:2947  SharesPurchased(propertyId, msg.sender, sharesToBuy) */\n      0xffffffffffffffffffffffffffffffffffffffff\n      and\n      0xd4a7a37d339805413b4085e0f8e0932dfb0a4f84f08f98a6e53673b5ee8eee15\n        /* \"contracts/real-estate-marketplace/Marketplace.sol\":2911:2921  propertyId */\n      dup6\n        /* \"contracts/real-estate-marketplace/Marketplace.sol\":2935:2946  sharesToBuy */\n      dup6\n        /* \"contracts/real-estate-marketplace/Marketplace.sol\":2895:2947  SharesPurchased(propertyId, msg.sender, sharesToBuy) */\n      mload(0x40)\n      tag_143\n      swap3\n      swap2\n      swap1\n      tag_116\n      jump\t// in\n    tag_143:\n      mload(0x40)\n      dup1\n      swap2\n      sub\n      swap1\n      log2\n        /* \"contracts/real-estate-marketplace/Marketplace.sol\":2357:2954  {... */\n      pop\n      pop\n        /* \"contracts/real-estate-marketplace/Marketplace.sol\":2269:2954  function purchaseShares(uint256 propertyId, uint256 sharesToBuy) external whenNotPaused {... */\n      pop\n      pop\n      jump\t// out\n        /* \"@openzeppelin/contracts/access/Ownable.sol\":2543:2758  function transferOwnership(address newOwner) public virtual onlyOwner {... */\n    tag_66:\n        /* \"@openzeppelin/contracts/access/Ownable.sol\":1531:1544  _checkOwner() */\n      tag_145\n        /* \"@openzeppelin/contracts/access/Ownable.sol\":1531:1542  _checkOwner */\n      tag_74\n        /* \"@openzeppelin/contracts/access/Ownable.sol\":1531:1544  _checkOwner() */\n      jump\t// in\n    tag_145:\n        /* \"@openzeppelin/contracts/access/Ownable.sol\":2647:2648  0 */\n      0x00\n        /* \"@openzeppelin/contracts/access/Ownable.sol\":2627:2649  newOwner == address(0) */\n      0xffffffffffffffffffffffffffffffffffffffff\n      and\n        /* \"@openzeppelin/contracts/access/Ownable.sol\":2627:2635  newOwner */\n      dup2\n        /* \"@openzeppelin/contracts/access/Ownable.sol\":2627:2649  newOwner == address(0) */\n      0xffffffffffffffffffffffffffffffffffffffff\n      and\n      sub\n        /* \"@openzeppelin/contracts/access/Ownable.sol\":2623:2714  if (newOwner == address(0)) {... */\n      tag_147\n      jumpi\n        /* \"@openzeppelin/contracts/access/Ownable.sol\":2700:2701  0 */\n      0x00\n        /* \"@openzeppelin/contracts/access/Ownable.sol\":2672:2703  OwnableInvalidOwner(address(0)) */\n      mload(0x40)\n      0x1e4fbdf700000000000000000000000000000000000000000000000000000000\n      dup2\n      mstore\n      0x04\n      add\n      tag_148\n      swap2\n      swap1\n      tag_45\n      jump\t// in\n    tag_148:\n      mload(0x40)\n      dup1\n      swap2\n      sub\n      swap1\n      revert\n        /* \"@openzeppelin/contracts/access/Ownable.sol\":2623:2714  if (newOwner == address(0)) {... */\n    tag_147:\n        /* \"@openzeppelin/contracts/access/Ownable.sol\":2723:2751  _transferOwnership(newOwner) */\n      tag_149\n        /* \"@openzeppelin/contracts/access/Ownable.sol\":2742:2750  newOwner */\n      dup2\n        /* \"@openzeppelin/contracts/access/Ownable.sol\":2723:2741  _transferOwnership */\n      tag_83\n        /* \"@openzeppelin/contracts/access/Ownable.sol\":2723:2751  _transferOwnership(newOwner) */\n      jump\t// in\n    tag_149:\n        /* \"@openzeppelin/contracts/access/Ownable.sol\":2543:2758  function transferOwnership(address newOwner) public virtual onlyOwner {... */\n      pop\n      jump\t// out\n        /* \"contracts/real-estate-marketplace/Marketplace.sol\":1098:1144  mapping(uint256 => Property) public properties */\n    tag_69:\n      mstore(0x20, 0x01)\n      dup1\n      0x00\n      mstore\n      keccak256(0x00, 0x40)\n      0x00\n      swap2\n      pop\n      swap1\n      pop\n      dup1\n      0x00\n      add\n      0x00\n      swap1\n      sload\n      swap1\n      0x0100\n      exp\n      swap1\n      div\n      0xffffffffffffffffffffffffffffffffffffffff\n      and\n      swap1\n      dup1\n      0x01\n      add\n      sload\n      swap1\n      dup1\n      0x02\n      add\n      sload\n      swap1\n      dup1\n      0x03\n      add\n      sload\n      swap1\n      dup1\n      0x04\n      add\n      0x00\n      swap1\n      sload\n      swap1\n      0x0100\n      exp\n      swap1\n      div\n      0xffffffffffffffffffffffffffffffffffffffff\n      and\n      swap1\n      dup1\n      0x04\n      add\n      0x14\n      swap1\n      sload\n      swap1\n      0x0100\n      exp\n      swap1\n      div\n      0xff\n      and\n      swap1\n      pop\n      dup7\n      jump\t// out\n        /* \"@openzeppelin/contracts/access/Ownable.sol\":1796:1958  function _checkOwner() internal view virtual {... */\n    tag_74:\n        /* \"@openzeppelin/contracts/access/Ownable.sol\":1866:1878  _msgSender() */\n      tag_151\n        /* \"@openzeppelin/contracts/access/Ownable.sol\":1866:1876  _msgSender */\n      tag_152\n        /* \"@openzeppelin/contracts/access/Ownable.sol\":1866:1878  _msgSender() */\n      jump\t// in\n    tag_151:\n        /* \"@openzeppelin/contracts/access/Ownable.sol\":1855:1878  owner() != _msgSender() */\n      0xffffffffffffffffffffffffffffffffffffffff\n      and\n        /* \"@openzeppelin/contracts/access/Ownable.sol\":1855:1862  owner() */\n      tag_153\n        /* \"@openzeppelin/contracts/access/Ownable.sol\":1855:1860  owner */\n      tag_43\n        /* \"@openzeppelin/contracts/access/Ownable.sol\":1855:1862  owner() */\n      jump\t// in\n    tag_153:\n        /* \"@openzeppelin/contracts/access/Ownable.sol\":1855:1878  owner() != _msgSender() */\n      0xffffffffffffffffffffffffffffffffffffffff\n      and\n      eq\n        /* \"@openzeppelin/contracts/access/Ownable.sol\":1851:1952  if (owner() != _msgSender()) {... */\n      tag_154\n      jumpi\n        /* \"@openzeppelin/contracts/access/Ownable.sol\":1928:1940  _msgSender() */\n      tag_155\n        /* \"@openzeppelin/contracts/access/Ownable.sol\":1928:1938  _msgSender */\n      tag_152\n        /* \"@openzeppelin/contracts/access/Ownable.sol\":1928:1940  _msgSender() */\n      jump\t// in\n    tag_155:\n        /* \"@openzeppelin/contracts/access/Ownable.sol\":1901:1941  OwnableUnauthorizedAccount(_msgSender()) */\n      mload(0x40)\n      0x118cdaa700000000000000000000000000000000000000000000000000000000\n      dup2\n      mstore\n      0x04\n      add\n      tag_156\n      swap2\n      swap1\n      tag_45\n      jump\t// in\n    tag_156:\n      mload(0x40)\n      dup1\n      swap2\n      sub\n      swap1\n      revert\n        /* \"@openzeppelin/contracts/access/Ownable.sol\":1851:1952  if (owner() != _msgSender()) {... */\n    tag_154:\n        /* \"@openzeppelin/contracts/access/Ownable.sol\":1796:1958  function _checkOwner() internal view virtual {... */\n      jump\t// out\n        /* \"@openzeppelin/contracts/utils/Pausable.sol\":2710:2827  function _unpause() internal virtual whenPaused {... */\n    tag_77:\n        /* \"@openzeppelin/contracts/utils/Pausable.sol\":1721:1737  _requirePaused() */\n      tag_158\n        /* \"@openzeppelin/contracts/utils/Pausable.sol\":1721:1735  _requirePaused */\n      tag_159\n        /* \"@openzeppelin/contracts/utils/Pausable.sol\":1721:1737  _requirePaused() */\n      jump\t// in\n    tag_158:\n        /* \"@openzeppelin/contracts/utils/Pausable.sol\":2778:2783  false */\n      0x00\n        /* \"@openzeppelin/contracts/utils/Pausable.sol\":2768:2775  _paused */\n      dup1\n      0x14\n        /* \"@openzeppelin/contracts/utils/Pausable.sol\":2768:2783  _paused = false */\n      0x0100\n      exp\n      dup2\n      sload\n      dup2\n      0xff\n      mul\n      not\n      and\n      swap1\n      dup4\n      iszero\n      iszero\n      mul\n      or\n      swap1\n      sstore\n      pop\n        /* \"@openzeppelin/contracts/utils/Pausable.sol\":2798:2820  Unpaused(_msgSender()) */\n      0x5db9ee0a495bf2e6ff9c91a7834c1ba4fdd244a5e8aa4e537bd38aeae4b073aa\n        /* \"@openzeppelin/contracts/utils/Pausable.sol\":2807:2819  _msgSender() */\n      tag_161\n        /* \"@openzeppelin/contracts/utils/Pausable.sol\":2807:2817  _msgSender */\n      tag_152\n        /* \"@openzeppelin/contracts/utils/Pausable.sol\":2807:2819  _msgSender() */\n      jump\t// in\n    tag_161:\n        /* \"@openzeppelin/contracts/utils/Pausable.sol\":2798:2820  Unpaused(_msgSender()) */\n      mload(0x40)\n      tag_162\n      swap2\n      swap1\n      tag_45\n      jump\t// in\n    tag_162:\n      mload(0x40)\n      dup1\n      swap2\n      sub\n      swap1\n      log1\n        /* \"@openzeppelin/contracts/utils/Pausable.sol\":2710:2827  function _unpause() internal virtual whenPaused {... */\n      jump\t// out\n        /* \"@openzeppelin/contracts/access/Ownable.sol\":2912:3099  function _transferOwnership(address newOwner) internal virtual {... */\n    tag_83:\n        /* \"@openzeppelin/contracts/access/Ownable.sol\":2985:3001  address oldOwner */\n      0x00\n        /* \"@openzeppelin/contracts/access/Ownable.sol\":3004:3010  _owner */\n      dup1\n      0x00\n      swap1\n      sload\n      swap1\n      0x0100\n      exp\n      swap1\n      div\n      0xffffffffffffffffffffffffffffffffffffffff\n      and\n        /* \"@openzeppelin/contracts/access/Ownable.sol\":2985:3010  address oldOwner = _owner */\n      swap1\n      pop\n        /* \"@openzeppelin/contracts/access/Ownable.sol\":3029:3037  newOwner */\n      dup2\n        /* \"@openzeppelin/contracts/access/Ownable.sol\":3020:3026  _owner */\n      0x00\n      dup1\n        /* \"@openzeppelin/contracts/access/Ownable.sol\":3020:3037  _owner = newOwner */\n      0x0100\n      exp\n      dup2\n      sload\n      dup2\n      0xffffffffffffffffffffffffffffffffffffffff\n      mul\n      not\n      and\n      swap1\n      dup4\n      0xffffffffffffffffffffffffffffffffffffffff\n      and\n      mul\n      or\n      swap1\n      sstore\n      pop\n        /* \"@openzeppelin/contracts/access/Ownable.sol\":3083:3091  newOwner */\n      dup2\n        /* \"@openzeppelin/contracts/access/Ownable.sol\":3052:3092  OwnershipTransferred(oldOwner, newOwner) */\n      0xffffffffffffffffffffffffffffffffffffffff\n      and\n        /* \"@openzeppelin/contracts/access/Ownable.sol\":3073:3081  oldOwner */\n      dup2\n        /* \"@openzeppelin/contracts/access/Ownable.sol\":3052:3092  OwnershipTransferred(oldOwner, newOwner) */\n      0xffffffffffffffffffffffffffffffffffffffff\n      and\n      0x8be0079c531659141344cd1fd0a4f28419497f9722a3daafe3b4186f6b6457e0\n      mload(0x40)\n      mload(0x40)\n      dup1\n      swap2\n      sub\n      swap1\n      log3\n        /* \"@openzeppelin/contracts/access/Ownable.sol\":2975:3099  {... */\n      pop\n        /* \"@openzeppelin/contracts/access/Ownable.sol\":2912:3099  function _transferOwnership(address newOwner) internal virtual {... */\n      pop\n      jump\t// out\n        /* \"@openzeppelin/contracts/utils/Pausable.sol\":2463:2578  function _pause() internal virtual whenNotPaused {... */\n    tag_88:\n        /* \"@openzeppelin/contracts/utils/Pausable.sol\":1474:1493  _requireNotPaused() */\n      tag_165\n        /* \"@openzeppelin/contracts/utils/Pausable.sol\":1474:1491  _requireNotPaused */\n      tag_91\n        /* \"@openzeppelin/contracts/utils/Pausable.sol\":1474:1493  _requireNotPaused() */\n      jump\t// in\n    tag_165:\n        /* \"@openzeppelin/contracts/utils/Pausable.sol\":2532:2536  true */\n      0x01\n        /* \"@openzeppelin/contracts/utils/Pausable.sol\":2522:2529  _paused */\n      0x00\n      0x14\n        /* \"@openzeppelin/contracts/utils/Pausable.sol\":2522:2536  _paused = true */\n      0x0100\n      exp\n      dup2\n      sload\n      dup2\n      0xff\n      mul\n      not\n      and\n      swap1\n      dup4\n      iszero\n      iszero\n      mul\n      or\n      swap1\n      sstore\n      pop\n        /* \"@openzeppelin/contracts/utils/Pausable.sol\":2551:2571  Paused(_msgSender()) */\n      0x62e78cea01bee320cd4e420270b5ea74000d11b0c9f74754ebdbfc544b05a258\n        /* \"@openzeppelin/contracts/utils/Pausable.sol\":2558:2570  _msgSender() */\n      tag_167\n        /* \"@openzeppelin/contracts/utils/Pausable.sol\":2558:2568  _msgSender */\n      tag_152\n        /* \"@openzeppelin/contracts/utils/Pausable.sol\":2558:2570  _msgSender() */\n      jump\t// in\n    tag_167:\n        /* \"@openzeppelin/contracts/utils/Pausable.sol\":2551:2571  Paused(_msgSender()) */\n      mload(0x40)\n      tag_168\n      swap2\n      swap1\n      tag_45\n      jump\t// in\n    tag_168:\n      mload(0x40)\n      dup1\n      swap2\n      sub\n      swap1\n      log1\n        /* \"@openzeppelin/contracts/utils/Pausable.sol\":2463:2578  function _pause() internal virtual whenNotPaused {... */\n      jump\t// out\n        /* \"@openzeppelin/contracts/utils/Pausable.sol\":2002:2130  function _requireNotPaused() internal view virtual {... */\n    tag_91:\n        /* \"@openzeppelin/contracts/utils/Pausable.sol\":2067:2075  paused() */\n      tag_170\n        /* \"@openzeppelin/contracts/utils/Pausable.sol\":2067:2073  paused */\n      tag_31\n        /* \"@openzeppelin/contracts/utils/Pausable.sol\":2067:2075  paused() */\n      jump\t// in\n    tag_170:\n        /* \"@openzeppelin/contracts/utils/Pausable.sol\":2063:2124  if (paused()) {... */\n      iszero\n      tag_171\n      jumpi\n        /* \"@openzeppelin/contracts/utils/Pausable.sol\":2098:2113  EnforcedPause() */\n      mload(0x40)\n      0xd93c066500000000000000000000000000000000000000000000000000000000\n      dup2\n      mstore\n      0x04\n      add\n      mload(0x40)\n      dup1\n      swap2\n      sub\n      swap1\n      revert\n        /* \"@openzeppelin/contracts/utils/Pausable.sol\":2063:2124  if (paused()) {... */\n    tag_171:\n        /* \"@openzeppelin/contracts/utils/Pausable.sol\":2002:2130  function _requireNotPaused() internal view virtual {... */\n      jump\t// out\n        /* \"@openzeppelin/contracts/token/ERC20/utils/SafeERC20.sol\":1303:1463  function safeTransfer(IERC20 token, address to, uint256 value) internal {... */\n    tag_114:\n        /* \"@openzeppelin/contracts/token/ERC20/utils/SafeERC20.sol\":1385:1456  _callOptionalReturn(token, abi.encodeCall(token.transfer, (to, value))) */\n      tag_173\n        /* \"@openzeppelin/contracts/token/ERC20/utils/SafeERC20.sol\":1405:1410  token */\n      dup4\n        /* \"@openzeppelin/contracts/token/ERC20/utils/SafeERC20.sol\":1427:1432  token */\n      dup5\n        /* \"@openzeppelin/contracts/token/ERC20/utils/SafeERC20.sol\":1427:1441  token.transfer */\n      0xffffffffffffffffffffffffffffffffffffffff\n      and\n      0xa9059cbb\n        /* \"@openzeppelin/contracts/token/ERC20/utils/SafeERC20.sol\":1444:1446  to */\n      dup6\n        /* \"@openzeppelin/contracts/token/ERC20/utils/SafeERC20.sol\":1448:1453  value */\n      dup6\n        /* \"@openzeppelin/contracts/token/ERC20/utils/SafeERC20.sol\":1412:1455  abi.encodeCall(token.transfer, (to, value)) */\n      add(0x24, mload(0x40))\n      tag_174\n      swap3\n      swap2\n      swap1\n      tag_175\n      jump\t// in\n    tag_174:\n      mload(0x40)\n      0x20\n      dup2\n      dup4\n      sub\n      sub\n      dup2\n      mstore\n      swap1\n      0x40\n      mstore\n      swap2\n      pop\n      0xe0\n      shl\n      0x20\n      dup3\n      add\n      dup1\n      mload\n      0xffffffffffffffffffffffffffffffffffffffffffffffffffffffff\n      dup4\n      dup2\n      dup4\n      and\n      or\n      dup4\n      mstore\n      pop\n      pop\n      pop\n      pop\n        /* \"@openzeppelin/contracts/token/ERC20/utils/SafeERC20.sol\":1385:1404  _callOptionalReturn */\n      tag_176\n        /* \"@openzeppelin/contracts/token/ERC20/utils/SafeERC20.sol\":1385:1456  _callOptionalReturn(token, abi.encodeCall(token.transfer, (to, value))) */\n      jump\t// in\n    tag_173:\n        /* \"@openzeppelin/contracts/token/ERC20/utils/SafeERC20.sol\":1303:1463  function safeTransfer(IERC20 token, address to, uint256 value) internal {... */\n      pop\n      pop\n      pop\n      jump\t// out\n        /* \"@openzeppelin/contracts/token/ERC20/utils/SafeERC20.sol\":1702:1890  function safeTransferFrom(IERC20 token, address from, address to, uint256 value) internal {... */\n    tag_140:\n        /* \"@openzeppelin/contracts/token/ERC20/utils/SafeERC20.sol\":1802:1883  _callOptionalReturn(token, abi.encodeCall(token.transferFrom, (from, to, value))) */\n      tag_178\n        /* \"@openzeppelin/contracts/token/ERC20/utils/SafeERC20.sol\":1822:1827  token */\n      dup5\n        /* \"@openzeppelin/contracts/token/ERC20/utils/SafeERC20.sol\":1844:1849  token */\n      dup6\n        /* \"@openzeppelin/contracts/token/ERC20/utils/SafeERC20.sol\":1844:1862  token.transferFrom */\n      0xffffffffffffffffffffffffffffffffffffffff\n      and\n      0x23b872dd\n        /* \"@openzeppelin/contracts/token/ERC20/utils/SafeERC20.sol\":1865:1869  from */\n      dup7\n        /* \"@openzeppelin/contracts/token/ERC20/utils/SafeERC20.sol\":1871:1873  to */\n      dup7\n        /* \"@openzeppelin/contracts/token/ERC20/utils/SafeERC20.sol\":1875:1880  value */\n      dup7\n        /* \"@openzeppelin/contracts/token/ERC20/utils/SafeERC20.sol\":1829:1882  abi.encodeCall(token.transferFrom, (from, to, value)) */\n      add(0x24, mload(0x40))\n      tag_179\n      swap4\n      swap3\n      swap2\n      swap1\n      tag_180\n      jump\t// in\n    tag_179:\n      mload(0x40)\n      0x20\n      dup2\n      dup4\n      sub\n      sub\n      dup2\n      mstore\n      swap1\n      0x40\n      mstore\n      swap2\n      pop\n      0xe0\n      shl\n      0x20\n      dup3\n      add\n      dup1\n      mload\n      0xffffffffffffffffffffffffffffffffffffffffffffffffffffffff\n      dup4\n      dup2\n      dup4\n      and\n      or\n      dup4\n      mstore\n      pop\n      pop\n      pop\n      pop\n        /* \"@openzeppelin/contracts/token/ERC20/utils/SafeERC20.sol\":1802:1821  _callOptionalReturn */\n      tag_176\n        /* \"@openzeppelin/contracts/token/ERC20/utils/SafeERC20.sol\":1802:1883  _callOptionalReturn(token, abi.encodeCall(token.transferFrom, (from, to, value))) */\n      jump\t// in\n    tag_178:\n        /* \"@openzeppelin/contracts/token/ERC20/utils/SafeERC20.sol\":1702:1890  function safeTransferFrom(IERC20 token, address from, address to, uint256 value) internal {... */\n      pop\n      pop\n      pop\n      pop\n      jump\t// out\n        /* \"@openzeppelin/contracts/utils/Context.sol\":656:752  function _msgSender() internal view virtual returns (address) {... */\n    tag_152:\n        /* \"@openzeppelin/contracts/utils/Context.sol\":709:716  address */\n      0x00\n        /* \"@openzeppelin/contracts/utils/Context.sol\":735:745  msg.sender */\n      caller\n        /* \"@openzeppelin/contracts/utils/Context.sol\":728:745  return msg.sender */\n      swap1\n      pop\n        /* \"@openzeppelin/contracts/utils/Context.sol\":656:752  function _msgSender() internal view virtual returns (address) {... */\n      swap1\n      jump\t// out\n        /* \"@openzeppelin/contracts/utils/Pausable.sol\":2202:2328  function _requirePaused() internal view virtual {... */\n    tag_159:\n        /* \"@openzeppelin/contracts/utils/Pausable.sol\":2265:2273  paused() */\n      tag_183\n        /* \"@openzeppelin/contracts/utils/Pausable.sol\":2265:2271  paused */\n      tag_31\n        /* \"@openzeppelin/contracts/utils/Pausable.sol\":2265:2273  paused() */\n      jump\t// in\n    tag_183:\n        /* \"@openzeppelin/contracts/utils/Pausable.sol\":2260:2322  if (!paused()) {... */\n      tag_184\n      jumpi\n        /* \"@openzeppelin/contracts/utils/Pausable.sol\":2296:2311  ExpectedPause() */\n      mload(0x40)\n      0x8dfc202b00000000000000000000000000000000000000000000000000000000\n      dup2\n      mstore\n      0x04\n      add\n      mload(0x40)\n      dup1\n      swap2\n      sub\n      swap1\n      revert\n        /* \"@openzeppelin/contracts/utils/Pausable.sol\":2260:2322  if (!paused()) {... */\n    tag_184:\n        /* \"@openzeppelin/contracts/utils/Pausable.sol\":2202:2328  function _requirePaused() internal view virtual {... */\n      jump\t// out\n        /* \"@openzeppelin/contracts/token/ERC20/utils/SafeERC20.sol\":4059:4688  function _callOptionalReturn(IERC20 token, bytes memory data) private {... */\n    tag_176:\n        /* \"@openzeppelin/contracts/token/ERC20/utils/SafeERC20.sol\":4478:4501  bytes memory returndata */\n      0x00\n        /* \"@openzeppelin/contracts/token/ERC20/utils/SafeERC20.sol\":4504:4537  address(token).functionCall(data) */\n      tag_186\n        /* \"@openzeppelin/contracts/token/ERC20/utils/SafeERC20.sol\":4532:4536  data */\n      dup3\n        /* \"@openzeppelin/contracts/token/ERC20/utils/SafeERC20.sol\":4512:4517  token */\n      dup5\n        /* \"@openzeppelin/contracts/token/ERC20/utils/SafeERC20.sol\":4504:4531  address(token).functionCall */\n      0xffffffffffffffffffffffffffffffffffffffff\n      and\n      tag_187\n      swap1\n        /* \"@openzeppelin/contracts/token/ERC20/utils/SafeERC20.sol\":4504:4537  address(token).functionCall(data) */\n      swap2\n      swap1\n      0xffffffff\n      and\n      jump\t// in\n    tag_186:\n        /* \"@openzeppelin/contracts/token/ERC20/utils/SafeERC20.sol\":4478:4537  bytes memory returndata = address(token).functionCall(data) */\n      swap1\n      pop\n        /* \"@openzeppelin/contracts/token/ERC20/utils/SafeERC20.sol\":4572:4573  0 */\n      0x00\n        /* \"@openzeppelin/contracts/token/ERC20/utils/SafeERC20.sol\":4551:4561  returndata */\n      dup2\n        /* \"@openzeppelin/contracts/token/ERC20/utils/SafeERC20.sol\":4551:4568  returndata.length */\n      mload\n        /* \"@openzeppelin/contracts/token/ERC20/utils/SafeERC20.sol\":4551:4573  returndata.length != 0 */\n      eq\n      iszero\n        /* \"@openzeppelin/contracts/token/ERC20/utils/SafeERC20.sol\":4551:4608  returndata.length != 0 && !abi.decode(returndata, (bool)) */\n      dup1\n      iszero\n      tag_188\n      jumpi\n      pop\n        /* \"@openzeppelin/contracts/token/ERC20/utils/SafeERC20.sol\":4589:4599  returndata */\n      dup1\n        /* \"@openzeppelin/contracts/token/ERC20/utils/SafeERC20.sol\":4578:4608  abi.decode(returndata, (bool)) */\n      dup1\n      0x20\n      add\n      swap1\n      mload\n      dup2\n      add\n      swap1\n      tag_189\n      swap2\n      swap1\n      tag_122\n      jump\t// in\n    tag_189:\n        /* \"@openzeppelin/contracts/token/ERC20/utils/SafeERC20.sol\":4577:4608  !abi.decode(returndata, (bool)) */\n      iszero\n        /* \"@openzeppelin/contracts/token/ERC20/utils/SafeERC20.sol\":4551:4608  returndata.length != 0 && !abi.decode(returndata, (bool)) */\n    tag_188:\n        /* \"@openzeppelin/contracts/token/ERC20/utils/SafeERC20.sol\":4547:4682  if (returndata.length != 0 && !abi.decode(returndata, (bool))) {... */\n      iszero\n      tag_190\n      jumpi\n        /* \"@openzeppelin/contracts/token/ERC20/utils/SafeERC20.sol\":4664:4669  token */\n      dup3\n        /* \"@openzeppelin/contracts/token/ERC20/utils/SafeERC20.sol\":4631:4671  SafeERC20FailedOperation(address(token)) */\n      mload(0x40)\n      0x5274afe700000000000000000000000000000000000000000000000000000000\n      dup2\n      mstore\n      0x04\n      add\n      tag_191\n      swap2\n      swap1\n      tag_45\n      jump\t// in\n    tag_191:\n      mload(0x40)\n      dup1\n      swap2\n      sub\n      swap1\n      revert\n        /* \"@openzeppelin/contracts/token/ERC20/utils/SafeERC20.sol\":4547:4682  if (returndata.length != 0 && !abi.decode(returndata, (bool))) {... */\n    tag_190:\n        /* \"@openzeppelin/contracts/token/ERC20/utils/SafeERC20.sol\":4129:4688  {... */\n      pop\n        /* \"@openzeppelin/contracts/token/ERC20/utils/SafeERC20.sol\":4059:4688  function _callOptionalReturn(IERC20 token, bytes memory data) private {... */\n      pop\n      pop\n      jump\t// out\n        /* \"@openzeppelin/contracts/utils/Address.sol\":2705:2856  function functionCall(address target, bytes memory data) internal returns (bytes memory) {... */\n    tag_187:\n        /* \"@openzeppelin/contracts/utils/Address.sol\":2780:2792  bytes memory */\n      0x60\n        /* \"@openzeppelin/contracts/utils/Address.sol\":2811:2849  functionCallWithValue(target, data, 0) */\n      tag_193\n        /* \"@openzeppelin/contracts/utils/Address.sol\":2833:2839  target */\n      dup4\n        /* \"@openzeppelin/contracts/utils/Address.sol\":2841:2845  data */\n      dup4\n        /* \"@openzeppelin/contracts/utils/Address.sol\":2847:2848  0 */\n      0x00\n        /* \"@openzeppelin/contracts/utils/Address.sol\":2811:2832  functionCallWithValue */\n      tag_194\n        /* \"@openzeppelin/contracts/utils/Address.sol\":2811:2849  functionCallWithValue(target, data, 0) */\n      jump\t// in\n    tag_193:\n        /* \"@openzeppelin/contracts/utils/Address.sol\":2804:2849  return functionCallWithValue(target, data, 0) */\n      swap1\n      pop\n        /* \"@openzeppelin/contracts/utils/Address.sol\":2705:2856  function functionCall(address target, bytes memory data) internal returns (bytes memory) {... */\n      swap3\n      swap2\n      pop\n      pop\n      jump\t// out\n        /* \"@openzeppelin/contracts/utils/Address.sol\":3180:3572  function functionCallWithValue(address target, bytes memory data, uint256 value) internal returns (bytes memory) {... */\n    tag_194:\n        /* \"@openzeppelin/contracts/utils/Address.sol\":3279:3291  bytes memory */\n      0x60\n        /* \"@openzeppelin/contracts/utils/Address.sol\":3331:3336  value */\n      dup2\n        /* \"@openzeppelin/contracts/utils/Address.sol\":3307:3328  address(this).balance */\n      selfbalance\n        /* \"@openzeppelin/contracts/utils/Address.sol\":3307:3336  address(this).balance < value */\n      lt\n        /* \"@openzeppelin/contracts/utils/Address.sol\":3303:3411  if (address(this).balance < value) {... */\n      iszero\n      tag_196\n      jumpi\n        /* \"@openzeppelin/contracts/utils/Address.sol\":3394:3398  this */\n      address\n        /* \"@openzeppelin/contracts/utils/Address.sol\":3359:3400  AddressInsufficientBalance(address(this)) */\n      mload(0x40)\n      0xcd78605900000000000000000000000000000000000000000000000000000000\n      dup2\n      mstore\n      0x04\n      add\n      tag_197\n      swap2\n      swap1\n      tag_45\n      jump\t// in\n    tag_197:\n      mload(0x40)\n      dup1\n      swap2\n      sub\n      swap1\n      revert\n        /* \"@openzeppelin/contracts/utils/Address.sol\":3303:3411  if (address(this).balance < value) {... */\n    tag_196:\n        /* \"@openzeppelin/contracts/utils/Address.sol\":3421:3433  bool success */\n      0x00\n        /* \"@openzeppelin/contracts/utils/Address.sol\":3435:3458  bytes memory returndata */\n      dup1\n        /* \"@openzeppelin/contracts/utils/Address.sol\":3462:3468  target */\n      dup6\n        /* \"@openzeppelin/contracts/utils/Address.sol\":3462:3473  target.call */\n      0xffffffffffffffffffffffffffffffffffffffff\n      and\n        /* \"@openzeppelin/contracts/utils/Address.sol\":3481:3486  value */\n      dup5\n        /* \"@openzeppelin/contracts/utils/Address.sol\":3488:3492  data */\n      dup7\n        /* \"@openzeppelin/contracts/utils/Address.sol\":3462:3493  target.call{value: value}(data) */\n      mload(0x40)\n      tag_198\n      swap2\n      swap1\n      tag_199\n      jump\t// in\n    tag_198:\n      0x00\n      mload(0x40)\n      dup1\n      dup4\n      sub\n      dup2\n      dup6\n      dup8\n      gas\n      call\n      swap3\n      pop\n      pop\n      pop\n      returndatasize\n      dup1\n      0x00\n      dup2\n      eq\n      tag_202\n      jumpi\n      mload(0x40)\n      swap2\n      pop\n      and(add(returndatasize, 0x3f), not(0x1f))\n      dup3\n      add\n      0x40\n      mstore\n      returndatasize\n      dup3\n      mstore\n      returndatasize\n      0x00\n      0x20\n      dup5\n      add\n      returndatacopy\n      jump(tag_201)\n    tag_202:\n      0x60\n      swap2\n      pop\n    tag_201:\n      pop\n        /* \"@openzeppelin/contracts/utils/Address.sol\":3420:3493  (bool success, bytes memory returndata) = target.call{value: value}(data) */\n      swap2\n      pop\n      swap2\n      pop\n        /* \"@openzeppelin/contracts/utils/Address.sol\":3510:3565  verifyCallResultFromTarget(target, success, returndata) */\n      tag_203\n        /* \"@openzeppelin/contracts/utils/Address.sol\":3537:3543  target */\n      dup7\n        /* \"@openzeppelin/contracts/utils/Address.sol\":3545:3552  success */\n      dup4\n        /* \"@openzeppelin/contracts/utils/Address.sol\":3554:3564  returndata */\n      dup4\n        /* \"@openzeppelin/contracts/utils/Address.sol\":3510:3536  verifyCallResultFromTarget */\n      tag_204\n        /* \"@openzeppelin/contracts/utils/Address.sol\":3510:3565  verifyCallResultFromTarget(target, success, returndata) */\n      jump\t// in\n    tag_203:\n        /* \"@openzeppelin/contracts/utils/Address.sol\":3503:3565  return verifyCallResultFromTarget(target, success, returndata) */\n      swap3\n      pop\n      pop\n      pop\n        /* \"@openzeppelin/contracts/utils/Address.sol\":3180:3572  function functionCallWithValue(address target, bytes memory data, uint256 value) internal returns (bytes memory) {... */\n      swap4\n      swap3\n      pop\n      pop\n      pop\n      jump\t// out\n        /* \"@openzeppelin/contracts/utils/Address.sol\":4625:5207  function verifyCallResultFromTarget(... */\n    tag_204:\n        /* \"@openzeppelin/contracts/utils/Address.sol\":4769:4781  bytes memory */\n      0x60\n        /* \"@openzeppelin/contracts/utils/Address.sol\":4798:4805  success */\n      dup3\n        /* \"@openzeppelin/contracts/utils/Address.sol\":4793:5201  if (!success) {... */\n      tag_206\n      jumpi\n        /* \"@openzeppelin/contracts/utils/Address.sol\":4821:4840  _revert(returndata) */\n      tag_207\n        /* \"@openzeppelin/contracts/utils/Address.sol\":4829:4839  returndata */\n      dup3\n        /* \"@openzeppelin/contracts/utils/Address.sol\":4821:4828  _revert */\n      tag_208\n        /* \"@openzeppelin/contracts/utils/Address.sol\":4821:4840  _revert(returndata) */\n      jump\t// in\n    tag_207:\n        /* \"@openzeppelin/contracts/utils/Address.sol\":4793:5201  if (!success) {... */\n      jump(tag_209)\n    tag_206:\n        /* \"@openzeppelin/contracts/utils/Address.sol\":5066:5067  0 */\n      0x00\n        /* \"@openzeppelin/contracts/utils/Address.sol\":5045:5055  returndata */\n      dup3\n        /* \"@openzeppelin/contracts/utils/Address.sol\":5045:5062  returndata.length */\n      mload\n        /* \"@openzeppelin/contracts/utils/Address.sol\":5045:5067  returndata.length == 0 */\n      eq\n        /* \"@openzeppelin/contracts/utils/Address.sol\":5045:5094  returndata.length == 0 && target.code.length == 0 */\n      dup1\n      iszero\n      tag_210\n      jumpi\n      pop\n        /* \"@openzeppelin/contracts/utils/Address.sol\":5093:5094  0 */\n      0x00\n        /* \"@openzeppelin/contracts/utils/Address.sol\":5071:5077  target */\n      dup5\n        /* \"@openzeppelin/contracts/utils/Address.sol\":5071:5089  target.code.length */\n      0xffffffffffffffffffffffffffffffffffffffff\n      and\n      extcodesize\n        /* \"@openzeppelin/contracts/utils/Address.sol\":5071:5094  target.code.length == 0 */\n      eq\n        /* \"@openzeppelin/contracts/utils/Address.sol\":5045:5094  returndata.length == 0 && target.code.length == 0 */\n    tag_210:\n        /* \"@openzeppelin/contracts/utils/Address.sol\":5041:5160  if (returndata.length == 0 && target.code.length == 0) {... */\n      iszero\n      tag_211\n      jumpi\n        /* \"@openzeppelin/contracts/utils/Address.sol\":5138:5144  target */\n      dup4\n        /* \"@openzeppelin/contracts/utils/Address.sol\":5121:5145  AddressEmptyCode(target) */\n      mload(0x40)\n      0x9996b31500000000000000000000000000000000000000000000000000000000\n      dup2\n      mstore\n      0x04\n      add\n      tag_212\n      swap2\n      swap1\n      tag_45\n      jump\t// in\n    tag_212:\n      mload(0x40)\n      dup1\n      swap2\n      sub\n      swap1\n      revert\n        /* \"@openzeppelin/contracts/utils/Address.sol\":5041:5160  if (returndata.length == 0 && target.code.length == 0) {... */\n    tag_211:\n        /* \"@openzeppelin/contracts/utils/Address.sol\":5180:5190  returndata */\n      dup2\n        /* \"@openzeppelin/contracts/utils/Address.sol\":5173:5190  return returndata */\n      swap1\n      pop\n      jump(tag_205)\n        /* \"@openzeppelin/contracts/utils/Address.sol\":4793:5201  if (!success) {... */\n    tag_209:\n        /* \"@openzeppelin/contracts/utils/Address.sol\":4625:5207  function verifyCallResultFromTarget(... */\n    tag_205:\n      swap4\n      swap3\n      pop\n      pop\n      pop\n      jump\t// out\n        /* \"@openzeppelin/contracts/utils/Address.sol\":5743:6259  function _revert(bytes memory returndata) private pure {... */\n    tag_208:\n        /* \"@openzeppelin/contracts/utils/Address.sol\":5894:5895  0 */\n      0x00\n        /* \"@openzeppelin/contracts/utils/Address.sol\":5874:5884  returndata */\n      dup2\n        /* \"@openzeppelin/contracts/utils/Address.sol\":5874:5891  returndata.length */\n      mload\n        /* \"@openzeppelin/contracts/utils/Address.sol\":5874:5895  returndata.length > 0 */\n      gt\n        /* \"@openzeppelin/contracts/utils/Address.sol\":5870:6253  if (returndata.length > 0) {... */\n      iszero\n      tag_214\n      jumpi\n        /* \"@openzeppelin/contracts/utils/Address.sol\":6102:6112  returndata */\n      dup1\n        /* \"@openzeppelin/contracts/utils/Address.sol\":6096:6113  mload(returndata) */\n      mload\n        /* \"@openzeppelin/contracts/utils/Address.sol\":6158:6173  returndata_size */\n      dup1\n        /* \"@openzeppelin/contracts/utils/Address.sol\":6145:6155  returndata */\n      dup3\n        /* \"@openzeppelin/contracts/utils/Address.sol\":6141:6143  32 */\n      0x20\n        /* \"@openzeppelin/contracts/utils/Address.sol\":6137:6156  add(32, returndata) */\n      add\n        /* \"@openzeppelin/contracts/utils/Address.sol\":6130:6174  revert(add(32, returndata), returndata_size) */\n      revert\n        /* \"@openzeppelin/contracts/utils/Address.sol\":5870:6253  if (returndata.length > 0) {... */\n    tag_214:\n        /* \"@openzeppelin/contracts/utils/Address.sol\":6225:6242  FailedInnerCall() */\n      mload(0x40)\n      0x1425ea4200000000000000000000000000000000000000000000000000000000\n      dup2\n      mstore\n      0x04\n      add\n      mload(0x40)\n      dup1\n      swap2\n      sub\n      swap1\n      revert\n        /* \"#utility.yul\":7:133   */\n    tag_216:\n        /* \"#utility.yul\":44:51   */\n      0x00\n        /* \"#utility.yul\":84:126   */\n      0xffffffffffffffffffffffffffffffffffffffff\n        /* \"#utility.yul\":77:82   */\n      dup3\n        /* \"#utility.yul\":73:127   */\n      and\n        /* \"#utility.yul\":62:127   */\n      swap1\n      pop\n        /* \"#utility.yul\":7:133   */\n      swap2\n      swap1\n      pop\n      jump\t// out\n        /* \"#utility.yul\":139:199   */\n    tag_217:\n        /* \"#utility.yul\":167:170   */\n      0x00\n        /* \"#utility.yul\":188:193   */\n      dup2\n        /* \"#utility.yul\":181:193   */\n      swap1\n      pop\n        /* \"#utility.yul\":139:199   */\n      swap2\n      swap1\n      pop\n      jump\t// out\n        /* \"#utility.yul\":205:347   */\n    tag_218:\n        /* \"#utility.yul\":255:264   */\n      0x00\n        /* \"#utility.yul\":288:341   */\n      tag_264\n        /* \"#utility.yul\":306:340   */\n      tag_265\n        /* \"#utility.yul\":315:339   */\n      tag_266\n        /* \"#utility.yul\":333:338   */\n      dup5\n        /* \"#utility.yul\":315:339   */\n      tag_216\n      jump\t// in\n    tag_266:\n        /* \"#utility.yul\":306:340   */\n      tag_217\n      jump\t// in\n    tag_265:\n        /* \"#utility.yul\":288:341   */\n      tag_216\n      jump\t// in\n    tag_264:\n        /* \"#utility.yul\":275:341   */\n      swap1\n      pop\n        /* \"#utility.yul\":205:347   */\n      swap2\n      swap1\n      pop\n      jump\t// out\n        /* \"#utility.yul\":353:479   */\n    tag_219:\n        /* \"#utility.yul\":403:412   */\n      0x00\n        /* \"#utility.yul\":436:473   */\n      tag_268\n        /* \"#utility.yul\":467:472   */\n      dup3\n        /* \"#utility.yul\":436:473   */\n      tag_218\n      jump\t// in\n    tag_268:\n        /* \"#utility.yul\":423:473   */\n      swap1\n      pop\n        /* \"#utility.yul\":353:479   */\n      swap2\n      swap1\n      pop\n      jump\t// out\n        /* \"#utility.yul\":485:625   */\n    tag_220:\n        /* \"#utility.yul\":549:558   */\n      0x00\n        /* \"#utility.yul\":582:619   */\n      tag_270\n        /* \"#utility.yul\":613:618   */\n      dup3\n        /* \"#utility.yul\":582:619   */\n      tag_219\n      jump\t// in\n    tag_270:\n        /* \"#utility.yul\":569:619   */\n      swap1\n      pop\n        /* \"#utility.yul\":485:625   */\n      swap2\n      swap1\n      pop\n      jump\t// out\n        /* \"#utility.yul\":631:790   */\n    tag_221:\n        /* \"#utility.yul\":732:783   */\n      tag_272\n        /* \"#utility.yul\":777:782   */\n      dup2\n        /* \"#utility.yul\":732:783   */\n      tag_220\n      jump\t// in\n    tag_272:\n        /* \"#utility.yul\":727:730   */\n      dup3\n        /* \"#utility.yul\":720:784   */\n      mstore\n        /* \"#utility.yul\":631:790   */\n      pop\n      pop\n      jump\t// out\n        /* \"#utility.yul\":796:1046   */\n    tag_23:\n        /* \"#utility.yul\":903:907   */\n      0x00\n        /* \"#utility.yul\":941:943   */\n      0x20\n        /* \"#utility.yul\":930:939   */\n      dup3\n        /* \"#utility.yul\":926:944   */\n      add\n        /* \"#utility.yul\":918:944   */\n      swap1\n      pop\n        /* \"#utility.yul\":954:1039   */\n      tag_274\n        /* \"#utility.yul\":1036:1037   */\n      0x00\n        /* \"#utility.yul\":1025:1034   */\n      dup4\n        /* \"#utility.yul\":1021:1038   */\n      add\n        /* \"#utility.yul\":1012:1018   */\n      dup5\n        /* \"#utility.yul\":954:1039   */\n      tag_221\n      jump\t// in\n    tag_274:\n        /* \"#utility.yul\":796:1046   */\n      swap3\n      swap2\n      pop\n      pop\n      jump\t// out\n        /* \"#utility.yul\":1052:1129   */\n    tag_222:\n        /* \"#utility.yul\":1089:1096   */\n      0x00\n        /* \"#utility.yul\":1118:1123   */\n      dup2\n        /* \"#utility.yul\":1107:1123   */\n      swap1\n      pop\n        /* \"#utility.yul\":1052:1129   */\n      swap2\n      swap1\n      pop\n      jump\t// out\n        /* \"#utility.yul\":1135:1253   */\n    tag_223:\n        /* \"#utility.yul\":1222:1246   */\n      tag_277\n        /* \"#utility.yul\":1240:1245   */\n      dup2\n        /* \"#utility.yul\":1222:1246   */\n      tag_222\n      jump\t// in\n    tag_277:\n        /* \"#utility.yul\":1217:1220   */\n      dup3\n        /* \"#utility.yul\":1210:1247   */\n      mstore\n        /* \"#utility.yul\":1135:1253   */\n      pop\n      pop\n      jump\t// out\n        /* \"#utility.yul\":1259:1481   */\n    tag_27:\n        /* \"#utility.yul\":1352:1356   */\n      0x00\n        /* \"#utility.yul\":1390:1392   */\n      0x20\n        /* \"#utility.yul\":1379:1388   */\n      dup3\n        /* \"#utility.yul\":1375:1393   */\n      add\n        /* \"#utility.yul\":1367:1393   */\n      swap1\n      pop\n        /* \"#utility.yul\":1403:1474   */\n      tag_279\n        /* \"#utility.yul\":1471:1472   */\n      0x00\n        /* \"#utility.yul\":1460:1469   */\n      dup4\n        /* \"#utility.yul\":1456:1473   */\n      add\n        /* \"#utility.yul\":1447:1453   */\n      dup5\n        /* \"#utility.yul\":1403:1474   */\n      tag_223\n      jump\t// in\n    tag_279:\n        /* \"#utility.yul\":1259:1481   */\n      swap3\n      swap2\n      pop\n      pop\n      jump\t// out\n        /* \"#utility.yul\":1487:1577   */\n    tag_224:\n        /* \"#utility.yul\":1521:1528   */\n      0x00\n        /* \"#utility.yul\":1564:1569   */\n      dup2\n        /* \"#utility.yul\":1557:1570   */\n      iszero\n        /* \"#utility.yul\":1550:1571   */\n      iszero\n        /* \"#utility.yul\":1539:1571   */\n      swap1\n      pop\n        /* \"#utility.yul\":1487:1577   */\n      swap2\n      swap1\n      pop\n      jump\t// out\n        /* \"#utility.yul\":1583:1692   */\n    tag_225:\n        /* \"#utility.yul\":1664:1685   */\n      tag_282\n        /* \"#utility.yul\":1679:1684   */\n      dup2\n        /* \"#utility.yul\":1664:1685   */\n      tag_224\n      jump\t// in\n    tag_282:\n        /* \"#utility.yul\":1659:1662   */\n      dup3\n        /* \"#utility.yul\":1652:1686   */\n      mstore\n        /* \"#utility.yul\":1583:1692   */\n      pop\n      pop\n      jump\t// out\n        /* \"#utility.yul\":1698:1908   */\n    tag_33:\n        /* \"#utility.yul\":1785:1789   */\n      0x00\n        /* \"#utility.yul\":1823:1825   */\n      0x20\n        /* \"#utility.yul\":1812:1821   */\n      dup3\n        /* \"#utility.yul\":1808:1826   */\n      add\n        /* \"#utility.yul\":1800:1826   */\n      swap1\n      pop\n        /* \"#utility.yul\":1836:1901   */\n      tag_284\n        /* \"#utility.yul\":1898:1899   */\n      0x00\n        /* \"#utility.yul\":1887:1896   */\n      dup4\n        /* \"#utility.yul\":1883:1900   */\n      add\n        /* \"#utility.yul\":1874:1880   */\n      dup5\n        /* \"#utility.yul\":1836:1901   */\n      tag_225\n      jump\t// in\n    tag_284:\n        /* \"#utility.yul\":1698:1908   */\n      swap3\n      swap2\n      pop\n      pop\n      jump\t// out\n        /* \"#utility.yul\":1995:2112   */\n    tag_227:\n        /* \"#utility.yul\":2104:2105   */\n      0x00\n        /* \"#utility.yul\":2101:2102   */\n      dup1\n        /* \"#utility.yul\":2094:2106   */\n      revert\n        /* \"#utility.yul\":2241:2363   */\n    tag_229:\n        /* \"#utility.yul\":2314:2338   */\n      tag_289\n        /* \"#utility.yul\":2332:2337   */\n      dup2\n        /* \"#utility.yul\":2314:2338   */\n      tag_222\n      jump\t// in\n    tag_289:\n        /* \"#utility.yul\":2307:2312   */\n      dup2\n        /* \"#utility.yul\":2304:2339   */\n      eq\n        /* \"#utility.yul\":2294:2357   */\n      tag_290\n      jumpi\n        /* \"#utility.yul\":2353:2354   */\n      0x00\n        /* \"#utility.yul\":2350:2351   */\n      dup1\n        /* \"#utility.yul\":2343:2355   */\n      revert\n        /* \"#utility.yul\":2294:2357   */\n    tag_290:\n        /* \"#utility.yul\":2241:2363   */\n      pop\n      jump\t// out\n        /* \"#utility.yul\":2369:2508   */\n    tag_230:\n        /* \"#utility.yul\":2415:2420   */\n      0x00\n        /* \"#utility.yul\":2453:2459   */\n      dup2\n        /* \"#utility.yul\":2440:2460   */\n      calldataload\n        /* \"#utility.yul\":2431:2460   */\n      swap1\n      pop\n        /* \"#utility.yul\":2469:2502   */\n      tag_292\n        /* \"#utility.yul\":2496:2501   */\n      dup2\n        /* \"#utility.yul\":2469:2502   */\n      tag_229\n      jump\t// in\n    tag_292:\n        /* \"#utility.yul\":2369:2508   */\n      swap3\n      swap2\n      pop\n      pop\n      jump\t// out\n        /* \"#utility.yul\":2514:2610   */\n    tag_231:\n        /* \"#utility.yul\":2551:2558   */\n      0x00\n        /* \"#utility.yul\":2580:2604   */\n      tag_294\n        /* \"#utility.yul\":2598:2603   */\n      dup3\n        /* \"#utility.yul\":2580:2604   */\n      tag_216\n      jump\t// in\n    tag_294:\n        /* \"#utility.yul\":2569:2604   */\n      swap1\n      pop\n        /* \"#utility.yul\":2514:2610   */\n      swap2\n      swap1\n      pop\n      jump\t// out\n        /* \"#utility.yul\":2616:2738   */\n    tag_232:\n        /* \"#utility.yul\":2689:2713   */\n      tag_296\n        /* \"#utility.yul\":2707:2712   */\n      dup2\n        /* \"#utility.yul\":2689:2713   */\n      tag_231\n      jump\t// in\n    tag_296:\n        /* \"#utility.yul\":2682:2687   */\n      dup2\n        /* \"#utility.yul\":2679:2714   */\n      eq\n        /* \"#utility.yul\":2669:2732   */\n      tag_297\n      jumpi\n        /* \"#utility.yul\":2728:2729   */\n      0x00\n        /* \"#utility.yul\":2725:2726   */\n      dup1\n        /* \"#utility.yul\":2718:2730   */\n      revert\n        /* \"#utility.yul\":2669:2732   */\n    tag_297:\n        /* \"#utility.yul\":2616:2738   */\n      pop\n      jump\t// out\n        /* \"#utility.yul\":2744:2883   */\n    tag_233:\n        /* \"#utility.yul\":2790:2795   */\n      0x00\n        /* \"#utility.yul\":2828:2834   */\n      dup2\n        /* \"#utility.yul\":2815:2835   */\n      calldataload\n        /* \"#utility.yul\":2806:2835   */\n      swap1\n      pop\n        /* \"#utility.yul\":2844:2877   */\n      tag_299\n        /* \"#utility.yul\":2871:2876   */\n      dup2\n        /* \"#utility.yul\":2844:2877   */\n      tag_232\n      jump\t// in\n    tag_299:\n        /* \"#utility.yul\":2744:2883   */\n      swap3\n      swap2\n      pop\n      pop\n      jump\t// out\n        /* \"#utility.yul\":2889:3508   */\n    tag_40:\n        /* \"#utility.yul\":2966:2972   */\n      0x00\n        /* \"#utility.yul\":2974:2980   */\n      dup1\n        /* \"#utility.yul\":2982:2988   */\n      0x00\n        /* \"#utility.yul\":3031:3033   */\n      0x60\n        /* \"#utility.yul\":3019:3028   */\n      dup5\n        /* \"#utility.yul\":3010:3017   */\n      dup7\n        /* \"#utility.yul\":3006:3029   */\n      sub\n        /* \"#utility.yul\":3002:3034   */\n      slt\n        /* \"#utility.yul\":2999:3118   */\n      iszero\n      tag_301\n      jumpi\n        /* \"#utility.yul\":3037:3116   */\n      tag_302\n      tag_227\n      jump\t// in\n    tag_302:\n        /* \"#utility.yul\":2999:3118   */\n    tag_301:\n        /* \"#utility.yul\":3157:3158   */\n      0x00\n        /* \"#utility.yul\":3182:3235   */\n      tag_303\n        /* \"#utility.yul\":3227:3234   */\n      dup7\n        /* \"#utility.yul\":3218:3224   */\n      dup3\n        /* \"#utility.yul\":3207:3216   */\n      dup8\n        /* \"#utility.yul\":3203:3225   */\n      add\n        /* \"#utility.yul\":3182:3235   */\n      tag_230\n      jump\t// in\n    tag_303:\n        /* \"#utility.yul\":3172:3235   */\n      swap4\n      pop\n        /* \"#utility.yul\":3128:3245   */\n      pop\n        /* \"#utility.yul\":3284:3286   */\n      0x20\n        /* \"#utility.yul\":3310:3363   */\n      tag_304\n        /* \"#utility.yul\":3355:3362   */\n      dup7\n        /* \"#utility.yul\":3346:3352   */\n      dup3\n        /* \"#utility.yul\":3335:3344   */\n      dup8\n        /* \"#utility.yul\":3331:3353   */\n      add\n        /* \"#utility.yul\":3310:3363   */\n      tag_230\n      jump\t// in\n    tag_304:\n        /* \"#utility.yul\":3300:3363   */\n      swap3\n      pop\n        /* \"#utility.yul\":3255:3373   */\n      pop\n        /* \"#utility.yul\":3412:3414   */\n      0x40\n        /* \"#utility.yul\":3438:3491   */\n      tag_305\n        /* \"#utility.yul\":3483:3490   */\n      dup7\n        /* \"#utility.yul\":3474:3480   */\n      dup3\n        /* \"#utility.yul\":3463:3472   */\n      dup8\n        /* \"#utility.yul\":3459:3481   */\n      add\n        /* \"#utility.yul\":3438:3491   */\n      tag_233\n      jump\t// in\n    tag_305:\n        /* \"#utility.yul\":3428:3491   */\n      swap2\n      pop\n        /* \"#utility.yul\":3383:3501   */\n      pop\n        /* \"#utility.yul\":2889:3508   */\n      swap3\n      pop\n      swap3\n      pop\n      swap3\n      jump\t// out\n        /* \"#utility.yul\":3514:3632   */\n    tag_234:\n        /* \"#utility.yul\":3601:3625   */\n      tag_307\n        /* \"#utility.yul\":3619:3624   */\n      dup2\n        /* \"#utility.yul\":3601:3625   */\n      tag_231\n      jump\t// in\n    tag_307:\n        /* \"#utility.yul\":3596:3599   */\n      dup3\n        /* \"#utility.yul\":3589:3626   */\n      mstore\n        /* \"#utility.yul\":3514:3632   */\n      pop\n      pop\n      jump\t// out\n        /* \"#utility.yul\":3638:3860   */\n    tag_45:\n        /* \"#utility.yul\":3731:3735   */\n      0x00\n        /* \"#utility.yul\":3769:3771   */\n      0x20\n        /* \"#utility.yul\":3758:3767   */\n      dup3\n        /* \"#utility.yul\":3754:3772   */\n      add\n        /* \"#utility.yul\":3746:3772   */\n      swap1\n      pop\n        /* \"#utility.yul\":3782:3853   */\n      tag_309\n        /* \"#utility.yul\":3850:3851   */\n      0x00\n        /* \"#utility.yul\":3839:3848   */\n      dup4\n        /* \"#utility.yul\":3835:3852   */\n      add\n        /* \"#utility.yul\":3826:3832   */\n      dup5\n        /* \"#utility.yul\":3782:3853   */\n      tag_234\n      jump\t// in\n    tag_309:\n        /* \"#utility.yul\":3638:3860   */\n      swap3\n      swap2\n      pop\n      pop\n      jump\t// out\n        /* \"#utility.yul\":3866:4016   */\n    tag_235:\n        /* \"#utility.yul\":3940:3949   */\n      0x00\n        /* \"#utility.yul\":3973:4010   */\n      tag_311\n        /* \"#utility.yul\":4004:4009   */\n      dup3\n        /* \"#utility.yul\":3973:4010   */\n      tag_219\n      jump\t// in\n    tag_311:\n        /* \"#utility.yul\":3960:4010   */\n      swap1\n      pop\n        /* \"#utility.yul\":3866:4016   */\n      swap2\n      swap1\n      pop\n      jump\t// out\n        /* \"#utility.yul\":4022:4201   */\n    tag_236:\n        /* \"#utility.yul\":4133:4194   */\n      tag_313\n        /* \"#utility.yul\":4188:4193   */\n      dup2\n        /* \"#utility.yul\":4133:4194   */\n      tag_235\n      jump\t// in\n    tag_313:\n        /* \"#utility.yul\":4128:4131   */\n      dup3\n        /* \"#utility.yul\":4121:4195   */\n      mstore\n        /* \"#utility.yul\":4022:4201   */\n      pop\n      pop\n      jump\t// out\n        /* \"#utility.yul\":4207:4477   */\n    tag_49:\n        /* \"#utility.yul\":4324:4328   */\n      0x00\n        /* \"#utility.yul\":4362:4364   */\n      0x20\n        /* \"#utility.yul\":4351:4360   */\n      dup3\n        /* \"#utility.yul\":4347:4365   */\n      add\n        /* \"#utility.yul\":4339:4365   */\n      swap1\n      pop\n        /* \"#utility.yul\":4375:4470   */\n      tag_315\n        /* \"#utility.yul\":4467:4468   */\n      0x00\n        /* \"#utility.yul\":4456:4465   */\n      dup4\n        /* \"#utility.yul\":4452:4469   */\n      add\n        /* \"#utility.yul\":4443:4449   */\n      dup5\n        /* \"#utility.yul\":4375:4470   */\n      tag_236\n      jump\t// in\n    tag_315:\n        /* \"#utility.yul\":4207:4477   */\n      swap3\n      swap2\n      pop\n      pop\n      jump\t// out\n        /* \"#utility.yul\":4483:4957   */\n    tag_52:\n        /* \"#utility.yul\":4551:4557   */\n      0x00\n        /* \"#utility.yul\":4559:4565   */\n      dup1\n        /* \"#utility.yul\":4608:4610   */\n      0x40\n        /* \"#utility.yul\":4596:4605   */\n      dup4\n        /* \"#utility.yul\":4587:4594   */\n      dup6\n        /* \"#utility.yul\":4583:4606   */\n      sub\n        /* \"#utility.yul\":4579:4611   */\n      slt\n        /* \"#utility.yul\":4576:4695   */\n      iszero\n      tag_317\n      jumpi\n        /* \"#utility.yul\":4614:4693   */\n      tag_318\n      tag_227\n      jump\t// in\n    tag_318:\n        /* \"#utility.yul\":4576:4695   */\n    tag_317:\n        /* \"#utility.yul\":4734:4735   */\n      0x00\n        /* \"#utility.yul\":4759:4812   */\n      tag_319\n        /* \"#utility.yul\":4804:4811   */\n      dup6\n        /* \"#utility.yul\":4795:4801   */\n      dup3\n        /* \"#utility.yul\":4784:4793   */\n      dup7\n        /* \"#utility.yul\":4780:4802   */\n      add\n        /* \"#utility.yul\":4759:4812   */\n      tag_230\n      jump\t// in\n    tag_319:\n        /* \"#utility.yul\":4749:4812   */\n      swap3\n      pop\n        /* \"#utility.yul\":4705:4822   */\n      pop\n        /* \"#utility.yul\":4861:4863   */\n      0x20\n        /* \"#utility.yul\":4887:4940   */\n      tag_320\n        /* \"#utility.yul\":4932:4939   */\n      dup6\n        /* \"#utility.yul\":4923:4929   */\n      dup3\n        /* \"#utility.yul\":4912:4921   */\n      dup7\n        /* \"#utility.yul\":4908:4930   */\n      add\n        /* \"#utility.yul\":4887:4940   */\n      tag_233\n      jump\t// in\n    tag_320:\n        /* \"#utility.yul\":4877:4940   */\n      swap2\n      pop\n        /* \"#utility.yul\":4832:4950   */\n      pop\n        /* \"#utility.yul\":4483:4957   */\n      swap3\n      pop\n      swap3\n      swap1\n      pop\n      jump\t// out\n        /* \"#utility.yul\":4963:5292   */\n    tag_56:\n        /* \"#utility.yul\":5022:5028   */\n      0x00\n        /* \"#utility.yul\":5071:5073   */\n      0x20\n        /* \"#utility.yul\":5059:5068   */\n      dup3\n        /* \"#utility.yul\":5050:5057   */\n      dup5\n        /* \"#utility.yul\":5046:5069   */\n      sub\n        /* \"#utility.yul\":5042:5074   */\n      slt\n        /* \"#utility.yul\":5039:5158   */\n      iszero\n      tag_322\n      jumpi\n        /* \"#utility.yul\":5077:5156   */\n      tag_323\n      tag_227\n      jump\t// in\n    tag_323:\n        /* \"#utility.yul\":5039:5158   */\n    tag_322:\n        /* \"#utility.yul\":5197:5198   */\n      0x00\n        /* \"#utility.yul\":5222:5275   */\n      tag_324\n        /* \"#utility.yul\":5267:5274   */\n      dup5\n        /* \"#utility.yul\":5258:5264   */\n      dup3\n        /* \"#utility.yul\":5247:5256   */\n      dup6\n        /* \"#utility.yul\":5243:5265   */\n      add\n        /* \"#utility.yul\":5222:5275   */\n      tag_230\n      jump\t// in\n    tag_324:\n        /* \"#utility.yul\":5212:5275   */\n      swap2\n      pop\n        /* \"#utility.yul\":5168:5285   */\n      pop\n        /* \"#utility.yul\":4963:5292   */\n      swap3\n      swap2\n      pop\n      pop\n      jump\t// out\n        /* \"#utility.yul\":5298:5772   */\n    tag_61:\n        /* \"#utility.yul\":5366:5372   */\n      0x00\n        /* \"#utility.yul\":5374:5380   */\n      dup1\n        /* \"#utility.yul\":5423:5425   */\n      0x40\n        /* \"#utility.yul\":5411:5420   */\n      dup4\n        /* \"#utility.yul\":5402:5409   */\n      dup6\n        /* \"#utility.yul\":5398:5421   */\n      sub\n        /* \"#utility.yul\":5394:5426   */\n      slt\n        /* \"#utility.yul\":5391:5510   */\n      iszero\n      tag_326\n      jumpi\n        /* \"#utility.yul\":5429:5508   */\n      tag_327\n      tag_227\n      jump\t// in\n    tag_327:\n        /* \"#utility.yul\":5391:5510   */\n    tag_326:\n        /* \"#utility.yul\":5549:5550   */\n      0x00\n        /* \"#utility.yul\":5574:5627   */\n      tag_328\n        /* \"#utility.yul\":5619:5626   */\n      dup6\n        /* \"#utility.yul\":5610:5616   */\n      dup3\n        /* \"#utility.yul\":5599:5608   */\n      dup7\n        /* \"#utility.yul\":5595:5617   */\n      add\n        /* \"#utility.yul\":5574:5627   */\n      tag_230\n      jump\t// in\n    tag_328:\n        /* \"#utility.yul\":5564:5627   */\n      swap3\n      pop\n        /* \"#utility.yul\":5520:5637   */\n      pop\n        /* \"#utility.yul\":5676:5678   */\n      0x20\n        /* \"#utility.yul\":5702:5755   */\n      tag_329\n        /* \"#utility.yul\":5747:5754   */\n      dup6\n        /* \"#utility.yul\":5738:5744   */\n      dup3\n        /* \"#utility.yul\":5727:5736   */\n      dup7\n        /* \"#utility.yul\":5723:5745   */\n      add\n        /* \"#utility.yul\":5702:5755   */\n      tag_230\n      jump\t// in\n    tag_329:\n        /* \"#utility.yul\":5692:5755   */\n      swap2\n      pop\n        /* \"#utility.yul\":5647:5765   */\n      pop\n        /* \"#utility.yul\":5298:5772   */\n      swap3\n      pop\n      swap3\n      swap1\n      pop\n      jump\t// out\n        /* \"#utility.yul\":5778:6107   */\n    tag_65:\n        /* \"#utility.yul\":5837:5843   */\n      0x00\n        /* \"#utility.yul\":5886:5888   */\n      0x20\n        /* \"#utility.yul\":5874:5883   */\n      dup3\n        /* \"#utility.yul\":5865:5872   */\n      dup5\n        /* \"#utility.yul\":5861:5884   */\n      sub\n        /* \"#utility.yul\":5857:5889   */\n      slt\n        /* \"#utility.yul\":5854:5973   */\n      iszero\n      tag_331\n      jumpi\n        /* \"#utility.yul\":5892:5971   */\n      tag_332\n      tag_227\n      jump\t// in\n    tag_332:\n        /* \"#utility.yul\":5854:5973   */\n    tag_331:\n        /* \"#utility.yul\":6012:6013   */\n      0x00\n        /* \"#utility.yul\":6037:6090   */\n      tag_333\n        /* \"#utility.yul\":6082:6089   */\n      dup5\n        /* \"#utility.yul\":6073:6079   */\n      dup3\n        /* \"#utility.yul\":6062:6071   */\n      dup6\n        /* \"#utility.yul\":6058:6080   */\n      add\n        /* \"#utility.yul\":6037:6090   */\n      tag_233\n      jump\t// in\n    tag_333:\n        /* \"#utility.yul\":6027:6090   */\n      swap2\n      pop\n        /* \"#utility.yul\":5983:6100   */\n      pop\n        /* \"#utility.yul\":5778:6107   */\n      swap3\n      swap2\n      pop\n      pop\n      jump\t// out\n        /* \"#utility.yul\":6113:6876   */\n    tag_71:\n        /* \"#utility.yul\":6340:6344   */\n      0x00\n        /* \"#utility.yul\":6378:6381   */\n      0xc0\n        /* \"#utility.yul\":6367:6376   */\n      dup3\n        /* \"#utility.yul\":6363:6382   */\n      add\n        /* \"#utility.yul\":6355:6382   */\n      swap1\n      pop\n        /* \"#utility.yul\":6392:6463   */\n      tag_335\n        /* \"#utility.yul\":6460:6461   */\n      0x00\n        /* \"#utility.yul\":6449:6458   */\n      dup4\n        /* \"#utility.yul\":6445:6462   */\n      add\n        /* \"#utility.yul\":6436:6442   */\n      dup10\n        /* \"#utility.yul\":6392:6463   */\n      tag_234\n      jump\t// in\n    tag_335:\n        /* \"#utility.yul\":6473:6545   */\n      tag_336\n        /* \"#utility.yul\":6541:6543   */\n      0x20\n        /* \"#utility.yul\":6530:6539   */\n      dup4\n        /* \"#utility.yul\":6526:6544   */\n      add\n        /* \"#utility.yul\":6517:6523   */\n      dup9\n        /* \"#utility.yul\":6473:6545   */\n      tag_223\n      jump\t// in\n    tag_336:\n        /* \"#utility.yul\":6555:6627   */\n      tag_337\n        /* \"#utility.yul\":6623:6625   */\n      0x40\n        /* \"#utility.yul\":6612:6621   */\n      dup4\n        /* \"#utility.yul\":6608:6626   */\n      add\n        /* \"#utility.yul\":6599:6605   */\n      dup8\n        /* \"#utility.yul\":6555:6627   */\n      tag_223\n      jump\t// in\n    tag_337:\n        /* \"#utility.yul\":6637:6709   */\n      tag_338\n        /* \"#utility.yul\":6705:6707   */\n      0x60\n        /* \"#utility.yul\":6694:6703   */\n      dup4\n        /* \"#utility.yul\":6690:6708   */\n      add\n        /* \"#utility.yul\":6681:6687   */\n      dup7\n        /* \"#utility.yul\":6637:6709   */\n      tag_223\n      jump\t// in\n    tag_338:\n        /* \"#utility.yul\":6719:6792   */\n      tag_339\n        /* \"#utility.yul\":6787:6790   */\n      0x80\n        /* \"#utility.yul\":6776:6785   */\n      dup4\n        /* \"#utility.yul\":6772:6791   */\n      add\n        /* \"#utility.yul\":6763:6769   */\n      dup6\n        /* \"#utility.yul\":6719:6792   */\n      tag_234\n      jump\t// in\n    tag_339:\n        /* \"#utility.yul\":6802:6869   */\n      tag_340\n        /* \"#utility.yul\":6864:6867   */\n      0xa0\n        /* \"#utility.yul\":6853:6862   */\n      dup4\n        /* \"#utility.yul\":6849:6868   */\n      add\n        /* \"#utility.yul\":6840:6846   */\n      dup5\n        /* \"#utility.yul\":6802:6869   */\n      tag_225\n      jump\t// in\n    tag_340:\n        /* \"#utility.yul\":6113:6876   */\n      swap8\n      swap7\n      pop\n      pop\n      pop\n      pop\n      pop\n      pop\n      pop\n      jump\t// out\n        /* \"#utility.yul\":6882:7051   */\n    tag_237:\n        /* \"#utility.yul\":6966:6977   */\n      0x00\n        /* \"#utility.yul\":7000:7006   */\n      dup3\n        /* \"#utility.yul\":6995:6998   */\n      dup3\n        /* \"#utility.yul\":6988:7007   */\n      mstore\n        /* \"#utility.yul\":7040:7044   */\n      0x20\n        /* \"#utility.yul\":7035:7038   */\n      dup3\n        /* \"#utility.yul\":7031:7045   */\n      add\n        /* \"#utility.yul\":7016:7045   */\n      swap1\n      pop\n        /* \"#utility.yul\":6882:7051   */\n      swap3\n      swap2\n      pop\n      pop\n      jump\t// out\n        /* \"#utility.yul\":7057:7235   */\n    tag_238:\n        /* \"#utility.yul\":7197:7227   */\n      0x5072696365206d7573742062652067726561746572207468616e203000000000\n        /* \"#utility.yul\":7193:7194   */\n      0x00\n        /* \"#utility.yul\":7185:7191   */\n      dup3\n        /* \"#utility.yul\":7181:7195   */\n      add\n        /* \"#utility.yul\":7174:7228   */\n      mstore\n        /* \"#utility.yul\":7057:7235   */\n      pop\n      jump\t// out\n        /* \"#utility.yul\":7241:7607   */\n    tag_239:\n        /* \"#utility.yul\":7383:7386   */\n      0x00\n        /* \"#utility.yul\":7404:7471   */\n      tag_344\n        /* \"#utility.yul\":7468:7470   */\n      0x1c\n        /* \"#utility.yul\":7463:7466   */\n      dup4\n        /* \"#utility.yul\":7404:7471   */\n      tag_237\n      jump\t// in\n    tag_344:\n        /* \"#utility.yul\":7397:7471   */\n      swap2\n      pop\n        /* \"#utility.yul\":7480:7573   */\n      tag_345\n        /* \"#utility.yul\":7569:7572   */\n      dup3\n        /* \"#utility.yul\":7480:7573   */\n      tag_238\n      jump\t// in\n    tag_345:\n        /* \"#utility.yul\":7598:7600   */\n      0x20\n        /* \"#utility.yul\":7593:7596   */\n      dup3\n        /* \"#utility.yul\":7589:7601   */\n      add\n        /* \"#utility.yul\":7582:7601   */\n      swap1\n      pop\n        /* \"#utility.yul\":7241:7607   */\n      swap2\n      swap1\n      pop\n      jump\t// out\n        /* \"#utility.yul\":7613:8032   */\n    tag_95:\n        /* \"#utility.yul\":7779:7783   */\n      0x00\n        /* \"#utility.yul\":7817:7819   */\n      0x20\n        /* \"#utility.yul\":7806:7815   */\n      dup3\n        /* \"#utility.yul\":7802:7820   */\n      add\n        /* \"#utility.yul\":7794:7820   */\n      swap1\n      pop\n        /* \"#utility.yul\":7866:7875   */\n      dup2\n        /* \"#utility.yul\":7860:7864   */\n      dup2\n        /* \"#utility.yul\":7856:7876   */\n      sub\n        /* \"#utility.yul\":7852:7853   */\n      0x00\n        /* \"#utility.yul\":7841:7850   */\n      dup4\n        /* \"#utility.yul\":7837:7854   */\n      add\n        /* \"#utility.yul\":7830:7877   */\n      mstore\n        /* \"#utility.yul\":7894:8025   */\n      tag_347\n        /* \"#utility.yul\":8020:8024   */\n      dup2\n        /* \"#utility.yul\":7894:8025   */\n      tag_239\n      jump\t// in\n    tag_347:\n        /* \"#utility.yul\":7886:8025   */\n      swap1\n      pop\n        /* \"#utility.yul\":7613:8032   */\n      swap2\n      swap1\n      pop\n      jump\t// out\n        /* \"#utility.yul\":8038:8260   */\n    tag_240:\n        /* \"#utility.yul\":8178:8212   */\n      0x546f74616c20736861726573206d757374206265206772656174657220746861\n        /* \"#utility.yul\":8174:8175   */\n      0x00\n        /* \"#utility.yul\":8166:8172   */\n      dup3\n        /* \"#utility.yul\":8162:8176   */\n      add\n        /* \"#utility.yul\":8155:8213   */\n      mstore\n        /* \"#utility.yul\":8247:8252   */\n      0x6e20300000000000000000000000000000000000000000000000000000000000\n        /* \"#utility.yul\":8242:8244   */\n      0x20\n        /* \"#utility.yul\":8234:8240   */\n      dup3\n        /* \"#utility.yul\":8230:8245   */\n      add\n        /* \"#utility.yul\":8223:8253   */\n      mstore\n        /* \"#utility.yul\":8038:8260   */\n      pop\n      jump\t// out\n        /* \"#utility.yul\":8266:8632   */\n    tag_241:\n        /* \"#utility.yul\":8408:8411   */\n      0x00\n        /* \"#utility.yul\":8429:8496   */\n      tag_350\n        /* \"#utility.yul\":8493:8495   */\n      0x23\n        /* \"#utility.yul\":8488:8491   */\n      dup4\n        /* \"#utility.yul\":8429:8496   */\n      tag_237\n      jump\t// in\n    tag_350:\n        /* \"#utility.yul\":8422:8496   */\n      swap2\n      pop\n        /* \"#utility.yul\":8505:8598   */\n      tag_351\n        /* \"#utility.yul\":8594:8597   */\n      dup3\n        /* \"#utility.yul\":8505:8598   */\n      tag_240\n      jump\t// in\n    tag_351:\n        /* \"#utility.yul\":8623:8625   */\n      0x40\n        /* \"#utility.yul\":8618:8621   */\n      dup3\n        /* \"#utility.yul\":8614:8626   */\n      add\n        /* \"#utility.yul\":8607:8626   */\n      swap1\n      pop\n        /* \"#utility.yul\":8266:8632   */\n      swap2\n      swap1\n      pop\n      jump\t// out\n        /* \"#utility.yul\":8638:9057   */\n    tag_98:\n        /* \"#utility.yul\":8804:8808   */\n      0x00\n        /* \"#utility.yul\":8842:8844   */\n      0x20\n        /* \"#utility.yul\":8831:8840   */\n      dup3\n        /* \"#utility.yul\":8827:8845   */\n      add\n        /* \"#utility.yul\":8819:8845   */\n      swap1\n      pop\n        /* \"#utility.yul\":8891:8900   */\n      dup2\n        /* \"#utility.yul\":8885:8889   */\n      dup2\n        /* \"#utility.yul\":8881:8901   */\n      sub\n        /* \"#utility.yul\":8877:8878   */\n      0x00\n        /* \"#utility.yul\":8866:8875   */\n      dup4\n        /* \"#utility.yul\":8862:8879   */\n      add\n        /* \"#utility.yul\":8855:8902   */\n      mstore\n        /* \"#utility.yul\":8919:9050   */\n      tag_353\n        /* \"#utility.yul\":9045:9049   */\n      dup2\n        /* \"#utility.yul\":8919:9050   */\n      tag_241\n      jump\t// in\n    tag_353:\n        /* \"#utility.yul\":8911:9050   */\n      swap1\n      pop\n        /* \"#utility.yul\":8638:9057   */\n      swap2\n      swap1\n      pop\n      jump\t// out\n        /* \"#utility.yul\":9063:9505   */\n    tag_100:\n        /* \"#utility.yul\":9212:9216   */\n      0x00\n        /* \"#utility.yul\":9250:9252   */\n      0x60\n        /* \"#utility.yul\":9239:9248   */\n      dup3\n        /* \"#utility.yul\":9235:9253   */\n      add\n        /* \"#utility.yul\":9227:9253   */\n      swap1\n      pop\n        /* \"#utility.yul\":9263:9334   */\n      tag_355\n        /* \"#utility.yul\":9331:9332   */\n      0x00\n        /* \"#utility.yul\":9320:9329   */\n      dup4\n        /* \"#utility.yul\":9316:9333   */\n      add\n        /* \"#utility.yul\":9307:9313   */\n      dup7\n        /* \"#utility.yul\":9263:9334   */\n      tag_223\n      jump\t// in\n    tag_355:\n        /* \"#utility.yul\":9344:9416   */\n      tag_356\n        /* \"#utility.yul\":9412:9414   */\n      0x20\n        /* \"#utility.yul\":9401:9410   */\n      dup4\n        /* \"#utility.yul\":9397:9415   */\n      add\n        /* \"#utility.yul\":9388:9394   */\n      dup6\n        /* \"#utility.yul\":9344:9416   */\n      tag_223\n      jump\t// in\n    tag_356:\n        /* \"#utility.yul\":9426:9498   */\n      tag_357\n        /* \"#utility.yul\":9494:9496   */\n      0x40\n        /* \"#utility.yul\":9483:9492   */\n      dup4\n        /* \"#utility.yul\":9479:9497   */\n      add\n        /* \"#utility.yul\":9470:9476   */\n      dup5\n        /* \"#utility.yul\":9426:9498   */\n      tag_223\n      jump\t// in\n    tag_357:\n        /* \"#utility.yul\":9063:9505   */\n      swap5\n      swap4\n      pop\n      pop\n      pop\n      pop\n      jump\t// out\n        /* \"#utility.yul\":9511:9691   */\n    tag_242:\n        /* \"#utility.yul\":9559:9636   */\n      0x4e487b7100000000000000000000000000000000000000000000000000000000\n        /* \"#utility.yul\":9556:9557   */\n      0x00\n        /* \"#utility.yul\":9549:9637   */\n      mstore\n        /* \"#utility.yul\":9656:9660   */\n      0x11\n        /* \"#utility.yul\":9653:9654   */\n      0x04\n        /* \"#utility.yul\":9646:9661   */\n      mstore\n        /* \"#utility.yul\":9680:9684   */\n      0x24\n        /* \"#utility.yul\":9677:9678   */\n      0x00\n        /* \"#utility.yul\":9670:9685   */\n      revert\n        /* \"#utility.yul\":9697:9930   */\n    tag_102:\n        /* \"#utility.yul\":9736:9739   */\n      0x00\n        /* \"#utility.yul\":9759:9783   */\n      tag_360\n        /* \"#utility.yul\":9777:9782   */\n      dup3\n        /* \"#utility.yul\":9759:9783   */\n      tag_222\n      jump\t// in\n    tag_360:\n        /* \"#utility.yul\":9750:9783   */\n      swap2\n      pop\n        /* \"#utility.yul\":9805:9871   */\n      0xffffffffffffffffffffffffffffffffffffffffffffffffffffffffffffffff\n        /* \"#utility.yul\":9798:9803   */\n      dup3\n        /* \"#utility.yul\":9795:9872   */\n      sub\n        /* \"#utility.yul\":9792:9895   */\n      tag_361\n      jumpi\n        /* \"#utility.yul\":9875:9893   */\n      tag_362\n      tag_242\n      jump\t// in\n    tag_362:\n        /* \"#utility.yul\":9792:9895   */\n    tag_361:\n        /* \"#utility.yul\":9922:9923   */\n      0x01\n        /* \"#utility.yul\":9915:9920   */\n      dup3\n        /* \"#utility.yul\":9911:9924   */\n      add\n        /* \"#utility.yul\":9904:9924   */\n      swap1\n      pop\n        /* \"#utility.yul\":9697:9930   */\n      swap2\n      swap1\n      pop\n      jump\t// out\n        /* \"#utility.yul\":9936:10159   */\n    tag_243:\n        /* \"#utility.yul\":10076:10110   */\n      0x4f6e6c7920746865206f776e65722063616e2066696e616c697a652074686520\n        /* \"#utility.yul\":10072:10073   */\n      0x00\n        /* \"#utility.yul\":10064:10070   */\n      dup3\n        /* \"#utility.yul\":10060:10074   */\n      add\n        /* \"#utility.yul\":10053:10111   */\n      mstore\n        /* \"#utility.yul\":10145:10151   */\n      0x73616c6500000000000000000000000000000000000000000000000000000000\n        /* \"#utility.yul\":10140:10142   */\n      0x20\n        /* \"#utility.yul\":10132:10138   */\n      dup3\n        /* \"#utility.yul\":10128:10143   */\n      add\n        /* \"#utility.yul\":10121:10152   */\n      mstore\n        /* \"#utility.yul\":9936:10159   */\n      pop\n      jump\t// out\n        /* \"#utility.yul\":10165:10531   */\n    tag_244:\n        /* \"#utility.yul\":10307:10310   */\n      0x00\n        /* \"#utility.yul\":10328:10395   */\n      tag_365\n        /* \"#utility.yul\":10392:10394   */\n      0x24\n        /* \"#utility.yul\":10387:10390   */\n      dup4\n        /* \"#utility.yul\":10328:10395   */\n      tag_237\n      jump\t// in\n    tag_365:\n        /* \"#utility.yul\":10321:10395   */\n      swap2\n      pop\n        /* \"#utility.yul\":10404:10497   */\n      tag_366\n        /* \"#utility.yul\":10493:10496   */\n      dup3\n        /* \"#utility.yul\":10404:10497   */\n      tag_243\n      jump\t// in\n    tag_366:\n        /* \"#utility.yul\":10522:10524   */\n      0x40\n        /* \"#utility.yul\":10517:10520   */\n      dup3\n        /* \"#utility.yul\":10513:10525   */\n      add\n        /* \"#utility.yul\":10506:10525   */\n      swap1\n      pop\n        /* \"#utility.yul\":10165:10531   */\n      swap2\n      swap1\n      pop\n      jump\t// out\n        /* \"#utility.yul\":10537:10956   */\n    tag_109:\n        /* \"#utility.yul\":10703:10707   */\n      0x00\n        /* \"#utility.yul\":10741:10743   */\n      0x20\n        /* \"#utility.yul\":10730:10739   */\n      dup3\n        /* \"#utility.yul\":10726:10744   */\n      add\n        /* \"#utility.yul\":10718:10744   */\n      swap1\n      pop\n        /* \"#utility.yul\":10790:10799   */\n      dup2\n        /* \"#utility.yul\":10784:10788   */\n      dup2\n        /* \"#utility.yul\":10780:10800   */\n      sub\n        /* \"#utility.yul\":10776:10777   */\n      0x00\n        /* \"#utility.yul\":10765:10774   */\n      dup4\n        /* \"#utility.yul\":10761:10778   */\n      add\n        /* \"#utility.yul\":10754:10801   */\n      mstore\n        /* \"#utility.yul\":10818:10949   */\n      tag_368\n        /* \"#utility.yul\":10944:10948   */\n      dup2\n        /* \"#utility.yul\":10818:10949   */\n      tag_244\n      jump\t// in\n    tag_368:\n        /* \"#utility.yul\":10810:10949   */\n      swap1\n      pop\n        /* \"#utility.yul\":10537:10956   */\n      swap2\n      swap1\n      pop\n      jump\t// out\n        /* \"#utility.yul\":10962:11138   */\n    tag_245:\n        /* \"#utility.yul\":11102:11130   */\n      0x53686172657320617265207374696c6c20617661696c61626c65000000000000\n        /* \"#utility.yul\":11098:11099   */\n      0x00\n        /* \"#utility.yul\":11090:11096   */\n      dup3\n        /* \"#utility.yul\":11086:11100   */\n      add\n        /* \"#utility.yul\":11079:11131   */\n      mstore\n        /* \"#utility.yul\":10962:11138   */\n      pop\n      jump\t// out\n        /* \"#utility.yul\":11144:11510   */\n    tag_246:\n        /* \"#utility.yul\":11286:11289   */\n      0x00\n        /* \"#utility.yul\":11307:11374   */\n      tag_371\n        /* \"#utility.yul\":11371:11373   */\n      0x1a\n        /* \"#utility.yul\":11366:11369   */\n      dup4\n        /* \"#utility.yul\":11307:11374   */\n      tag_237\n      jump\t// in\n    tag_371:\n        /* \"#utility.yul\":11300:11374   */\n      swap2\n      pop\n        /* \"#utility.yul\":11383:11476   */\n      tag_372\n        /* \"#utility.yul\":11472:11475   */\n      dup3\n        /* \"#utility.yul\":11383:11476   */\n      tag_245\n      jump\t// in\n    tag_372:\n        /* \"#utility.yul\":11501:11503   */\n      0x20\n        /* \"#utility.yul\":11496:11499   */\n      dup3\n        /* \"#utility.yul\":11492:11504   */\n      add\n        /* \"#utility.yul\":11485:11504   */\n      swap1\n      pop\n        /* \"#utility.yul\":11144:11510   */\n      swap2\n      swap1\n      pop\n      jump\t// out\n        /* \"#utility.yul\":11516:11935   */\n    tag_112:\n        /* \"#utility.yul\":11682:11686   */\n      0x00\n        /* \"#utility.yul\":11720:11722   */\n      0x20\n        /* \"#utility.yul\":11709:11718   */\n      dup3\n        /* \"#utility.yul\":11705:11723   */\n      add\n        /* \"#utility.yul\":11697:11723   */\n      swap1\n      pop\n        /* \"#utility.yul\":11769:11778   */\n      dup2\n        /* \"#utility.yul\":11763:11767   */\n      dup2\n        /* \"#utility.yul\":11759:11779   */\n      sub\n        /* \"#utility.yul\":11755:11756   */\n      0x00\n        /* \"#utility.yul\":11744:11753   */\n      dup4\n        /* \"#utility.yul\":11740:11757   */\n      add\n        /* \"#utility.yul\":11733:11780   */\n      mstore\n        /* \"#utility.yul\":11797:11928   */\n      tag_374\n        /* \"#utility.yul\":11923:11927   */\n      dup2\n        /* \"#utility.yul\":11797:11928   */\n      tag_246\n      jump\t// in\n    tag_374:\n        /* \"#utility.yul\":11789:11928   */\n      swap1\n      pop\n        /* \"#utility.yul\":11516:11935   */\n      swap2\n      swap1\n      pop\n      jump\t// out\n        /* \"#utility.yul\":11941:12273   */\n    tag_116:\n        /* \"#utility.yul\":12062:12066   */\n      0x00\n        /* \"#utility.yul\":12100:12102   */\n      0x40\n        /* \"#utility.yul\":12089:12098   */\n      dup3\n        /* \"#utility.yul\":12085:12103   */\n      add\n        /* \"#utility.yul\":12077:12103   */\n      swap1\n      pop\n        /* \"#utility.yul\":12113:12184   */\n      tag_376\n        /* \"#utility.yul\":12181:12182   */\n      0x00\n        /* \"#utility.yul\":12170:12179   */\n      dup4\n        /* \"#utility.yul\":12166:12183   */\n      add\n        /* \"#utility.yul\":12157:12163   */\n      dup6\n        /* \"#utility.yul\":12113:12184   */\n      tag_223\n      jump\t// in\n    tag_376:\n        /* \"#utility.yul\":12194:12266   */\n      tag_377\n        /* \"#utility.yul\":12262:12264   */\n      0x20\n        /* \"#utility.yul\":12251:12260   */\n      dup4\n        /* \"#utility.yul\":12247:12265   */\n      add\n        /* \"#utility.yul\":12238:12244   */\n      dup5\n        /* \"#utility.yul\":12194:12266   */\n      tag_223\n      jump\t// in\n    tag_377:\n        /* \"#utility.yul\":11941:12273   */\n      swap4\n      swap3\n      pop\n      pop\n      pop\n      jump\t// out\n        /* \"#utility.yul\":12279:12395   */\n    tag_247:\n        /* \"#utility.yul\":12349:12370   */\n      tag_379\n        /* \"#utility.yul\":12364:12369   */\n      dup2\n        /* \"#utility.yul\":12349:12370   */\n      tag_224\n      jump\t// in\n    tag_379:\n        /* \"#utility.yul\":12342:12347   */\n      dup2\n        /* \"#utility.yul\":12339:12371   */\n      eq\n        /* \"#utility.yul\":12329:12389   */\n      tag_380\n      jumpi\n        /* \"#utility.yul\":12385:12386   */\n      0x00\n        /* \"#utility.yul\":12382:12383   */\n      dup1\n        /* \"#utility.yul\":12375:12387   */\n      revert\n        /* \"#utility.yul\":12329:12389   */\n    tag_380:\n        /* \"#utility.yul\":12279:12395   */\n      pop\n      jump\t// out\n        /* \"#utility.yul\":12401:12538   */\n    tag_248:\n        /* \"#utility.yul\":12455:12460   */\n      0x00\n        /* \"#utility.yul\":12486:12492   */\n      dup2\n        /* \"#utility.yul\":12480:12493   */\n      mload\n        /* \"#utility.yul\":12471:12493   */\n      swap1\n      pop\n        /* \"#utility.yul\":12502:12532   */\n      tag_382\n        /* \"#utility.yul\":12526:12531   */\n      dup2\n        /* \"#utility.yul\":12502:12532   */\n      tag_247\n      jump\t// in\n    tag_382:\n        /* \"#utility.yul\":12401:12538   */\n      swap3\n      swap2\n      pop\n      pop\n      jump\t// out\n        /* \"#utility.yul\":12544:12889   */\n    tag_122:\n        /* \"#utility.yul\":12611:12617   */\n      0x00\n        /* \"#utility.yul\":12660:12662   */\n      0x20\n        /* \"#utility.yul\":12648:12657   */\n      dup3\n        /* \"#utility.yul\":12639:12646   */\n      dup5\n        /* \"#utility.yul\":12635:12658   */\n      sub\n        /* \"#utility.yul\":12631:12663   */\n      slt\n        /* \"#utility.yul\":12628:12747   */\n      iszero\n      tag_384\n      jumpi\n        /* \"#utility.yul\":12666:12745   */\n      tag_385\n      tag_227\n      jump\t// in\n    tag_385:\n        /* \"#utility.yul\":12628:12747   */\n    tag_384:\n        /* \"#utility.yul\":12786:12787   */\n      0x00\n        /* \"#utility.yul\":12811:12872   */\n      tag_386\n        /* \"#utility.yul\":12864:12871   */\n      dup5\n        /* \"#utility.yul\":12855:12861   */\n      dup3\n        /* \"#utility.yul\":12844:12853   */\n      dup6\n        /* \"#utility.yul\":12840:12862   */\n      add\n        /* \"#utility.yul\":12811:12872   */\n      tag_248\n      jump\t// in\n    tag_386:\n        /* \"#utility.yul\":12801:12872   */\n      swap2\n      pop\n        /* \"#utility.yul\":12757:12882   */\n      pop\n        /* \"#utility.yul\":12544:12889   */\n      swap3\n      swap2\n      pop\n      pop\n      jump\t// out\n        /* \"#utility.yul\":12895:13067   */\n    tag_249:\n        /* \"#utility.yul\":13035:13059   */\n      0x50726f7065727479206973206e6f74206c697374656400000000000000000000\n        /* \"#utility.yul\":13031:13032   */\n      0x00\n        /* \"#utility.yul\":13023:13029   */\n      dup3\n        /* \"#utility.yul\":13019:13033   */\n      add\n        /* \"#utility.yul\":13012:13060   */\n      mstore\n        /* \"#utility.yul\":12895:13067   */\n      pop\n      jump\t// out\n        /* \"#utility.yul\":13073:13439   */\n    tag_250:\n        /* \"#utility.yul\":13215:13218   */\n      0x00\n        /* \"#utility.yul\":13236:13303   */\n      tag_389\n        /* \"#utility.yul\":13300:13302   */\n      0x16\n        /* \"#utility.yul\":13295:13298   */\n      dup4\n        /* \"#utility.yul\":13236:13303   */\n      tag_237\n      jump\t// in\n    tag_389:\n        /* \"#utility.yul\":13229:13303   */\n      swap2\n      pop\n        /* \"#utility.yul\":13312:13405   */\n      tag_390\n        /* \"#utility.yul\":13401:13404   */\n      dup3\n        /* \"#utility.yul\":13312:13405   */\n      tag_249\n      jump\t// in\n    tag_390:\n        /* \"#utility.yul\":13430:13432   */\n      0x20\n        /* \"#utility.yul\":13425:13428   */\n      dup3\n        /* \"#utility.yul\":13421:13433   */\n      add\n        /* \"#utility.yul\":13414:13433   */\n      swap1\n      pop\n        /* \"#utility.yul\":13073:13439   */\n      swap2\n      swap1\n      pop\n      jump\t// out\n        /* \"#utility.yul\":13445:13864   */\n    tag_128:\n        /* \"#utility.yul\":13611:13615   */\n      0x00\n        /* \"#utility.yul\":13649:13651   */\n      0x20\n        /* \"#utility.yul\":13638:13647   */\n      dup3\n        /* \"#utility.yul\":13634:13652   */\n      add\n        /* \"#utility.yul\":13626:13652   */\n      swap1\n      pop\n        /* \"#utility.yul\":13698:13707   */\n      dup2\n        /* \"#utility.yul\":13692:13696   */\n      dup2\n        /* \"#utility.yul\":13688:13708   */\n      sub\n        /* \"#utility.yul\":13684:13685   */\n      0x00\n        /* \"#utility.yul\":13673:13682   */\n      dup4\n        /* \"#utility.yul\":13669:13686   */\n      add\n        /* \"#utility.yul\":13662:13709   */\n      mstore\n        /* \"#utility.yul\":13726:13857   */\n      tag_392\n        /* \"#utility.yul\":13852:13856   */\n      dup2\n        /* \"#utility.yul\":13726:13857   */\n      tag_250\n      jump\t// in\n    tag_392:\n        /* \"#utility.yul\":13718:13857   */\n      swap1\n      pop\n        /* \"#utility.yul\":13445:13864   */\n      swap2\n      swap1\n      pop\n      jump\t// out\n        /* \"#utility.yul\":13870:14047   */\n    tag_251:\n        /* \"#utility.yul\":14010:14039   */\n      0x4e6f7420656e6f7567682073686172657320617661696c61626c650000000000\n        /* \"#utility.yul\":14006:14007   */\n      0x00\n        /* \"#utility.yul\":13998:14004   */\n      dup3\n        /* \"#utility.yul\":13994:14008   */\n      add\n        /* \"#utility.yul\":13987:14040   */\n      mstore\n        /* \"#utility.yul\":13870:14047   */\n      pop\n      jump\t// out\n        /* \"#utility.yul\":14053:14419   */\n    tag_252:\n        /* \"#utility.yul\":14195:14198   */\n      0x00\n        /* \"#utility.yul\":14216:14283   */\n      tag_395\n        /* \"#utility.yul\":14280:14282   */\n      0x1b\n        /* \"#utility.yul\":14275:14278   */\n      dup4\n        /* \"#utility.yul\":14216:14283   */\n      tag_237\n      jump\t// in\n    tag_395:\n        /* \"#utility.yul\":14209:14283   */\n      swap2\n      pop\n        /* \"#utility.yul\":14292:14385   */\n      tag_396\n        /* \"#utility.yul\":14381:14384   */\n      dup3\n        /* \"#utility.yul\":14292:14385   */\n      tag_251\n      jump\t// in\n    tag_396:\n        /* \"#utility.yul\":14410:14412   */\n      0x20\n        /* \"#utility.yul\":14405:14408   */\n      dup3\n        /* \"#utility.yul\":14401:14413   */\n      add\n        /* \"#utility.yul\":14394:14413   */\n      swap1\n      pop\n        /* \"#utility.yul\":14053:14419   */\n      swap2\n      swap1\n      pop\n      jump\t// out\n        /* \"#utility.yul\":14425:14844   */\n    tag_131:\n        /* \"#utility.yul\":14591:14595   */\n      0x00\n        /* \"#utility.yul\":14629:14631   */\n      0x20\n        /* \"#utility.yul\":14618:14627   */\n      dup3\n        /* \"#utility.yul\":14614:14632   */\n      add\n        /* \"#utility.yul\":14606:14632   */\n      swap1\n      pop\n        /* \"#utility.yul\":14678:14687   */\n      dup2\n        /* \"#utility.yul\":14672:14676   */\n      dup2\n        /* \"#utility.yul\":14668:14688   */\n      sub\n        /* \"#utility.yul\":14664:14665   */\n      0x00\n        /* \"#utility.yul\":14653:14662   */\n      dup4\n        /* \"#utility.yul\":14649:14666   */\n      add\n        /* \"#utility.yul\":14642:14689   */\n      mstore\n        /* \"#utility.yul\":14706:14837   */\n      tag_398\n        /* \"#utility.yul\":14832:14836   */\n      dup2\n        /* \"#utility.yul\":14706:14837   */\n      tag_252\n      jump\t// in\n    tag_398:\n        /* \"#utility.yul\":14698:14837   */\n      swap1\n      pop\n        /* \"#utility.yul\":14425:14844   */\n      swap2\n      swap1\n      pop\n      jump\t// out\n        /* \"#utility.yul\":14850:15073   */\n    tag_253:\n        /* \"#utility.yul\":14990:15024   */\n      0x53686172657320746f20627579206d7573742062652067726561746572207468\n        /* \"#utility.yul\":14986:14987   */\n      0x00\n        /* \"#utility.yul\":14978:14984   */\n      dup3\n        /* \"#utility.yul\":14974:14988   */\n      add\n        /* \"#utility.yul\":14967:15025   */\n      mstore\n        /* \"#utility.yul\":15059:15065   */\n      0x616e203000000000000000000000000000000000000000000000000000000000\n        /* \"#utility.yul\":15054:15056   */\n      0x20\n        /* \"#utility.yul\":15046:15052   */\n      dup3\n        /* \"#utility.yul\":15042:15057   */\n      add\n        /* \"#utility.yul\":15035:15066   */\n      mstore\n        /* \"#utility.yul\":14850:15073   */\n      pop\n      jump\t// out\n        /* \"#utility.yul\":15079:15445   */\n    tag_254:\n        /* \"#utility.yul\":15221:15224   */\n      0x00\n        /* \"#utility.yul\":15242:15309   */\n      tag_401\n        /* \"#utility.yul\":15306:15308   */\n      0x24\n        /* \"#utility.yul\":15301:15304   */\n      dup4\n        /* \"#utility.yul\":15242:15309   */\n      tag_237\n      jump\t// in\n    tag_401:\n        /* \"#utility.yul\":15235:15309   */\n      swap2\n      pop\n        /* \"#utility.yul\":15318:15411   */\n      tag_402\n        /* \"#utility.yul\":15407:15410   */\n      dup3\n        /* \"#utility.yul\":15318:15411   */\n      tag_253\n      jump\t// in\n    tag_402:\n        /* \"#utility.yul\":15436:15438   */\n      0x40\n        /* \"#utility.yul\":15431:15434   */\n      dup3\n        /* \"#utility.yul\":15427:15439   */\n      add\n        /* \"#utility.yul\":15420:15439   */\n      swap1\n      pop\n        /* \"#utility.yul\":15079:15445   */\n      swap2\n      swap1\n      pop\n      jump\t// out\n        /* \"#utility.yul\":15451:15870   */\n    tag_134:\n        /* \"#utility.yul\":15617:15621   */\n      0x00\n        /* \"#utility.yul\":15655:15657   */\n      0x20\n        /* \"#utility.yul\":15644:15653   */\n      dup3\n        /* \"#utility.yul\":15640:15658   */\n      add\n        /* \"#utility.yul\":15632:15658   */\n      swap1\n      pop\n        /* \"#utility.yul\":15704:15713   */\n      dup2\n        /* \"#utility.yul\":15698:15702   */\n      dup2\n        /* \"#utility.yul\":15694:15714   */\n      sub\n        /* \"#utility.yul\":15690:15691   */\n      0x00\n        /* \"#utility.yul\":15679:15688   */\n      dup4\n        /* \"#utility.yul\":15675:15692   */\n      add\n        /* \"#utility.yul\":15668:15715   */\n      mstore\n        /* \"#utility.yul\":15732:15863   */\n      tag_404\n        /* \"#utility.yul\":15858:15862   */\n      dup2\n        /* \"#utility.yul\":15732:15863   */\n      tag_254\n      jump\t// in\n    tag_404:\n        /* \"#utility.yul\":15724:15863   */\n      swap1\n      pop\n        /* \"#utility.yul\":15451:15870   */\n      swap2\n      swap1\n      pop\n      jump\t// out\n        /* \"#utility.yul\":15876:16286   */\n    tag_136:\n        /* \"#utility.yul\":15916:15923   */\n      0x00\n        /* \"#utility.yul\":15939:15959   */\n      tag_406\n        /* \"#utility.yul\":15957:15958   */\n      dup3\n        /* \"#utility.yul\":15939:15959   */\n      tag_222\n      jump\t// in\n    tag_406:\n        /* \"#utility.yul\":15934:15959   */\n      swap2\n      pop\n        /* \"#utility.yul\":15973:15993   */\n      tag_407\n        /* \"#utility.yul\":15991:15992   */\n      dup4\n        /* \"#utility.yul\":15973:15993   */\n      tag_222\n      jump\t// in\n    tag_407:\n        /* \"#utility.yul\":15968:15993   */\n      swap3\n      pop\n        /* \"#utility.yul\":16028:16029   */\n      dup3\n        /* \"#utility.yul\":16025:16026   */\n      dup3\n        /* \"#utility.yul\":16021:16030   */\n      mul\n        /* \"#utility.yul\":16050:16080   */\n      tag_408\n        /* \"#utility.yul\":16068:16079   */\n      dup2\n        /* \"#utility.yul\":16050:16080   */\n      tag_222\n      jump\t// in\n    tag_408:\n        /* \"#utility.yul\":16039:16080   */\n      swap2\n      pop\n        /* \"#utility.yul\":16229:16230   */\n      dup3\n        /* \"#utility.yul\":16220:16227   */\n      dup3\n        /* \"#utility.yul\":16216:16231   */\n      div\n        /* \"#utility.yul\":16213:16214   */\n      dup5\n        /* \"#utility.yul\":16210:16232   */\n      eq\n        /* \"#utility.yul\":16190:16191   */\n      dup4\n        /* \"#utility.yul\":16183:16192   */\n      iszero\n        /* \"#utility.yul\":16163:16246   */\n      or\n        /* \"#utility.yul\":16140:16279   */\n      tag_409\n      jumpi\n        /* \"#utility.yul\":16259:16277   */\n      tag_410\n      tag_242\n      jump\t// in\n    tag_410:\n        /* \"#utility.yul\":16140:16279   */\n    tag_409:\n        /* \"#utility.yul\":15924:16286   */\n      pop\n        /* \"#utility.yul\":15876:16286   */\n      swap3\n      swap2\n      pop\n      pop\n      jump\t// out\n        /* \"#utility.yul\":16292:16472   */\n    tag_255:\n        /* \"#utility.yul\":16340:16417   */\n      0x4e487b7100000000000000000000000000000000000000000000000000000000\n        /* \"#utility.yul\":16337:16338   */\n      0x00\n        /* \"#utility.yul\":16330:16418   */\n      mstore\n        /* \"#utility.yul\":16437:16441   */\n      0x12\n        /* \"#utility.yul\":16434:16435   */\n      0x04\n        /* \"#utility.yul\":16427:16442   */\n      mstore\n        /* \"#utility.yul\":16461:16465   */\n      0x24\n        /* \"#utility.yul\":16458:16459   */\n      0x00\n        /* \"#utility.yul\":16451:16466   */\n      revert\n        /* \"#utility.yul\":16478:16663   */\n    tag_138:\n        /* \"#utility.yul\":16518:16519   */\n      0x00\n        /* \"#utility.yul\":16535:16555   */\n      tag_413\n        /* \"#utility.yul\":16553:16554   */\n      dup3\n        /* \"#utility.yul\":16535:16555   */\n      tag_222\n      jump\t// in\n    tag_413:\n        /* \"#utility.yul\":16530:16555   */\n      swap2\n      pop\n        /* \"#utility.yul\":16569:16589   */\n      tag_414\n        /* \"#utility.yul\":16587:16588   */\n      dup4\n        /* \"#utility.yul\":16569:16589   */\n      tag_222\n      jump\t// in\n    tag_414:\n        /* \"#utility.yul\":16564:16589   */\n      swap3\n      pop\n        /* \"#utility.yul\":16608:16609   */\n      dup3\n        /* \"#utility.yul\":16598:16633   */\n      tag_415\n      jumpi\n        /* \"#utility.yul\":16613:16631   */\n      tag_416\n      tag_255\n      jump\t// in\n    tag_416:\n        /* \"#utility.yul\":16598:16633   */\n    tag_415:\n        /* \"#utility.yul\":16655:16656   */\n      dup3\n        /* \"#utility.yul\":16652:16653   */\n      dup3\n        /* \"#utility.yul\":16648:16657   */\n      div\n        /* \"#utility.yul\":16643:16657   */\n      swap1\n      pop\n        /* \"#utility.yul\":16478:16663   */\n      swap3\n      swap2\n      pop\n      pop\n      jump\t// out\n        /* \"#utility.yul\":16669:16863   */\n    tag_142:\n        /* \"#utility.yul\":16709:16713   */\n      0x00\n        /* \"#utility.yul\":16729:16749   */\n      tag_418\n        /* \"#utility.yul\":16747:16748   */\n      dup3\n        /* \"#utility.yul\":16729:16749   */\n      tag_222\n      jump\t// in\n    tag_418:\n        /* \"#utility.yul\":16724:16749   */\n      swap2\n      pop\n        /* \"#utility.yul\":16763:16783   */\n      tag_419\n        /* \"#utility.yul\":16781:16782   */\n      dup4\n        /* \"#utility.yul\":16763:16783   */\n      tag_222\n      jump\t// in\n    tag_419:\n        /* \"#utility.yul\":16758:16783   */\n      swap3\n      pop\n        /* \"#utility.yul\":16807:16808   */\n      dup3\n        /* \"#utility.yul\":16804:16805   */\n      dup3\n        /* \"#utility.yul\":16800:16809   */\n      sub\n        /* \"#utility.yul\":16792:16809   */\n      swap1\n      pop\n        /* \"#utility.yul\":16831:16832   */\n      dup2\n        /* \"#utility.yul\":16825:16829   */\n      dup2\n        /* \"#utility.yul\":16822:16833   */\n      gt\n        /* \"#utility.yul\":16819:16856   */\n      iszero\n      tag_420\n      jumpi\n        /* \"#utility.yul\":16836:16854   */\n      tag_421\n      tag_242\n      jump\t// in\n    tag_421:\n        /* \"#utility.yul\":16819:16856   */\n    tag_420:\n        /* \"#utility.yul\":16669:16863   */\n      swap3\n      swap2\n      pop\n      pop\n      jump\t// out\n        /* \"#utility.yul\":16869:17201   */\n    tag_175:\n        /* \"#utility.yul\":16990:16994   */\n      0x00\n        /* \"#utility.yul\":17028:17030   */\n      0x40\n        /* \"#utility.yul\":17017:17026   */\n      dup3\n        /* \"#utility.yul\":17013:17031   */\n      add\n        /* \"#utility.yul\":17005:17031   */\n      swap1\n      pop\n        /* \"#utility.yul\":17041:17112   */\n      tag_423\n        /* \"#utility.yul\":17109:17110   */\n      0x00\n        /* \"#utility.yul\":17098:17107   */\n      dup4\n        /* \"#utility.yul\":17094:17111   */\n      add\n        /* \"#utility.yul\":17085:17091   */\n      dup6\n        /* \"#utility.yul\":17041:17112   */\n      tag_234\n      jump\t// in\n    tag_423:\n        /* \"#utility.yul\":17122:17194   */\n      tag_424\n        /* \"#utility.yul\":17190:17192   */\n      0x20\n        /* \"#utility.yul\":17179:17188   */\n      dup4\n        /* \"#utility.yul\":17175:17193   */\n      add\n        /* \"#utility.yul\":17166:17172   */\n      dup5\n        /* \"#utility.yul\":17122:17194   */\n      tag_223\n      jump\t// in\n    tag_424:\n        /* \"#utility.yul\":16869:17201   */\n      swap4\n      swap3\n      pop\n      pop\n      pop\n      jump\t// out\n        /* \"#utility.yul\":17207:17649   */\n    tag_180:\n        /* \"#utility.yul\":17356:17360   */\n      0x00\n        /* \"#utility.yul\":17394:17396   */\n      0x60\n        /* \"#utility.yul\":17383:17392   */\n      dup3\n        /* \"#utility.yul\":17379:17397   */\n      add\n        /* \"#utility.yul\":17371:17397   */\n      swap1\n      pop\n        /* \"#utility.yul\":17407:17478   */\n      tag_426\n        /* \"#utility.yul\":17475:17476   */\n      0x00\n        /* \"#utility.yul\":17464:17473   */\n      dup4\n        /* \"#utility.yul\":17460:17477   */\n      add\n        /* \"#utility.yul\":17451:17457   */\n      dup7\n        /* \"#utility.yul\":17407:17478   */\n      tag_234\n      jump\t// in\n    tag_426:\n        /* \"#utility.yul\":17488:17560   */\n      tag_427\n        /* \"#utility.yul\":17556:17558   */\n      0x20\n        /* \"#utility.yul\":17545:17554   */\n      dup4\n        /* \"#utility.yul\":17541:17559   */\n      add\n        /* \"#utility.yul\":17532:17538   */\n      dup6\n        /* \"#utility.yul\":17488:17560   */\n      tag_234\n      jump\t// in\n    tag_427:\n        /* \"#utility.yul\":17570:17642   */\n      tag_428\n        /* \"#utility.yul\":17638:17640   */\n      0x40\n        /* \"#utility.yul\":17627:17636   */\n      dup4\n        /* \"#utility.yul\":17623:17641   */\n      add\n        /* \"#utility.yul\":17614:17620   */\n      dup5\n        /* \"#utility.yul\":17570:17642   */\n      tag_223\n      jump\t// in\n    tag_428:\n        /* \"#utility.yul\":17207:17649   */\n      swap5\n      swap4\n      pop\n      pop\n      pop\n      pop\n      jump\t// out\n        /* \"#utility.yul\":17655:17753   */\n    tag_256:\n        /* \"#utility.yul\":17706:17712   */\n      0x00\n        /* \"#utility.yul\":17740:17745   */\n      dup2\n        /* \"#utility.yul\":17734:17746   */\n      mload\n        /* \"#utility.yul\":17724:17746   */\n      swap1\n      pop\n        /* \"#utility.yul\":17655:17753   */\n      swap2\n      swap1\n      pop\n      jump\t// out\n        /* \"#utility.yul\":17759:17906   */\n    tag_257:\n        /* \"#utility.yul\":17860:17871   */\n      0x00\n        /* \"#utility.yul\":17897:17900   */\n      dup2\n        /* \"#utility.yul\":17882:17900   */\n      swap1\n      pop\n        /* \"#utility.yul\":17759:17906   */\n      swap3\n      swap2\n      pop\n      pop\n      jump\t// out\n        /* \"#utility.yul\":17912:18051   */\n    tag_258:\n        /* \"#utility.yul\":18001:18007   */\n      dup3\n        /* \"#utility.yul\":17996:17999   */\n      dup2\n        /* \"#utility.yul\":17991:17994   */\n      dup4\n        /* \"#utility.yul\":17985:18008   */\n      mcopy\n        /* \"#utility.yul\":18042:18043   */\n      0x00\n        /* \"#utility.yul\":18033:18039   */\n      dup4\n        /* \"#utility.yul\":18028:18031   */\n      dup4\n        /* \"#utility.yul\":18024:18040   */\n      add\n        /* \"#utility.yul\":18017:18044   */\n      mstore\n        /* \"#utility.yul\":17912:18051   */\n      pop\n      pop\n      pop\n      jump\t// out\n        /* \"#utility.yul\":18057:18443   */\n    tag_259:\n        /* \"#utility.yul\":18161:18164   */\n      0x00\n        /* \"#utility.yul\":18189:18227   */\n      tag_433\n        /* \"#utility.yul\":18221:18226   */\n      dup3\n        /* \"#utility.yul\":18189:18227   */\n      tag_256\n      jump\t// in\n    tag_433:\n        /* \"#utility.yul\":18243:18331   */\n      tag_434\n        /* \"#utility.yul\":18324:18330   */\n      dup2\n        /* \"#utility.yul\":18319:18322   */\n      dup6\n        /* \"#utility.yul\":18243:18331   */\n      tag_257\n      jump\t// in\n    tag_434:\n        /* \"#utility.yul\":18236:18331   */\n      swap4\n      pop\n        /* \"#utility.yul\":18340:18405   */\n      tag_435\n        /* \"#utility.yul\":18398:18404   */\n      dup2\n        /* \"#utility.yul\":18393:18396   */\n      dup6\n        /* \"#utility.yul\":18386:18390   */\n      0x20\n        /* \"#utility.yul\":18379:18384   */\n      dup7\n        /* \"#utility.yul\":18375:18391   */\n      add\n        /* \"#utility.yul\":18340:18405   */\n      tag_258\n      jump\t// in\n    tag_435:\n        /* \"#utility.yul\":18430:18436   */\n      dup1\n        /* \"#utility.yul\":18425:18428   */\n      dup5\n        /* \"#utility.yul\":18421:18437   */\n      add\n        /* \"#utility.yul\":18414:18437   */\n      swap2\n      pop\n        /* \"#utility.yul\":18165:18443   */\n      pop\n        /* \"#utility.yul\":18057:18443   */\n      swap3\n      swap2\n      pop\n      pop\n      jump\t// out\n        /* \"#utility.yul\":18449:18720   */\n    tag_199:\n        /* \"#utility.yul\":18579:18582   */\n      0x00\n        /* \"#utility.yul\":18601:18694   */\n      tag_437\n        /* \"#utility.yul\":18690:18693   */\n      dup3\n        /* \"#utility.yul\":18681:18687   */\n      dup5\n        /* \"#utility.yul\":18601:18694   */\n      tag_259\n      jump\t// in\n    tag_437:\n        /* \"#utility.yul\":18594:18694   */\n      swap2\n      pop\n        /* \"#utility.yul\":18711:18714   */\n      dup2\n        /* \"#utility.yul\":18704:18714   */\n      swap1\n      pop\n        /* \"#utility.yul\":18449:18720   */\n      swap3\n      swap2\n      pop\n      pop\n      jump\t// out\n\n    auxdata: 0xa2646970667358221220c5d1ec961e12beead9c1a38d4ef661ec8ca4601b532c67cafbfe4c75f41977d664736f6c634300081a0033\n}\n",
				"bytecode": {
					"linkReferences": {},
					"object": "608060405234801561000f575f80fd5b50604051611d9f380380611d9f833981810160405281019061003191906102bd565b335f73ffffffffffffffffffffffffffffffffffffffff168173ffffffffffffffffffffffffffffffffffffffff16036100a2575f6040517f1e4fbdf7000000000000000000000000000000000000000000000000000000008152600401610099919061030a565b60405180910390fd5b6100b18161015260201b60201c565b505f8060146101000a81548160ff0219169083151502179055508160035f6101000a81548173ffffffffffffffffffffffffffffffffffffffff021916908373ffffffffffffffffffffffffffffffffffffffff1602179055508060045f6101000a81548173ffffffffffffffffffffffffffffffffffffffff021916908373ffffffffffffffffffffffffffffffffffffffff1602179055505050610323565b5f805f9054906101000a900473ffffffffffffffffffffffffffffffffffffffff169050815f806101000a81548173ffffffffffffffffffffffffffffffffffffffff021916908373ffffffffffffffffffffffffffffffffffffffff1602179055508173ffffffffffffffffffffffffffffffffffffffff168173ffffffffffffffffffffffffffffffffffffffff167f8be0079c531659141344cd1fd0a4f28419497f9722a3daafe3b4186f6b6457e060405160405180910390a35050565b5f80fd5b5f73ffffffffffffffffffffffffffffffffffffffff82169050919050565b5f61024082610217565b9050919050565b5f61025182610236565b9050919050565b61026181610247565b811461026b575f80fd5b50565b5f8151905061027c81610258565b92915050565b5f61028c82610236565b9050919050565b61029c81610282565b81146102a6575f80fd5b50565b5f815190506102b781610293565b92915050565b5f80604083850312156102d3576102d2610213565b5b5f6102e08582860161026e565b92505060206102f1858286016102a9565b9150509250929050565b61030481610236565b82525050565b5f60208201905061031d5f8301846102fb565b92915050565b611a6f806103305f395ff3fe608060405234801561000f575f80fd5b50600436106100e8575f3560e01c80638da5cb5b1161008a578063baf52c7711610064578063baf52c77146101d8578063d2bcdc6014610208578063f2fde38b14610224578063f7b1080814610240576100e8565b80638da5cb5b14610180578063b41b936d1461019e578063b4d346be146101bc576100e8565b80635c975abb116100c65780635c975abb14610132578063715018a6146101505780638456cb591461015a57806386aa217e14610164576100e8565b80633013ce29146100ec57806339500f341461010a5780633f4ba83a14610128575b5f80fd5b6100f4610275565b604051610101919061115d565b60405180910390f35b61011261029a565b60405161011f919061118e565b60405180910390f35b6101306102a0565b005b61013a6102b2565b60405161014791906111c1565b60405180910390f35b6101586102c7565b005b6101626102da565b005b61017e60048036038101906101799190611243565b6102ec565b005b610188610522565b60405161019591906112a2565b60405180910390f35b6101a6610549565b6040516101b391906112db565b60405180910390f35b6101d660048036038101906101d191906112f4565b61056e565b005b6101f260048036038101906101ed9190611332565b61078d565b6040516101ff91906111c1565b60405180910390f35b610222600480360381019061021d919061135d565b61082e565b005b61023e6004803603810190610239919061139b565b610a04565b005b61025a60048036038101906102559190611332565b610a88565b60405161026c969594939291906113c6565b60405180910390f35b60035f9054906101000a900473ffffffffffffffffffffffffffffffffffffffff1681565b60025481565b6102a8610b0b565b6102b0610b92565b565b5f8060149054906101000a900460ff16905090565b6102cf610b0b565b6102d85f610bf3565b565b6102e2610b0b565b6102ea610cb4565b565b6102f4610d16565b5f8311610336576040517f08c379a000000000000000000000000000000000000000000000000000000000815260040161032d9061147f565b60405180910390fd5b5f8211610378576040517f08c379a000000000000000000000000000000000000000000000000000000000815260040161036f9061150d565b60405180910390fd5b6040518060c001604052803373ffffffffffffffffffffffffffffffffffffffff1681526020018481526020018381526020018381526020018273ffffffffffffffffffffffffffffffffffffffff1681526020016001151581525060015f60025481526020019081526020015f205f820151815f015f6101000a81548173ffffffffffffffffffffffffffffffffffffffff021916908373ffffffffffffffffffffffffffffffffffffffff1602179055506020820151816001015560408201518160020155606082015181600301556080820151816004015f6101000a81548173ffffffffffffffffffffffffffffffffffffffff021916908373ffffffffffffffffffffffffffffffffffffffff16021790555060a08201518160040160146101000a81548160ff0219169083151502179055509050503373ffffffffffffffffffffffffffffffffffffffff167f2c479e2e638a3a97a6f194336f17f298b4ec7145f37c7d35ff6346f9cd4a003060025485856040516104fe9392919061152b565b60405180910390a260025f8154809291906105189061158d565b9190505550505050565b5f805f9054906101000a900473ffffffffffffffffffffffffffffffffffffffff16905090565b60045f9054906101000a900473ffffffffffffffffffffffffffffffffffffffff1681565b610576610d16565b5f60015f8481526020019081526020015f2090503373ffffffffffffffffffffffffffffffffffffffff16815f015f9054906101000a900473ffffffffffffffffffffffffffffffffffffffff1673ffffffffffffffffffffffffffffffffffffffff161461061a576040517f08c379a000000000000000000000000000000000000000000000000000000000815260040161061190611644565b60405180910390fd5b5f816003015414610660576040517f08c379a0000000000000000000000000000000000000000000000000000000008152600401610657906116ac565b60405180910390fd5b5f8160040160146101000a81548160ff02191690831515021790555081815f015f6101000a81548173ffffffffffffffffffffffffffffffffffffffff021916908373ffffffffffffffffffffffffffffffffffffffff1602179055505f81600101549050610733825f015f9054906101000a900473ffffffffffffffffffffffffffffffffffffffff168260035f9054906101000a900473ffffffffffffffffffffffffffffffffffffffff1673ffffffffffffffffffffffffffffffffffffffff16610d579092919063ffffffff16565b8273ffffffffffffffffffffffffffffffffffffffff167ff17a6666765db393a6218bb324c4de5cc60c9ee3b981bd102ba416effc13b89585846002015460405161077f9291906116ca565b60405180910390a250505050565b5f60045f9054906101000a900473ffffffffffffffffffffffffffffffffffffffff1673ffffffffffffffffffffffffffffffffffffffff16637485cdc2836040518263ffffffff1660e01b81526004016107e8919061118e565b602060405180830381865afa158015610803573d5f803e3d5ffd5b505050506040513d601f19601f82011682018060405250810190610827919061171b565b9050919050565b610836610d16565b5f60015f8481526020019081526020015f2090508060040160149054906101000a900460ff1661089b576040517f08c379a000000000000000000000000000000000000000000000000000000000815260040161089290611790565b60405180910390fd5b81816003015410156108e2576040517f08c379a00000000000000000000000000000000000000000000000000000000081526004016108d9906117f8565b60405180910390fd5b5f8211610924576040517f08c379a000000000000000000000000000000000000000000000000000000000815260040161091b90611886565b60405180910390fd5b5f816002015483836001015461093a91906118a4565b6109449190611912565b905061099433308360035f9054906101000a900473ffffffffffffffffffffffffffffffffffffffff1673ffffffffffffffffffffffffffffffffffffffff16610dd6909392919063ffffffff16565b82826003015f8282546109a79190611942565b925050819055503373ffffffffffffffffffffffffffffffffffffffff167fd4a7a37d339805413b4085e0f8e0932dfb0a4f84f08f98a6e53673b5ee8eee1585856040516109f69291906116ca565b60405180910390a250505050565b610a0c610b0b565b5f73ffffffffffffffffffffffffffffffffffffffff168173ffffffffffffffffffffffffffffffffffffffff1603610a7c575f6040517f1e4fbdf7000000000000000000000000000000000000000000000000000000008152600401610a7391906112a2565b60405180910390fd5b610a8581610bf3565b50565b6001602052805f5260405f205f91509050805f015f9054906101000a900473ffffffffffffffffffffffffffffffffffffffff1690806001015490806002015490806003015490806004015f9054906101000a900473ffffffffffffffffffffffffffffffffffffffff16908060040160149054906101000a900460ff16905086565b610b13610e58565b73ffffffffffffffffffffffffffffffffffffffff16610b31610522565b73ffffffffffffffffffffffffffffffffffffffff1614610b9057610b54610e58565b6040517f118cdaa7000000000000000000000000000000000000000000000000000000008152600401610b8791906112a2565b60405180910390fd5b565b610b9a610e5f565b5f8060146101000a81548160ff0219169083151502179055507f5db9ee0a495bf2e6ff9c91a7834c1ba4fdd244a5e8aa4e537bd38aeae4b073aa610bdc610e58565b604051610be991906112a2565b60405180910390a1565b5f805f9054906101000a900473ffffffffffffffffffffffffffffffffffffffff169050815f806101000a81548173ffffffffffffffffffffffffffffffffffffffff021916908373ffffffffffffffffffffffffffffffffffffffff1602179055508173ffffffffffffffffffffffffffffffffffffffff168173ffffffffffffffffffffffffffffffffffffffff167f8be0079c531659141344cd1fd0a4f28419497f9722a3daafe3b4186f6b6457e060405160405180910390a35050565b610cbc610d16565b60015f60146101000a81548160ff0219169083151502179055507f62e78cea01bee320cd4e420270b5ea74000d11b0c9f74754ebdbfc544b05a258610cff610e58565b604051610d0c91906112a2565b60405180910390a1565b610d1e6102b2565b15610d55576040517fd93c066500000000000000000000000000000000000000000000000000000000815260040160405180910390fd5b565b610dd1838473ffffffffffffffffffffffffffffffffffffffff1663a9059cbb8585604051602401610d8a929190611975565b604051602081830303815290604052915060e01b6020820180517bffffffffffffffffffffffffffffffffffffffffffffffffffffffff8381831617835250505050610e9f565b505050565b610e52848573ffffffffffffffffffffffffffffffffffffffff166323b872dd868686604051602401610e0b9392919061199c565b604051602081830303815290604052915060e01b6020820180517bffffffffffffffffffffffffffffffffffffffffffffffffffffffff8381831617835250505050610e9f565b50505050565b5f33905090565b610e676102b2565b610e9d576040517f8dfc202b00000000000000000000000000000000000000000000000000000000815260040160405180910390fd5b565b5f610ec9828473ffffffffffffffffffffffffffffffffffffffff16610f3490919063ffffffff16565b90505f815114158015610eed575080806020019051810190610eeb919061171b565b155b15610f2f57826040517f5274afe7000000000000000000000000000000000000000000000000000000008152600401610f2691906112a2565b60405180910390fd5b505050565b6060610f4183835f610f49565b905092915050565b606081471015610f9057306040517fcd786059000000000000000000000000000000000000000000000000000000008152600401610f8791906112a2565b60405180910390fd5b5f808573ffffffffffffffffffffffffffffffffffffffff168486604051610fb89190611a23565b5f6040518083038185875af1925050503d805f8114610ff2576040519150601f19603f3d011682016040523d82523d5f602084013e610ff7565b606091505b5091509150611007868383611012565b925050509392505050565b606082611027576110228261109f565b611097565b5f825114801561104d57505f8473ffffffffffffffffffffffffffffffffffffffff163b145b1561108f57836040517f9996b31500000000000000000000000000000000000000000000000000000000815260040161108691906112a2565b60405180910390fd5b819050611098565b5b9392505050565b5f815111156110b15780518082602001fd5b6040517f1425ea4200000000000000000000000000000000000000000000000000000000815260040160405180910390fd5b5f73ffffffffffffffffffffffffffffffffffffffff82169050919050565b5f819050919050565b5f61112561112061111b846110e3565b611102565b6110e3565b9050919050565b5f6111368261110b565b9050919050565b5f6111478261112c565b9050919050565b6111578161113d565b82525050565b5f6020820190506111705f83018461114e565b92915050565b5f819050919050565b61118881611176565b82525050565b5f6020820190506111a15f83018461117f565b92915050565b5f8115159050919050565b6111bb816111a7565b82525050565b5f6020820190506111d45f8301846111b2565b92915050565b5f80fd5b6111e781611176565b81146111f1575f80fd5b50565b5f81359050611202816111de565b92915050565b5f611212826110e3565b9050919050565b61122281611208565b811461122c575f80fd5b50565b5f8135905061123d81611219565b92915050565b5f805f6060848603121561125a576112596111da565b5b5f611267868287016111f4565b9350506020611278868287016111f4565b92505060406112898682870161122f565b9150509250925092565b61129c81611208565b82525050565b5f6020820190506112b55f830184611293565b92915050565b5f6112c58261112c565b9050919050565b6112d5816112bb565b82525050565b5f6020820190506112ee5f8301846112cc565b92915050565b5f806040838503121561130a576113096111da565b5b5f611317858286016111f4565b92505060206113288582860161122f565b9150509250929050565b5f60208284031215611347576113466111da565b5b5f611354848285016111f4565b91505092915050565b5f8060408385031215611373576113726111da565b5b5f611380858286016111f4565b9250506020611391858286016111f4565b9150509250929050565b5f602082840312156113b0576113af6111da565b5b5f6113bd8482850161122f565b91505092915050565b5f60c0820190506113d95f830189611293565b6113e6602083018861117f565b6113f3604083018761117f565b611400606083018661117f565b61140d6080830185611293565b61141a60a08301846111b2565b979650505050505050565b5f82825260208201905092915050565b7f5072696365206d7573742062652067726561746572207468616e2030000000005f82015250565b5f611469601c83611425565b915061147482611435565b602082019050919050565b5f6020820190508181035f8301526114968161145d565b9050919050565b7f546f74616c20736861726573206d7573742062652067726561746572207468615f8201527f6e20300000000000000000000000000000000000000000000000000000000000602082015250565b5f6114f7602383611425565b91506115028261149d565b604082019050919050565b5f6020820190508181035f830152611524816114eb565b9050919050565b5f60608201905061153e5f83018661117f565b61154b602083018561117f565b611558604083018461117f565b949350505050565b7f4e487b71000000000000000000000000000000000000000000000000000000005f52601160045260245ffd5b5f61159782611176565b91507fffffffffffffffffffffffffffffffffffffffffffffffffffffffffffffffff82036115c9576115c8611560565b5b600182019050919050565b7f4f6e6c7920746865206f776e65722063616e2066696e616c697a6520746865205f8201527f73616c6500000000000000000000000000000000000000000000000000000000602082015250565b5f61162e602483611425565b9150611639826115d4565b604082019050919050565b5f6020820190508181035f83015261165b81611622565b9050919050565b7f53686172657320617265207374696c6c20617661696c61626c650000000000005f82015250565b5f611696601a83611425565b91506116a182611662565b602082019050919050565b5f6020820190508181035f8301526116c38161168a565b9050919050565b5f6040820190506116dd5f83018561117f565b6116ea602083018461117f565b9392505050565b6116fa816111a7565b8114611704575f80fd5b50565b5f81519050611715816116f1565b92915050565b5f602082840312156117305761172f6111da565b5b5f61173d84828501611707565b91505092915050565b7f50726f7065727479206973206e6f74206c6973746564000000000000000000005f82015250565b5f61177a601683611425565b915061178582611746565b602082019050919050565b5f6020820190508181035f8301526117a78161176e565b9050919050565b7f4e6f7420656e6f7567682073686172657320617661696c61626c6500000000005f82015250565b5f6117e2601b83611425565b91506117ed826117ae565b602082019050919050565b5f6020820190508181035f83015261180f816117d6565b9050919050565b7f53686172657320746f20627579206d75737420626520677265617465722074685f8201527f616e203000000000000000000000000000000000000000000000000000000000602082015250565b5f611870602483611425565b915061187b82611816565b604082019050919050565b5f6020820190508181035f83015261189d81611864565b9050919050565b5f6118ae82611176565b91506118b983611176565b92508282026118c781611176565b915082820484148315176118de576118dd611560565b5b5092915050565b7f4e487b71000000000000000000000000000000000000000000000000000000005f52601260045260245ffd5b5f61191c82611176565b915061192783611176565b925082611937576119366118e5565b5b828204905092915050565b5f61194c82611176565b915061195783611176565b925082820390508181111561196f5761196e611560565b5b92915050565b5f6040820190506119885f830185611293565b611995602083018461117f565b9392505050565b5f6060820190506119af5f830186611293565b6119bc6020830185611293565b6119c9604083018461117f565b949350505050565b5f81519050919050565b5f81905092915050565b8281835e5f83830152505050565b5f6119fd826119d1565b611a0781856119db565b9350611a178185602086016119e5565b80840191505092915050565b5f611a2e82846119f3565b91508190509291505056fea2646970667358221220c5d1ec961e12beead9c1a38d4ef661ec8ca4601b532c67cafbfe4c75f41977d664736f6c634300081a0033",
					"opcodes": "PUSH1 0x80 PUSH1 0x40 MSTORE CALLVALUE DUP1 ISZERO PUSH2 0xF JUMPI PUSH0 DUP1 REVERT JUMPDEST POP PUSH1 0x40 MLOAD PUSH2 0x1D9F CODESIZE SUB DUP1 PUSH2 0x1D9F DUP4 CODECOPY DUP2 DUP2 ADD PUSH1 0x40 MSTORE DUP2 ADD SWAP1 PUSH2 0x31 SWAP2 SWAP1 PUSH2 0x2BD JUMP JUMPDEST CALLER PUSH0 PUSH20 0xFFFFFFFFFFFFFFFFFFFFFFFFFFFFFFFFFFFFFFFF AND DUP2 PUSH20 0xFFFFFFFFFFFFFFFFFFFFFFFFFFFFFFFFFFFFFFFF AND SUB PUSH2 0xA2 JUMPI PUSH0 PUSH1 0x40 MLOAD PUSH32 0x1E4FBDF700000000000000000000000000000000000000000000000000000000 DUP2 MSTORE PUSH1 0x4 ADD PUSH2 0x99 SWAP2 SWAP1 PUSH2 0x30A JUMP JUMPDEST PUSH1 0x40 MLOAD DUP1 SWAP2 SUB SWAP1 REVERT JUMPDEST PUSH2 0xB1 DUP2 PUSH2 0x152 PUSH1 0x20 SHL PUSH1 0x20 SHR JUMP JUMPDEST POP PUSH0 DUP1 PUSH1 0x14 PUSH2 0x100 EXP DUP2 SLOAD DUP2 PUSH1 0xFF MUL NOT AND SWAP1 DUP4 ISZERO ISZERO MUL OR SWAP1 SSTORE POP DUP2 PUSH1 0x3 PUSH0 PUSH2 0x100 EXP DUP2 SLOAD DUP2 PUSH20 0xFFFFFFFFFFFFFFFFFFFFFFFFFFFFFFFFFFFFFFFF MUL NOT AND SWAP1 DUP4 PUSH20 0xFFFFFFFFFFFFFFFFFFFFFFFFFFFFFFFFFFFFFFFF AND MUL OR SWAP1 SSTORE POP DUP1 PUSH1 0x4 PUSH0 PUSH2 0x100 EXP DUP2 SLOAD DUP2 PUSH20 0xFFFFFFFFFFFFFFFFFFFFFFFFFFFFFFFFFFFFFFFF MUL NOT AND SWAP1 DUP4 PUSH20 0xFFFFFFFFFFFFFFFFFFFFFFFFFFFFFFFFFFFFFFFF AND MUL OR SWAP1 SSTORE POP POP POP PUSH2 0x323 JUMP JUMPDEST PUSH0 DUP1 PUSH0 SWAP1 SLOAD SWAP1 PUSH2 0x100 EXP SWAP1 DIV PUSH20 0xFFFFFFFFFFFFFFFFFFFFFFFFFFFFFFFFFFFFFFFF AND SWAP1 POP DUP2 PUSH0 DUP1 PUSH2 0x100 EXP DUP2 SLOAD DUP2 PUSH20 0xFFFFFFFFFFFFFFFFFFFFFFFFFFFFFFFFFFFFFFFF MUL NOT AND SWAP1 DUP4 PUSH20 0xFFFFFFFFFFFFFFFFFFFFFFFFFFFFFFFFFFFFFFFF AND MUL OR SWAP1 SSTORE POP DUP2 PUSH20 0xFFFFFFFFFFFFFFFFFFFFFFFFFFFFFFFFFFFFFFFF AND DUP2 PUSH20 0xFFFFFFFFFFFFFFFFFFFFFFFFFFFFFFFFFFFFFFFF AND PUSH32 0x8BE0079C531659141344CD1FD0A4F28419497F9722A3DAAFE3B4186F6B6457E0 PUSH1 0x40 MLOAD PUSH1 0x40 MLOAD DUP1 SWAP2 SUB SWAP1 LOG3 POP POP JUMP JUMPDEST PUSH0 DUP1 REVERT JUMPDEST PUSH0 PUSH20 0xFFFFFFFFFFFFFFFFFFFFFFFFFFFFFFFFFFFFFFFF DUP3 AND SWAP1 POP SWAP2 SWAP1 POP JUMP JUMPDEST PUSH0 PUSH2 0x240 DUP3 PUSH2 0x217 JUMP JUMPDEST SWAP1 POP SWAP2 SWAP1 POP JUMP JUMPDEST PUSH0 PUSH2 0x251 DUP3 PUSH2 0x236 JUMP JUMPDEST SWAP1 POP SWAP2 SWAP1 POP JUMP JUMPDEST PUSH2 0x261 DUP2 PUSH2 0x247 JUMP JUMPDEST DUP2 EQ PUSH2 0x26B JUMPI PUSH0 DUP1 REVERT JUMPDEST POP JUMP JUMPDEST PUSH0 DUP2 MLOAD SWAP1 POP PUSH2 0x27C DUP2 PUSH2 0x258 JUMP JUMPDEST SWAP3 SWAP2 POP POP JUMP JUMPDEST PUSH0 PUSH2 0x28C DUP3 PUSH2 0x236 JUMP JUMPDEST SWAP1 POP SWAP2 SWAP1 POP JUMP JUMPDEST PUSH2 0x29C DUP2 PUSH2 0x282 JUMP JUMPDEST DUP2 EQ PUSH2 0x2A6 JUMPI PUSH0 DUP1 REVERT JUMPDEST POP JUMP JUMPDEST PUSH0 DUP2 MLOAD SWAP1 POP PUSH2 0x2B7 DUP2 PUSH2 0x293 JUMP JUMPDEST SWAP3 SWAP2 POP POP JUMP JUMPDEST PUSH0 DUP1 PUSH1 0x40 DUP4 DUP6 SUB SLT ISZERO PUSH2 0x2D3 JUMPI PUSH2 0x2D2 PUSH2 0x213 JUMP JUMPDEST JUMPDEST PUSH0 PUSH2 0x2E0 DUP6 DUP3 DUP7 ADD PUSH2 0x26E JUMP JUMPDEST SWAP3 POP POP PUSH1 0x20 PUSH2 0x2F1 DUP6 DUP3 DUP7 ADD PUSH2 0x2A9 JUMP JUMPDEST SWAP2 POP POP SWAP3 POP SWAP3 SWAP1 POP JUMP JUMPDEST PUSH2 0x304 DUP2 PUSH2 0x236 JUMP JUMPDEST DUP3 MSTORE POP POP JUMP JUMPDEST PUSH0 PUSH1 0x20 DUP3 ADD SWAP1 POP PUSH2 0x31D PUSH0 DUP4 ADD DUP5 PUSH2 0x2FB JUMP JUMPDEST SWAP3 SWAP2 POP POP JUMP JUMPDEST PUSH2 0x1A6F DUP1 PUSH2 0x330 PUSH0 CODECOPY PUSH0 RETURN INVALID PUSH1 0x80 PUSH1 0x40 MSTORE CALLVALUE DUP1 ISZERO PUSH2 0xF JUMPI PUSH0 DUP1 REVERT JUMPDEST POP PUSH1 0x4 CALLDATASIZE LT PUSH2 0xE8 JUMPI PUSH0 CALLDATALOAD PUSH1 0xE0 SHR DUP1 PUSH4 0x8DA5CB5B GT PUSH2 0x8A JUMPI DUP1 PUSH4 0xBAF52C77 GT PUSH2 0x64 JUMPI DUP1 PUSH4 0xBAF52C77 EQ PUSH2 0x1D8 JUMPI DUP1 PUSH4 0xD2BCDC60 EQ PUSH2 0x208 JUMPI DUP1 PUSH4 0xF2FDE38B EQ PUSH2 0x224 JUMPI DUP1 PUSH4 0xF7B10808 EQ PUSH2 0x240 JUMPI PUSH2 0xE8 JUMP JUMPDEST DUP1 PUSH4 0x8DA5CB5B EQ PUSH2 0x180 JUMPI DUP1 PUSH4 0xB41B936D EQ PUSH2 0x19E JUMPI DUP1 PUSH4 0xB4D346BE EQ PUSH2 0x1BC JUMPI PUSH2 0xE8 JUMP JUMPDEST DUP1 PUSH4 0x5C975ABB GT PUSH2 0xC6 JUMPI DUP1 PUSH4 0x5C975ABB EQ PUSH2 0x132 JUMPI DUP1 PUSH4 0x715018A6 EQ PUSH2 0x150 JUMPI DUP1 PUSH4 0x8456CB59 EQ PUSH2 0x15A JUMPI DUP1 PUSH4 0x86AA217E EQ PUSH2 0x164 JUMPI PUSH2 0xE8 JUMP JUMPDEST DUP1 PUSH4 0x3013CE29 EQ PUSH2 0xEC JUMPI DUP1 PUSH4 0x39500F34 EQ PUSH2 0x10A JUMPI DUP1 PUSH4 0x3F4BA83A EQ PUSH2 0x128 JUMPI JUMPDEST PUSH0 DUP1 REVERT JUMPDEST PUSH2 0xF4 PUSH2 0x275 JUMP JUMPDEST PUSH1 0x40 MLOAD PUSH2 0x101 SWAP2 SWAP1 PUSH2 0x115D JUMP JUMPDEST PUSH1 0x40 MLOAD DUP1 SWAP2 SUB SWAP1 RETURN JUMPDEST PUSH2 0x112 PUSH2 0x29A JUMP JUMPDEST PUSH1 0x40 MLOAD PUSH2 0x11F SWAP2 SWAP1 PUSH2 0x118E JUMP JUMPDEST PUSH1 0x40 MLOAD DUP1 SWAP2 SUB SWAP1 RETURN JUMPDEST PUSH2 0x130 PUSH2 0x2A0 JUMP JUMPDEST STOP JUMPDEST PUSH2 0x13A PUSH2 0x2B2 JUMP JUMPDEST PUSH1 0x40 MLOAD PUSH2 0x147 SWAP2 SWAP1 PUSH2 0x11C1 JUMP JUMPDEST PUSH1 0x40 MLOAD DUP1 SWAP2 SUB SWAP1 RETURN JUMPDEST PUSH2 0x158 PUSH2 0x2C7 JUMP JUMPDEST STOP JUMPDEST PUSH2 0x162 PUSH2 0x2DA JUMP JUMPDEST STOP JUMPDEST PUSH2 0x17E PUSH1 0x4 DUP1 CALLDATASIZE SUB DUP2 ADD SWAP1 PUSH2 0x179 SWAP2 SWAP1 PUSH2 0x1243 JUMP JUMPDEST PUSH2 0x2EC JUMP JUMPDEST STOP JUMPDEST PUSH2 0x188 PUSH2 0x522 JUMP JUMPDEST PUSH1 0x40 MLOAD PUSH2 0x195 SWAP2 SWAP1 PUSH2 0x12A2 JUMP JUMPDEST PUSH1 0x40 MLOAD DUP1 SWAP2 SUB SWAP1 RETURN JUMPDEST PUSH2 0x1A6 PUSH2 0x549 JUMP JUMPDEST PUSH1 0x40 MLOAD PUSH2 0x1B3 SWAP2 SWAP1 PUSH2 0x12DB JUMP JUMPDEST PUSH1 0x40 MLOAD DUP1 SWAP2 SUB SWAP1 RETURN JUMPDEST PUSH2 0x1D6 PUSH1 0x4 DUP1 CALLDATASIZE SUB DUP2 ADD SWAP1 PUSH2 0x1D1 SWAP2 SWAP1 PUSH2 0x12F4 JUMP JUMPDEST PUSH2 0x56E JUMP JUMPDEST STOP JUMPDEST PUSH2 0x1F2 PUSH1 0x4 DUP1 CALLDATASIZE SUB DUP2 ADD SWAP1 PUSH2 0x1ED SWAP2 SWAP1 PUSH2 0x1332 JUMP JUMPDEST PUSH2 0x78D JUMP JUMPDEST PUSH1 0x40 MLOAD PUSH2 0x1FF SWAP2 SWAP1 PUSH2 0x11C1 JUMP JUMPDEST PUSH1 0x40 MLOAD DUP1 SWAP2 SUB SWAP1 RETURN JUMPDEST PUSH2 0x222 PUSH1 0x4 DUP1 CALLDATASIZE SUB DUP2 ADD SWAP1 PUSH2 0x21D SWAP2 SWAP1 PUSH2 0x135D JUMP JUMPDEST PUSH2 0x82E JUMP JUMPDEST STOP JUMPDEST PUSH2 0x23E PUSH1 0x4 DUP1 CALLDATASIZE SUB DUP2 ADD SWAP1 PUSH2 0x239 SWAP2 SWAP1 PUSH2 0x139B JUMP JUMPDEST PUSH2 0xA04 JUMP JUMPDEST STOP JUMPDEST PUSH2 0x25A PUSH1 0x4 DUP1 CALLDATASIZE SUB DUP2 ADD SWAP1 PUSH2 0x255 SWAP2 SWAP1 PUSH2 0x1332 JUMP JUMPDEST PUSH2 0xA88 JUMP JUMPDEST PUSH1 0x40 MLOAD PUSH2 0x26C SWAP7 SWAP6 SWAP5 SWAP4 SWAP3 SWAP2 SWAP1 PUSH2 0x13C6 JUMP JUMPDEST PUSH1 0x40 MLOAD DUP1 SWAP2 SUB SWAP1 RETURN JUMPDEST PUSH1 0x3 PUSH0 SWAP1 SLOAD SWAP1 PUSH2 0x100 EXP SWAP1 DIV PUSH20 0xFFFFFFFFFFFFFFFFFFFFFFFFFFFFFFFFFFFFFFFF AND DUP2 JUMP JUMPDEST PUSH1 0x2 SLOAD DUP2 JUMP JUMPDEST PUSH2 0x2A8 PUSH2 0xB0B JUMP JUMPDEST PUSH2 0x2B0 PUSH2 0xB92 JUMP JUMPDEST JUMP JUMPDEST PUSH0 DUP1 PUSH1 0x14 SWAP1 SLOAD SWAP1 PUSH2 0x100 EXP SWAP1 DIV PUSH1 0xFF AND SWAP1 POP SWAP1 JUMP JUMPDEST PUSH2 0x2CF PUSH2 0xB0B JUMP JUMPDEST PUSH2 0x2D8 PUSH0 PUSH2 0xBF3 JUMP JUMPDEST JUMP JUMPDEST PUSH2 0x2E2 PUSH2 0xB0B JUMP JUMPDEST PUSH2 0x2EA PUSH2 0xCB4 JUMP JUMPDEST JUMP JUMPDEST PUSH2 0x2F4 PUSH2 0xD16 JUMP JUMPDEST PUSH0 DUP4 GT PUSH2 0x336 JUMPI PUSH1 0x40 MLOAD PUSH32 0x8C379A000000000000000000000000000000000000000000000000000000000 DUP2 MSTORE PUSH1 0x4 ADD PUSH2 0x32D SWAP1 PUSH2 0x147F JUMP JUMPDEST PUSH1 0x40 MLOAD DUP1 SWAP2 SUB SWAP1 REVERT JUMPDEST PUSH0 DUP3 GT PUSH2 0x378 JUMPI PUSH1 0x40 MLOAD PUSH32 0x8C379A000000000000000000000000000000000000000000000000000000000 DUP2 MSTORE PUSH1 0x4 ADD PUSH2 0x36F SWAP1 PUSH2 0x150D JUMP JUMPDEST PUSH1 0x40 MLOAD DUP1 SWAP2 SUB SWAP1 REVERT JUMPDEST PUSH1 0x40 MLOAD DUP1 PUSH1 0xC0 ADD PUSH1 0x40 MSTORE DUP1 CALLER PUSH20 0xFFFFFFFFFFFFFFFFFFFFFFFFFFFFFFFFFFFFFFFF AND DUP2 MSTORE PUSH1 0x20 ADD DUP5 DUP2 MSTORE PUSH1 0x20 ADD DUP4 DUP2 MSTORE PUSH1 0x20 ADD DUP4 DUP2 MSTORE PUSH1 0x20 ADD DUP3 PUSH20 0xFFFFFFFFFFFFFFFFFFFFFFFFFFFFFFFFFFFFFFFF AND DUP2 MSTORE PUSH1 0x20 ADD PUSH1 0x1 ISZERO ISZERO DUP2 MSTORE POP PUSH1 0x1 PUSH0 PUSH1 0x2 SLOAD DUP2 MSTORE PUSH1 0x20 ADD SWAP1 DUP2 MSTORE PUSH1 0x20 ADD PUSH0 KECCAK256 PUSH0 DUP3 ADD MLOAD DUP2 PUSH0 ADD PUSH0 PUSH2 0x100 EXP DUP2 SLOAD DUP2 PUSH20 0xFFFFFFFFFFFFFFFFFFFFFFFFFFFFFFFFFFFFFFFF MUL NOT AND SWAP1 DUP4 PUSH20 0xFFFFFFFFFFFFFFFFFFFFFFFFFFFFFFFFFFFFFFFF AND MUL OR SWAP1 SSTORE POP PUSH1 0x20 DUP3 ADD MLOAD DUP2 PUSH1 0x1 ADD SSTORE PUSH1 0x40 DUP3 ADD MLOAD DUP2 PUSH1 0x2 ADD SSTORE PUSH1 0x60 DUP3 ADD MLOAD DUP2 PUSH1 0x3 ADD SSTORE PUSH1 0x80 DUP3 ADD MLOAD DUP2 PUSH1 0x4 ADD PUSH0 PUSH2 0x100 EXP DUP2 SLOAD DUP2 PUSH20 0xFFFFFFFFFFFFFFFFFFFFFFFFFFFFFFFFFFFFFFFF MUL NOT AND SWAP1 DUP4 PUSH20 0xFFFFFFFFFFFFFFFFFFFFFFFFFFFFFFFFFFFFFFFF AND MUL OR SWAP1 SSTORE POP PUSH1 0xA0 DUP3 ADD MLOAD DUP2 PUSH1 0x4 ADD PUSH1 0x14 PUSH2 0x100 EXP DUP2 SLOAD DUP2 PUSH1 0xFF MUL NOT AND SWAP1 DUP4 ISZERO ISZERO MUL OR SWAP1 SSTORE POP SWAP1 POP POP CALLER PUSH20 0xFFFFFFFFFFFFFFFFFFFFFFFFFFFFFFFFFFFFFFFF AND PUSH32 0x2C479E2E638A3A97A6F194336F17F298B4EC7145F37C7D35FF6346F9CD4A0030 PUSH1 0x2 SLOAD DUP6 DUP6 PUSH1 0x40 MLOAD PUSH2 0x4FE SWAP4 SWAP3 SWAP2 SWAP1 PUSH2 0x152B JUMP JUMPDEST PUSH1 0x40 MLOAD DUP1 SWAP2 SUB SWAP1 LOG2 PUSH1 0x2 PUSH0 DUP2 SLOAD DUP1 SWAP3 SWAP2 SWAP1 PUSH2 0x518 SWAP1 PUSH2 0x158D JUMP JUMPDEST SWAP2 SWAP1 POP SSTORE POP POP POP POP JUMP JUMPDEST PUSH0 DUP1 PUSH0 SWAP1 SLOAD SWAP1 PUSH2 0x100 EXP SWAP1 DIV PUSH20 0xFFFFFFFFFFFFFFFFFFFFFFFFFFFFFFFFFFFFFFFF AND SWAP1 POP SWAP1 JUMP JUMPDEST PUSH1 0x4 PUSH0 SWAP1 SLOAD SWAP1 PUSH2 0x100 EXP SWAP1 DIV PUSH20 0xFFFFFFFFFFFFFFFFFFFFFFFFFFFFFFFFFFFFFFFF AND DUP2 JUMP JUMPDEST PUSH2 0x576 PUSH2 0xD16 JUMP JUMPDEST PUSH0 PUSH1 0x1 PUSH0 DUP5 DUP2 MSTORE PUSH1 0x20 ADD SWAP1 DUP2 MSTORE PUSH1 0x20 ADD PUSH0 KECCAK256 SWAP1 POP CALLER PUSH20 0xFFFFFFFFFFFFFFFFFFFFFFFFFFFFFFFFFFFFFFFF AND DUP2 PUSH0 ADD PUSH0 SWAP1 SLOAD SWAP1 PUSH2 0x100 EXP SWAP1 DIV PUSH20 0xFFFFFFFFFFFFFFFFFFFFFFFFFFFFFFFFFFFFFFFF AND PUSH20 0xFFFFFFFFFFFFFFFFFFFFFFFFFFFFFFFFFFFFFFFF AND EQ PUSH2 0x61A JUMPI PUSH1 0x40 MLOAD PUSH32 0x8C379A000000000000000000000000000000000000000000000000000000000 DUP2 MSTORE PUSH1 0x4 ADD PUSH2 0x611 SWAP1 PUSH2 0x1644 JUMP JUMPDEST PUSH1 0x40 MLOAD DUP1 SWAP2 SUB SWAP1 REVERT JUMPDEST PUSH0 DUP2 PUSH1 0x3 ADD SLOAD EQ PUSH2 0x660 JUMPI PUSH1 0x40 MLOAD PUSH32 0x8C379A000000000000000000000000000000000000000000000000000000000 DUP2 MSTORE PUSH1 0x4 ADD PUSH2 0x657 SWAP1 PUSH2 0x16AC JUMP JUMPDEST PUSH1 0x40 MLOAD DUP1 SWAP2 SUB SWAP1 REVERT JUMPDEST PUSH0 DUP2 PUSH1 0x4 ADD PUSH1 0x14 PUSH2 0x100 EXP DUP2 SLOAD DUP2 PUSH1 0xFF MUL NOT AND SWAP1 DUP4 ISZERO ISZERO MUL OR SWAP1 SSTORE POP DUP2 DUP2 PUSH0 ADD PUSH0 PUSH2 0x100 EXP DUP2 SLOAD DUP2 PUSH20 0xFFFFFFFFFFFFFFFFFFFFFFFFFFFFFFFFFFFFFFFF MUL NOT AND SWAP1 DUP4 PUSH20 0xFFFFFFFFFFFFFFFFFFFFFFFFFFFFFFFFFFFFFFFF AND MUL OR SWAP1 SSTORE POP PUSH0 DUP2 PUSH1 0x1 ADD SLOAD SWAP1 POP PUSH2 0x733 DUP3 PUSH0 ADD PUSH0 SWAP1 SLOAD SWAP1 PUSH2 0x100 EXP SWAP1 DIV PUSH20 0xFFFFFFFFFFFFFFFFFFFFFFFFFFFFFFFFFFFFFFFF AND DUP3 PUSH1 0x3 PUSH0 SWAP1 SLOAD SWAP1 PUSH2 0x100 EXP SWAP1 DIV PUSH20 0xFFFFFFFFFFFFFFFFFFFFFFFFFFFFFFFFFFFFFFFF AND PUSH20 0xFFFFFFFFFFFFFFFFFFFFFFFFFFFFFFFFFFFFFFFF AND PUSH2 0xD57 SWAP1 SWAP3 SWAP2 SWAP1 PUSH4 0xFFFFFFFF AND JUMP JUMPDEST DUP3 PUSH20 0xFFFFFFFFFFFFFFFFFFFFFFFFFFFFFFFFFFFFFFFF AND PUSH32 0xF17A6666765DB393A6218BB324C4DE5CC60C9EE3B981BD102BA416EFFC13B895 DUP6 DUP5 PUSH1 0x2 ADD SLOAD PUSH1 0x40 MLOAD PUSH2 0x77F SWAP3 SWAP2 SWAP1 PUSH2 0x16CA JUMP JUMPDEST PUSH1 0x40 MLOAD DUP1 SWAP2 SUB SWAP1 LOG2 POP POP POP POP JUMP JUMPDEST PUSH0 PUSH1 0x4 PUSH0 SWAP1 SLOAD SWAP1 PUSH2 0x100 EXP SWAP1 DIV PUSH20 0xFFFFFFFFFFFFFFFFFFFFFFFFFFFFFFFFFFFFFFFF AND PUSH20 0xFFFFFFFFFFFFFFFFFFFFFFFFFFFFFFFFFFFFFFFF AND PUSH4 0x7485CDC2 DUP4 PUSH1 0x40 MLOAD DUP3 PUSH4 0xFFFFFFFF AND PUSH1 0xE0 SHL DUP2 MSTORE PUSH1 0x4 ADD PUSH2 0x7E8 SWAP2 SWAP1 PUSH2 0x118E JUMP JUMPDEST PUSH1 0x20 PUSH1 0x40 MLOAD DUP1 DUP4 SUB DUP2 DUP7 GAS STATICCALL ISZERO DUP1 ISZERO PUSH2 0x803 JUMPI RETURNDATASIZE PUSH0 DUP1 RETURNDATACOPY RETURNDATASIZE PUSH0 REVERT JUMPDEST POP POP POP POP PUSH1 0x40 MLOAD RETURNDATASIZE PUSH1 0x1F NOT PUSH1 0x1F DUP3 ADD AND DUP3 ADD DUP1 PUSH1 0x40 MSTORE POP DUP2 ADD SWAP1 PUSH2 0x827 SWAP2 SWAP1 PUSH2 0x171B JUMP JUMPDEST SWAP1 POP SWAP2 SWAP1 POP JUMP JUMPDEST PUSH2 0x836 PUSH2 0xD16 JUMP JUMPDEST PUSH0 PUSH1 0x1 PUSH0 DUP5 DUP2 MSTORE PUSH1 0x20 ADD SWAP1 DUP2 MSTORE PUSH1 0x20 ADD PUSH0 KECCAK256 SWAP1 POP DUP1 PUSH1 0x4 ADD PUSH1 0x14 SWAP1 SLOAD SWAP1 PUSH2 0x100 EXP SWAP1 DIV PUSH1 0xFF AND PUSH2 0x89B JUMPI PUSH1 0x40 MLOAD PUSH32 0x8C379A000000000000000000000000000000000000000000000000000000000 DUP2 MSTORE PUSH1 0x4 ADD PUSH2 0x892 SWAP1 PUSH2 0x1790 JUMP JUMPDEST PUSH1 0x40 MLOAD DUP1 SWAP2 SUB SWAP1 REVERT JUMPDEST DUP2 DUP2 PUSH1 0x3 ADD SLOAD LT ISZERO PUSH2 0x8E2 JUMPI PUSH1 0x40 MLOAD PUSH32 0x8C379A000000000000000000000000000000000000000000000000000000000 DUP2 MSTORE PUSH1 0x4 ADD PUSH2 0x8D9 SWAP1 PUSH2 0x17F8 JUMP JUMPDEST PUSH1 0x40 MLOAD DUP1 SWAP2 SUB SWAP1 REVERT JUMPDEST PUSH0 DUP3 GT PUSH2 0x924 JUMPI PUSH1 0x40 MLOAD PUSH32 0x8C379A000000000000000000000000000000000000000000000000000000000 DUP2 MSTORE PUSH1 0x4 ADD PUSH2 0x91B SWAP1 PUSH2 0x1886 JUMP JUMPDEST PUSH1 0x40 MLOAD DUP1 SWAP2 SUB SWAP1 REVERT JUMPDEST PUSH0 DUP2 PUSH1 0x2 ADD SLOAD DUP4 DUP4 PUSH1 0x1 ADD SLOAD PUSH2 0x93A SWAP2 SWAP1 PUSH2 0x18A4 JUMP JUMPDEST PUSH2 0x944 SWAP2 SWAP1 PUSH2 0x1912 JUMP JUMPDEST SWAP1 POP PUSH2 0x994 CALLER ADDRESS DUP4 PUSH1 0x3 PUSH0 SWAP1 SLOAD SWAP1 PUSH2 0x100 EXP SWAP1 DIV PUSH20 0xFFFFFFFFFFFFFFFFFFFFFFFFFFFFFFFFFFFFFFFF AND PUSH20 0xFFFFFFFFFFFFFFFFFFFFFFFFFFFFFFFFFFFFFFFF AND PUSH2 0xDD6 SWAP1 SWAP4 SWAP3 SWAP2 SWAP1 PUSH4 0xFFFFFFFF AND JUMP JUMPDEST DUP3 DUP3 PUSH1 0x3 ADD PUSH0 DUP3 DUP3 SLOAD PUSH2 0x9A7 SWAP2 SWAP1 PUSH2 0x1942 JUMP JUMPDEST SWAP3 POP POP DUP2 SWAP1 SSTORE POP CALLER PUSH20 0xFFFFFFFFFFFFFFFFFFFFFFFFFFFFFFFFFFFFFFFF AND PUSH32 0xD4A7A37D339805413B4085E0F8E0932DFB0A4F84F08F98A6E53673B5EE8EEE15 DUP6 DUP6 PUSH1 0x40 MLOAD PUSH2 0x9F6 SWAP3 SWAP2 SWAP1 PUSH2 0x16CA JUMP JUMPDEST PUSH1 0x40 MLOAD DUP1 SWAP2 SUB SWAP1 LOG2 POP POP POP POP JUMP JUMPDEST PUSH2 0xA0C PUSH2 0xB0B JUMP JUMPDEST PUSH0 PUSH20 0xFFFFFFFFFFFFFFFFFFFFFFFFFFFFFFFFFFFFFFFF AND DUP2 PUSH20 0xFFFFFFFFFFFFFFFFFFFFFFFFFFFFFFFFFFFFFFFF AND SUB PUSH2 0xA7C JUMPI PUSH0 PUSH1 0x40 MLOAD PUSH32 0x1E4FBDF700000000000000000000000000000000000000000000000000000000 DUP2 MSTORE PUSH1 0x4 ADD PUSH2 0xA73 SWAP2 SWAP1 PUSH2 0x12A2 JUMP JUMPDEST PUSH1 0x40 MLOAD DUP1 SWAP2 SUB SWAP1 REVERT JUMPDEST PUSH2 0xA85 DUP2 PUSH2 0xBF3 JUMP JUMPDEST POP JUMP JUMPDEST PUSH1 0x1 PUSH1 0x20 MSTORE DUP1 PUSH0 MSTORE PUSH1 0x40 PUSH0 KECCAK256 PUSH0 SWAP2 POP SWAP1 POP DUP1 PUSH0 ADD PUSH0 SWAP1 SLOAD SWAP1 PUSH2 0x100 EXP SWAP1 DIV PUSH20 0xFFFFFFFFFFFFFFFFFFFFFFFFFFFFFFFFFFFFFFFF AND SWAP1 DUP1 PUSH1 0x1 ADD SLOAD SWAP1 DUP1 PUSH1 0x2 ADD SLOAD SWAP1 DUP1 PUSH1 0x3 ADD SLOAD SWAP1 DUP1 PUSH1 0x4 ADD PUSH0 SWAP1 SLOAD SWAP1 PUSH2 0x100 EXP SWAP1 DIV PUSH20 0xFFFFFFFFFFFFFFFFFFFFFFFFFFFFFFFFFFFFFFFF AND SWAP1 DUP1 PUSH1 0x4 ADD PUSH1 0x14 SWAP1 SLOAD SWAP1 PUSH2 0x100 EXP SWAP1 DIV PUSH1 0xFF AND SWAP1 POP DUP7 JUMP JUMPDEST PUSH2 0xB13 PUSH2 0xE58 JUMP JUMPDEST PUSH20 0xFFFFFFFFFFFFFFFFFFFFFFFFFFFFFFFFFFFFFFFF AND PUSH2 0xB31 PUSH2 0x522 JUMP JUMPDEST PUSH20 0xFFFFFFFFFFFFFFFFFFFFFFFFFFFFFFFFFFFFFFFF AND EQ PUSH2 0xB90 JUMPI PUSH2 0xB54 PUSH2 0xE58 JUMP JUMPDEST PUSH1 0x40 MLOAD PUSH32 0x118CDAA700000000000000000000000000000000000000000000000000000000 DUP2 MSTORE PUSH1 0x4 ADD PUSH2 0xB87 SWAP2 SWAP1 PUSH2 0x12A2 JUMP JUMPDEST PUSH1 0x40 MLOAD DUP1 SWAP2 SUB SWAP1 REVERT JUMPDEST JUMP JUMPDEST PUSH2 0xB9A PUSH2 0xE5F JUMP JUMPDEST PUSH0 DUP1 PUSH1 0x14 PUSH2 0x100 EXP DUP2 SLOAD DUP2 PUSH1 0xFF MUL NOT AND SWAP1 DUP4 ISZERO ISZERO MUL OR SWAP1 SSTORE POP PUSH32 0x5DB9EE0A495BF2E6FF9C91A7834C1BA4FDD244A5E8AA4E537BD38AEAE4B073AA PUSH2 0xBDC PUSH2 0xE58 JUMP JUMPDEST PUSH1 0x40 MLOAD PUSH2 0xBE9 SWAP2 SWAP1 PUSH2 0x12A2 JUMP JUMPDEST PUSH1 0x40 MLOAD DUP1 SWAP2 SUB SWAP1 LOG1 JUMP JUMPDEST PUSH0 DUP1 PUSH0 SWAP1 SLOAD SWAP1 PUSH2 0x100 EXP SWAP1 DIV PUSH20 0xFFFFFFFFFFFFFFFFFFFFFFFFFFFFFFFFFFFFFFFF AND SWAP1 POP DUP2 PUSH0 DUP1 PUSH2 0x100 EXP DUP2 SLOAD DUP2 PUSH20 0xFFFFFFFFFFFFFFFFFFFFFFFFFFFFFFFFFFFFFFFF MUL NOT AND SWAP1 DUP4 PUSH20 0xFFFFFFFFFFFFFFFFFFFFFFFFFFFFFFFFFFFFFFFF AND MUL OR SWAP1 SSTORE POP DUP2 PUSH20 0xFFFFFFFFFFFFFFFFFFFFFFFFFFFFFFFFFFFFFFFF AND DUP2 PUSH20 0xFFFFFFFFFFFFFFFFFFFFFFFFFFFFFFFFFFFFFFFF AND PUSH32 0x8BE0079C531659141344CD1FD0A4F28419497F9722A3DAAFE3B4186F6B6457E0 PUSH1 0x40 MLOAD PUSH1 0x40 MLOAD DUP1 SWAP2 SUB SWAP1 LOG3 POP POP JUMP JUMPDEST PUSH2 0xCBC PUSH2 0xD16 JUMP JUMPDEST PUSH1 0x1 PUSH0 PUSH1 0x14 PUSH2 0x100 EXP DUP2 SLOAD DUP2 PUSH1 0xFF MUL NOT AND SWAP1 DUP4 ISZERO ISZERO MUL OR SWAP1 SSTORE POP PUSH32 0x62E78CEA01BEE320CD4E420270B5EA74000D11B0C9F74754EBDBFC544B05A258 PUSH2 0xCFF PUSH2 0xE58 JUMP JUMPDEST PUSH1 0x40 MLOAD PUSH2 0xD0C SWAP2 SWAP1 PUSH2 0x12A2 JUMP JUMPDEST PUSH1 0x40 MLOAD DUP1 SWAP2 SUB SWAP1 LOG1 JUMP JUMPDEST PUSH2 0xD1E PUSH2 0x2B2 JUMP JUMPDEST ISZERO PUSH2 0xD55 JUMPI PUSH1 0x40 MLOAD PUSH32 0xD93C066500000000000000000000000000000000000000000000000000000000 DUP2 MSTORE PUSH1 0x4 ADD PUSH1 0x40 MLOAD DUP1 SWAP2 SUB SWAP1 REVERT JUMPDEST JUMP JUMPDEST PUSH2 0xDD1 DUP4 DUP5 PUSH20 0xFFFFFFFFFFFFFFFFFFFFFFFFFFFFFFFFFFFFFFFF AND PUSH4 0xA9059CBB DUP6 DUP6 PUSH1 0x40 MLOAD PUSH1 0x24 ADD PUSH2 0xD8A SWAP3 SWAP2 SWAP1 PUSH2 0x1975 JUMP JUMPDEST PUSH1 0x40 MLOAD PUSH1 0x20 DUP2 DUP4 SUB SUB DUP2 MSTORE SWAP1 PUSH1 0x40 MSTORE SWAP2 POP PUSH1 0xE0 SHL PUSH1 0x20 DUP3 ADD DUP1 MLOAD PUSH28 0xFFFFFFFFFFFFFFFFFFFFFFFFFFFFFFFFFFFFFFFFFFFFFFFFFFFFFFFF DUP4 DUP2 DUP4 AND OR DUP4 MSTORE POP POP POP POP PUSH2 0xE9F JUMP JUMPDEST POP POP POP JUMP JUMPDEST PUSH2 0xE52 DUP5 DUP6 PUSH20 0xFFFFFFFFFFFFFFFFFFFFFFFFFFFFFFFFFFFFFFFF AND PUSH4 0x23B872DD DUP7 DUP7 DUP7 PUSH1 0x40 MLOAD PUSH1 0x24 ADD PUSH2 0xE0B SWAP4 SWAP3 SWAP2 SWAP1 PUSH2 0x199C JUMP JUMPDEST PUSH1 0x40 MLOAD PUSH1 0x20 DUP2 DUP4 SUB SUB DUP2 MSTORE SWAP1 PUSH1 0x40 MSTORE SWAP2 POP PUSH1 0xE0 SHL PUSH1 0x20 DUP3 ADD DUP1 MLOAD PUSH28 0xFFFFFFFFFFFFFFFFFFFFFFFFFFFFFFFFFFFFFFFFFFFFFFFFFFFFFFFF DUP4 DUP2 DUP4 AND OR DUP4 MSTORE POP POP POP POP PUSH2 0xE9F JUMP JUMPDEST POP POP POP POP JUMP JUMPDEST PUSH0 CALLER SWAP1 POP SWAP1 JUMP JUMPDEST PUSH2 0xE67 PUSH2 0x2B2 JUMP JUMPDEST PUSH2 0xE9D JUMPI PUSH1 0x40 MLOAD PUSH32 0x8DFC202B00000000000000000000000000000000000000000000000000000000 DUP2 MSTORE PUSH1 0x4 ADD PUSH1 0x40 MLOAD DUP1 SWAP2 SUB SWAP1 REVERT JUMPDEST JUMP JUMPDEST PUSH0 PUSH2 0xEC9 DUP3 DUP5 PUSH20 0xFFFFFFFFFFFFFFFFFFFFFFFFFFFFFFFFFFFFFFFF AND PUSH2 0xF34 SWAP1 SWAP2 SWAP1 PUSH4 0xFFFFFFFF AND JUMP JUMPDEST SWAP1 POP PUSH0 DUP2 MLOAD EQ ISZERO DUP1 ISZERO PUSH2 0xEED JUMPI POP DUP1 DUP1 PUSH1 0x20 ADD SWAP1 MLOAD DUP2 ADD SWAP1 PUSH2 0xEEB SWAP2 SWAP1 PUSH2 0x171B JUMP JUMPDEST ISZERO JUMPDEST ISZERO PUSH2 0xF2F JUMPI DUP3 PUSH1 0x40 MLOAD PUSH32 0x5274AFE700000000000000000000000000000000000000000000000000000000 DUP2 MSTORE PUSH1 0x4 ADD PUSH2 0xF26 SWAP2 SWAP1 PUSH2 0x12A2 JUMP JUMPDEST PUSH1 0x40 MLOAD DUP1 SWAP2 SUB SWAP1 REVERT JUMPDEST POP POP POP JUMP JUMPDEST PUSH1 0x60 PUSH2 0xF41 DUP4 DUP4 PUSH0 PUSH2 0xF49 JUMP JUMPDEST SWAP1 POP SWAP3 SWAP2 POP POP JUMP JUMPDEST PUSH1 0x60 DUP2 SELFBALANCE LT ISZERO PUSH2 0xF90 JUMPI ADDRESS PUSH1 0x40 MLOAD PUSH32 0xCD78605900000000000000000000000000000000000000000000000000000000 DUP2 MSTORE PUSH1 0x4 ADD PUSH2 0xF87 SWAP2 SWAP1 PUSH2 0x12A2 JUMP JUMPDEST PUSH1 0x40 MLOAD DUP1 SWAP2 SUB SWAP1 REVERT JUMPDEST PUSH0 DUP1 DUP6 PUSH20 0xFFFFFFFFFFFFFFFFFFFFFFFFFFFFFFFFFFFFFFFF AND DUP5 DUP7 PUSH1 0x40 MLOAD PUSH2 0xFB8 SWAP2 SWAP1 PUSH2 0x1A23 JUMP JUMPDEST PUSH0 PUSH1 0x40 MLOAD DUP1 DUP4 SUB DUP2 DUP6 DUP8 GAS CALL SWAP3 POP POP POP RETURNDATASIZE DUP1 PUSH0 DUP2 EQ PUSH2 0xFF2 JUMPI PUSH1 0x40 MLOAD SWAP2 POP PUSH1 0x1F NOT PUSH1 0x3F RETURNDATASIZE ADD AND DUP3 ADD PUSH1 0x40 MSTORE RETURNDATASIZE DUP3 MSTORE RETURNDATASIZE PUSH0 PUSH1 0x20 DUP5 ADD RETURNDATACOPY PUSH2 0xFF7 JUMP JUMPDEST PUSH1 0x60 SWAP2 POP JUMPDEST POP SWAP2 POP SWAP2 POP PUSH2 0x1007 DUP7 DUP4 DUP4 PUSH2 0x1012 JUMP JUMPDEST SWAP3 POP POP POP SWAP4 SWAP3 POP POP POP JUMP JUMPDEST PUSH1 0x60 DUP3 PUSH2 0x1027 JUMPI PUSH2 0x1022 DUP3 PUSH2 0x109F JUMP JUMPDEST PUSH2 0x1097 JUMP JUMPDEST PUSH0 DUP3 MLOAD EQ DUP1 ISZERO PUSH2 0x104D JUMPI POP PUSH0 DUP5 PUSH20 0xFFFFFFFFFFFFFFFFFFFFFFFFFFFFFFFFFFFFFFFF AND EXTCODESIZE EQ JUMPDEST ISZERO PUSH2 0x108F JUMPI DUP4 PUSH1 0x40 MLOAD PUSH32 0x9996B31500000000000000000000000000000000000000000000000000000000 DUP2 MSTORE PUSH1 0x4 ADD PUSH2 0x1086 SWAP2 SWAP1 PUSH2 0x12A2 JUMP JUMPDEST PUSH1 0x40 MLOAD DUP1 SWAP2 SUB SWAP1 REVERT JUMPDEST DUP2 SWAP1 POP PUSH2 0x1098 JUMP JUMPDEST JUMPDEST SWAP4 SWAP3 POP POP POP JUMP JUMPDEST PUSH0 DUP2 MLOAD GT ISZERO PUSH2 0x10B1 JUMPI DUP1 MLOAD DUP1 DUP3 PUSH1 0x20 ADD REVERT JUMPDEST PUSH1 0x40 MLOAD PUSH32 0x1425EA4200000000000000000000000000000000000000000000000000000000 DUP2 MSTORE PUSH1 0x4 ADD PUSH1 0x40 MLOAD DUP1 SWAP2 SUB SWAP1 REVERT JUMPDEST PUSH0 PUSH20 0xFFFFFFFFFFFFFFFFFFFFFFFFFFFFFFFFFFFFFFFF DUP3 AND SWAP1 POP SWAP2 SWAP1 POP JUMP JUMPDEST PUSH0 DUP2 SWAP1 POP SWAP2 SWAP1 POP JUMP JUMPDEST PUSH0 PUSH2 0x1125 PUSH2 0x1120 PUSH2 0x111B DUP5 PUSH2 0x10E3 JUMP JUMPDEST PUSH2 0x1102 JUMP JUMPDEST PUSH2 0x10E3 JUMP JUMPDEST SWAP1 POP SWAP2 SWAP1 POP JUMP JUMPDEST PUSH0 PUSH2 0x1136 DUP3 PUSH2 0x110B JUMP JUMPDEST SWAP1 POP SWAP2 SWAP1 POP JUMP JUMPDEST PUSH0 PUSH2 0x1147 DUP3 PUSH2 0x112C JUMP JUMPDEST SWAP1 POP SWAP2 SWAP1 POP JUMP JUMPDEST PUSH2 0x1157 DUP2 PUSH2 0x113D JUMP JUMPDEST DUP3 MSTORE POP POP JUMP JUMPDEST PUSH0 PUSH1 0x20 DUP3 ADD SWAP1 POP PUSH2 0x1170 PUSH0 DUP4 ADD DUP5 PUSH2 0x114E JUMP JUMPDEST SWAP3 SWAP2 POP POP JUMP JUMPDEST PUSH0 DUP2 SWAP1 POP SWAP2 SWAP1 POP JUMP JUMPDEST PUSH2 0x1188 DUP2 PUSH2 0x1176 JUMP JUMPDEST DUP3 MSTORE POP POP JUMP JUMPDEST PUSH0 PUSH1 0x20 DUP3 ADD SWAP1 POP PUSH2 0x11A1 PUSH0 DUP4 ADD DUP5 PUSH2 0x117F JUMP JUMPDEST SWAP3 SWAP2 POP POP JUMP JUMPDEST PUSH0 DUP2 ISZERO ISZERO SWAP1 POP SWAP2 SWAP1 POP JUMP JUMPDEST PUSH2 0x11BB DUP2 PUSH2 0x11A7 JUMP JUMPDEST DUP3 MSTORE POP POP JUMP JUMPDEST PUSH0 PUSH1 0x20 DUP3 ADD SWAP1 POP PUSH2 0x11D4 PUSH0 DUP4 ADD DUP5 PUSH2 0x11B2 JUMP JUMPDEST SWAP3 SWAP2 POP POP JUMP JUMPDEST PUSH0 DUP1 REVERT JUMPDEST PUSH2 0x11E7 DUP2 PUSH2 0x1176 JUMP JUMPDEST DUP2 EQ PUSH2 0x11F1 JUMPI PUSH0 DUP1 REVERT JUMPDEST POP JUMP JUMPDEST PUSH0 DUP2 CALLDATALOAD SWAP1 POP PUSH2 0x1202 DUP2 PUSH2 0x11DE JUMP JUMPDEST SWAP3 SWAP2 POP POP JUMP JUMPDEST PUSH0 PUSH2 0x1212 DUP3 PUSH2 0x10E3 JUMP JUMPDEST SWAP1 POP SWAP2 SWAP1 POP JUMP JUMPDEST PUSH2 0x1222 DUP2 PUSH2 0x1208 JUMP JUMPDEST DUP2 EQ PUSH2 0x122C JUMPI PUSH0 DUP1 REVERT JUMPDEST POP JUMP JUMPDEST PUSH0 DUP2 CALLDATALOAD SWAP1 POP PUSH2 0x123D DUP2 PUSH2 0x1219 JUMP JUMPDEST SWAP3 SWAP2 POP POP JUMP JUMPDEST PUSH0 DUP1 PUSH0 PUSH1 0x60 DUP5 DUP7 SUB SLT ISZERO PUSH2 0x125A JUMPI PUSH2 0x1259 PUSH2 0x11DA JUMP JUMPDEST JUMPDEST PUSH0 PUSH2 0x1267 DUP7 DUP3 DUP8 ADD PUSH2 0x11F4 JUMP JUMPDEST SWAP4 POP POP PUSH1 0x20 PUSH2 0x1278 DUP7 DUP3 DUP8 ADD PUSH2 0x11F4 JUMP JUMPDEST SWAP3 POP POP PUSH1 0x40 PUSH2 0x1289 DUP7 DUP3 DUP8 ADD PUSH2 0x122F JUMP JUMPDEST SWAP2 POP POP SWAP3 POP SWAP3 POP SWAP3 JUMP JUMPDEST PUSH2 0x129C DUP2 PUSH2 0x1208 JUMP JUMPDEST DUP3 MSTORE POP POP JUMP JUMPDEST PUSH0 PUSH1 0x20 DUP3 ADD SWAP1 POP PUSH2 0x12B5 PUSH0 DUP4 ADD DUP5 PUSH2 0x1293 JUMP JUMPDEST SWAP3 SWAP2 POP POP JUMP JUMPDEST PUSH0 PUSH2 0x12C5 DUP3 PUSH2 0x112C JUMP JUMPDEST SWAP1 POP SWAP2 SWAP1 POP JUMP JUMPDEST PUSH2 0x12D5 DUP2 PUSH2 0x12BB JUMP JUMPDEST DUP3 MSTORE POP POP JUMP JUMPDEST PUSH0 PUSH1 0x20 DUP3 ADD SWAP1 POP PUSH2 0x12EE PUSH0 DUP4 ADD DUP5 PUSH2 0x12CC JUMP JUMPDEST SWAP3 SWAP2 POP POP JUMP JUMPDEST PUSH0 DUP1 PUSH1 0x40 DUP4 DUP6 SUB SLT ISZERO PUSH2 0x130A JUMPI PUSH2 0x1309 PUSH2 0x11DA JUMP JUMPDEST JUMPDEST PUSH0 PUSH2 0x1317 DUP6 DUP3 DUP7 ADD PUSH2 0x11F4 JUMP JUMPDEST SWAP3 POP POP PUSH1 0x20 PUSH2 0x1328 DUP6 DUP3 DUP7 ADD PUSH2 0x122F JUMP JUMPDEST SWAP2 POP POP SWAP3 POP SWAP3 SWAP1 POP JUMP JUMPDEST PUSH0 PUSH1 0x20 DUP3 DUP5 SUB SLT ISZERO PUSH2 0x1347 JUMPI PUSH2 0x1346 PUSH2 0x11DA JUMP JUMPDEST JUMPDEST PUSH0 PUSH2 0x1354 DUP5 DUP3 DUP6 ADD PUSH2 0x11F4 JUMP JUMPDEST SWAP2 POP POP SWAP3 SWAP2 POP POP JUMP JUMPDEST PUSH0 DUP1 PUSH1 0x40 DUP4 DUP6 SUB SLT ISZERO PUSH2 0x1373 JUMPI PUSH2 0x1372 PUSH2 0x11DA JUMP JUMPDEST JUMPDEST PUSH0 PUSH2 0x1380 DUP6 DUP3 DUP7 ADD PUSH2 0x11F4 JUMP JUMPDEST SWAP3 POP POP PUSH1 0x20 PUSH2 0x1391 DUP6 DUP3 DUP7 ADD PUSH2 0x11F4 JUMP JUMPDEST SWAP2 POP POP SWAP3 POP SWAP3 SWAP1 POP JUMP JUMPDEST PUSH0 PUSH1 0x20 DUP3 DUP5 SUB SLT ISZERO PUSH2 0x13B0 JUMPI PUSH2 0x13AF PUSH2 0x11DA JUMP JUMPDEST JUMPDEST PUSH0 PUSH2 0x13BD DUP5 DUP3 DUP6 ADD PUSH2 0x122F JUMP JUMPDEST SWAP2 POP POP SWAP3 SWAP2 POP POP JUMP JUMPDEST PUSH0 PUSH1 0xC0 DUP3 ADD SWAP1 POP PUSH2 0x13D9 PUSH0 DUP4 ADD DUP10 PUSH2 0x1293 JUMP JUMPDEST PUSH2 0x13E6 PUSH1 0x20 DUP4 ADD DUP9 PUSH2 0x117F JUMP JUMPDEST PUSH2 0x13F3 PUSH1 0x40 DUP4 ADD DUP8 PUSH2 0x117F JUMP JUMPDEST PUSH2 0x1400 PUSH1 0x60 DUP4 ADD DUP7 PUSH2 0x117F JUMP JUMPDEST PUSH2 0x140D PUSH1 0x80 DUP4 ADD DUP6 PUSH2 0x1293 JUMP JUMPDEST PUSH2 0x141A PUSH1 0xA0 DUP4 ADD DUP5 PUSH2 0x11B2 JUMP JUMPDEST SWAP8 SWAP7 POP POP POP POP POP POP POP JUMP JUMPDEST PUSH0 DUP3 DUP3 MSTORE PUSH1 0x20 DUP3 ADD SWAP1 POP SWAP3 SWAP2 POP POP JUMP JUMPDEST PUSH32 0x5072696365206D7573742062652067726561746572207468616E203000000000 PUSH0 DUP3 ADD MSTORE POP JUMP JUMPDEST PUSH0 PUSH2 0x1469 PUSH1 0x1C DUP4 PUSH2 0x1425 JUMP JUMPDEST SWAP2 POP PUSH2 0x1474 DUP3 PUSH2 0x1435 JUMP JUMPDEST PUSH1 0x20 DUP3 ADD SWAP1 POP SWAP2 SWAP1 POP JUMP JUMPDEST PUSH0 PUSH1 0x20 DUP3 ADD SWAP1 POP DUP2 DUP2 SUB PUSH0 DUP4 ADD MSTORE PUSH2 0x1496 DUP2 PUSH2 0x145D JUMP JUMPDEST SWAP1 POP SWAP2 SWAP1 POP JUMP JUMPDEST PUSH32 0x546F74616C20736861726573206D757374206265206772656174657220746861 PUSH0 DUP3 ADD MSTORE PUSH32 0x6E20300000000000000000000000000000000000000000000000000000000000 PUSH1 0x20 DUP3 ADD MSTORE POP JUMP JUMPDEST PUSH0 PUSH2 0x14F7 PUSH1 0x23 DUP4 PUSH2 0x1425 JUMP JUMPDEST SWAP2 POP PUSH2 0x1502 DUP3 PUSH2 0x149D JUMP JUMPDEST PUSH1 0x40 DUP3 ADD SWAP1 POP SWAP2 SWAP1 POP JUMP JUMPDEST PUSH0 PUSH1 0x20 DUP3 ADD SWAP1 POP DUP2 DUP2 SUB PUSH0 DUP4 ADD MSTORE PUSH2 0x1524 DUP2 PUSH2 0x14EB JUMP JUMPDEST SWAP1 POP SWAP2 SWAP1 POP JUMP JUMPDEST PUSH0 PUSH1 0x60 DUP3 ADD SWAP1 POP PUSH2 0x153E PUSH0 DUP4 ADD DUP7 PUSH2 0x117F JUMP JUMPDEST PUSH2 0x154B PUSH1 0x20 DUP4 ADD DUP6 PUSH2 0x117F JUMP JUMPDEST PUSH2 0x1558 PUSH1 0x40 DUP4 ADD DUP5 PUSH2 0x117F JUMP JUMPDEST SWAP5 SWAP4 POP POP POP POP JUMP JUMPDEST PUSH32 0x4E487B7100000000000000000000000000000000000000000000000000000000 PUSH0 MSTORE PUSH1 0x11 PUSH1 0x4 MSTORE PUSH1 0x24 PUSH0 REVERT JUMPDEST PUSH0 PUSH2 0x1597 DUP3 PUSH2 0x1176 JUMP JUMPDEST SWAP2 POP PUSH32 0xFFFFFFFFFFFFFFFFFFFFFFFFFFFFFFFFFFFFFFFFFFFFFFFFFFFFFFFFFFFFFFFF DUP3 SUB PUSH2 0x15C9 JUMPI PUSH2 0x15C8 PUSH2 0x1560 JUMP JUMPDEST JUMPDEST PUSH1 0x1 DUP3 ADD SWAP1 POP SWAP2 SWAP1 POP JUMP JUMPDEST PUSH32 0x4F6E6C7920746865206F776E65722063616E2066696E616C697A652074686520 PUSH0 DUP3 ADD MSTORE PUSH32 0x73616C6500000000000000000000000000000000000000000000000000000000 PUSH1 0x20 DUP3 ADD MSTORE POP JUMP JUMPDEST PUSH0 PUSH2 0x162E PUSH1 0x24 DUP4 PUSH2 0x1425 JUMP JUMPDEST SWAP2 POP PUSH2 0x1639 DUP3 PUSH2 0x15D4 JUMP JUMPDEST PUSH1 0x40 DUP3 ADD SWAP1 POP SWAP2 SWAP1 POP JUMP JUMPDEST PUSH0 PUSH1 0x20 DUP3 ADD SWAP1 POP DUP2 DUP2 SUB PUSH0 DUP4 ADD MSTORE PUSH2 0x165B DUP2 PUSH2 0x1622 JUMP JUMPDEST SWAP1 POP SWAP2 SWAP1 POP JUMP JUMPDEST PUSH32 0x53686172657320617265207374696C6C20617661696C61626C65000000000000 PUSH0 DUP3 ADD MSTORE POP JUMP JUMPDEST PUSH0 PUSH2 0x1696 PUSH1 0x1A DUP4 PUSH2 0x1425 JUMP JUMPDEST SWAP2 POP PUSH2 0x16A1 DUP3 PUSH2 0x1662 JUMP JUMPDEST PUSH1 0x20 DUP3 ADD SWAP1 POP SWAP2 SWAP1 POP JUMP JUMPDEST PUSH0 PUSH1 0x20 DUP3 ADD SWAP1 POP DUP2 DUP2 SUB PUSH0 DUP4 ADD MSTORE PUSH2 0x16C3 DUP2 PUSH2 0x168A JUMP JUMPDEST SWAP1 POP SWAP2 SWAP1 POP JUMP JUMPDEST PUSH0 PUSH1 0x40 DUP3 ADD SWAP1 POP PUSH2 0x16DD PUSH0 DUP4 ADD DUP6 PUSH2 0x117F JUMP JUMPDEST PUSH2 0x16EA PUSH1 0x20 DUP4 ADD DUP5 PUSH2 0x117F JUMP JUMPDEST SWAP4 SWAP3 POP POP POP JUMP JUMPDEST PUSH2 0x16FA DUP2 PUSH2 0x11A7 JUMP JUMPDEST DUP2 EQ PUSH2 0x1704 JUMPI PUSH0 DUP1 REVERT JUMPDEST POP JUMP JUMPDEST PUSH0 DUP2 MLOAD SWAP1 POP PUSH2 0x1715 DUP2 PUSH2 0x16F1 JUMP JUMPDEST SWAP3 SWAP2 POP POP JUMP JUMPDEST PUSH0 PUSH1 0x20 DUP3 DUP5 SUB SLT ISZERO PUSH2 0x1730 JUMPI PUSH2 0x172F PUSH2 0x11DA JUMP JUMPDEST JUMPDEST PUSH0 PUSH2 0x173D DUP5 DUP3 DUP6 ADD PUSH2 0x1707 JUMP JUMPDEST SWAP2 POP POP SWAP3 SWAP2 POP POP JUMP JUMPDEST PUSH32 0x50726F7065727479206973206E6F74206C697374656400000000000000000000 PUSH0 DUP3 ADD MSTORE POP JUMP JUMPDEST PUSH0 PUSH2 0x177A PUSH1 0x16 DUP4 PUSH2 0x1425 JUMP JUMPDEST SWAP2 POP PUSH2 0x1785 DUP3 PUSH2 0x1746 JUMP JUMPDEST PUSH1 0x20 DUP3 ADD SWAP1 POP SWAP2 SWAP1 POP JUMP JUMPDEST PUSH0 PUSH1 0x20 DUP3 ADD SWAP1 POP DUP2 DUP2 SUB PUSH0 DUP4 ADD MSTORE PUSH2 0x17A7 DUP2 PUSH2 0x176E JUMP JUMPDEST SWAP1 POP SWAP2 SWAP1 POP JUMP JUMPDEST PUSH32 0x4E6F7420656E6F7567682073686172657320617661696C61626C650000000000 PUSH0 DUP3 ADD MSTORE POP JUMP JUMPDEST PUSH0 PUSH2 0x17E2 PUSH1 0x1B DUP4 PUSH2 0x1425 JUMP JUMPDEST SWAP2 POP PUSH2 0x17ED DUP3 PUSH2 0x17AE JUMP JUMPDEST PUSH1 0x20 DUP3 ADD SWAP1 POP SWAP2 SWAP1 POP JUMP JUMPDEST PUSH0 PUSH1 0x20 DUP3 ADD SWAP1 POP DUP2 DUP2 SUB PUSH0 DUP4 ADD MSTORE PUSH2 0x180F DUP2 PUSH2 0x17D6 JUMP JUMPDEST SWAP1 POP SWAP2 SWAP1 POP JUMP JUMPDEST PUSH32 0x53686172657320746F20627579206D7573742062652067726561746572207468 PUSH0 DUP3 ADD MSTORE PUSH32 0x616E203000000000000000000000000000000000000000000000000000000000 PUSH1 0x20 DUP3 ADD MSTORE POP JUMP JUMPDEST PUSH0 PUSH2 0x1870 PUSH1 0x24 DUP4 PUSH2 0x1425 JUMP JUMPDEST SWAP2 POP PUSH2 0x187B DUP3 PUSH2 0x1816 JUMP JUMPDEST PUSH1 0x40 DUP3 ADD SWAP1 POP SWAP2 SWAP1 POP JUMP JUMPDEST PUSH0 PUSH1 0x20 DUP3 ADD SWAP1 POP DUP2 DUP2 SUB PUSH0 DUP4 ADD MSTORE PUSH2 0x189D DUP2 PUSH2 0x1864 JUMP JUMPDEST SWAP1 POP SWAP2 SWAP1 POP JUMP JUMPDEST PUSH0 PUSH2 0x18AE DUP3 PUSH2 0x1176 JUMP JUMPDEST SWAP2 POP PUSH2 0x18B9 DUP4 PUSH2 0x1176 JUMP JUMPDEST SWAP3 POP DUP3 DUP3 MUL PUSH2 0x18C7 DUP2 PUSH2 0x1176 JUMP JUMPDEST SWAP2 POP DUP3 DUP3 DIV DUP5 EQ DUP4 ISZERO OR PUSH2 0x18DE JUMPI PUSH2 0x18DD PUSH2 0x1560 JUMP JUMPDEST JUMPDEST POP SWAP3 SWAP2 POP POP JUMP JUMPDEST PUSH32 0x4E487B7100000000000000000000000000000000000000000000000000000000 PUSH0 MSTORE PUSH1 0x12 PUSH1 0x4 MSTORE PUSH1 0x24 PUSH0 REVERT JUMPDEST PUSH0 PUSH2 0x191C DUP3 PUSH2 0x1176 JUMP JUMPDEST SWAP2 POP PUSH2 0x1927 DUP4 PUSH2 0x1176 JUMP JUMPDEST SWAP3 POP DUP3 PUSH2 0x1937 JUMPI PUSH2 0x1936 PUSH2 0x18E5 JUMP JUMPDEST JUMPDEST DUP3 DUP3 DIV SWAP1 POP SWAP3 SWAP2 POP POP JUMP JUMPDEST PUSH0 PUSH2 0x194C DUP3 PUSH2 0x1176 JUMP JUMPDEST SWAP2 POP PUSH2 0x1957 DUP4 PUSH2 0x1176 JUMP JUMPDEST SWAP3 POP DUP3 DUP3 SUB SWAP1 POP DUP2 DUP2 GT ISZERO PUSH2 0x196F JUMPI PUSH2 0x196E PUSH2 0x1560 JUMP JUMPDEST JUMPDEST SWAP3 SWAP2 POP POP JUMP JUMPDEST PUSH0 PUSH1 0x40 DUP3 ADD SWAP1 POP PUSH2 0x1988 PUSH0 DUP4 ADD DUP6 PUSH2 0x1293 JUMP JUMPDEST PUSH2 0x1995 PUSH1 0x20 DUP4 ADD DUP5 PUSH2 0x117F JUMP JUMPDEST SWAP4 SWAP3 POP POP POP JUMP JUMPDEST PUSH0 PUSH1 0x60 DUP3 ADD SWAP1 POP PUSH2 0x19AF PUSH0 DUP4 ADD DUP7 PUSH2 0x1293 JUMP JUMPDEST PUSH2 0x19BC PUSH1 0x20 DUP4 ADD DUP6 PUSH2 0x1293 JUMP JUMPDEST PUSH2 0x19C9 PUSH1 0x40 DUP4 ADD DUP5 PUSH2 0x117F JUMP JUMPDEST SWAP5 SWAP4 POP POP POP POP JUMP JUMPDEST PUSH0 DUP2 MLOAD SWAP1 POP SWAP2 SWAP1 POP JUMP JUMPDEST PUSH0 DUP2 SWAP1 POP SWAP3 SWAP2 POP POP JUMP JUMPDEST DUP3 DUP2 DUP4 MCOPY PUSH0 DUP4 DUP4 ADD MSTORE POP POP POP JUMP JUMPDEST PUSH0 PUSH2 0x19FD DUP3 PUSH2 0x19D1 JUMP JUMPDEST PUSH2 0x1A07 DUP2 DUP6 PUSH2 0x19DB JUMP JUMPDEST SWAP4 POP PUSH2 0x1A17 DUP2 DUP6 PUSH1 0x20 DUP7 ADD PUSH2 0x19E5 JUMP JUMPDEST DUP1 DUP5 ADD SWAP2 POP POP SWAP3 SWAP2 POP POP JUMP JUMPDEST PUSH0 PUSH2 0x1A2E DUP3 DUP5 PUSH2 0x19F3 JUMP JUMPDEST SWAP2 POP DUP2 SWAP1 POP SWAP3 SWAP2 POP POP JUMP INVALID LOG2 PUSH5 0x6970667358 0x22 SLT KECCAK256 0xC5 0xD1 0xEC SWAP7 0x1E SLT 0xBE 0xEA 0xD9 0xC1 LOG3 DUP14 0x4E 0xF6 PUSH2 0xEC8C LOG4 PUSH1 0x1B MSTORE8 0x2C PUSH8 0xCAFBFE4C75F41977 0xD6 PUSH5 0x736F6C6343 STOP ADDMOD BYTE STOP CALLER "
				},
				"gasEstimates": {
					"creation": {
						"codeDepositCost": "1353400",
						"executionCost": "infinite",
						"totalCost": "infinite"
					},
					"external": {
						"alvaraProtocol()": "infinite",
						"finalizeSale(uint256,address)": "infinite",
						"integrateWithAlvara(uint256)": "infinite",
						"listProperty(uint256,uint256,address)": "infinite",
						"nextPropertyId()": "2471",
						"owner()": "2538",
						"pause()": "infinite",
						"paused()": "2547",
						"paymentToken()": "infinite",
						"properties(uint256)": "infinite",
						"purchaseShares(uint256,uint256)": "infinite",
						"renounceOwnership()": "infinite",
						"transferOwnership(address)": "infinite",
						"unpause()": "infinite"
					}
				},
				"methodIdentifiers": {
					"alvaraProtocol()": "b41b936d",
					"finalizeSale(uint256,address)": "b4d346be",
					"integrateWithAlvara(uint256)": "baf52c77",
					"listProperty(uint256,uint256,address)": "86aa217e",
					"nextPropertyId()": "39500f34",
					"owner()": "8da5cb5b",
					"pause()": "8456cb59",
					"paused()": "5c975abb",
					"paymentToken()": "3013ce29",
					"properties(uint256)": "f7b10808",
					"purchaseShares(uint256,uint256)": "d2bcdc60",
					"renounceOwnership()": "715018a6",
					"transferOwnership(address)": "f2fde38b",
					"unpause()": "3f4ba83a"
				}
			},
			"storageLayout": {
				"storage": [
					{
						"astId": 8,
						"contract": "contracts/real-estate-marketplace/Marketplace.sol:Marketplace",
						"label": "_owner",
						"offset": 0,
						"slot": "0",
						"type": "t_address"
					},
					{
						"astId": 843,
						"contract": "contracts/real-estate-marketplace/Marketplace.sol:Marketplace",
						"label": "_paused",
						"offset": 20,
						"slot": "0",
						"type": "t_bool"
					},
					{
						"astId": 2072,
						"contract": "contracts/real-estate-marketplace/Marketplace.sol:Marketplace",
						"label": "properties",
						"offset": 0,
						"slot": "1",
						"type": "t_mapping(t_uint256,t_struct(Property)2067_storage)"
					},
					{
						"astId": 2074,
						"contract": "contracts/real-estate-marketplace/Marketplace.sol:Marketplace",
						"label": "nextPropertyId",
						"offset": 0,
						"slot": "2",
						"type": "t_uint256"
					},
					{
						"astId": 2077,
						"contract": "contracts/real-estate-marketplace/Marketplace.sol:Marketplace",
						"label": "paymentToken",
						"offset": 0,
						"slot": "3",
						"type": "t_contract(IERC20)225"
					},
					{
						"astId": 2080,
						"contract": "contracts/real-estate-marketplace/Marketplace.sol:Marketplace",
						"label": "alvaraProtocol",
						"offset": 0,
						"slot": "4",
						"type": "t_contract(IAlvaraProtocol)2020"
					}
				],
				"types": {
					"t_address": {
						"encoding": "inplace",
						"label": "address",
						"numberOfBytes": "20"
					},
					"t_bool": {
						"encoding": "inplace",
						"label": "bool",
						"numberOfBytes": "1"
					},
					"t_contract(IAlvaraProtocol)2020": {
						"encoding": "inplace",
						"label": "contract IAlvaraProtocol",
						"numberOfBytes": "20"
					},
					"t_contract(IERC20)225": {
						"encoding": "inplace",
						"label": "contract IERC20",
						"numberOfBytes": "20"
					},
					"t_mapping(t_uint256,t_struct(Property)2067_storage)": {
						"encoding": "mapping",
						"key": "t_uint256",
						"label": "mapping(uint256 => struct Marketplace.Property)",
						"numberOfBytes": "32",
						"value": "t_struct(Property)2067_storage"
					},
					"t_struct(Property)2067_storage": {
						"encoding": "inplace",
						"label": "struct Marketplace.Property",
						"members": [
							{
								"astId": 2056,
								"contract": "contracts/real-estate-marketplace/Marketplace.sol:Marketplace",
								"label": "owner",
								"offset": 0,
								"slot": "0",
								"type": "t_address"
							},
							{
								"astId": 2058,
								"contract": "contracts/real-estate-marketplace/Marketplace.sol:Marketplace",
								"label": "price",
								"offset": 0,
								"slot": "1",
								"type": "t_uint256"
							},
							{
								"astId": 2060,
								"contract": "contracts/real-estate-marketplace/Marketplace.sol:Marketplace",
								"label": "totalShares",
								"offset": 0,
								"slot": "2",
								"type": "t_uint256"
							},
							{
								"astId": 2062,
								"contract": "contracts/real-estate-marketplace/Marketplace.sol:Marketplace",
								"label": "availableShares",
								"offset": 0,
								"slot": "3",
								"type": "t_uint256"
							},
							{
								"astId": 2064,
								"contract": "contracts/real-estate-marketplace/Marketplace.sol:Marketplace",
								"label": "tokenAddress",
								"offset": 0,
								"slot": "4",
								"type": "t_address"
							},
							{
								"astId": 2066,
								"contract": "contracts/real-estate-marketplace/Marketplace.sol:Marketplace",
								"label": "isListed",
								"offset": 20,
								"slot": "4",
								"type": "t_bool"
							}
						],
						"numberOfBytes": "160"
					},
					"t_uint256": {
						"encoding": "inplace",
						"label": "uint256",
						"numberOfBytes": "32"
					}
				}
			},
			"userdoc": {
				"kind": "user",
				"methods": {},
				"version": 1
			}
		}
	}
}